{"contracts/Verifier.sol":{"HonkVerifier":{"abi":[{"inputs":[],"name":"ProofLengthWrong","type":"error"},{"inputs":[],"name":"PublicInputsLengthWrong","type":"error"},{"inputs":[],"name":"ShpleminiFailed","type":"error"},{"inputs":[],"name":"SumcheckFailed","type":"error"},{"inputs":[{"internalType":"bytes","name":"proof","type":"bytes"},{"internalType":"bytes32[]","name":"publicInputs","type":"bytes32[]"}],"name":"verify","outputs":[{"internalType":"bool","name":"","type":"bool"}],"stateMutability":"view","type":"function"}],"evm":{"bytecode":{"linkReferences":{},"object":"60e060405234801561001057600080fd5b5062040000608052601260a052600260c05260805160a05160c05161556061005f60003960006105b801526000818161067101528181610c660152610d040152600061055f01526155606000f3fe608060405234801561001057600080fd5b506004361061002b5760003560e01c8063ea50d0e414610030575b600080fd5b61004361003e366004615136565b610057565b604051901515815260200160405180910390f35b60006100666101b86020615211565b8414610085576040516376ba560560e11b815260040160405180910390fd5b600061008f6101a3565b9050600061009d87876101b8565b604083015190915084146100c45760405163fa06659360e01b815260040160405180910390fd5b60006100dd828787866000015187604001516001610498565b905061012c868680806020026020016040519081016040528093929190818152602001838360200280828437600092019190915250508451606081015160809091015190925090506001610548565b815160a00152600061013e8383610668565b90508061015e576040516313f8744360e31b815260040160405180910390fd5b600061016b848685610775565b90508061018b576040516352ec174560e11b815260040160405180910390fd5b8180156101955750805b9a9950505050505050505050565b6101ab614a03565b6101b3611008565b905090565b6101c0614dba565b6101d66101d1608060008587615228565b61190f565b81526101ea6101d161010060808587615228565b60208201526102026101d16101806101008587615228565b604082015261021a6101d16102006101808587615228565b60a08201526102326101d16102806102008587615228565b60c082015261024a6101d16103006102808587615228565b60608201526102626101d16103806103008587615228565b60e082015261027a6101d16104006103808587615228565b608082015261040060005b601c8110156103275760005b6008811015610314576102bd8684876102ab826020615252565b926102b893929190615228565b6119e5565b84610100015183601c81106102d4576102d4615265565b602002015182600881106102ea576102ea615265565b6020020181815250506020836103009190615252565b92508061030c8161527b565b915050610291565b508061031f8161527b565b915050610285565b5060005b6028811015610386576103458583866102ab826020615252565b836101200151826028811061035c5761035c615265565b6020020181815250506020826103729190615252565b91508061037e8161527b565b91505061032b565b5060005b6103966001601c615294565b8110156103f6576103bb8583866103ae826080615252565b926101d193929190615228565b83610140015182601b81106103d2576103d2615265565b60200201526103e2608083615252565b9150806103ee8161527b565b91505061038a565b5060005b601c811015610455576104148583866102ab826020615252565b83610160015182601c811061042b5761042b615265565b6020020181815250506020826104419190615252565b91508061044d8161527b565b9150506103fa565b506104678482856103ae826080615252565b610180830152610478816080615252565b905061048b8482856103ae826080615252565b6101a08301525092915050565b6104a0614e77565b60006104b188888888888887611a42565b90835290506104c08189611aca565b602084019190915290506104d381611c71565b604084019190915290506104e78882611cdf565b606084019190915290506104fb8882611dcc565b6080840191909152905061050f8882611e64565b60a084019190915290506105238882611fde565b60c08401919091529050610537888261205c565b5060e0830152509695505050505050565b6000600180826105928661058d896105886105838a7f0000000000000000000000000000000000000000000000000000000000000000615252565b6120b4565b6120d4565b6120ef565b905060006105b1876105ac8a6105886105838b6001615252565b61210a565b905060005b7f00000000000000000000000000000000000000000000000000000000000000008110156106505760006106028b83815181106105f5576105f5615265565b60200260200101516120b4565b90506106128661058886846120ef565b95506106228561058885846120ef565b945061062e848b6120ef565b935061063a838b61210a565b92505080806106489061527b565b9150506105b6565b5061065b848461213c565b9998505050505050505050565b6000806001815b7f000000000000000000000000000000000000000000000000000000000000000081101561074957600086610100015182601c81106106b0576106b0615265565b6020020151905060006106c3828661214b565b9050806106e3576040516313f8744360e31b815260040160405180910390fd5b6000876060015184601c81106106fb576106fb615265565b6020020151905061070c8382612169565b9550610733886040015185601c811061072757610727615265565b60200201518683612336565b9450505050806107429061527b565b905061066f565b5060006107658661012001518660000151876020015185612362565b90508281145b9695505050505050565b60006107c66040518061012001604052806000815260200160008152602001600081526020016000815260200160008152602001600081526020016000815260200160008152602001600081525090565b60006107d58460a001516123d1565b90506107df614f05565b6107e7614f24565b60e086015161080790610802908560005b602002015161210a565b61243e565b60a085015260e086015161082790610802908560005b60200201516120ef565b60c080860182905260a0860151908801516108469261058d91906120d4565b845260a08601516108749061085a9061243e565b6105888660a001516105ac8a60c001518960c001516120d4565b60208501526001825261018088015161088c906124ae565b8152600160608501819052600060808601525b60238111610946576108c16108b786600001516124fa565b86606001516120d4565b8382604681106108d3576108d3615265565b602002015260808501516101208a0151610916919061058d906108f7600186615294565b6028811061090757610907615265565b602002015188606001516120d4565b856080018181525050610931856060015188608001516120d4565b606086015261093f8161527b565b905061089f565b50600061095560236001615252565b90505b602881116109d6576109706108b786602001516124fa565b83826046811061098257610982615265565b602002015260808501516101208a01516109a6919061058d906108f7600186615294565b8560800181815250506109c1856060015188608001516120d4565b60608601526109cf8161527b565b9050610958565b50606087015181600160200201526080870151816002602002015260a0870151816003602002015260c0870151816004602002015260e0870151816005602002015261010087015181600660200201526101208701518160076020020152610140870151816008602002015261016087015181600960200201526101a087015181600a602002015261018087015181600b60200201526101c087015181600c60200201526101e087015181600d602002015261020087015181600e602002015261022087015181600f60200201526102408701518160106020020152610260870151816011602002015261028087015181601260200201526102a087015181601360200201526102c087015181601460200201526102e08701518160156020020152610300870151816016602002015261032087015181601760200201526103408701518160186020020152610360870151816019602002015261038087015181601a60200201526103a087015181601b60200201528751610b57906124ae565b6103808201526020880151610b6b906124ae565b6103a08201526040880151610b7f906124ae565b6103c08201526060880151610b93906124ae565b6103e08201526080880151610ba7906124ae565b61040082015260e0880151610bbb906124ae565b61042082015260a0880151610bcf906124ae565b61044082015260c0880151610be3906124ae565b6104608201528751610bf4906124ae565b6104808201526020880151610c08906124ae565b6104a08201526040880151610c1c906124ae565b6104c08201526060880151610c30906124ae565b6104e08201526080880151610c44906124ae565b610500820152606086015160808501516101608a0151600092610c8a929091877f0000000000000000000000000000000000000000000000000000000000000000612514565b805160a0870151919250610c9d916120d4565b604086018190526101608a01515160c0890151610ccd929161058d91610cc391906120d4565b8860c001516120d4565b604086015260c0870151610ce090612632565b606086015260005b610cf46001601c615294565b811015610f00576000610d2860017f0000000000000000000000000000000000000000000000000000000000000000615294565b821015905080610e9e57610d5b6108028a60e0015188856001610d4b9190615252565b601c81106107f8576107f8615265565b60a088015260e0890151610d89906108029088610d79866001615252565b601c811061081d5761081d615265565b60c0880152606087015160a0880151610da291906120d4565b60e0880152606087015160c08a0151610dbe91610cc3916120d4565b6101008801819052610de090610dd3906124fa565b61058d8960e001516124fa565b8583610dee60286001615252565b610df89190615252565b60468110610e0857610e08615265565b60200201526101008701516101608c0151600091610e4591610e2b866001615252565b601c8110610e3b57610e3b615265565b60200201516120d4565b9050610e618161058d8a60e0015187876001610e2b9190615252565b9050610e718860400151826120ef565b6040890152606088015160c08b0151610e9791610e8d916120d4565b8b60c001516120d4565b6060890152505b610ec28b610140015183601b8110610eb857610eb8615265565b60200201516124ae565b8483610ed060286001615252565b610eda9190615252565b60468110610eea57610eea615265565b602002015250610ef98161527b565b9050610ce8565b5060408051808201909152600181526002602082015282610f23601c6028615252565b60468110610f3357610f33615265565b6020020152604085015183610f4a601c6028615252565b60468110610f5a57610f5a615265565b60200201526101a0890151600090610f71906124ae565b90508083610f81601c6028615252565b610f8c906001615252565b60468110610f9c57610f9c615265565b602002015260e088015184610fb3601c6028615252565b610fbe906001615252565b60468110610fce57610fce615265565b60200201526000610fdf848661263e565b90506000610fec83612711565b9050610ff88282612789565b9c9b505050505050505050505050565b611010614a03565b50604080516103c0810182526204000081526012602080830191909152600282840152825180840184527eac6c565d18565315c3bcf77a43cc3debd05e4e0b176382303e7f6c69b57a7981527f062eeb40ea42e07877d457294f8aa8c91fa40b4ea70ab3b293eda5d8d36fb1f2818301526060830152825180840184527f0a84fcbbd1ff6bcad9880bb39dc7e804217bc750682994e68d3369896c65f5f481527f02e0de120112ac2336cf5fd7e67b34b5aa0733bf11914c634f385cba580bb025818301526080830152825180840184527f2c076f3fc0973f46712a08502424f2acf58ca1837d7c4d22531a7d37b6960a2981527f23e1628f732c99c12445ab4a004259e73f3ca9bb37705fb551be3a83be7957068183015260a0830152825180840184527f02ae160c39d2ac738c03c0e2568ae914ddba2a65347ccb36ee8452a90e7a300381527f0e7b0132c9c67e70075fc108f229eb00984fc79bc39e70255ddb77f7f45e80c58183015260c0830152825180840184527f04c86b5d44fb8b09ba8ca9794ca1c57755e80bfc28af23daaccbbc0d9f27bf0481527f07e3fb28f8c4a3c4ddf5d339b7f9babd161b20ed836dcb82351f9937fc6f3a9e8183015260e0830152825180840184527f2a1ec8f1ec3c797db654de7f49e2d50a0ec3db32cc6c7151dd525e219577a1cd81527f0b130591d3eb963157025f812add1d054afc9aba7a6cac2c3749e14eaf71c4f181830152610100830152825180840184527f21dc62f1d89eecc2389b3d7688ee423e1461b86e1313b685580e973500a1a65d81527f0a9f8725055384afd52dbc4f942f12f03e6b01999b5257e19092beb6ce861c7581830152610120830152825180840184527f28ed32739a371ff86e76b50b12bb11f475507e332d40a46b643a46b34d9bc41f81527f0bdee86af78912d2c95ecd8a5d35f953a4e93a4857297163e4a18597e1f0220c81830152610140830152825180840184527f2d946d03d2628b5cbd916a6f0a16d3ca741e2238aadd9e67fd597718968d648881527f1b56523aeaa9fc75b6bc16dca4d798740afdaca8d0bfd81f27e2458834d23b0d81830152610160830152825180840184527f26f7114b3a1cadb14f2a9591f79a59871d0de5402f5d4cca616186d6c36bacf881527f114ac03ee0f9dc60117581e6f4b9371ab2e01d3aae36b125ab172e167a7afd1781830152610180830152825180840184527f0144e5937e0ea0599ef00bd4b16a09db19caf74ace8a114ae27e241b012b65c581527f2aad0e4f0c9f7b36d2c1328510c8d1de10078ad62640328f8f8be1a44c1a3990818301526101a0830152825180840184527f292d36a280e0afe139947a72e33540fa7683af7d3c01839f873b190e1338694381527f139e96ef979a9d683b2103e7b8b644c98d59cd7119e3296af2f650438c1819aa818301526101c0830152825180840184527f2ec128185be779c06cfc1f7d385b6618f46b11fa41bc01afe737d422caf7499f81527f18e47f4031eb5422c4e440e2fe3c1a5fb8eff193a7d2f2e704ae92b765439795818301526101e0830152825180840184527f0b02c661a1e22ca234b4e5501b7d51b252b856a7b53f0d2f27caeeb097f651e181527f0b46f3757e831f1ea2674a561432305aa938ce4f8878d06b55b7560d314b732481830152610200830152825180840184527f072ad35c4f142a41045ca6393183b05cce13cfcf6fbaef8a42ddc341cba7809c81527f29b77a067f3d9dcc3acb5f6a7f3c6ba2a93e1d4354202eaea9162609a1f1e74b81830152610220830152825180840184527f271fa99a8b0a2a5792ff70a0482b7c0a122c9e75e65ecb7423d68fd2dfde4e5b81527f263e4096c34386bd7379e766a37d811e44d2c055fab98678c3f7cf31f10e214681830152610240830152825180840184527f09992819934204932cc49e67cff10f90ac320fdc88be691ea008921e60d5812081527f06c64281b9b231cbd813857a15c801fa02f85e5aef171cbd5941f4fcfc4923f081830152610260830152825180840184527f071396b02813c8319631eecd9798d6d974d5c2e9f54e405fe1eb4d2be21e349481527f0b01b3fcfa64394b3f9f516dc7348f3dbf5e4bbf2b94abbb5bf8e1e7dc53b32f81830152610280830152825180840184527f239981731452de519d49338d61841caf16c8f180a4b61027f1c17863717b708781527f270d770549eb8b5425fccc8fe306191b45550e90723ee98311bd6c6a1ae793d9818301526102a0830152825180840184527f0749626812fd75117335746a2d8a0aeeab686c26e0fd137f85ff8ff48ebe1fdf81527f0405d496b14aa96146cb4cf73bc39371b553cd7b6c785fd0a73dbb5b7a5be4e4818301526102c0830152825180840184527f0c7b84aea3f412324064723bf4c9c03d965f6d9bf17a399962d40a009d5e4be681527f0a243c95d3df3b02c445d9a504f0bff0ce811e6b7cfe6dcb6695396618a4c352818301526102e0830152825180840184527f2a45764d9f06457964e4c6711369289c89a43c11683f81b148e8b328e4c22c7d81527f22f581c3c68b3c206143e97690fb5ac27c46f0ee46a17ab731f27700702b281c81830152610300830152825180840184527f2c8cd3d61f5a6c13997098c83919f769ef00a728b7462dadf61e3b0b84d546f281527f0c0b38e698724fc90935b8a9f4064a1d38bcf5f21a8d31407cc0c8f10591d63781830152610320830152825180840184527f22bcc14fc05a041db1f726228c25a10b0106fec796bdd388a844061c49b5b77981527f01ffbde35e089f0ca23daf9afb0ef1b06f5d23a9301609ab2aceb3c313ebb0ba81830152610340830152825180840184527f0fb1df728484dc24bfbdf422e7c56dcfe3045e87347be1e6a4cb045b2b91b90981527f1efc1252647c0b54202356df5ce8ac3913893c63c275b66a0e8fd91f3087940681830152610360830152825180840184527f2ebaf079711e4cb519de30a21c58b8c97c4d6e3394e173dc511bedd586ac194081527f18804efa23a06d9217d2ed683d343ced6beffe071ed2812604112ceda07a10788183015261038083015282518084019093527f2b37631a3d9cbfac8f5f7492fcfd4f44d0fd2add2f1c6ae587bee7d24f0605728352600160f81b908301526103a081019190915290565b611917614f5e565b608082146119625760405162461bcd60e51b81526020600482015260136024820152721a5b9d985b1a5908189e5d195cc81c1bda5b9d606a1b60448201526064015b60405180910390fd5b60408051608081019091528061197c602060008688615228565b611985916152a7565b815260209081019061199b906040908688615228565b6119a4916152a7565b81526020016119b7606060408688615228565b6119c0916152a7565b81526020016119d3608060608688615228565b6119dc916152a7565b90529392505050565b600060208214611a2e5760405162461bcd60e51b815260206004820152601460248201527334b73b30b634b210313cba32b99039b1b0b630b960611b6044820152606401611959565b611a3b61058383856152a7565b9392505050565b611a7b6040518060c001604052806000815260200160008152602001600081526020016000815260200160008152602001600081525090565b6000611a8b898989898989612993565b604086019190915260208501919091529083529250611aaa838a612dc8565b608085019190915260608401919091529199919850909650505050505050565b611ad2614f86565b6000611adc614fa5565b84815260e0848101805151602080850191909152815181015160408086019190915282518101516060808701919091529251830151608080870191909152880180515160a0870152805183015160c08701528051820151948601949094529251909101516101008401529051611b7391611b58918491016152c5565b604051602081830303815290604052805190602001206120b4565b9150611b7e82612e95565b6020850152835260015b611b9460026019615310565b811015611c1e57611bb183604051602001611b5891815260200190565b9250611bbc83612e95565b85611bc8846002615211565b60198110611bd857611bd8615265565b6020020186611be8856002615211565b611bf3906001615252565b60198110611c0357611c03615265565b60200201919091525280611c168161527b565b915050611b88565b50611c3582604051602001611b5891815260200190565b91506000611c4283612e95565b85611c4f60016019615294565b60198110611c5f57611c5f615265565b60200201919091525050509250929050565b611c79614fc4565b6000805b601c811015611cd857611c9c84604051602001611b5891815260200190565b93506000611ca985612e95565b8584601c8110611cbb57611cbb615265565b602002019190915250819050611cd08161527b565b915050611c7d565b5090929050565b611ce7614fc4565b6000805b601c811015611dc357611cfc614fa5565b84815260005b6008811015611d705786610100015183601c8110611d2257611d22615265565b60200201518160088110611d3857611d38615265565b602002015182611d49836001615252565b60098110611d5957611d59615265565b602002015280611d688161527b565b915050611d02565b50611d8581604051602001611b5891906152c5565b94506000611d9286612e95565b8685601c8110611da457611da4615265565b602002019190915250829150611dbb90508161527b565b915050611ceb565b50909391925050565b600080611dd7614fe3565b83815260005b6028811015611e35578561012001518160288110611dfd57611dfd615265565b602002015182611e0e836001615252565b60298110611e1e57611e1e615265565b602002015280611e2d8161527b565b915050611ddd565b50611e4a81604051602001611b589190615324565b91506000611e5783612e95565b5096929550919350505050565b600080611e6f615002565b83815260005b611e816001601c615294565b811015611fc95785610140015181601b8110611e9f57611e9f615265565b60200201515182611eb1836004615211565b611ebc906001615252565b606d8110611ecc57611ecc615265565b602002015261014086015181601b8110611ee857611ee8615265565b60200201516020015182826004611eff9190615211565b611f0a906002615252565b606d8110611f1a57611f1a615265565b602002015261014086015181601b8110611f3657611f36615265565b60200201516040015182611f4b836004615211565b611f56906003615252565b606d8110611f6657611f66615265565b602002015261014086015181601b8110611f8257611f82615265565b60200201516060015182611f97836004615211565b611fa2906004615252565b606d8110611fb257611fb2615265565b602002015280611fc18161527b565b915050611e75565b50611e4a81604051602001611b589190615359565b600080611fe9615021565b83815260005b601c8110156120475785610160015181601c811061200f5761200f615265565b602002015182612020836001615252565b601d811061203057612030615265565b60200201528061203f8161527b565b915050611fef565b50611e4a81604051602001611b58919061538e565b600080612067615040565b83815261018085018051516020808401919091528151810151604080850191909152825181015160608086019190915292519092015160808401529051611e4a91611b58918491016153c3565b60006120ce60008051602061550b833981519152836153f7565b92915050565b600060008051602061550b8339815191528284099392505050565b600060008051602061550b8339815191528284089392505050565b600060008051602061550b8339815191526121338360008051602061550b833981519152615294565b84089392505050565b6000611a3b836105888461243e565b8151600090819061215e9085600161081d565b929092149392505050565b60408051610100810182527f30644e72e131a029b85045b68181585d2833e84879b9709143e1f593efffec5181526102d060208201527f30644e72e131a029b85045b68181585d2833e84879b9709143e1f593efffff1191810191909152609060608201527f30644e72e131a029b85045b68181585d2833e84879b9709143e1f593efffff71608082015260f060a08201527f30644e72e131a029b85045b68181585d2833e84879b9709143e1f593effffd3160c08201526113b060e08201526000906001825b60088110156122595761224782610588878461210a565b91506122528161527b565b9050612230565b5061226261505e565b60005b60088110156122cd57600084826008811061228257612282615265565b6020020151905061229781610588898561210a565b90506122a28161243e565b9050808383600881106122b7576122b7615265565b6020020152506122c68161527b565b9050612265565b5060005b600881101561232b5760008782600881106122ee576122ee615265565b6020020151905061230b81848460088110610e3b57610e3b615265565b905061231786826120ef565b955050806123249061527b565b90506122d1565b5061076b84836120d4565b60008061234d600161058d8561058889600161210a565b905061235984826120d4565b95945050505050565b600061236c61507d565b612377868285612ecf565b61238386868386613080565b61238f8686838661326d565b61239a868285613474565b6123a5868285613666565b6123b1868683866139cb565b6123bc868285614286565b6123c7868285614662565b61076b8185614964565b6123d9614fc4565b81815260015b601c81101561243857612411826123f7600184615294565b601c811061240757612407615265565b6020020151612632565b8282601c811061242357612423615265565b60200201526124318161527b565b90506123df565b50919050565b60008082905060006040516020815260208082015260206040820152826060820152600260008051602061550b83398151915203608082015260008051602061550b83398151915260a08201526020600060c08360055afa9050806124a257600080fd5b50506000519392505050565b6040805180820190915260008082526020820152604051806040016040528060888460200151901b846000015117815260200160888460600151901b8460400151178152509050919050565b60006120ce8260008051602061550b833981519152615294565b61251c614fc4565b601c5b801561262857600084612533600184615294565b601c811061254357612543615265565b60200201519050600088612558600185615294565b601c811061256857612568615265565b6020020151905060006125c4612588612581858c6120d4565b60026120d4565b6105ac8a612597600189615294565b601c81106125a7576125a7615265565b60200201516105886125be8861058860018a61210a565b8761210a565b90506125e5816105886108026125df8761058860018961210a565b866120ef565b90508584116126145797508780856125fe600187615294565b601c811061260e5761260e615265565b60200201525b505050806126219061540b565b905061251f565b5095945050505050565b60006120ce82836120d4565b60408051808201909152600080825260208201526000612660601c6028615252565b61266b906002615252565b90506001604051855151604082015285516020015160608201528451608082015260408160606040840160075afa8216915060015b838110156126f95760208102870160208202870181515160408501528151602001516060850152805160808501525050604080830160606040850160075afa8316925060408260808460065afa909216916001016126a0565b50805184526020810151602085015250505092915050565b60408051808201909152600080825260208201527f30644e72e131a029b85045b68181585d97816a916871ca8d3c208c16d87cfd4782602001517f30644e72e131a029b85045b68181585d97816a916871ca8d3c208c16d87cfd476127769190615294565b61278091906153f7565b60208301525090565b81516020808401518351848301516040805194850195909552938301919091527f198e9393920d483a7260bfb731fb5d25f1aa493335a9e71297e485b7aef312c260608301527f1800deef121f1e76426a00665e5c4479674322d4f75edadd46debd5cd992f6ed60808301527f090689d0585ff075ec9e99ad690c3395bc4b313370b38ef355acdadcd122975b60a08301527f12c85ea5db8c6deb4aab71808dcb408fe3d1e7690c43d37b4ce6cc0166fa7daa60c083015260e08201526101008101919091527f260e01b251f6f1c7e7ff4e580791dee8ea51d87a358e038b4efe30fac09383c16101208201527f0118c4d5b837bcc2bc89b5b398b5974e9f5944073b32078b7e231fec938883b06101408201527f04fc6369f7110fe3d25156c1bb9a72859cf2a04641f99ba4ee413c80da6a5fe46101608201527f22febda3c0c0632a56475b4214e5615e11e6dd3f96e6cea2854a87d4dacc5e5561018082015260009081906101a001604051602081830303815290604052905060008060086001600160a01b0316836040516129219190615422565b600060405180830381855afa9150503d806000811461295c576040519150601f19603f3d011682016040523d82523d6000602084013e612961565b606091505b509150915060008180602001905181019061297c9190615451565b90508280156129885750805b979650505050505050565b6000808080806129a4876003615252565b6129af90600c615252565b67ffffffffffffffff8111156129c7576129c7615473565b6040519080825280602002602001820160405280156129f0578160200160208202803683370190505b5090508760001b81600081518110612a0a57612a0a615265565b6020026020010181815250508660001b81600181518110612a2d57612a2d615265565b6020026020010181815250508560001b81600281518110612a5057612a50615265565b60200260200101818152505060005b87811015612abb578a8a82818110612a7957612a79615265565b9050602002013582826003612a8e9190615252565b81518110612a9e57612a9e615265565b602090810291909101015280612ab38161527b565b915050612a5f565b508a515181612acb896003615252565b81518110612adb57612adb615265565b6020908102919091018101919091528b51015181612afa896003615252565b612b05906001615252565b81518110612b1557612b15615265565b60209081029190910101528a516040015181612b32896003615252565b612b3d906002615252565b81518110612b4d57612b4d615265565b60209081029190910101528a516060015181612b6a896003615252565b612b75906003615252565b81518110612b8557612b85615265565b6020908102919091018101919091528b01515181612ba4896003615252565b612baf906004615252565b81518110612bbf57612bbf615265565b6020908102919091018101919091528b810151015181612be0896003615252565b612beb906005615252565b81518110612bfb57612bfb615265565b6020908102919091018101919091528b01516040015181612c1d896003615252565b612c28906006615252565b81518110612c3857612c38615265565b6020908102919091018101919091528b01516060015181612c5a896003615252565b612c65906007615252565b81518110612c7557612c75615265565b602090810291909101015260408b01515181612c92896003615252565b612c9d906008615252565b81518110612cad57612cad615265565b60209081029190910181019190915260408c0151015181612ccf896003615252565b612cda906009615252565b81518110612cea57612cea615265565b60209081029190910101526040808c0151015181612d09896003615252565b612d1490600a615252565b81518110612d2457612d24615265565b602090810291909101015260408b01516060015181612d44896003615252565b612d4f90600b615252565b81518110612d5f57612d5f615265565b602002602001018181525050612d7f81604051602001611b589190615489565b9150612d8a82612e95565b6040805160208101869052929750909550612da59101611b58565b91506000612db283612e95565b50959c949b509499509097509195505050505050565b6000806000612dd561509c565b85815260a0858101805151602080850191909152815181015160408086019190915282518101516060808701919091529251830151608086015260c0808a0180515195870195909552845183015190860152835181015160e086015292518201516101008501528188018051516101208601528051820151610140860152805184015161016086015251909101516101808401529051612e7b91611b58918491016154bf565b9150612e8682612e95565b90979096509194509092505050565b600080826fffffffffffffffffffffffffffffffff8116608082901c612eba826120b4565b9450612ec5816120b4565b9350505050915091565b6000612edc8460076149d2565b90507f183227397098d014dc2822db40c0ac2e9419f4243cdcb848a1f0fac9f80000006000612f3f612f39612f1285600361210a565b610588612f2e612f238b60006149d2565b6105888c601c6149d2565b6105888b601b6149d2565b836120d4565b9050612fc0612fb5612f9c612f83612f6a8561058d612f5f8d60026149d2565b6105888e601b6149d2565b61058d612f788c60036149d2565b6105888d601c6149d2565b61058d612f918b60046149d2565b6105888c601d6149d2565b61058d612faa8a60056149d2565b6105888b601e6149d2565b61058d8860016149d2565b9050612fdf8161058d612fd486600161210a565b6105888a60266149d2565b9050612feb81846120d4565b9050612ff781856120d4565b8552506000905061303361302861301d61301288601b6149d2565b61058d89601e6149d2565b6105ac8860236149d2565b61058d8760006149d2565b90506130448161058884600261210a565b90506130558161058884600161210a565b905061306181836120d4565b905061306d81846120d4565b9050808460015b60200201525050505050565b60008060006130b86130ae61309689601b6149d2565b61058d6130a48b60116149d2565b8a606001516120d4565b87608001516120ef565b90506130f1816105886130e76130cf8b601c6149d2565b61058d6130dd8d60126149d2565b8c606001516120d4565b89608001516120ef565b9050613116816105886130e76131088b601d6149d2565b61058d6130dd8d60136149d2565b905061313b816105886130e761312d8b601e6149d2565b61058d6130dd8d60146149d2565b9250600090506131606130ae61315289601b6149d2565b61058d6130a48b600d6149d2565b9050613185816105886130e76131778b601c6149d2565b61058d6130dd8d600e6149d2565b90506131aa816105886130e761319c8b601d6149d2565b61058d6130dd8d600f6149d2565b90506131cf816105886130e76131c18b601e6149d2565b61058d6130dd8d60106149d2565b9150600090506131f76131f16131e689601f6149d2565b61058d8a60196149d2565b846120d4565b905061322c816105ac61322661320e8b60276149d2565b61058d61321c8d601a6149d2565b8c60a001516120d4565b856120d4565b905061323881856120d4565b604086015250600061325c61322661325189601a6149d2565b6105888a60276149d2565b606090950194909452505050505050565b6000806132cc6132b461329c6132876130e78a60156149d2565b61058d6132958b60166149d2565b8a516120d4565b61058d6132aa8a60176149d2565b89602001516120d4565b61058d6132c28960186149d2565b88604001516120d4565b915060006133046132eb6132e189601b6149d2565b88608001516120ef565b61058d6132f98a60036149d2565b6105888b60236149d2565b9050600061332f61331689601c6149d2565b61058d6133248b60006149d2565b6105888c60246149d2565b9050600061335a6133418a601d6149d2565b61058d61334f8c60016149d2565b6105888d60256149d2565b905061339a6133826133748561058d868d600001516120d4565b61058d848c602001516120d4565b61058d6133908c60046149d2565b8b604001516120d4565b935050505060006133af6131f18860206149d2565b905060006133c16131f18960206149d2565b905060006133fa6133e16133d68b60226149d2565b61058d8c60066149d2565b6105ac6133ef8c60226149d2565b6105888d60066149d2565b9050600061341f61341961340e87896120d4565b6105888d60206149d2565b8361210a565b905061342b81886120d4565b905060006134546134466134408d60066149d2565b876120d4565b6105ac6134408e60216149d2565b60808a018390529050808960055b60200201525050505050505050505050565b60006134826000600161210a565b905060006134926000600261210a565b905060006134a26000600361210a565b905060006134bf6134b488601c6149d2565b6105ac89601b6149d2565b905060006134dc6134d189601d6149d2565b6105ac8a601c6149d2565b905060006134f96134ee8a601e6149d2565b6105ac8b601d6149d2565b9050600061351661350b8b60236149d2565b6105ac8c601e6149d2565b90508361352781610588818b6120ef565b905061353781610588878a6120ef565b90506135478161058887896120ef565b9050613558816105888d60086149d2565b9050613564818a6120d4565b60c08b0152508261357981610588818b6120ef565b905061358981610588868a6120ef565b90506135998161058886896120ef565b90506135aa816105888d60086149d2565b90506135b6818a6120d4565b60e08b015250816135cb81610588818b6120ef565b90506135db81610588858a6120ef565b90506135eb8161058885896120ef565b90506135fc816105888d60086149d2565b9050613608818a6120d4565b6101008b0152508061361e81610588818b6120ef565b905061362e81610588848a6120ef565b905061363e8161058884896120ef565b905061364f816105888d60086149d2565b905061365b818a6120d4565b9050808a6009613462565b6136a66040518060e00160405280600081526020016000815260200160008152602001600081526020016000815260200160008152602001600081525090565b6136b184601c6149d2565b81526136be84601d6149d2565b60208201526136ce8460236149d2565b60408201526136de8460266149d2565b60608201526136ee8460256149d2565b60808201526136fe8460246149d2565b60a082015260006137108560026149d2565b9050600061371f8660006149d2565b905060006137358460400151856000015161210a565b9050600061374b856020015186602001516120d4565b6060860151909150869060009061376290806120d4565b9050600061378161377b89602001518a606001516120d4565b886120d4565b905060006137a161379a8a60a001518b604001516120ef565b8a516120ef565b90506137b061344082886120d4565b90506137d76137d16137cb6137c5848761210a565b8861210a565b846120ef565b836120ef565b90506137ff6137f46137e983876120d4565b6105888f60096149d2565b61058860018a61210a565b6101408c0152505050506020850151608086015160009161381f916120ef565b9050600061383e6138348860600151886120d4565b886020015161210a565b9050600061386461384f84876120d4565b61058d6132268b60a001518c6000015161210a565b905061388c613881613876838c6120d4565b6105888e60096149d2565b61058860018961210a565b6101608b015250600091506138ae90506138a78360116120ef565b87516120d4565b905060006138bc83846120ef565b90506138c881826120ef565b905060006138d78360096120d4565b90506139016138fb6131f16138f48b60a001518c600001516120ef565b8b516120ef565b8261210a565b60c0890181905260009061391d9061377b906137e9908d6120d4565b90506139308b600a6020020151826120ef565b6101408c0152505086516000925061395891506138a79061395190806120ef565b88516120ef565b9050600061399a613975836105888a600001518b60a0015161210a565b60208901516105ac9061398890806120ef565b6105888b602001518c608001516120ef565b90506139b789600b602002015161058d61377b6137e9858d6120d4565b89600b602002015250505050505050505050565b613a75604051806102c00160405280600081526020016000815260200160008152602001600081526020016000815260200160008152602001600081526020016000815260200160008152602001600081526020016000815260200160008152602001600081526020016000815260200160008152602001600081526020016000815260200160008152602001600081526020016000815260200160008152602001600081525090565b613aaa613a91613a8687601b6149d2565b6105888860246149d2565b61058d613a9f8860236149d2565b61058889601c6149d2565b8152613aef613ae4613acb613ac088601b6149d2565b61058889601e6149d2565b61058d613ad989601c6149d2565b6105888a601d6149d2565b6105ac8760256149d2565b60408201819052613b0490600160441b6120d4565b60408201819052613b1a906105ac8760266149d2565b604082018190528151613b2d91906120ef565b60408201819052613b43906105888760056149d2565b60408201528051613b5890600160441b6120d4565b808252613b789061058d613b6d8860236149d2565b6105888960246149d2565b80825260208201819052613b94906105ac61301288601d6149d2565b60208201819052613baa906105888760046149d2565b6020820152805160608201819052613bc79061058d87601e6149d2565b60608201819052613beb906105ac613be08860256149d2565b61058d8960266149d2565b60608201819052613c01906105888760006149d2565b8160600181815250506000613c2b613c21836020015184604001516120ef565b83606001516120ef565b9050613c3c816105888860036149d2565b9050613c54613c4c8760246149d2565b6140006120d4565b60808301819052613c6a9061058d8860236149d2565b60808301819052613c7d906140006120d4565b60808301819052613c939061058d88601d6149d2565b60808301819052613ca6906140006120d4565b60808301819052613cbc9061058d88601c6149d2565b60808301819052613ccf906140006120d4565b60808301819052613ce59061058d88601b6149d2565b60808301819052613cfb906105ac88601e6149d2565b60808301819052613d11906105888860056149d2565b6080830152613d24613c4c8760256149d2565b60a08301819052613d3a9061058d8860246149d2565b60a08301819052613d4d906140006120d4565b60a08301819052613d639061058d8860236149d2565b60a08301819052613d76906140006120d4565b60a08301819052613d8c9061058d88601e6149d2565b60a08301819052613d9f906140006120d4565b60a08301819052613db59061058d88601d6149d2565b60a08301819052613dcb906105ac8860266149d2565b60a08301819052613de1906105888860006149d2565b60a083018190526080830151600091613dfa91906120ef565b9050613e0b816105888960046149d2565b9050613e25613e1b88601d6149d2565b87604001516120d4565b60c08401819052613e3e9061058d6132aa8a601c6149d2565b60c08401819052613e5e9061058d613e578a601b6149d2565b89516120d4565b60c08401819052613e749061058d8960016149d2565b60c0840181905260e08401819052613e91906105ac89601e6149d2565b60c0840152613ea46134b48860236149d2565b610140840152613ec3613eb88860266149d2565b6105ac89601e6149d2565b610120840152610140830151613ee890613edd90806120d4565b84610140015161210a565b610280840152610140830151613f2b90613f2090613f1990610588600160008051602061550b833981519152615294565b60016120ef565b8461012001516120d4565b6101608401819052613f6290613f5490610588613f498b60026149d2565b6105888c60036149d2565b6105886134408a600a6149d2565b6101a0860152610280830151613f8490613f5490610588613f498b60026149d2565b6101c086015260c0830151613fac90610588613fa18a60026149d2565b6105888b60036149d2565b6101e08401526000613fcc613fc289601e6149d2565b8560e0015161210a565b9050613fdb6138fb82836120d4565b6101a0850152613fef6132c28960256149d2565b61010085018190526140139061058d6140098b60246149d2565b8a602001516120d4565b610100850181905261402d9061058d6132958b60236149d2565b61010085015261404c6140418960266149d2565b85610100015161210a565b61010085015260006140626134ee8a60256149d2565b90506140b8614091612f39613f19886101400151600160008051602061550b8339815191526105889190615294565b610588613f19886101000151600160008051602061550b8339815191526105889190615294565b6101808601526101008501516140dd906140d290806120d4565b86610100015161210a565b6101c0860152610180850151614110906140fc906105888c60076149d2565b61058861410a8c600a6149d2565b896120d4565b6101e088015261028085015161412f906140fc906105888c60076149d2565b6102008801526101c085015161414e906140fc906105888c60076149d2565b6102208801526101a0850151614169906105888b60076149d2565b61020086015261418861417d8a60246149d2565b6105ac8b601c6149d2565b6102208601526101408501516141c8906134ee906141bd90613f1990610588600160008051602061550b833981519152615294565b8761022001516120d4565b61024086018190526101e086015161026087018190526141ff9161058d906105886141f48e60056149d2565b6105888f60026149d2565b610260860181905260c0860151614223919061058d906105886141f48e60006149d2565b610260860181905261020086015161423b91906120ef565b6102608601819052614251906137cb90866120ef565b6102a0860181905261426b9061058861410a8c600a6149d2565b6102a0860181905287600c6020020152505050505050505050565b61430d60405180610220016040528060008152602001600081526020016000815260200160008152602001600081526020016000815260200160008152602001600081526020016000815260200160008152602001600081526020016000815260200160008152602001600081526020016000815260200160008152602001600081525090565b61432661431b85601b6149d2565b61058d8660026149d2565b815261434161433685601c6149d2565b61058d8660036149d2565b602082015261435f61435485601d6149d2565b61058d8660046149d2565b604082015261437d61437285601e6149d2565b61058d8660056149d2565b606082015280516143af906143a8906143a19061439a90806120d4565b84516120d4565b83516120d4565b82516120d4565b608082015260208101516143ed906143e3906143d9906143cf90806120d4565b84602001516120d4565b83602001516120d4565b82602001516120d4565b60a0820152604081015161442b90614421906144179061440d90806120d4565b84604001516120d4565b83604001516120d4565b82604001516120d4565b60c082015260608101516144699061445f906144559061444b90806120d4565b84606001516120d4565b83606001516120d4565b82606001516120d4565b60e0820152608081015160a082015161448291906120ef565b61010082015260c081015160e082015161449c91906120ef565b61012082015260a08101516144c0906144b590806120ef565b8261012001516120ef565b61014082015260e08101516144e4906144d990806120ef565b8261010001516120ef565b6101608201526101208101516144fa90806120ef565b6101e0820181905261451b9061451090806120ef565b8261016001516120ef565b6101e082015261010081015161453190806120ef565b6101a082018190526145529061454790806120ef565b8261014001516120ef565b6101a08201819052610160820151614569916120ef565b6101808201526101408101516101e082015161458591906120ef565b6101c0820152614599612f3985600b6149d2565b61020082018190526102408401516101808301516145c49261058d91610588906105ac8a60236149d2565b83601260200201526145f4836013602002015161058d836102000151610588856101a001516105ac8a60246149d2565b8360136020020152614624836014602002015161058d836102000151610588856101c001516105ac8a60256149d2565b8360146020020152614654836015602002015161058d836102000151610588856101e001516105ac8a60266149d2565b836015602002015250505050565b6146bf60405180610160016040528060008152602001600081526020016000815260200160008152602001600081526020016000815260200160008152602001600081526020016000815260200160008152602001600081525090565b600060405180608001604052806146f57f10dc6e9c006ea38b04b1e03b4bd9490c0d03f98929ca1d7fb56821fd19d3b6e76120b4565b81526020016147237f0c28145b6a44df3e0149b3d0a30b3bb599df9756d4dd9b84a86b38cfb45a740b6120b4565b81526020016147507e544b8338791518b2c7645a50392798b21f75bb60e3596170067d00141cac156120b4565b815260200161477e7f222c01175718386f2e2e82eb122789e352e105a3b8fa852613bc534433ee428b6120b4565b9052905061479b61479086601b6149d2565b61058d8760026149d2565b61012083018190526147cf906147c490613f20906147b990806120d4565b8561012001516120d4565b8361012001516120d4565b82526147dc85601c6149d2565b60208301526147ec85601d6149d2565b60408301526147fc85601e6149d2565b60608301528151602083015161482491613c219161481a91906120ef565b84604001516120ef565b60808301526148376131f186600c6149d2565b61014083015281516148599061484f90836000610e3b565b83608001516120ef565b60a0830152614885846016602002015161058d8461014001516105888660a001516105ac8b60236149d2565b6102c085015260208201516148a09061484f90836001610e3b565b60c08301526148cc846017602002015161058d8461014001516105888660c001516105ac8b60246149d2565b6102e085015260408201516148e79061484f90836002610e3b565b60e0830152614913846018602002015161058d8461014001516105888660e001516105ac8b60256149d2565b610300850152606082015161492e9061484f90836003610e3b565b61010083015261495c846019602002015161058d8461014001516105888661010001516105ac8b60266149d2565b846019613074565b600061497181848161081d565b905060015b601a8110156149cb576149b98261058d8684601a811061499857614998615265565b6020020151866149a9600187615294565b60198110610e3b57610e3b615265565b91506149c48161527b565b9050614976565b5092915050565b6000828260278111156149e7576149e76154f4565b602881106149f7576149f7615265565b60200201519392505050565b604051806103c00160405280600081526020016000815260200160008152602001614a41604051806040016040528060008152602001600081525090565b8152602001614a63604051806040016040528060008152602001600081525090565b8152602001614a85604051806040016040528060008152602001600081525090565b8152602001614aa7604051806040016040528060008152602001600081525090565b8152602001614ac9604051806040016040528060008152602001600081525090565b8152602001614aeb604051806040016040528060008152602001600081525090565b8152602001614b0d604051806040016040528060008152602001600081525090565b8152602001614b2f604051806040016040528060008152602001600081525090565b8152602001614b51604051806040016040528060008152602001600081525090565b8152602001614b73604051806040016040528060008152602001600081525090565b8152602001614b95604051806040016040528060008152602001600081525090565b8152602001614bb7604051806040016040528060008152602001600081525090565b8152602001614bd9604051806040016040528060008152602001600081525090565b8152602001614bfb604051806040016040528060008152602001600081525090565b8152602001614c1d604051806040016040528060008152602001600081525090565b8152602001614c3f604051806040016040528060008152602001600081525090565b8152602001614c61604051806040016040528060008152602001600081525090565b8152602001614c83604051806040016040528060008152602001600081525090565b8152602001614ca5604051806040016040528060008152602001600081525090565b8152602001614cc7604051806040016040528060008152602001600081525090565b8152602001614ce9604051806040016040528060008152602001600081525090565b8152602001614d0b604051806040016040528060008152602001600081525090565b8152602001614d2d604051806040016040528060008152602001600081525090565b8152602001614d4f604051806040016040528060008152602001600081525090565b8152602001614d71604051806040016040528060008152602001600081525090565b8152602001614d93604051806040016040528060008152602001600081525090565b8152602001614db5604051806040016040528060008152602001600081525090565b905290565b604051806101c00160405280614dce614f5e565b8152602001614ddb614f5e565b8152602001614de8614f5e565b8152602001614df5614f5e565b8152602001614e02614f5e565b8152602001614e0f614f5e565b8152602001614e1c614f5e565b8152602001614e29614f5e565b8152602001614e366150bb565b8152602001614e436150e9565b8152602001614e50615108565b8152602001614e5d614fc4565b8152602001614e6a614f5e565b8152602001614db5614f5e565b604051806101000160405280614ebc6040518060c001604052806000815260200160008152602001600081526020016000815260200160008152602001600081525090565b8152602001614ec9614f86565b8152602001614ed6614fc4565b8152602001614ee3614fc4565b8152602001600081526020016000815260200160008152602001600081525090565b604051806108c001604052806046906020820280368337509192915050565b604051806108c001604052806046905b6040805180820190915260008082526020820152815260200190600190039081614f345790505090565b6040518060800160405280600081526020016000815260200160008152602001600081525090565b6040518061032001604052806019906020820280368337509192915050565b6040518061012001604052806009906020820280368337509192915050565b604051806103800160405280601c906020820280368337509192915050565b6040518061052001604052806029906020820280368337509192915050565b60405180610da00160405280606d906020820280368337509192915050565b604051806103a00160405280601d906020820280368337509192915050565b6040518060a001604052806005906020820280368337509192915050565b6040518061010001604052806008906020820280368337509192915050565b604051806103400160405280601a906020820280368337509192915050565b604051806101a00160405280600d906020820280368337509192915050565b604051806103800160405280601c905b6150d361505e565b8152602001906001900390816150cb5790505090565b6040518061050001604052806028906020820280368337509192915050565b604051806103600160405280601b905b615120614f5e565b8152602001906001900390816151185790505090565b6000806000806040858703121561514c57600080fd5b843567ffffffffffffffff8082111561516457600080fd5b818701915087601f83011261517857600080fd5b81358181111561518757600080fd5b88602082850101111561519957600080fd5b6020928301965094509086013590808211156151b457600080fd5b818701915087601f8301126151c857600080fd5b8135818111156151d757600080fd5b8860208260051b85010111156151ec57600080fd5b95989497505060200194505050565b634e487b7160e01b600052601160045260246000fd5b80820281158282048414176120ce576120ce6151fb565b6000808585111561523857600080fd5b8386111561524557600080fd5b5050820193919092039150565b808201808211156120ce576120ce6151fb565b634e487b7160e01b600052603260045260246000fd5b60006001820161528d5761528d6151fb565b5060010190565b818103818111156120ce576120ce6151fb565b803560208310156120ce57600019602084900360031b1b1692915050565b60008183825b60098110156152ea5781518352602092830192909101906001016152cb565b5050506101208201905092915050565b634e487b7160e01b600052601260045260246000fd5b60008261531f5761531f6152fa565b500490565b60008183825b602981101561534957815183526020928301929091019060010161532a565b5050506105208201905092915050565b60008183825b606d81101561537e57815183526020928301929091019060010161535f565b505050610da08201905092915050565b60008183825b601d8110156153b3578151835260209283019290910190600101615394565b5050506103a08201905092915050565b60008183825b60058110156153e85781518352602092830192909101906001016153c9565b50505060a08201905092915050565b600082615406576154066152fa565b500690565b60008161541a5761541a6151fb565b506000190190565b6000825160005b818110156154435760208186018101518583015201615429565b506000920191825250919050565b60006020828403121561546357600080fd5b81518015158114611a3b57600080fd5b634e487b7160e01b600052604160045260246000fd5b815160009082906020808601845b838110156154b357815185529382019390820190600101615497565b50929695505050505050565b60008183825b600d8110156154e45781518352602092830192909101906001016154c5565b5050506101a08201905092915050565b634e487b7160e01b600052602160045260246000fdfe30644e72e131a029b85045b68181585d2833e84879b9709143e1f593f0000001a26469706673582212207b3a9e66c493f8ab787cad25ef67173964ab14c6256b040908327e8bba1f8e9f64736f6c63430008150033","opcodes":"PUSH1 0xE0 PUSH1 0x40 MSTORE CALLVALUE DUP1 ISZERO PUSH2 0x10 JUMPI PUSH1 0x0 DUP1 REVERT JUMPDEST POP PUSH3 0x40000 PUSH1 0x80 MSTORE PUSH1 0x12 PUSH1 0xA0 MSTORE PUSH1 0x2 PUSH1 0xC0 MSTORE PUSH1 0x80 MLOAD PUSH1 0xA0 MLOAD PUSH1 0xC0 MLOAD PUSH2 0x5560 PUSH2 0x5F PUSH1 0x0 CODECOPY PUSH1 0x0 PUSH2 0x5B8 ADD MSTORE PUSH1 0x0 DUP2 DUP2 PUSH2 0x671 ADD MSTORE DUP2 DUP2 PUSH2 0xC66 ADD MSTORE PUSH2 0xD04 ADD MSTORE PUSH1 0x0 PUSH2 0x55F ADD MSTORE PUSH2 0x5560 PUSH1 0x0 RETURN INVALID PUSH1 0x80 PUSH1 0x40 MSTORE CALLVALUE DUP1 ISZERO PUSH2 0x10 JUMPI PUSH1 0x0 DUP1 REVERT JUMPDEST POP PUSH1 0x4 CALLDATASIZE LT PUSH2 0x2B JUMPI PUSH1 0x0 CALLDATALOAD PUSH1 0xE0 SHR DUP1 PUSH4 0xEA50D0E4 EQ PUSH2 0x30 JUMPI JUMPDEST PUSH1 0x0 DUP1 REVERT JUMPDEST PUSH2 0x43 PUSH2 0x3E CALLDATASIZE PUSH1 0x4 PUSH2 0x5136 JUMP JUMPDEST PUSH2 0x57 JUMP JUMPDEST PUSH1 0x40 MLOAD SWAP1 ISZERO ISZERO DUP2 MSTORE PUSH1 0x20 ADD PUSH1 0x40 MLOAD DUP1 SWAP2 SUB SWAP1 RETURN JUMPDEST PUSH1 0x0 PUSH2 0x66 PUSH2 0x1B8 PUSH1 0x20 PUSH2 0x5211 JUMP JUMPDEST DUP5 EQ PUSH2 0x85 JUMPI PUSH1 0x40 MLOAD PUSH4 0x76BA5605 PUSH1 0xE1 SHL DUP2 MSTORE PUSH1 0x4 ADD PUSH1 0x40 MLOAD DUP1 SWAP2 SUB SWAP1 REVERT JUMPDEST PUSH1 0x0 PUSH2 0x8F PUSH2 0x1A3 JUMP JUMPDEST SWAP1 POP PUSH1 0x0 PUSH2 0x9D DUP8 DUP8 PUSH2 0x1B8 JUMP JUMPDEST PUSH1 0x40 DUP4 ADD MLOAD SWAP1 SWAP2 POP DUP5 EQ PUSH2 0xC4 JUMPI PUSH1 0x40 MLOAD PUSH4 0xFA066593 PUSH1 0xE0 SHL DUP2 MSTORE PUSH1 0x4 ADD PUSH1 0x40 MLOAD DUP1 SWAP2 SUB SWAP1 REVERT JUMPDEST PUSH1 0x0 PUSH2 0xDD DUP3 DUP8 DUP8 DUP7 PUSH1 0x0 ADD MLOAD DUP8 PUSH1 0x40 ADD MLOAD PUSH1 0x1 PUSH2 0x498 JUMP JUMPDEST SWAP1 POP PUSH2 0x12C DUP7 DUP7 DUP1 DUP1 PUSH1 0x20 MUL PUSH1 0x20 ADD PUSH1 0x40 MLOAD SWAP1 DUP2 ADD PUSH1 0x40 MSTORE DUP1 SWAP4 SWAP3 SWAP2 SWAP1 DUP2 DUP2 MSTORE PUSH1 0x20 ADD DUP4 DUP4 PUSH1 0x20 MUL DUP1 DUP3 DUP5 CALLDATACOPY PUSH1 0x0 SWAP3 ADD SWAP2 SWAP1 SWAP2 MSTORE POP POP DUP5 MLOAD PUSH1 0x60 DUP2 ADD MLOAD PUSH1 0x80 SWAP1 SWAP2 ADD MLOAD SWAP1 SWAP3 POP SWAP1 POP PUSH1 0x1 PUSH2 0x548 JUMP JUMPDEST DUP2 MLOAD PUSH1 0xA0 ADD MSTORE PUSH1 0x0 PUSH2 0x13E DUP4 DUP4 PUSH2 0x668 JUMP JUMPDEST SWAP1 POP DUP1 PUSH2 0x15E JUMPI PUSH1 0x40 MLOAD PUSH4 0x13F87443 PUSH1 0xE3 SHL DUP2 MSTORE PUSH1 0x4 ADD PUSH1 0x40 MLOAD DUP1 SWAP2 SUB SWAP1 REVERT JUMPDEST PUSH1 0x0 PUSH2 0x16B DUP5 DUP7 DUP6 PUSH2 0x775 JUMP JUMPDEST SWAP1 POP DUP1 PUSH2 0x18B JUMPI PUSH1 0x40 MLOAD PUSH4 0x52EC1745 PUSH1 0xE1 SHL DUP2 MSTORE PUSH1 0x4 ADD PUSH1 0x40 MLOAD DUP1 SWAP2 SUB SWAP1 REVERT JUMPDEST DUP2 DUP1 ISZERO PUSH2 0x195 JUMPI POP DUP1 JUMPDEST SWAP11 SWAP10 POP POP POP POP POP POP POP POP POP POP JUMP JUMPDEST PUSH2 0x1AB PUSH2 0x4A03 JUMP JUMPDEST PUSH2 0x1B3 PUSH2 0x1008 JUMP JUMPDEST SWAP1 POP SWAP1 JUMP JUMPDEST PUSH2 0x1C0 PUSH2 0x4DBA JUMP JUMPDEST PUSH2 0x1D6 PUSH2 0x1D1 PUSH1 0x80 PUSH1 0x0 DUP6 DUP8 PUSH2 0x5228 JUMP JUMPDEST PUSH2 0x190F JUMP JUMPDEST DUP2 MSTORE PUSH2 0x1EA PUSH2 0x1D1 PUSH2 0x100 PUSH1 0x80 DUP6 DUP8 PUSH2 0x5228 JUMP JUMPDEST PUSH1 0x20 DUP3 ADD MSTORE PUSH2 0x202 PUSH2 0x1D1 PUSH2 0x180 PUSH2 0x100 DUP6 DUP8 PUSH2 0x5228 JUMP JUMPDEST PUSH1 0x40 DUP3 ADD MSTORE PUSH2 0x21A PUSH2 0x1D1 PUSH2 0x200 PUSH2 0x180 DUP6 DUP8 PUSH2 0x5228 JUMP JUMPDEST PUSH1 0xA0 DUP3 ADD MSTORE PUSH2 0x232 PUSH2 0x1D1 PUSH2 0x280 PUSH2 0x200 DUP6 DUP8 PUSH2 0x5228 JUMP JUMPDEST PUSH1 0xC0 DUP3 ADD MSTORE PUSH2 0x24A PUSH2 0x1D1 PUSH2 0x300 PUSH2 0x280 DUP6 DUP8 PUSH2 0x5228 JUMP JUMPDEST PUSH1 0x60 DUP3 ADD MSTORE PUSH2 0x262 PUSH2 0x1D1 PUSH2 0x380 PUSH2 0x300 DUP6 DUP8 PUSH2 0x5228 JUMP JUMPDEST PUSH1 0xE0 DUP3 ADD MSTORE PUSH2 0x27A PUSH2 0x1D1 PUSH2 0x400 PUSH2 0x380 DUP6 DUP8 PUSH2 0x5228 JUMP JUMPDEST PUSH1 0x80 DUP3 ADD MSTORE PUSH2 0x400 PUSH1 0x0 JUMPDEST PUSH1 0x1C DUP2 LT ISZERO PUSH2 0x327 JUMPI PUSH1 0x0 JUMPDEST PUSH1 0x8 DUP2 LT ISZERO PUSH2 0x314 JUMPI PUSH2 0x2BD DUP7 DUP5 DUP8 PUSH2 0x2AB DUP3 PUSH1 0x20 PUSH2 0x5252 JUMP JUMPDEST SWAP3 PUSH2 0x2B8 SWAP4 SWAP3 SWAP2 SWAP1 PUSH2 0x5228 JUMP JUMPDEST PUSH2 0x19E5 JUMP JUMPDEST DUP5 PUSH2 0x100 ADD MLOAD DUP4 PUSH1 0x1C DUP2 LT PUSH2 0x2D4 JUMPI PUSH2 0x2D4 PUSH2 0x5265 JUMP JUMPDEST PUSH1 0x20 MUL ADD MLOAD DUP3 PUSH1 0x8 DUP2 LT PUSH2 0x2EA JUMPI PUSH2 0x2EA PUSH2 0x5265 JUMP JUMPDEST PUSH1 0x20 MUL ADD DUP2 DUP2 MSTORE POP POP PUSH1 0x20 DUP4 PUSH2 0x300 SWAP2 SWAP1 PUSH2 0x5252 JUMP JUMPDEST SWAP3 POP DUP1 PUSH2 0x30C DUP2 PUSH2 0x527B JUMP JUMPDEST SWAP2 POP POP PUSH2 0x291 JUMP JUMPDEST POP DUP1 PUSH2 0x31F DUP2 PUSH2 0x527B JUMP JUMPDEST SWAP2 POP POP PUSH2 0x285 JUMP JUMPDEST POP PUSH1 0x0 JUMPDEST PUSH1 0x28 DUP2 LT ISZERO PUSH2 0x386 JUMPI PUSH2 0x345 DUP6 DUP4 DUP7 PUSH2 0x2AB DUP3 PUSH1 0x20 PUSH2 0x5252 JUMP JUMPDEST DUP4 PUSH2 0x120 ADD MLOAD DUP3 PUSH1 0x28 DUP2 LT PUSH2 0x35C JUMPI PUSH2 0x35C PUSH2 0x5265 JUMP JUMPDEST PUSH1 0x20 MUL ADD DUP2 DUP2 MSTORE POP POP PUSH1 0x20 DUP3 PUSH2 0x372 SWAP2 SWAP1 PUSH2 0x5252 JUMP JUMPDEST SWAP2 POP DUP1 PUSH2 0x37E DUP2 PUSH2 0x527B JUMP JUMPDEST SWAP2 POP POP PUSH2 0x32B JUMP JUMPDEST POP PUSH1 0x0 JUMPDEST PUSH2 0x396 PUSH1 0x1 PUSH1 0x1C PUSH2 0x5294 JUMP JUMPDEST DUP2 LT ISZERO PUSH2 0x3F6 JUMPI PUSH2 0x3BB DUP6 DUP4 DUP7 PUSH2 0x3AE DUP3 PUSH1 0x80 PUSH2 0x5252 JUMP JUMPDEST SWAP3 PUSH2 0x1D1 SWAP4 SWAP3 SWAP2 SWAP1 PUSH2 0x5228 JUMP JUMPDEST DUP4 PUSH2 0x140 ADD MLOAD DUP3 PUSH1 0x1B DUP2 LT PUSH2 0x3D2 JUMPI PUSH2 0x3D2 PUSH2 0x5265 JUMP JUMPDEST PUSH1 0x20 MUL ADD MSTORE PUSH2 0x3E2 PUSH1 0x80 DUP4 PUSH2 0x5252 JUMP JUMPDEST SWAP2 POP DUP1 PUSH2 0x3EE DUP2 PUSH2 0x527B JUMP JUMPDEST SWAP2 POP POP PUSH2 0x38A JUMP JUMPDEST POP PUSH1 0x0 JUMPDEST PUSH1 0x1C DUP2 LT ISZERO PUSH2 0x455 JUMPI PUSH2 0x414 DUP6 DUP4 DUP7 PUSH2 0x2AB DUP3 PUSH1 0x20 PUSH2 0x5252 JUMP JUMPDEST DUP4 PUSH2 0x160 ADD MLOAD DUP3 PUSH1 0x1C DUP2 LT PUSH2 0x42B JUMPI PUSH2 0x42B PUSH2 0x5265 JUMP JUMPDEST PUSH1 0x20 MUL ADD DUP2 DUP2 MSTORE POP POP PUSH1 0x20 DUP3 PUSH2 0x441 SWAP2 SWAP1 PUSH2 0x5252 JUMP JUMPDEST SWAP2 POP DUP1 PUSH2 0x44D DUP2 PUSH2 0x527B JUMP JUMPDEST SWAP2 POP POP PUSH2 0x3FA JUMP JUMPDEST POP PUSH2 0x467 DUP5 DUP3 DUP6 PUSH2 0x3AE DUP3 PUSH1 0x80 PUSH2 0x5252 JUMP JUMPDEST PUSH2 0x180 DUP4 ADD MSTORE PUSH2 0x478 DUP2 PUSH1 0x80 PUSH2 0x5252 JUMP JUMPDEST SWAP1 POP PUSH2 0x48B DUP5 DUP3 DUP6 PUSH2 0x3AE DUP3 PUSH1 0x80 PUSH2 0x5252 JUMP JUMPDEST PUSH2 0x1A0 DUP4 ADD MSTORE POP SWAP3 SWAP2 POP POP JUMP JUMPDEST PUSH2 0x4A0 PUSH2 0x4E77 JUMP JUMPDEST PUSH1 0x0 PUSH2 0x4B1 DUP9 DUP9 DUP9 DUP9 DUP9 DUP9 DUP8 PUSH2 0x1A42 JUMP JUMPDEST SWAP1 DUP4 MSTORE SWAP1 POP PUSH2 0x4C0 DUP2 DUP10 PUSH2 0x1ACA JUMP JUMPDEST PUSH1 0x20 DUP5 ADD SWAP2 SWAP1 SWAP2 MSTORE SWAP1 POP PUSH2 0x4D3 DUP2 PUSH2 0x1C71 JUMP JUMPDEST PUSH1 0x40 DUP5 ADD SWAP2 SWAP1 SWAP2 MSTORE SWAP1 POP PUSH2 0x4E7 DUP9 DUP3 PUSH2 0x1CDF JUMP JUMPDEST PUSH1 0x60 DUP5 ADD SWAP2 SWAP1 SWAP2 MSTORE SWAP1 POP PUSH2 0x4FB DUP9 DUP3 PUSH2 0x1DCC JUMP JUMPDEST PUSH1 0x80 DUP5 ADD SWAP2 SWAP1 SWAP2 MSTORE SWAP1 POP PUSH2 0x50F DUP9 DUP3 PUSH2 0x1E64 JUMP JUMPDEST PUSH1 0xA0 DUP5 ADD SWAP2 SWAP1 SWAP2 MSTORE SWAP1 POP PUSH2 0x523 DUP9 DUP3 PUSH2 0x1FDE JUMP JUMPDEST PUSH1 0xC0 DUP5 ADD SWAP2 SWAP1 SWAP2 MSTORE SWAP1 POP PUSH2 0x537 DUP9 DUP3 PUSH2 0x205C JUMP JUMPDEST POP PUSH1 0xE0 DUP4 ADD MSTORE POP SWAP7 SWAP6 POP POP POP POP POP POP JUMP JUMPDEST PUSH1 0x0 PUSH1 0x1 DUP1 DUP3 PUSH2 0x592 DUP7 PUSH2 0x58D DUP10 PUSH2 0x588 PUSH2 0x583 DUP11 PUSH32 0x0 PUSH2 0x5252 JUMP JUMPDEST PUSH2 0x20B4 JUMP JUMPDEST PUSH2 0x20D4 JUMP JUMPDEST PUSH2 0x20EF JUMP JUMPDEST SWAP1 POP PUSH1 0x0 PUSH2 0x5B1 DUP8 PUSH2 0x5AC DUP11 PUSH2 0x588 PUSH2 0x583 DUP12 PUSH1 0x1 PUSH2 0x5252 JUMP JUMPDEST PUSH2 0x210A JUMP JUMPDEST SWAP1 POP PUSH1 0x0 JUMPDEST PUSH32 0x0 DUP2 LT ISZERO PUSH2 0x650 JUMPI PUSH1 0x0 PUSH2 0x602 DUP12 DUP4 DUP2 MLOAD DUP2 LT PUSH2 0x5F5 JUMPI PUSH2 0x5F5 PUSH2 0x5265 JUMP JUMPDEST PUSH1 0x20 MUL PUSH1 0x20 ADD ADD MLOAD PUSH2 0x20B4 JUMP JUMPDEST SWAP1 POP PUSH2 0x612 DUP7 PUSH2 0x588 DUP7 DUP5 PUSH2 0x20EF JUMP JUMPDEST SWAP6 POP PUSH2 0x622 DUP6 PUSH2 0x588 DUP6 DUP5 PUSH2 0x20EF JUMP JUMPDEST SWAP5 POP PUSH2 0x62E DUP5 DUP12 PUSH2 0x20EF JUMP JUMPDEST SWAP4 POP PUSH2 0x63A DUP4 DUP12 PUSH2 0x210A JUMP JUMPDEST SWAP3 POP POP DUP1 DUP1 PUSH2 0x648 SWAP1 PUSH2 0x527B JUMP JUMPDEST SWAP2 POP POP PUSH2 0x5B6 JUMP JUMPDEST POP PUSH2 0x65B DUP5 DUP5 PUSH2 0x213C JUMP JUMPDEST SWAP10 SWAP9 POP POP POP POP POP POP POP POP POP JUMP JUMPDEST PUSH1 0x0 DUP1 PUSH1 0x1 DUP2 JUMPDEST PUSH32 0x0 DUP2 LT ISZERO PUSH2 0x749 JUMPI PUSH1 0x0 DUP7 PUSH2 0x100 ADD MLOAD DUP3 PUSH1 0x1C DUP2 LT PUSH2 0x6B0 JUMPI PUSH2 0x6B0 PUSH2 0x5265 JUMP JUMPDEST PUSH1 0x20 MUL ADD MLOAD SWAP1 POP PUSH1 0x0 PUSH2 0x6C3 DUP3 DUP7 PUSH2 0x214B JUMP JUMPDEST SWAP1 POP DUP1 PUSH2 0x6E3 JUMPI PUSH1 0x40 MLOAD PUSH4 0x13F87443 PUSH1 0xE3 SHL DUP2 MSTORE PUSH1 0x4 ADD PUSH1 0x40 MLOAD DUP1 SWAP2 SUB SWAP1 REVERT JUMPDEST PUSH1 0x0 DUP8 PUSH1 0x60 ADD MLOAD DUP5 PUSH1 0x1C DUP2 LT PUSH2 0x6FB JUMPI PUSH2 0x6FB PUSH2 0x5265 JUMP JUMPDEST PUSH1 0x20 MUL ADD MLOAD SWAP1 POP PUSH2 0x70C DUP4 DUP3 PUSH2 0x2169 JUMP JUMPDEST SWAP6 POP PUSH2 0x733 DUP9 PUSH1 0x40 ADD MLOAD DUP6 PUSH1 0x1C DUP2 LT PUSH2 0x727 JUMPI PUSH2 0x727 PUSH2 0x5265 JUMP JUMPDEST PUSH1 0x20 MUL ADD MLOAD DUP7 DUP4 PUSH2 0x2336 JUMP JUMPDEST SWAP5 POP POP POP POP DUP1 PUSH2 0x742 SWAP1 PUSH2 0x527B JUMP JUMPDEST SWAP1 POP PUSH2 0x66F JUMP JUMPDEST POP PUSH1 0x0 PUSH2 0x765 DUP7 PUSH2 0x120 ADD MLOAD DUP7 PUSH1 0x0 ADD MLOAD DUP8 PUSH1 0x20 ADD MLOAD DUP6 PUSH2 0x2362 JUMP JUMPDEST SWAP1 POP DUP3 DUP2 EQ JUMPDEST SWAP7 SWAP6 POP POP POP POP POP POP JUMP JUMPDEST PUSH1 0x0 PUSH2 0x7C6 PUSH1 0x40 MLOAD DUP1 PUSH2 0x120 ADD PUSH1 0x40 MSTORE DUP1 PUSH1 0x0 DUP2 MSTORE PUSH1 0x20 ADD PUSH1 0x0 DUP2 MSTORE PUSH1 0x20 ADD PUSH1 0x0 DUP2 MSTORE PUSH1 0x20 ADD PUSH1 0x0 DUP2 MSTORE PUSH1 0x20 ADD PUSH1 0x0 DUP2 MSTORE PUSH1 0x20 ADD PUSH1 0x0 DUP2 MSTORE PUSH1 0x20 ADD PUSH1 0x0 DUP2 MSTORE PUSH1 0x20 ADD PUSH1 0x0 DUP2 MSTORE PUSH1 0x20 ADD PUSH1 0x0 DUP2 MSTORE POP SWAP1 JUMP JUMPDEST PUSH1 0x0 PUSH2 0x7D5 DUP5 PUSH1 0xA0 ADD MLOAD PUSH2 0x23D1 JUMP JUMPDEST SWAP1 POP PUSH2 0x7DF PUSH2 0x4F05 JUMP JUMPDEST PUSH2 0x7E7 PUSH2 0x4F24 JUMP JUMPDEST PUSH1 0xE0 DUP7 ADD MLOAD PUSH2 0x807 SWAP1 PUSH2 0x802 SWAP1 DUP6 PUSH1 0x0 JUMPDEST PUSH1 0x20 MUL ADD MLOAD PUSH2 0x210A JUMP JUMPDEST PUSH2 0x243E JUMP JUMPDEST PUSH1 0xA0 DUP6 ADD MSTORE PUSH1 0xE0 DUP7 ADD MLOAD PUSH2 0x827 SWAP1 PUSH2 0x802 SWAP1 DUP6 PUSH1 0x0 JUMPDEST PUSH1 0x20 MUL ADD MLOAD PUSH2 0x20EF JUMP JUMPDEST PUSH1 0xC0 DUP1 DUP7 ADD DUP3 SWAP1 MSTORE PUSH1 0xA0 DUP7 ADD MLOAD SWAP1 DUP9 ADD MLOAD PUSH2 0x846 SWAP3 PUSH2 0x58D SWAP2 SWAP1 PUSH2 0x20D4 JUMP JUMPDEST DUP5 MSTORE PUSH1 0xA0 DUP7 ADD MLOAD PUSH2 0x874 SWAP1 PUSH2 0x85A SWAP1 PUSH2 0x243E JUMP JUMPDEST PUSH2 0x588 DUP7 PUSH1 0xA0 ADD MLOAD PUSH2 0x5AC DUP11 PUSH1 0xC0 ADD MLOAD DUP10 PUSH1 0xC0 ADD MLOAD PUSH2 0x20D4 JUMP JUMPDEST PUSH1 0x20 DUP6 ADD MSTORE PUSH1 0x1 DUP3 MSTORE PUSH2 0x180 DUP9 ADD MLOAD PUSH2 0x88C SWAP1 PUSH2 0x24AE JUMP JUMPDEST DUP2 MSTORE PUSH1 0x1 PUSH1 0x60 DUP6 ADD DUP2 SWAP1 MSTORE PUSH1 0x0 PUSH1 0x80 DUP7 ADD MSTORE JUMPDEST PUSH1 0x23 DUP2 GT PUSH2 0x946 JUMPI PUSH2 0x8C1 PUSH2 0x8B7 DUP7 PUSH1 0x0 ADD MLOAD PUSH2 0x24FA JUMP JUMPDEST DUP7 PUSH1 0x60 ADD MLOAD PUSH2 0x20D4 JUMP JUMPDEST DUP4 DUP3 PUSH1 0x46 DUP2 LT PUSH2 0x8D3 JUMPI PUSH2 0x8D3 PUSH2 0x5265 JUMP JUMPDEST PUSH1 0x20 MUL ADD MSTORE PUSH1 0x80 DUP6 ADD MLOAD PUSH2 0x120 DUP11 ADD MLOAD PUSH2 0x916 SWAP2 SWAP1 PUSH2 0x58D SWAP1 PUSH2 0x8F7 PUSH1 0x1 DUP7 PUSH2 0x5294 JUMP JUMPDEST PUSH1 0x28 DUP2 LT PUSH2 0x907 JUMPI PUSH2 0x907 PUSH2 0x5265 JUMP JUMPDEST PUSH1 0x20 MUL ADD MLOAD DUP9 PUSH1 0x60 ADD MLOAD PUSH2 0x20D4 JUMP JUMPDEST DUP6 PUSH1 0x80 ADD DUP2 DUP2 MSTORE POP POP PUSH2 0x931 DUP6 PUSH1 0x60 ADD MLOAD DUP9 PUSH1 0x80 ADD MLOAD PUSH2 0x20D4 JUMP JUMPDEST PUSH1 0x60 DUP7 ADD MSTORE PUSH2 0x93F DUP2 PUSH2 0x527B JUMP JUMPDEST SWAP1 POP PUSH2 0x89F JUMP JUMPDEST POP PUSH1 0x0 PUSH2 0x955 PUSH1 0x23 PUSH1 0x1 PUSH2 0x5252 JUMP JUMPDEST SWAP1 POP JUMPDEST PUSH1 0x28 DUP2 GT PUSH2 0x9D6 JUMPI PUSH2 0x970 PUSH2 0x8B7 DUP7 PUSH1 0x20 ADD MLOAD PUSH2 0x24FA JUMP JUMPDEST DUP4 DUP3 PUSH1 0x46 DUP2 LT PUSH2 0x982 JUMPI PUSH2 0x982 PUSH2 0x5265 JUMP JUMPDEST PUSH1 0x20 MUL ADD MSTORE PUSH1 0x80 DUP6 ADD MLOAD PUSH2 0x120 DUP11 ADD MLOAD PUSH2 0x9A6 SWAP2 SWAP1 PUSH2 0x58D SWAP1 PUSH2 0x8F7 PUSH1 0x1 DUP7 PUSH2 0x5294 JUMP JUMPDEST DUP6 PUSH1 0x80 ADD DUP2 DUP2 MSTORE POP POP PUSH2 0x9C1 DUP6 PUSH1 0x60 ADD MLOAD DUP9 PUSH1 0x80 ADD MLOAD PUSH2 0x20D4 JUMP JUMPDEST PUSH1 0x60 DUP7 ADD MSTORE PUSH2 0x9CF DUP2 PUSH2 0x527B JUMP JUMPDEST SWAP1 POP PUSH2 0x958 JUMP JUMPDEST POP PUSH1 0x60 DUP8 ADD MLOAD DUP2 PUSH1 0x1 PUSH1 0x20 MUL ADD MSTORE PUSH1 0x80 DUP8 ADD MLOAD DUP2 PUSH1 0x2 PUSH1 0x20 MUL ADD MSTORE PUSH1 0xA0 DUP8 ADD MLOAD DUP2 PUSH1 0x3 PUSH1 0x20 MUL ADD MSTORE PUSH1 0xC0 DUP8 ADD MLOAD DUP2 PUSH1 0x4 PUSH1 0x20 MUL ADD MSTORE PUSH1 0xE0 DUP8 ADD MLOAD DUP2 PUSH1 0x5 PUSH1 0x20 MUL ADD MSTORE PUSH2 0x100 DUP8 ADD MLOAD DUP2 PUSH1 0x6 PUSH1 0x20 MUL ADD MSTORE PUSH2 0x120 DUP8 ADD MLOAD DUP2 PUSH1 0x7 PUSH1 0x20 MUL ADD MSTORE PUSH2 0x140 DUP8 ADD MLOAD DUP2 PUSH1 0x8 PUSH1 0x20 MUL ADD MSTORE PUSH2 0x160 DUP8 ADD MLOAD DUP2 PUSH1 0x9 PUSH1 0x20 MUL ADD MSTORE PUSH2 0x1A0 DUP8 ADD MLOAD DUP2 PUSH1 0xA PUSH1 0x20 MUL ADD MSTORE PUSH2 0x180 DUP8 ADD MLOAD DUP2 PUSH1 0xB PUSH1 0x20 MUL ADD MSTORE PUSH2 0x1C0 DUP8 ADD MLOAD DUP2 PUSH1 0xC PUSH1 0x20 MUL ADD MSTORE PUSH2 0x1E0 DUP8 ADD MLOAD DUP2 PUSH1 0xD PUSH1 0x20 MUL ADD MSTORE PUSH2 0x200 DUP8 ADD MLOAD DUP2 PUSH1 0xE PUSH1 0x20 MUL ADD MSTORE PUSH2 0x220 DUP8 ADD MLOAD DUP2 PUSH1 0xF PUSH1 0x20 MUL ADD MSTORE PUSH2 0x240 DUP8 ADD MLOAD DUP2 PUSH1 0x10 PUSH1 0x20 MUL ADD MSTORE PUSH2 0x260 DUP8 ADD MLOAD DUP2 PUSH1 0x11 PUSH1 0x20 MUL ADD MSTORE PUSH2 0x280 DUP8 ADD MLOAD DUP2 PUSH1 0x12 PUSH1 0x20 MUL ADD MSTORE PUSH2 0x2A0 DUP8 ADD MLOAD DUP2 PUSH1 0x13 PUSH1 0x20 MUL ADD MSTORE PUSH2 0x2C0 DUP8 ADD MLOAD DUP2 PUSH1 0x14 PUSH1 0x20 MUL ADD MSTORE PUSH2 0x2E0 DUP8 ADD MLOAD DUP2 PUSH1 0x15 PUSH1 0x20 MUL ADD MSTORE PUSH2 0x300 DUP8 ADD MLOAD DUP2 PUSH1 0x16 PUSH1 0x20 MUL ADD MSTORE PUSH2 0x320 DUP8 ADD MLOAD DUP2 PUSH1 0x17 PUSH1 0x20 MUL ADD MSTORE PUSH2 0x340 DUP8 ADD MLOAD DUP2 PUSH1 0x18 PUSH1 0x20 MUL ADD MSTORE PUSH2 0x360 DUP8 ADD MLOAD DUP2 PUSH1 0x19 PUSH1 0x20 MUL ADD MSTORE PUSH2 0x380 DUP8 ADD MLOAD DUP2 PUSH1 0x1A PUSH1 0x20 MUL ADD MSTORE PUSH2 0x3A0 DUP8 ADD MLOAD DUP2 PUSH1 0x1B PUSH1 0x20 MUL ADD MSTORE DUP8 MLOAD PUSH2 0xB57 SWAP1 PUSH2 0x24AE JUMP JUMPDEST PUSH2 0x380 DUP3 ADD MSTORE PUSH1 0x20 DUP9 ADD MLOAD PUSH2 0xB6B SWAP1 PUSH2 0x24AE JUMP JUMPDEST PUSH2 0x3A0 DUP3 ADD MSTORE PUSH1 0x40 DUP9 ADD MLOAD PUSH2 0xB7F SWAP1 PUSH2 0x24AE JUMP JUMPDEST PUSH2 0x3C0 DUP3 ADD MSTORE PUSH1 0x60 DUP9 ADD MLOAD PUSH2 0xB93 SWAP1 PUSH2 0x24AE JUMP JUMPDEST PUSH2 0x3E0 DUP3 ADD MSTORE PUSH1 0x80 DUP9 ADD MLOAD PUSH2 0xBA7 SWAP1 PUSH2 0x24AE JUMP JUMPDEST PUSH2 0x400 DUP3 ADD MSTORE PUSH1 0xE0 DUP9 ADD MLOAD PUSH2 0xBBB SWAP1 PUSH2 0x24AE JUMP JUMPDEST PUSH2 0x420 DUP3 ADD MSTORE PUSH1 0xA0 DUP9 ADD MLOAD PUSH2 0xBCF SWAP1 PUSH2 0x24AE JUMP JUMPDEST PUSH2 0x440 DUP3 ADD MSTORE PUSH1 0xC0 DUP9 ADD MLOAD PUSH2 0xBE3 SWAP1 PUSH2 0x24AE JUMP JUMPDEST PUSH2 0x460 DUP3 ADD MSTORE DUP8 MLOAD PUSH2 0xBF4 SWAP1 PUSH2 0x24AE JUMP JUMPDEST PUSH2 0x480 DUP3 ADD MSTORE PUSH1 0x20 DUP9 ADD MLOAD PUSH2 0xC08 SWAP1 PUSH2 0x24AE JUMP JUMPDEST PUSH2 0x4A0 DUP3 ADD MSTORE PUSH1 0x40 DUP9 ADD MLOAD PUSH2 0xC1C SWAP1 PUSH2 0x24AE JUMP JUMPDEST PUSH2 0x4C0 DUP3 ADD MSTORE PUSH1 0x60 DUP9 ADD MLOAD PUSH2 0xC30 SWAP1 PUSH2 0x24AE JUMP JUMPDEST PUSH2 0x4E0 DUP3 ADD MSTORE PUSH1 0x80 DUP9 ADD MLOAD PUSH2 0xC44 SWAP1 PUSH2 0x24AE JUMP JUMPDEST PUSH2 0x500 DUP3 ADD MSTORE PUSH1 0x60 DUP7 ADD MLOAD PUSH1 0x80 DUP6 ADD MLOAD PUSH2 0x160 DUP11 ADD MLOAD PUSH1 0x0 SWAP3 PUSH2 0xC8A SWAP3 SWAP1 SWAP2 DUP8 PUSH32 0x0 PUSH2 0x2514 JUMP JUMPDEST DUP1 MLOAD PUSH1 0xA0 DUP8 ADD MLOAD SWAP2 SWAP3 POP PUSH2 0xC9D SWAP2 PUSH2 0x20D4 JUMP JUMPDEST PUSH1 0x40 DUP7 ADD DUP2 SWAP1 MSTORE PUSH2 0x160 DUP11 ADD MLOAD MLOAD PUSH1 0xC0 DUP10 ADD MLOAD PUSH2 0xCCD SWAP3 SWAP2 PUSH2 0x58D SWAP2 PUSH2 0xCC3 SWAP2 SWAP1 PUSH2 0x20D4 JUMP JUMPDEST DUP9 PUSH1 0xC0 ADD MLOAD PUSH2 0x20D4 JUMP JUMPDEST PUSH1 0x40 DUP7 ADD MSTORE PUSH1 0xC0 DUP8 ADD MLOAD PUSH2 0xCE0 SWAP1 PUSH2 0x2632 JUMP JUMPDEST PUSH1 0x60 DUP7 ADD MSTORE PUSH1 0x0 JUMPDEST PUSH2 0xCF4 PUSH1 0x1 PUSH1 0x1C PUSH2 0x5294 JUMP JUMPDEST DUP2 LT ISZERO PUSH2 0xF00 JUMPI PUSH1 0x0 PUSH2 0xD28 PUSH1 0x1 PUSH32 0x0 PUSH2 0x5294 JUMP JUMPDEST DUP3 LT ISZERO SWAP1 POP DUP1 PUSH2 0xE9E JUMPI PUSH2 0xD5B PUSH2 0x802 DUP11 PUSH1 0xE0 ADD MLOAD DUP9 DUP6 PUSH1 0x1 PUSH2 0xD4B SWAP2 SWAP1 PUSH2 0x5252 JUMP JUMPDEST PUSH1 0x1C DUP2 LT PUSH2 0x7F8 JUMPI PUSH2 0x7F8 PUSH2 0x5265 JUMP JUMPDEST PUSH1 0xA0 DUP9 ADD MSTORE PUSH1 0xE0 DUP10 ADD MLOAD PUSH2 0xD89 SWAP1 PUSH2 0x802 SWAP1 DUP9 PUSH2 0xD79 DUP7 PUSH1 0x1 PUSH2 0x5252 JUMP JUMPDEST PUSH1 0x1C DUP2 LT PUSH2 0x81D JUMPI PUSH2 0x81D PUSH2 0x5265 JUMP JUMPDEST PUSH1 0xC0 DUP9 ADD MSTORE PUSH1 0x60 DUP8 ADD MLOAD PUSH1 0xA0 DUP9 ADD MLOAD PUSH2 0xDA2 SWAP2 SWAP1 PUSH2 0x20D4 JUMP JUMPDEST PUSH1 0xE0 DUP9 ADD MSTORE PUSH1 0x60 DUP8 ADD MLOAD PUSH1 0xC0 DUP11 ADD MLOAD PUSH2 0xDBE SWAP2 PUSH2 0xCC3 SWAP2 PUSH2 0x20D4 JUMP JUMPDEST PUSH2 0x100 DUP9 ADD DUP2 SWAP1 MSTORE PUSH2 0xDE0 SWAP1 PUSH2 0xDD3 SWAP1 PUSH2 0x24FA JUMP JUMPDEST PUSH2 0x58D DUP10 PUSH1 0xE0 ADD MLOAD PUSH2 0x24FA JUMP JUMPDEST DUP6 DUP4 PUSH2 0xDEE PUSH1 0x28 PUSH1 0x1 PUSH2 0x5252 JUMP JUMPDEST PUSH2 0xDF8 SWAP2 SWAP1 PUSH2 0x5252 JUMP JUMPDEST PUSH1 0x46 DUP2 LT PUSH2 0xE08 JUMPI PUSH2 0xE08 PUSH2 0x5265 JUMP JUMPDEST PUSH1 0x20 MUL ADD MSTORE PUSH2 0x100 DUP8 ADD MLOAD PUSH2 0x160 DUP13 ADD MLOAD PUSH1 0x0 SWAP2 PUSH2 0xE45 SWAP2 PUSH2 0xE2B DUP7 PUSH1 0x1 PUSH2 0x5252 JUMP JUMPDEST PUSH1 0x1C DUP2 LT PUSH2 0xE3B JUMPI PUSH2 0xE3B PUSH2 0x5265 JUMP JUMPDEST PUSH1 0x20 MUL ADD MLOAD PUSH2 0x20D4 JUMP JUMPDEST SWAP1 POP PUSH2 0xE61 DUP2 PUSH2 0x58D DUP11 PUSH1 0xE0 ADD MLOAD DUP8 DUP8 PUSH1 0x1 PUSH2 0xE2B SWAP2 SWAP1 PUSH2 0x5252 JUMP JUMPDEST SWAP1 POP PUSH2 0xE71 DUP9 PUSH1 0x40 ADD MLOAD DUP3 PUSH2 0x20EF JUMP JUMPDEST PUSH1 0x40 DUP10 ADD MSTORE PUSH1 0x60 DUP9 ADD MLOAD PUSH1 0xC0 DUP12 ADD MLOAD PUSH2 0xE97 SWAP2 PUSH2 0xE8D SWAP2 PUSH2 0x20D4 JUMP JUMPDEST DUP12 PUSH1 0xC0 ADD MLOAD PUSH2 0x20D4 JUMP JUMPDEST PUSH1 0x60 DUP10 ADD MSTORE POP JUMPDEST PUSH2 0xEC2 DUP12 PUSH2 0x140 ADD MLOAD DUP4 PUSH1 0x1B DUP2 LT PUSH2 0xEB8 JUMPI PUSH2 0xEB8 PUSH2 0x5265 JUMP JUMPDEST PUSH1 0x20 MUL ADD MLOAD PUSH2 0x24AE JUMP JUMPDEST DUP5 DUP4 PUSH2 0xED0 PUSH1 0x28 PUSH1 0x1 PUSH2 0x5252 JUMP JUMPDEST PUSH2 0xEDA SWAP2 SWAP1 PUSH2 0x5252 JUMP JUMPDEST PUSH1 0x46 DUP2 LT PUSH2 0xEEA JUMPI PUSH2 0xEEA PUSH2 0x5265 JUMP JUMPDEST PUSH1 0x20 MUL ADD MSTORE POP PUSH2 0xEF9 DUP2 PUSH2 0x527B JUMP JUMPDEST SWAP1 POP PUSH2 0xCE8 JUMP JUMPDEST POP PUSH1 0x40 DUP1 MLOAD DUP1 DUP3 ADD SWAP1 SWAP2 MSTORE PUSH1 0x1 DUP2 MSTORE PUSH1 0x2 PUSH1 0x20 DUP3 ADD MSTORE DUP3 PUSH2 0xF23 PUSH1 0x1C PUSH1 0x28 PUSH2 0x5252 JUMP JUMPDEST PUSH1 0x46 DUP2 LT PUSH2 0xF33 JUMPI PUSH2 0xF33 PUSH2 0x5265 JUMP JUMPDEST PUSH1 0x20 MUL ADD MSTORE PUSH1 0x40 DUP6 ADD MLOAD DUP4 PUSH2 0xF4A PUSH1 0x1C PUSH1 0x28 PUSH2 0x5252 JUMP JUMPDEST PUSH1 0x46 DUP2 LT PUSH2 0xF5A JUMPI PUSH2 0xF5A PUSH2 0x5265 JUMP JUMPDEST PUSH1 0x20 MUL ADD MSTORE PUSH2 0x1A0 DUP10 ADD MLOAD PUSH1 0x0 SWAP1 PUSH2 0xF71 SWAP1 PUSH2 0x24AE JUMP JUMPDEST SWAP1 POP DUP1 DUP4 PUSH2 0xF81 PUSH1 0x1C PUSH1 0x28 PUSH2 0x5252 JUMP JUMPDEST PUSH2 0xF8C SWAP1 PUSH1 0x1 PUSH2 0x5252 JUMP JUMPDEST PUSH1 0x46 DUP2 LT PUSH2 0xF9C JUMPI PUSH2 0xF9C PUSH2 0x5265 JUMP JUMPDEST PUSH1 0x20 MUL ADD MSTORE PUSH1 0xE0 DUP9 ADD MLOAD DUP5 PUSH2 0xFB3 PUSH1 0x1C PUSH1 0x28 PUSH2 0x5252 JUMP JUMPDEST PUSH2 0xFBE SWAP1 PUSH1 0x1 PUSH2 0x5252 JUMP JUMPDEST PUSH1 0x46 DUP2 LT PUSH2 0xFCE JUMPI PUSH2 0xFCE PUSH2 0x5265 JUMP JUMPDEST PUSH1 0x20 MUL ADD MSTORE PUSH1 0x0 PUSH2 0xFDF DUP5 DUP7 PUSH2 0x263E JUMP JUMPDEST SWAP1 POP PUSH1 0x0 PUSH2 0xFEC DUP4 PUSH2 0x2711 JUMP JUMPDEST SWAP1 POP PUSH2 0xFF8 DUP3 DUP3 PUSH2 0x2789 JUMP JUMPDEST SWAP13 SWAP12 POP POP POP POP POP POP POP POP POP POP POP POP JUMP JUMPDEST PUSH2 0x1010 PUSH2 0x4A03 JUMP JUMPDEST POP PUSH1 0x40 DUP1 MLOAD PUSH2 0x3C0 DUP2 ADD DUP3 MSTORE PUSH3 0x40000 DUP2 MSTORE PUSH1 0x12 PUSH1 0x20 DUP1 DUP4 ADD SWAP2 SWAP1 SWAP2 MSTORE PUSH1 0x2 DUP3 DUP5 ADD MSTORE DUP3 MLOAD DUP1 DUP5 ADD DUP5 MSTORE PUSH31 0xAC6C565D18565315C3BCF77A43CC3DEBD05E4E0B176382303E7F6C69B57A79 DUP2 MSTORE PUSH32 0x62EEB40EA42E07877D457294F8AA8C91FA40B4EA70AB3B293EDA5D8D36FB1F2 DUP2 DUP4 ADD MSTORE PUSH1 0x60 DUP4 ADD MSTORE DUP3 MLOAD DUP1 DUP5 ADD DUP5 MSTORE PUSH32 0xA84FCBBD1FF6BCAD9880BB39DC7E804217BC750682994E68D3369896C65F5F4 DUP2 MSTORE PUSH32 0x2E0DE120112AC2336CF5FD7E67B34B5AA0733BF11914C634F385CBA580BB025 DUP2 DUP4 ADD MSTORE PUSH1 0x80 DUP4 ADD MSTORE DUP3 MLOAD DUP1 DUP5 ADD DUP5 MSTORE PUSH32 0x2C076F3FC0973F46712A08502424F2ACF58CA1837D7C4D22531A7D37B6960A29 DUP2 MSTORE PUSH32 0x23E1628F732C99C12445AB4A004259E73F3CA9BB37705FB551BE3A83BE795706 DUP2 DUP4 ADD MSTORE PUSH1 0xA0 DUP4 ADD MSTORE DUP3 MLOAD DUP1 DUP5 ADD DUP5 MSTORE PUSH32 0x2AE160C39D2AC738C03C0E2568AE914DDBA2A65347CCB36EE8452A90E7A3003 DUP2 MSTORE PUSH32 0xE7B0132C9C67E70075FC108F229EB00984FC79BC39E70255DDB77F7F45E80C5 DUP2 DUP4 ADD MSTORE PUSH1 0xC0 DUP4 ADD MSTORE DUP3 MLOAD DUP1 DUP5 ADD DUP5 MSTORE PUSH32 0x4C86B5D44FB8B09BA8CA9794CA1C57755E80BFC28AF23DAACCBBC0D9F27BF04 DUP2 MSTORE PUSH32 0x7E3FB28F8C4A3C4DDF5D339B7F9BABD161B20ED836DCB82351F9937FC6F3A9E DUP2 DUP4 ADD MSTORE PUSH1 0xE0 DUP4 ADD MSTORE DUP3 MLOAD DUP1 DUP5 ADD DUP5 MSTORE PUSH32 0x2A1EC8F1EC3C797DB654DE7F49E2D50A0EC3DB32CC6C7151DD525E219577A1CD DUP2 MSTORE PUSH32 0xB130591D3EB963157025F812ADD1D054AFC9ABA7A6CAC2C3749E14EAF71C4F1 DUP2 DUP4 ADD MSTORE PUSH2 0x100 DUP4 ADD MSTORE DUP3 MLOAD DUP1 DUP5 ADD DUP5 MSTORE PUSH32 0x21DC62F1D89EECC2389B3D7688EE423E1461B86E1313B685580E973500A1A65D DUP2 MSTORE PUSH32 0xA9F8725055384AFD52DBC4F942F12F03E6B01999B5257E19092BEB6CE861C75 DUP2 DUP4 ADD MSTORE PUSH2 0x120 DUP4 ADD MSTORE DUP3 MLOAD DUP1 DUP5 ADD DUP5 MSTORE PUSH32 0x28ED32739A371FF86E76B50B12BB11F475507E332D40A46B643A46B34D9BC41F DUP2 MSTORE PUSH32 0xBDEE86AF78912D2C95ECD8A5D35F953A4E93A4857297163E4A18597E1F0220C DUP2 DUP4 ADD MSTORE PUSH2 0x140 DUP4 ADD MSTORE DUP3 MLOAD DUP1 DUP5 ADD DUP5 MSTORE PUSH32 0x2D946D03D2628B5CBD916A6F0A16D3CA741E2238AADD9E67FD597718968D6488 DUP2 MSTORE PUSH32 0x1B56523AEAA9FC75B6BC16DCA4D798740AFDACA8D0BFD81F27E2458834D23B0D DUP2 DUP4 ADD MSTORE PUSH2 0x160 DUP4 ADD MSTORE DUP3 MLOAD DUP1 DUP5 ADD DUP5 MSTORE PUSH32 0x26F7114B3A1CADB14F2A9591F79A59871D0DE5402F5D4CCA616186D6C36BACF8 DUP2 MSTORE PUSH32 0x114AC03EE0F9DC60117581E6F4B9371AB2E01D3AAE36B125AB172E167A7AFD17 DUP2 DUP4 ADD MSTORE PUSH2 0x180 DUP4 ADD MSTORE DUP3 MLOAD DUP1 DUP5 ADD DUP5 MSTORE PUSH32 0x144E5937E0EA0599EF00BD4B16A09DB19CAF74ACE8A114AE27E241B012B65C5 DUP2 MSTORE PUSH32 0x2AAD0E4F0C9F7B36D2C1328510C8D1DE10078AD62640328F8F8BE1A44C1A3990 DUP2 DUP4 ADD MSTORE PUSH2 0x1A0 DUP4 ADD MSTORE DUP3 MLOAD DUP1 DUP5 ADD DUP5 MSTORE PUSH32 0x292D36A280E0AFE139947A72E33540FA7683AF7D3C01839F873B190E13386943 DUP2 MSTORE PUSH32 0x139E96EF979A9D683B2103E7B8B644C98D59CD7119E3296AF2F650438C1819AA DUP2 DUP4 ADD MSTORE PUSH2 0x1C0 DUP4 ADD MSTORE DUP3 MLOAD DUP1 DUP5 ADD DUP5 MSTORE PUSH32 0x2EC128185BE779C06CFC1F7D385B6618F46B11FA41BC01AFE737D422CAF7499F DUP2 MSTORE PUSH32 0x18E47F4031EB5422C4E440E2FE3C1A5FB8EFF193A7D2F2E704AE92B765439795 DUP2 DUP4 ADD MSTORE PUSH2 0x1E0 DUP4 ADD MSTORE DUP3 MLOAD DUP1 DUP5 ADD DUP5 MSTORE PUSH32 0xB02C661A1E22CA234B4E5501B7D51B252B856A7B53F0D2F27CAEEB097F651E1 DUP2 MSTORE PUSH32 0xB46F3757E831F1EA2674A561432305AA938CE4F8878D06B55B7560D314B7324 DUP2 DUP4 ADD MSTORE PUSH2 0x200 DUP4 ADD MSTORE DUP3 MLOAD DUP1 DUP5 ADD DUP5 MSTORE PUSH32 0x72AD35C4F142A41045CA6393183B05CCE13CFCF6FBAEF8A42DDC341CBA7809C DUP2 MSTORE PUSH32 0x29B77A067F3D9DCC3ACB5F6A7F3C6BA2A93E1D4354202EAEA9162609A1F1E74B DUP2 DUP4 ADD MSTORE PUSH2 0x220 DUP4 ADD MSTORE DUP3 MLOAD DUP1 DUP5 ADD DUP5 MSTORE PUSH32 0x271FA99A8B0A2A5792FF70A0482B7C0A122C9E75E65ECB7423D68FD2DFDE4E5B DUP2 MSTORE PUSH32 0x263E4096C34386BD7379E766A37D811E44D2C055FAB98678C3F7CF31F10E2146 DUP2 DUP4 ADD MSTORE PUSH2 0x240 DUP4 ADD MSTORE DUP3 MLOAD DUP1 DUP5 ADD DUP5 MSTORE PUSH32 0x9992819934204932CC49E67CFF10F90AC320FDC88BE691EA008921E60D58120 DUP2 MSTORE PUSH32 0x6C64281B9B231CBD813857A15C801FA02F85E5AEF171CBD5941F4FCFC4923F0 DUP2 DUP4 ADD MSTORE PUSH2 0x260 DUP4 ADD MSTORE DUP3 MLOAD DUP1 DUP5 ADD DUP5 MSTORE PUSH32 0x71396B02813C8319631EECD9798D6D974D5C2E9F54E405FE1EB4D2BE21E3494 DUP2 MSTORE PUSH32 0xB01B3FCFA64394B3F9F516DC7348F3DBF5E4BBF2B94ABBB5BF8E1E7DC53B32F DUP2 DUP4 ADD MSTORE PUSH2 0x280 DUP4 ADD MSTORE DUP3 MLOAD DUP1 DUP5 ADD DUP5 MSTORE PUSH32 0x239981731452DE519D49338D61841CAF16C8F180A4B61027F1C17863717B7087 DUP2 MSTORE PUSH32 0x270D770549EB8B5425FCCC8FE306191B45550E90723EE98311BD6C6A1AE793D9 DUP2 DUP4 ADD MSTORE PUSH2 0x2A0 DUP4 ADD MSTORE DUP3 MLOAD DUP1 DUP5 ADD DUP5 MSTORE PUSH32 0x749626812FD75117335746A2D8A0AEEAB686C26E0FD137F85FF8FF48EBE1FDF DUP2 MSTORE PUSH32 0x405D496B14AA96146CB4CF73BC39371B553CD7B6C785FD0A73DBB5B7A5BE4E4 DUP2 DUP4 ADD MSTORE PUSH2 0x2C0 DUP4 ADD MSTORE DUP3 MLOAD DUP1 DUP5 ADD DUP5 MSTORE PUSH32 0xC7B84AEA3F412324064723BF4C9C03D965F6D9BF17A399962D40A009D5E4BE6 DUP2 MSTORE PUSH32 0xA243C95D3DF3B02C445D9A504F0BFF0CE811E6B7CFE6DCB6695396618A4C352 DUP2 DUP4 ADD MSTORE PUSH2 0x2E0 DUP4 ADD MSTORE DUP3 MLOAD DUP1 DUP5 ADD DUP5 MSTORE PUSH32 0x2A45764D9F06457964E4C6711369289C89A43C11683F81B148E8B328E4C22C7D DUP2 MSTORE PUSH32 0x22F581C3C68B3C206143E97690FB5AC27C46F0EE46A17AB731F27700702B281C DUP2 DUP4 ADD MSTORE PUSH2 0x300 DUP4 ADD MSTORE DUP3 MLOAD DUP1 DUP5 ADD DUP5 MSTORE PUSH32 0x2C8CD3D61F5A6C13997098C83919F769EF00A728B7462DADF61E3B0B84D546F2 DUP2 MSTORE PUSH32 0xC0B38E698724FC90935B8A9F4064A1D38BCF5F21A8D31407CC0C8F10591D637 DUP2 DUP4 ADD MSTORE PUSH2 0x320 DUP4 ADD MSTORE DUP3 MLOAD DUP1 DUP5 ADD DUP5 MSTORE PUSH32 0x22BCC14FC05A041DB1F726228C25A10B0106FEC796BDD388A844061C49B5B779 DUP2 MSTORE PUSH32 0x1FFBDE35E089F0CA23DAF9AFB0EF1B06F5D23A9301609AB2ACEB3C313EBB0BA DUP2 DUP4 ADD MSTORE PUSH2 0x340 DUP4 ADD MSTORE DUP3 MLOAD DUP1 DUP5 ADD DUP5 MSTORE PUSH32 0xFB1DF728484DC24BFBDF422E7C56DCFE3045E87347BE1E6A4CB045B2B91B909 DUP2 MSTORE PUSH32 0x1EFC1252647C0B54202356DF5CE8AC3913893C63C275B66A0E8FD91F30879406 DUP2 DUP4 ADD MSTORE PUSH2 0x360 DUP4 ADD MSTORE DUP3 MLOAD DUP1 DUP5 ADD DUP5 MSTORE PUSH32 0x2EBAF079711E4CB519DE30A21C58B8C97C4D6E3394E173DC511BEDD586AC1940 DUP2 MSTORE PUSH32 0x18804EFA23A06D9217D2ED683D343CED6BEFFE071ED2812604112CEDA07A1078 DUP2 DUP4 ADD MSTORE PUSH2 0x380 DUP4 ADD MSTORE DUP3 MLOAD DUP1 DUP5 ADD SWAP1 SWAP4 MSTORE PUSH32 0x2B37631A3D9CBFAC8F5F7492FCFD4F44D0FD2ADD2F1C6AE587BEE7D24F060572 DUP4 MSTORE PUSH1 0x1 PUSH1 0xF8 SHL SWAP1 DUP4 ADD MSTORE PUSH2 0x3A0 DUP2 ADD SWAP2 SWAP1 SWAP2 MSTORE SWAP1 JUMP JUMPDEST PUSH2 0x1917 PUSH2 0x4F5E JUMP JUMPDEST PUSH1 0x80 DUP3 EQ PUSH2 0x1962 JUMPI PUSH1 0x40 MLOAD PUSH3 0x461BCD PUSH1 0xE5 SHL DUP2 MSTORE PUSH1 0x20 PUSH1 0x4 DUP3 ADD MSTORE PUSH1 0x13 PUSH1 0x24 DUP3 ADD MSTORE PUSH19 0x1A5B9D985B1A5908189E5D195CC81C1BDA5B9D PUSH1 0x6A SHL PUSH1 0x44 DUP3 ADD MSTORE PUSH1 0x64 ADD JUMPDEST PUSH1 0x40 MLOAD DUP1 SWAP2 SUB SWAP1 REVERT JUMPDEST PUSH1 0x40 DUP1 MLOAD PUSH1 0x80 DUP2 ADD SWAP1 SWAP2 MSTORE DUP1 PUSH2 0x197C PUSH1 0x20 PUSH1 0x0 DUP7 DUP9 PUSH2 0x5228 JUMP JUMPDEST PUSH2 0x1985 SWAP2 PUSH2 0x52A7 JUMP JUMPDEST DUP2 MSTORE PUSH1 0x20 SWAP1 DUP2 ADD SWAP1 PUSH2 0x199B SWAP1 PUSH1 0x40 SWAP1 DUP7 DUP9 PUSH2 0x5228 JUMP JUMPDEST PUSH2 0x19A4 SWAP2 PUSH2 0x52A7 JUMP JUMPDEST DUP2 MSTORE PUSH1 0x20 ADD PUSH2 0x19B7 PUSH1 0x60 PUSH1 0x40 DUP7 DUP9 PUSH2 0x5228 JUMP JUMPDEST PUSH2 0x19C0 SWAP2 PUSH2 0x52A7 JUMP JUMPDEST DUP2 MSTORE PUSH1 0x20 ADD PUSH2 0x19D3 PUSH1 0x80 PUSH1 0x60 DUP7 DUP9 PUSH2 0x5228 JUMP JUMPDEST PUSH2 0x19DC SWAP2 PUSH2 0x52A7 JUMP JUMPDEST SWAP1 MSTORE SWAP4 SWAP3 POP POP POP JUMP JUMPDEST PUSH1 0x0 PUSH1 0x20 DUP3 EQ PUSH2 0x1A2E JUMPI PUSH1 0x40 MLOAD PUSH3 0x461BCD PUSH1 0xE5 SHL DUP2 MSTORE PUSH1 0x20 PUSH1 0x4 DUP3 ADD MSTORE PUSH1 0x14 PUSH1 0x24 DUP3 ADD MSTORE PUSH20 0x34B73B30B634B210313CBA32B99039B1B0B630B9 PUSH1 0x61 SHL PUSH1 0x44 DUP3 ADD MSTORE PUSH1 0x64 ADD PUSH2 0x1959 JUMP JUMPDEST PUSH2 0x1A3B PUSH2 0x583 DUP4 DUP6 PUSH2 0x52A7 JUMP JUMPDEST SWAP4 SWAP3 POP POP POP JUMP JUMPDEST PUSH2 0x1A7B PUSH1 0x40 MLOAD DUP1 PUSH1 0xC0 ADD PUSH1 0x40 MSTORE DUP1 PUSH1 0x0 DUP2 MSTORE PUSH1 0x20 ADD PUSH1 0x0 DUP2 MSTORE PUSH1 0x20 ADD PUSH1 0x0 DUP2 MSTORE PUSH1 0x20 ADD PUSH1 0x0 DUP2 MSTORE PUSH1 0x20 ADD PUSH1 0x0 DUP2 MSTORE PUSH1 0x20 ADD PUSH1 0x0 DUP2 MSTORE POP SWAP1 JUMP JUMPDEST PUSH1 0x0 PUSH2 0x1A8B DUP10 DUP10 DUP10 DUP10 DUP10 DUP10 PUSH2 0x2993 JUMP JUMPDEST PUSH1 0x40 DUP7 ADD SWAP2 SWAP1 SWAP2 MSTORE PUSH1 0x20 DUP6 ADD SWAP2 SWAP1 SWAP2 MSTORE SWAP1 DUP4 MSTORE SWAP3 POP PUSH2 0x1AAA DUP4 DUP11 PUSH2 0x2DC8 JUMP JUMPDEST PUSH1 0x80 DUP6 ADD SWAP2 SWAP1 SWAP2 MSTORE PUSH1 0x60 DUP5 ADD SWAP2 SWAP1 SWAP2 MSTORE SWAP2 SWAP10 SWAP2 SWAP9 POP SWAP1 SWAP7 POP POP POP POP POP POP POP JUMP JUMPDEST PUSH2 0x1AD2 PUSH2 0x4F86 JUMP JUMPDEST PUSH1 0x0 PUSH2 0x1ADC PUSH2 0x4FA5 JUMP JUMPDEST DUP5 DUP2 MSTORE PUSH1 0xE0 DUP5 DUP2 ADD DUP1 MLOAD MLOAD PUSH1 0x20 DUP1 DUP6 ADD SWAP2 SWAP1 SWAP2 MSTORE DUP2 MLOAD DUP2 ADD MLOAD PUSH1 0x40 DUP1 DUP7 ADD SWAP2 SWAP1 SWAP2 MSTORE DUP3 MLOAD DUP2 ADD MLOAD PUSH1 0x60 DUP1 DUP8 ADD SWAP2 SWAP1 SWAP2 MSTORE SWAP3 MLOAD DUP4 ADD MLOAD PUSH1 0x80 DUP1 DUP8 ADD SWAP2 SWAP1 SWAP2 MSTORE DUP9 ADD DUP1 MLOAD MLOAD PUSH1 0xA0 DUP8 ADD MSTORE DUP1 MLOAD DUP4 ADD MLOAD PUSH1 0xC0 DUP8 ADD MSTORE DUP1 MLOAD DUP3 ADD MLOAD SWAP5 DUP7 ADD SWAP5 SWAP1 SWAP5 MSTORE SWAP3 MLOAD SWAP1 SWAP2 ADD MLOAD PUSH2 0x100 DUP5 ADD MSTORE SWAP1 MLOAD PUSH2 0x1B73 SWAP2 PUSH2 0x1B58 SWAP2 DUP5 SWAP2 ADD PUSH2 0x52C5 JUMP JUMPDEST PUSH1 0x40 MLOAD PUSH1 0x20 DUP2 DUP4 SUB SUB DUP2 MSTORE SWAP1 PUSH1 0x40 MSTORE DUP1 MLOAD SWAP1 PUSH1 0x20 ADD KECCAK256 PUSH2 0x20B4 JUMP JUMPDEST SWAP2 POP PUSH2 0x1B7E DUP3 PUSH2 0x2E95 JUMP JUMPDEST PUSH1 0x20 DUP6 ADD MSTORE DUP4 MSTORE PUSH1 0x1 JUMPDEST PUSH2 0x1B94 PUSH1 0x2 PUSH1 0x19 PUSH2 0x5310 JUMP JUMPDEST DUP2 LT ISZERO PUSH2 0x1C1E JUMPI PUSH2 0x1BB1 DUP4 PUSH1 0x40 MLOAD PUSH1 0x20 ADD PUSH2 0x1B58 SWAP2 DUP2 MSTORE PUSH1 0x20 ADD SWAP1 JUMP JUMPDEST SWAP3 POP PUSH2 0x1BBC DUP4 PUSH2 0x2E95 JUMP JUMPDEST DUP6 PUSH2 0x1BC8 DUP5 PUSH1 0x2 PUSH2 0x5211 JUMP JUMPDEST PUSH1 0x19 DUP2 LT PUSH2 0x1BD8 JUMPI PUSH2 0x1BD8 PUSH2 0x5265 JUMP JUMPDEST PUSH1 0x20 MUL ADD DUP7 PUSH2 0x1BE8 DUP6 PUSH1 0x2 PUSH2 0x5211 JUMP JUMPDEST PUSH2 0x1BF3 SWAP1 PUSH1 0x1 PUSH2 0x5252 JUMP JUMPDEST PUSH1 0x19 DUP2 LT PUSH2 0x1C03 JUMPI PUSH2 0x1C03 PUSH2 0x5265 JUMP JUMPDEST PUSH1 0x20 MUL ADD SWAP2 SWAP1 SWAP2 MSTORE MSTORE DUP1 PUSH2 0x1C16 DUP2 PUSH2 0x527B JUMP JUMPDEST SWAP2 POP POP PUSH2 0x1B88 JUMP JUMPDEST POP PUSH2 0x1C35 DUP3 PUSH1 0x40 MLOAD PUSH1 0x20 ADD PUSH2 0x1B58 SWAP2 DUP2 MSTORE PUSH1 0x20 ADD SWAP1 JUMP JUMPDEST SWAP2 POP PUSH1 0x0 PUSH2 0x1C42 DUP4 PUSH2 0x2E95 JUMP JUMPDEST DUP6 PUSH2 0x1C4F PUSH1 0x1 PUSH1 0x19 PUSH2 0x5294 JUMP JUMPDEST PUSH1 0x19 DUP2 LT PUSH2 0x1C5F JUMPI PUSH2 0x1C5F PUSH2 0x5265 JUMP JUMPDEST PUSH1 0x20 MUL ADD SWAP2 SWAP1 SWAP2 MSTORE POP POP POP SWAP3 POP SWAP3 SWAP1 POP JUMP JUMPDEST PUSH2 0x1C79 PUSH2 0x4FC4 JUMP JUMPDEST PUSH1 0x0 DUP1 JUMPDEST PUSH1 0x1C DUP2 LT ISZERO PUSH2 0x1CD8 JUMPI PUSH2 0x1C9C DUP5 PUSH1 0x40 MLOAD PUSH1 0x20 ADD PUSH2 0x1B58 SWAP2 DUP2 MSTORE PUSH1 0x20 ADD SWAP1 JUMP JUMPDEST SWAP4 POP PUSH1 0x0 PUSH2 0x1CA9 DUP6 PUSH2 0x2E95 JUMP JUMPDEST DUP6 DUP5 PUSH1 0x1C DUP2 LT PUSH2 0x1CBB JUMPI PUSH2 0x1CBB PUSH2 0x5265 JUMP JUMPDEST PUSH1 0x20 MUL ADD SWAP2 SWAP1 SWAP2 MSTORE POP DUP2 SWAP1 POP PUSH2 0x1CD0 DUP2 PUSH2 0x527B JUMP JUMPDEST SWAP2 POP POP PUSH2 0x1C7D JUMP JUMPDEST POP SWAP1 SWAP3 SWAP1 POP JUMP JUMPDEST PUSH2 0x1CE7 PUSH2 0x4FC4 JUMP JUMPDEST PUSH1 0x0 DUP1 JUMPDEST PUSH1 0x1C DUP2 LT ISZERO PUSH2 0x1DC3 JUMPI PUSH2 0x1CFC PUSH2 0x4FA5 JUMP JUMPDEST DUP5 DUP2 MSTORE PUSH1 0x0 JUMPDEST PUSH1 0x8 DUP2 LT ISZERO PUSH2 0x1D70 JUMPI DUP7 PUSH2 0x100 ADD MLOAD DUP4 PUSH1 0x1C DUP2 LT PUSH2 0x1D22 JUMPI PUSH2 0x1D22 PUSH2 0x5265 JUMP JUMPDEST PUSH1 0x20 MUL ADD MLOAD DUP2 PUSH1 0x8 DUP2 LT PUSH2 0x1D38 JUMPI PUSH2 0x1D38 PUSH2 0x5265 JUMP JUMPDEST PUSH1 0x20 MUL ADD MLOAD DUP3 PUSH2 0x1D49 DUP4 PUSH1 0x1 PUSH2 0x5252 JUMP JUMPDEST PUSH1 0x9 DUP2 LT PUSH2 0x1D59 JUMPI PUSH2 0x1D59 PUSH2 0x5265 JUMP JUMPDEST PUSH1 0x20 MUL ADD MSTORE DUP1 PUSH2 0x1D68 DUP2 PUSH2 0x527B JUMP JUMPDEST SWAP2 POP POP PUSH2 0x1D02 JUMP JUMPDEST POP PUSH2 0x1D85 DUP2 PUSH1 0x40 MLOAD PUSH1 0x20 ADD PUSH2 0x1B58 SWAP2 SWAP1 PUSH2 0x52C5 JUMP JUMPDEST SWAP5 POP PUSH1 0x0 PUSH2 0x1D92 DUP7 PUSH2 0x2E95 JUMP JUMPDEST DUP7 DUP6 PUSH1 0x1C DUP2 LT PUSH2 0x1DA4 JUMPI PUSH2 0x1DA4 PUSH2 0x5265 JUMP JUMPDEST PUSH1 0x20 MUL ADD SWAP2 SWAP1 SWAP2 MSTORE POP DUP3 SWAP2 POP PUSH2 0x1DBB SWAP1 POP DUP2 PUSH2 0x527B JUMP JUMPDEST SWAP2 POP POP PUSH2 0x1CEB JUMP JUMPDEST POP SWAP1 SWAP4 SWAP2 SWAP3 POP POP JUMP JUMPDEST PUSH1 0x0 DUP1 PUSH2 0x1DD7 PUSH2 0x4FE3 JUMP JUMPDEST DUP4 DUP2 MSTORE PUSH1 0x0 JUMPDEST PUSH1 0x28 DUP2 LT ISZERO PUSH2 0x1E35 JUMPI DUP6 PUSH2 0x120 ADD MLOAD DUP2 PUSH1 0x28 DUP2 LT PUSH2 0x1DFD JUMPI PUSH2 0x1DFD PUSH2 0x5265 JUMP JUMPDEST PUSH1 0x20 MUL ADD MLOAD DUP3 PUSH2 0x1E0E DUP4 PUSH1 0x1 PUSH2 0x5252 JUMP JUMPDEST PUSH1 0x29 DUP2 LT PUSH2 0x1E1E JUMPI PUSH2 0x1E1E PUSH2 0x5265 JUMP JUMPDEST PUSH1 0x20 MUL ADD MSTORE DUP1 PUSH2 0x1E2D DUP2 PUSH2 0x527B JUMP JUMPDEST SWAP2 POP POP PUSH2 0x1DDD JUMP JUMPDEST POP PUSH2 0x1E4A DUP2 PUSH1 0x40 MLOAD PUSH1 0x20 ADD PUSH2 0x1B58 SWAP2 SWAP1 PUSH2 0x5324 JUMP JUMPDEST SWAP2 POP PUSH1 0x0 PUSH2 0x1E57 DUP4 PUSH2 0x2E95 JUMP JUMPDEST POP SWAP7 SWAP3 SWAP6 POP SWAP2 SWAP4 POP POP POP POP JUMP JUMPDEST PUSH1 0x0 DUP1 PUSH2 0x1E6F PUSH2 0x5002 JUMP JUMPDEST DUP4 DUP2 MSTORE PUSH1 0x0 JUMPDEST PUSH2 0x1E81 PUSH1 0x1 PUSH1 0x1C PUSH2 0x5294 JUMP JUMPDEST DUP2 LT ISZERO PUSH2 0x1FC9 JUMPI DUP6 PUSH2 0x140 ADD MLOAD DUP2 PUSH1 0x1B DUP2 LT PUSH2 0x1E9F JUMPI PUSH2 0x1E9F PUSH2 0x5265 JUMP JUMPDEST PUSH1 0x20 MUL ADD MLOAD MLOAD DUP3 PUSH2 0x1EB1 DUP4 PUSH1 0x4 PUSH2 0x5211 JUMP JUMPDEST PUSH2 0x1EBC SWAP1 PUSH1 0x1 PUSH2 0x5252 JUMP JUMPDEST PUSH1 0x6D DUP2 LT PUSH2 0x1ECC JUMPI PUSH2 0x1ECC PUSH2 0x5265 JUMP JUMPDEST PUSH1 0x20 MUL ADD MSTORE PUSH2 0x140 DUP7 ADD MLOAD DUP2 PUSH1 0x1B DUP2 LT PUSH2 0x1EE8 JUMPI PUSH2 0x1EE8 PUSH2 0x5265 JUMP JUMPDEST PUSH1 0x20 MUL ADD MLOAD PUSH1 0x20 ADD MLOAD DUP3 DUP3 PUSH1 0x4 PUSH2 0x1EFF SWAP2 SWAP1 PUSH2 0x5211 JUMP JUMPDEST PUSH2 0x1F0A SWAP1 PUSH1 0x2 PUSH2 0x5252 JUMP JUMPDEST PUSH1 0x6D DUP2 LT PUSH2 0x1F1A JUMPI PUSH2 0x1F1A PUSH2 0x5265 JUMP JUMPDEST PUSH1 0x20 MUL ADD MSTORE PUSH2 0x140 DUP7 ADD MLOAD DUP2 PUSH1 0x1B DUP2 LT PUSH2 0x1F36 JUMPI PUSH2 0x1F36 PUSH2 0x5265 JUMP JUMPDEST PUSH1 0x20 MUL ADD MLOAD PUSH1 0x40 ADD MLOAD DUP3 PUSH2 0x1F4B DUP4 PUSH1 0x4 PUSH2 0x5211 JUMP JUMPDEST PUSH2 0x1F56 SWAP1 PUSH1 0x3 PUSH2 0x5252 JUMP JUMPDEST PUSH1 0x6D DUP2 LT PUSH2 0x1F66 JUMPI PUSH2 0x1F66 PUSH2 0x5265 JUMP JUMPDEST PUSH1 0x20 MUL ADD MSTORE PUSH2 0x140 DUP7 ADD MLOAD DUP2 PUSH1 0x1B DUP2 LT PUSH2 0x1F82 JUMPI PUSH2 0x1F82 PUSH2 0x5265 JUMP JUMPDEST PUSH1 0x20 MUL ADD MLOAD PUSH1 0x60 ADD MLOAD DUP3 PUSH2 0x1F97 DUP4 PUSH1 0x4 PUSH2 0x5211 JUMP JUMPDEST PUSH2 0x1FA2 SWAP1 PUSH1 0x4 PUSH2 0x5252 JUMP JUMPDEST PUSH1 0x6D DUP2 LT PUSH2 0x1FB2 JUMPI PUSH2 0x1FB2 PUSH2 0x5265 JUMP JUMPDEST PUSH1 0x20 MUL ADD MSTORE DUP1 PUSH2 0x1FC1 DUP2 PUSH2 0x527B JUMP JUMPDEST SWAP2 POP POP PUSH2 0x1E75 JUMP JUMPDEST POP PUSH2 0x1E4A DUP2 PUSH1 0x40 MLOAD PUSH1 0x20 ADD PUSH2 0x1B58 SWAP2 SWAP1 PUSH2 0x5359 JUMP JUMPDEST PUSH1 0x0 DUP1 PUSH2 0x1FE9 PUSH2 0x5021 JUMP JUMPDEST DUP4 DUP2 MSTORE PUSH1 0x0 JUMPDEST PUSH1 0x1C DUP2 LT ISZERO PUSH2 0x2047 JUMPI DUP6 PUSH2 0x160 ADD MLOAD DUP2 PUSH1 0x1C DUP2 LT PUSH2 0x200F JUMPI PUSH2 0x200F PUSH2 0x5265 JUMP JUMPDEST PUSH1 0x20 MUL ADD MLOAD DUP3 PUSH2 0x2020 DUP4 PUSH1 0x1 PUSH2 0x5252 JUMP JUMPDEST PUSH1 0x1D DUP2 LT PUSH2 0x2030 JUMPI PUSH2 0x2030 PUSH2 0x5265 JUMP JUMPDEST PUSH1 0x20 MUL ADD MSTORE DUP1 PUSH2 0x203F DUP2 PUSH2 0x527B JUMP JUMPDEST SWAP2 POP POP PUSH2 0x1FEF JUMP JUMPDEST POP PUSH2 0x1E4A DUP2 PUSH1 0x40 MLOAD PUSH1 0x20 ADD PUSH2 0x1B58 SWAP2 SWAP1 PUSH2 0x538E JUMP JUMPDEST PUSH1 0x0 DUP1 PUSH2 0x2067 PUSH2 0x5040 JUMP JUMPDEST DUP4 DUP2 MSTORE PUSH2 0x180 DUP6 ADD DUP1 MLOAD MLOAD PUSH1 0x20 DUP1 DUP5 ADD SWAP2 SWAP1 SWAP2 MSTORE DUP2 MLOAD DUP2 ADD MLOAD PUSH1 0x40 DUP1 DUP6 ADD SWAP2 SWAP1 SWAP2 MSTORE DUP3 MLOAD DUP2 ADD MLOAD PUSH1 0x60 DUP1 DUP7 ADD SWAP2 SWAP1 SWAP2 MSTORE SWAP3 MLOAD SWAP1 SWAP3 ADD MLOAD PUSH1 0x80 DUP5 ADD MSTORE SWAP1 MLOAD PUSH2 0x1E4A SWAP2 PUSH2 0x1B58 SWAP2 DUP5 SWAP2 ADD PUSH2 0x53C3 JUMP JUMPDEST PUSH1 0x0 PUSH2 0x20CE PUSH1 0x0 DUP1 MLOAD PUSH1 0x20 PUSH2 0x550B DUP4 CODECOPY DUP2 MLOAD SWAP2 MSTORE DUP4 PUSH2 0x53F7 JUMP JUMPDEST SWAP3 SWAP2 POP POP JUMP JUMPDEST PUSH1 0x0 PUSH1 0x0 DUP1 MLOAD PUSH1 0x20 PUSH2 0x550B DUP4 CODECOPY DUP2 MLOAD SWAP2 MSTORE DUP3 DUP5 MULMOD SWAP4 SWAP3 POP POP POP JUMP JUMPDEST PUSH1 0x0 PUSH1 0x0 DUP1 MLOAD PUSH1 0x20 PUSH2 0x550B DUP4 CODECOPY DUP2 MLOAD SWAP2 MSTORE DUP3 DUP5 ADDMOD SWAP4 SWAP3 POP POP POP JUMP JUMPDEST PUSH1 0x0 PUSH1 0x0 DUP1 MLOAD PUSH1 0x20 PUSH2 0x550B DUP4 CODECOPY DUP2 MLOAD SWAP2 MSTORE PUSH2 0x2133 DUP4 PUSH1 0x0 DUP1 MLOAD PUSH1 0x20 PUSH2 0x550B DUP4 CODECOPY DUP2 MLOAD SWAP2 MSTORE PUSH2 0x5294 JUMP JUMPDEST DUP5 ADDMOD SWAP4 SWAP3 POP POP POP JUMP JUMPDEST PUSH1 0x0 PUSH2 0x1A3B DUP4 PUSH2 0x588 DUP5 PUSH2 0x243E JUMP JUMPDEST DUP2 MLOAD PUSH1 0x0 SWAP1 DUP2 SWAP1 PUSH2 0x215E SWAP1 DUP6 PUSH1 0x1 PUSH2 0x81D JUMP JUMPDEST SWAP3 SWAP1 SWAP3 EQ SWAP4 SWAP3 POP POP POP JUMP JUMPDEST PUSH1 0x40 DUP1 MLOAD PUSH2 0x100 DUP2 ADD DUP3 MSTORE PUSH32 0x30644E72E131A029B85045B68181585D2833E84879B9709143E1F593EFFFEC51 DUP2 MSTORE PUSH2 0x2D0 PUSH1 0x20 DUP3 ADD MSTORE PUSH32 0x30644E72E131A029B85045B68181585D2833E84879B9709143E1F593EFFFFF11 SWAP2 DUP2 ADD SWAP2 SWAP1 SWAP2 MSTORE PUSH1 0x90 PUSH1 0x60 DUP3 ADD MSTORE PUSH32 0x30644E72E131A029B85045B68181585D2833E84879B9709143E1F593EFFFFF71 PUSH1 0x80 DUP3 ADD MSTORE PUSH1 0xF0 PUSH1 0xA0 DUP3 ADD MSTORE PUSH32 0x30644E72E131A029B85045B68181585D2833E84879B9709143E1F593EFFFFD31 PUSH1 0xC0 DUP3 ADD MSTORE PUSH2 0x13B0 PUSH1 0xE0 DUP3 ADD MSTORE PUSH1 0x0 SWAP1 PUSH1 0x1 DUP3 JUMPDEST PUSH1 0x8 DUP2 LT ISZERO PUSH2 0x2259 JUMPI PUSH2 0x2247 DUP3 PUSH2 0x588 DUP8 DUP5 PUSH2 0x210A JUMP JUMPDEST SWAP2 POP PUSH2 0x2252 DUP2 PUSH2 0x527B JUMP JUMPDEST SWAP1 POP PUSH2 0x2230 JUMP JUMPDEST POP PUSH2 0x2262 PUSH2 0x505E JUMP JUMPDEST PUSH1 0x0 JUMPDEST PUSH1 0x8 DUP2 LT ISZERO PUSH2 0x22CD JUMPI PUSH1 0x0 DUP5 DUP3 PUSH1 0x8 DUP2 LT PUSH2 0x2282 JUMPI PUSH2 0x2282 PUSH2 0x5265 JUMP JUMPDEST PUSH1 0x20 MUL ADD MLOAD SWAP1 POP PUSH2 0x2297 DUP2 PUSH2 0x588 DUP10 DUP6 PUSH2 0x210A JUMP JUMPDEST SWAP1 POP PUSH2 0x22A2 DUP2 PUSH2 0x243E JUMP JUMPDEST SWAP1 POP DUP1 DUP4 DUP4 PUSH1 0x8 DUP2 LT PUSH2 0x22B7 JUMPI PUSH2 0x22B7 PUSH2 0x5265 JUMP JUMPDEST PUSH1 0x20 MUL ADD MSTORE POP PUSH2 0x22C6 DUP2 PUSH2 0x527B JUMP JUMPDEST SWAP1 POP PUSH2 0x2265 JUMP JUMPDEST POP PUSH1 0x0 JUMPDEST PUSH1 0x8 DUP2 LT ISZERO PUSH2 0x232B JUMPI PUSH1 0x0 DUP8 DUP3 PUSH1 0x8 DUP2 LT PUSH2 0x22EE JUMPI PUSH2 0x22EE PUSH2 0x5265 JUMP JUMPDEST PUSH1 0x20 MUL ADD MLOAD SWAP1 POP PUSH2 0x230B DUP2 DUP5 DUP5 PUSH1 0x8 DUP2 LT PUSH2 0xE3B JUMPI PUSH2 0xE3B PUSH2 0x5265 JUMP JUMPDEST SWAP1 POP PUSH2 0x2317 DUP7 DUP3 PUSH2 0x20EF JUMP JUMPDEST SWAP6 POP POP DUP1 PUSH2 0x2324 SWAP1 PUSH2 0x527B JUMP JUMPDEST SWAP1 POP PUSH2 0x22D1 JUMP JUMPDEST POP PUSH2 0x76B DUP5 DUP4 PUSH2 0x20D4 JUMP JUMPDEST PUSH1 0x0 DUP1 PUSH2 0x234D PUSH1 0x1 PUSH2 0x58D DUP6 PUSH2 0x588 DUP10 PUSH1 0x1 PUSH2 0x210A JUMP JUMPDEST SWAP1 POP PUSH2 0x2359 DUP5 DUP3 PUSH2 0x20D4 JUMP JUMPDEST SWAP6 SWAP5 POP POP POP POP POP JUMP JUMPDEST PUSH1 0x0 PUSH2 0x236C PUSH2 0x507D JUMP JUMPDEST PUSH2 0x2377 DUP7 DUP3 DUP6 PUSH2 0x2ECF JUMP JUMPDEST PUSH2 0x2383 DUP7 DUP7 DUP4 DUP7 PUSH2 0x3080 JUMP JUMPDEST PUSH2 0x238F DUP7 DUP7 DUP4 DUP7 PUSH2 0x326D JUMP JUMPDEST PUSH2 0x239A DUP7 DUP3 DUP6 PUSH2 0x3474 JUMP JUMPDEST PUSH2 0x23A5 DUP7 DUP3 DUP6 PUSH2 0x3666 JUMP JUMPDEST PUSH2 0x23B1 DUP7 DUP7 DUP4 DUP7 PUSH2 0x39CB JUMP JUMPDEST PUSH2 0x23BC DUP7 DUP3 DUP6 PUSH2 0x4286 JUMP JUMPDEST PUSH2 0x23C7 DUP7 DUP3 DUP6 PUSH2 0x4662 JUMP JUMPDEST PUSH2 0x76B DUP2 DUP6 PUSH2 0x4964 JUMP JUMPDEST PUSH2 0x23D9 PUSH2 0x4FC4 JUMP JUMPDEST DUP2 DUP2 MSTORE PUSH1 0x1 JUMPDEST PUSH1 0x1C DUP2 LT ISZERO PUSH2 0x2438 JUMPI PUSH2 0x2411 DUP3 PUSH2 0x23F7 PUSH1 0x1 DUP5 PUSH2 0x5294 JUMP JUMPDEST PUSH1 0x1C DUP2 LT PUSH2 0x2407 JUMPI PUSH2 0x2407 PUSH2 0x5265 JUMP JUMPDEST PUSH1 0x20 MUL ADD MLOAD PUSH2 0x2632 JUMP JUMPDEST DUP3 DUP3 PUSH1 0x1C DUP2 LT PUSH2 0x2423 JUMPI PUSH2 0x2423 PUSH2 0x5265 JUMP JUMPDEST PUSH1 0x20 MUL ADD MSTORE PUSH2 0x2431 DUP2 PUSH2 0x527B JUMP JUMPDEST SWAP1 POP PUSH2 0x23DF JUMP JUMPDEST POP SWAP2 SWAP1 POP JUMP JUMPDEST PUSH1 0x0 DUP1 DUP3 SWAP1 POP PUSH1 0x0 PUSH1 0x40 MLOAD PUSH1 0x20 DUP2 MSTORE PUSH1 0x20 DUP1 DUP3 ADD MSTORE PUSH1 0x20 PUSH1 0x40 DUP3 ADD MSTORE DUP3 PUSH1 0x60 DUP3 ADD MSTORE PUSH1 0x2 PUSH1 0x0 DUP1 MLOAD PUSH1 0x20 PUSH2 0x550B DUP4 CODECOPY DUP2 MLOAD SWAP2 MSTORE SUB PUSH1 0x80 DUP3 ADD MSTORE PUSH1 0x0 DUP1 MLOAD PUSH1 0x20 PUSH2 0x550B DUP4 CODECOPY DUP2 MLOAD SWAP2 MSTORE PUSH1 0xA0 DUP3 ADD MSTORE PUSH1 0x20 PUSH1 0x0 PUSH1 0xC0 DUP4 PUSH1 0x5 GAS STATICCALL SWAP1 POP DUP1 PUSH2 0x24A2 JUMPI PUSH1 0x0 DUP1 REVERT JUMPDEST POP POP PUSH1 0x0 MLOAD SWAP4 SWAP3 POP POP POP JUMP JUMPDEST PUSH1 0x40 DUP1 MLOAD DUP1 DUP3 ADD SWAP1 SWAP2 MSTORE PUSH1 0x0 DUP1 DUP3 MSTORE PUSH1 0x20 DUP3 ADD MSTORE PUSH1 0x40 MLOAD DUP1 PUSH1 0x40 ADD PUSH1 0x40 MSTORE DUP1 PUSH1 0x88 DUP5 PUSH1 0x20 ADD MLOAD SWAP1 SHL DUP5 PUSH1 0x0 ADD MLOAD OR DUP2 MSTORE PUSH1 0x20 ADD PUSH1 0x88 DUP5 PUSH1 0x60 ADD MLOAD SWAP1 SHL DUP5 PUSH1 0x40 ADD MLOAD OR DUP2 MSTORE POP SWAP1 POP SWAP2 SWAP1 POP JUMP JUMPDEST PUSH1 0x0 PUSH2 0x20CE DUP3 PUSH1 0x0 DUP1 MLOAD PUSH1 0x20 PUSH2 0x550B DUP4 CODECOPY DUP2 MLOAD SWAP2 MSTORE PUSH2 0x5294 JUMP JUMPDEST PUSH2 0x251C PUSH2 0x4FC4 JUMP JUMPDEST PUSH1 0x1C JUMPDEST DUP1 ISZERO PUSH2 0x2628 JUMPI PUSH1 0x0 DUP5 PUSH2 0x2533 PUSH1 0x1 DUP5 PUSH2 0x5294 JUMP JUMPDEST PUSH1 0x1C DUP2 LT PUSH2 0x2543 JUMPI PUSH2 0x2543 PUSH2 0x5265 JUMP JUMPDEST PUSH1 0x20 MUL ADD MLOAD SWAP1 POP PUSH1 0x0 DUP9 PUSH2 0x2558 PUSH1 0x1 DUP6 PUSH2 0x5294 JUMP JUMPDEST PUSH1 0x1C DUP2 LT PUSH2 0x2568 JUMPI PUSH2 0x2568 PUSH2 0x5265 JUMP JUMPDEST PUSH1 0x20 MUL ADD MLOAD SWAP1 POP PUSH1 0x0 PUSH2 0x25C4 PUSH2 0x2588 PUSH2 0x2581 DUP6 DUP13 PUSH2 0x20D4 JUMP JUMPDEST PUSH1 0x2 PUSH2 0x20D4 JUMP JUMPDEST PUSH2 0x5AC DUP11 PUSH2 0x2597 PUSH1 0x1 DUP10 PUSH2 0x5294 JUMP JUMPDEST PUSH1 0x1C DUP2 LT PUSH2 0x25A7 JUMPI PUSH2 0x25A7 PUSH2 0x5265 JUMP JUMPDEST PUSH1 0x20 MUL ADD MLOAD PUSH2 0x588 PUSH2 0x25BE DUP9 PUSH2 0x588 PUSH1 0x1 DUP11 PUSH2 0x210A JUMP JUMPDEST DUP8 PUSH2 0x210A JUMP JUMPDEST SWAP1 POP PUSH2 0x25E5 DUP2 PUSH2 0x588 PUSH2 0x802 PUSH2 0x25DF DUP8 PUSH2 0x588 PUSH1 0x1 DUP10 PUSH2 0x210A JUMP JUMPDEST DUP7 PUSH2 0x20EF JUMP JUMPDEST SWAP1 POP DUP6 DUP5 GT PUSH2 0x2614 JUMPI SWAP8 POP DUP8 DUP1 DUP6 PUSH2 0x25FE PUSH1 0x1 DUP8 PUSH2 0x5294 JUMP JUMPDEST PUSH1 0x1C DUP2 LT PUSH2 0x260E JUMPI PUSH2 0x260E PUSH2 0x5265 JUMP JUMPDEST PUSH1 0x20 MUL ADD MSTORE JUMPDEST POP POP POP DUP1 PUSH2 0x2621 SWAP1 PUSH2 0x540B JUMP JUMPDEST SWAP1 POP PUSH2 0x251F JUMP JUMPDEST POP SWAP6 SWAP5 POP POP POP POP POP JUMP JUMPDEST PUSH1 0x0 PUSH2 0x20CE DUP3 DUP4 PUSH2 0x20D4 JUMP JUMPDEST PUSH1 0x40 DUP1 MLOAD DUP1 DUP3 ADD SWAP1 SWAP2 MSTORE PUSH1 0x0 DUP1 DUP3 MSTORE PUSH1 0x20 DUP3 ADD MSTORE PUSH1 0x0 PUSH2 0x2660 PUSH1 0x1C PUSH1 0x28 PUSH2 0x5252 JUMP JUMPDEST PUSH2 0x266B SWAP1 PUSH1 0x2 PUSH2 0x5252 JUMP JUMPDEST SWAP1 POP PUSH1 0x1 PUSH1 0x40 MLOAD DUP6 MLOAD MLOAD PUSH1 0x40 DUP3 ADD MSTORE DUP6 MLOAD PUSH1 0x20 ADD MLOAD PUSH1 0x60 DUP3 ADD MSTORE DUP5 MLOAD PUSH1 0x80 DUP3 ADD MSTORE PUSH1 0x40 DUP2 PUSH1 0x60 PUSH1 0x40 DUP5 ADD PUSH1 0x7 GAS STATICCALL DUP3 AND SWAP2 POP PUSH1 0x1 JUMPDEST DUP4 DUP2 LT ISZERO PUSH2 0x26F9 JUMPI PUSH1 0x20 DUP2 MUL DUP8 ADD PUSH1 0x20 DUP3 MUL DUP8 ADD DUP2 MLOAD MLOAD PUSH1 0x40 DUP6 ADD MSTORE DUP2 MLOAD PUSH1 0x20 ADD MLOAD PUSH1 0x60 DUP6 ADD MSTORE DUP1 MLOAD PUSH1 0x80 DUP6 ADD MSTORE POP POP PUSH1 0x40 DUP1 DUP4 ADD PUSH1 0x60 PUSH1 0x40 DUP6 ADD PUSH1 0x7 GAS STATICCALL DUP4 AND SWAP3 POP PUSH1 0x40 DUP3 PUSH1 0x80 DUP5 PUSH1 0x6 GAS STATICCALL SWAP1 SWAP3 AND SWAP2 PUSH1 0x1 ADD PUSH2 0x26A0 JUMP JUMPDEST POP DUP1 MLOAD DUP5 MSTORE PUSH1 0x20 DUP2 ADD MLOAD PUSH1 0x20 DUP6 ADD MSTORE POP POP POP SWAP3 SWAP2 POP POP JUMP JUMPDEST PUSH1 0x40 DUP1 MLOAD DUP1 DUP3 ADD SWAP1 SWAP2 MSTORE PUSH1 0x0 DUP1 DUP3 MSTORE PUSH1 0x20 DUP3 ADD MSTORE PUSH32 0x30644E72E131A029B85045B68181585D97816A916871CA8D3C208C16D87CFD47 DUP3 PUSH1 0x20 ADD MLOAD PUSH32 0x30644E72E131A029B85045B68181585D97816A916871CA8D3C208C16D87CFD47 PUSH2 0x2776 SWAP2 SWAP1 PUSH2 0x5294 JUMP JUMPDEST PUSH2 0x2780 SWAP2 SWAP1 PUSH2 0x53F7 JUMP JUMPDEST PUSH1 0x20 DUP4 ADD MSTORE POP SWAP1 JUMP JUMPDEST DUP2 MLOAD PUSH1 0x20 DUP1 DUP5 ADD MLOAD DUP4 MLOAD DUP5 DUP4 ADD MLOAD PUSH1 0x40 DUP1 MLOAD SWAP5 DUP6 ADD SWAP6 SWAP1 SWAP6 MSTORE SWAP4 DUP4 ADD SWAP2 SWAP1 SWAP2 MSTORE PUSH32 0x198E9393920D483A7260BFB731FB5D25F1AA493335A9E71297E485B7AEF312C2 PUSH1 0x60 DUP4 ADD MSTORE PUSH32 0x1800DEEF121F1E76426A00665E5C4479674322D4F75EDADD46DEBD5CD992F6ED PUSH1 0x80 DUP4 ADD MSTORE PUSH32 0x90689D0585FF075EC9E99AD690C3395BC4B313370B38EF355ACDADCD122975B PUSH1 0xA0 DUP4 ADD MSTORE PUSH32 0x12C85EA5DB8C6DEB4AAB71808DCB408FE3D1E7690C43D37B4CE6CC0166FA7DAA PUSH1 0xC0 DUP4 ADD MSTORE PUSH1 0xE0 DUP3 ADD MSTORE PUSH2 0x100 DUP2 ADD SWAP2 SWAP1 SWAP2 MSTORE PUSH32 0x260E01B251F6F1C7E7FF4E580791DEE8EA51D87A358E038B4EFE30FAC09383C1 PUSH2 0x120 DUP3 ADD MSTORE PUSH32 0x118C4D5B837BCC2BC89B5B398B5974E9F5944073B32078B7E231FEC938883B0 PUSH2 0x140 DUP3 ADD MSTORE PUSH32 0x4FC6369F7110FE3D25156C1BB9A72859CF2A04641F99BA4EE413C80DA6A5FE4 PUSH2 0x160 DUP3 ADD MSTORE PUSH32 0x22FEBDA3C0C0632A56475B4214E5615E11E6DD3F96E6CEA2854A87D4DACC5E55 PUSH2 0x180 DUP3 ADD MSTORE PUSH1 0x0 SWAP1 DUP2 SWAP1 PUSH2 0x1A0 ADD PUSH1 0x40 MLOAD PUSH1 0x20 DUP2 DUP4 SUB SUB DUP2 MSTORE SWAP1 PUSH1 0x40 MSTORE SWAP1 POP PUSH1 0x0 DUP1 PUSH1 0x8 PUSH1 0x1 PUSH1 0x1 PUSH1 0xA0 SHL SUB AND DUP4 PUSH1 0x40 MLOAD PUSH2 0x2921 SWAP2 SWAP1 PUSH2 0x5422 JUMP JUMPDEST PUSH1 0x0 PUSH1 0x40 MLOAD DUP1 DUP4 SUB DUP2 DUP6 GAS STATICCALL SWAP2 POP POP RETURNDATASIZE DUP1 PUSH1 0x0 DUP2 EQ PUSH2 0x295C JUMPI PUSH1 0x40 MLOAD SWAP2 POP PUSH1 0x1F NOT PUSH1 0x3F RETURNDATASIZE ADD AND DUP3 ADD PUSH1 0x40 MSTORE RETURNDATASIZE DUP3 MSTORE RETURNDATASIZE PUSH1 0x0 PUSH1 0x20 DUP5 ADD RETURNDATACOPY PUSH2 0x2961 JUMP JUMPDEST PUSH1 0x60 SWAP2 POP JUMPDEST POP SWAP2 POP SWAP2 POP PUSH1 0x0 DUP2 DUP1 PUSH1 0x20 ADD SWAP1 MLOAD DUP2 ADD SWAP1 PUSH2 0x297C SWAP2 SWAP1 PUSH2 0x5451 JUMP JUMPDEST SWAP1 POP DUP3 DUP1 ISZERO PUSH2 0x2988 JUMPI POP DUP1 JUMPDEST SWAP8 SWAP7 POP POP POP POP POP POP POP JUMP JUMPDEST PUSH1 0x0 DUP1 DUP1 DUP1 DUP1 PUSH2 0x29A4 DUP8 PUSH1 0x3 PUSH2 0x5252 JUMP JUMPDEST PUSH2 0x29AF SWAP1 PUSH1 0xC PUSH2 0x5252 JUMP JUMPDEST PUSH8 0xFFFFFFFFFFFFFFFF DUP2 GT ISZERO PUSH2 0x29C7 JUMPI PUSH2 0x29C7 PUSH2 0x5473 JUMP JUMPDEST PUSH1 0x40 MLOAD SWAP1 DUP1 DUP3 MSTORE DUP1 PUSH1 0x20 MUL PUSH1 0x20 ADD DUP3 ADD PUSH1 0x40 MSTORE DUP1 ISZERO PUSH2 0x29F0 JUMPI DUP2 PUSH1 0x20 ADD PUSH1 0x20 DUP3 MUL DUP1 CALLDATASIZE DUP4 CALLDATACOPY ADD SWAP1 POP JUMPDEST POP SWAP1 POP DUP8 PUSH1 0x0 SHL DUP2 PUSH1 0x0 DUP2 MLOAD DUP2 LT PUSH2 0x2A0A JUMPI PUSH2 0x2A0A PUSH2 0x5265 JUMP JUMPDEST PUSH1 0x20 MUL PUSH1 0x20 ADD ADD DUP2 DUP2 MSTORE POP POP DUP7 PUSH1 0x0 SHL DUP2 PUSH1 0x1 DUP2 MLOAD DUP2 LT PUSH2 0x2A2D JUMPI PUSH2 0x2A2D PUSH2 0x5265 JUMP JUMPDEST PUSH1 0x20 MUL PUSH1 0x20 ADD ADD DUP2 DUP2 MSTORE POP POP DUP6 PUSH1 0x0 SHL DUP2 PUSH1 0x2 DUP2 MLOAD DUP2 LT PUSH2 0x2A50 JUMPI PUSH2 0x2A50 PUSH2 0x5265 JUMP JUMPDEST PUSH1 0x20 MUL PUSH1 0x20 ADD ADD DUP2 DUP2 MSTORE POP POP PUSH1 0x0 JUMPDEST DUP8 DUP2 LT ISZERO PUSH2 0x2ABB JUMPI DUP11 DUP11 DUP3 DUP2 DUP2 LT PUSH2 0x2A79 JUMPI PUSH2 0x2A79 PUSH2 0x5265 JUMP JUMPDEST SWAP1 POP PUSH1 0x20 MUL ADD CALLDATALOAD DUP3 DUP3 PUSH1 0x3 PUSH2 0x2A8E SWAP2 SWAP1 PUSH2 0x5252 JUMP JUMPDEST DUP2 MLOAD DUP2 LT PUSH2 0x2A9E JUMPI PUSH2 0x2A9E PUSH2 0x5265 JUMP JUMPDEST PUSH1 0x20 SWAP1 DUP2 MUL SWAP2 SWAP1 SWAP2 ADD ADD MSTORE DUP1 PUSH2 0x2AB3 DUP2 PUSH2 0x527B JUMP JUMPDEST SWAP2 POP POP PUSH2 0x2A5F JUMP JUMPDEST POP DUP11 MLOAD MLOAD DUP2 PUSH2 0x2ACB DUP10 PUSH1 0x3 PUSH2 0x5252 JUMP JUMPDEST DUP2 MLOAD DUP2 LT PUSH2 0x2ADB JUMPI PUSH2 0x2ADB PUSH2 0x5265 JUMP JUMPDEST PUSH1 0x20 SWAP1 DUP2 MUL SWAP2 SWAP1 SWAP2 ADD DUP2 ADD SWAP2 SWAP1 SWAP2 MSTORE DUP12 MLOAD ADD MLOAD DUP2 PUSH2 0x2AFA DUP10 PUSH1 0x3 PUSH2 0x5252 JUMP JUMPDEST PUSH2 0x2B05 SWAP1 PUSH1 0x1 PUSH2 0x5252 JUMP JUMPDEST DUP2 MLOAD DUP2 LT PUSH2 0x2B15 JUMPI PUSH2 0x2B15 PUSH2 0x5265 JUMP JUMPDEST PUSH1 0x20 SWAP1 DUP2 MUL SWAP2 SWAP1 SWAP2 ADD ADD MSTORE DUP11 MLOAD PUSH1 0x40 ADD MLOAD DUP2 PUSH2 0x2B32 DUP10 PUSH1 0x3 PUSH2 0x5252 JUMP JUMPDEST PUSH2 0x2B3D SWAP1 PUSH1 0x2 PUSH2 0x5252 JUMP JUMPDEST DUP2 MLOAD DUP2 LT PUSH2 0x2B4D JUMPI PUSH2 0x2B4D PUSH2 0x5265 JUMP JUMPDEST PUSH1 0x20 SWAP1 DUP2 MUL SWAP2 SWAP1 SWAP2 ADD ADD MSTORE DUP11 MLOAD PUSH1 0x60 ADD MLOAD DUP2 PUSH2 0x2B6A DUP10 PUSH1 0x3 PUSH2 0x5252 JUMP JUMPDEST PUSH2 0x2B75 SWAP1 PUSH1 0x3 PUSH2 0x5252 JUMP JUMPDEST DUP2 MLOAD DUP2 LT PUSH2 0x2B85 JUMPI PUSH2 0x2B85 PUSH2 0x5265 JUMP JUMPDEST PUSH1 0x20 SWAP1 DUP2 MUL SWAP2 SWAP1 SWAP2 ADD DUP2 ADD SWAP2 SWAP1 SWAP2 MSTORE DUP12 ADD MLOAD MLOAD DUP2 PUSH2 0x2BA4 DUP10 PUSH1 0x3 PUSH2 0x5252 JUMP JUMPDEST PUSH2 0x2BAF SWAP1 PUSH1 0x4 PUSH2 0x5252 JUMP JUMPDEST DUP2 MLOAD DUP2 LT PUSH2 0x2BBF JUMPI PUSH2 0x2BBF PUSH2 0x5265 JUMP JUMPDEST PUSH1 0x20 SWAP1 DUP2 MUL SWAP2 SWAP1 SWAP2 ADD DUP2 ADD SWAP2 SWAP1 SWAP2 MSTORE DUP12 DUP2 ADD MLOAD ADD MLOAD DUP2 PUSH2 0x2BE0 DUP10 PUSH1 0x3 PUSH2 0x5252 JUMP JUMPDEST PUSH2 0x2BEB SWAP1 PUSH1 0x5 PUSH2 0x5252 JUMP JUMPDEST DUP2 MLOAD DUP2 LT PUSH2 0x2BFB JUMPI PUSH2 0x2BFB PUSH2 0x5265 JUMP JUMPDEST PUSH1 0x20 SWAP1 DUP2 MUL SWAP2 SWAP1 SWAP2 ADD DUP2 ADD SWAP2 SWAP1 SWAP2 MSTORE DUP12 ADD MLOAD PUSH1 0x40 ADD MLOAD DUP2 PUSH2 0x2C1D DUP10 PUSH1 0x3 PUSH2 0x5252 JUMP JUMPDEST PUSH2 0x2C28 SWAP1 PUSH1 0x6 PUSH2 0x5252 JUMP JUMPDEST DUP2 MLOAD DUP2 LT PUSH2 0x2C38 JUMPI PUSH2 0x2C38 PUSH2 0x5265 JUMP JUMPDEST PUSH1 0x20 SWAP1 DUP2 MUL SWAP2 SWAP1 SWAP2 ADD DUP2 ADD SWAP2 SWAP1 SWAP2 MSTORE DUP12 ADD MLOAD PUSH1 0x60 ADD MLOAD DUP2 PUSH2 0x2C5A DUP10 PUSH1 0x3 PUSH2 0x5252 JUMP JUMPDEST PUSH2 0x2C65 SWAP1 PUSH1 0x7 PUSH2 0x5252 JUMP JUMPDEST DUP2 MLOAD DUP2 LT PUSH2 0x2C75 JUMPI PUSH2 0x2C75 PUSH2 0x5265 JUMP JUMPDEST PUSH1 0x20 SWAP1 DUP2 MUL SWAP2 SWAP1 SWAP2 ADD ADD MSTORE PUSH1 0x40 DUP12 ADD MLOAD MLOAD DUP2 PUSH2 0x2C92 DUP10 PUSH1 0x3 PUSH2 0x5252 JUMP JUMPDEST PUSH2 0x2C9D SWAP1 PUSH1 0x8 PUSH2 0x5252 JUMP JUMPDEST DUP2 MLOAD DUP2 LT PUSH2 0x2CAD JUMPI PUSH2 0x2CAD PUSH2 0x5265 JUMP JUMPDEST PUSH1 0x20 SWAP1 DUP2 MUL SWAP2 SWAP1 SWAP2 ADD DUP2 ADD SWAP2 SWAP1 SWAP2 MSTORE PUSH1 0x40 DUP13 ADD MLOAD ADD MLOAD DUP2 PUSH2 0x2CCF DUP10 PUSH1 0x3 PUSH2 0x5252 JUMP JUMPDEST PUSH2 0x2CDA SWAP1 PUSH1 0x9 PUSH2 0x5252 JUMP JUMPDEST DUP2 MLOAD DUP2 LT PUSH2 0x2CEA JUMPI PUSH2 0x2CEA PUSH2 0x5265 JUMP JUMPDEST PUSH1 0x20 SWAP1 DUP2 MUL SWAP2 SWAP1 SWAP2 ADD ADD MSTORE PUSH1 0x40 DUP1 DUP13 ADD MLOAD ADD MLOAD DUP2 PUSH2 0x2D09 DUP10 PUSH1 0x3 PUSH2 0x5252 JUMP JUMPDEST PUSH2 0x2D14 SWAP1 PUSH1 0xA PUSH2 0x5252 JUMP JUMPDEST DUP2 MLOAD DUP2 LT PUSH2 0x2D24 JUMPI PUSH2 0x2D24 PUSH2 0x5265 JUMP JUMPDEST PUSH1 0x20 SWAP1 DUP2 MUL SWAP2 SWAP1 SWAP2 ADD ADD MSTORE PUSH1 0x40 DUP12 ADD MLOAD PUSH1 0x60 ADD MLOAD DUP2 PUSH2 0x2D44 DUP10 PUSH1 0x3 PUSH2 0x5252 JUMP JUMPDEST PUSH2 0x2D4F SWAP1 PUSH1 0xB PUSH2 0x5252 JUMP JUMPDEST DUP2 MLOAD DUP2 LT PUSH2 0x2D5F JUMPI PUSH2 0x2D5F PUSH2 0x5265 JUMP JUMPDEST PUSH1 0x20 MUL PUSH1 0x20 ADD ADD DUP2 DUP2 MSTORE POP POP PUSH2 0x2D7F DUP2 PUSH1 0x40 MLOAD PUSH1 0x20 ADD PUSH2 0x1B58 SWAP2 SWAP1 PUSH2 0x5489 JUMP JUMPDEST SWAP2 POP PUSH2 0x2D8A DUP3 PUSH2 0x2E95 JUMP JUMPDEST PUSH1 0x40 DUP1 MLOAD PUSH1 0x20 DUP2 ADD DUP7 SWAP1 MSTORE SWAP3 SWAP8 POP SWAP1 SWAP6 POP PUSH2 0x2DA5 SWAP2 ADD PUSH2 0x1B58 JUMP JUMPDEST SWAP2 POP PUSH1 0x0 PUSH2 0x2DB2 DUP4 PUSH2 0x2E95 JUMP JUMPDEST POP SWAP6 SWAP13 SWAP5 SWAP12 POP SWAP5 SWAP10 POP SWAP1 SWAP8 POP SWAP2 SWAP6 POP POP POP POP POP POP JUMP JUMPDEST PUSH1 0x0 DUP1 PUSH1 0x0 PUSH2 0x2DD5 PUSH2 0x509C JUMP JUMPDEST DUP6 DUP2 MSTORE PUSH1 0xA0 DUP6 DUP2 ADD DUP1 MLOAD MLOAD PUSH1 0x20 DUP1 DUP6 ADD SWAP2 SWAP1 SWAP2 MSTORE DUP2 MLOAD DUP2 ADD MLOAD PUSH1 0x40 DUP1 DUP7 ADD SWAP2 SWAP1 SWAP2 MSTORE DUP3 MLOAD DUP2 ADD MLOAD PUSH1 0x60 DUP1 DUP8 ADD SWAP2 SWAP1 SWAP2 MSTORE SWAP3 MLOAD DUP4 ADD MLOAD PUSH1 0x80 DUP7 ADD MSTORE PUSH1 0xC0 DUP1 DUP11 ADD DUP1 MLOAD MLOAD SWAP6 DUP8 ADD SWAP6 SWAP1 SWAP6 MSTORE DUP5 MLOAD DUP4 ADD MLOAD SWAP1 DUP7 ADD MSTORE DUP4 MLOAD DUP2 ADD MLOAD PUSH1 0xE0 DUP7 ADD MSTORE SWAP3 MLOAD DUP3 ADD MLOAD PUSH2 0x100 DUP6 ADD MSTORE DUP2 DUP9 ADD DUP1 MLOAD MLOAD PUSH2 0x120 DUP7 ADD MSTORE DUP1 MLOAD DUP3 ADD MLOAD PUSH2 0x140 DUP7 ADD MSTORE DUP1 MLOAD DUP5 ADD MLOAD PUSH2 0x160 DUP7 ADD MSTORE MLOAD SWAP1 SWAP2 ADD MLOAD PUSH2 0x180 DUP5 ADD MSTORE SWAP1 MLOAD PUSH2 0x2E7B SWAP2 PUSH2 0x1B58 SWAP2 DUP5 SWAP2 ADD PUSH2 0x54BF JUMP JUMPDEST SWAP2 POP PUSH2 0x2E86 DUP3 PUSH2 0x2E95 JUMP JUMPDEST SWAP1 SWAP8 SWAP1 SWAP7 POP SWAP2 SWAP5 POP SWAP1 SWAP3 POP POP POP JUMP JUMPDEST PUSH1 0x0 DUP1 DUP3 PUSH16 0xFFFFFFFFFFFFFFFFFFFFFFFFFFFFFFFF DUP2 AND PUSH1 0x80 DUP3 SWAP1 SHR PUSH2 0x2EBA DUP3 PUSH2 0x20B4 JUMP JUMPDEST SWAP5 POP PUSH2 0x2EC5 DUP2 PUSH2 0x20B4 JUMP JUMPDEST SWAP4 POP POP POP POP SWAP2 POP SWAP2 JUMP JUMPDEST PUSH1 0x0 PUSH2 0x2EDC DUP5 PUSH1 0x7 PUSH2 0x49D2 JUMP JUMPDEST SWAP1 POP PUSH32 0x183227397098D014DC2822DB40C0AC2E9419F4243CDCB848A1F0FAC9F8000000 PUSH1 0x0 PUSH2 0x2F3F PUSH2 0x2F39 PUSH2 0x2F12 DUP6 PUSH1 0x3 PUSH2 0x210A JUMP JUMPDEST PUSH2 0x588 PUSH2 0x2F2E PUSH2 0x2F23 DUP12 PUSH1 0x0 PUSH2 0x49D2 JUMP JUMPDEST PUSH2 0x588 DUP13 PUSH1 0x1C PUSH2 0x49D2 JUMP JUMPDEST PUSH2 0x588 DUP12 PUSH1 0x1B PUSH2 0x49D2 JUMP JUMPDEST DUP4 PUSH2 0x20D4 JUMP JUMPDEST SWAP1 POP PUSH2 0x2FC0 PUSH2 0x2FB5 PUSH2 0x2F9C PUSH2 0x2F83 PUSH2 0x2F6A DUP6 PUSH2 0x58D PUSH2 0x2F5F DUP14 PUSH1 0x2 PUSH2 0x49D2 JUMP JUMPDEST PUSH2 0x588 DUP15 PUSH1 0x1B PUSH2 0x49D2 JUMP JUMPDEST PUSH2 0x58D PUSH2 0x2F78 DUP13 PUSH1 0x3 PUSH2 0x49D2 JUMP JUMPDEST PUSH2 0x588 DUP14 PUSH1 0x1C PUSH2 0x49D2 JUMP JUMPDEST PUSH2 0x58D PUSH2 0x2F91 DUP12 PUSH1 0x4 PUSH2 0x49D2 JUMP JUMPDEST PUSH2 0x588 DUP13 PUSH1 0x1D PUSH2 0x49D2 JUMP JUMPDEST PUSH2 0x58D PUSH2 0x2FAA DUP11 PUSH1 0x5 PUSH2 0x49D2 JUMP JUMPDEST PUSH2 0x588 DUP12 PUSH1 0x1E PUSH2 0x49D2 JUMP JUMPDEST PUSH2 0x58D DUP9 PUSH1 0x1 PUSH2 0x49D2 JUMP JUMPDEST SWAP1 POP PUSH2 0x2FDF DUP2 PUSH2 0x58D PUSH2 0x2FD4 DUP7 PUSH1 0x1 PUSH2 0x210A JUMP JUMPDEST PUSH2 0x588 DUP11 PUSH1 0x26 PUSH2 0x49D2 JUMP JUMPDEST SWAP1 POP PUSH2 0x2FEB DUP2 DUP5 PUSH2 0x20D4 JUMP JUMPDEST SWAP1 POP PUSH2 0x2FF7 DUP2 DUP6 PUSH2 0x20D4 JUMP JUMPDEST DUP6 MSTORE POP PUSH1 0x0 SWAP1 POP PUSH2 0x3033 PUSH2 0x3028 PUSH2 0x301D PUSH2 0x3012 DUP9 PUSH1 0x1B PUSH2 0x49D2 JUMP JUMPDEST PUSH2 0x58D DUP10 PUSH1 0x1E PUSH2 0x49D2 JUMP JUMPDEST PUSH2 0x5AC DUP9 PUSH1 0x23 PUSH2 0x49D2 JUMP JUMPDEST PUSH2 0x58D DUP8 PUSH1 0x0 PUSH2 0x49D2 JUMP JUMPDEST SWAP1 POP PUSH2 0x3044 DUP2 PUSH2 0x588 DUP5 PUSH1 0x2 PUSH2 0x210A JUMP JUMPDEST SWAP1 POP PUSH2 0x3055 DUP2 PUSH2 0x588 DUP5 PUSH1 0x1 PUSH2 0x210A JUMP JUMPDEST SWAP1 POP PUSH2 0x3061 DUP2 DUP4 PUSH2 0x20D4 JUMP JUMPDEST SWAP1 POP PUSH2 0x306D DUP2 DUP5 PUSH2 0x20D4 JUMP JUMPDEST SWAP1 POP DUP1 DUP5 PUSH1 0x1 JUMPDEST PUSH1 0x20 MUL ADD MSTORE POP POP POP POP POP JUMP JUMPDEST PUSH1 0x0 DUP1 PUSH1 0x0 PUSH2 0x30B8 PUSH2 0x30AE PUSH2 0x3096 DUP10 PUSH1 0x1B PUSH2 0x49D2 JUMP JUMPDEST PUSH2 0x58D PUSH2 0x30A4 DUP12 PUSH1 0x11 PUSH2 0x49D2 JUMP JUMPDEST DUP11 PUSH1 0x60 ADD MLOAD PUSH2 0x20D4 JUMP JUMPDEST DUP8 PUSH1 0x80 ADD MLOAD PUSH2 0x20EF JUMP JUMPDEST SWAP1 POP PUSH2 0x30F1 DUP2 PUSH2 0x588 PUSH2 0x30E7 PUSH2 0x30CF DUP12 PUSH1 0x1C PUSH2 0x49D2 JUMP JUMPDEST PUSH2 0x58D PUSH2 0x30DD DUP14 PUSH1 0x12 PUSH2 0x49D2 JUMP JUMPDEST DUP13 PUSH1 0x60 ADD MLOAD PUSH2 0x20D4 JUMP JUMPDEST DUP10 PUSH1 0x80 ADD MLOAD PUSH2 0x20EF JUMP JUMPDEST SWAP1 POP PUSH2 0x3116 DUP2 PUSH2 0x588 PUSH2 0x30E7 PUSH2 0x3108 DUP12 PUSH1 0x1D PUSH2 0x49D2 JUMP JUMPDEST PUSH2 0x58D PUSH2 0x30DD DUP14 PUSH1 0x13 PUSH2 0x49D2 JUMP JUMPDEST SWAP1 POP PUSH2 0x313B DUP2 PUSH2 0x588 PUSH2 0x30E7 PUSH2 0x312D DUP12 PUSH1 0x1E PUSH2 0x49D2 JUMP JUMPDEST PUSH2 0x58D PUSH2 0x30DD DUP14 PUSH1 0x14 PUSH2 0x49D2 JUMP JUMPDEST SWAP3 POP PUSH1 0x0 SWAP1 POP PUSH2 0x3160 PUSH2 0x30AE PUSH2 0x3152 DUP10 PUSH1 0x1B PUSH2 0x49D2 JUMP JUMPDEST PUSH2 0x58D PUSH2 0x30A4 DUP12 PUSH1 0xD PUSH2 0x49D2 JUMP JUMPDEST SWAP1 POP PUSH2 0x3185 DUP2 PUSH2 0x588 PUSH2 0x30E7 PUSH2 0x3177 DUP12 PUSH1 0x1C PUSH2 0x49D2 JUMP JUMPDEST PUSH2 0x58D PUSH2 0x30DD DUP14 PUSH1 0xE PUSH2 0x49D2 JUMP JUMPDEST SWAP1 POP PUSH2 0x31AA DUP2 PUSH2 0x588 PUSH2 0x30E7 PUSH2 0x319C DUP12 PUSH1 0x1D PUSH2 0x49D2 JUMP JUMPDEST PUSH2 0x58D PUSH2 0x30DD DUP14 PUSH1 0xF PUSH2 0x49D2 JUMP JUMPDEST SWAP1 POP PUSH2 0x31CF DUP2 PUSH2 0x588 PUSH2 0x30E7 PUSH2 0x31C1 DUP12 PUSH1 0x1E PUSH2 0x49D2 JUMP JUMPDEST PUSH2 0x58D PUSH2 0x30DD DUP14 PUSH1 0x10 PUSH2 0x49D2 JUMP JUMPDEST SWAP2 POP PUSH1 0x0 SWAP1 POP PUSH2 0x31F7 PUSH2 0x31F1 PUSH2 0x31E6 DUP10 PUSH1 0x1F PUSH2 0x49D2 JUMP JUMPDEST PUSH2 0x58D DUP11 PUSH1 0x19 PUSH2 0x49D2 JUMP JUMPDEST DUP5 PUSH2 0x20D4 JUMP JUMPDEST SWAP1 POP PUSH2 0x322C DUP2 PUSH2 0x5AC PUSH2 0x3226 PUSH2 0x320E DUP12 PUSH1 0x27 PUSH2 0x49D2 JUMP JUMPDEST PUSH2 0x58D PUSH2 0x321C DUP14 PUSH1 0x1A PUSH2 0x49D2 JUMP JUMPDEST DUP13 PUSH1 0xA0 ADD MLOAD PUSH2 0x20D4 JUMP JUMPDEST DUP6 PUSH2 0x20D4 JUMP JUMPDEST SWAP1 POP PUSH2 0x3238 DUP2 DUP6 PUSH2 0x20D4 JUMP JUMPDEST PUSH1 0x40 DUP7 ADD MSTORE POP PUSH1 0x0 PUSH2 0x325C PUSH2 0x3226 PUSH2 0x3251 DUP10 PUSH1 0x1A PUSH2 0x49D2 JUMP JUMPDEST PUSH2 0x588 DUP11 PUSH1 0x27 PUSH2 0x49D2 JUMP JUMPDEST PUSH1 0x60 SWAP1 SWAP6 ADD SWAP5 SWAP1 SWAP5 MSTORE POP POP POP POP POP POP JUMP JUMPDEST PUSH1 0x0 DUP1 PUSH2 0x32CC PUSH2 0x32B4 PUSH2 0x329C PUSH2 0x3287 PUSH2 0x30E7 DUP11 PUSH1 0x15 PUSH2 0x49D2 JUMP JUMPDEST PUSH2 0x58D PUSH2 0x3295 DUP12 PUSH1 0x16 PUSH2 0x49D2 JUMP JUMPDEST DUP11 MLOAD PUSH2 0x20D4 JUMP JUMPDEST PUSH2 0x58D PUSH2 0x32AA DUP11 PUSH1 0x17 PUSH2 0x49D2 JUMP JUMPDEST DUP10 PUSH1 0x20 ADD MLOAD PUSH2 0x20D4 JUMP JUMPDEST PUSH2 0x58D PUSH2 0x32C2 DUP10 PUSH1 0x18 PUSH2 0x49D2 JUMP JUMPDEST DUP9 PUSH1 0x40 ADD MLOAD PUSH2 0x20D4 JUMP JUMPDEST SWAP2 POP PUSH1 0x0 PUSH2 0x3304 PUSH2 0x32EB PUSH2 0x32E1 DUP10 PUSH1 0x1B PUSH2 0x49D2 JUMP JUMPDEST DUP9 PUSH1 0x80 ADD MLOAD PUSH2 0x20EF JUMP JUMPDEST PUSH2 0x58D PUSH2 0x32F9 DUP11 PUSH1 0x3 PUSH2 0x49D2 JUMP JUMPDEST PUSH2 0x588 DUP12 PUSH1 0x23 PUSH2 0x49D2 JUMP JUMPDEST SWAP1 POP PUSH1 0x0 PUSH2 0x332F PUSH2 0x3316 DUP10 PUSH1 0x1C PUSH2 0x49D2 JUMP JUMPDEST PUSH2 0x58D PUSH2 0x3324 DUP12 PUSH1 0x0 PUSH2 0x49D2 JUMP JUMPDEST PUSH2 0x588 DUP13 PUSH1 0x24 PUSH2 0x49D2 JUMP JUMPDEST SWAP1 POP PUSH1 0x0 PUSH2 0x335A PUSH2 0x3341 DUP11 PUSH1 0x1D PUSH2 0x49D2 JUMP JUMPDEST PUSH2 0x58D PUSH2 0x334F DUP13 PUSH1 0x1 PUSH2 0x49D2 JUMP JUMPDEST PUSH2 0x588 DUP14 PUSH1 0x25 PUSH2 0x49D2 JUMP JUMPDEST SWAP1 POP PUSH2 0x339A PUSH2 0x3382 PUSH2 0x3374 DUP6 PUSH2 0x58D DUP7 DUP14 PUSH1 0x0 ADD MLOAD PUSH2 0x20D4 JUMP JUMPDEST PUSH2 0x58D DUP5 DUP13 PUSH1 0x20 ADD MLOAD PUSH2 0x20D4 JUMP JUMPDEST PUSH2 0x58D PUSH2 0x3390 DUP13 PUSH1 0x4 PUSH2 0x49D2 JUMP JUMPDEST DUP12 PUSH1 0x40 ADD MLOAD PUSH2 0x20D4 JUMP JUMPDEST SWAP4 POP POP POP POP PUSH1 0x0 PUSH2 0x33AF PUSH2 0x31F1 DUP9 PUSH1 0x20 PUSH2 0x49D2 JUMP JUMPDEST SWAP1 POP PUSH1 0x0 PUSH2 0x33C1 PUSH2 0x31F1 DUP10 PUSH1 0x20 PUSH2 0x49D2 JUMP JUMPDEST SWAP1 POP PUSH1 0x0 PUSH2 0x33FA PUSH2 0x33E1 PUSH2 0x33D6 DUP12 PUSH1 0x22 PUSH2 0x49D2 JUMP JUMPDEST PUSH2 0x58D DUP13 PUSH1 0x6 PUSH2 0x49D2 JUMP JUMPDEST PUSH2 0x5AC PUSH2 0x33EF DUP13 PUSH1 0x22 PUSH2 0x49D2 JUMP JUMPDEST PUSH2 0x588 DUP14 PUSH1 0x6 PUSH2 0x49D2 JUMP JUMPDEST SWAP1 POP PUSH1 0x0 PUSH2 0x341F PUSH2 0x3419 PUSH2 0x340E DUP8 DUP10 PUSH2 0x20D4 JUMP JUMPDEST PUSH2 0x588 DUP14 PUSH1 0x20 PUSH2 0x49D2 JUMP JUMPDEST DUP4 PUSH2 0x210A JUMP JUMPDEST SWAP1 POP PUSH2 0x342B DUP2 DUP9 PUSH2 0x20D4 JUMP JUMPDEST SWAP1 POP PUSH1 0x0 PUSH2 0x3454 PUSH2 0x3446 PUSH2 0x3440 DUP14 PUSH1 0x6 PUSH2 0x49D2 JUMP JUMPDEST DUP8 PUSH2 0x20D4 JUMP JUMPDEST PUSH2 0x5AC PUSH2 0x3440 DUP15 PUSH1 0x21 PUSH2 0x49D2 JUMP JUMPDEST PUSH1 0x80 DUP11 ADD DUP4 SWAP1 MSTORE SWAP1 POP DUP1 DUP10 PUSH1 0x5 JUMPDEST PUSH1 0x20 MUL ADD MSTORE POP POP POP POP POP POP POP POP POP POP POP JUMP JUMPDEST PUSH1 0x0 PUSH2 0x3482 PUSH1 0x0 PUSH1 0x1 PUSH2 0x210A JUMP JUMPDEST SWAP1 POP PUSH1 0x0 PUSH2 0x3492 PUSH1 0x0 PUSH1 0x2 PUSH2 0x210A JUMP JUMPDEST SWAP1 POP PUSH1 0x0 PUSH2 0x34A2 PUSH1 0x0 PUSH1 0x3 PUSH2 0x210A JUMP JUMPDEST SWAP1 POP PUSH1 0x0 PUSH2 0x34BF PUSH2 0x34B4 DUP9 PUSH1 0x1C PUSH2 0x49D2 JUMP JUMPDEST PUSH2 0x5AC DUP10 PUSH1 0x1B PUSH2 0x49D2 JUMP JUMPDEST SWAP1 POP PUSH1 0x0 PUSH2 0x34DC PUSH2 0x34D1 DUP10 PUSH1 0x1D PUSH2 0x49D2 JUMP JUMPDEST PUSH2 0x5AC DUP11 PUSH1 0x1C PUSH2 0x49D2 JUMP JUMPDEST SWAP1 POP PUSH1 0x0 PUSH2 0x34F9 PUSH2 0x34EE DUP11 PUSH1 0x1E PUSH2 0x49D2 JUMP JUMPDEST PUSH2 0x5AC DUP12 PUSH1 0x1D PUSH2 0x49D2 JUMP JUMPDEST SWAP1 POP PUSH1 0x0 PUSH2 0x3516 PUSH2 0x350B DUP12 PUSH1 0x23 PUSH2 0x49D2 JUMP JUMPDEST PUSH2 0x5AC DUP13 PUSH1 0x1E PUSH2 0x49D2 JUMP JUMPDEST SWAP1 POP DUP4 PUSH2 0x3527 DUP2 PUSH2 0x588 DUP2 DUP12 PUSH2 0x20EF JUMP JUMPDEST SWAP1 POP PUSH2 0x3537 DUP2 PUSH2 0x588 DUP8 DUP11 PUSH2 0x20EF JUMP JUMPDEST SWAP1 POP PUSH2 0x3547 DUP2 PUSH2 0x588 DUP8 DUP10 PUSH2 0x20EF JUMP JUMPDEST SWAP1 POP PUSH2 0x3558 DUP2 PUSH2 0x588 DUP14 PUSH1 0x8 PUSH2 0x49D2 JUMP JUMPDEST SWAP1 POP PUSH2 0x3564 DUP2 DUP11 PUSH2 0x20D4 JUMP JUMPDEST PUSH1 0xC0 DUP12 ADD MSTORE POP DUP3 PUSH2 0x3579 DUP2 PUSH2 0x588 DUP2 DUP12 PUSH2 0x20EF JUMP JUMPDEST SWAP1 POP PUSH2 0x3589 DUP2 PUSH2 0x588 DUP7 DUP11 PUSH2 0x20EF JUMP JUMPDEST SWAP1 POP PUSH2 0x3599 DUP2 PUSH2 0x588 DUP7 DUP10 PUSH2 0x20EF JUMP JUMPDEST SWAP1 POP PUSH2 0x35AA DUP2 PUSH2 0x588 DUP14 PUSH1 0x8 PUSH2 0x49D2 JUMP JUMPDEST SWAP1 POP PUSH2 0x35B6 DUP2 DUP11 PUSH2 0x20D4 JUMP JUMPDEST PUSH1 0xE0 DUP12 ADD MSTORE POP DUP2 PUSH2 0x35CB DUP2 PUSH2 0x588 DUP2 DUP12 PUSH2 0x20EF JUMP JUMPDEST SWAP1 POP PUSH2 0x35DB DUP2 PUSH2 0x588 DUP6 DUP11 PUSH2 0x20EF JUMP JUMPDEST SWAP1 POP PUSH2 0x35EB DUP2 PUSH2 0x588 DUP6 DUP10 PUSH2 0x20EF JUMP JUMPDEST SWAP1 POP PUSH2 0x35FC DUP2 PUSH2 0x588 DUP14 PUSH1 0x8 PUSH2 0x49D2 JUMP JUMPDEST SWAP1 POP PUSH2 0x3608 DUP2 DUP11 PUSH2 0x20D4 JUMP JUMPDEST PUSH2 0x100 DUP12 ADD MSTORE POP DUP1 PUSH2 0x361E DUP2 PUSH2 0x588 DUP2 DUP12 PUSH2 0x20EF JUMP JUMPDEST SWAP1 POP PUSH2 0x362E DUP2 PUSH2 0x588 DUP5 DUP11 PUSH2 0x20EF JUMP JUMPDEST SWAP1 POP PUSH2 0x363E DUP2 PUSH2 0x588 DUP5 DUP10 PUSH2 0x20EF JUMP JUMPDEST SWAP1 POP PUSH2 0x364F DUP2 PUSH2 0x588 DUP14 PUSH1 0x8 PUSH2 0x49D2 JUMP JUMPDEST SWAP1 POP PUSH2 0x365B DUP2 DUP11 PUSH2 0x20D4 JUMP JUMPDEST SWAP1 POP DUP1 DUP11 PUSH1 0x9 PUSH2 0x3462 JUMP JUMPDEST PUSH2 0x36A6 PUSH1 0x40 MLOAD DUP1 PUSH1 0xE0 ADD PUSH1 0x40 MSTORE DUP1 PUSH1 0x0 DUP2 MSTORE PUSH1 0x20 ADD PUSH1 0x0 DUP2 MSTORE PUSH1 0x20 ADD PUSH1 0x0 DUP2 MSTORE PUSH1 0x20 ADD PUSH1 0x0 DUP2 MSTORE PUSH1 0x20 ADD PUSH1 0x0 DUP2 MSTORE PUSH1 0x20 ADD PUSH1 0x0 DUP2 MSTORE PUSH1 0x20 ADD PUSH1 0x0 DUP2 MSTORE POP SWAP1 JUMP JUMPDEST PUSH2 0x36B1 DUP5 PUSH1 0x1C PUSH2 0x49D2 JUMP JUMPDEST DUP2 MSTORE PUSH2 0x36BE DUP5 PUSH1 0x1D PUSH2 0x49D2 JUMP JUMPDEST PUSH1 0x20 DUP3 ADD MSTORE PUSH2 0x36CE DUP5 PUSH1 0x23 PUSH2 0x49D2 JUMP JUMPDEST PUSH1 0x40 DUP3 ADD MSTORE PUSH2 0x36DE DUP5 PUSH1 0x26 PUSH2 0x49D2 JUMP JUMPDEST PUSH1 0x60 DUP3 ADD MSTORE PUSH2 0x36EE DUP5 PUSH1 0x25 PUSH2 0x49D2 JUMP JUMPDEST PUSH1 0x80 DUP3 ADD MSTORE PUSH2 0x36FE DUP5 PUSH1 0x24 PUSH2 0x49D2 JUMP JUMPDEST PUSH1 0xA0 DUP3 ADD MSTORE PUSH1 0x0 PUSH2 0x3710 DUP6 PUSH1 0x2 PUSH2 0x49D2 JUMP JUMPDEST SWAP1 POP PUSH1 0x0 PUSH2 0x371F DUP7 PUSH1 0x0 PUSH2 0x49D2 JUMP JUMPDEST SWAP1 POP PUSH1 0x0 PUSH2 0x3735 DUP5 PUSH1 0x40 ADD MLOAD DUP6 PUSH1 0x0 ADD MLOAD PUSH2 0x210A JUMP JUMPDEST SWAP1 POP PUSH1 0x0 PUSH2 0x374B DUP6 PUSH1 0x20 ADD MLOAD DUP7 PUSH1 0x20 ADD MLOAD PUSH2 0x20D4 JUMP JUMPDEST PUSH1 0x60 DUP7 ADD MLOAD SWAP1 SWAP2 POP DUP7 SWAP1 PUSH1 0x0 SWAP1 PUSH2 0x3762 SWAP1 DUP1 PUSH2 0x20D4 JUMP JUMPDEST SWAP1 POP PUSH1 0x0 PUSH2 0x3781 PUSH2 0x377B DUP10 PUSH1 0x20 ADD MLOAD DUP11 PUSH1 0x60 ADD MLOAD PUSH2 0x20D4 JUMP JUMPDEST DUP9 PUSH2 0x20D4 JUMP JUMPDEST SWAP1 POP PUSH1 0x0 PUSH2 0x37A1 PUSH2 0x379A DUP11 PUSH1 0xA0 ADD MLOAD DUP12 PUSH1 0x40 ADD MLOAD PUSH2 0x20EF JUMP JUMPDEST DUP11 MLOAD PUSH2 0x20EF JUMP JUMPDEST SWAP1 POP PUSH2 0x37B0 PUSH2 0x3440 DUP3 DUP9 PUSH2 0x20D4 JUMP JUMPDEST SWAP1 POP PUSH2 0x37D7 PUSH2 0x37D1 PUSH2 0x37CB PUSH2 0x37C5 DUP5 DUP8 PUSH2 0x210A JUMP JUMPDEST DUP9 PUSH2 0x210A JUMP JUMPDEST DUP5 PUSH2 0x20EF JUMP JUMPDEST DUP4 PUSH2 0x20EF JUMP JUMPDEST SWAP1 POP PUSH2 0x37FF PUSH2 0x37F4 PUSH2 0x37E9 DUP4 DUP8 PUSH2 0x20D4 JUMP JUMPDEST PUSH2 0x588 DUP16 PUSH1 0x9 PUSH2 0x49D2 JUMP JUMPDEST PUSH2 0x588 PUSH1 0x1 DUP11 PUSH2 0x210A JUMP JUMPDEST PUSH2 0x140 DUP13 ADD MSTORE POP POP POP POP PUSH1 0x20 DUP6 ADD MLOAD PUSH1 0x80 DUP7 ADD MLOAD PUSH1 0x0 SWAP2 PUSH2 0x381F SWAP2 PUSH2 0x20EF JUMP JUMPDEST SWAP1 POP PUSH1 0x0 PUSH2 0x383E PUSH2 0x3834 DUP9 PUSH1 0x60 ADD MLOAD DUP9 PUSH2 0x20D4 JUMP JUMPDEST DUP9 PUSH1 0x20 ADD MLOAD PUSH2 0x210A JUMP JUMPDEST SWAP1 POP PUSH1 0x0 PUSH2 0x3864 PUSH2 0x384F DUP5 DUP8 PUSH2 0x20D4 JUMP JUMPDEST PUSH2 0x58D PUSH2 0x3226 DUP12 PUSH1 0xA0 ADD MLOAD DUP13 PUSH1 0x0 ADD MLOAD PUSH2 0x210A JUMP JUMPDEST SWAP1 POP PUSH2 0x388C PUSH2 0x3881 PUSH2 0x3876 DUP4 DUP13 PUSH2 0x20D4 JUMP JUMPDEST PUSH2 0x588 DUP15 PUSH1 0x9 PUSH2 0x49D2 JUMP JUMPDEST PUSH2 0x588 PUSH1 0x1 DUP10 PUSH2 0x210A JUMP JUMPDEST PUSH2 0x160 DUP12 ADD MSTORE POP PUSH1 0x0 SWAP2 POP PUSH2 0x38AE SWAP1 POP PUSH2 0x38A7 DUP4 PUSH1 0x11 PUSH2 0x20EF JUMP JUMPDEST DUP8 MLOAD PUSH2 0x20D4 JUMP JUMPDEST SWAP1 POP PUSH1 0x0 PUSH2 0x38BC DUP4 DUP5 PUSH2 0x20EF JUMP JUMPDEST SWAP1 POP PUSH2 0x38C8 DUP2 DUP3 PUSH2 0x20EF JUMP JUMPDEST SWAP1 POP PUSH1 0x0 PUSH2 0x38D7 DUP4 PUSH1 0x9 PUSH2 0x20D4 JUMP JUMPDEST SWAP1 POP PUSH2 0x3901 PUSH2 0x38FB PUSH2 0x31F1 PUSH2 0x38F4 DUP12 PUSH1 0xA0 ADD MLOAD DUP13 PUSH1 0x0 ADD MLOAD PUSH2 0x20EF JUMP JUMPDEST DUP12 MLOAD PUSH2 0x20EF JUMP JUMPDEST DUP3 PUSH2 0x210A JUMP JUMPDEST PUSH1 0xC0 DUP10 ADD DUP2 SWAP1 MSTORE PUSH1 0x0 SWAP1 PUSH2 0x391D SWAP1 PUSH2 0x377B SWAP1 PUSH2 0x37E9 SWAP1 DUP14 PUSH2 0x20D4 JUMP JUMPDEST SWAP1 POP PUSH2 0x3930 DUP12 PUSH1 0xA PUSH1 0x20 MUL ADD MLOAD DUP3 PUSH2 0x20EF JUMP JUMPDEST PUSH2 0x140 DUP13 ADD MSTORE POP POP DUP7 MLOAD PUSH1 0x0 SWAP3 POP PUSH2 0x3958 SWAP2 POP PUSH2 0x38A7 SWAP1 PUSH2 0x3951 SWAP1 DUP1 PUSH2 0x20EF JUMP JUMPDEST DUP9 MLOAD PUSH2 0x20EF JUMP JUMPDEST SWAP1 POP PUSH1 0x0 PUSH2 0x399A PUSH2 0x3975 DUP4 PUSH2 0x588 DUP11 PUSH1 0x0 ADD MLOAD DUP12 PUSH1 0xA0 ADD MLOAD PUSH2 0x210A JUMP JUMPDEST PUSH1 0x20 DUP10 ADD MLOAD PUSH2 0x5AC SWAP1 PUSH2 0x3988 SWAP1 DUP1 PUSH2 0x20EF JUMP JUMPDEST PUSH2 0x588 DUP12 PUSH1 0x20 ADD MLOAD DUP13 PUSH1 0x80 ADD MLOAD PUSH2 0x20EF JUMP JUMPDEST SWAP1 POP PUSH2 0x39B7 DUP10 PUSH1 0xB PUSH1 0x20 MUL ADD MLOAD PUSH2 0x58D PUSH2 0x377B PUSH2 0x37E9 DUP6 DUP14 PUSH2 0x20D4 JUMP JUMPDEST DUP10 PUSH1 0xB PUSH1 0x20 MUL ADD MSTORE POP POP POP POP POP POP POP POP POP POP JUMP JUMPDEST PUSH2 0x3A75 PUSH1 0x40 MLOAD DUP1 PUSH2 0x2C0 ADD PUSH1 0x40 MSTORE DUP1 PUSH1 0x0 DUP2 MSTORE PUSH1 0x20 ADD PUSH1 0x0 DUP2 MSTORE PUSH1 0x20 ADD PUSH1 0x0 DUP2 MSTORE PUSH1 0x20 ADD PUSH1 0x0 DUP2 MSTORE PUSH1 0x20 ADD PUSH1 0x0 DUP2 MSTORE PUSH1 0x20 ADD PUSH1 0x0 DUP2 MSTORE PUSH1 0x20 ADD PUSH1 0x0 DUP2 MSTORE PUSH1 0x20 ADD PUSH1 0x0 DUP2 MSTORE PUSH1 0x20 ADD PUSH1 0x0 DUP2 MSTORE PUSH1 0x20 ADD PUSH1 0x0 DUP2 MSTORE PUSH1 0x20 ADD PUSH1 0x0 DUP2 MSTORE PUSH1 0x20 ADD PUSH1 0x0 DUP2 MSTORE PUSH1 0x20 ADD PUSH1 0x0 DUP2 MSTORE PUSH1 0x20 ADD PUSH1 0x0 DUP2 MSTORE PUSH1 0x20 ADD PUSH1 0x0 DUP2 MSTORE PUSH1 0x20 ADD PUSH1 0x0 DUP2 MSTORE PUSH1 0x20 ADD PUSH1 0x0 DUP2 MSTORE PUSH1 0x20 ADD PUSH1 0x0 DUP2 MSTORE PUSH1 0x20 ADD PUSH1 0x0 DUP2 MSTORE PUSH1 0x20 ADD PUSH1 0x0 DUP2 MSTORE PUSH1 0x20 ADD PUSH1 0x0 DUP2 MSTORE PUSH1 0x20 ADD PUSH1 0x0 DUP2 MSTORE POP SWAP1 JUMP JUMPDEST PUSH2 0x3AAA PUSH2 0x3A91 PUSH2 0x3A86 DUP8 PUSH1 0x1B PUSH2 0x49D2 JUMP JUMPDEST PUSH2 0x588 DUP9 PUSH1 0x24 PUSH2 0x49D2 JUMP JUMPDEST PUSH2 0x58D PUSH2 0x3A9F DUP9 PUSH1 0x23 PUSH2 0x49D2 JUMP JUMPDEST PUSH2 0x588 DUP10 PUSH1 0x1C PUSH2 0x49D2 JUMP JUMPDEST DUP2 MSTORE PUSH2 0x3AEF PUSH2 0x3AE4 PUSH2 0x3ACB PUSH2 0x3AC0 DUP9 PUSH1 0x1B PUSH2 0x49D2 JUMP JUMPDEST PUSH2 0x588 DUP10 PUSH1 0x1E PUSH2 0x49D2 JUMP JUMPDEST PUSH2 0x58D PUSH2 0x3AD9 DUP10 PUSH1 0x1C PUSH2 0x49D2 JUMP JUMPDEST PUSH2 0x588 DUP11 PUSH1 0x1D PUSH2 0x49D2 JUMP JUMPDEST PUSH2 0x5AC DUP8 PUSH1 0x25 PUSH2 0x49D2 JUMP JUMPDEST PUSH1 0x40 DUP3 ADD DUP2 SWAP1 MSTORE PUSH2 0x3B04 SWAP1 PUSH1 0x1 PUSH1 0x44 SHL PUSH2 0x20D4 JUMP JUMPDEST PUSH1 0x40 DUP3 ADD DUP2 SWAP1 MSTORE PUSH2 0x3B1A SWAP1 PUSH2 0x5AC DUP8 PUSH1 0x26 PUSH2 0x49D2 JUMP JUMPDEST PUSH1 0x40 DUP3 ADD DUP2 SWAP1 MSTORE DUP2 MLOAD PUSH2 0x3B2D SWAP2 SWAP1 PUSH2 0x20EF JUMP JUMPDEST PUSH1 0x40 DUP3 ADD DUP2 SWAP1 MSTORE PUSH2 0x3B43 SWAP1 PUSH2 0x588 DUP8 PUSH1 0x5 PUSH2 0x49D2 JUMP JUMPDEST PUSH1 0x40 DUP3 ADD MSTORE DUP1 MLOAD PUSH2 0x3B58 SWAP1 PUSH1 0x1 PUSH1 0x44 SHL PUSH2 0x20D4 JUMP JUMPDEST DUP1 DUP3 MSTORE PUSH2 0x3B78 SWAP1 PUSH2 0x58D PUSH2 0x3B6D DUP9 PUSH1 0x23 PUSH2 0x49D2 JUMP JUMPDEST PUSH2 0x588 DUP10 PUSH1 0x24 PUSH2 0x49D2 JUMP JUMPDEST DUP1 DUP3 MSTORE PUSH1 0x20 DUP3 ADD DUP2 SWAP1 MSTORE PUSH2 0x3B94 SWAP1 PUSH2 0x5AC PUSH2 0x3012 DUP9 PUSH1 0x1D PUSH2 0x49D2 JUMP JUMPDEST PUSH1 0x20 DUP3 ADD DUP2 SWAP1 MSTORE PUSH2 0x3BAA SWAP1 PUSH2 0x588 DUP8 PUSH1 0x4 PUSH2 0x49D2 JUMP JUMPDEST PUSH1 0x20 DUP3 ADD MSTORE DUP1 MLOAD PUSH1 0x60 DUP3 ADD DUP2 SWAP1 MSTORE PUSH2 0x3BC7 SWAP1 PUSH2 0x58D DUP8 PUSH1 0x1E PUSH2 0x49D2 JUMP JUMPDEST PUSH1 0x60 DUP3 ADD DUP2 SWAP1 MSTORE PUSH2 0x3BEB SWAP1 PUSH2 0x5AC PUSH2 0x3BE0 DUP9 PUSH1 0x25 PUSH2 0x49D2 JUMP JUMPDEST PUSH2 0x58D DUP10 PUSH1 0x26 PUSH2 0x49D2 JUMP JUMPDEST PUSH1 0x60 DUP3 ADD DUP2 SWAP1 MSTORE PUSH2 0x3C01 SWAP1 PUSH2 0x588 DUP8 PUSH1 0x0 PUSH2 0x49D2 JUMP JUMPDEST DUP2 PUSH1 0x60 ADD DUP2 DUP2 MSTORE POP POP PUSH1 0x0 PUSH2 0x3C2B PUSH2 0x3C21 DUP4 PUSH1 0x20 ADD MLOAD DUP5 PUSH1 0x40 ADD MLOAD PUSH2 0x20EF JUMP JUMPDEST DUP4 PUSH1 0x60 ADD MLOAD PUSH2 0x20EF JUMP JUMPDEST SWAP1 POP PUSH2 0x3C3C DUP2 PUSH2 0x588 DUP9 PUSH1 0x3 PUSH2 0x49D2 JUMP JUMPDEST SWAP1 POP PUSH2 0x3C54 PUSH2 0x3C4C DUP8 PUSH1 0x24 PUSH2 0x49D2 JUMP JUMPDEST PUSH2 0x4000 PUSH2 0x20D4 JUMP JUMPDEST PUSH1 0x80 DUP4 ADD DUP2 SWAP1 MSTORE PUSH2 0x3C6A SWAP1 PUSH2 0x58D DUP9 PUSH1 0x23 PUSH2 0x49D2 JUMP JUMPDEST PUSH1 0x80 DUP4 ADD DUP2 SWAP1 MSTORE PUSH2 0x3C7D SWAP1 PUSH2 0x4000 PUSH2 0x20D4 JUMP JUMPDEST PUSH1 0x80 DUP4 ADD DUP2 SWAP1 MSTORE PUSH2 0x3C93 SWAP1 PUSH2 0x58D DUP9 PUSH1 0x1D PUSH2 0x49D2 JUMP JUMPDEST PUSH1 0x80 DUP4 ADD DUP2 SWAP1 MSTORE PUSH2 0x3CA6 SWAP1 PUSH2 0x4000 PUSH2 0x20D4 JUMP JUMPDEST PUSH1 0x80 DUP4 ADD DUP2 SWAP1 MSTORE PUSH2 0x3CBC SWAP1 PUSH2 0x58D DUP9 PUSH1 0x1C PUSH2 0x49D2 JUMP JUMPDEST PUSH1 0x80 DUP4 ADD DUP2 SWAP1 MSTORE PUSH2 0x3CCF SWAP1 PUSH2 0x4000 PUSH2 0x20D4 JUMP JUMPDEST PUSH1 0x80 DUP4 ADD DUP2 SWAP1 MSTORE PUSH2 0x3CE5 SWAP1 PUSH2 0x58D DUP9 PUSH1 0x1B PUSH2 0x49D2 JUMP JUMPDEST PUSH1 0x80 DUP4 ADD DUP2 SWAP1 MSTORE PUSH2 0x3CFB SWAP1 PUSH2 0x5AC DUP9 PUSH1 0x1E PUSH2 0x49D2 JUMP JUMPDEST PUSH1 0x80 DUP4 ADD DUP2 SWAP1 MSTORE PUSH2 0x3D11 SWAP1 PUSH2 0x588 DUP9 PUSH1 0x5 PUSH2 0x49D2 JUMP JUMPDEST PUSH1 0x80 DUP4 ADD MSTORE PUSH2 0x3D24 PUSH2 0x3C4C DUP8 PUSH1 0x25 PUSH2 0x49D2 JUMP JUMPDEST PUSH1 0xA0 DUP4 ADD DUP2 SWAP1 MSTORE PUSH2 0x3D3A SWAP1 PUSH2 0x58D DUP9 PUSH1 0x24 PUSH2 0x49D2 JUMP JUMPDEST PUSH1 0xA0 DUP4 ADD DUP2 SWAP1 MSTORE PUSH2 0x3D4D SWAP1 PUSH2 0x4000 PUSH2 0x20D4 JUMP JUMPDEST PUSH1 0xA0 DUP4 ADD DUP2 SWAP1 MSTORE PUSH2 0x3D63 SWAP1 PUSH2 0x58D DUP9 PUSH1 0x23 PUSH2 0x49D2 JUMP JUMPDEST PUSH1 0xA0 DUP4 ADD DUP2 SWAP1 MSTORE PUSH2 0x3D76 SWAP1 PUSH2 0x4000 PUSH2 0x20D4 JUMP JUMPDEST PUSH1 0xA0 DUP4 ADD DUP2 SWAP1 MSTORE PUSH2 0x3D8C SWAP1 PUSH2 0x58D DUP9 PUSH1 0x1E PUSH2 0x49D2 JUMP JUMPDEST PUSH1 0xA0 DUP4 ADD DUP2 SWAP1 MSTORE PUSH2 0x3D9F SWAP1 PUSH2 0x4000 PUSH2 0x20D4 JUMP JUMPDEST PUSH1 0xA0 DUP4 ADD DUP2 SWAP1 MSTORE PUSH2 0x3DB5 SWAP1 PUSH2 0x58D DUP9 PUSH1 0x1D PUSH2 0x49D2 JUMP JUMPDEST PUSH1 0xA0 DUP4 ADD DUP2 SWAP1 MSTORE PUSH2 0x3DCB SWAP1 PUSH2 0x5AC DUP9 PUSH1 0x26 PUSH2 0x49D2 JUMP JUMPDEST PUSH1 0xA0 DUP4 ADD DUP2 SWAP1 MSTORE PUSH2 0x3DE1 SWAP1 PUSH2 0x588 DUP9 PUSH1 0x0 PUSH2 0x49D2 JUMP JUMPDEST PUSH1 0xA0 DUP4 ADD DUP2 SWAP1 MSTORE PUSH1 0x80 DUP4 ADD MLOAD PUSH1 0x0 SWAP2 PUSH2 0x3DFA SWAP2 SWAP1 PUSH2 0x20EF JUMP JUMPDEST SWAP1 POP PUSH2 0x3E0B DUP2 PUSH2 0x588 DUP10 PUSH1 0x4 PUSH2 0x49D2 JUMP JUMPDEST SWAP1 POP PUSH2 0x3E25 PUSH2 0x3E1B DUP9 PUSH1 0x1D PUSH2 0x49D2 JUMP JUMPDEST DUP8 PUSH1 0x40 ADD MLOAD PUSH2 0x20D4 JUMP JUMPDEST PUSH1 0xC0 DUP5 ADD DUP2 SWAP1 MSTORE PUSH2 0x3E3E SWAP1 PUSH2 0x58D PUSH2 0x32AA DUP11 PUSH1 0x1C PUSH2 0x49D2 JUMP JUMPDEST PUSH1 0xC0 DUP5 ADD DUP2 SWAP1 MSTORE PUSH2 0x3E5E SWAP1 PUSH2 0x58D PUSH2 0x3E57 DUP11 PUSH1 0x1B PUSH2 0x49D2 JUMP JUMPDEST DUP10 MLOAD PUSH2 0x20D4 JUMP JUMPDEST PUSH1 0xC0 DUP5 ADD DUP2 SWAP1 MSTORE PUSH2 0x3E74 SWAP1 PUSH2 0x58D DUP10 PUSH1 0x1 PUSH2 0x49D2 JUMP JUMPDEST PUSH1 0xC0 DUP5 ADD DUP2 SWAP1 MSTORE PUSH1 0xE0 DUP5 ADD DUP2 SWAP1 MSTORE PUSH2 0x3E91 SWAP1 PUSH2 0x5AC DUP10 PUSH1 0x1E PUSH2 0x49D2 JUMP JUMPDEST PUSH1 0xC0 DUP5 ADD MSTORE PUSH2 0x3EA4 PUSH2 0x34B4 DUP9 PUSH1 0x23 PUSH2 0x49D2 JUMP JUMPDEST PUSH2 0x140 DUP5 ADD MSTORE PUSH2 0x3EC3 PUSH2 0x3EB8 DUP9 PUSH1 0x26 PUSH2 0x49D2 JUMP JUMPDEST PUSH2 0x5AC DUP10 PUSH1 0x1E PUSH2 0x49D2 JUMP JUMPDEST PUSH2 0x120 DUP5 ADD MSTORE PUSH2 0x140 DUP4 ADD MLOAD PUSH2 0x3EE8 SWAP1 PUSH2 0x3EDD SWAP1 DUP1 PUSH2 0x20D4 JUMP JUMPDEST DUP5 PUSH2 0x140 ADD MLOAD PUSH2 0x210A JUMP JUMPDEST PUSH2 0x280 DUP5 ADD MSTORE PUSH2 0x140 DUP4 ADD MLOAD PUSH2 0x3F2B SWAP1 PUSH2 0x3F20 SWAP1 PUSH2 0x3F19 SWAP1 PUSH2 0x588 PUSH1 0x1 PUSH1 0x0 DUP1 MLOAD PUSH1 0x20 PUSH2 0x550B DUP4 CODECOPY DUP2 MLOAD SWAP2 MSTORE PUSH2 0x5294 JUMP JUMPDEST PUSH1 0x1 PUSH2 0x20EF JUMP JUMPDEST DUP5 PUSH2 0x120 ADD MLOAD PUSH2 0x20D4 JUMP JUMPDEST PUSH2 0x160 DUP5 ADD DUP2 SWAP1 MSTORE PUSH2 0x3F62 SWAP1 PUSH2 0x3F54 SWAP1 PUSH2 0x588 PUSH2 0x3F49 DUP12 PUSH1 0x2 PUSH2 0x49D2 JUMP JUMPDEST PUSH2 0x588 DUP13 PUSH1 0x3 PUSH2 0x49D2 JUMP JUMPDEST PUSH2 0x588 PUSH2 0x3440 DUP11 PUSH1 0xA PUSH2 0x49D2 JUMP JUMPDEST PUSH2 0x1A0 DUP7 ADD MSTORE PUSH2 0x280 DUP4 ADD MLOAD PUSH2 0x3F84 SWAP1 PUSH2 0x3F54 SWAP1 PUSH2 0x588 PUSH2 0x3F49 DUP12 PUSH1 0x2 PUSH2 0x49D2 JUMP JUMPDEST PUSH2 0x1C0 DUP7 ADD MSTORE PUSH1 0xC0 DUP4 ADD MLOAD PUSH2 0x3FAC SWAP1 PUSH2 0x588 PUSH2 0x3FA1 DUP11 PUSH1 0x2 PUSH2 0x49D2 JUMP JUMPDEST PUSH2 0x588 DUP12 PUSH1 0x3 PUSH2 0x49D2 JUMP JUMPDEST PUSH2 0x1E0 DUP5 ADD MSTORE PUSH1 0x0 PUSH2 0x3FCC PUSH2 0x3FC2 DUP10 PUSH1 0x1E PUSH2 0x49D2 JUMP JUMPDEST DUP6 PUSH1 0xE0 ADD MLOAD PUSH2 0x210A JUMP JUMPDEST SWAP1 POP PUSH2 0x3FDB PUSH2 0x38FB DUP3 DUP4 PUSH2 0x20D4 JUMP JUMPDEST PUSH2 0x1A0 DUP6 ADD MSTORE PUSH2 0x3FEF PUSH2 0x32C2 DUP10 PUSH1 0x25 PUSH2 0x49D2 JUMP JUMPDEST PUSH2 0x100 DUP6 ADD DUP2 SWAP1 MSTORE PUSH2 0x4013 SWAP1 PUSH2 0x58D PUSH2 0x4009 DUP12 PUSH1 0x24 PUSH2 0x49D2 JUMP JUMPDEST DUP11 PUSH1 0x20 ADD MLOAD PUSH2 0x20D4 JUMP JUMPDEST PUSH2 0x100 DUP6 ADD DUP2 SWAP1 MSTORE PUSH2 0x402D SWAP1 PUSH2 0x58D PUSH2 0x3295 DUP12 PUSH1 0x23 PUSH2 0x49D2 JUMP JUMPDEST PUSH2 0x100 DUP6 ADD MSTORE PUSH2 0x404C PUSH2 0x4041 DUP10 PUSH1 0x26 PUSH2 0x49D2 JUMP JUMPDEST DUP6 PUSH2 0x100 ADD MLOAD PUSH2 0x210A JUMP JUMPDEST PUSH2 0x100 DUP6 ADD MSTORE PUSH1 0x0 PUSH2 0x4062 PUSH2 0x34EE DUP11 PUSH1 0x25 PUSH2 0x49D2 JUMP JUMPDEST SWAP1 POP PUSH2 0x40B8 PUSH2 0x4091 PUSH2 0x2F39 PUSH2 0x3F19 DUP9 PUSH2 0x140 ADD MLOAD PUSH1 0x1 PUSH1 0x0 DUP1 MLOAD PUSH1 0x20 PUSH2 0x550B DUP4 CODECOPY DUP2 MLOAD SWAP2 MSTORE PUSH2 0x588 SWAP2 SWAP1 PUSH2 0x5294 JUMP JUMPDEST PUSH2 0x588 PUSH2 0x3F19 DUP9 PUSH2 0x100 ADD MLOAD PUSH1 0x1 PUSH1 0x0 DUP1 MLOAD PUSH1 0x20 PUSH2 0x550B DUP4 CODECOPY DUP2 MLOAD SWAP2 MSTORE PUSH2 0x588 SWAP2 SWAP1 PUSH2 0x5294 JUMP JUMPDEST PUSH2 0x180 DUP7 ADD MSTORE PUSH2 0x100 DUP6 ADD MLOAD PUSH2 0x40DD SWAP1 PUSH2 0x40D2 SWAP1 DUP1 PUSH2 0x20D4 JUMP JUMPDEST DUP7 PUSH2 0x100 ADD MLOAD PUSH2 0x210A JUMP JUMPDEST PUSH2 0x1C0 DUP7 ADD MSTORE PUSH2 0x180 DUP6 ADD MLOAD PUSH2 0x4110 SWAP1 PUSH2 0x40FC SWAP1 PUSH2 0x588 DUP13 PUSH1 0x7 PUSH2 0x49D2 JUMP JUMPDEST PUSH2 0x588 PUSH2 0x410A DUP13 PUSH1 0xA PUSH2 0x49D2 JUMP JUMPDEST DUP10 PUSH2 0x20D4 JUMP JUMPDEST PUSH2 0x1E0 DUP9 ADD MSTORE PUSH2 0x280 DUP6 ADD MLOAD PUSH2 0x412F SWAP1 PUSH2 0x40FC SWAP1 PUSH2 0x588 DUP13 PUSH1 0x7 PUSH2 0x49D2 JUMP JUMPDEST PUSH2 0x200 DUP9 ADD MSTORE PUSH2 0x1C0 DUP6 ADD MLOAD PUSH2 0x414E SWAP1 PUSH2 0x40FC SWAP1 PUSH2 0x588 DUP13 PUSH1 0x7 PUSH2 0x49D2 JUMP JUMPDEST PUSH2 0x220 DUP9 ADD MSTORE PUSH2 0x1A0 DUP6 ADD MLOAD PUSH2 0x4169 SWAP1 PUSH2 0x588 DUP12 PUSH1 0x7 PUSH2 0x49D2 JUMP JUMPDEST PUSH2 0x200 DUP7 ADD MSTORE PUSH2 0x4188 PUSH2 0x417D DUP11 PUSH1 0x24 PUSH2 0x49D2 JUMP JUMPDEST PUSH2 0x5AC DUP12 PUSH1 0x1C PUSH2 0x49D2 JUMP JUMPDEST PUSH2 0x220 DUP7 ADD MSTORE PUSH2 0x140 DUP6 ADD MLOAD PUSH2 0x41C8 SWAP1 PUSH2 0x34EE SWAP1 PUSH2 0x41BD SWAP1 PUSH2 0x3F19 SWAP1 PUSH2 0x588 PUSH1 0x1 PUSH1 0x0 DUP1 MLOAD PUSH1 0x20 PUSH2 0x550B DUP4 CODECOPY DUP2 MLOAD SWAP2 MSTORE PUSH2 0x5294 JUMP JUMPDEST DUP8 PUSH2 0x220 ADD MLOAD PUSH2 0x20D4 JUMP JUMPDEST PUSH2 0x240 DUP7 ADD DUP2 SWAP1 MSTORE PUSH2 0x1E0 DUP7 ADD MLOAD PUSH2 0x260 DUP8 ADD DUP2 SWAP1 MSTORE PUSH2 0x41FF SWAP2 PUSH2 0x58D SWAP1 PUSH2 0x588 PUSH2 0x41F4 DUP15 PUSH1 0x5 PUSH2 0x49D2 JUMP JUMPDEST PUSH2 0x588 DUP16 PUSH1 0x2 PUSH2 0x49D2 JUMP JUMPDEST PUSH2 0x260 DUP7 ADD DUP2 SWAP1 MSTORE PUSH1 0xC0 DUP7 ADD MLOAD PUSH2 0x4223 SWAP2 SWAP1 PUSH2 0x58D SWAP1 PUSH2 0x588 PUSH2 0x41F4 DUP15 PUSH1 0x0 PUSH2 0x49D2 JUMP JUMPDEST PUSH2 0x260 DUP7 ADD DUP2 SWAP1 MSTORE PUSH2 0x200 DUP7 ADD MLOAD PUSH2 0x423B SWAP2 SWAP1 PUSH2 0x20EF JUMP JUMPDEST PUSH2 0x260 DUP7 ADD DUP2 SWAP1 MSTORE PUSH2 0x4251 SWAP1 PUSH2 0x37CB SWAP1 DUP7 PUSH2 0x20EF JUMP JUMPDEST PUSH2 0x2A0 DUP7 ADD DUP2 SWAP1 MSTORE PUSH2 0x426B SWAP1 PUSH2 0x588 PUSH2 0x410A DUP13 PUSH1 0xA PUSH2 0x49D2 JUMP JUMPDEST PUSH2 0x2A0 DUP7 ADD DUP2 SWAP1 MSTORE DUP8 PUSH1 0xC PUSH1 0x20 MUL ADD MSTORE POP POP POP POP POP POP POP POP POP JUMP JUMPDEST PUSH2 0x430D PUSH1 0x40 MLOAD DUP1 PUSH2 0x220 ADD PUSH1 0x40 MSTORE DUP1 PUSH1 0x0 DUP2 MSTORE PUSH1 0x20 ADD PUSH1 0x0 DUP2 MSTORE PUSH1 0x20 ADD PUSH1 0x0 DUP2 MSTORE PUSH1 0x20 ADD PUSH1 0x0 DUP2 MSTORE PUSH1 0x20 ADD PUSH1 0x0 DUP2 MSTORE PUSH1 0x20 ADD PUSH1 0x0 DUP2 MSTORE PUSH1 0x20 ADD PUSH1 0x0 DUP2 MSTORE PUSH1 0x20 ADD PUSH1 0x0 DUP2 MSTORE PUSH1 0x20 ADD PUSH1 0x0 DUP2 MSTORE PUSH1 0x20 ADD PUSH1 0x0 DUP2 MSTORE PUSH1 0x20 ADD PUSH1 0x0 DUP2 MSTORE PUSH1 0x20 ADD PUSH1 0x0 DUP2 MSTORE PUSH1 0x20 ADD PUSH1 0x0 DUP2 MSTORE PUSH1 0x20 ADD PUSH1 0x0 DUP2 MSTORE PUSH1 0x20 ADD PUSH1 0x0 DUP2 MSTORE PUSH1 0x20 ADD PUSH1 0x0 DUP2 MSTORE PUSH1 0x20 ADD PUSH1 0x0 DUP2 MSTORE POP SWAP1 JUMP JUMPDEST PUSH2 0x4326 PUSH2 0x431B DUP6 PUSH1 0x1B PUSH2 0x49D2 JUMP JUMPDEST PUSH2 0x58D DUP7 PUSH1 0x2 PUSH2 0x49D2 JUMP JUMPDEST DUP2 MSTORE PUSH2 0x4341 PUSH2 0x4336 DUP6 PUSH1 0x1C PUSH2 0x49D2 JUMP JUMPDEST PUSH2 0x58D DUP7 PUSH1 0x3 PUSH2 0x49D2 JUMP JUMPDEST PUSH1 0x20 DUP3 ADD MSTORE PUSH2 0x435F PUSH2 0x4354 DUP6 PUSH1 0x1D PUSH2 0x49D2 JUMP JUMPDEST PUSH2 0x58D DUP7 PUSH1 0x4 PUSH2 0x49D2 JUMP JUMPDEST PUSH1 0x40 DUP3 ADD MSTORE PUSH2 0x437D PUSH2 0x4372 DUP6 PUSH1 0x1E PUSH2 0x49D2 JUMP JUMPDEST PUSH2 0x58D DUP7 PUSH1 0x5 PUSH2 0x49D2 JUMP JUMPDEST PUSH1 0x60 DUP3 ADD MSTORE DUP1 MLOAD PUSH2 0x43AF SWAP1 PUSH2 0x43A8 SWAP1 PUSH2 0x43A1 SWAP1 PUSH2 0x439A SWAP1 DUP1 PUSH2 0x20D4 JUMP JUMPDEST DUP5 MLOAD PUSH2 0x20D4 JUMP JUMPDEST DUP4 MLOAD PUSH2 0x20D4 JUMP JUMPDEST DUP3 MLOAD PUSH2 0x20D4 JUMP JUMPDEST PUSH1 0x80 DUP3 ADD MSTORE PUSH1 0x20 DUP2 ADD MLOAD PUSH2 0x43ED SWAP1 PUSH2 0x43E3 SWAP1 PUSH2 0x43D9 SWAP1 PUSH2 0x43CF SWAP1 DUP1 PUSH2 0x20D4 JUMP JUMPDEST DUP5 PUSH1 0x20 ADD MLOAD PUSH2 0x20D4 JUMP JUMPDEST DUP4 PUSH1 0x20 ADD MLOAD PUSH2 0x20D4 JUMP JUMPDEST DUP3 PUSH1 0x20 ADD MLOAD PUSH2 0x20D4 JUMP JUMPDEST PUSH1 0xA0 DUP3 ADD MSTORE PUSH1 0x40 DUP2 ADD MLOAD PUSH2 0x442B SWAP1 PUSH2 0x4421 SWAP1 PUSH2 0x4417 SWAP1 PUSH2 0x440D SWAP1 DUP1 PUSH2 0x20D4 JUMP JUMPDEST DUP5 PUSH1 0x40 ADD MLOAD PUSH2 0x20D4 JUMP JUMPDEST DUP4 PUSH1 0x40 ADD MLOAD PUSH2 0x20D4 JUMP JUMPDEST DUP3 PUSH1 0x40 ADD MLOAD PUSH2 0x20D4 JUMP JUMPDEST PUSH1 0xC0 DUP3 ADD MSTORE PUSH1 0x60 DUP2 ADD MLOAD PUSH2 0x4469 SWAP1 PUSH2 0x445F SWAP1 PUSH2 0x4455 SWAP1 PUSH2 0x444B SWAP1 DUP1 PUSH2 0x20D4 JUMP JUMPDEST DUP5 PUSH1 0x60 ADD MLOAD PUSH2 0x20D4 JUMP JUMPDEST DUP4 PUSH1 0x60 ADD MLOAD PUSH2 0x20D4 JUMP JUMPDEST DUP3 PUSH1 0x60 ADD MLOAD PUSH2 0x20D4 JUMP JUMPDEST PUSH1 0xE0 DUP3 ADD MSTORE PUSH1 0x80 DUP2 ADD MLOAD PUSH1 0xA0 DUP3 ADD MLOAD PUSH2 0x4482 SWAP2 SWAP1 PUSH2 0x20EF JUMP JUMPDEST PUSH2 0x100 DUP3 ADD MSTORE PUSH1 0xC0 DUP2 ADD MLOAD PUSH1 0xE0 DUP3 ADD MLOAD PUSH2 0x449C SWAP2 SWAP1 PUSH2 0x20EF JUMP JUMPDEST PUSH2 0x120 DUP3 ADD MSTORE PUSH1 0xA0 DUP2 ADD MLOAD PUSH2 0x44C0 SWAP1 PUSH2 0x44B5 SWAP1 DUP1 PUSH2 0x20EF JUMP JUMPDEST DUP3 PUSH2 0x120 ADD MLOAD PUSH2 0x20EF JUMP JUMPDEST PUSH2 0x140 DUP3 ADD MSTORE PUSH1 0xE0 DUP2 ADD MLOAD PUSH2 0x44E4 SWAP1 PUSH2 0x44D9 SWAP1 DUP1 PUSH2 0x20EF JUMP JUMPDEST DUP3 PUSH2 0x100 ADD MLOAD PUSH2 0x20EF JUMP JUMPDEST PUSH2 0x160 DUP3 ADD MSTORE PUSH2 0x120 DUP2 ADD MLOAD PUSH2 0x44FA SWAP1 DUP1 PUSH2 0x20EF JUMP JUMPDEST PUSH2 0x1E0 DUP3 ADD DUP2 SWAP1 MSTORE PUSH2 0x451B SWAP1 PUSH2 0x4510 SWAP1 DUP1 PUSH2 0x20EF JUMP JUMPDEST DUP3 PUSH2 0x160 ADD MLOAD PUSH2 0x20EF JUMP JUMPDEST PUSH2 0x1E0 DUP3 ADD MSTORE PUSH2 0x100 DUP2 ADD MLOAD PUSH2 0x4531 SWAP1 DUP1 PUSH2 0x20EF JUMP JUMPDEST PUSH2 0x1A0 DUP3 ADD DUP2 SWAP1 MSTORE PUSH2 0x4552 SWAP1 PUSH2 0x4547 SWAP1 DUP1 PUSH2 0x20EF JUMP JUMPDEST DUP3 PUSH2 0x140 ADD MLOAD PUSH2 0x20EF JUMP JUMPDEST PUSH2 0x1A0 DUP3 ADD DUP2 SWAP1 MSTORE PUSH2 0x160 DUP3 ADD MLOAD PUSH2 0x4569 SWAP2 PUSH2 0x20EF JUMP JUMPDEST PUSH2 0x180 DUP3 ADD MSTORE PUSH2 0x140 DUP2 ADD MLOAD PUSH2 0x1E0 DUP3 ADD MLOAD PUSH2 0x4585 SWAP2 SWAP1 PUSH2 0x20EF JUMP JUMPDEST PUSH2 0x1C0 DUP3 ADD MSTORE PUSH2 0x4599 PUSH2 0x2F39 DUP6 PUSH1 0xB PUSH2 0x49D2 JUMP JUMPDEST PUSH2 0x200 DUP3 ADD DUP2 SWAP1 MSTORE PUSH2 0x240 DUP5 ADD MLOAD PUSH2 0x180 DUP4 ADD MLOAD PUSH2 0x45C4 SWAP3 PUSH2 0x58D SWAP2 PUSH2 0x588 SWAP1 PUSH2 0x5AC DUP11 PUSH1 0x23 PUSH2 0x49D2 JUMP JUMPDEST DUP4 PUSH1 0x12 PUSH1 0x20 MUL ADD MSTORE PUSH2 0x45F4 DUP4 PUSH1 0x13 PUSH1 0x20 MUL ADD MLOAD PUSH2 0x58D DUP4 PUSH2 0x200 ADD MLOAD PUSH2 0x588 DUP6 PUSH2 0x1A0 ADD MLOAD PUSH2 0x5AC DUP11 PUSH1 0x24 PUSH2 0x49D2 JUMP JUMPDEST DUP4 PUSH1 0x13 PUSH1 0x20 MUL ADD MSTORE PUSH2 0x4624 DUP4 PUSH1 0x14 PUSH1 0x20 MUL ADD MLOAD PUSH2 0x58D DUP4 PUSH2 0x200 ADD MLOAD PUSH2 0x588 DUP6 PUSH2 0x1C0 ADD MLOAD PUSH2 0x5AC DUP11 PUSH1 0x25 PUSH2 0x49D2 JUMP JUMPDEST DUP4 PUSH1 0x14 PUSH1 0x20 MUL ADD MSTORE PUSH2 0x4654 DUP4 PUSH1 0x15 PUSH1 0x20 MUL ADD MLOAD PUSH2 0x58D DUP4 PUSH2 0x200 ADD MLOAD PUSH2 0x588 DUP6 PUSH2 0x1E0 ADD MLOAD PUSH2 0x5AC DUP11 PUSH1 0x26 PUSH2 0x49D2 JUMP JUMPDEST DUP4 PUSH1 0x15 PUSH1 0x20 MUL ADD MSTORE POP POP POP POP JUMP JUMPDEST PUSH2 0x46BF PUSH1 0x40 MLOAD DUP1 PUSH2 0x160 ADD PUSH1 0x40 MSTORE DUP1 PUSH1 0x0 DUP2 MSTORE PUSH1 0x20 ADD PUSH1 0x0 DUP2 MSTORE PUSH1 0x20 ADD PUSH1 0x0 DUP2 MSTORE PUSH1 0x20 ADD PUSH1 0x0 DUP2 MSTORE PUSH1 0x20 ADD PUSH1 0x0 DUP2 MSTORE PUSH1 0x20 ADD PUSH1 0x0 DUP2 MSTORE PUSH1 0x20 ADD PUSH1 0x0 DUP2 MSTORE PUSH1 0x20 ADD PUSH1 0x0 DUP2 MSTORE PUSH1 0x20 ADD PUSH1 0x0 DUP2 MSTORE PUSH1 0x20 ADD PUSH1 0x0 DUP2 MSTORE PUSH1 0x20 ADD PUSH1 0x0 DUP2 MSTORE POP SWAP1 JUMP JUMPDEST PUSH1 0x0 PUSH1 0x40 MLOAD DUP1 PUSH1 0x80 ADD PUSH1 0x40 MSTORE DUP1 PUSH2 0x46F5 PUSH32 0x10DC6E9C006EA38B04B1E03B4BD9490C0D03F98929CA1D7FB56821FD19D3B6E7 PUSH2 0x20B4 JUMP JUMPDEST DUP2 MSTORE PUSH1 0x20 ADD PUSH2 0x4723 PUSH32 0xC28145B6A44DF3E0149B3D0A30B3BB599DF9756D4DD9B84A86B38CFB45A740B PUSH2 0x20B4 JUMP JUMPDEST DUP2 MSTORE PUSH1 0x20 ADD PUSH2 0x4750 PUSH31 0x544B8338791518B2C7645A50392798B21F75BB60E3596170067D00141CAC15 PUSH2 0x20B4 JUMP JUMPDEST DUP2 MSTORE PUSH1 0x20 ADD PUSH2 0x477E PUSH32 0x222C01175718386F2E2E82EB122789E352E105A3B8FA852613BC534433EE428B PUSH2 0x20B4 JUMP JUMPDEST SWAP1 MSTORE SWAP1 POP PUSH2 0x479B PUSH2 0x4790 DUP7 PUSH1 0x1B PUSH2 0x49D2 JUMP JUMPDEST PUSH2 0x58D DUP8 PUSH1 0x2 PUSH2 0x49D2 JUMP JUMPDEST PUSH2 0x120 DUP4 ADD DUP2 SWAP1 MSTORE PUSH2 0x47CF SWAP1 PUSH2 0x47C4 SWAP1 PUSH2 0x3F20 SWAP1 PUSH2 0x47B9 SWAP1 DUP1 PUSH2 0x20D4 JUMP JUMPDEST DUP6 PUSH2 0x120 ADD MLOAD PUSH2 0x20D4 JUMP JUMPDEST DUP4 PUSH2 0x120 ADD MLOAD PUSH2 0x20D4 JUMP JUMPDEST DUP3 MSTORE PUSH2 0x47DC DUP6 PUSH1 0x1C PUSH2 0x49D2 JUMP JUMPDEST PUSH1 0x20 DUP4 ADD MSTORE PUSH2 0x47EC DUP6 PUSH1 0x1D PUSH2 0x49D2 JUMP JUMPDEST PUSH1 0x40 DUP4 ADD MSTORE PUSH2 0x47FC DUP6 PUSH1 0x1E PUSH2 0x49D2 JUMP JUMPDEST PUSH1 0x60 DUP4 ADD MSTORE DUP2 MLOAD PUSH1 0x20 DUP4 ADD MLOAD PUSH2 0x4824 SWAP2 PUSH2 0x3C21 SWAP2 PUSH2 0x481A SWAP2 SWAP1 PUSH2 0x20EF JUMP JUMPDEST DUP5 PUSH1 0x40 ADD MLOAD PUSH2 0x20EF JUMP JUMPDEST PUSH1 0x80 DUP4 ADD MSTORE PUSH2 0x4837 PUSH2 0x31F1 DUP7 PUSH1 0xC PUSH2 0x49D2 JUMP JUMPDEST PUSH2 0x140 DUP4 ADD MSTORE DUP2 MLOAD PUSH2 0x4859 SWAP1 PUSH2 0x484F SWAP1 DUP4 PUSH1 0x0 PUSH2 0xE3B JUMP JUMPDEST DUP4 PUSH1 0x80 ADD MLOAD PUSH2 0x20EF JUMP JUMPDEST PUSH1 0xA0 DUP4 ADD MSTORE PUSH2 0x4885 DUP5 PUSH1 0x16 PUSH1 0x20 MUL ADD MLOAD PUSH2 0x58D DUP5 PUSH2 0x140 ADD MLOAD PUSH2 0x588 DUP7 PUSH1 0xA0 ADD MLOAD PUSH2 0x5AC DUP12 PUSH1 0x23 PUSH2 0x49D2 JUMP JUMPDEST PUSH2 0x2C0 DUP6 ADD MSTORE PUSH1 0x20 DUP3 ADD MLOAD PUSH2 0x48A0 SWAP1 PUSH2 0x484F SWAP1 DUP4 PUSH1 0x1 PUSH2 0xE3B JUMP JUMPDEST PUSH1 0xC0 DUP4 ADD MSTORE PUSH2 0x48CC DUP5 PUSH1 0x17 PUSH1 0x20 MUL ADD MLOAD PUSH2 0x58D DUP5 PUSH2 0x140 ADD MLOAD PUSH2 0x588 DUP7 PUSH1 0xC0 ADD MLOAD PUSH2 0x5AC DUP12 PUSH1 0x24 PUSH2 0x49D2 JUMP JUMPDEST PUSH2 0x2E0 DUP6 ADD MSTORE PUSH1 0x40 DUP3 ADD MLOAD PUSH2 0x48E7 SWAP1 PUSH2 0x484F SWAP1 DUP4 PUSH1 0x2 PUSH2 0xE3B JUMP JUMPDEST PUSH1 0xE0 DUP4 ADD MSTORE PUSH2 0x4913 DUP5 PUSH1 0x18 PUSH1 0x20 MUL ADD MLOAD PUSH2 0x58D DUP5 PUSH2 0x140 ADD MLOAD PUSH2 0x588 DUP7 PUSH1 0xE0 ADD MLOAD PUSH2 0x5AC DUP12 PUSH1 0x25 PUSH2 0x49D2 JUMP JUMPDEST PUSH2 0x300 DUP6 ADD MSTORE PUSH1 0x60 DUP3 ADD MLOAD PUSH2 0x492E SWAP1 PUSH2 0x484F SWAP1 DUP4 PUSH1 0x3 PUSH2 0xE3B JUMP JUMPDEST PUSH2 0x100 DUP4 ADD MSTORE PUSH2 0x495C DUP5 PUSH1 0x19 PUSH1 0x20 MUL ADD MLOAD PUSH2 0x58D DUP5 PUSH2 0x140 ADD MLOAD PUSH2 0x588 DUP7 PUSH2 0x100 ADD MLOAD PUSH2 0x5AC DUP12 PUSH1 0x26 PUSH2 0x49D2 JUMP JUMPDEST DUP5 PUSH1 0x19 PUSH2 0x3074 JUMP JUMPDEST PUSH1 0x0 PUSH2 0x4971 DUP2 DUP5 DUP2 PUSH2 0x81D JUMP JUMPDEST SWAP1 POP PUSH1 0x1 JUMPDEST PUSH1 0x1A DUP2 LT ISZERO PUSH2 0x49CB JUMPI PUSH2 0x49B9 DUP3 PUSH2 0x58D DUP7 DUP5 PUSH1 0x1A DUP2 LT PUSH2 0x4998 JUMPI PUSH2 0x4998 PUSH2 0x5265 JUMP JUMPDEST PUSH1 0x20 MUL ADD MLOAD DUP7 PUSH2 0x49A9 PUSH1 0x1 DUP8 PUSH2 0x5294 JUMP JUMPDEST PUSH1 0x19 DUP2 LT PUSH2 0xE3B JUMPI PUSH2 0xE3B PUSH2 0x5265 JUMP JUMPDEST SWAP2 POP PUSH2 0x49C4 DUP2 PUSH2 0x527B JUMP JUMPDEST SWAP1 POP PUSH2 0x4976 JUMP JUMPDEST POP SWAP3 SWAP2 POP POP JUMP JUMPDEST PUSH1 0x0 DUP3 DUP3 PUSH1 0x27 DUP2 GT ISZERO PUSH2 0x49E7 JUMPI PUSH2 0x49E7 PUSH2 0x54F4 JUMP JUMPDEST PUSH1 0x28 DUP2 LT PUSH2 0x49F7 JUMPI PUSH2 0x49F7 PUSH2 0x5265 JUMP JUMPDEST PUSH1 0x20 MUL ADD MLOAD SWAP4 SWAP3 POP POP POP JUMP JUMPDEST PUSH1 0x40 MLOAD DUP1 PUSH2 0x3C0 ADD PUSH1 0x40 MSTORE DUP1 PUSH1 0x0 DUP2 MSTORE PUSH1 0x20 ADD PUSH1 0x0 DUP2 MSTORE PUSH1 0x20 ADD PUSH1 0x0 DUP2 MSTORE PUSH1 0x20 ADD PUSH2 0x4A41 PUSH1 0x40 MLOAD DUP1 PUSH1 0x40 ADD PUSH1 0x40 MSTORE DUP1 PUSH1 0x0 DUP2 MSTORE PUSH1 0x20 ADD PUSH1 0x0 DUP2 MSTORE POP SWAP1 JUMP JUMPDEST DUP2 MSTORE PUSH1 0x20 ADD PUSH2 0x4A63 PUSH1 0x40 MLOAD DUP1 PUSH1 0x40 ADD PUSH1 0x40 MSTORE DUP1 PUSH1 0x0 DUP2 MSTORE PUSH1 0x20 ADD PUSH1 0x0 DUP2 MSTORE POP SWAP1 JUMP JUMPDEST DUP2 MSTORE PUSH1 0x20 ADD PUSH2 0x4A85 PUSH1 0x40 MLOAD DUP1 PUSH1 0x40 ADD PUSH1 0x40 MSTORE DUP1 PUSH1 0x0 DUP2 MSTORE PUSH1 0x20 ADD PUSH1 0x0 DUP2 MSTORE POP SWAP1 JUMP JUMPDEST DUP2 MSTORE PUSH1 0x20 ADD PUSH2 0x4AA7 PUSH1 0x40 MLOAD DUP1 PUSH1 0x40 ADD PUSH1 0x40 MSTORE DUP1 PUSH1 0x0 DUP2 MSTORE PUSH1 0x20 ADD PUSH1 0x0 DUP2 MSTORE POP SWAP1 JUMP JUMPDEST DUP2 MSTORE PUSH1 0x20 ADD PUSH2 0x4AC9 PUSH1 0x40 MLOAD DUP1 PUSH1 0x40 ADD PUSH1 0x40 MSTORE DUP1 PUSH1 0x0 DUP2 MSTORE PUSH1 0x20 ADD PUSH1 0x0 DUP2 MSTORE POP SWAP1 JUMP JUMPDEST DUP2 MSTORE PUSH1 0x20 ADD PUSH2 0x4AEB PUSH1 0x40 MLOAD DUP1 PUSH1 0x40 ADD PUSH1 0x40 MSTORE DUP1 PUSH1 0x0 DUP2 MSTORE PUSH1 0x20 ADD PUSH1 0x0 DUP2 MSTORE POP SWAP1 JUMP JUMPDEST DUP2 MSTORE PUSH1 0x20 ADD PUSH2 0x4B0D PUSH1 0x40 MLOAD DUP1 PUSH1 0x40 ADD PUSH1 0x40 MSTORE DUP1 PUSH1 0x0 DUP2 MSTORE PUSH1 0x20 ADD PUSH1 0x0 DUP2 MSTORE POP SWAP1 JUMP JUMPDEST DUP2 MSTORE PUSH1 0x20 ADD PUSH2 0x4B2F PUSH1 0x40 MLOAD DUP1 PUSH1 0x40 ADD PUSH1 0x40 MSTORE DUP1 PUSH1 0x0 DUP2 MSTORE PUSH1 0x20 ADD PUSH1 0x0 DUP2 MSTORE POP SWAP1 JUMP JUMPDEST DUP2 MSTORE PUSH1 0x20 ADD PUSH2 0x4B51 PUSH1 0x40 MLOAD DUP1 PUSH1 0x40 ADD PUSH1 0x40 MSTORE DUP1 PUSH1 0x0 DUP2 MSTORE PUSH1 0x20 ADD PUSH1 0x0 DUP2 MSTORE POP SWAP1 JUMP JUMPDEST DUP2 MSTORE PUSH1 0x20 ADD PUSH2 0x4B73 PUSH1 0x40 MLOAD DUP1 PUSH1 0x40 ADD PUSH1 0x40 MSTORE DUP1 PUSH1 0x0 DUP2 MSTORE PUSH1 0x20 ADD PUSH1 0x0 DUP2 MSTORE POP SWAP1 JUMP JUMPDEST DUP2 MSTORE PUSH1 0x20 ADD PUSH2 0x4B95 PUSH1 0x40 MLOAD DUP1 PUSH1 0x40 ADD PUSH1 0x40 MSTORE DUP1 PUSH1 0x0 DUP2 MSTORE PUSH1 0x20 ADD PUSH1 0x0 DUP2 MSTORE POP SWAP1 JUMP JUMPDEST DUP2 MSTORE PUSH1 0x20 ADD PUSH2 0x4BB7 PUSH1 0x40 MLOAD DUP1 PUSH1 0x40 ADD PUSH1 0x40 MSTORE DUP1 PUSH1 0x0 DUP2 MSTORE PUSH1 0x20 ADD PUSH1 0x0 DUP2 MSTORE POP SWAP1 JUMP JUMPDEST DUP2 MSTORE PUSH1 0x20 ADD PUSH2 0x4BD9 PUSH1 0x40 MLOAD DUP1 PUSH1 0x40 ADD PUSH1 0x40 MSTORE DUP1 PUSH1 0x0 DUP2 MSTORE PUSH1 0x20 ADD PUSH1 0x0 DUP2 MSTORE POP SWAP1 JUMP JUMPDEST DUP2 MSTORE PUSH1 0x20 ADD PUSH2 0x4BFB PUSH1 0x40 MLOAD DUP1 PUSH1 0x40 ADD PUSH1 0x40 MSTORE DUP1 PUSH1 0x0 DUP2 MSTORE PUSH1 0x20 ADD PUSH1 0x0 DUP2 MSTORE POP SWAP1 JUMP JUMPDEST DUP2 MSTORE PUSH1 0x20 ADD PUSH2 0x4C1D PUSH1 0x40 MLOAD DUP1 PUSH1 0x40 ADD PUSH1 0x40 MSTORE DUP1 PUSH1 0x0 DUP2 MSTORE PUSH1 0x20 ADD PUSH1 0x0 DUP2 MSTORE POP SWAP1 JUMP JUMPDEST DUP2 MSTORE PUSH1 0x20 ADD PUSH2 0x4C3F PUSH1 0x40 MLOAD DUP1 PUSH1 0x40 ADD PUSH1 0x40 MSTORE DUP1 PUSH1 0x0 DUP2 MSTORE PUSH1 0x20 ADD PUSH1 0x0 DUP2 MSTORE POP SWAP1 JUMP JUMPDEST DUP2 MSTORE PUSH1 0x20 ADD PUSH2 0x4C61 PUSH1 0x40 MLOAD DUP1 PUSH1 0x40 ADD PUSH1 0x40 MSTORE DUP1 PUSH1 0x0 DUP2 MSTORE PUSH1 0x20 ADD PUSH1 0x0 DUP2 MSTORE POP SWAP1 JUMP JUMPDEST DUP2 MSTORE PUSH1 0x20 ADD PUSH2 0x4C83 PUSH1 0x40 MLOAD DUP1 PUSH1 0x40 ADD PUSH1 0x40 MSTORE DUP1 PUSH1 0x0 DUP2 MSTORE PUSH1 0x20 ADD PUSH1 0x0 DUP2 MSTORE POP SWAP1 JUMP JUMPDEST DUP2 MSTORE PUSH1 0x20 ADD PUSH2 0x4CA5 PUSH1 0x40 MLOAD DUP1 PUSH1 0x40 ADD PUSH1 0x40 MSTORE DUP1 PUSH1 0x0 DUP2 MSTORE PUSH1 0x20 ADD PUSH1 0x0 DUP2 MSTORE POP SWAP1 JUMP JUMPDEST DUP2 MSTORE PUSH1 0x20 ADD PUSH2 0x4CC7 PUSH1 0x40 MLOAD DUP1 PUSH1 0x40 ADD PUSH1 0x40 MSTORE DUP1 PUSH1 0x0 DUP2 MSTORE PUSH1 0x20 ADD PUSH1 0x0 DUP2 MSTORE POP SWAP1 JUMP JUMPDEST DUP2 MSTORE PUSH1 0x20 ADD PUSH2 0x4CE9 PUSH1 0x40 MLOAD DUP1 PUSH1 0x40 ADD PUSH1 0x40 MSTORE DUP1 PUSH1 0x0 DUP2 MSTORE PUSH1 0x20 ADD PUSH1 0x0 DUP2 MSTORE POP SWAP1 JUMP JUMPDEST DUP2 MSTORE PUSH1 0x20 ADD PUSH2 0x4D0B PUSH1 0x40 MLOAD DUP1 PUSH1 0x40 ADD PUSH1 0x40 MSTORE DUP1 PUSH1 0x0 DUP2 MSTORE PUSH1 0x20 ADD PUSH1 0x0 DUP2 MSTORE POP SWAP1 JUMP JUMPDEST DUP2 MSTORE PUSH1 0x20 ADD PUSH2 0x4D2D PUSH1 0x40 MLOAD DUP1 PUSH1 0x40 ADD PUSH1 0x40 MSTORE DUP1 PUSH1 0x0 DUP2 MSTORE PUSH1 0x20 ADD PUSH1 0x0 DUP2 MSTORE POP SWAP1 JUMP JUMPDEST DUP2 MSTORE PUSH1 0x20 ADD PUSH2 0x4D4F PUSH1 0x40 MLOAD DUP1 PUSH1 0x40 ADD PUSH1 0x40 MSTORE DUP1 PUSH1 0x0 DUP2 MSTORE PUSH1 0x20 ADD PUSH1 0x0 DUP2 MSTORE POP SWAP1 JUMP JUMPDEST DUP2 MSTORE PUSH1 0x20 ADD PUSH2 0x4D71 PUSH1 0x40 MLOAD DUP1 PUSH1 0x40 ADD PUSH1 0x40 MSTORE DUP1 PUSH1 0x0 DUP2 MSTORE PUSH1 0x20 ADD PUSH1 0x0 DUP2 MSTORE POP SWAP1 JUMP JUMPDEST DUP2 MSTORE PUSH1 0x20 ADD PUSH2 0x4D93 PUSH1 0x40 MLOAD DUP1 PUSH1 0x40 ADD PUSH1 0x40 MSTORE DUP1 PUSH1 0x0 DUP2 MSTORE PUSH1 0x20 ADD PUSH1 0x0 DUP2 MSTORE POP SWAP1 JUMP JUMPDEST DUP2 MSTORE PUSH1 0x20 ADD PUSH2 0x4DB5 PUSH1 0x40 MLOAD DUP1 PUSH1 0x40 ADD PUSH1 0x40 MSTORE DUP1 PUSH1 0x0 DUP2 MSTORE PUSH1 0x20 ADD PUSH1 0x0 DUP2 MSTORE POP SWAP1 JUMP JUMPDEST SWAP1 MSTORE SWAP1 JUMP JUMPDEST PUSH1 0x40 MLOAD DUP1 PUSH2 0x1C0 ADD PUSH1 0x40 MSTORE DUP1 PUSH2 0x4DCE PUSH2 0x4F5E JUMP JUMPDEST DUP2 MSTORE PUSH1 0x20 ADD PUSH2 0x4DDB PUSH2 0x4F5E JUMP JUMPDEST DUP2 MSTORE PUSH1 0x20 ADD PUSH2 0x4DE8 PUSH2 0x4F5E JUMP JUMPDEST DUP2 MSTORE PUSH1 0x20 ADD PUSH2 0x4DF5 PUSH2 0x4F5E JUMP JUMPDEST DUP2 MSTORE PUSH1 0x20 ADD PUSH2 0x4E02 PUSH2 0x4F5E JUMP JUMPDEST DUP2 MSTORE PUSH1 0x20 ADD PUSH2 0x4E0F PUSH2 0x4F5E JUMP JUMPDEST DUP2 MSTORE PUSH1 0x20 ADD PUSH2 0x4E1C PUSH2 0x4F5E JUMP JUMPDEST DUP2 MSTORE PUSH1 0x20 ADD PUSH2 0x4E29 PUSH2 0x4F5E JUMP JUMPDEST DUP2 MSTORE PUSH1 0x20 ADD PUSH2 0x4E36 PUSH2 0x50BB JUMP JUMPDEST DUP2 MSTORE PUSH1 0x20 ADD PUSH2 0x4E43 PUSH2 0x50E9 JUMP JUMPDEST DUP2 MSTORE PUSH1 0x20 ADD PUSH2 0x4E50 PUSH2 0x5108 JUMP JUMPDEST DUP2 MSTORE PUSH1 0x20 ADD PUSH2 0x4E5D PUSH2 0x4FC4 JUMP JUMPDEST DUP2 MSTORE PUSH1 0x20 ADD PUSH2 0x4E6A PUSH2 0x4F5E JUMP JUMPDEST DUP2 MSTORE PUSH1 0x20 ADD PUSH2 0x4DB5 PUSH2 0x4F5E JUMP JUMPDEST PUSH1 0x40 MLOAD DUP1 PUSH2 0x100 ADD PUSH1 0x40 MSTORE DUP1 PUSH2 0x4EBC PUSH1 0x40 MLOAD DUP1 PUSH1 0xC0 ADD PUSH1 0x40 MSTORE DUP1 PUSH1 0x0 DUP2 MSTORE PUSH1 0x20 ADD PUSH1 0x0 DUP2 MSTORE PUSH1 0x20 ADD PUSH1 0x0 DUP2 MSTORE PUSH1 0x20 ADD PUSH1 0x0 DUP2 MSTORE PUSH1 0x20 ADD PUSH1 0x0 DUP2 MSTORE PUSH1 0x20 ADD PUSH1 0x0 DUP2 MSTORE POP SWAP1 JUMP JUMPDEST DUP2 MSTORE PUSH1 0x20 ADD PUSH2 0x4EC9 PUSH2 0x4F86 JUMP JUMPDEST DUP2 MSTORE PUSH1 0x20 ADD PUSH2 0x4ED6 PUSH2 0x4FC4 JUMP JUMPDEST DUP2 MSTORE PUSH1 0x20 ADD PUSH2 0x4EE3 PUSH2 0x4FC4 JUMP JUMPDEST DUP2 MSTORE PUSH1 0x20 ADD PUSH1 0x0 DUP2 MSTORE PUSH1 0x20 ADD PUSH1 0x0 DUP2 MSTORE PUSH1 0x20 ADD PUSH1 0x0 DUP2 MSTORE PUSH1 0x20 ADD PUSH1 0x0 DUP2 MSTORE POP SWAP1 JUMP JUMPDEST PUSH1 0x40 MLOAD DUP1 PUSH2 0x8C0 ADD PUSH1 0x40 MSTORE DUP1 PUSH1 0x46 SWAP1 PUSH1 0x20 DUP3 MUL DUP1 CALLDATASIZE DUP4 CALLDATACOPY POP SWAP2 SWAP3 SWAP2 POP POP JUMP JUMPDEST PUSH1 0x40 MLOAD DUP1 PUSH2 0x8C0 ADD PUSH1 0x40 MSTORE DUP1 PUSH1 0x46 SWAP1 JUMPDEST PUSH1 0x40 DUP1 MLOAD DUP1 DUP3 ADD SWAP1 SWAP2 MSTORE PUSH1 0x0 DUP1 DUP3 MSTORE PUSH1 0x20 DUP3 ADD MSTORE DUP2 MSTORE PUSH1 0x20 ADD SWAP1 PUSH1 0x1 SWAP1 SUB SWAP1 DUP2 PUSH2 0x4F34 JUMPI SWAP1 POP POP SWAP1 JUMP JUMPDEST PUSH1 0x40 MLOAD DUP1 PUSH1 0x80 ADD PUSH1 0x40 MSTORE DUP1 PUSH1 0x0 DUP2 MSTORE PUSH1 0x20 ADD PUSH1 0x0 DUP2 MSTORE PUSH1 0x20 ADD PUSH1 0x0 DUP2 MSTORE PUSH1 0x20 ADD PUSH1 0x0 DUP2 MSTORE POP SWAP1 JUMP JUMPDEST PUSH1 0x40 MLOAD DUP1 PUSH2 0x320 ADD PUSH1 0x40 MSTORE DUP1 PUSH1 0x19 SWAP1 PUSH1 0x20 DUP3 MUL DUP1 CALLDATASIZE DUP4 CALLDATACOPY POP SWAP2 SWAP3 SWAP2 POP POP JUMP JUMPDEST PUSH1 0x40 MLOAD DUP1 PUSH2 0x120 ADD PUSH1 0x40 MSTORE DUP1 PUSH1 0x9 SWAP1 PUSH1 0x20 DUP3 MUL DUP1 CALLDATASIZE DUP4 CALLDATACOPY POP SWAP2 SWAP3 SWAP2 POP POP JUMP JUMPDEST PUSH1 0x40 MLOAD DUP1 PUSH2 0x380 ADD PUSH1 0x40 MSTORE DUP1 PUSH1 0x1C SWAP1 PUSH1 0x20 DUP3 MUL DUP1 CALLDATASIZE DUP4 CALLDATACOPY POP SWAP2 SWAP3 SWAP2 POP POP JUMP JUMPDEST PUSH1 0x40 MLOAD DUP1 PUSH2 0x520 ADD PUSH1 0x40 MSTORE DUP1 PUSH1 0x29 SWAP1 PUSH1 0x20 DUP3 MUL DUP1 CALLDATASIZE DUP4 CALLDATACOPY POP SWAP2 SWAP3 SWAP2 POP POP JUMP JUMPDEST PUSH1 0x40 MLOAD DUP1 PUSH2 0xDA0 ADD PUSH1 0x40 MSTORE DUP1 PUSH1 0x6D SWAP1 PUSH1 0x20 DUP3 MUL DUP1 CALLDATASIZE DUP4 CALLDATACOPY POP SWAP2 SWAP3 SWAP2 POP POP JUMP JUMPDEST PUSH1 0x40 MLOAD DUP1 PUSH2 0x3A0 ADD PUSH1 0x40 MSTORE DUP1 PUSH1 0x1D SWAP1 PUSH1 0x20 DUP3 MUL DUP1 CALLDATASIZE DUP4 CALLDATACOPY POP SWAP2 SWAP3 SWAP2 POP POP JUMP JUMPDEST PUSH1 0x40 MLOAD DUP1 PUSH1 0xA0 ADD PUSH1 0x40 MSTORE DUP1 PUSH1 0x5 SWAP1 PUSH1 0x20 DUP3 MUL DUP1 CALLDATASIZE DUP4 CALLDATACOPY POP SWAP2 SWAP3 SWAP2 POP POP JUMP JUMPDEST PUSH1 0x40 MLOAD DUP1 PUSH2 0x100 ADD PUSH1 0x40 MSTORE DUP1 PUSH1 0x8 SWAP1 PUSH1 0x20 DUP3 MUL DUP1 CALLDATASIZE DUP4 CALLDATACOPY POP SWAP2 SWAP3 SWAP2 POP POP JUMP JUMPDEST PUSH1 0x40 MLOAD DUP1 PUSH2 0x340 ADD PUSH1 0x40 MSTORE DUP1 PUSH1 0x1A SWAP1 PUSH1 0x20 DUP3 MUL DUP1 CALLDATASIZE DUP4 CALLDATACOPY POP SWAP2 SWAP3 SWAP2 POP POP JUMP JUMPDEST PUSH1 0x40 MLOAD DUP1 PUSH2 0x1A0 ADD PUSH1 0x40 MSTORE DUP1 PUSH1 0xD SWAP1 PUSH1 0x20 DUP3 MUL DUP1 CALLDATASIZE DUP4 CALLDATACOPY POP SWAP2 SWAP3 SWAP2 POP POP JUMP JUMPDEST PUSH1 0x40 MLOAD DUP1 PUSH2 0x380 ADD PUSH1 0x40 MSTORE DUP1 PUSH1 0x1C SWAP1 JUMPDEST PUSH2 0x50D3 PUSH2 0x505E JUMP JUMPDEST DUP2 MSTORE PUSH1 0x20 ADD SWAP1 PUSH1 0x1 SWAP1 SUB SWAP1 DUP2 PUSH2 0x50CB JUMPI SWAP1 POP POP SWAP1 JUMP JUMPDEST PUSH1 0x40 MLOAD DUP1 PUSH2 0x500 ADD PUSH1 0x40 MSTORE DUP1 PUSH1 0x28 SWAP1 PUSH1 0x20 DUP3 MUL DUP1 CALLDATASIZE DUP4 CALLDATACOPY POP SWAP2 SWAP3 SWAP2 POP POP JUMP JUMPDEST PUSH1 0x40 MLOAD DUP1 PUSH2 0x360 ADD PUSH1 0x40 MSTORE DUP1 PUSH1 0x1B SWAP1 JUMPDEST PUSH2 0x5120 PUSH2 0x4F5E JUMP JUMPDEST DUP2 MSTORE PUSH1 0x20 ADD SWAP1 PUSH1 0x1 SWAP1 SUB SWAP1 DUP2 PUSH2 0x5118 JUMPI SWAP1 POP POP SWAP1 JUMP JUMPDEST PUSH1 0x0 DUP1 PUSH1 0x0 DUP1 PUSH1 0x40 DUP6 DUP8 SUB SLT ISZERO PUSH2 0x514C JUMPI PUSH1 0x0 DUP1 REVERT JUMPDEST DUP5 CALLDATALOAD PUSH8 0xFFFFFFFFFFFFFFFF DUP1 DUP3 GT ISZERO PUSH2 0x5164 JUMPI PUSH1 0x0 DUP1 REVERT JUMPDEST DUP2 DUP8 ADD SWAP2 POP DUP8 PUSH1 0x1F DUP4 ADD SLT PUSH2 0x5178 JUMPI PUSH1 0x0 DUP1 REVERT JUMPDEST DUP2 CALLDATALOAD DUP2 DUP2 GT ISZERO PUSH2 0x5187 JUMPI PUSH1 0x0 DUP1 REVERT JUMPDEST DUP9 PUSH1 0x20 DUP3 DUP6 ADD ADD GT ISZERO PUSH2 0x5199 JUMPI PUSH1 0x0 DUP1 REVERT JUMPDEST PUSH1 0x20 SWAP3 DUP4 ADD SWAP7 POP SWAP5 POP SWAP1 DUP7 ADD CALLDATALOAD SWAP1 DUP1 DUP3 GT ISZERO PUSH2 0x51B4 JUMPI PUSH1 0x0 DUP1 REVERT JUMPDEST DUP2 DUP8 ADD SWAP2 POP DUP8 PUSH1 0x1F DUP4 ADD SLT PUSH2 0x51C8 JUMPI PUSH1 0x0 DUP1 REVERT JUMPDEST DUP2 CALLDATALOAD DUP2 DUP2 GT ISZERO PUSH2 0x51D7 JUMPI PUSH1 0x0 DUP1 REVERT JUMPDEST DUP9 PUSH1 0x20 DUP3 PUSH1 0x5 SHL DUP6 ADD ADD GT ISZERO PUSH2 0x51EC JUMPI PUSH1 0x0 DUP1 REVERT JUMPDEST SWAP6 SWAP9 SWAP5 SWAP8 POP POP PUSH1 0x20 ADD SWAP5 POP POP POP JUMP JUMPDEST PUSH4 0x4E487B71 PUSH1 0xE0 SHL PUSH1 0x0 MSTORE PUSH1 0x11 PUSH1 0x4 MSTORE PUSH1 0x24 PUSH1 0x0 REVERT JUMPDEST DUP1 DUP3 MUL DUP2 ISZERO DUP3 DUP3 DIV DUP5 EQ OR PUSH2 0x20CE JUMPI PUSH2 0x20CE PUSH2 0x51FB JUMP JUMPDEST PUSH1 0x0 DUP1 DUP6 DUP6 GT ISZERO PUSH2 0x5238 JUMPI PUSH1 0x0 DUP1 REVERT JUMPDEST DUP4 DUP7 GT ISZERO PUSH2 0x5245 JUMPI PUSH1 0x0 DUP1 REVERT JUMPDEST POP POP DUP3 ADD SWAP4 SWAP2 SWAP1 SWAP3 SUB SWAP2 POP JUMP JUMPDEST DUP1 DUP3 ADD DUP1 DUP3 GT ISZERO PUSH2 0x20CE JUMPI PUSH2 0x20CE PUSH2 0x51FB JUMP JUMPDEST PUSH4 0x4E487B71 PUSH1 0xE0 SHL PUSH1 0x0 MSTORE PUSH1 0x32 PUSH1 0x4 MSTORE PUSH1 0x24 PUSH1 0x0 REVERT JUMPDEST PUSH1 0x0 PUSH1 0x1 DUP3 ADD PUSH2 0x528D JUMPI PUSH2 0x528D PUSH2 0x51FB JUMP JUMPDEST POP PUSH1 0x1 ADD SWAP1 JUMP JUMPDEST DUP2 DUP2 SUB DUP2 DUP2 GT ISZERO PUSH2 0x20CE JUMPI PUSH2 0x20CE PUSH2 0x51FB JUMP JUMPDEST DUP1 CALLDATALOAD PUSH1 0x20 DUP4 LT ISZERO PUSH2 0x20CE JUMPI PUSH1 0x0 NOT PUSH1 0x20 DUP5 SWAP1 SUB PUSH1 0x3 SHL SHL AND SWAP3 SWAP2 POP POP JUMP JUMPDEST PUSH1 0x0 DUP2 DUP4 DUP3 JUMPDEST PUSH1 0x9 DUP2 LT ISZERO PUSH2 0x52EA JUMPI DUP2 MLOAD DUP4 MSTORE PUSH1 0x20 SWAP3 DUP4 ADD SWAP3 SWAP1 SWAP2 ADD SWAP1 PUSH1 0x1 ADD PUSH2 0x52CB JUMP JUMPDEST POP POP POP PUSH2 0x120 DUP3 ADD SWAP1 POP SWAP3 SWAP2 POP POP JUMP JUMPDEST PUSH4 0x4E487B71 PUSH1 0xE0 SHL PUSH1 0x0 MSTORE PUSH1 0x12 PUSH1 0x4 MSTORE PUSH1 0x24 PUSH1 0x0 REVERT JUMPDEST PUSH1 0x0 DUP3 PUSH2 0x531F JUMPI PUSH2 0x531F PUSH2 0x52FA JUMP JUMPDEST POP DIV SWAP1 JUMP JUMPDEST PUSH1 0x0 DUP2 DUP4 DUP3 JUMPDEST PUSH1 0x29 DUP2 LT ISZERO PUSH2 0x5349 JUMPI DUP2 MLOAD DUP4 MSTORE PUSH1 0x20 SWAP3 DUP4 ADD SWAP3 SWAP1 SWAP2 ADD SWAP1 PUSH1 0x1 ADD PUSH2 0x532A JUMP JUMPDEST POP POP POP PUSH2 0x520 DUP3 ADD SWAP1 POP SWAP3 SWAP2 POP POP JUMP JUMPDEST PUSH1 0x0 DUP2 DUP4 DUP3 JUMPDEST PUSH1 0x6D DUP2 LT ISZERO PUSH2 0x537E JUMPI DUP2 MLOAD DUP4 MSTORE PUSH1 0x20 SWAP3 DUP4 ADD SWAP3 SWAP1 SWAP2 ADD SWAP1 PUSH1 0x1 ADD PUSH2 0x535F JUMP JUMPDEST POP POP POP PUSH2 0xDA0 DUP3 ADD SWAP1 POP SWAP3 SWAP2 POP POP JUMP JUMPDEST PUSH1 0x0 DUP2 DUP4 DUP3 JUMPDEST PUSH1 0x1D DUP2 LT ISZERO PUSH2 0x53B3 JUMPI DUP2 MLOAD DUP4 MSTORE PUSH1 0x20 SWAP3 DUP4 ADD SWAP3 SWAP1 SWAP2 ADD SWAP1 PUSH1 0x1 ADD PUSH2 0x5394 JUMP JUMPDEST POP POP POP PUSH2 0x3A0 DUP3 ADD SWAP1 POP SWAP3 SWAP2 POP POP JUMP JUMPDEST PUSH1 0x0 DUP2 DUP4 DUP3 JUMPDEST PUSH1 0x5 DUP2 LT ISZERO PUSH2 0x53E8 JUMPI DUP2 MLOAD DUP4 MSTORE PUSH1 0x20 SWAP3 DUP4 ADD SWAP3 SWAP1 SWAP2 ADD SWAP1 PUSH1 0x1 ADD PUSH2 0x53C9 JUMP JUMPDEST POP POP POP PUSH1 0xA0 DUP3 ADD SWAP1 POP SWAP3 SWAP2 POP POP JUMP JUMPDEST PUSH1 0x0 DUP3 PUSH2 0x5406 JUMPI PUSH2 0x5406 PUSH2 0x52FA JUMP JUMPDEST POP MOD SWAP1 JUMP JUMPDEST PUSH1 0x0 DUP2 PUSH2 0x541A JUMPI PUSH2 0x541A PUSH2 0x51FB JUMP JUMPDEST POP PUSH1 0x0 NOT ADD SWAP1 JUMP JUMPDEST PUSH1 0x0 DUP3 MLOAD PUSH1 0x0 JUMPDEST DUP2 DUP2 LT ISZERO PUSH2 0x5443 JUMPI PUSH1 0x20 DUP2 DUP7 ADD DUP2 ADD MLOAD DUP6 DUP4 ADD MSTORE ADD PUSH2 0x5429 JUMP JUMPDEST POP PUSH1 0x0 SWAP3 ADD SWAP2 DUP3 MSTORE POP SWAP2 SWAP1 POP JUMP JUMPDEST PUSH1 0x0 PUSH1 0x20 DUP3 DUP5 SUB SLT ISZERO PUSH2 0x5463 JUMPI PUSH1 0x0 DUP1 REVERT JUMPDEST DUP2 MLOAD DUP1 ISZERO ISZERO DUP2 EQ PUSH2 0x1A3B JUMPI PUSH1 0x0 DUP1 REVERT JUMPDEST PUSH4 0x4E487B71 PUSH1 0xE0 SHL PUSH1 0x0 MSTORE PUSH1 0x41 PUSH1 0x4 MSTORE PUSH1 0x24 PUSH1 0x0 REVERT JUMPDEST DUP2 MLOAD PUSH1 0x0 SWAP1 DUP3 SWAP1 PUSH1 0x20 DUP1 DUP7 ADD DUP5 JUMPDEST DUP4 DUP2 LT ISZERO PUSH2 0x54B3 JUMPI DUP2 MLOAD DUP6 MSTORE SWAP4 DUP3 ADD SWAP4 SWAP1 DUP3 ADD SWAP1 PUSH1 0x1 ADD PUSH2 0x5497 JUMP JUMPDEST POP SWAP3 SWAP7 SWAP6 POP POP POP POP POP POP JUMP JUMPDEST PUSH1 0x0 DUP2 DUP4 DUP3 JUMPDEST PUSH1 0xD DUP2 LT ISZERO PUSH2 0x54E4 JUMPI DUP2 MLOAD DUP4 MSTORE PUSH1 0x20 SWAP3 DUP4 ADD SWAP3 SWAP1 SWAP2 ADD SWAP1 PUSH1 0x1 ADD PUSH2 0x54C5 JUMP JUMPDEST POP POP POP PUSH2 0x1A0 DUP3 ADD SWAP1 POP SWAP3 SWAP2 POP POP JUMP JUMPDEST PUSH4 0x4E487B71 PUSH1 0xE0 SHL PUSH1 0x0 MSTORE PUSH1 0x21 PUSH1 0x4 MSTORE PUSH1 0x24 PUSH1 0x0 REVERT INVALID ADDRESS PUSH5 0x4E72E131A0 0x29 0xB8 POP GASLIMIT 0xB6 DUP2 DUP2 PC 0x5D 0x28 CALLER 0xE8 BASEFEE PUSH26 0xB9709143E1F593F0000001A26469706673582212207B3A9E66C4 SWAP4 0xF8 0xAB PUSH25 0x7CAD25EF67173964AB14C6256B040908327E8BBA1F8E9F6473 PUSH16 0x6C634300081500330000000000000000 "},"methodIdentifiers":{"verify(bytes,bytes32[])":"ea50d0e4"}}}}}