{"contracts/Escrow.sol":{"OBEscrow":{"abi":[{"inputs":[{"internalType":"address","name":"_paymentToken","type":"address"}],"stateMutability":"nonpayable","type":"constructor"},{"inputs":[{"internalType":"uint256","name":"_amount","type":"uint256"},{"internalType":"uint256","name":"_commitment","type":"uint256"}],"name":"deposit","outputs":[],"stateMutability":"nonpayable","type":"function"},{"inputs":[{"internalType":"address","name":"","type":"address"}],"name":"escrowData","outputs":[{"internalType":"uint256","name":"amount","type":"uint256"},{"internalType":"uint256","name":"commitment","type":"uint256"}],"stateMutability":"view","type":"function"},{"inputs":[],"name":"paymentToken","outputs":[{"internalType":"address","name":"","type":"address"}],"stateMutability":"view","type":"function"},{"inputs":[],"name":"verifier","outputs":[{"internalType":"contract HonkVerifier","name":"","type":"address"}],"stateMutability":"view","type":"function"},{"inputs":[{"internalType":"bytes","name":"_proof","type":"bytes"},{"internalType":"bytes32[]","name":"_publicInputs","type":"bytes32[]"}],"name":"verifyTest","outputs":[{"internalType":"bool","name":"","type":"bool"}],"stateMutability":"view","type":"function"},{"inputs":[{"internalType":"bytes","name":"_proof","type":"bytes"},{"internalType":"uint256","name":"_amount","type":"uint256"},{"internalType":"uint256","name":"_commitment","type":"uint256"},{"internalType":"address","name":"_from","type":"address"}],"name":"withdraw","outputs":[],"stateMutability":"nonpayable","type":"function"}],"evm":{"bytecode":{"linkReferences":{},"object":"6080604052604051610010906100e1565b604051809103906000f08015801561002c573d6000803e3d6000fd5b506000806101000a81548173ffffffffffffffffffffffffffffffffffffffff021916908373ffffffffffffffffffffffffffffffffffffffff16021790555034801561007857600080fd5b50604051619058380380619058833981810160405281019061009a9190610151565b80600160006101000a81548173ffffffffffffffffffffffffffffffffffffffff021916908373ffffffffffffffffffffffffffffffffffffffff1602179055505061017e565b617d9b806112bd83390190565b600080fd5b600073ffffffffffffffffffffffffffffffffffffffff82169050919050565b600061011e826100f3565b9050919050565b61012e81610113565b811461013957600080fd5b50565b60008151905061014b81610125565b92915050565b600060208284031215610167576101666100ee565b5b60006101758482850161013c565b91505092915050565b6111308061018d6000396000f3fe608060405234801561001057600080fd5b50600436106100625760003560e01c80632b7ac3f3146100675780633013ce29146100855780634c674934146100a357806372236b82146100bf578063b12a2c54146100f0578063e2bbb15814610120575b600080fd5b61006f61013c565b60405161007c91906107b9565b60405180910390f35b61008d610160565b60405161009a91906107f5565b60405180910390f35b6100bd60048036038101906100b891906108e1565b610186565b005b6100d960048036038101906100d49190610969565b6104cc565b6040516100e79291906109a5565b60405180910390f35b61010a60048036038101906101059190610a24565b6104f0565b6040516101179190610ac0565b60405180910390f35b61013a60048036038101906101359190610adb565b61059d565b005b60008054906101000a900473ffffffffffffffffffffffffffffffffffffffff1681565b600160009054906101000a900473ffffffffffffffffffffffffffffffffffffffff1681565b6000600267ffffffffffffffff8111156101a3576101a2610b1b565b5b6040519080825280602002602001820160405280156101d15781602001602082028036833780820191505090505b5090508260001b816000815181106101ec576101eb610b4a565b5b6020026020010181815250508360001b816001815181106102105761020f610b4a565b5b60200260200101818152505060008054906101000a900473ffffffffffffffffffffffffffffffffffffffff1673ffffffffffffffffffffffffffffffffffffffff1663ea50d0e48787846040518463ffffffff1660e01b815260040161027993929190610c9f565b602060405180830381865afa158015610296573d6000803e3d6000fd5b505050506040513d601f19601f820116820180604052508101906102ba9190610d04565b6102f9576040517f08c379a00000000000000000000000000000000000000000000000000000000081526004016102f090610d8e565b60405180910390fd5b6000600260008473ffffffffffffffffffffffffffffffffffffffff1673ffffffffffffffffffffffffffffffffffffffff16815260200190815260200160002090508481600001541015610383576040517f08c379a000000000000000000000000000000000000000000000000000000000815260040161037a90610dfa565b60405180910390fd5b838160010154146103c9576040517f08c379a00000000000000000000000000000000000000000000000000000000081526004016103c090610e66565b60405180910390fd5b848160000160008282546103dd9190610eb5565b92505081905550600160009054906101000a900473ffffffffffffffffffffffffffffffffffffffff1673ffffffffffffffffffffffffffffffffffffffff1663a9059cbb33876040518363ffffffff1660e01b8152600401610441929190610ee9565b6020604051808303816000875af1158015610460573d6000803e3d6000fd5b505050506040513d601f19601f820116820180604052508101906104849190610d04565b6104c3576040517f08c379a00000000000000000000000000000000000000000000000000000000081526004016104ba90610f5e565b60405180910390fd5b50505050505050565b60026020528060005260406000206000915090508060000154908060010154905082565b60008060009054906101000a900473ffffffffffffffffffffffffffffffffffffffff1673ffffffffffffffffffffffffffffffffffffffff1663ea50d0e4868686866040518563ffffffff1660e01b81526004016105529493929190610fe8565b602060405180830381865afa15801561056f573d6000803e3d6000fd5b505050506040513d601f19601f820116820180604052508101906105939190610d04565b9050949350505050565b600082116105e0576040517f08c379a00000000000000000000000000000000000000000000000000000000081526004016105d79061106f565b60405180910390fd5b600160009054906101000a900473ffffffffffffffffffffffffffffffffffffffff1673ffffffffffffffffffffffffffffffffffffffff166323b872dd3330856040518463ffffffff1660e01b815260040161063f9392919061108f565b6020604051808303816000875af115801561065e573d6000803e3d6000fd5b505050506040513d601f19601f820116820180604052508101906106829190610d04565b6106c1576040517f08c379a00000000000000000000000000000000000000000000000000000000081526004016106b890610f5e565b60405180910390fd5b6000600260003373ffffffffffffffffffffffffffffffffffffffff1673ffffffffffffffffffffffffffffffffffffffff1681526020019081526020016000209050600081600101540361071a578181600101819055505b8281600001600082825461072e91906110c6565b92505081905550505050565b600073ffffffffffffffffffffffffffffffffffffffff82169050919050565b6000819050919050565b600061077f61077a6107758461073a565b61075a565b61073a565b9050919050565b600061079182610764565b9050919050565b60006107a382610786565b9050919050565b6107b381610798565b82525050565b60006020820190506107ce60008301846107aa565b92915050565b60006107df8261073a565b9050919050565b6107ef816107d4565b82525050565b600060208201905061080a60008301846107e6565b92915050565b600080fd5b600080fd5b600080fd5b600080fd5b600080fd5b60008083601f84011261083f5761083e61081a565b5b8235905067ffffffffffffffff81111561085c5761085b61081f565b5b60208301915083600182028301111561087857610877610824565b5b9250929050565b6000819050919050565b6108928161087f565b811461089d57600080fd5b50565b6000813590506108af81610889565b92915050565b6108be816107d4565b81146108c957600080fd5b50565b6000813590506108db816108b5565b92915050565b6000806000806000608086880312156108fd576108fc610810565b5b600086013567ffffffffffffffff81111561091b5761091a610815565b5b61092788828901610829565b9550955050602061093a888289016108a0565b935050604061094b888289016108a0565b925050606061095c888289016108cc565b9150509295509295909350565b60006020828403121561097f5761097e610810565b5b600061098d848285016108cc565b91505092915050565b61099f8161087f565b82525050565b60006040820190506109ba6000830185610996565b6109c76020830184610996565b9392505050565b60008083601f8401126109e4576109e361081a565b5b8235905067ffffffffffffffff811115610a0157610a0061081f565b5b602083019150836020820283011115610a1d57610a1c610824565b5b9250929050565b60008060008060408587031215610a3e57610a3d610810565b5b600085013567ffffffffffffffff811115610a5c57610a5b610815565b5b610a6887828801610829565b9450945050602085013567ffffffffffffffff811115610a8b57610a8a610815565b5b610a97878288016109ce565b925092505092959194509250565b60008115159050919050565b610aba81610aa5565b82525050565b6000602082019050610ad56000830184610ab1565b92915050565b60008060408385031215610af257610af1610810565b5b6000610b00858286016108a0565b9250506020610b11858286016108a0565b9150509250929050565b7f4e487b7100000000000000000000000000000000000000000000000000000000600052604160045260246000fd5b7f4e487b7100000000000000000000000000000000000000000000000000000000600052603260045260246000fd5b600082825260208201905092915050565b82818337600083830152505050565b6000601f19601f8301169050919050565b6000610bb68385610b79565b9350610bc3838584610b8a565b610bcc83610b99565b840190509392505050565b600081519050919050565b600082825260208201905092915050565b6000819050602082019050919050565b6000819050919050565b610c1681610c03565b82525050565b6000610c288383610c0d565b60208301905092915050565b6000602082019050919050565b6000610c4c82610bd7565b610c568185610be2565b9350610c6183610bf3565b8060005b83811015610c92578151610c798882610c1c565b9750610c8483610c34565b925050600181019050610c65565b5085935050505092915050565b60006040820190508181036000830152610cba818587610baa565b90508181036020830152610cce8184610c41565b9050949350505050565b610ce181610aa5565b8114610cec57600080fd5b50565b600081519050610cfe81610cd8565b92915050565b600060208284031215610d1a57610d19610810565b5b6000610d2884828501610cef565b91505092915050565b600082825260208201905092915050565b7f496e76616c69642070726f6f6600000000000000000000000000000000000000600082015250565b6000610d78600d83610d31565b9150610d8382610d42565b602082019050919050565b60006020820190508181036000830152610da781610d6b565b9050919050565b7f496e73756666696369656e742062616c616e6365000000000000000000000000600082015250565b6000610de4601483610d31565b9150610def82610dae565b602082019050919050565b60006020820190508181036000830152610e1381610dd7565b9050919050565b7f496e76616c696420726563697069656e7420636f6d6d69746d656e7400000000600082015250565b6000610e50601c83610d31565b9150610e5b82610e1a565b602082019050919050565b60006020820190508181036000830152610e7f81610e43565b9050919050565b7f4e487b7100000000000000000000000000000000000000000000000000000000600052601160045260246000fd5b6000610ec08261087f565b9150610ecb8361087f565b9250828203905081811115610ee357610ee2610e86565b5b92915050565b6000604082019050610efe60008301856107e6565b610f0b6020830184610996565b9392505050565b7f546f6b656e207472616e73666572206661696c65640000000000000000000000600082015250565b6000610f48601583610d31565b9150610f5382610f12565b602082019050919050565b60006020820190508181036000830152610f7781610f3b565b9050919050565b600080fd5b82818337505050565b6000610f988385610be2565b93507f07ffffffffffffffffffffffffffffffffffffffffffffffffffffffffffffff831115610fcb57610fca610f7e565b5b602083029250610fdc838584610f83565b82840190509392505050565b60006040820190508181036000830152611003818688610baa565b90508181036020830152611018818486610f8c565b905095945050505050565b7f416d6f756e74206d7573742062652067726561746572207468616e207a65726f600082015250565b6000611059602083610d31565b915061106482611023565b602082019050919050565b600060208201905081810360008301526110888161104c565b9050919050565b60006060820190506110a460008301866107e6565b6110b160208301856107e6565b6110be6040830184610996565b949350505050565b60006110d18261087f565b91506110dc8361087f565b92508282019050808211156110f4576110f3610e86565b5b9291505056fea2646970667358221220cc333ed2881d3969a38cbecc7dcc97e8890059d0f20d4550c98eb2e60b24383764736f6c634300081c00336080604052348015600f57600080fd5b50617d7c8061001f6000396000f3fe608060405234801561001057600080fd5b506004361061002b5760003560e01c8063ea50d0e414610030575b600080fd5b61004a600480360381019061004591906171c7565b610060565b6040516100579190617263565b60405180910390f35b60008061006b6101db565b9050600061007987876101f0565b9050816040015185859050146100bb576040517ffa06659300000000000000000000000000000000000000000000000000000000815260040160405180910390fd5b60006100cd8287878660400151610e1d565b905061012d868680806020026020016040519081016040528093929190818152602001838360200280828437600081840152601f19601f820116905080830192505050505050508260600151836080015186600001518660400151610f1c565b816101800181815250506000610143838361101b565b90508061017c576040517f9fc3a21800000000000000000000000000000000000000000000000000000000815260040160405180910390fd5b6000610189848685611103565b9050806101c2576040517fa5d82e8a00000000000000000000000000000000000000000000000000000000815260040160405180910390fd5b8180156101cc5750805b95505050505050949350505050565b6101e3616989565b6101eb611d7a565b905090565b6101f8616b0a565b610200616b0a565b838360009060209261021493929190617288565b9061021f91906172e5565b60001c816000018181525050838360209060409261023f93929190617288565b9061024a91906172e5565b60001c816020018181525050838360409060609261026a93929190617288565b9061027591906172e5565b60001c816040018181525050604051806080016040528085856060906080926102a093929190617288565b906102ab91906172e5565b60001c8152602001858560809060a0926102c793929190617288565b906102d291906172e5565b60001c8152602001858560a09060c0926102ee93929190617288565b906102f991906172e5565b60001c8152602001858560c09060e09261031593929190617288565b9061032091906172e5565b60001c81525081606001819052506040518060800160405280858560e0906101009261034e93929190617288565b9061035991906172e5565b60001c81526020018585610100906101209261037793929190617288565b9061038291906172e5565b60001c8152602001858561012090610140926103a093929190617288565b906103ab91906172e5565b60001c8152602001858561014090610160926103c993929190617288565b906103d491906172e5565b60001c815250816080018190525060405180608001604052808585610160906101809261040393929190617288565b9061040e91906172e5565b60001c81526020018585610180906101a09261042c93929190617288565b9061043791906172e5565b60001c815260200185856101a0906101c09261045593929190617288565b9061046091906172e5565b60001c815260200185856101c0906101e09261047e93929190617288565b9061048991906172e5565b60001c8152508160a00181905250604051806080016040528085856101e090610200926104b893929190617288565b906104c391906172e5565b60001c8152602001858561020090610220926104e193929190617288565b906104ec91906172e5565b60001c81526020018585610220906102409261050a93929190617288565b9061051591906172e5565b60001c81526020018585610240906102609261053393929190617288565b9061053e91906172e5565b60001c81525081610100018190525060405180608001604052808585610260906102809261056e93929190617288565b9061057991906172e5565b60001c81526020018585610280906102a09261059793929190617288565b906105a291906172e5565b60001c815260200185856102a0906102c0926105c093929190617288565b906105cb91906172e5565b60001c815260200185856102c0906102e0926105e993929190617288565b906105f491906172e5565b60001c815250816101200181905250604051806080016040528085856102e0906103009261062493929190617288565b9061062f91906172e5565b60001c81526020018585610300906103209261064d93929190617288565b9061065891906172e5565b60001c81526020018585610320906103409261067693929190617288565b9061068191906172e5565b60001c81526020018585610340906103609261069f93929190617288565b906106aa91906172e5565b60001c8152508160c001819052506040518060800160405280858561036090610380926106d993929190617288565b906106e491906172e5565b60001c81526020018585610380906103a09261070293929190617288565b9061070d91906172e5565b60001c815260200185856103a0906103c09261072b93929190617288565b9061073691906172e5565b60001c815260200185856103c0906103e09261075493929190617288565b9061075f91906172e5565b60001c815250816101400181905250604051806080016040528085856103e0906104009261078f93929190617288565b9061079a91906172e5565b60001c8152602001858561040090610420926107b893929190617288565b906107c391906172e5565b60001c8152602001858561042090610440926107e193929190617288565b906107ec91906172e5565b60001c81526020018585610440906104609261080a93929190617288565b9061081591906172e5565b60001c8152508160e001819052506000610460905060005b601c8110156109125760006008602083610847919061737d565b610851919061737d565b8361085c91906173bf565b905060005b6008811015610903576000602082610879919061737d565b8361088491906173bf565b9050600060208261089591906173bf565b90506108bc8a8a849084926108ac93929190617288565b906108b791906172e5565b6126ed565b87610160015186601c81106108d4576108d36173f3565b5b602002015184600881106108eb576108ea6173f3565b5b60200201818152505050508080600101915050610861565b5050808060010191505061082d565b5060206008601c610923919061737d565b61092d919061737d565b8161093891906173bf565b905060005b602c8110156109c8576000602082610955919061737d565b8361096091906173bf565b9050600060208261097191906173bf565b905061099888888490849261098893929190617288565b9061099391906172e5565b6126ed565b85610180015184602c81106109b0576109af6173f3565b5b6020020181815250505050808060010191505061093d565b506020602c6109d7919061737d565b816109e291906173bf565b905060005b6001601c6109f59190617422565b811015610b3d576000608082610a0b919061737d565b83610a1691906173bf565b90506000602082610a2791906173bf565b905060008190506000602082610a3d91906173bf565b905060008190506000602082610a5391906173bf565b905060008190506000602082610a6991906173bf565b905060405180608001604052808f8f8b908b92610a8893929190617288565b90610a9391906172e5565b60001c81526020018f8f89908992610aad93929190617288565b90610ab891906172e5565b60001c81526020018f8f87908792610ad293929190617288565b90610add91906172e5565b60001c81526020018f8f85908592610af793929190617288565b90610b0291906172e5565b60001c8152508b6101a001518a601b8110610b2057610b1f6173f3565b5b6020020181905250505050505050505080806001019150506109e7565b5060806001601c610b4e9190617422565b610b58919061737d565b81610b6391906173bf565b905060005b601c811015610bf3576000602082610b80919061737d565b83610b8b91906173bf565b90506000602082610b9c91906173bf565b9050610bc3888884908492610bb393929190617288565b90610bbe91906172e5565b6126ed565b856101c0015184601c8110610bdb57610bda6173f3565b5b60200201818152505050508080600101915050610b68565b506020601c610c02919061737d565b81610c0d91906173bf565b9050604051806080016040528086868490602086610c2b91906173bf565b92610c3893929190617288565b90610c4391906172e5565b60001c81526020018686602085610c5a91906173bf565b90604086610c6891906173bf565b92610c7593929190617288565b90610c8091906172e5565b60001c81526020018686604085610c9791906173bf565b90606086610ca591906173bf565b92610cb293929190617288565b90610cbd91906172e5565b60001c81526020018686606085610cd491906173bf565b90608086610ce291906173bf565b92610cef93929190617288565b90610cfa91906172e5565b60001c815250826101e00181905250608081610d1691906173bf565b9050604051806080016040528086868490602086610d3491906173bf565b92610d4193929190617288565b90610d4c91906172e5565b60001c81526020018686602085610d6391906173bf565b90604086610d7191906173bf565b92610d7e93929190617288565b90610d8991906172e5565b60001c81526020018686604085610da091906173bf565b90606086610dae91906173bf565b92610dbb93929190617288565b90610dc691906172e5565b60001c81526020018686606085610ddd91906173bf565b90608086610deb91906173bf565b92610df893929190617288565b90610e0391906172e5565b60001c815250826102000181905250819250505092915050565b610e25616be2565b6000610e3386868686612725565b85600001866020018760400183975084815250848152508481525050505050610e5c8187612c11565b84606001856080018295508381525083815250505050610e7c8187612e82565b8360a0018193508290525050610e91816131a6565b8360c0018193508290525050610ea78682613232565b8360e0018193508290525050610ebd868261335d565b8361010001819350828152505050610ed58682613432565b8361012001819350828152505050610eed8682613622565b8361014001819350828152505050610f0586826136f7565b836101600181935082815250505050949350505050565b600080600190506000600190506000610f5187610f4c8a610f47898b610f4291906173bf565b613809565b61383e565b61387a565b90506000610f7c88610f778b610f7260018b610f6d91906173bf565b613809565b61383e565b6138b6565b905060005b6001811015611001576000610faf8c8381518110610fa257610fa16173f3565b5b60200260200101516126ed565b9050610fc486610fbf868461387a565b61383e565b9550610fd985610fd4858461387a565b61383e565b9450610fe5848c61387a565b9350610ff1838c6138b6565b9250508080600101915050610f81565b5061100c848461391d565b94505050505095945050505050565b60008060006001905060005b60128110156110de57600086610160015182601c811061104a576110496173f3565b5b60200201519050600061105d8286613939565b905080611096576040517f9fc3a21800000000000000000000000000000000000000000000000000000000815260040160405180910390fd5b60008760e0015184601c81106110af576110ae6173f3565b5b602002015190506110c0838261398b565b95506110ce88868387613bd4565b9450505050806001019050611027565b5060006110ec868684613c27565b90506110f88184613cae565b935050505092915050565b600061110d616c5c565b600061111d846101200151613cbb565b9050611127616c8b565b61112f616cae565b600061113b8785613d4a565b9050611185816000601d8110611154576111536173f3565b5b6020020151611180896101400151846001601d8110611176576111756173f3565b5b602002015161383e565b61387a565b8560000181815250506111ec61119f886101200151613e2e565b6111e7836000601d81106111b6576111b56173f3565b5b60200201516111e28b6101400151866001601d81106111d8576111d76173f3565b5b602002015161383e565b6138b6565b61383e565b8560200181815250506001836000604a811061120b5761120a6173f3565b5b602002018181525050611222896101e00151613ec5565b826000604a8110611236576112356173f3565b5b6020020181905250600185606001818152505060008560800181815250506000600190505b602381116113125761127d6112738760000151613f05565b876060015161383e565b8482604a81106112905761128f6173f3565b5b6020020181815250506112dc86608001516112d78c61018001516001856112b79190617422565b602c81106112c8576112c76173f3565b5b6020020151896060015161383e565b61387a565b8660800181815250506112f8866060015189610100015161383e565b8660600181815250508061130b90617456565b905061125b565b5060006001602361132391906173bf565b90505b602c81116113dd5761134861133e8760200151613f05565b876060015161383e565b8482604a811061135b5761135a6173f3565b5b6020020181815250506113a786608001516113a28c61018001516001856113829190617422565b602c8110611393576113926173f3565b5b6020020151896060015161383e565b61387a565b8660800181815250506113c3866060015189610100015161383e565b866060018181525050806113d690617456565b9050611326565b508760600151826001604a81106113f7576113f66173f3565b5b60200201819052508760800151826002604a8110611418576114176173f3565b5b60200201819052508760a00151826003604a8110611439576114386173f3565b5b60200201819052508760c00151826004604a811061145a576114596173f3565b5b60200201819052508760e00151826005604a811061147b5761147a6173f3565b5b6020020181905250876101000151826006604a811061149d5761149c6173f3565b5b6020020181905250876101200151826007604a81106114bf576114be6173f3565b5b6020020181905250876101400151826008604a81106114e1576114e06173f3565b5b6020020181905250876101800151826009604a8110611503576115026173f3565b5b602002018190525087610160015182600a604a8110611525576115246173f3565b5b6020020181905250876101a0015182600b604a8110611547576115466173f3565b5b6020020181905250876101c0015182600c604a8110611569576115686173f3565b5b6020020181905250876101e0015182600d604a811061158b5761158a6173f3565b5b602002018190525087610200015182600e604a81106115ad576115ac6173f3565b5b602002018190525087610220015182600f604a81106115cf576115ce6173f3565b5b6020020181905250876102400151826010604a81106115f1576115f06173f3565b5b6020020181905250876102600151826011604a8110611613576116126173f3565b5b6020020181905250876102800151826012604a8110611635576116346173f3565b5b6020020181905250876102a00151826013604a8110611657576116566173f3565b5b6020020181905250876102c00151826014604a8110611679576116786173f3565b5b6020020181905250876102e00151826015604a811061169b5761169a6173f3565b5b6020020181905250876103000151826016604a81106116bd576116bc6173f3565b5b6020020181905250876103200151826017604a81106116df576116de6173f3565b5b6020020181905250876103400151826018604a8110611701576117006173f3565b5b6020020181905250876103600151826019604a8110611723576117226173f3565b5b602002018190525087610380015182601a604a8110611745576117446173f3565b5b6020020181905250876103a0015182601b604a8110611767576117666173f3565b5b602002018190525061177c8960600151613ec5565b82601c604a81106117905761178f6173f3565b5b60200201819052506117a58960800151613ec5565b82601d604a81106117b9576117b86173f3565b5b60200201819052506117ce8960a00151613ec5565b82601e604a81106117e2576117e16173f3565b5b60200201819052506117f78960c00151613ec5565b82601f604a811061180b5761180a6173f3565b5b60200201819052506118208960e00151613ec5565b826020604a8110611834576118336173f3565b5b602002018190525061184a896101400151613ec5565b826021604a811061185e5761185d6173f3565b5b6020020181905250611874896101000151613ec5565b826022604a8110611888576118876173f3565b5b602002018190525061189e896101200151613ec5565b826023604a81106118b2576118b16173f3565b5b6020020181905250876103000151826024604a81106118d4576118d36173f3565b5b6020020181905250876103200151826025604a81106118f6576118f56173f3565b5b6020020181905250876103400151826026604a8110611918576119176173f3565b5b6020020181905250876103600151826027604a811061193a576119396173f3565b5b602002018190525061194f8960600151613ec5565b826028604a8110611963576119626173f3565b5b60200201819052506119788960800151613ec5565b826029604a811061198c5761198b6173f3565b5b60200201819052506119a18960a00151613ec5565b82602a604a81106119b5576119b46173f3565b5b60200201819052506119ca8960c00151613ec5565b82602b604a81106119de576119dd6173f3565b5b60200201819052506119f38960e00151613ec5565b82602c604a8110611a0757611a066173f3565b5b60200201819052506000856040018181525050611a28876101400151613f3a565b85606001818152505060005b6001601c611a429190617422565b811015611b9f57600060016012611a599190617422565b8210159050600081611ad657611a96886060015185600286611a7b91906173bf565b601d8110611a8c57611a8b6173f3565b5b602002015161383e565b9050611aa181613f05565b86846001602c611ab191906173bf565b611abb91906173bf565b604a8110611acc57611acb6173f3565b5b6020020181815250505b611b158860400151611b10838f6101c00151600188611af591906173bf565b601c8110611b0657611b056173f3565b5b602002015161383e565b61387a565b886040018181525050611b3188606001518b610140015161383e565b886060018181525050611b5f8c6101a0015184601b8110611b5557611b546173f3565b5b6020020151613ec5565b85846001602c611b6f91906173bf565b611b7991906173bf565b604a8110611b8a57611b896173f3565b5b60200201819052505050806001019050611a34565b506000611bb78887608001518c6101c0015188613f4d565b9050611be88660400151611be383856000601d8110611bd957611bd86173f3565b5b602002015161383e565b61387a565b866040018181525050611c4b8660400151611c46611c288d6101c001516000601c8110611c1857611c176173f3565b5b60200201518c610140015161383e565b856001601d8110611c3c57611c3b6173f3565b5b602002015161383e565b61387a565b866040018181525050604051806040016040528060018152602001600281525083601c602c611c7a91906173bf565b604a8110611c8b57611c8a6173f3565b5b6020020181905250856040015184601c602c611ca791906173bf565b604a8110611cb857611cb76173f3565b5b6020020181815250506000611cd18b6102000151613ec5565b905080846001601c602c611ce591906173bf565b611cef91906173bf565b604a8110611d0057611cff6173f3565b5b6020020181905250886101600151856001601c602c611d1f91906173bf565b611d2991906173bf565b604a8110611d3a57611d396173f3565b5b6020020181815250506000611d4f8587614083565b90506000611d5c83614150565b9050611d6882826141c4565b99505050505050505050509392505050565b611d82616989565b6000604051806103c00160405280620400008152602001601281526020016001815260200160405180604001604052807f2440abac72f98394c35664bea6047adf6a40735624c5958d550d857fc5a729dd81526020017f21279552df927ccd8198a544375c026a11b83fd878721fbfe3424d4065e1a0d6815250815260200160405180604001604052807f1936910be74825b9cda7c6cfc6ed13985edf7ce902efc5a5f1f02867abcb787c81526020017f08111d8c2bf4cd23d1b4ea067851c96ebc42026708372215902bccead697af75815250815260200160405180604001604052807f1372f33997f3c9868c8b1407d29181ab51a1c23550e77d14e2891352cd29feb581526020017f0bf35790f81533b5260ed60a0a2767d520c0f7e5bf24e94c025518b1ec832e9d815250815260200160405180604001604052807f18859e7abddc5963e090bcd411de1f311cbf23c3074a2b6f08dbb7d99484bedb81526020017f011a37f87b386a12a8baf952397cf5a73769ebee70dd46dd6b550ac9383f5ff3815250815260200160405180604001604052807f1d2c1bb1d6559b5293e8629bc427474efac42aea16a03c189ad76521ea4f228481526020017f1279b2ca670ea2de771eba3fd057d959446931616389345e3af53bdc3979dc9d815250815260200160405180604001604052807f014ef49b532b02a1924875cb34d2ae21e4b4f9c2bf67799f98d4ec28e8ee56b981526020017f169865b557618583457144735905f9bcc54c6e4f3f8732868c000aacea31586c815250815260200160405180604001604052807f2a06feea599bd4e5e74c5f28cc3400093ebcb579ea37ab677c691b4bbf89732381526020017e1167f3e1f222e6bac9710d40dd440f5d6111d24affc0591a9c5044e58a8bc6815250815260200160405180604001604052807f1d664c1a1071a2b99c50086d0b9abcea0735400afbdc246659e3117394a9ac3b81526020017f301d21aa2cab1eccadc97552a98795edb6c0a4f41acb396a7fa29bbf4c88ca55815250815260200160405180604001604052807f1b9e4ab7330f10aae4de806b1a16f618d1797369102286cc1d6f5312e204aab281526020017f0b3fefc5fa1420710d0fa96cf2c4cb5ff3070ab39937063e1037e32fa799d118815250815260200160405180604001604052807f2e7a2b60e4056e7e205817f3a6fc0e3b2da86e6820997074c90400f76598859c81526020017f08af47d2d72ea36780c352f219fa426353819250c6b96c1ced033649f87c393e815250815260200160405180604001604052807f043a7afe36334e6b70f93569c1a5fdd2411a0d81817b8e5676bd504f2b731a2d81526020017f2b2aa5736b59de44480b8e476b01d896b2c0b01c9ba682d6cf35497ade662840815250815260200160405180604001604052807f11a23114db5a2c93694759de70f0c15d038d91d483d733f7dfb996a6cae24edf81526020017f25d95ececc12ec37107ae134690d5b5edd0059f4cb70befe2bbba7cb9cc952fc815250815260200160405180604001604052807f199b66bcdbf44116a2657dd4b13f148a4c1f353e1a73005c5d1376a0847b503f81526020017f0dfcd53b8bffff4f4b5a743083fc77576c0890fc50cdf6cd1062edeeec0cb71a815250815260200160405180604001604052807f21cb8f08b23b4490f924b6a60706c0b3ff7727fc0052e9649aec2e5c0a5ada7381526020017f179c27198aae89092916517deee898108ce4637f2539ea2a409933cdd969634f815250815260200160405180604001604052807f130b82dd81eb3d7ed1dee71a2c3629dd2ac5129d3e87faeff026348f995ce2f381526020017f13e5885ab6314d43deb17738dda747ead8344706b24cc708a1571afb4b639c1d815250815260200160405180604001604052807f1aab4ed62aa275a5edb98240cd77e5b1b18ddb46f98082438e7604a80cf1462781526020017f13d4f041dedc94942529847a85253d7edf5d15acd19e23510e0bb44a93a49076815250815260200160405180604001604052807f255358708fd3d2237599ff4931d0345f64adf1921ec76e2e2ab9cbcb83d0aef581526020017f1e6609e9557b57407df8569ea6bbc93bf969ae35f432749398d2b21ef0e489d3815250815260200160405180604001604052807f2432edeee66b67f039a39d9246432543552e36cef5d10b974dd6ed19cf21ce5281526020017f04bde8c7777f42f1889eb647dd5c8acc1d69b76451367b1b72c2ba1f2b5c0e30815250815260200160405180604001604052807f2c147d501f73b3779f6751c8e330bb720919ad4d694f16d2348b4d092b07e78981526020017f0d2f25b54763ed3a681fcfad54cae1175cd6c3e625fc9152c5badd1f213b96db815250815260200160405180604001604052807f1992167d72cf4cde6d2cb046b78af684b898c697369034146a50b7451cc0bcd481526020017f2e31516e420550401ff16a061a720dab6fffb99c22ca2d504e4bc2c0aec6afe1815250815260200160405180604001604052807f2378566a867b2c4a9eb80669f6a2b8dbb0e4f71caea432ac1ede70e807ce52d681526020017f1b087938498411cda9425ac52ff3c407e9358be64c9cc09f7423748c55ebc422815250815260200160405180604001604052807f151ed523cfcec4952f91caf594be159dd1cd9f7a36129c6820e8cdada90808ed81526020017f2d50eec18dcc7819ab7dba531573c8fba9a5e21aaf06e6c6d637aaae72f02e3a815250815260200160405180604001604052807f2894e1eedd54e60f3981a1496e0b314b46071ba34a724776d6f71c6a19c2e65481526020017f172b9354d30fc85e03cc7c359fef280d5186b117182cbaca082ec8f5cca20ab9815250815260200160405180604001604052807f0ff23139f423bc5504d843f69fa7563935a81a0dbe3c08de6675a27c6df99a3881526020017f0a48dff44f8af0e150dce9731196a9b981fc2c81064109561567007200606e9d815250815260200160405180604001604052807f1ea2387f72e46131b26cddc9fb3f94da435bb9d49b91aa41f6ed398cd2f704a581526020017f067787a509a9d2fc45e9e30075da18e28f58079c5e35842a4207b434cb8bfb6881525081526020016040518060400160405280600181526020016002815250815260200160405180604001604052807f299e521aeaf9d912fdf26b9e82cd6b2afab83c04522736c587a08c290e3aff2481526020017f2c30e3714a22ab963eb1587b5266fd1f5cdc782491dd8985755c7b73bd222c4f81525081525090508091505090565b60007f30644e72e131a029b85045b68181585d2833e84879b9709143e1f593f00000018260001c61271e91906174cd565b9050919050565b6000806000806000600c86600361273c91906173bf565b61274691906173bf565b67ffffffffffffffff81111561275f5761275e6174fe565b5b60405190808252806020026020018201604052801561278d5781602001602082028036833780820191505090505b509050886000015160001b816000815181106127ac576127ab6173f3565b5b602002602001018181525050886020015160001b816001815181106127d4576127d36173f3565b5b602002602001018181525050886040015160001b816002815181106127fc576127fb6173f3565b5b60200260200101818152505060005b8681101561286557888882818110612826576128256173f3565b5b905060200201358282600361283b91906173bf565b8151811061284c5761284b6173f3565b5b602002602001018181525050808060010191505061280b565b5088606001516000015160001b8187600361288091906173bf565b81518110612891576128906173f3565b5b60200260200101818152505088606001516020015160001b8160018860036128b991906173bf565b6128c391906173bf565b815181106128d4576128d36173f3565b5b60200260200101818152505088606001516040015160001b8160028860036128fc91906173bf565b61290691906173bf565b81518110612917576129166173f3565b5b60200260200101818152505088606001516060015160001b81600388600361293f91906173bf565b61294991906173bf565b8151811061295a576129596173f3565b5b60200260200101818152505088608001516000015160001b81600488600361298291906173bf565b61298c91906173bf565b8151811061299d5761299c6173f3565b5b60200260200101818152505088608001516020015160001b8160058860036129c591906173bf565b6129cf91906173bf565b815181106129e0576129df6173f3565b5b60200260200101818152505088608001516040015160001b816006886003612a0891906173bf565b612a1291906173bf565b81518110612a2357612a226173f3565b5b60200260200101818152505088608001516060015160001b816007886003612a4b91906173bf565b612a5591906173bf565b81518110612a6657612a656173f3565b5b6020026020010181815250508860a001516000015160001b816008886003612a8e91906173bf565b612a9891906173bf565b81518110612aa957612aa86173f3565b5b6020026020010181815250508860a001516020015160001b816009886003612ad191906173bf565b612adb91906173bf565b81518110612aec57612aeb6173f3565b5b6020026020010181815250508860a001516040015160001b81600a886003612b1491906173bf565b612b1e91906173bf565b81518110612b2f57612b2e6173f3565b5b6020026020010181815250508860a001516060015160001b81600b886003612b5791906173bf565b612b6191906173bf565b81518110612b7257612b716173f3565b5b602002602001018181525050612bad81604051602001612b9291906175e5565b604051602081830303815290604052805190602001206126ed565b9150612bb8826143ab565b8095508196505050612bef82604051602001612bd4919061761d565b604051602081830303815290604052805190602001206126ed565b91506000612bfc836143ab565b80925081955050505050945094509450949050565b6000806000612c1e616cdc565b612c27866143f7565b816000600d8110612c3b57612c3a6173f3565b5b6020020181815250508461010001516000015160001b816001600d8110612c6557612c646173f3565b5b6020020181815250508461010001516020015160001b816002600d8110612c8f57612c8e6173f3565b5b6020020181815250508461010001516040015160001b816003600d8110612cb957612cb86173f3565b5b6020020181815250508461010001516060015160001b816004600d8110612ce357612ce26173f3565b5b6020020181815250508461012001516000015160001b816005600d8110612d0d57612d0c6173f3565b5b6020020181815250508461012001516020015160001b816006600d8110612d3757612d366173f3565b5b6020020181815250508461012001516040015160001b816007600d8110612d6157612d606173f3565b5b6020020181815250508461012001516060015160001b816008600d8110612d8b57612d8a6173f3565b5b6020020181815250508460c001516000015160001b816009600d8110612db457612db36173f3565b5b6020020181815250508460c001516020015160001b81600a600d8110612ddd57612ddc6173f3565b5b6020020181815250508460c001516040015160001b81600b600d8110612e0657612e056173f3565b5b6020020181815250508460c001516060015160001b81600c600d8110612e2f57612e2e6173f3565b5b602002018181525050612e6781604051602001612e4c91906176bc565b604051602081830303815290604052805190602001206126ed565b9150612e72826143ab565b8094508195505050509250925092565b612e8a616cff565b6000612e94616d22565b8481600060098110612ea957612ea86173f3565b5b6020020181815250508361014001516000015181600160098110612ed057612ecf6173f3565b5b6020020181815250508361014001516020015181600260098110612ef757612ef66173f3565b5b6020020181815250508361014001516040015181600360098110612f1e57612f1d6173f3565b5b6020020181815250508361014001516060015181600460098110612f4557612f446173f3565b5b6020020181815250508360e001516000015181600560098110612f6b57612f6a6173f3565b5b6020020181815250508360e001516020015181600660098110612f9157612f906173f3565b5b6020020181815250508360e001516040015181600760098110612fb757612fb66173f3565b5b6020020181815250508360e001516060015181600860098110612fdd57612fdc6173f3565b5b60200201818152505061301581604051602001612ffa9190617783565b604051602081830303815290604052805190602001206126ed565b9150613020826143ab565b84600060198110613034576130336173f3565b5b602002018560016019811061304c5761304b6173f3565b5b60200201828152508281525050506000600190505b6002601961306f919061779f565b811015613119576130a58360405160200161308a919061761d565b604051602081830303815290604052805190602001206126ed565b92506130b0836143ab565b858360026130be919061737d565b601981106130cf576130ce6173f3565b5b602002018660018560026130e3919061737d565b6130ed91906173bf565b601981106130fe576130fd6173f3565b5b60200201828152508281525050508080600101915050613061565b5060018060191614801561312e575060026019115b1561319e5761316282604051602001613147919061761d565b604051602081830303815290604052805190602001206126ed565b9150600061316f836143ab565b856001601961317e9190617422565b6019811061318f5761318e6173f3565b5b60200201819350828152505050505b509250929050565b6131ae616d45565b600080600090505b601c811015613229576131ee846040516020016131d3919061761d565b604051602081830303815290604052805190602001206126ed565b935060006131fb856143ab565b8584601c811061320e5761320d6173f3565b5b602002018193508281525050505080806001019150506131b6565b50829050915091565b61323a616d45565b600080600090505b601c81101561335257613253616d68565b8481600060098110613268576132676173f3565b5b60200201818152505060005b60088110156132e65786610160015183601c8110613295576132946173f3565b5b602002015181600881106132ac576132ab6173f3565b5b6020020151826001836132bf91906173bf565b600981106132d0576132cf6173f3565b5b6020020181815250508080600101915050613274565b50613316816040516020016132fb919061789c565b604051602081830303815290604052805190602001206126ed565b94506000613323866143ab565b8685601c8110613336576133356173f3565b5b6020020181935082815250505050508080600101915050613242565b508290509250929050565b600080613368616d8b565b83816000602d811061337d5761337c6173f3565b5b60200201818152505060005b602c8110156133e45785610180015181602c81106133aa576133a96173f3565b5b6020020151826001836133bd91906173bf565b602d81106133ce576133cd6173f3565b5b6020020181815250508080600101915050613389565b50613414816040516020016133f9919061793c565b604051602081830303815290604052805190602001206126ed565b91506000613421836143ab565b809250819550505050509250929050565b60008061343d616dae565b83816000606d8110613452576134516173f3565b5b60200201818152505060005b6001601c61346c9190617422565b8110156135d457856101a0015181601b811061348b5761348a6173f3565b5b602002015160000151826004836134a2919061737d565b60016134ae91906173bf565b606d81106134bf576134be6173f3565b5b602002018181525050856101a0015181601b81106134e0576134df6173f3565b5b602002015160200151826004836134f7919061737d565b600261350391906173bf565b606d8110613514576135136173f3565b5b602002018181525050856101a0015181601b8110613535576135346173f3565b5b6020020151604001518260048361354c919061737d565b600361355891906173bf565b606d8110613569576135686173f3565b5b602002018181525050856101a0015181601b811061358a576135896173f3565b5b602002015160600151826004836135a1919061737d565b60046135ad91906173bf565b606d81106135be576135bd6173f3565b5b602002018181525050808060010191505061345e565b50613604816040516020016135e991906179dc565b604051602081830303815290604052805190602001206126ed565b91506000613611836143ab565b809250819550505050509250929050565b60008061362d616dd1565b83816000601d8110613642576136416173f3565b5b60200201818152505060005b601c8110156136a957856101c0015181601c811061366f5761366e6173f3565b5b60200201518260018361368291906173bf565b601d8110613693576136926173f3565b5b602002018181525050808060010191505061364e565b506136d9816040516020016136be9190617a7c565b604051602081830303815290604052805190602001206126ed565b915060006136e6836143ab565b809250819550505050509250929050565b600080613702616df4565b8381600060058110613717576137166173f3565b5b602002018181525050846101e00151600001518160016005811061373e5761373d6173f3565b5b602002018181525050846101e001516020015181600260058110613765576137646173f3565b5b602002018181525050846101e00151604001518160036005811061378c5761378b6173f3565b5b602002018181525050846101e0015160600151816004600581106137b3576137b26173f3565b5b6020020181815250506137eb816040516020016137d09190617b1c565b604051602081830303815290604052805190602001206126ed565b915060006137f8836143ab565b809250819550505050509250929050565b60007f30644e72e131a029b85045b68181585d2833e84879b9709143e1f593f00000018261383791906174cd565b9050919050565b60007f30644e72e131a029b85045b68181585d2833e84879b9709143e1f593f00000018061386f5761386e61749e565b5b828409905092915050565b60007f30644e72e131a029b85045b68181585d2833e84879b9709143e1f593f0000001806138ab576138aa61749e565b5b828408905092915050565b60007f30644e72e131a029b85045b68181585d2833e84879b9709143e1f593f0000001806138e7576138e661749e565b5b827f30644e72e131a029b85045b68181585d2833e84879b9709143e1f593f00000016139139190617422565b8408905092915050565b60006139318361392c84613e2e565b61383e565b905092915050565b60008061397684600060088110613953576139526173f3565b5b60200201518560016008811061396c5761396b6173f3565b5b602002015161387a565b90506139828184613cae565b91505092915050565b6000806040518061010001604052807f30644e72e131a029b85045b68181585d2833e84879b9709143e1f593efffec5181526020016102d081526020017f30644e72e131a029b85045b68181585d2833e84879b9709143e1f593efffff118152602001609081526020017f30644e72e131a029b85045b68181585d2833e84879b9709143e1f593efffff71815260200160f081526020017f30644e72e131a029b85045b68181585d2833e84879b9709143e1f593effffd3181526020016113b081525090506000604051806101000160405280600081526020016001815260200160028152602001600381526020016004815260200160058152602001600681526020016007815250905060006001905060005b6008811015613ac857613abb82613ab688846138b6565b61383e565b9150806001019050613a9f565b50613ad1616e16565b60005b6008811015613b59576000858260088110613af257613af16173f3565b5b60200201519050613b2381613b1e8a888660088110613b1457613b136173f3565b5b60200201516138b6565b61383e565b9050613b2e81613e2e565b905080838360088110613b4457613b436173f3565b5b60200201818152505050806001019050613ad4565b5060005b6008811015613bbd576000888260088110613b7b57613b7a6173f3565b5b60200201519050613ba381848460088110613b9957613b986173f3565b5b602002015161383e565b9050613baf878261387a565b965050806001019050613b5d565b50613bc8858361383e565b94505050505092915050565b600080613c106001613c0b86613c068a60c0015188601c8110613bfa57613bf96173f3565b5b602002015160016138b6565b61383e565b61387a565b9050613c1c858261383e565b915050949350505050565b6000808461018001519050613c3a616e39565b613c45828286614404565b613c5182868387614649565b613c5d82868387614946565b613c68828286614bec565b613c73828286614ec4565b613c7f82868387615311565b613c8a828286615fab565b613c9582828661646b565b613ca3818660a001516168be565b925050509392505050565b6000818314905092915050565b613cc3616d45565b81816000601c8110613cd857613cd76173f3565b5b6020020181815250506000600190505b601c811015613d4457613d1d82600183613d029190617422565b601c8110613d1357613d126173f3565b5b6020020151613f3a565b8282601c8110613d3057613d2f6173f3565b5b602002018181525050806001019050613ce8565b50919050565b613d52616e5c565b60008361016001519050613d86613d8182856000601c8110613d7757613d766173f3565b5b60200201516138b6565b613e2e565b826000601d8110613d9a57613d996173f3565b5b60200201818152505060005b601c811015613e2657600060016012613dbf91906173bf565b8211613df157613dee613de9848785601c8110613ddf57613dde6173f3565b5b602002015161387a565b613e2e565b90505b8084600184613e0091906173bf565b601d8110613e1157613e106173f3565b5b60200201818152505050806001019050613da6565b505092915050565b6000808290506000604051602081526020808201526020604082015282606082015260027f30644e72e131a029b85045b68181585d2833e84879b9709143e1f593f00000010360808201527f30644e72e131a029b85045b68181585d2833e84879b9709143e1f593f000000160a08201526020600060c08360055afa80613eb457600080fd5b600051925050508092505050919050565b613ecd616e7f565b604051806040016040528060888460200151901b846000015117815260200160888460600151901b8460400151178152509050919050565b6000817f30644e72e131a029b85045b68181585d2833e84879b9709143e1f593f0000001613f339190617422565b9050919050565b6000613f46828361383e565b9050919050565b600080601c90505b600081111561407757600083600183613f6e9190617422565b601c8110613f7f57613f7e6173f3565b5b6020020151905060008760e00151600184613f9a9190617422565b601c8110613fab57613faa6173f3565b5b60200201519050600086600185613fc29190617422565b601c8110613fd357613fd26173f3565b5b60200201519050600061401e613ff3613fec868c61383e565b600261383e565b6140198461401461400e8961400960018b6138b6565b61383e565b886138b6565b61383e565b6138b6565b905061404e8161404961404461403e8861403960018a6138b6565b61383e565b8761387a565b613e2e565b61383e565b9050600060128611905080614061578199505b50505050508061407090617b37565b9050613f55565b50839050949350505050565b61408b616e7f565b60006002601c602c61409d91906173bf565b6140a791906173bf565b90506001604051855151604082015285516020015160608201528451608082015260408160606040840160075afa8216915060015b83811015614138576020810287016020820287018151516040850152815160200151606085015280516080850152604080850160606040870160075afa8516945060408460808660065afa8516945050506001810190506140dc565b81518552602082015160208601525050505092915050565b614158616e7f565b7f30644e72e131a029b85045b68181585d97816a916871ca8d3c208c16d87cfd4782602001517f30644e72e131a029b85045b68181585d97816a916871ca8d3c208c16d87cfd476141a99190617422565b6141b391906174cd565b826020018181525050819050919050565b600080836000015184602001517f198e9393920d483a7260bfb731fb5d25f1aa493335a9e71297e485b7aef312c27f1800deef121f1e76426a00665e5c4479674322d4f75edadd46debd5cd992f6ed7f090689d0585ff075ec9e99ad690c3395bc4b313370b38ef355acdadcd122975b7f12c85ea5db8c6deb4aab71808dcb408fe3d1e7690c43d37b4ce6cc0166fa7daa886000015189602001517f260e01b251f6f1c7e7ff4e580791dee8ea51d87a358e038b4efe30fac09383c17f0118c4d5b837bcc2bc89b5b398b5974e9f5944073b32078b7e231fec938883b07f04fc6369f7110fe3d25156c1bb9a72859cf2a04641f99ba4ee413c80da6a5fe47f22febda3c0c0632a56475b4214e5615e11e6dd3f96e6cea2854a87d4dacc5e556040516020016142fe9c9b9a99989796959493929190617b60565b6040516020818303038152906040529050600080600873ffffffffffffffffffffffffffffffffffffffff16836040516143389190617ca7565b600060405180830381855afa9150503d8060008114614373576040519150601f19603f3d011682016040523d82523d6000602084013e614378565b606091505b50915091506000818060200190518101906143939190617cea565b905082801561439f5750805b94505050505092915050565b600080600083905060006fffffffffffffffffffffffffffffffff821690506000608083901c90506143df8260001b6126ed565b94506143ed8160001b6126ed565b9350505050915091565b60008160001b9050919050565b6000614411846006616955565b905060007f183227397098d014dc2822db40c0ac2e9419f4243cdcb848a1f0fac9f80000009050600061448761448161444b8560036138b6565b61447c61446c61445c8b6000616955565b6144678c601c616955565b61383e565b6144778b601b616955565b61383e565b61383e565b8361383e565b90506145356145256145026144df6144bc856144b76144a78d6002616955565b6144b28e601b616955565b61383e565b61387a565b6144da6144ca8c6003616955565b6144d58d601c616955565b61383e565b61387a565b6144fd6144ed8b6004616955565b6144f88c601d616955565b61383e565b61387a565b6145206145108a6005616955565b61451b8b601e616955565b61383e565b61387a565b614530886001616955565b61387a565b905061455e816145596145498660016138b6565b6145548a602a616955565b61383e565b61387a565b905061456a818461383e565b9050614576818561383e565b905080856000601a811061458d5761458c6173f3565b5b602002018181525050505060006145de6145ce6145be6145ae88601b616955565b6145b989601e616955565b61387a565b6145c9886027616955565b6138b6565b6145d9876000616955565b61387a565b90506145f4816145ef8460026138b6565b61383e565b905061460a816146058460016138b6565b61383e565b9050614616818361383e565b9050614622818461383e565b905080846001601a8110614639576146386173f3565b5b6020020181815250505050505050565b600080600061468661467c61465f89601b616955565b61467761466d8b6011616955565b8a6060015161383e565b61387a565b876080015161387a565b90506146c9816146c46146ba61469d8b601c616955565b6146b56146ab8d6012616955565b8c6060015161383e565b61387a565b896080015161387a565b61383e565b905061470c816147076146fd6146e08b601d616955565b6146f86146ee8d6013616955565b8c6060015161383e565b61387a565b896080015161387a565b61383e565b905061474f8161474a6147406147238b601e616955565b61473b6147318d6014616955565b8c6060015161383e565b61387a565b896080015161387a565b61383e565b905080925050600061478f61478561476889601b616955565b6147806147768b600d616955565b8a6060015161383e565b61387a565b876080015161387a565b90506147d2816147cd6147c36147a68b601c616955565b6147be6147b48d600e616955565b8c6060015161383e565b61387a565b896080015161387a565b61383e565b9050614815816148106148066147e98b601d616955565b6148016147f78d600f616955565b8c6060015161383e565b61387a565b896080015161387a565b61383e565b90506148588161485361484961482c8b601e616955565b61484461483a8d6010616955565b8c6060015161383e565b61387a565b896080015161387a565b61383e565b905080915050600061488761488161487189601f616955565b61487c8a6019616955565b61387a565b8461383e565b90506148c7816148c26148bc61489e8b602b616955565b6148b76148ac8d601a616955565b8c610180015161383e565b61387a565b8561383e565b6138b6565b90506148d3818561383e565b905080856002601a81106148ea576148e96173f3565b5b60200201818152505050600061491d61491761490789601a616955565b6149128a602b616955565b61383e565b8561383e565b905080856003601a8110614934576149336173f3565b5b60200201818152505050505050505050565b6000806149c16149a461498761496a6149608a6015616955565b896080015161387a565b6149826149788b6016616955565b8a6000015161383e565b61387a565b61499f6149958a6017616955565b896020015161383e565b61387a565b6149bc6149b2896018616955565b886040015161383e565b61387a565b91506000614a036149e06149d689601b616955565b886080015161387a565b6149fe6149ee8a6003616955565b6149f98b6027616955565b61383e565b61387a565b90506000614a38614a1589601c616955565b614a33614a238b6000616955565b614a2e8c6028616955565b61383e565b61387a565b90506000614a6d614a4a8a601d616955565b614a68614a588c6001616955565b614a638d6029616955565b61383e565b61387a565b9050614abc614a9f614a8c85614a87868d6000015161383e565b61387a565b614a9a848c6020015161383e565b61387a565b614ab7614aad8c6004616955565b8b6040015161383e565b61387a565b93505050506000614ad7614ad1886020616955565b8461383e565b90506000614aef614ae9896020616955565b8461383e565b90506000614b37614b14614b048b6022616955565b614b0f8c600a616955565b61387a565b614b32614b228c6022616955565b614b2d8d600a616955565b61383e565b6138b6565b90506000614b61614b5b614b4b878961383e565b614b568d6020616955565b61383e565b836138b6565b9050614b6d818861383e565b90506000614ba1614b88614b828d600a616955565b8761383e565b614b9c614b968e6021616955565b8761383e565b6138b6565b905081896004601a8110614bb857614bb76173f3565b5b60200201818152505080896005601a8110614bd657614bd56173f3565b5b6020020181815250505050505050505050505050565b6000614bfa600060016138b6565b90506000614c0a600060026138b6565b90506000614c1a600060036138b6565b90506000614c3c614c2c88601c616955565b614c3789601b616955565b6138b6565b90506000614c5e614c4e89601d616955565b614c598a601c616955565b6138b6565b90506000614c80614c708a601e616955565b614c7b8b601d616955565b6138b6565b90506000614ca2614c928b6027616955565b614c9d8c601e616955565b6138b6565b90506000849050614cbc81614cb7878b61387a565b61383e565b9050614cd181614ccc878a61387a565b61383e565b9050614ce681614ce1878961387a565b61383e565b9050614cfc81614cf78d6007616955565b61383e565b9050614d08818a61383e565b9050808a6006601a8110614d1f57614d1e6173f3565b5b602002018181525050506000839050614d4181614d3c868b61387a565b61383e565b9050614d5681614d51868a61387a565b61383e565b9050614d6b81614d66868961387a565b61383e565b9050614d8181614d7c8d6007616955565b61383e565b9050614d8d818a61383e565b9050808a6007601a8110614da457614da36173f3565b5b602002018181525050506000829050614dc681614dc1858b61387a565b61383e565b9050614ddb81614dd6858a61387a565b61383e565b9050614df081614deb858961387a565b61383e565b9050614e0681614e018d6007616955565b61383e565b9050614e12818a61383e565b9050808a6008601a8110614e2957614e286173f3565b5b602002018181525050506000819050614e4b81614e46848b61387a565b61383e565b9050614e6081614e5b848a61387a565b61383e565b9050614e7581614e70848961387a565b61383e565b9050614e8b81614e868d6007616955565b61383e565b9050614e97818a61383e565b9050808a6009601a8110614eae57614ead6173f3565b5b6020020181815250505050505050505050505050565b614ecc616e99565b614ed784601c616955565b816000018181525050614eeb84601d616955565b816020018181525050614eff846027616955565b816040018181525050614f1384602a616955565b816060018181525050614f27846029616955565b816080018181525050614f3b846028616955565b8160a00181815250506000614f51856002616955565b90506000614f60866000616955565b90506000614f76846040015185600001516138b6565b90506000614f8c8560200151866020015161383e565b905060008690506000614fa78760600151886060015161383e565b90506000614fc6614fc089602001518a6060015161383e565b8861383e565b90506000614fe9614fdf8a60a001518b6040015161387a565b8a6000015161387a565b9050614ffe614ff8828861383e565b8761383e565b905061502561501f61501961501384876138b6565b886138b6565b8461387a565b8361387a565b9050615057615047615037838761383e565b6150428f6008616955565b61383e565b61505260018a6138b6565b61383e565b8b600a601a811061506b5761506a6173f3565b5b60200201818152505050505050600061508c8660200151876080015161387a565b905060006150ab6150a188606001518861383e565b88602001516138b6565b905060006150dc6150bc848761383e565b6150d76150d18b60a001518c600001516138b6565b8561383e565b61387a565b905061510e6150fe6150ee838c61383e565b6150f98e6008616955565b61383e565b6151096001896138b6565b61383e565b8a600b601a8110615122576151216173f3565b5b602002018181525050505050600061514861513e83601161387a565b876000015161383e565b90506000615156838461387a565b9050615162818261387a565b9050600061517183600961383e565b90506151a461519e61519861518e8b60a001518c6000015161387a565b8b6000015161387a565b8461383e565b826138b6565b8860c001818152505060006151d96151d36151c38b60c001518d61383e565b6151ce8f6008616955565b61383e565b8861383e565b90506151fd8b600a601a81106151f2576151f16173f3565b5b60200201518261387a565b8b600a601a8110615211576152106173f3565b5b60200201818152505050505050600061524c6152426152388860000151896000015161387a565b886000015161387a565b876000015161383e565b9050600061529f61526e836152698a600001518b60a001516138b6565b61383e565b61529a6152838a602001518b6020015161387a565b6152958b602001518c6080015161387a565b61383e565b6138b6565b90506152e889600b601a81106152b8576152b76173f3565b5b60200201516152e36152dd6152cd858d61383e565b6152d88f6008616955565b61383e565b8861383e565b61387a565b89600b601a81106152fc576152fb6173f3565b5b60200201818152505050505050505050505050565b615319616ed6565b61535d61533a61532a87601b616955565b615335886028616955565b61383e565b615358615348886027616955565b61535389601c616955565b61383e565b61387a565b8160000181815250506153bd6153ad61538a61537a88601b616955565b61538589601e616955565b61383e565b6153a861539889601c616955565b6153a38a601d616955565b61383e565b61387a565b6153b8876029616955565b6138b6565b8160400181815250506153d9816040015160446001901b61383e565b8160400181815250506153fa81604001516153f587602a616955565b6138b6565b8160400181815250506154158160400151826000015161387a565b8160400181815250506154368160400151615431876005616955565b61383e565b816040018181525050615452816000015160446001901b61383e565b8160000181815250506154868160000151615481615471886027616955565b61547c896028616955565b61383e565b61387a565b81600001818152505080600001518160200181815250506154c881602001516154c36154b388601d616955565b6154be89601e616955565b61387a565b6138b6565b8160200181815250506154e981602001516154e4876004616955565b61383e565b8160200181815250508060000151816060018181525050615518816060015161551387601e616955565b61387a565b81606001818152505061554c8160600151615547615537886029616955565b61554289602a616955565b61387a565b6138b6565b81606001818152505061556d8160600151615568876000616955565b61383e565b816060018181525050600061559761558d8360200151846040015161387a565b836060015161387a565b90506155ad816155a8886003616955565b61383e565b90506155c86155bd876028616955565b600e6001901b61383e565b8260800181815250506155e982608001516155e4886027616955565b61387a565b8260800181815250506156058260800151600e6001901b61383e565b826080018181525050615626826080015161562188601d616955565b61387a565b8260800181815250506156428260800151600e6001901b61383e565b826080018181525050615663826080015161565e88601c616955565b61387a565b82608001818152505061567f8260800151600e6001901b61383e565b8260800181815250506156a0826080015161569b88601b616955565b61387a565b8260800181815250506156c182608001516156bc88601e616955565b6138b6565b8260800181815250506156e282608001516156dd886005616955565b61383e565b8260800181815250506157046156f9876029616955565b600e6001901b61383e565b8260a00181815250506157258260a00151615720886028616955565b61387a565b8260a00181815250506157418260a00151600e6001901b61383e565b8260a00181815250506157628260a0015161575d886027616955565b61387a565b8260a001818152505061577e8260a00151600e6001901b61383e565b8260a001818152505061579f8260a0015161579a88601e616955565b61387a565b8260a00181815250506157bb8260a00151600e6001901b61383e565b8260a00181815250506157dc8260a001516157d788601d616955565b61387a565b8260a00181815250506157fd8260a001516157f888602a616955565b6138b6565b8260a001818152505061581e8260a00151615819886000616955565b61383e565b8260a0018181525050600061583b83608001518460a0015161387a565b90506158518161584c896004616955565b61383e565b905061586b61586188601d616955565b876040015161383e565b8360c00181815250506158998360c0015161589461588a8a601c616955565b896020015161383e565b61387a565b8360c00181815250506158c78360c001516158c26158b88a601b616955565b896000015161383e565b61387a565b8360c00181815250506158e88360c001516158e3896001616955565b61387a565b8360c00181815250508260c001518360e00181815250506159178360c0015161591289601e616955565b6138b6565b8360c001818152505061593e61592e886027616955565b61593989601b616955565b6138b6565b8361014001818152505061596661595688602a616955565b61596189601e616955565b6138b6565b8361012001818152505061599261598784610140015185610140015161383e565b8461014001516138b6565b836102800181815250506159ef6159e46159dd85610140015160017f30644e72e131a029b85045b68181585d2833e84879b9709143e1f593f00000016159d89190617422565b61383e565b600161387a565b84610120015161383e565b83610160018181525050615a41615a28846101600151615a23615a138b6002616955565b615a1e8c6003616955565b61383e565b61383e565b615a3c615a368a6009616955565b8761383e565b61383e565b85600d601a8110615a5557615a546173f3565b5b602002018181525050615aa6615a8d846102800151615a88615a788b6002616955565b615a838c6003616955565b61383e565b61383e565b615aa1615a9b8a6009616955565b8761383e565b61383e565b85600e601a8110615aba57615ab96173f3565b5b602002018181525050615aee8360c00151615ae9615ad98a6002616955565b615ae48b6003616955565b61383e565b61383e565b836101e00181815250506000615b12615b0889601e616955565b8560e001516138b6565b9050615b27615b21828361383e565b826138b6565b846101a0018181525050615b49615b3f896029616955565b886040015161383e565b84610100018181525050615b79846101000151615b74615b6a8b6028616955565b8a6020015161383e565b61387a565b84610100018181525050615ba9846101000151615ba4615b9a8b6027616955565b8a6000015161383e565b61387a565b84610100018181525050615bcc615bc189602a616955565b8561010001516138b6565b846101000181815250506000615bf6615be68a6029616955565b615bf18b601d616955565b6138b6565b9050615c93615c49615c43615c3c88610140015160017f30644e72e131a029b85045b68181585d2833e84879b9709143e1f593f0000001615c379190617422565b61383e565b600161387a565b8361383e565b615c8e615c8788610100015160017f30644e72e131a029b85045b68181585d2833e84879b9709143e1f593f0000001615c829190617422565b61383e565b600161387a565b61383e565b85610180018181525050615cbf615cb486610100015187610100015161383e565b8661010001516138b6565b856101c0018181525050615cfe615ce5866101800151615ce08c6006616955565b61383e565b615cf9615cf38c6009616955565b8961383e565b61383e565b87600f601a8110615d1257615d116173f3565b5b602002018181525050615d50615d37866102800151615d328c6006616955565b61383e565b615d4b615d458c6009616955565b8961383e565b61383e565b876010601a8110615d6457615d636173f3565b5b602002018181525050615da2615d89866101c00151615d848c6006616955565b61383e565b615d9d615d978c6009616955565b8961383e565b61383e565b876011601a8110615db657615db56173f3565b5b602002018181525050615dd8856101a00151615dd38b6006616955565b61383e565b85610200018181525050615e00615df08a6028616955565b615dfb8b601c616955565b6138b6565b85610220018181525050615e70615e60615e55615e4e88610140015160017f30644e72e131a029b85045b68181585d2833e84879b9709143e1f593f0000001615e499190617422565b61383e565b600161387a565b87610220015161383e565b615e6b8b601d616955565b6138b6565b85610240018181525050846101e0015185610260018181525050615ec4856102600151615ebf876102400151615eba615eaa8e6005616955565b615eb58f6002616955565b61383e565b61383e565b61387a565b85610260018181525050615f07856102600151615f028760c00151615efd615eed8e6000616955565b615ef88f6002616955565b61383e565b61383e565b61387a565b85610260018181525050615f2585610260015186610200015161387a565b85610260018181525050615f47615f418661026001518661387a565b8461387a565b856102a0018181525050615f73856102a00151615f6e615f688c6009616955565b8961383e565b61383e565b856102a0018181525050846102a0015187600c601a8110615f9757615f966173f3565b5b602002018181525050505050505050505050565b615fb3616f7d565b615fd1615fc185601b616955565b615fcc866002616955565b61387a565b816000018181525050615ff8615fe885601c616955565b615ff3866003616955565b61387a565b81602001818152505061601f61600f85601d616955565b61601a866004616955565b61387a565b81604001818152505061604661603685601e616955565b616041866005616955565b61387a565b81606001818152505061608861607e61607461606a8460000151856000015161383e565b846000015161383e565b836000015161383e565b826000015161383e565b8160800181815250506160ca6160c06160b66160ac8460200151856020015161383e565b846020015161383e565b836020015161383e565b826020015161383e565b8160a001818152505061610c6161026160f86160ee8460400151856040015161383e565b846040015161383e565b836040015161383e565b826040015161383e565b8160c001818152505061614e61614461613a6161308460600151856060015161383e565b846060015161383e565b836060015161383e565b826060015161383e565b8160e001818152505061616981608001518260a0015161387a565b816101000181815250506161858160c001518260e0015161387a565b816101200181815250506161af6161a48260a001518360a0015161387a565b82610120015161387a565b816101400181815250506161d96161ce8260e001518360e0015161387a565b82610100015161387a565b816101600181815250506161f781610120015182610120015161387a565b816101e0018181525050616223616218826101e00151836101e0015161387a565b82610160015161387a565b816101e001818152505061624181610100015182610100015161387a565b816101a001818152505061626d616262826101a00151836101a0015161387a565b82610140015161387a565b816101a001818152505061628b816101600151826101a0015161387a565b816101800181815250506162a9816101400151826101e0015161387a565b816101c00181815250506162c76162c185600b616955565b8361383e565b81610200018181525050616319836012601a81106162e8576162e76173f3565b5b602002015161631483610200015161630f85610180015161630a8a6027616955565b6138b6565b61383e565b61387a565b836012601a811061632d5761632c6173f3565b5b60200201818152505061637e836013601a811061634d5761634c6173f3565b5b6020020151616379836102000151616374856101a0015161636f8a6028616955565b6138b6565b61383e565b61387a565b836013601a8110616392576163916173f3565b5b6020020181815250506163e3836014601a81106163b2576163b16173f3565b5b60200201516163de8361020001516163d9856101c001516163d48a6029616955565b6138b6565b61383e565b61387a565b836014601a81106163f7576163f66173f3565b5b602002018181525050616448836015601a8110616417576164166173f3565b5b602002015161644383610200015161643e856101e001516164398a602a616955565b6138b6565b61383e565b61387a565b836015601a811061645c5761645b6173f3565b5b60200201818152505050505050565b616473617001565b600060405180608001604052806164a97f10dc6e9c006ea38b04b1e03b4bd9490c0d03f98929ca1d7fb56821fd19d3b6e7613809565b81526020016164d77f0c28145b6a44df3e0149b3d0a30b3bb599df9756d4dd9b84a86b38cfb45a740b613809565b81526020016165047e544b8338791518b2c7645a50392798b21f75bb60e3596170067d00141cac15613809565b81526020016165327f222c01175718386f2e2e82eb122789e352e105a3b8fa852613bc534433ee428b613809565b815250905061655561654586601b616955565b616550876002616955565b61387a565b8261012001818152505061659d61659261658761657c85610120015186610120015161383e565b85610120015161383e565b84610120015161383e565b83610120015161383e565b8260000181815250506165b185601c616955565b8260200181815250506165c585601d616955565b8260400181815250506165d985601e616955565b82606001818152505061660e6166046165fa8460000151856020015161387a565b846040015161387a565b836060015161387a565b82608001818152505061662b61662586600c616955565b8461383e565b8261014001818152505061666861665e836000015183600060048110616654576166536173f3565b5b602002015161383e565b836080015161387a565b8260a00181815250506166b8846016601a8110616688576166876173f3565b5b60200201516166b38461014001516166ae8660a001516166a98b6027616955565b6138b6565b61383e565b61387a565b846016601a81106166cc576166cb6173f3565b5b6020020181815250506167086166fe8360200151836001600481106166f4576166f36173f3565b5b602002015161383e565b836080015161387a565b8260c0018181525050616758846017601a8110616728576167276173f3565b5b602002015161675384610140015161674e8660c001516167498b6028616955565b6138b6565b61383e565b61387a565b846017601a811061676c5761676b6173f3565b5b6020020181815250506167a861679e836040015183600260048110616794576167936173f3565b5b602002015161383e565b836080015161387a565b8260e00181815250506167f8846018601a81106167c8576167c76173f3565b5b60200201516167f38461014001516167ee8660e001516167e98b6029616955565b6138b6565b61383e565b61387a565b846018601a811061680c5761680b6173f3565b5b60200201818152505061684861683e836060015183600360048110616834576168336173f3565b5b602002015161383e565b836080015161387a565b8261010001818152505061689a846019601a8110616869576168686173f3565b5b602002015161689584610140015161689086610100015161688b8b602a616955565b6138b6565b61383e565b61387a565b846019601a81106168ae576168ad6173f3565b5b6020020181815250505050505050565b60006168e281846000601a81106168d8576168d76173f3565b5b602002015161387a565b90506000600190505b601a81101561694e576169418261693c8684601a811061690e5761690d6173f3565b5b6020020151866001866169219190617422565b60198110616932576169316173f3565b5b602002015161383e565b61387a565b91508060010190506168eb565b5092915050565b60008282602b81111561696b5761696a617d17565b5b602c811061697c5761697b6173f3565b5b6020020151905092915050565b604051806103c001604052806000815260200160008152602001600081526020016169b2616e7f565b81526020016169bf616e7f565b81526020016169cc616e7f565b81526020016169d9616e7f565b81526020016169e6616e7f565b81526020016169f3616e7f565b8152602001616a00616e7f565b8152602001616a0d616e7f565b8152602001616a1a616e7f565b8152602001616a27616e7f565b8152602001616a34616e7f565b8152602001616a41616e7f565b8152602001616a4e616e7f565b8152602001616a5b616e7f565b8152602001616a68616e7f565b8152602001616a75616e7f565b8152602001616a82616e7f565b8152602001616a8f616e7f565b8152602001616a9c616e7f565b8152602001616aa9616e7f565b8152602001616ab6616e7f565b8152602001616ac3616e7f565b8152602001616ad0616e7f565b8152602001616add616e7f565b8152602001616aea616e7f565b8152602001616af7616e7f565b8152602001616b04616e7f565b81525090565b604051806102200160405280600081526020016000815260200160008152602001616b3361705b565b8152602001616b4061705b565b8152602001616b4d61705b565b8152602001616b5a61705b565b8152602001616b6761705b565b8152602001616b7461705b565b8152602001616b8161705b565b8152602001616b8e61705b565b8152602001616b9b617083565b8152602001616ba86170b1565b8152602001616bb56170d4565b8152602001616bc2616d45565b8152602001616bcf61705b565b8152602001616bdc61705b565b81525090565b604051806101a001604052806000815260200160008152602001600081526020016000815260200160008152602001616c19616cff565b8152602001616c26616d45565b8152602001616c33616d45565b815260200160008152602001600081526020016000815260200160008152602001600081525090565b6040518060a0016040528060008152602001600081526020016000815260200160008152602001600081525090565b604051806109400160405280604a90602082028036833780820191505090505090565b604051806109400160405280604a905b616cc6616e7f565b815260200190600190039081616cbe5790505090565b604051806101a00160405280600d90602082028036833780820191505090505090565b604051806103200160405280601990602082028036833780820191505090505090565b604051806101200160405280600990602082028036833780820191505090505090565b604051806103800160405280601c90602082028036833780820191505090505090565b604051806101200160405280600990602082028036833780820191505090505090565b604051806105a00160405280602d90602082028036833780820191505090505090565b60405180610da00160405280606d90602082028036833780820191505090505090565b604051806103a00160405280601d90602082028036833780820191505090505090565b6040518060a00160405280600590602082028036833780820191505090505090565b604051806101000160405280600890602082028036833780820191505090505090565b604051806103400160405280601a90602082028036833780820191505090505090565b604051806103a00160405280601d90602082028036833780820191505090505090565b604051806040016040528060008152602001600081525090565b6040518060e00160405280600081526020016000815260200160008152602001600081526020016000815260200160008152602001600081525090565b604051806102c00160405280600081526020016000815260200160008152602001600081526020016000815260200160008152602001600081526020016000815260200160008152602001600081526020016000815260200160008152602001600081526020016000815260200160008152602001600081526020016000815260200160008152602001600081526020016000815260200160008152602001600081525090565b60405180610220016040528060008152602001600081526020016000815260200160008152602001600081526020016000815260200160008152602001600081526020016000815260200160008152602001600081526020016000815260200160008152602001600081526020016000815260200160008152602001600081525090565b60405180610160016040528060008152602001600081526020016000815260200160008152602001600081526020016000815260200160008152602001600081526020016000815260200160008152602001600081525090565b6040518060800160405280600081526020016000815260200160008152602001600081525090565b604051806103800160405280601c905b61709b616e16565b8152602001906001900390816170935790505090565b604051806105800160405280602c90602082028036833780820191505090505090565b604051806103600160405280601b905b6170ec61705b565b8152602001906001900390816170e45790505090565b600080fd5b600080fd5b600080fd5b600080fd5b600080fd5b60008083601f8401126171315761713061710c565b5b8235905067ffffffffffffffff81111561714e5761714d617111565b5b60208301915083600182028301111561716a57617169617116565b5b9250929050565b60008083601f8401126171875761718661710c565b5b8235905067ffffffffffffffff8111156171a4576171a3617111565b5b6020830191508360208202830111156171c0576171bf617116565b5b9250929050565b600080600080604085870312156171e1576171e0617102565b5b600085013567ffffffffffffffff8111156171ff576171fe617107565b5b61720b8782880161711b565b9450945050602085013567ffffffffffffffff81111561722e5761722d617107565b5b61723a87828801617171565b925092505092959194509250565b60008115159050919050565b61725d81617248565b82525050565b60006020820190506172786000830184617254565b92915050565b600080fd5b600080fd5b6000808585111561729c5761729b61727e565b5b838611156172ad576172ac617283565b5b6001850283019150848603905094509492505050565b600082905092915050565b6000819050919050565b600082821b905092915050565b60006172f183836172c3565b826172fc81356172ce565b9250602082101561733c576173377fffffffffffffffffffffffffffffffffffffffffffffffffffffffffffffffff836020036008026172d8565b831692505b505092915050565b6000819050919050565b7f4e487b7100000000000000000000000000000000000000000000000000000000600052601160045260246000fd5b600061738882617344565b915061739383617344565b92508282026173a181617344565b915082820484148315176173b8576173b761734e565b5b5092915050565b60006173ca82617344565b91506173d583617344565b92508282019050808211156173ed576173ec61734e565b5b92915050565b7f4e487b7100000000000000000000000000000000000000000000000000000000600052603260045260246000fd5b600061742d82617344565b915061743883617344565b92508282039050818111156174505761744f61734e565b5b92915050565b600061746182617344565b91507fffffffffffffffffffffffffffffffffffffffffffffffffffffffffffffffff82036174935761749261734e565b5b600182019050919050565b7f4e487b7100000000000000000000000000000000000000000000000000000000600052601260045260246000fd5b60006174d882617344565b91506174e383617344565b9250826174f3576174f261749e565b5b828206905092915050565b7f4e487b7100000000000000000000000000000000000000000000000000000000600052604160045260246000fd5b600081519050919050565b600081905092915050565b6000819050602082019050919050565b61755c816172ce565b82525050565b600061756e8383617553565b60208301905092915050565b6000602082019050919050565b60006175928261752d565b61759c8185617538565b93506175a783617543565b8060005b838110156175d85781516175bf8882617562565b97506175ca8361757a565b9250506001810190506175ab565b5085935050505092915050565b60006175f18284617587565b915081905092915050565b6000819050919050565b61761761761282617344565b6175fc565b82525050565b60006176298284617606565b60208201915081905092915050565b6000600d9050919050565b600081905092915050565b6000819050919050565b6000602082019050919050565b61766e81617638565b6176788184617643565b92506176838261764e565b8060005b838110156176b457815161769b8782617562565b96506176a683617658565b925050600181019050617687565b505050505050565b60006176c88284617665565b6101a08201915081905092915050565b600060099050919050565b600081905092915050565b6000819050919050565b61770181617344565b82525050565b600061771383836176f8565b60208301905092915050565b6000602082019050919050565b617735816176d8565b61773f81846176e3565b925061774a826176ee565b8060005b8381101561777b5781516177628782617707565b965061776d8361771f565b92505060018101905061774e565b505050505050565b600061778f828461772c565b6101208201915081905092915050565b60006177aa82617344565b91506177b583617344565b9250826177c5576177c461749e565b5b828204905092915050565b600060099050919050565b6000819050919050565b6000819050919050565b600061780a61780561780084617344565b6177e5565b617344565b9050919050565b61781a816177ef565b82525050565b600061782c8383617811565b60208301905092915050565b6000602082019050919050565b61784e816177d0565b61785881846176e3565b9250617863826177db565b8060005b8381101561789457815161787b8782617820565b965061788683617838565b925050600181019050617867565b505050505050565b60006178a88284617845565b6101208201915081905092915050565b6000602d9050919050565b600081905092915050565b6000819050919050565b6000602082019050919050565b6178ee816178b8565b6178f881846178c3565b9250617903826178ce565b8060005b8381101561793457815161791b8782617820565b9650617926836178d8565b925050600181019050617907565b505050505050565b600061794882846178e5565b6105a08201915081905092915050565b6000606d9050919050565b600081905092915050565b6000819050919050565b6000602082019050919050565b61798e81617958565b6179988184617963565b92506179a38261796e565b8060005b838110156179d45781516179bb8782617707565b96506179c683617978565b9250506001810190506179a7565b505050505050565b60006179e88284617985565b610da08201915081905092915050565b6000601d9050919050565b600081905092915050565b6000819050919050565b6000602082019050919050565b617a2e816179f8565b617a388184617a03565b9250617a4382617a0e565b8060005b83811015617a74578151617a5b8782617707565b9650617a6683617a18565b925050600181019050617a47565b505050505050565b6000617a888284617a25565b6103a08201915081905092915050565b600060059050919050565b600081905092915050565b6000819050919050565b6000602082019050919050565b617ace81617a98565b617ad88184617aa3565b9250617ae382617aae565b8060005b83811015617b14578151617afb8782617707565b9650617b0683617ab8565b925050600181019050617ae7565b505050505050565b6000617b288284617ac5565b60a08201915081905092915050565b6000617b4282617344565b915060008203617b5557617b5461734e565b5b600182039050919050565b6000617b6c828f617606565b602082019150617b7c828e617606565b602082019150617b8c828d617606565b602082019150617b9c828c617606565b602082019150617bac828b617606565b602082019150617bbc828a617606565b602082019150617bcc8289617606565b602082019150617bdc8288617606565b602082019150617bec8287617606565b602082019150617bfc8286617606565b602082019150617c0c8285617606565b602082019150617c1c8284617606565b6020820191508190509d9c50505050505050505050505050565b600081519050919050565b600081905092915050565b60005b83811015617c6a578082015181840152602081019050617c4f565b60008484015250505050565b6000617c8182617c36565b617c8b8185617c41565b9350617c9b818560208601617c4c565b80840191505092915050565b6000617cb38284617c76565b915081905092915050565b617cc781617248565b8114617cd257600080fd5b50565b600081519050617ce481617cbe565b92915050565b600060208284031215617d0057617cff617102565b5b6000617d0e84828501617cd5565b91505092915050565b7f4e487b7100000000000000000000000000000000000000000000000000000000600052602160045260246000fdfea2646970667358221220c70005bbdc617e7019085dae369ebd3612af0d42f67d66adf372aaa7b34e3cf464736f6c634300081c0033","opcodes":"PUSH1 0x80 PUSH1 0x40 MSTORE PUSH1 0x40 MLOAD PUSH2 0x10 SWAP1 PUSH2 0xE1 JUMP JUMPDEST PUSH1 0x40 MLOAD DUP1 SWAP2 SUB SWAP1 PUSH1 0x0 CREATE DUP1 ISZERO DUP1 ISZERO PUSH2 0x2C JUMPI RETURNDATASIZE PUSH1 0x0 DUP1 RETURNDATACOPY RETURNDATASIZE PUSH1 0x0 REVERT JUMPDEST POP PUSH1 0x0 DUP1 PUSH2 0x100 EXP DUP2 SLOAD DUP2 PUSH20 0xFFFFFFFFFFFFFFFFFFFFFFFFFFFFFFFFFFFFFFFF MUL NOT AND SWAP1 DUP4 PUSH20 0xFFFFFFFFFFFFFFFFFFFFFFFFFFFFFFFFFFFFFFFF AND MUL OR SWAP1 SSTORE POP CALLVALUE DUP1 ISZERO PUSH2 0x78 JUMPI PUSH1 0x0 DUP1 REVERT JUMPDEST POP PUSH1 0x40 MLOAD PUSH2 0x9058 CODESIZE SUB DUP1 PUSH2 0x9058 DUP4 CODECOPY DUP2 DUP2 ADD PUSH1 0x40 MSTORE DUP2 ADD SWAP1 PUSH2 0x9A SWAP2 SWAP1 PUSH2 0x151 JUMP JUMPDEST DUP1 PUSH1 0x1 PUSH1 0x0 PUSH2 0x100 EXP DUP2 SLOAD DUP2 PUSH20 0xFFFFFFFFFFFFFFFFFFFFFFFFFFFFFFFFFFFFFFFF MUL NOT AND SWAP1 DUP4 PUSH20 0xFFFFFFFFFFFFFFFFFFFFFFFFFFFFFFFFFFFFFFFF AND MUL OR SWAP1 SSTORE POP POP PUSH2 0x17E JUMP JUMPDEST PUSH2 0x7D9B DUP1 PUSH2 0x12BD DUP4 CODECOPY ADD SWAP1 JUMP JUMPDEST PUSH1 0x0 DUP1 REVERT JUMPDEST PUSH1 0x0 PUSH20 0xFFFFFFFFFFFFFFFFFFFFFFFFFFFFFFFFFFFFFFFF DUP3 AND SWAP1 POP SWAP2 SWAP1 POP JUMP JUMPDEST PUSH1 0x0 PUSH2 0x11E DUP3 PUSH2 0xF3 JUMP JUMPDEST SWAP1 POP SWAP2 SWAP1 POP JUMP JUMPDEST PUSH2 0x12E DUP2 PUSH2 0x113 JUMP JUMPDEST DUP2 EQ PUSH2 0x139 JUMPI PUSH1 0x0 DUP1 REVERT JUMPDEST POP JUMP JUMPDEST PUSH1 0x0 DUP2 MLOAD SWAP1 POP PUSH2 0x14B DUP2 PUSH2 0x125 JUMP JUMPDEST SWAP3 SWAP2 POP POP JUMP JUMPDEST PUSH1 0x0 PUSH1 0x20 DUP3 DUP5 SUB SLT ISZERO PUSH2 0x167 JUMPI PUSH2 0x166 PUSH2 0xEE JUMP JUMPDEST JUMPDEST PUSH1 0x0 PUSH2 0x175 DUP5 DUP3 DUP6 ADD PUSH2 0x13C JUMP JUMPDEST SWAP2 POP POP SWAP3 SWAP2 POP POP JUMP JUMPDEST PUSH2 0x1130 DUP1 PUSH2 0x18D PUSH1 0x0 CODECOPY PUSH1 0x0 RETURN INVALID PUSH1 0x80 PUSH1 0x40 MSTORE CALLVALUE DUP1 ISZERO PUSH2 0x10 JUMPI PUSH1 0x0 DUP1 REVERT JUMPDEST POP PUSH1 0x4 CALLDATASIZE LT PUSH2 0x62 JUMPI PUSH1 0x0 CALLDATALOAD PUSH1 0xE0 SHR DUP1 PUSH4 0x2B7AC3F3 EQ PUSH2 0x67 JUMPI DUP1 PUSH4 0x3013CE29 EQ PUSH2 0x85 JUMPI DUP1 PUSH4 0x4C674934 EQ PUSH2 0xA3 JUMPI DUP1 PUSH4 0x72236B82 EQ PUSH2 0xBF JUMPI DUP1 PUSH4 0xB12A2C54 EQ PUSH2 0xF0 JUMPI DUP1 PUSH4 0xE2BBB158 EQ PUSH2 0x120 JUMPI JUMPDEST PUSH1 0x0 DUP1 REVERT JUMPDEST PUSH2 0x6F PUSH2 0x13C JUMP JUMPDEST PUSH1 0x40 MLOAD PUSH2 0x7C SWAP2 SWAP1 PUSH2 0x7B9 JUMP JUMPDEST PUSH1 0x40 MLOAD DUP1 SWAP2 SUB SWAP1 RETURN JUMPDEST PUSH2 0x8D PUSH2 0x160 JUMP JUMPDEST PUSH1 0x40 MLOAD PUSH2 0x9A SWAP2 SWAP1 PUSH2 0x7F5 JUMP JUMPDEST PUSH1 0x40 MLOAD DUP1 SWAP2 SUB SWAP1 RETURN JUMPDEST PUSH2 0xBD PUSH1 0x4 DUP1 CALLDATASIZE SUB DUP2 ADD SWAP1 PUSH2 0xB8 SWAP2 SWAP1 PUSH2 0x8E1 JUMP JUMPDEST PUSH2 0x186 JUMP JUMPDEST STOP JUMPDEST PUSH2 0xD9 PUSH1 0x4 DUP1 CALLDATASIZE SUB DUP2 ADD SWAP1 PUSH2 0xD4 SWAP2 SWAP1 PUSH2 0x969 JUMP JUMPDEST PUSH2 0x4CC JUMP JUMPDEST PUSH1 0x40 MLOAD PUSH2 0xE7 SWAP3 SWAP2 SWAP1 PUSH2 0x9A5 JUMP JUMPDEST PUSH1 0x40 MLOAD DUP1 SWAP2 SUB SWAP1 RETURN JUMPDEST PUSH2 0x10A PUSH1 0x4 DUP1 CALLDATASIZE SUB DUP2 ADD SWAP1 PUSH2 0x105 SWAP2 SWAP1 PUSH2 0xA24 JUMP JUMPDEST PUSH2 0x4F0 JUMP JUMPDEST PUSH1 0x40 MLOAD PUSH2 0x117 SWAP2 SWAP1 PUSH2 0xAC0 JUMP JUMPDEST PUSH1 0x40 MLOAD DUP1 SWAP2 SUB SWAP1 RETURN JUMPDEST PUSH2 0x13A PUSH1 0x4 DUP1 CALLDATASIZE SUB DUP2 ADD SWAP1 PUSH2 0x135 SWAP2 SWAP1 PUSH2 0xADB JUMP JUMPDEST PUSH2 0x59D JUMP JUMPDEST STOP JUMPDEST PUSH1 0x0 DUP1 SLOAD SWAP1 PUSH2 0x100 EXP SWAP1 DIV PUSH20 0xFFFFFFFFFFFFFFFFFFFFFFFFFFFFFFFFFFFFFFFF AND DUP2 JUMP JUMPDEST PUSH1 0x1 PUSH1 0x0 SWAP1 SLOAD SWAP1 PUSH2 0x100 EXP SWAP1 DIV PUSH20 0xFFFFFFFFFFFFFFFFFFFFFFFFFFFFFFFFFFFFFFFF AND DUP2 JUMP JUMPDEST PUSH1 0x0 PUSH1 0x2 PUSH8 0xFFFFFFFFFFFFFFFF DUP2 GT ISZERO PUSH2 0x1A3 JUMPI PUSH2 0x1A2 PUSH2 0xB1B JUMP JUMPDEST JUMPDEST PUSH1 0x40 MLOAD SWAP1 DUP1 DUP3 MSTORE DUP1 PUSH1 0x20 MUL PUSH1 0x20 ADD DUP3 ADD PUSH1 0x40 MSTORE DUP1 ISZERO PUSH2 0x1D1 JUMPI DUP2 PUSH1 0x20 ADD PUSH1 0x20 DUP3 MUL DUP1 CALLDATASIZE DUP4 CALLDATACOPY DUP1 DUP3 ADD SWAP2 POP POP SWAP1 POP JUMPDEST POP SWAP1 POP DUP3 PUSH1 0x0 SHL DUP2 PUSH1 0x0 DUP2 MLOAD DUP2 LT PUSH2 0x1EC JUMPI PUSH2 0x1EB PUSH2 0xB4A JUMP JUMPDEST JUMPDEST PUSH1 0x20 MUL PUSH1 0x20 ADD ADD DUP2 DUP2 MSTORE POP POP DUP4 PUSH1 0x0 SHL DUP2 PUSH1 0x1 DUP2 MLOAD DUP2 LT PUSH2 0x210 JUMPI PUSH2 0x20F PUSH2 0xB4A JUMP JUMPDEST JUMPDEST PUSH1 0x20 MUL PUSH1 0x20 ADD ADD DUP2 DUP2 MSTORE POP POP PUSH1 0x0 DUP1 SLOAD SWAP1 PUSH2 0x100 EXP SWAP1 DIV PUSH20 0xFFFFFFFFFFFFFFFFFFFFFFFFFFFFFFFFFFFFFFFF AND PUSH20 0xFFFFFFFFFFFFFFFFFFFFFFFFFFFFFFFFFFFFFFFF AND PUSH4 0xEA50D0E4 DUP8 DUP8 DUP5 PUSH1 0x40 MLOAD DUP5 PUSH4 0xFFFFFFFF AND PUSH1 0xE0 SHL DUP2 MSTORE PUSH1 0x4 ADD PUSH2 0x279 SWAP4 SWAP3 SWAP2 SWAP1 PUSH2 0xC9F JUMP JUMPDEST PUSH1 0x20 PUSH1 0x40 MLOAD DUP1 DUP4 SUB DUP2 DUP7 GAS STATICCALL ISZERO DUP1 ISZERO PUSH2 0x296 JUMPI RETURNDATASIZE PUSH1 0x0 DUP1 RETURNDATACOPY RETURNDATASIZE PUSH1 0x0 REVERT JUMPDEST POP POP POP POP PUSH1 0x40 MLOAD RETURNDATASIZE PUSH1 0x1F NOT PUSH1 0x1F DUP3 ADD AND DUP3 ADD DUP1 PUSH1 0x40 MSTORE POP DUP2 ADD SWAP1 PUSH2 0x2BA SWAP2 SWAP1 PUSH2 0xD04 JUMP JUMPDEST PUSH2 0x2F9 JUMPI PUSH1 0x40 MLOAD PUSH32 0x8C379A000000000000000000000000000000000000000000000000000000000 DUP2 MSTORE PUSH1 0x4 ADD PUSH2 0x2F0 SWAP1 PUSH2 0xD8E JUMP JUMPDEST PUSH1 0x40 MLOAD DUP1 SWAP2 SUB SWAP1 REVERT JUMPDEST PUSH1 0x0 PUSH1 0x2 PUSH1 0x0 DUP5 PUSH20 0xFFFFFFFFFFFFFFFFFFFFFFFFFFFFFFFFFFFFFFFF AND PUSH20 0xFFFFFFFFFFFFFFFFFFFFFFFFFFFFFFFFFFFFFFFF AND DUP2 MSTORE PUSH1 0x20 ADD SWAP1 DUP2 MSTORE PUSH1 0x20 ADD PUSH1 0x0 KECCAK256 SWAP1 POP DUP5 DUP2 PUSH1 0x0 ADD SLOAD LT ISZERO PUSH2 0x383 JUMPI PUSH1 0x40 MLOAD PUSH32 0x8C379A000000000000000000000000000000000000000000000000000000000 DUP2 MSTORE PUSH1 0x4 ADD PUSH2 0x37A SWAP1 PUSH2 0xDFA JUMP JUMPDEST PUSH1 0x40 MLOAD DUP1 SWAP2 SUB SWAP1 REVERT JUMPDEST DUP4 DUP2 PUSH1 0x1 ADD SLOAD EQ PUSH2 0x3C9 JUMPI PUSH1 0x40 MLOAD PUSH32 0x8C379A000000000000000000000000000000000000000000000000000000000 DUP2 MSTORE PUSH1 0x4 ADD PUSH2 0x3C0 SWAP1 PUSH2 0xE66 JUMP JUMPDEST PUSH1 0x40 MLOAD DUP1 SWAP2 SUB SWAP1 REVERT JUMPDEST DUP5 DUP2 PUSH1 0x0 ADD PUSH1 0x0 DUP3 DUP3 SLOAD PUSH2 0x3DD SWAP2 SWAP1 PUSH2 0xEB5 JUMP JUMPDEST SWAP3 POP POP DUP2 SWAP1 SSTORE POP PUSH1 0x1 PUSH1 0x0 SWAP1 SLOAD SWAP1 PUSH2 0x100 EXP SWAP1 DIV PUSH20 0xFFFFFFFFFFFFFFFFFFFFFFFFFFFFFFFFFFFFFFFF AND PUSH20 0xFFFFFFFFFFFFFFFFFFFFFFFFFFFFFFFFFFFFFFFF AND PUSH4 0xA9059CBB CALLER DUP8 PUSH1 0x40 MLOAD DUP4 PUSH4 0xFFFFFFFF AND PUSH1 0xE0 SHL DUP2 MSTORE PUSH1 0x4 ADD PUSH2 0x441 SWAP3 SWAP2 SWAP1 PUSH2 0xEE9 JUMP JUMPDEST PUSH1 0x20 PUSH1 0x40 MLOAD DUP1 DUP4 SUB DUP2 PUSH1 0x0 DUP8 GAS CALL ISZERO DUP1 ISZERO PUSH2 0x460 JUMPI RETURNDATASIZE PUSH1 0x0 DUP1 RETURNDATACOPY RETURNDATASIZE PUSH1 0x0 REVERT JUMPDEST POP POP POP POP PUSH1 0x40 MLOAD RETURNDATASIZE PUSH1 0x1F NOT PUSH1 0x1F DUP3 ADD AND DUP3 ADD DUP1 PUSH1 0x40 MSTORE POP DUP2 ADD SWAP1 PUSH2 0x484 SWAP2 SWAP1 PUSH2 0xD04 JUMP JUMPDEST PUSH2 0x4C3 JUMPI PUSH1 0x40 MLOAD PUSH32 0x8C379A000000000000000000000000000000000000000000000000000000000 DUP2 MSTORE PUSH1 0x4 ADD PUSH2 0x4BA SWAP1 PUSH2 0xF5E JUMP JUMPDEST PUSH1 0x40 MLOAD DUP1 SWAP2 SUB SWAP1 REVERT JUMPDEST POP POP POP POP POP POP POP JUMP JUMPDEST PUSH1 0x2 PUSH1 0x20 MSTORE DUP1 PUSH1 0x0 MSTORE PUSH1 0x40 PUSH1 0x0 KECCAK256 PUSH1 0x0 SWAP2 POP SWAP1 POP DUP1 PUSH1 0x0 ADD SLOAD SWAP1 DUP1 PUSH1 0x1 ADD SLOAD SWAP1 POP DUP3 JUMP JUMPDEST PUSH1 0x0 DUP1 PUSH1 0x0 SWAP1 SLOAD SWAP1 PUSH2 0x100 EXP SWAP1 DIV PUSH20 0xFFFFFFFFFFFFFFFFFFFFFFFFFFFFFFFFFFFFFFFF AND PUSH20 0xFFFFFFFFFFFFFFFFFFFFFFFFFFFFFFFFFFFFFFFF AND PUSH4 0xEA50D0E4 DUP7 DUP7 DUP7 DUP7 PUSH1 0x40 MLOAD DUP6 PUSH4 0xFFFFFFFF AND PUSH1 0xE0 SHL DUP2 MSTORE PUSH1 0x4 ADD PUSH2 0x552 SWAP5 SWAP4 SWAP3 SWAP2 SWAP1 PUSH2 0xFE8 JUMP JUMPDEST PUSH1 0x20 PUSH1 0x40 MLOAD DUP1 DUP4 SUB DUP2 DUP7 GAS STATICCALL ISZERO DUP1 ISZERO PUSH2 0x56F JUMPI RETURNDATASIZE PUSH1 0x0 DUP1 RETURNDATACOPY RETURNDATASIZE PUSH1 0x0 REVERT JUMPDEST POP POP POP POP PUSH1 0x40 MLOAD RETURNDATASIZE PUSH1 0x1F NOT PUSH1 0x1F DUP3 ADD AND DUP3 ADD DUP1 PUSH1 0x40 MSTORE POP DUP2 ADD SWAP1 PUSH2 0x593 SWAP2 SWAP1 PUSH2 0xD04 JUMP JUMPDEST SWAP1 POP SWAP5 SWAP4 POP POP POP POP JUMP JUMPDEST PUSH1 0x0 DUP3 GT PUSH2 0x5E0 JUMPI PUSH1 0x40 MLOAD PUSH32 0x8C379A000000000000000000000000000000000000000000000000000000000 DUP2 MSTORE PUSH1 0x4 ADD PUSH2 0x5D7 SWAP1 PUSH2 0x106F JUMP JUMPDEST PUSH1 0x40 MLOAD DUP1 SWAP2 SUB SWAP1 REVERT JUMPDEST PUSH1 0x1 PUSH1 0x0 SWAP1 SLOAD SWAP1 PUSH2 0x100 EXP SWAP1 DIV PUSH20 0xFFFFFFFFFFFFFFFFFFFFFFFFFFFFFFFFFFFFFFFF AND PUSH20 0xFFFFFFFFFFFFFFFFFFFFFFFFFFFFFFFFFFFFFFFF AND PUSH4 0x23B872DD CALLER ADDRESS DUP6 PUSH1 0x40 MLOAD DUP5 PUSH4 0xFFFFFFFF AND PUSH1 0xE0 SHL DUP2 MSTORE PUSH1 0x4 ADD PUSH2 0x63F SWAP4 SWAP3 SWAP2 SWAP1 PUSH2 0x108F JUMP JUMPDEST PUSH1 0x20 PUSH1 0x40 MLOAD DUP1 DUP4 SUB DUP2 PUSH1 0x0 DUP8 GAS CALL ISZERO DUP1 ISZERO PUSH2 0x65E JUMPI RETURNDATASIZE PUSH1 0x0 DUP1 RETURNDATACOPY RETURNDATASIZE PUSH1 0x0 REVERT JUMPDEST POP POP POP POP PUSH1 0x40 MLOAD RETURNDATASIZE PUSH1 0x1F NOT PUSH1 0x1F DUP3 ADD AND DUP3 ADD DUP1 PUSH1 0x40 MSTORE POP DUP2 ADD SWAP1 PUSH2 0x682 SWAP2 SWAP1 PUSH2 0xD04 JUMP JUMPDEST PUSH2 0x6C1 JUMPI PUSH1 0x40 MLOAD PUSH32 0x8C379A000000000000000000000000000000000000000000000000000000000 DUP2 MSTORE PUSH1 0x4 ADD PUSH2 0x6B8 SWAP1 PUSH2 0xF5E JUMP JUMPDEST PUSH1 0x40 MLOAD DUP1 SWAP2 SUB SWAP1 REVERT JUMPDEST PUSH1 0x0 PUSH1 0x2 PUSH1 0x0 CALLER PUSH20 0xFFFFFFFFFFFFFFFFFFFFFFFFFFFFFFFFFFFFFFFF AND PUSH20 0xFFFFFFFFFFFFFFFFFFFFFFFFFFFFFFFFFFFFFFFF AND DUP2 MSTORE PUSH1 0x20 ADD SWAP1 DUP2 MSTORE PUSH1 0x20 ADD PUSH1 0x0 KECCAK256 SWAP1 POP PUSH1 0x0 DUP2 PUSH1 0x1 ADD SLOAD SUB PUSH2 0x71A JUMPI DUP2 DUP2 PUSH1 0x1 ADD DUP2 SWAP1 SSTORE POP JUMPDEST DUP3 DUP2 PUSH1 0x0 ADD PUSH1 0x0 DUP3 DUP3 SLOAD PUSH2 0x72E SWAP2 SWAP1 PUSH2 0x10C6 JUMP JUMPDEST SWAP3 POP POP DUP2 SWAP1 SSTORE POP POP POP POP JUMP JUMPDEST PUSH1 0x0 PUSH20 0xFFFFFFFFFFFFFFFFFFFFFFFFFFFFFFFFFFFFFFFF DUP3 AND SWAP1 POP SWAP2 SWAP1 POP JUMP JUMPDEST PUSH1 0x0 DUP2 SWAP1 POP SWAP2 SWAP1 POP JUMP JUMPDEST PUSH1 0x0 PUSH2 0x77F PUSH2 0x77A PUSH2 0x775 DUP5 PUSH2 0x73A JUMP JUMPDEST PUSH2 0x75A JUMP JUMPDEST PUSH2 0x73A JUMP JUMPDEST SWAP1 POP SWAP2 SWAP1 POP JUMP JUMPDEST PUSH1 0x0 PUSH2 0x791 DUP3 PUSH2 0x764 JUMP JUMPDEST SWAP1 POP SWAP2 SWAP1 POP JUMP JUMPDEST PUSH1 0x0 PUSH2 0x7A3 DUP3 PUSH2 0x786 JUMP JUMPDEST SWAP1 POP SWAP2 SWAP1 POP JUMP JUMPDEST PUSH2 0x7B3 DUP2 PUSH2 0x798 JUMP JUMPDEST DUP3 MSTORE POP POP JUMP JUMPDEST PUSH1 0x0 PUSH1 0x20 DUP3 ADD SWAP1 POP PUSH2 0x7CE PUSH1 0x0 DUP4 ADD DUP5 PUSH2 0x7AA JUMP JUMPDEST SWAP3 SWAP2 POP POP JUMP JUMPDEST PUSH1 0x0 PUSH2 0x7DF DUP3 PUSH2 0x73A JUMP JUMPDEST SWAP1 POP SWAP2 SWAP1 POP JUMP JUMPDEST PUSH2 0x7EF DUP2 PUSH2 0x7D4 JUMP JUMPDEST DUP3 MSTORE POP POP JUMP JUMPDEST PUSH1 0x0 PUSH1 0x20 DUP3 ADD SWAP1 POP PUSH2 0x80A PUSH1 0x0 DUP4 ADD DUP5 PUSH2 0x7E6 JUMP JUMPDEST SWAP3 SWAP2 POP POP JUMP JUMPDEST PUSH1 0x0 DUP1 REVERT JUMPDEST PUSH1 0x0 DUP1 REVERT JUMPDEST PUSH1 0x0 DUP1 REVERT JUMPDEST PUSH1 0x0 DUP1 REVERT JUMPDEST PUSH1 0x0 DUP1 REVERT JUMPDEST PUSH1 0x0 DUP1 DUP4 PUSH1 0x1F DUP5 ADD SLT PUSH2 0x83F JUMPI PUSH2 0x83E PUSH2 0x81A JUMP JUMPDEST JUMPDEST DUP3 CALLDATALOAD SWAP1 POP PUSH8 0xFFFFFFFFFFFFFFFF DUP2 GT ISZERO PUSH2 0x85C JUMPI PUSH2 0x85B PUSH2 0x81F JUMP JUMPDEST JUMPDEST PUSH1 0x20 DUP4 ADD SWAP2 POP DUP4 PUSH1 0x1 DUP3 MUL DUP4 ADD GT ISZERO PUSH2 0x878 JUMPI PUSH2 0x877 PUSH2 0x824 JUMP JUMPDEST JUMPDEST SWAP3 POP SWAP3 SWAP1 POP JUMP JUMPDEST PUSH1 0x0 DUP2 SWAP1 POP SWAP2 SWAP1 POP JUMP JUMPDEST PUSH2 0x892 DUP2 PUSH2 0x87F JUMP JUMPDEST DUP2 EQ PUSH2 0x89D JUMPI PUSH1 0x0 DUP1 REVERT JUMPDEST POP JUMP JUMPDEST PUSH1 0x0 DUP2 CALLDATALOAD SWAP1 POP PUSH2 0x8AF DUP2 PUSH2 0x889 JUMP JUMPDEST SWAP3 SWAP2 POP POP JUMP JUMPDEST PUSH2 0x8BE DUP2 PUSH2 0x7D4 JUMP JUMPDEST DUP2 EQ PUSH2 0x8C9 JUMPI PUSH1 0x0 DUP1 REVERT JUMPDEST POP JUMP JUMPDEST PUSH1 0x0 DUP2 CALLDATALOAD SWAP1 POP PUSH2 0x8DB DUP2 PUSH2 0x8B5 JUMP JUMPDEST SWAP3 SWAP2 POP POP JUMP JUMPDEST PUSH1 0x0 DUP1 PUSH1 0x0 DUP1 PUSH1 0x0 PUSH1 0x80 DUP7 DUP9 SUB SLT ISZERO PUSH2 0x8FD JUMPI PUSH2 0x8FC PUSH2 0x810 JUMP JUMPDEST JUMPDEST PUSH1 0x0 DUP7 ADD CALLDATALOAD PUSH8 0xFFFFFFFFFFFFFFFF DUP2 GT ISZERO PUSH2 0x91B JUMPI PUSH2 0x91A PUSH2 0x815 JUMP JUMPDEST JUMPDEST PUSH2 0x927 DUP9 DUP3 DUP10 ADD PUSH2 0x829 JUMP JUMPDEST SWAP6 POP SWAP6 POP POP PUSH1 0x20 PUSH2 0x93A DUP9 DUP3 DUP10 ADD PUSH2 0x8A0 JUMP JUMPDEST SWAP4 POP POP PUSH1 0x40 PUSH2 0x94B DUP9 DUP3 DUP10 ADD PUSH2 0x8A0 JUMP JUMPDEST SWAP3 POP POP PUSH1 0x60 PUSH2 0x95C DUP9 DUP3 DUP10 ADD PUSH2 0x8CC JUMP JUMPDEST SWAP2 POP POP SWAP3 SWAP6 POP SWAP3 SWAP6 SWAP1 SWAP4 POP JUMP JUMPDEST PUSH1 0x0 PUSH1 0x20 DUP3 DUP5 SUB SLT ISZERO PUSH2 0x97F JUMPI PUSH2 0x97E PUSH2 0x810 JUMP JUMPDEST JUMPDEST PUSH1 0x0 PUSH2 0x98D DUP5 DUP3 DUP6 ADD PUSH2 0x8CC JUMP JUMPDEST SWAP2 POP POP SWAP3 SWAP2 POP POP JUMP JUMPDEST PUSH2 0x99F DUP2 PUSH2 0x87F JUMP JUMPDEST DUP3 MSTORE POP POP JUMP JUMPDEST PUSH1 0x0 PUSH1 0x40 DUP3 ADD SWAP1 POP PUSH2 0x9BA PUSH1 0x0 DUP4 ADD DUP6 PUSH2 0x996 JUMP JUMPDEST PUSH2 0x9C7 PUSH1 0x20 DUP4 ADD DUP5 PUSH2 0x996 JUMP JUMPDEST SWAP4 SWAP3 POP POP POP JUMP JUMPDEST PUSH1 0x0 DUP1 DUP4 PUSH1 0x1F DUP5 ADD SLT PUSH2 0x9E4 JUMPI PUSH2 0x9E3 PUSH2 0x81A JUMP JUMPDEST JUMPDEST DUP3 CALLDATALOAD SWAP1 POP PUSH8 0xFFFFFFFFFFFFFFFF DUP2 GT ISZERO PUSH2 0xA01 JUMPI PUSH2 0xA00 PUSH2 0x81F JUMP JUMPDEST JUMPDEST PUSH1 0x20 DUP4 ADD SWAP2 POP DUP4 PUSH1 0x20 DUP3 MUL DUP4 ADD GT ISZERO PUSH2 0xA1D JUMPI PUSH2 0xA1C PUSH2 0x824 JUMP JUMPDEST JUMPDEST SWAP3 POP SWAP3 SWAP1 POP JUMP JUMPDEST PUSH1 0x0 DUP1 PUSH1 0x0 DUP1 PUSH1 0x40 DUP6 DUP8 SUB SLT ISZERO PUSH2 0xA3E JUMPI PUSH2 0xA3D PUSH2 0x810 JUMP JUMPDEST JUMPDEST PUSH1 0x0 DUP6 ADD CALLDATALOAD PUSH8 0xFFFFFFFFFFFFFFFF DUP2 GT ISZERO PUSH2 0xA5C JUMPI PUSH2 0xA5B PUSH2 0x815 JUMP JUMPDEST JUMPDEST PUSH2 0xA68 DUP8 DUP3 DUP9 ADD PUSH2 0x829 JUMP JUMPDEST SWAP5 POP SWAP5 POP POP PUSH1 0x20 DUP6 ADD CALLDATALOAD PUSH8 0xFFFFFFFFFFFFFFFF DUP2 GT ISZERO PUSH2 0xA8B JUMPI PUSH2 0xA8A PUSH2 0x815 JUMP JUMPDEST JUMPDEST PUSH2 0xA97 DUP8 DUP3 DUP9 ADD PUSH2 0x9CE JUMP JUMPDEST SWAP3 POP SWAP3 POP POP SWAP3 SWAP6 SWAP2 SWAP5 POP SWAP3 POP JUMP JUMPDEST PUSH1 0x0 DUP2 ISZERO ISZERO SWAP1 POP SWAP2 SWAP1 POP JUMP JUMPDEST PUSH2 0xABA DUP2 PUSH2 0xAA5 JUMP JUMPDEST DUP3 MSTORE POP POP JUMP JUMPDEST PUSH1 0x0 PUSH1 0x20 DUP3 ADD SWAP1 POP PUSH2 0xAD5 PUSH1 0x0 DUP4 ADD DUP5 PUSH2 0xAB1 JUMP JUMPDEST SWAP3 SWAP2 POP POP JUMP JUMPDEST PUSH1 0x0 DUP1 PUSH1 0x40 DUP4 DUP6 SUB SLT ISZERO PUSH2 0xAF2 JUMPI PUSH2 0xAF1 PUSH2 0x810 JUMP JUMPDEST JUMPDEST PUSH1 0x0 PUSH2 0xB00 DUP6 DUP3 DUP7 ADD PUSH2 0x8A0 JUMP JUMPDEST SWAP3 POP POP PUSH1 0x20 PUSH2 0xB11 DUP6 DUP3 DUP7 ADD PUSH2 0x8A0 JUMP JUMPDEST SWAP2 POP POP SWAP3 POP SWAP3 SWAP1 POP JUMP JUMPDEST PUSH32 0x4E487B7100000000000000000000000000000000000000000000000000000000 PUSH1 0x0 MSTORE PUSH1 0x41 PUSH1 0x4 MSTORE PUSH1 0x24 PUSH1 0x0 REVERT JUMPDEST PUSH32 0x4E487B7100000000000000000000000000000000000000000000000000000000 PUSH1 0x0 MSTORE PUSH1 0x32 PUSH1 0x4 MSTORE PUSH1 0x24 PUSH1 0x0 REVERT JUMPDEST PUSH1 0x0 DUP3 DUP3 MSTORE PUSH1 0x20 DUP3 ADD SWAP1 POP SWAP3 SWAP2 POP POP JUMP JUMPDEST DUP3 DUP2 DUP4 CALLDATACOPY PUSH1 0x0 DUP4 DUP4 ADD MSTORE POP POP POP JUMP JUMPDEST PUSH1 0x0 PUSH1 0x1F NOT PUSH1 0x1F DUP4 ADD AND SWAP1 POP SWAP2 SWAP1 POP JUMP JUMPDEST PUSH1 0x0 PUSH2 0xBB6 DUP4 DUP6 PUSH2 0xB79 JUMP JUMPDEST SWAP4 POP PUSH2 0xBC3 DUP4 DUP6 DUP5 PUSH2 0xB8A JUMP JUMPDEST PUSH2 0xBCC DUP4 PUSH2 0xB99 JUMP JUMPDEST DUP5 ADD SWAP1 POP SWAP4 SWAP3 POP POP POP JUMP JUMPDEST PUSH1 0x0 DUP2 MLOAD SWAP1 POP SWAP2 SWAP1 POP JUMP JUMPDEST PUSH1 0x0 DUP3 DUP3 MSTORE PUSH1 0x20 DUP3 ADD SWAP1 POP SWAP3 SWAP2 POP POP JUMP JUMPDEST PUSH1 0x0 DUP2 SWAP1 POP PUSH1 0x20 DUP3 ADD SWAP1 POP SWAP2 SWAP1 POP JUMP JUMPDEST PUSH1 0x0 DUP2 SWAP1 POP SWAP2 SWAP1 POP JUMP JUMPDEST PUSH2 0xC16 DUP2 PUSH2 0xC03 JUMP JUMPDEST DUP3 MSTORE POP POP JUMP JUMPDEST PUSH1 0x0 PUSH2 0xC28 DUP4 DUP4 PUSH2 0xC0D JUMP JUMPDEST PUSH1 0x20 DUP4 ADD SWAP1 POP SWAP3 SWAP2 POP POP JUMP JUMPDEST PUSH1 0x0 PUSH1 0x20 DUP3 ADD SWAP1 POP SWAP2 SWAP1 POP JUMP JUMPDEST PUSH1 0x0 PUSH2 0xC4C DUP3 PUSH2 0xBD7 JUMP JUMPDEST PUSH2 0xC56 DUP2 DUP6 PUSH2 0xBE2 JUMP JUMPDEST SWAP4 POP PUSH2 0xC61 DUP4 PUSH2 0xBF3 JUMP JUMPDEST DUP1 PUSH1 0x0 JUMPDEST DUP4 DUP2 LT ISZERO PUSH2 0xC92 JUMPI DUP2 MLOAD PUSH2 0xC79 DUP9 DUP3 PUSH2 0xC1C JUMP JUMPDEST SWAP8 POP PUSH2 0xC84 DUP4 PUSH2 0xC34 JUMP JUMPDEST SWAP3 POP POP PUSH1 0x1 DUP2 ADD SWAP1 POP PUSH2 0xC65 JUMP JUMPDEST POP DUP6 SWAP4 POP POP POP POP SWAP3 SWAP2 POP POP JUMP JUMPDEST PUSH1 0x0 PUSH1 0x40 DUP3 ADD SWAP1 POP DUP2 DUP2 SUB PUSH1 0x0 DUP4 ADD MSTORE PUSH2 0xCBA DUP2 DUP6 DUP8 PUSH2 0xBAA JUMP JUMPDEST SWAP1 POP DUP2 DUP2 SUB PUSH1 0x20 DUP4 ADD MSTORE PUSH2 0xCCE DUP2 DUP5 PUSH2 0xC41 JUMP JUMPDEST SWAP1 POP SWAP5 SWAP4 POP POP POP POP JUMP JUMPDEST PUSH2 0xCE1 DUP2 PUSH2 0xAA5 JUMP JUMPDEST DUP2 EQ PUSH2 0xCEC JUMPI PUSH1 0x0 DUP1 REVERT JUMPDEST POP JUMP JUMPDEST PUSH1 0x0 DUP2 MLOAD SWAP1 POP PUSH2 0xCFE DUP2 PUSH2 0xCD8 JUMP JUMPDEST SWAP3 SWAP2 POP POP JUMP JUMPDEST PUSH1 0x0 PUSH1 0x20 DUP3 DUP5 SUB SLT ISZERO PUSH2 0xD1A JUMPI PUSH2 0xD19 PUSH2 0x810 JUMP JUMPDEST JUMPDEST PUSH1 0x0 PUSH2 0xD28 DUP5 DUP3 DUP6 ADD PUSH2 0xCEF JUMP JUMPDEST SWAP2 POP POP SWAP3 SWAP2 POP POP JUMP JUMPDEST PUSH1 0x0 DUP3 DUP3 MSTORE PUSH1 0x20 DUP3 ADD SWAP1 POP SWAP3 SWAP2 POP POP JUMP JUMPDEST PUSH32 0x496E76616C69642070726F6F6600000000000000000000000000000000000000 PUSH1 0x0 DUP3 ADD MSTORE POP JUMP JUMPDEST PUSH1 0x0 PUSH2 0xD78 PUSH1 0xD DUP4 PUSH2 0xD31 JUMP JUMPDEST SWAP2 POP PUSH2 0xD83 DUP3 PUSH2 0xD42 JUMP JUMPDEST PUSH1 0x20 DUP3 ADD SWAP1 POP SWAP2 SWAP1 POP JUMP JUMPDEST PUSH1 0x0 PUSH1 0x20 DUP3 ADD SWAP1 POP DUP2 DUP2 SUB PUSH1 0x0 DUP4 ADD MSTORE PUSH2 0xDA7 DUP2 PUSH2 0xD6B JUMP JUMPDEST SWAP1 POP SWAP2 SWAP1 POP JUMP JUMPDEST PUSH32 0x496E73756666696369656E742062616C616E6365000000000000000000000000 PUSH1 0x0 DUP3 ADD MSTORE POP JUMP JUMPDEST PUSH1 0x0 PUSH2 0xDE4 PUSH1 0x14 DUP4 PUSH2 0xD31 JUMP JUMPDEST SWAP2 POP PUSH2 0xDEF DUP3 PUSH2 0xDAE JUMP JUMPDEST PUSH1 0x20 DUP3 ADD SWAP1 POP SWAP2 SWAP1 POP JUMP JUMPDEST PUSH1 0x0 PUSH1 0x20 DUP3 ADD SWAP1 POP DUP2 DUP2 SUB PUSH1 0x0 DUP4 ADD MSTORE PUSH2 0xE13 DUP2 PUSH2 0xDD7 JUMP JUMPDEST SWAP1 POP SWAP2 SWAP1 POP JUMP JUMPDEST PUSH32 0x496E76616C696420726563697069656E7420636F6D6D69746D656E7400000000 PUSH1 0x0 DUP3 ADD MSTORE POP JUMP JUMPDEST PUSH1 0x0 PUSH2 0xE50 PUSH1 0x1C DUP4 PUSH2 0xD31 JUMP JUMPDEST SWAP2 POP PUSH2 0xE5B DUP3 PUSH2 0xE1A JUMP JUMPDEST PUSH1 0x20 DUP3 ADD SWAP1 POP SWAP2 SWAP1 POP JUMP JUMPDEST PUSH1 0x0 PUSH1 0x20 DUP3 ADD SWAP1 POP DUP2 DUP2 SUB PUSH1 0x0 DUP4 ADD MSTORE PUSH2 0xE7F DUP2 PUSH2 0xE43 JUMP JUMPDEST SWAP1 POP SWAP2 SWAP1 POP JUMP JUMPDEST PUSH32 0x4E487B7100000000000000000000000000000000000000000000000000000000 PUSH1 0x0 MSTORE PUSH1 0x11 PUSH1 0x4 MSTORE PUSH1 0x24 PUSH1 0x0 REVERT JUMPDEST PUSH1 0x0 PUSH2 0xEC0 DUP3 PUSH2 0x87F JUMP JUMPDEST SWAP2 POP PUSH2 0xECB DUP4 PUSH2 0x87F JUMP JUMPDEST SWAP3 POP DUP3 DUP3 SUB SWAP1 POP DUP2 DUP2 GT ISZERO PUSH2 0xEE3 JUMPI PUSH2 0xEE2 PUSH2 0xE86 JUMP JUMPDEST JUMPDEST SWAP3 SWAP2 POP POP JUMP JUMPDEST PUSH1 0x0 PUSH1 0x40 DUP3 ADD SWAP1 POP PUSH2 0xEFE PUSH1 0x0 DUP4 ADD DUP6 PUSH2 0x7E6 JUMP JUMPDEST PUSH2 0xF0B PUSH1 0x20 DUP4 ADD DUP5 PUSH2 0x996 JUMP JUMPDEST SWAP4 SWAP3 POP POP POP JUMP JUMPDEST PUSH32 0x546F6B656E207472616E73666572206661696C65640000000000000000000000 PUSH1 0x0 DUP3 ADD MSTORE POP JUMP JUMPDEST PUSH1 0x0 PUSH2 0xF48 PUSH1 0x15 DUP4 PUSH2 0xD31 JUMP JUMPDEST SWAP2 POP PUSH2 0xF53 DUP3 PUSH2 0xF12 JUMP JUMPDEST PUSH1 0x20 DUP3 ADD SWAP1 POP SWAP2 SWAP1 POP JUMP JUMPDEST PUSH1 0x0 PUSH1 0x20 DUP3 ADD SWAP1 POP DUP2 DUP2 SUB PUSH1 0x0 DUP4 ADD MSTORE PUSH2 0xF77 DUP2 PUSH2 0xF3B JUMP JUMPDEST SWAP1 POP SWAP2 SWAP1 POP JUMP JUMPDEST PUSH1 0x0 DUP1 REVERT JUMPDEST DUP3 DUP2 DUP4 CALLDATACOPY POP POP POP JUMP JUMPDEST PUSH1 0x0 PUSH2 0xF98 DUP4 DUP6 PUSH2 0xBE2 JUMP JUMPDEST SWAP4 POP PUSH32 0x7FFFFFFFFFFFFFFFFFFFFFFFFFFFFFFFFFFFFFFFFFFFFFFFFFFFFFFFFFFFFFF DUP4 GT ISZERO PUSH2 0xFCB JUMPI PUSH2 0xFCA PUSH2 0xF7E JUMP JUMPDEST JUMPDEST PUSH1 0x20 DUP4 MUL SWAP3 POP PUSH2 0xFDC DUP4 DUP6 DUP5 PUSH2 0xF83 JUMP JUMPDEST DUP3 DUP5 ADD SWAP1 POP SWAP4 SWAP3 POP POP POP JUMP JUMPDEST PUSH1 0x0 PUSH1 0x40 DUP3 ADD SWAP1 POP DUP2 DUP2 SUB PUSH1 0x0 DUP4 ADD MSTORE PUSH2 0x1003 DUP2 DUP7 DUP9 PUSH2 0xBAA JUMP JUMPDEST SWAP1 POP DUP2 DUP2 SUB PUSH1 0x20 DUP4 ADD MSTORE PUSH2 0x1018 DUP2 DUP5 DUP7 PUSH2 0xF8C JUMP JUMPDEST SWAP1 POP SWAP6 SWAP5 POP POP POP POP POP JUMP JUMPDEST PUSH32 0x416D6F756E74206D7573742062652067726561746572207468616E207A65726F PUSH1 0x0 DUP3 ADD MSTORE POP JUMP JUMPDEST PUSH1 0x0 PUSH2 0x1059 PUSH1 0x20 DUP4 PUSH2 0xD31 JUMP JUMPDEST SWAP2 POP PUSH2 0x1064 DUP3 PUSH2 0x1023 JUMP JUMPDEST PUSH1 0x20 DUP3 ADD SWAP1 POP SWAP2 SWAP1 POP JUMP JUMPDEST PUSH1 0x0 PUSH1 0x20 DUP3 ADD SWAP1 POP DUP2 DUP2 SUB PUSH1 0x0 DUP4 ADD MSTORE PUSH2 0x1088 DUP2 PUSH2 0x104C JUMP JUMPDEST SWAP1 POP SWAP2 SWAP1 POP JUMP JUMPDEST PUSH1 0x0 PUSH1 0x60 DUP3 ADD SWAP1 POP PUSH2 0x10A4 PUSH1 0x0 DUP4 ADD DUP7 PUSH2 0x7E6 JUMP JUMPDEST PUSH2 0x10B1 PUSH1 0x20 DUP4 ADD DUP6 PUSH2 0x7E6 JUMP JUMPDEST PUSH2 0x10BE PUSH1 0x40 DUP4 ADD DUP5 PUSH2 0x996 JUMP JUMPDEST SWAP5 SWAP4 POP POP POP POP JUMP JUMPDEST PUSH1 0x0 PUSH2 0x10D1 DUP3 PUSH2 0x87F JUMP JUMPDEST SWAP2 POP PUSH2 0x10DC DUP4 PUSH2 0x87F JUMP JUMPDEST SWAP3 POP DUP3 DUP3 ADD SWAP1 POP DUP1 DUP3 GT ISZERO PUSH2 0x10F4 JUMPI PUSH2 0x10F3 PUSH2 0xE86 JUMP JUMPDEST JUMPDEST SWAP3 SWAP2 POP POP JUMP INVALID LOG2 PUSH5 0x6970667358 0x22 SLT KECCAK256 0xCC CALLER RETURNDATACOPY 0xD2 DUP9 SAR CODECOPY PUSH10 0xA38CBECC7DCC97E88900 MSIZE 0xD0 CALLCODE 0xD GASLIMIT POP 0xC9 DUP15 0xB2 0xE6 SIGNEXTEND 0x24 CODESIZE CALLDATACOPY PUSH5 0x736F6C6343 STOP ADDMOD SHR STOP CALLER PUSH1 0x80 PUSH1 0x40 MSTORE CALLVALUE DUP1 ISZERO PUSH1 0xF JUMPI PUSH1 0x0 DUP1 REVERT JUMPDEST POP PUSH2 0x7D7C DUP1 PUSH2 0x1F PUSH1 0x0 CODECOPY PUSH1 0x0 RETURN INVALID PUSH1 0x80 PUSH1 0x40 MSTORE CALLVALUE DUP1 ISZERO PUSH2 0x10 JUMPI PUSH1 0x0 DUP1 REVERT JUMPDEST POP PUSH1 0x4 CALLDATASIZE LT PUSH2 0x2B JUMPI PUSH1 0x0 CALLDATALOAD PUSH1 0xE0 SHR DUP1 PUSH4 0xEA50D0E4 EQ PUSH2 0x30 JUMPI JUMPDEST PUSH1 0x0 DUP1 REVERT JUMPDEST PUSH2 0x4A PUSH1 0x4 DUP1 CALLDATASIZE SUB DUP2 ADD SWAP1 PUSH2 0x45 SWAP2 SWAP1 PUSH2 0x71C7 JUMP JUMPDEST PUSH2 0x60 JUMP JUMPDEST PUSH1 0x40 MLOAD PUSH2 0x57 SWAP2 SWAP1 PUSH2 0x7263 JUMP JUMPDEST PUSH1 0x40 MLOAD DUP1 SWAP2 SUB SWAP1 RETURN JUMPDEST PUSH1 0x0 DUP1 PUSH2 0x6B PUSH2 0x1DB JUMP JUMPDEST SWAP1 POP PUSH1 0x0 PUSH2 0x79 DUP8 DUP8 PUSH2 0x1F0 JUMP JUMPDEST SWAP1 POP DUP2 PUSH1 0x40 ADD MLOAD DUP6 DUP6 SWAP1 POP EQ PUSH2 0xBB JUMPI PUSH1 0x40 MLOAD PUSH32 0xFA06659300000000000000000000000000000000000000000000000000000000 DUP2 MSTORE PUSH1 0x4 ADD PUSH1 0x40 MLOAD DUP1 SWAP2 SUB SWAP1 REVERT JUMPDEST PUSH1 0x0 PUSH2 0xCD DUP3 DUP8 DUP8 DUP7 PUSH1 0x40 ADD MLOAD PUSH2 0xE1D JUMP JUMPDEST SWAP1 POP PUSH2 0x12D DUP7 DUP7 DUP1 DUP1 PUSH1 0x20 MUL PUSH1 0x20 ADD PUSH1 0x40 MLOAD SWAP1 DUP2 ADD PUSH1 0x40 MSTORE DUP1 SWAP4 SWAP3 SWAP2 SWAP1 DUP2 DUP2 MSTORE PUSH1 0x20 ADD DUP4 DUP4 PUSH1 0x20 MUL DUP1 DUP3 DUP5 CALLDATACOPY PUSH1 0x0 DUP2 DUP5 ADD MSTORE PUSH1 0x1F NOT PUSH1 0x1F DUP3 ADD AND SWAP1 POP DUP1 DUP4 ADD SWAP3 POP POP POP POP POP POP POP DUP3 PUSH1 0x60 ADD MLOAD DUP4 PUSH1 0x80 ADD MLOAD DUP7 PUSH1 0x0 ADD MLOAD DUP7 PUSH1 0x40 ADD MLOAD PUSH2 0xF1C JUMP JUMPDEST DUP2 PUSH2 0x180 ADD DUP2 DUP2 MSTORE POP POP PUSH1 0x0 PUSH2 0x143 DUP4 DUP4 PUSH2 0x101B JUMP JUMPDEST SWAP1 POP DUP1 PUSH2 0x17C JUMPI PUSH1 0x40 MLOAD PUSH32 0x9FC3A21800000000000000000000000000000000000000000000000000000000 DUP2 MSTORE PUSH1 0x4 ADD PUSH1 0x40 MLOAD DUP1 SWAP2 SUB SWAP1 REVERT JUMPDEST PUSH1 0x0 PUSH2 0x189 DUP5 DUP7 DUP6 PUSH2 0x1103 JUMP JUMPDEST SWAP1 POP DUP1 PUSH2 0x1C2 JUMPI PUSH1 0x40 MLOAD PUSH32 0xA5D82E8A00000000000000000000000000000000000000000000000000000000 DUP2 MSTORE PUSH1 0x4 ADD PUSH1 0x40 MLOAD DUP1 SWAP2 SUB SWAP1 REVERT JUMPDEST DUP2 DUP1 ISZERO PUSH2 0x1CC JUMPI POP DUP1 JUMPDEST SWAP6 POP POP POP POP POP POP SWAP5 SWAP4 POP POP POP POP JUMP JUMPDEST PUSH2 0x1E3 PUSH2 0x6989 JUMP JUMPDEST PUSH2 0x1EB PUSH2 0x1D7A JUMP JUMPDEST SWAP1 POP SWAP1 JUMP JUMPDEST PUSH2 0x1F8 PUSH2 0x6B0A JUMP JUMPDEST PUSH2 0x200 PUSH2 0x6B0A JUMP JUMPDEST DUP4 DUP4 PUSH1 0x0 SWAP1 PUSH1 0x20 SWAP3 PUSH2 0x214 SWAP4 SWAP3 SWAP2 SWAP1 PUSH2 0x7288 JUMP JUMPDEST SWAP1 PUSH2 0x21F SWAP2 SWAP1 PUSH2 0x72E5 JUMP JUMPDEST PUSH1 0x0 SHR DUP2 PUSH1 0x0 ADD DUP2 DUP2 MSTORE POP POP DUP4 DUP4 PUSH1 0x20 SWAP1 PUSH1 0x40 SWAP3 PUSH2 0x23F SWAP4 SWAP3 SWAP2 SWAP1 PUSH2 0x7288 JUMP JUMPDEST SWAP1 PUSH2 0x24A SWAP2 SWAP1 PUSH2 0x72E5 JUMP JUMPDEST PUSH1 0x0 SHR DUP2 PUSH1 0x20 ADD DUP2 DUP2 MSTORE POP POP DUP4 DUP4 PUSH1 0x40 SWAP1 PUSH1 0x60 SWAP3 PUSH2 0x26A SWAP4 SWAP3 SWAP2 SWAP1 PUSH2 0x7288 JUMP JUMPDEST SWAP1 PUSH2 0x275 SWAP2 SWAP1 PUSH2 0x72E5 JUMP JUMPDEST PUSH1 0x0 SHR DUP2 PUSH1 0x40 ADD DUP2 DUP2 MSTORE POP POP PUSH1 0x40 MLOAD DUP1 PUSH1 0x80 ADD PUSH1 0x40 MSTORE DUP1 DUP6 DUP6 PUSH1 0x60 SWAP1 PUSH1 0x80 SWAP3 PUSH2 0x2A0 SWAP4 SWAP3 SWAP2 SWAP1 PUSH2 0x7288 JUMP JUMPDEST SWAP1 PUSH2 0x2AB SWAP2 SWAP1 PUSH2 0x72E5 JUMP JUMPDEST PUSH1 0x0 SHR DUP2 MSTORE PUSH1 0x20 ADD DUP6 DUP6 PUSH1 0x80 SWAP1 PUSH1 0xA0 SWAP3 PUSH2 0x2C7 SWAP4 SWAP3 SWAP2 SWAP1 PUSH2 0x7288 JUMP JUMPDEST SWAP1 PUSH2 0x2D2 SWAP2 SWAP1 PUSH2 0x72E5 JUMP JUMPDEST PUSH1 0x0 SHR DUP2 MSTORE PUSH1 0x20 ADD DUP6 DUP6 PUSH1 0xA0 SWAP1 PUSH1 0xC0 SWAP3 PUSH2 0x2EE SWAP4 SWAP3 SWAP2 SWAP1 PUSH2 0x7288 JUMP JUMPDEST SWAP1 PUSH2 0x2F9 SWAP2 SWAP1 PUSH2 0x72E5 JUMP JUMPDEST PUSH1 0x0 SHR DUP2 MSTORE PUSH1 0x20 ADD DUP6 DUP6 PUSH1 0xC0 SWAP1 PUSH1 0xE0 SWAP3 PUSH2 0x315 SWAP4 SWAP3 SWAP2 SWAP1 PUSH2 0x7288 JUMP JUMPDEST SWAP1 PUSH2 0x320 SWAP2 SWAP1 PUSH2 0x72E5 JUMP JUMPDEST PUSH1 0x0 SHR DUP2 MSTORE POP DUP2 PUSH1 0x60 ADD DUP2 SWAP1 MSTORE POP PUSH1 0x40 MLOAD DUP1 PUSH1 0x80 ADD PUSH1 0x40 MSTORE DUP1 DUP6 DUP6 PUSH1 0xE0 SWAP1 PUSH2 0x100 SWAP3 PUSH2 0x34E SWAP4 SWAP3 SWAP2 SWAP1 PUSH2 0x7288 JUMP JUMPDEST SWAP1 PUSH2 0x359 SWAP2 SWAP1 PUSH2 0x72E5 JUMP JUMPDEST PUSH1 0x0 SHR DUP2 MSTORE PUSH1 0x20 ADD DUP6 DUP6 PUSH2 0x100 SWAP1 PUSH2 0x120 SWAP3 PUSH2 0x377 SWAP4 SWAP3 SWAP2 SWAP1 PUSH2 0x7288 JUMP JUMPDEST SWAP1 PUSH2 0x382 SWAP2 SWAP1 PUSH2 0x72E5 JUMP JUMPDEST PUSH1 0x0 SHR DUP2 MSTORE PUSH1 0x20 ADD DUP6 DUP6 PUSH2 0x120 SWAP1 PUSH2 0x140 SWAP3 PUSH2 0x3A0 SWAP4 SWAP3 SWAP2 SWAP1 PUSH2 0x7288 JUMP JUMPDEST SWAP1 PUSH2 0x3AB SWAP2 SWAP1 PUSH2 0x72E5 JUMP JUMPDEST PUSH1 0x0 SHR DUP2 MSTORE PUSH1 0x20 ADD DUP6 DUP6 PUSH2 0x140 SWAP1 PUSH2 0x160 SWAP3 PUSH2 0x3C9 SWAP4 SWAP3 SWAP2 SWAP1 PUSH2 0x7288 JUMP JUMPDEST SWAP1 PUSH2 0x3D4 SWAP2 SWAP1 PUSH2 0x72E5 JUMP JUMPDEST PUSH1 0x0 SHR DUP2 MSTORE POP DUP2 PUSH1 0x80 ADD DUP2 SWAP1 MSTORE POP PUSH1 0x40 MLOAD DUP1 PUSH1 0x80 ADD PUSH1 0x40 MSTORE DUP1 DUP6 DUP6 PUSH2 0x160 SWAP1 PUSH2 0x180 SWAP3 PUSH2 0x403 SWAP4 SWAP3 SWAP2 SWAP1 PUSH2 0x7288 JUMP JUMPDEST SWAP1 PUSH2 0x40E SWAP2 SWAP1 PUSH2 0x72E5 JUMP JUMPDEST PUSH1 0x0 SHR DUP2 MSTORE PUSH1 0x20 ADD DUP6 DUP6 PUSH2 0x180 SWAP1 PUSH2 0x1A0 SWAP3 PUSH2 0x42C SWAP4 SWAP3 SWAP2 SWAP1 PUSH2 0x7288 JUMP JUMPDEST SWAP1 PUSH2 0x437 SWAP2 SWAP1 PUSH2 0x72E5 JUMP JUMPDEST PUSH1 0x0 SHR DUP2 MSTORE PUSH1 0x20 ADD DUP6 DUP6 PUSH2 0x1A0 SWAP1 PUSH2 0x1C0 SWAP3 PUSH2 0x455 SWAP4 SWAP3 SWAP2 SWAP1 PUSH2 0x7288 JUMP JUMPDEST SWAP1 PUSH2 0x460 SWAP2 SWAP1 PUSH2 0x72E5 JUMP JUMPDEST PUSH1 0x0 SHR DUP2 MSTORE PUSH1 0x20 ADD DUP6 DUP6 PUSH2 0x1C0 SWAP1 PUSH2 0x1E0 SWAP3 PUSH2 0x47E SWAP4 SWAP3 SWAP2 SWAP1 PUSH2 0x7288 JUMP JUMPDEST SWAP1 PUSH2 0x489 SWAP2 SWAP1 PUSH2 0x72E5 JUMP JUMPDEST PUSH1 0x0 SHR DUP2 MSTORE POP DUP2 PUSH1 0xA0 ADD DUP2 SWAP1 MSTORE POP PUSH1 0x40 MLOAD DUP1 PUSH1 0x80 ADD PUSH1 0x40 MSTORE DUP1 DUP6 DUP6 PUSH2 0x1E0 SWAP1 PUSH2 0x200 SWAP3 PUSH2 0x4B8 SWAP4 SWAP3 SWAP2 SWAP1 PUSH2 0x7288 JUMP JUMPDEST SWAP1 PUSH2 0x4C3 SWAP2 SWAP1 PUSH2 0x72E5 JUMP JUMPDEST PUSH1 0x0 SHR DUP2 MSTORE PUSH1 0x20 ADD DUP6 DUP6 PUSH2 0x200 SWAP1 PUSH2 0x220 SWAP3 PUSH2 0x4E1 SWAP4 SWAP3 SWAP2 SWAP1 PUSH2 0x7288 JUMP JUMPDEST SWAP1 PUSH2 0x4EC SWAP2 SWAP1 PUSH2 0x72E5 JUMP JUMPDEST PUSH1 0x0 SHR DUP2 MSTORE PUSH1 0x20 ADD DUP6 DUP6 PUSH2 0x220 SWAP1 PUSH2 0x240 SWAP3 PUSH2 0x50A SWAP4 SWAP3 SWAP2 SWAP1 PUSH2 0x7288 JUMP JUMPDEST SWAP1 PUSH2 0x515 SWAP2 SWAP1 PUSH2 0x72E5 JUMP JUMPDEST PUSH1 0x0 SHR DUP2 MSTORE PUSH1 0x20 ADD DUP6 DUP6 PUSH2 0x240 SWAP1 PUSH2 0x260 SWAP3 PUSH2 0x533 SWAP4 SWAP3 SWAP2 SWAP1 PUSH2 0x7288 JUMP JUMPDEST SWAP1 PUSH2 0x53E SWAP2 SWAP1 PUSH2 0x72E5 JUMP JUMPDEST PUSH1 0x0 SHR DUP2 MSTORE POP DUP2 PUSH2 0x100 ADD DUP2 SWAP1 MSTORE POP PUSH1 0x40 MLOAD DUP1 PUSH1 0x80 ADD PUSH1 0x40 MSTORE DUP1 DUP6 DUP6 PUSH2 0x260 SWAP1 PUSH2 0x280 SWAP3 PUSH2 0x56E SWAP4 SWAP3 SWAP2 SWAP1 PUSH2 0x7288 JUMP JUMPDEST SWAP1 PUSH2 0x579 SWAP2 SWAP1 PUSH2 0x72E5 JUMP JUMPDEST PUSH1 0x0 SHR DUP2 MSTORE PUSH1 0x20 ADD DUP6 DUP6 PUSH2 0x280 SWAP1 PUSH2 0x2A0 SWAP3 PUSH2 0x597 SWAP4 SWAP3 SWAP2 SWAP1 PUSH2 0x7288 JUMP JUMPDEST SWAP1 PUSH2 0x5A2 SWAP2 SWAP1 PUSH2 0x72E5 JUMP JUMPDEST PUSH1 0x0 SHR DUP2 MSTORE PUSH1 0x20 ADD DUP6 DUP6 PUSH2 0x2A0 SWAP1 PUSH2 0x2C0 SWAP3 PUSH2 0x5C0 SWAP4 SWAP3 SWAP2 SWAP1 PUSH2 0x7288 JUMP JUMPDEST SWAP1 PUSH2 0x5CB SWAP2 SWAP1 PUSH2 0x72E5 JUMP JUMPDEST PUSH1 0x0 SHR DUP2 MSTORE PUSH1 0x20 ADD DUP6 DUP6 PUSH2 0x2C0 SWAP1 PUSH2 0x2E0 SWAP3 PUSH2 0x5E9 SWAP4 SWAP3 SWAP2 SWAP1 PUSH2 0x7288 JUMP JUMPDEST SWAP1 PUSH2 0x5F4 SWAP2 SWAP1 PUSH2 0x72E5 JUMP JUMPDEST PUSH1 0x0 SHR DUP2 MSTORE POP DUP2 PUSH2 0x120 ADD DUP2 SWAP1 MSTORE POP PUSH1 0x40 MLOAD DUP1 PUSH1 0x80 ADD PUSH1 0x40 MSTORE DUP1 DUP6 DUP6 PUSH2 0x2E0 SWAP1 PUSH2 0x300 SWAP3 PUSH2 0x624 SWAP4 SWAP3 SWAP2 SWAP1 PUSH2 0x7288 JUMP JUMPDEST SWAP1 PUSH2 0x62F SWAP2 SWAP1 PUSH2 0x72E5 JUMP JUMPDEST PUSH1 0x0 SHR DUP2 MSTORE PUSH1 0x20 ADD DUP6 DUP6 PUSH2 0x300 SWAP1 PUSH2 0x320 SWAP3 PUSH2 0x64D SWAP4 SWAP3 SWAP2 SWAP1 PUSH2 0x7288 JUMP JUMPDEST SWAP1 PUSH2 0x658 SWAP2 SWAP1 PUSH2 0x72E5 JUMP JUMPDEST PUSH1 0x0 SHR DUP2 MSTORE PUSH1 0x20 ADD DUP6 DUP6 PUSH2 0x320 SWAP1 PUSH2 0x340 SWAP3 PUSH2 0x676 SWAP4 SWAP3 SWAP2 SWAP1 PUSH2 0x7288 JUMP JUMPDEST SWAP1 PUSH2 0x681 SWAP2 SWAP1 PUSH2 0x72E5 JUMP JUMPDEST PUSH1 0x0 SHR DUP2 MSTORE PUSH1 0x20 ADD DUP6 DUP6 PUSH2 0x340 SWAP1 PUSH2 0x360 SWAP3 PUSH2 0x69F SWAP4 SWAP3 SWAP2 SWAP1 PUSH2 0x7288 JUMP JUMPDEST SWAP1 PUSH2 0x6AA SWAP2 SWAP1 PUSH2 0x72E5 JUMP JUMPDEST PUSH1 0x0 SHR DUP2 MSTORE POP DUP2 PUSH1 0xC0 ADD DUP2 SWAP1 MSTORE POP PUSH1 0x40 MLOAD DUP1 PUSH1 0x80 ADD PUSH1 0x40 MSTORE DUP1 DUP6 DUP6 PUSH2 0x360 SWAP1 PUSH2 0x380 SWAP3 PUSH2 0x6D9 SWAP4 SWAP3 SWAP2 SWAP1 PUSH2 0x7288 JUMP JUMPDEST SWAP1 PUSH2 0x6E4 SWAP2 SWAP1 PUSH2 0x72E5 JUMP JUMPDEST PUSH1 0x0 SHR DUP2 MSTORE PUSH1 0x20 ADD DUP6 DUP6 PUSH2 0x380 SWAP1 PUSH2 0x3A0 SWAP3 PUSH2 0x702 SWAP4 SWAP3 SWAP2 SWAP1 PUSH2 0x7288 JUMP JUMPDEST SWAP1 PUSH2 0x70D SWAP2 SWAP1 PUSH2 0x72E5 JUMP JUMPDEST PUSH1 0x0 SHR DUP2 MSTORE PUSH1 0x20 ADD DUP6 DUP6 PUSH2 0x3A0 SWAP1 PUSH2 0x3C0 SWAP3 PUSH2 0x72B SWAP4 SWAP3 SWAP2 SWAP1 PUSH2 0x7288 JUMP JUMPDEST SWAP1 PUSH2 0x736 SWAP2 SWAP1 PUSH2 0x72E5 JUMP JUMPDEST PUSH1 0x0 SHR DUP2 MSTORE PUSH1 0x20 ADD DUP6 DUP6 PUSH2 0x3C0 SWAP1 PUSH2 0x3E0 SWAP3 PUSH2 0x754 SWAP4 SWAP3 SWAP2 SWAP1 PUSH2 0x7288 JUMP JUMPDEST SWAP1 PUSH2 0x75F SWAP2 SWAP1 PUSH2 0x72E5 JUMP JUMPDEST PUSH1 0x0 SHR DUP2 MSTORE POP DUP2 PUSH2 0x140 ADD DUP2 SWAP1 MSTORE POP PUSH1 0x40 MLOAD DUP1 PUSH1 0x80 ADD PUSH1 0x40 MSTORE DUP1 DUP6 DUP6 PUSH2 0x3E0 SWAP1 PUSH2 0x400 SWAP3 PUSH2 0x78F SWAP4 SWAP3 SWAP2 SWAP1 PUSH2 0x7288 JUMP JUMPDEST SWAP1 PUSH2 0x79A SWAP2 SWAP1 PUSH2 0x72E5 JUMP JUMPDEST PUSH1 0x0 SHR DUP2 MSTORE PUSH1 0x20 ADD DUP6 DUP6 PUSH2 0x400 SWAP1 PUSH2 0x420 SWAP3 PUSH2 0x7B8 SWAP4 SWAP3 SWAP2 SWAP1 PUSH2 0x7288 JUMP JUMPDEST SWAP1 PUSH2 0x7C3 SWAP2 SWAP1 PUSH2 0x72E5 JUMP JUMPDEST PUSH1 0x0 SHR DUP2 MSTORE PUSH1 0x20 ADD DUP6 DUP6 PUSH2 0x420 SWAP1 PUSH2 0x440 SWAP3 PUSH2 0x7E1 SWAP4 SWAP3 SWAP2 SWAP1 PUSH2 0x7288 JUMP JUMPDEST SWAP1 PUSH2 0x7EC SWAP2 SWAP1 PUSH2 0x72E5 JUMP JUMPDEST PUSH1 0x0 SHR DUP2 MSTORE PUSH1 0x20 ADD DUP6 DUP6 PUSH2 0x440 SWAP1 PUSH2 0x460 SWAP3 PUSH2 0x80A SWAP4 SWAP3 SWAP2 SWAP1 PUSH2 0x7288 JUMP JUMPDEST SWAP1 PUSH2 0x815 SWAP2 SWAP1 PUSH2 0x72E5 JUMP JUMPDEST PUSH1 0x0 SHR DUP2 MSTORE POP DUP2 PUSH1 0xE0 ADD DUP2 SWAP1 MSTORE POP PUSH1 0x0 PUSH2 0x460 SWAP1 POP PUSH1 0x0 JUMPDEST PUSH1 0x1C DUP2 LT ISZERO PUSH2 0x912 JUMPI PUSH1 0x0 PUSH1 0x8 PUSH1 0x20 DUP4 PUSH2 0x847 SWAP2 SWAP1 PUSH2 0x737D JUMP JUMPDEST PUSH2 0x851 SWAP2 SWAP1 PUSH2 0x737D JUMP JUMPDEST DUP4 PUSH2 0x85C SWAP2 SWAP1 PUSH2 0x73BF JUMP JUMPDEST SWAP1 POP PUSH1 0x0 JUMPDEST PUSH1 0x8 DUP2 LT ISZERO PUSH2 0x903 JUMPI PUSH1 0x0 PUSH1 0x20 DUP3 PUSH2 0x879 SWAP2 SWAP1 PUSH2 0x737D JUMP JUMPDEST DUP4 PUSH2 0x884 SWAP2 SWAP1 PUSH2 0x73BF JUMP JUMPDEST SWAP1 POP PUSH1 0x0 PUSH1 0x20 DUP3 PUSH2 0x895 SWAP2 SWAP1 PUSH2 0x73BF JUMP JUMPDEST SWAP1 POP PUSH2 0x8BC DUP11 DUP11 DUP5 SWAP1 DUP5 SWAP3 PUSH2 0x8AC SWAP4 SWAP3 SWAP2 SWAP1 PUSH2 0x7288 JUMP JUMPDEST SWAP1 PUSH2 0x8B7 SWAP2 SWAP1 PUSH2 0x72E5 JUMP JUMPDEST PUSH2 0x26ED JUMP JUMPDEST DUP8 PUSH2 0x160 ADD MLOAD DUP7 PUSH1 0x1C DUP2 LT PUSH2 0x8D4 JUMPI PUSH2 0x8D3 PUSH2 0x73F3 JUMP JUMPDEST JUMPDEST PUSH1 0x20 MUL ADD MLOAD DUP5 PUSH1 0x8 DUP2 LT PUSH2 0x8EB JUMPI PUSH2 0x8EA PUSH2 0x73F3 JUMP JUMPDEST JUMPDEST PUSH1 0x20 MUL ADD DUP2 DUP2 MSTORE POP POP POP POP DUP1 DUP1 PUSH1 0x1 ADD SWAP2 POP POP PUSH2 0x861 JUMP JUMPDEST POP POP DUP1 DUP1 PUSH1 0x1 ADD SWAP2 POP POP PUSH2 0x82D JUMP JUMPDEST POP PUSH1 0x20 PUSH1 0x8 PUSH1 0x1C PUSH2 0x923 SWAP2 SWAP1 PUSH2 0x737D JUMP JUMPDEST PUSH2 0x92D SWAP2 SWAP1 PUSH2 0x737D JUMP JUMPDEST DUP2 PUSH2 0x938 SWAP2 SWAP1 PUSH2 0x73BF JUMP JUMPDEST SWAP1 POP PUSH1 0x0 JUMPDEST PUSH1 0x2C DUP2 LT ISZERO PUSH2 0x9C8 JUMPI PUSH1 0x0 PUSH1 0x20 DUP3 PUSH2 0x955 SWAP2 SWAP1 PUSH2 0x737D JUMP JUMPDEST DUP4 PUSH2 0x960 SWAP2 SWAP1 PUSH2 0x73BF JUMP JUMPDEST SWAP1 POP PUSH1 0x0 PUSH1 0x20 DUP3 PUSH2 0x971 SWAP2 SWAP1 PUSH2 0x73BF JUMP JUMPDEST SWAP1 POP PUSH2 0x998 DUP9 DUP9 DUP5 SWAP1 DUP5 SWAP3 PUSH2 0x988 SWAP4 SWAP3 SWAP2 SWAP1 PUSH2 0x7288 JUMP JUMPDEST SWAP1 PUSH2 0x993 SWAP2 SWAP1 PUSH2 0x72E5 JUMP JUMPDEST PUSH2 0x26ED JUMP JUMPDEST DUP6 PUSH2 0x180 ADD MLOAD DUP5 PUSH1 0x2C DUP2 LT PUSH2 0x9B0 JUMPI PUSH2 0x9AF PUSH2 0x73F3 JUMP JUMPDEST JUMPDEST PUSH1 0x20 MUL ADD DUP2 DUP2 MSTORE POP POP POP POP DUP1 DUP1 PUSH1 0x1 ADD SWAP2 POP POP PUSH2 0x93D JUMP JUMPDEST POP PUSH1 0x20 PUSH1 0x2C PUSH2 0x9D7 SWAP2 SWAP1 PUSH2 0x737D JUMP JUMPDEST DUP2 PUSH2 0x9E2 SWAP2 SWAP1 PUSH2 0x73BF JUMP JUMPDEST SWAP1 POP PUSH1 0x0 JUMPDEST PUSH1 0x1 PUSH1 0x1C PUSH2 0x9F5 SWAP2 SWAP1 PUSH2 0x7422 JUMP JUMPDEST DUP2 LT ISZERO PUSH2 0xB3D JUMPI PUSH1 0x0 PUSH1 0x80 DUP3 PUSH2 0xA0B SWAP2 SWAP1 PUSH2 0x737D JUMP JUMPDEST DUP4 PUSH2 0xA16 SWAP2 SWAP1 PUSH2 0x73BF JUMP JUMPDEST SWAP1 POP PUSH1 0x0 PUSH1 0x20 DUP3 PUSH2 0xA27 SWAP2 SWAP1 PUSH2 0x73BF JUMP JUMPDEST SWAP1 POP PUSH1 0x0 DUP2 SWAP1 POP PUSH1 0x0 PUSH1 0x20 DUP3 PUSH2 0xA3D SWAP2 SWAP1 PUSH2 0x73BF JUMP JUMPDEST SWAP1 POP PUSH1 0x0 DUP2 SWAP1 POP PUSH1 0x0 PUSH1 0x20 DUP3 PUSH2 0xA53 SWAP2 SWAP1 PUSH2 0x73BF JUMP JUMPDEST SWAP1 POP PUSH1 0x0 DUP2 SWAP1 POP PUSH1 0x0 PUSH1 0x20 DUP3 PUSH2 0xA69 SWAP2 SWAP1 PUSH2 0x73BF JUMP JUMPDEST SWAP1 POP PUSH1 0x40 MLOAD DUP1 PUSH1 0x80 ADD PUSH1 0x40 MSTORE DUP1 DUP16 DUP16 DUP12 SWAP1 DUP12 SWAP3 PUSH2 0xA88 SWAP4 SWAP3 SWAP2 SWAP1 PUSH2 0x7288 JUMP JUMPDEST SWAP1 PUSH2 0xA93 SWAP2 SWAP1 PUSH2 0x72E5 JUMP JUMPDEST PUSH1 0x0 SHR DUP2 MSTORE PUSH1 0x20 ADD DUP16 DUP16 DUP10 SWAP1 DUP10 SWAP3 PUSH2 0xAAD SWAP4 SWAP3 SWAP2 SWAP1 PUSH2 0x7288 JUMP JUMPDEST SWAP1 PUSH2 0xAB8 SWAP2 SWAP1 PUSH2 0x72E5 JUMP JUMPDEST PUSH1 0x0 SHR DUP2 MSTORE PUSH1 0x20 ADD DUP16 DUP16 DUP8 SWAP1 DUP8 SWAP3 PUSH2 0xAD2 SWAP4 SWAP3 SWAP2 SWAP1 PUSH2 0x7288 JUMP JUMPDEST SWAP1 PUSH2 0xADD SWAP2 SWAP1 PUSH2 0x72E5 JUMP JUMPDEST PUSH1 0x0 SHR DUP2 MSTORE PUSH1 0x20 ADD DUP16 DUP16 DUP6 SWAP1 DUP6 SWAP3 PUSH2 0xAF7 SWAP4 SWAP3 SWAP2 SWAP1 PUSH2 0x7288 JUMP JUMPDEST SWAP1 PUSH2 0xB02 SWAP2 SWAP1 PUSH2 0x72E5 JUMP JUMPDEST PUSH1 0x0 SHR DUP2 MSTORE POP DUP12 PUSH2 0x1A0 ADD MLOAD DUP11 PUSH1 0x1B DUP2 LT PUSH2 0xB20 JUMPI PUSH2 0xB1F PUSH2 0x73F3 JUMP JUMPDEST JUMPDEST PUSH1 0x20 MUL ADD DUP2 SWAP1 MSTORE POP POP POP POP POP POP POP POP POP DUP1 DUP1 PUSH1 0x1 ADD SWAP2 POP POP PUSH2 0x9E7 JUMP JUMPDEST POP PUSH1 0x80 PUSH1 0x1 PUSH1 0x1C PUSH2 0xB4E SWAP2 SWAP1 PUSH2 0x7422 JUMP JUMPDEST PUSH2 0xB58 SWAP2 SWAP1 PUSH2 0x737D JUMP JUMPDEST DUP2 PUSH2 0xB63 SWAP2 SWAP1 PUSH2 0x73BF JUMP JUMPDEST SWAP1 POP PUSH1 0x0 JUMPDEST PUSH1 0x1C DUP2 LT ISZERO PUSH2 0xBF3 JUMPI PUSH1 0x0 PUSH1 0x20 DUP3 PUSH2 0xB80 SWAP2 SWAP1 PUSH2 0x737D JUMP JUMPDEST DUP4 PUSH2 0xB8B SWAP2 SWAP1 PUSH2 0x73BF JUMP JUMPDEST SWAP1 POP PUSH1 0x0 PUSH1 0x20 DUP3 PUSH2 0xB9C SWAP2 SWAP1 PUSH2 0x73BF JUMP JUMPDEST SWAP1 POP PUSH2 0xBC3 DUP9 DUP9 DUP5 SWAP1 DUP5 SWAP3 PUSH2 0xBB3 SWAP4 SWAP3 SWAP2 SWAP1 PUSH2 0x7288 JUMP JUMPDEST SWAP1 PUSH2 0xBBE SWAP2 SWAP1 PUSH2 0x72E5 JUMP JUMPDEST PUSH2 0x26ED JUMP JUMPDEST DUP6 PUSH2 0x1C0 ADD MLOAD DUP5 PUSH1 0x1C DUP2 LT PUSH2 0xBDB JUMPI PUSH2 0xBDA PUSH2 0x73F3 JUMP JUMPDEST JUMPDEST PUSH1 0x20 MUL ADD DUP2 DUP2 MSTORE POP POP POP POP DUP1 DUP1 PUSH1 0x1 ADD SWAP2 POP POP PUSH2 0xB68 JUMP JUMPDEST POP PUSH1 0x20 PUSH1 0x1C PUSH2 0xC02 SWAP2 SWAP1 PUSH2 0x737D JUMP JUMPDEST DUP2 PUSH2 0xC0D SWAP2 SWAP1 PUSH2 0x73BF JUMP JUMPDEST SWAP1 POP PUSH1 0x40 MLOAD DUP1 PUSH1 0x80 ADD PUSH1 0x40 MSTORE DUP1 DUP7 DUP7 DUP5 SWAP1 PUSH1 0x20 DUP7 PUSH2 0xC2B SWAP2 SWAP1 PUSH2 0x73BF JUMP JUMPDEST SWAP3 PUSH2 0xC38 SWAP4 SWAP3 SWAP2 SWAP1 PUSH2 0x7288 JUMP JUMPDEST SWAP1 PUSH2 0xC43 SWAP2 SWAP1 PUSH2 0x72E5 JUMP JUMPDEST PUSH1 0x0 SHR DUP2 MSTORE PUSH1 0x20 ADD DUP7 DUP7 PUSH1 0x20 DUP6 PUSH2 0xC5A SWAP2 SWAP1 PUSH2 0x73BF JUMP JUMPDEST SWAP1 PUSH1 0x40 DUP7 PUSH2 0xC68 SWAP2 SWAP1 PUSH2 0x73BF JUMP JUMPDEST SWAP3 PUSH2 0xC75 SWAP4 SWAP3 SWAP2 SWAP1 PUSH2 0x7288 JUMP JUMPDEST SWAP1 PUSH2 0xC80 SWAP2 SWAP1 PUSH2 0x72E5 JUMP JUMPDEST PUSH1 0x0 SHR DUP2 MSTORE PUSH1 0x20 ADD DUP7 DUP7 PUSH1 0x40 DUP6 PUSH2 0xC97 SWAP2 SWAP1 PUSH2 0x73BF JUMP JUMPDEST SWAP1 PUSH1 0x60 DUP7 PUSH2 0xCA5 SWAP2 SWAP1 PUSH2 0x73BF JUMP JUMPDEST SWAP3 PUSH2 0xCB2 SWAP4 SWAP3 SWAP2 SWAP1 PUSH2 0x7288 JUMP JUMPDEST SWAP1 PUSH2 0xCBD SWAP2 SWAP1 PUSH2 0x72E5 JUMP JUMPDEST PUSH1 0x0 SHR DUP2 MSTORE PUSH1 0x20 ADD DUP7 DUP7 PUSH1 0x60 DUP6 PUSH2 0xCD4 SWAP2 SWAP1 PUSH2 0x73BF JUMP JUMPDEST SWAP1 PUSH1 0x80 DUP7 PUSH2 0xCE2 SWAP2 SWAP1 PUSH2 0x73BF JUMP JUMPDEST SWAP3 PUSH2 0xCEF SWAP4 SWAP3 SWAP2 SWAP1 PUSH2 0x7288 JUMP JUMPDEST SWAP1 PUSH2 0xCFA SWAP2 SWAP1 PUSH2 0x72E5 JUMP JUMPDEST PUSH1 0x0 SHR DUP2 MSTORE POP DUP3 PUSH2 0x1E0 ADD DUP2 SWAP1 MSTORE POP PUSH1 0x80 DUP2 PUSH2 0xD16 SWAP2 SWAP1 PUSH2 0x73BF JUMP JUMPDEST SWAP1 POP PUSH1 0x40 MLOAD DUP1 PUSH1 0x80 ADD PUSH1 0x40 MSTORE DUP1 DUP7 DUP7 DUP5 SWAP1 PUSH1 0x20 DUP7 PUSH2 0xD34 SWAP2 SWAP1 PUSH2 0x73BF JUMP JUMPDEST SWAP3 PUSH2 0xD41 SWAP4 SWAP3 SWAP2 SWAP1 PUSH2 0x7288 JUMP JUMPDEST SWAP1 PUSH2 0xD4C SWAP2 SWAP1 PUSH2 0x72E5 JUMP JUMPDEST PUSH1 0x0 SHR DUP2 MSTORE PUSH1 0x20 ADD DUP7 DUP7 PUSH1 0x20 DUP6 PUSH2 0xD63 SWAP2 SWAP1 PUSH2 0x73BF JUMP JUMPDEST SWAP1 PUSH1 0x40 DUP7 PUSH2 0xD71 SWAP2 SWAP1 PUSH2 0x73BF JUMP JUMPDEST SWAP3 PUSH2 0xD7E SWAP4 SWAP3 SWAP2 SWAP1 PUSH2 0x7288 JUMP JUMPDEST SWAP1 PUSH2 0xD89 SWAP2 SWAP1 PUSH2 0x72E5 JUMP JUMPDEST PUSH1 0x0 SHR DUP2 MSTORE PUSH1 0x20 ADD DUP7 DUP7 PUSH1 0x40 DUP6 PUSH2 0xDA0 SWAP2 SWAP1 PUSH2 0x73BF JUMP JUMPDEST SWAP1 PUSH1 0x60 DUP7 PUSH2 0xDAE SWAP2 SWAP1 PUSH2 0x73BF JUMP JUMPDEST SWAP3 PUSH2 0xDBB SWAP4 SWAP3 SWAP2 SWAP1 PUSH2 0x7288 JUMP JUMPDEST SWAP1 PUSH2 0xDC6 SWAP2 SWAP1 PUSH2 0x72E5 JUMP JUMPDEST PUSH1 0x0 SHR DUP2 MSTORE PUSH1 0x20 ADD DUP7 DUP7 PUSH1 0x60 DUP6 PUSH2 0xDDD SWAP2 SWAP1 PUSH2 0x73BF JUMP JUMPDEST SWAP1 PUSH1 0x80 DUP7 PUSH2 0xDEB SWAP2 SWAP1 PUSH2 0x73BF JUMP JUMPDEST SWAP3 PUSH2 0xDF8 SWAP4 SWAP3 SWAP2 SWAP1 PUSH2 0x7288 JUMP JUMPDEST SWAP1 PUSH2 0xE03 SWAP2 SWAP1 PUSH2 0x72E5 JUMP JUMPDEST PUSH1 0x0 SHR DUP2 MSTORE POP DUP3 PUSH2 0x200 ADD DUP2 SWAP1 MSTORE POP DUP2 SWAP3 POP POP POP SWAP3 SWAP2 POP POP JUMP JUMPDEST PUSH2 0xE25 PUSH2 0x6BE2 JUMP JUMPDEST PUSH1 0x0 PUSH2 0xE33 DUP7 DUP7 DUP7 DUP7 PUSH2 0x2725 JUMP JUMPDEST DUP6 PUSH1 0x0 ADD DUP7 PUSH1 0x20 ADD DUP8 PUSH1 0x40 ADD DUP4 SWAP8 POP DUP5 DUP2 MSTORE POP DUP5 DUP2 MSTORE POP DUP5 DUP2 MSTORE POP POP POP POP POP PUSH2 0xE5C DUP2 DUP8 PUSH2 0x2C11 JUMP JUMPDEST DUP5 PUSH1 0x60 ADD DUP6 PUSH1 0x80 ADD DUP3 SWAP6 POP DUP4 DUP2 MSTORE POP DUP4 DUP2 MSTORE POP POP POP POP PUSH2 0xE7C DUP2 DUP8 PUSH2 0x2E82 JUMP JUMPDEST DUP4 PUSH1 0xA0 ADD DUP2 SWAP4 POP DUP3 SWAP1 MSTORE POP POP PUSH2 0xE91 DUP2 PUSH2 0x31A6 JUMP JUMPDEST DUP4 PUSH1 0xC0 ADD DUP2 SWAP4 POP DUP3 SWAP1 MSTORE POP POP PUSH2 0xEA7 DUP7 DUP3 PUSH2 0x3232 JUMP JUMPDEST DUP4 PUSH1 0xE0 ADD DUP2 SWAP4 POP DUP3 SWAP1 MSTORE POP POP PUSH2 0xEBD DUP7 DUP3 PUSH2 0x335D JUMP JUMPDEST DUP4 PUSH2 0x100 ADD DUP2 SWAP4 POP DUP3 DUP2 MSTORE POP POP POP PUSH2 0xED5 DUP7 DUP3 PUSH2 0x3432 JUMP JUMPDEST DUP4 PUSH2 0x120 ADD DUP2 SWAP4 POP DUP3 DUP2 MSTORE POP POP POP PUSH2 0xEED DUP7 DUP3 PUSH2 0x3622 JUMP JUMPDEST DUP4 PUSH2 0x140 ADD DUP2 SWAP4 POP DUP3 DUP2 MSTORE POP POP POP PUSH2 0xF05 DUP7 DUP3 PUSH2 0x36F7 JUMP JUMPDEST DUP4 PUSH2 0x160 ADD DUP2 SWAP4 POP DUP3 DUP2 MSTORE POP POP POP POP SWAP5 SWAP4 POP POP POP POP JUMP JUMPDEST PUSH1 0x0 DUP1 PUSH1 0x1 SWAP1 POP PUSH1 0x0 PUSH1 0x1 SWAP1 POP PUSH1 0x0 PUSH2 0xF51 DUP8 PUSH2 0xF4C DUP11 PUSH2 0xF47 DUP10 DUP12 PUSH2 0xF42 SWAP2 SWAP1 PUSH2 0x73BF JUMP JUMPDEST PUSH2 0x3809 JUMP JUMPDEST PUSH2 0x383E JUMP JUMPDEST PUSH2 0x387A JUMP JUMPDEST SWAP1 POP PUSH1 0x0 PUSH2 0xF7C DUP9 PUSH2 0xF77 DUP12 PUSH2 0xF72 PUSH1 0x1 DUP12 PUSH2 0xF6D SWAP2 SWAP1 PUSH2 0x73BF JUMP JUMPDEST PUSH2 0x3809 JUMP JUMPDEST PUSH2 0x383E JUMP JUMPDEST PUSH2 0x38B6 JUMP JUMPDEST SWAP1 POP PUSH1 0x0 JUMPDEST PUSH1 0x1 DUP2 LT ISZERO PUSH2 0x1001 JUMPI PUSH1 0x0 PUSH2 0xFAF DUP13 DUP4 DUP2 MLOAD DUP2 LT PUSH2 0xFA2 JUMPI PUSH2 0xFA1 PUSH2 0x73F3 JUMP JUMPDEST JUMPDEST PUSH1 0x20 MUL PUSH1 0x20 ADD ADD MLOAD PUSH2 0x26ED JUMP JUMPDEST SWAP1 POP PUSH2 0xFC4 DUP7 PUSH2 0xFBF DUP7 DUP5 PUSH2 0x387A JUMP JUMPDEST PUSH2 0x383E JUMP JUMPDEST SWAP6 POP PUSH2 0xFD9 DUP6 PUSH2 0xFD4 DUP6 DUP5 PUSH2 0x387A JUMP JUMPDEST PUSH2 0x383E JUMP JUMPDEST SWAP5 POP PUSH2 0xFE5 DUP5 DUP13 PUSH2 0x387A JUMP JUMPDEST SWAP4 POP PUSH2 0xFF1 DUP4 DUP13 PUSH2 0x38B6 JUMP JUMPDEST SWAP3 POP POP DUP1 DUP1 PUSH1 0x1 ADD SWAP2 POP POP PUSH2 0xF81 JUMP JUMPDEST POP PUSH2 0x100C DUP5 DUP5 PUSH2 0x391D JUMP JUMPDEST SWAP5 POP POP POP POP POP SWAP6 SWAP5 POP POP POP POP POP JUMP JUMPDEST PUSH1 0x0 DUP1 PUSH1 0x0 PUSH1 0x1 SWAP1 POP PUSH1 0x0 JUMPDEST PUSH1 0x12 DUP2 LT ISZERO PUSH2 0x10DE JUMPI PUSH1 0x0 DUP7 PUSH2 0x160 ADD MLOAD DUP3 PUSH1 0x1C DUP2 LT PUSH2 0x104A JUMPI PUSH2 0x1049 PUSH2 0x73F3 JUMP JUMPDEST JUMPDEST PUSH1 0x20 MUL ADD MLOAD SWAP1 POP PUSH1 0x0 PUSH2 0x105D DUP3 DUP7 PUSH2 0x3939 JUMP JUMPDEST SWAP1 POP DUP1 PUSH2 0x1096 JUMPI PUSH1 0x40 MLOAD PUSH32 0x9FC3A21800000000000000000000000000000000000000000000000000000000 DUP2 MSTORE PUSH1 0x4 ADD PUSH1 0x40 MLOAD DUP1 SWAP2 SUB SWAP1 REVERT JUMPDEST PUSH1 0x0 DUP8 PUSH1 0xE0 ADD MLOAD DUP5 PUSH1 0x1C DUP2 LT PUSH2 0x10AF JUMPI PUSH2 0x10AE PUSH2 0x73F3 JUMP JUMPDEST JUMPDEST PUSH1 0x20 MUL ADD MLOAD SWAP1 POP PUSH2 0x10C0 DUP4 DUP3 PUSH2 0x398B JUMP JUMPDEST SWAP6 POP PUSH2 0x10CE DUP9 DUP7 DUP4 DUP8 PUSH2 0x3BD4 JUMP JUMPDEST SWAP5 POP POP POP POP DUP1 PUSH1 0x1 ADD SWAP1 POP PUSH2 0x1027 JUMP JUMPDEST POP PUSH1 0x0 PUSH2 0x10EC DUP7 DUP7 DUP5 PUSH2 0x3C27 JUMP JUMPDEST SWAP1 POP PUSH2 0x10F8 DUP2 DUP5 PUSH2 0x3CAE JUMP JUMPDEST SWAP4 POP POP POP POP SWAP3 SWAP2 POP POP JUMP JUMPDEST PUSH1 0x0 PUSH2 0x110D PUSH2 0x6C5C JUMP JUMPDEST PUSH1 0x0 PUSH2 0x111D DUP5 PUSH2 0x120 ADD MLOAD PUSH2 0x3CBB JUMP JUMPDEST SWAP1 POP PUSH2 0x1127 PUSH2 0x6C8B JUMP JUMPDEST PUSH2 0x112F PUSH2 0x6CAE JUMP JUMPDEST PUSH1 0x0 PUSH2 0x113B DUP8 DUP6 PUSH2 0x3D4A JUMP JUMPDEST SWAP1 POP PUSH2 0x1185 DUP2 PUSH1 0x0 PUSH1 0x1D DUP2 LT PUSH2 0x1154 JUMPI PUSH2 0x1153 PUSH2 0x73F3 JUMP JUMPDEST JUMPDEST PUSH1 0x20 MUL ADD MLOAD PUSH2 0x1180 DUP10 PUSH2 0x140 ADD MLOAD DUP5 PUSH1 0x1 PUSH1 0x1D DUP2 LT PUSH2 0x1176 JUMPI PUSH2 0x1175 PUSH2 0x73F3 JUMP JUMPDEST JUMPDEST PUSH1 0x20 MUL ADD MLOAD PUSH2 0x383E JUMP JUMPDEST PUSH2 0x387A JUMP JUMPDEST DUP6 PUSH1 0x0 ADD DUP2 DUP2 MSTORE POP POP PUSH2 0x11EC PUSH2 0x119F DUP9 PUSH2 0x120 ADD MLOAD PUSH2 0x3E2E JUMP JUMPDEST PUSH2 0x11E7 DUP4 PUSH1 0x0 PUSH1 0x1D DUP2 LT PUSH2 0x11B6 JUMPI PUSH2 0x11B5 PUSH2 0x73F3 JUMP JUMPDEST JUMPDEST PUSH1 0x20 MUL ADD MLOAD PUSH2 0x11E2 DUP12 PUSH2 0x140 ADD MLOAD DUP7 PUSH1 0x1 PUSH1 0x1D DUP2 LT PUSH2 0x11D8 JUMPI PUSH2 0x11D7 PUSH2 0x73F3 JUMP JUMPDEST JUMPDEST PUSH1 0x20 MUL ADD MLOAD PUSH2 0x383E JUMP JUMPDEST PUSH2 0x38B6 JUMP JUMPDEST PUSH2 0x383E JUMP JUMPDEST DUP6 PUSH1 0x20 ADD DUP2 DUP2 MSTORE POP POP PUSH1 0x1 DUP4 PUSH1 0x0 PUSH1 0x4A DUP2 LT PUSH2 0x120B JUMPI PUSH2 0x120A PUSH2 0x73F3 JUMP JUMPDEST JUMPDEST PUSH1 0x20 MUL ADD DUP2 DUP2 MSTORE POP POP PUSH2 0x1222 DUP10 PUSH2 0x1E0 ADD MLOAD PUSH2 0x3EC5 JUMP JUMPDEST DUP3 PUSH1 0x0 PUSH1 0x4A DUP2 LT PUSH2 0x1236 JUMPI PUSH2 0x1235 PUSH2 0x73F3 JUMP JUMPDEST JUMPDEST PUSH1 0x20 MUL ADD DUP2 SWAP1 MSTORE POP PUSH1 0x1 DUP6 PUSH1 0x60 ADD DUP2 DUP2 MSTORE POP POP PUSH1 0x0 DUP6 PUSH1 0x80 ADD DUP2 DUP2 MSTORE POP POP PUSH1 0x0 PUSH1 0x1 SWAP1 POP JUMPDEST PUSH1 0x23 DUP2 GT PUSH2 0x1312 JUMPI PUSH2 0x127D PUSH2 0x1273 DUP8 PUSH1 0x0 ADD MLOAD PUSH2 0x3F05 JUMP JUMPDEST DUP8 PUSH1 0x60 ADD MLOAD PUSH2 0x383E JUMP JUMPDEST DUP5 DUP3 PUSH1 0x4A DUP2 LT PUSH2 0x1290 JUMPI PUSH2 0x128F PUSH2 0x73F3 JUMP JUMPDEST JUMPDEST PUSH1 0x20 MUL ADD DUP2 DUP2 MSTORE POP POP PUSH2 0x12DC DUP7 PUSH1 0x80 ADD MLOAD PUSH2 0x12D7 DUP13 PUSH2 0x180 ADD MLOAD PUSH1 0x1 DUP6 PUSH2 0x12B7 SWAP2 SWAP1 PUSH2 0x7422 JUMP JUMPDEST PUSH1 0x2C DUP2 LT PUSH2 0x12C8 JUMPI PUSH2 0x12C7 PUSH2 0x73F3 JUMP JUMPDEST JUMPDEST PUSH1 0x20 MUL ADD MLOAD DUP10 PUSH1 0x60 ADD MLOAD PUSH2 0x383E JUMP JUMPDEST PUSH2 0x387A JUMP JUMPDEST DUP7 PUSH1 0x80 ADD DUP2 DUP2 MSTORE POP POP PUSH2 0x12F8 DUP7 PUSH1 0x60 ADD MLOAD DUP10 PUSH2 0x100 ADD MLOAD PUSH2 0x383E JUMP JUMPDEST DUP7 PUSH1 0x60 ADD DUP2 DUP2 MSTORE POP POP DUP1 PUSH2 0x130B SWAP1 PUSH2 0x7456 JUMP JUMPDEST SWAP1 POP PUSH2 0x125B JUMP JUMPDEST POP PUSH1 0x0 PUSH1 0x1 PUSH1 0x23 PUSH2 0x1323 SWAP2 SWAP1 PUSH2 0x73BF JUMP JUMPDEST SWAP1 POP JUMPDEST PUSH1 0x2C DUP2 GT PUSH2 0x13DD JUMPI PUSH2 0x1348 PUSH2 0x133E DUP8 PUSH1 0x20 ADD MLOAD PUSH2 0x3F05 JUMP JUMPDEST DUP8 PUSH1 0x60 ADD MLOAD PUSH2 0x383E JUMP JUMPDEST DUP5 DUP3 PUSH1 0x4A DUP2 LT PUSH2 0x135B JUMPI PUSH2 0x135A PUSH2 0x73F3 JUMP JUMPDEST JUMPDEST PUSH1 0x20 MUL ADD DUP2 DUP2 MSTORE POP POP PUSH2 0x13A7 DUP7 PUSH1 0x80 ADD MLOAD PUSH2 0x13A2 DUP13 PUSH2 0x180 ADD MLOAD PUSH1 0x1 DUP6 PUSH2 0x1382 SWAP2 SWAP1 PUSH2 0x7422 JUMP JUMPDEST PUSH1 0x2C DUP2 LT PUSH2 0x1393 JUMPI PUSH2 0x1392 PUSH2 0x73F3 JUMP JUMPDEST JUMPDEST PUSH1 0x20 MUL ADD MLOAD DUP10 PUSH1 0x60 ADD MLOAD PUSH2 0x383E JUMP JUMPDEST PUSH2 0x387A JUMP JUMPDEST DUP7 PUSH1 0x80 ADD DUP2 DUP2 MSTORE POP POP PUSH2 0x13C3 DUP7 PUSH1 0x60 ADD MLOAD DUP10 PUSH2 0x100 ADD MLOAD PUSH2 0x383E JUMP JUMPDEST DUP7 PUSH1 0x60 ADD DUP2 DUP2 MSTORE POP POP DUP1 PUSH2 0x13D6 SWAP1 PUSH2 0x7456 JUMP JUMPDEST SWAP1 POP PUSH2 0x1326 JUMP JUMPDEST POP DUP8 PUSH1 0x60 ADD MLOAD DUP3 PUSH1 0x1 PUSH1 0x4A DUP2 LT PUSH2 0x13F7 JUMPI PUSH2 0x13F6 PUSH2 0x73F3 JUMP JUMPDEST JUMPDEST PUSH1 0x20 MUL ADD DUP2 SWAP1 MSTORE POP DUP8 PUSH1 0x80 ADD MLOAD DUP3 PUSH1 0x2 PUSH1 0x4A DUP2 LT PUSH2 0x1418 JUMPI PUSH2 0x1417 PUSH2 0x73F3 JUMP JUMPDEST JUMPDEST PUSH1 0x20 MUL ADD DUP2 SWAP1 MSTORE POP DUP8 PUSH1 0xA0 ADD MLOAD DUP3 PUSH1 0x3 PUSH1 0x4A DUP2 LT PUSH2 0x1439 JUMPI PUSH2 0x1438 PUSH2 0x73F3 JUMP JUMPDEST JUMPDEST PUSH1 0x20 MUL ADD DUP2 SWAP1 MSTORE POP DUP8 PUSH1 0xC0 ADD MLOAD DUP3 PUSH1 0x4 PUSH1 0x4A DUP2 LT PUSH2 0x145A JUMPI PUSH2 0x1459 PUSH2 0x73F3 JUMP JUMPDEST JUMPDEST PUSH1 0x20 MUL ADD DUP2 SWAP1 MSTORE POP DUP8 PUSH1 0xE0 ADD MLOAD DUP3 PUSH1 0x5 PUSH1 0x4A DUP2 LT PUSH2 0x147B JUMPI PUSH2 0x147A PUSH2 0x73F3 JUMP JUMPDEST JUMPDEST PUSH1 0x20 MUL ADD DUP2 SWAP1 MSTORE POP DUP8 PUSH2 0x100 ADD MLOAD DUP3 PUSH1 0x6 PUSH1 0x4A DUP2 LT PUSH2 0x149D JUMPI PUSH2 0x149C PUSH2 0x73F3 JUMP JUMPDEST JUMPDEST PUSH1 0x20 MUL ADD DUP2 SWAP1 MSTORE POP DUP8 PUSH2 0x120 ADD MLOAD DUP3 PUSH1 0x7 PUSH1 0x4A DUP2 LT PUSH2 0x14BF JUMPI PUSH2 0x14BE PUSH2 0x73F3 JUMP JUMPDEST JUMPDEST PUSH1 0x20 MUL ADD DUP2 SWAP1 MSTORE POP DUP8 PUSH2 0x140 ADD MLOAD DUP3 PUSH1 0x8 PUSH1 0x4A DUP2 LT PUSH2 0x14E1 JUMPI PUSH2 0x14E0 PUSH2 0x73F3 JUMP JUMPDEST JUMPDEST PUSH1 0x20 MUL ADD DUP2 SWAP1 MSTORE POP DUP8 PUSH2 0x180 ADD MLOAD DUP3 PUSH1 0x9 PUSH1 0x4A DUP2 LT PUSH2 0x1503 JUMPI PUSH2 0x1502 PUSH2 0x73F3 JUMP JUMPDEST JUMPDEST PUSH1 0x20 MUL ADD DUP2 SWAP1 MSTORE POP DUP8 PUSH2 0x160 ADD MLOAD DUP3 PUSH1 0xA PUSH1 0x4A DUP2 LT PUSH2 0x1525 JUMPI PUSH2 0x1524 PUSH2 0x73F3 JUMP JUMPDEST JUMPDEST PUSH1 0x20 MUL ADD DUP2 SWAP1 MSTORE POP DUP8 PUSH2 0x1A0 ADD MLOAD DUP3 PUSH1 0xB PUSH1 0x4A DUP2 LT PUSH2 0x1547 JUMPI PUSH2 0x1546 PUSH2 0x73F3 JUMP JUMPDEST JUMPDEST PUSH1 0x20 MUL ADD DUP2 SWAP1 MSTORE POP DUP8 PUSH2 0x1C0 ADD MLOAD DUP3 PUSH1 0xC PUSH1 0x4A DUP2 LT PUSH2 0x1569 JUMPI PUSH2 0x1568 PUSH2 0x73F3 JUMP JUMPDEST JUMPDEST PUSH1 0x20 MUL ADD DUP2 SWAP1 MSTORE POP DUP8 PUSH2 0x1E0 ADD MLOAD DUP3 PUSH1 0xD PUSH1 0x4A DUP2 LT PUSH2 0x158B JUMPI PUSH2 0x158A PUSH2 0x73F3 JUMP JUMPDEST JUMPDEST PUSH1 0x20 MUL ADD DUP2 SWAP1 MSTORE POP DUP8 PUSH2 0x200 ADD MLOAD DUP3 PUSH1 0xE PUSH1 0x4A DUP2 LT PUSH2 0x15AD JUMPI PUSH2 0x15AC PUSH2 0x73F3 JUMP JUMPDEST JUMPDEST PUSH1 0x20 MUL ADD DUP2 SWAP1 MSTORE POP DUP8 PUSH2 0x220 ADD MLOAD DUP3 PUSH1 0xF PUSH1 0x4A DUP2 LT PUSH2 0x15CF JUMPI PUSH2 0x15CE PUSH2 0x73F3 JUMP JUMPDEST JUMPDEST PUSH1 0x20 MUL ADD DUP2 SWAP1 MSTORE POP DUP8 PUSH2 0x240 ADD MLOAD DUP3 PUSH1 0x10 PUSH1 0x4A DUP2 LT PUSH2 0x15F1 JUMPI PUSH2 0x15F0 PUSH2 0x73F3 JUMP JUMPDEST JUMPDEST PUSH1 0x20 MUL ADD DUP2 SWAP1 MSTORE POP DUP8 PUSH2 0x260 ADD MLOAD DUP3 PUSH1 0x11 PUSH1 0x4A DUP2 LT PUSH2 0x1613 JUMPI PUSH2 0x1612 PUSH2 0x73F3 JUMP JUMPDEST JUMPDEST PUSH1 0x20 MUL ADD DUP2 SWAP1 MSTORE POP DUP8 PUSH2 0x280 ADD MLOAD DUP3 PUSH1 0x12 PUSH1 0x4A DUP2 LT PUSH2 0x1635 JUMPI PUSH2 0x1634 PUSH2 0x73F3 JUMP JUMPDEST JUMPDEST PUSH1 0x20 MUL ADD DUP2 SWAP1 MSTORE POP DUP8 PUSH2 0x2A0 ADD MLOAD DUP3 PUSH1 0x13 PUSH1 0x4A DUP2 LT PUSH2 0x1657 JUMPI PUSH2 0x1656 PUSH2 0x73F3 JUMP JUMPDEST JUMPDEST PUSH1 0x20 MUL ADD DUP2 SWAP1 MSTORE POP DUP8 PUSH2 0x2C0 ADD MLOAD DUP3 PUSH1 0x14 PUSH1 0x4A DUP2 LT PUSH2 0x1679 JUMPI PUSH2 0x1678 PUSH2 0x73F3 JUMP JUMPDEST JUMPDEST PUSH1 0x20 MUL ADD DUP2 SWAP1 MSTORE POP DUP8 PUSH2 0x2E0 ADD MLOAD DUP3 PUSH1 0x15 PUSH1 0x4A DUP2 LT PUSH2 0x169B JUMPI PUSH2 0x169A PUSH2 0x73F3 JUMP JUMPDEST JUMPDEST PUSH1 0x20 MUL ADD DUP2 SWAP1 MSTORE POP DUP8 PUSH2 0x300 ADD MLOAD DUP3 PUSH1 0x16 PUSH1 0x4A DUP2 LT PUSH2 0x16BD JUMPI PUSH2 0x16BC PUSH2 0x73F3 JUMP JUMPDEST JUMPDEST PUSH1 0x20 MUL ADD DUP2 SWAP1 MSTORE POP DUP8 PUSH2 0x320 ADD MLOAD DUP3 PUSH1 0x17 PUSH1 0x4A DUP2 LT PUSH2 0x16DF JUMPI PUSH2 0x16DE PUSH2 0x73F3 JUMP JUMPDEST JUMPDEST PUSH1 0x20 MUL ADD DUP2 SWAP1 MSTORE POP DUP8 PUSH2 0x340 ADD MLOAD DUP3 PUSH1 0x18 PUSH1 0x4A DUP2 LT PUSH2 0x1701 JUMPI PUSH2 0x1700 PUSH2 0x73F3 JUMP JUMPDEST JUMPDEST PUSH1 0x20 MUL ADD DUP2 SWAP1 MSTORE POP DUP8 PUSH2 0x360 ADD MLOAD DUP3 PUSH1 0x19 PUSH1 0x4A DUP2 LT PUSH2 0x1723 JUMPI PUSH2 0x1722 PUSH2 0x73F3 JUMP JUMPDEST JUMPDEST PUSH1 0x20 MUL ADD DUP2 SWAP1 MSTORE POP DUP8 PUSH2 0x380 ADD MLOAD DUP3 PUSH1 0x1A PUSH1 0x4A DUP2 LT PUSH2 0x1745 JUMPI PUSH2 0x1744 PUSH2 0x73F3 JUMP JUMPDEST JUMPDEST PUSH1 0x20 MUL ADD DUP2 SWAP1 MSTORE POP DUP8 PUSH2 0x3A0 ADD MLOAD DUP3 PUSH1 0x1B PUSH1 0x4A DUP2 LT PUSH2 0x1767 JUMPI PUSH2 0x1766 PUSH2 0x73F3 JUMP JUMPDEST JUMPDEST PUSH1 0x20 MUL ADD DUP2 SWAP1 MSTORE POP PUSH2 0x177C DUP10 PUSH1 0x60 ADD MLOAD PUSH2 0x3EC5 JUMP JUMPDEST DUP3 PUSH1 0x1C PUSH1 0x4A DUP2 LT PUSH2 0x1790 JUMPI PUSH2 0x178F PUSH2 0x73F3 JUMP JUMPDEST JUMPDEST PUSH1 0x20 MUL ADD DUP2 SWAP1 MSTORE POP PUSH2 0x17A5 DUP10 PUSH1 0x80 ADD MLOAD PUSH2 0x3EC5 JUMP JUMPDEST DUP3 PUSH1 0x1D PUSH1 0x4A DUP2 LT PUSH2 0x17B9 JUMPI PUSH2 0x17B8 PUSH2 0x73F3 JUMP JUMPDEST JUMPDEST PUSH1 0x20 MUL ADD DUP2 SWAP1 MSTORE POP PUSH2 0x17CE DUP10 PUSH1 0xA0 ADD MLOAD PUSH2 0x3EC5 JUMP JUMPDEST DUP3 PUSH1 0x1E PUSH1 0x4A DUP2 LT PUSH2 0x17E2 JUMPI PUSH2 0x17E1 PUSH2 0x73F3 JUMP JUMPDEST JUMPDEST PUSH1 0x20 MUL ADD DUP2 SWAP1 MSTORE POP PUSH2 0x17F7 DUP10 PUSH1 0xC0 ADD MLOAD PUSH2 0x3EC5 JUMP JUMPDEST DUP3 PUSH1 0x1F PUSH1 0x4A DUP2 LT PUSH2 0x180B JUMPI PUSH2 0x180A PUSH2 0x73F3 JUMP JUMPDEST JUMPDEST PUSH1 0x20 MUL ADD DUP2 SWAP1 MSTORE POP PUSH2 0x1820 DUP10 PUSH1 0xE0 ADD MLOAD PUSH2 0x3EC5 JUMP JUMPDEST DUP3 PUSH1 0x20 PUSH1 0x4A DUP2 LT PUSH2 0x1834 JUMPI PUSH2 0x1833 PUSH2 0x73F3 JUMP JUMPDEST JUMPDEST PUSH1 0x20 MUL ADD DUP2 SWAP1 MSTORE POP PUSH2 0x184A DUP10 PUSH2 0x140 ADD MLOAD PUSH2 0x3EC5 JUMP JUMPDEST DUP3 PUSH1 0x21 PUSH1 0x4A DUP2 LT PUSH2 0x185E JUMPI PUSH2 0x185D PUSH2 0x73F3 JUMP JUMPDEST JUMPDEST PUSH1 0x20 MUL ADD DUP2 SWAP1 MSTORE POP PUSH2 0x1874 DUP10 PUSH2 0x100 ADD MLOAD PUSH2 0x3EC5 JUMP JUMPDEST DUP3 PUSH1 0x22 PUSH1 0x4A DUP2 LT PUSH2 0x1888 JUMPI PUSH2 0x1887 PUSH2 0x73F3 JUMP JUMPDEST JUMPDEST PUSH1 0x20 MUL ADD DUP2 SWAP1 MSTORE POP PUSH2 0x189E DUP10 PUSH2 0x120 ADD MLOAD PUSH2 0x3EC5 JUMP JUMPDEST DUP3 PUSH1 0x23 PUSH1 0x4A DUP2 LT PUSH2 0x18B2 JUMPI PUSH2 0x18B1 PUSH2 0x73F3 JUMP JUMPDEST JUMPDEST PUSH1 0x20 MUL ADD DUP2 SWAP1 MSTORE POP DUP8 PUSH2 0x300 ADD MLOAD DUP3 PUSH1 0x24 PUSH1 0x4A DUP2 LT PUSH2 0x18D4 JUMPI PUSH2 0x18D3 PUSH2 0x73F3 JUMP JUMPDEST JUMPDEST PUSH1 0x20 MUL ADD DUP2 SWAP1 MSTORE POP DUP8 PUSH2 0x320 ADD MLOAD DUP3 PUSH1 0x25 PUSH1 0x4A DUP2 LT PUSH2 0x18F6 JUMPI PUSH2 0x18F5 PUSH2 0x73F3 JUMP JUMPDEST JUMPDEST PUSH1 0x20 MUL ADD DUP2 SWAP1 MSTORE POP DUP8 PUSH2 0x340 ADD MLOAD DUP3 PUSH1 0x26 PUSH1 0x4A DUP2 LT PUSH2 0x1918 JUMPI PUSH2 0x1917 PUSH2 0x73F3 JUMP JUMPDEST JUMPDEST PUSH1 0x20 MUL ADD DUP2 SWAP1 MSTORE POP DUP8 PUSH2 0x360 ADD MLOAD DUP3 PUSH1 0x27 PUSH1 0x4A DUP2 LT PUSH2 0x193A JUMPI PUSH2 0x1939 PUSH2 0x73F3 JUMP JUMPDEST JUMPDEST PUSH1 0x20 MUL ADD DUP2 SWAP1 MSTORE POP PUSH2 0x194F DUP10 PUSH1 0x60 ADD MLOAD PUSH2 0x3EC5 JUMP JUMPDEST DUP3 PUSH1 0x28 PUSH1 0x4A DUP2 LT PUSH2 0x1963 JUMPI PUSH2 0x1962 PUSH2 0x73F3 JUMP JUMPDEST JUMPDEST PUSH1 0x20 MUL ADD DUP2 SWAP1 MSTORE POP PUSH2 0x1978 DUP10 PUSH1 0x80 ADD MLOAD PUSH2 0x3EC5 JUMP JUMPDEST DUP3 PUSH1 0x29 PUSH1 0x4A DUP2 LT PUSH2 0x198C JUMPI PUSH2 0x198B PUSH2 0x73F3 JUMP JUMPDEST JUMPDEST PUSH1 0x20 MUL ADD DUP2 SWAP1 MSTORE POP PUSH2 0x19A1 DUP10 PUSH1 0xA0 ADD MLOAD PUSH2 0x3EC5 JUMP JUMPDEST DUP3 PUSH1 0x2A PUSH1 0x4A DUP2 LT PUSH2 0x19B5 JUMPI PUSH2 0x19B4 PUSH2 0x73F3 JUMP JUMPDEST JUMPDEST PUSH1 0x20 MUL ADD DUP2 SWAP1 MSTORE POP PUSH2 0x19CA DUP10 PUSH1 0xC0 ADD MLOAD PUSH2 0x3EC5 JUMP JUMPDEST DUP3 PUSH1 0x2B PUSH1 0x4A DUP2 LT PUSH2 0x19DE JUMPI PUSH2 0x19DD PUSH2 0x73F3 JUMP JUMPDEST JUMPDEST PUSH1 0x20 MUL ADD DUP2 SWAP1 MSTORE POP PUSH2 0x19F3 DUP10 PUSH1 0xE0 ADD MLOAD PUSH2 0x3EC5 JUMP JUMPDEST DUP3 PUSH1 0x2C PUSH1 0x4A DUP2 LT PUSH2 0x1A07 JUMPI PUSH2 0x1A06 PUSH2 0x73F3 JUMP JUMPDEST JUMPDEST PUSH1 0x20 MUL ADD DUP2 SWAP1 MSTORE POP PUSH1 0x0 DUP6 PUSH1 0x40 ADD DUP2 DUP2 MSTORE POP POP PUSH2 0x1A28 DUP8 PUSH2 0x140 ADD MLOAD PUSH2 0x3F3A JUMP JUMPDEST DUP6 PUSH1 0x60 ADD DUP2 DUP2 MSTORE POP POP PUSH1 0x0 JUMPDEST PUSH1 0x1 PUSH1 0x1C PUSH2 0x1A42 SWAP2 SWAP1 PUSH2 0x7422 JUMP JUMPDEST DUP2 LT ISZERO PUSH2 0x1B9F JUMPI PUSH1 0x0 PUSH1 0x1 PUSH1 0x12 PUSH2 0x1A59 SWAP2 SWAP1 PUSH2 0x7422 JUMP JUMPDEST DUP3 LT ISZERO SWAP1 POP PUSH1 0x0 DUP2 PUSH2 0x1AD6 JUMPI PUSH2 0x1A96 DUP9 PUSH1 0x60 ADD MLOAD DUP6 PUSH1 0x2 DUP7 PUSH2 0x1A7B SWAP2 SWAP1 PUSH2 0x73BF JUMP JUMPDEST PUSH1 0x1D DUP2 LT PUSH2 0x1A8C JUMPI PUSH2 0x1A8B PUSH2 0x73F3 JUMP JUMPDEST JUMPDEST PUSH1 0x20 MUL ADD MLOAD PUSH2 0x383E JUMP JUMPDEST SWAP1 POP PUSH2 0x1AA1 DUP2 PUSH2 0x3F05 JUMP JUMPDEST DUP7 DUP5 PUSH1 0x1 PUSH1 0x2C PUSH2 0x1AB1 SWAP2 SWAP1 PUSH2 0x73BF JUMP JUMPDEST PUSH2 0x1ABB SWAP2 SWAP1 PUSH2 0x73BF JUMP JUMPDEST PUSH1 0x4A DUP2 LT PUSH2 0x1ACC JUMPI PUSH2 0x1ACB PUSH2 0x73F3 JUMP JUMPDEST JUMPDEST PUSH1 0x20 MUL ADD DUP2 DUP2 MSTORE POP POP JUMPDEST PUSH2 0x1B15 DUP9 PUSH1 0x40 ADD MLOAD PUSH2 0x1B10 DUP4 DUP16 PUSH2 0x1C0 ADD MLOAD PUSH1 0x1 DUP9 PUSH2 0x1AF5 SWAP2 SWAP1 PUSH2 0x73BF JUMP JUMPDEST PUSH1 0x1C DUP2 LT PUSH2 0x1B06 JUMPI PUSH2 0x1B05 PUSH2 0x73F3 JUMP JUMPDEST JUMPDEST PUSH1 0x20 MUL ADD MLOAD PUSH2 0x383E JUMP JUMPDEST PUSH2 0x387A JUMP JUMPDEST DUP9 PUSH1 0x40 ADD DUP2 DUP2 MSTORE POP POP PUSH2 0x1B31 DUP9 PUSH1 0x60 ADD MLOAD DUP12 PUSH2 0x140 ADD MLOAD PUSH2 0x383E JUMP JUMPDEST DUP9 PUSH1 0x60 ADD DUP2 DUP2 MSTORE POP POP PUSH2 0x1B5F DUP13 PUSH2 0x1A0 ADD MLOAD DUP5 PUSH1 0x1B DUP2 LT PUSH2 0x1B55 JUMPI PUSH2 0x1B54 PUSH2 0x73F3 JUMP JUMPDEST JUMPDEST PUSH1 0x20 MUL ADD MLOAD PUSH2 0x3EC5 JUMP JUMPDEST DUP6 DUP5 PUSH1 0x1 PUSH1 0x2C PUSH2 0x1B6F SWAP2 SWAP1 PUSH2 0x73BF JUMP JUMPDEST PUSH2 0x1B79 SWAP2 SWAP1 PUSH2 0x73BF JUMP JUMPDEST PUSH1 0x4A DUP2 LT PUSH2 0x1B8A JUMPI PUSH2 0x1B89 PUSH2 0x73F3 JUMP JUMPDEST JUMPDEST PUSH1 0x20 MUL ADD DUP2 SWAP1 MSTORE POP POP POP DUP1 PUSH1 0x1 ADD SWAP1 POP PUSH2 0x1A34 JUMP JUMPDEST POP PUSH1 0x0 PUSH2 0x1BB7 DUP9 DUP8 PUSH1 0x80 ADD MLOAD DUP13 PUSH2 0x1C0 ADD MLOAD DUP9 PUSH2 0x3F4D JUMP JUMPDEST SWAP1 POP PUSH2 0x1BE8 DUP7 PUSH1 0x40 ADD MLOAD PUSH2 0x1BE3 DUP4 DUP6 PUSH1 0x0 PUSH1 0x1D DUP2 LT PUSH2 0x1BD9 JUMPI PUSH2 0x1BD8 PUSH2 0x73F3 JUMP JUMPDEST JUMPDEST PUSH1 0x20 MUL ADD MLOAD PUSH2 0x383E JUMP JUMPDEST PUSH2 0x387A JUMP JUMPDEST DUP7 PUSH1 0x40 ADD DUP2 DUP2 MSTORE POP POP PUSH2 0x1C4B DUP7 PUSH1 0x40 ADD MLOAD PUSH2 0x1C46 PUSH2 0x1C28 DUP14 PUSH2 0x1C0 ADD MLOAD PUSH1 0x0 PUSH1 0x1C DUP2 LT PUSH2 0x1C18 JUMPI PUSH2 0x1C17 PUSH2 0x73F3 JUMP JUMPDEST JUMPDEST PUSH1 0x20 MUL ADD MLOAD DUP13 PUSH2 0x140 ADD MLOAD PUSH2 0x383E JUMP JUMPDEST DUP6 PUSH1 0x1 PUSH1 0x1D DUP2 LT PUSH2 0x1C3C JUMPI PUSH2 0x1C3B PUSH2 0x73F3 JUMP JUMPDEST JUMPDEST PUSH1 0x20 MUL ADD MLOAD PUSH2 0x383E JUMP JUMPDEST PUSH2 0x387A JUMP JUMPDEST DUP7 PUSH1 0x40 ADD DUP2 DUP2 MSTORE POP POP PUSH1 0x40 MLOAD DUP1 PUSH1 0x40 ADD PUSH1 0x40 MSTORE DUP1 PUSH1 0x1 DUP2 MSTORE PUSH1 0x20 ADD PUSH1 0x2 DUP2 MSTORE POP DUP4 PUSH1 0x1C PUSH1 0x2C PUSH2 0x1C7A SWAP2 SWAP1 PUSH2 0x73BF JUMP JUMPDEST PUSH1 0x4A DUP2 LT PUSH2 0x1C8B JUMPI PUSH2 0x1C8A PUSH2 0x73F3 JUMP JUMPDEST JUMPDEST PUSH1 0x20 MUL ADD DUP2 SWAP1 MSTORE POP DUP6 PUSH1 0x40 ADD MLOAD DUP5 PUSH1 0x1C PUSH1 0x2C PUSH2 0x1CA7 SWAP2 SWAP1 PUSH2 0x73BF JUMP JUMPDEST PUSH1 0x4A DUP2 LT PUSH2 0x1CB8 JUMPI PUSH2 0x1CB7 PUSH2 0x73F3 JUMP JUMPDEST JUMPDEST PUSH1 0x20 MUL ADD DUP2 DUP2 MSTORE POP POP PUSH1 0x0 PUSH2 0x1CD1 DUP12 PUSH2 0x200 ADD MLOAD PUSH2 0x3EC5 JUMP JUMPDEST SWAP1 POP DUP1 DUP5 PUSH1 0x1 PUSH1 0x1C PUSH1 0x2C PUSH2 0x1CE5 SWAP2 SWAP1 PUSH2 0x73BF JUMP JUMPDEST PUSH2 0x1CEF SWAP2 SWAP1 PUSH2 0x73BF JUMP JUMPDEST PUSH1 0x4A DUP2 LT PUSH2 0x1D00 JUMPI PUSH2 0x1CFF PUSH2 0x73F3 JUMP JUMPDEST JUMPDEST PUSH1 0x20 MUL ADD DUP2 SWAP1 MSTORE POP DUP9 PUSH2 0x160 ADD MLOAD DUP6 PUSH1 0x1 PUSH1 0x1C PUSH1 0x2C PUSH2 0x1D1F SWAP2 SWAP1 PUSH2 0x73BF JUMP JUMPDEST PUSH2 0x1D29 SWAP2 SWAP1 PUSH2 0x73BF JUMP JUMPDEST PUSH1 0x4A DUP2 LT PUSH2 0x1D3A JUMPI PUSH2 0x1D39 PUSH2 0x73F3 JUMP JUMPDEST JUMPDEST PUSH1 0x20 MUL ADD DUP2 DUP2 MSTORE POP POP PUSH1 0x0 PUSH2 0x1D4F DUP6 DUP8 PUSH2 0x4083 JUMP JUMPDEST SWAP1 POP PUSH1 0x0 PUSH2 0x1D5C DUP4 PUSH2 0x4150 JUMP JUMPDEST SWAP1 POP PUSH2 0x1D68 DUP3 DUP3 PUSH2 0x41C4 JUMP JUMPDEST SWAP10 POP POP POP POP POP POP POP POP POP POP SWAP4 SWAP3 POP POP POP JUMP JUMPDEST PUSH2 0x1D82 PUSH2 0x6989 JUMP JUMPDEST PUSH1 0x0 PUSH1 0x40 MLOAD DUP1 PUSH2 0x3C0 ADD PUSH1 0x40 MSTORE DUP1 PUSH3 0x40000 DUP2 MSTORE PUSH1 0x20 ADD PUSH1 0x12 DUP2 MSTORE PUSH1 0x20 ADD PUSH1 0x1 DUP2 MSTORE PUSH1 0x20 ADD PUSH1 0x40 MLOAD DUP1 PUSH1 0x40 ADD PUSH1 0x40 MSTORE DUP1 PUSH32 0x2440ABAC72F98394C35664BEA6047ADF6A40735624C5958D550D857FC5A729DD DUP2 MSTORE PUSH1 0x20 ADD PUSH32 0x21279552DF927CCD8198A544375C026A11B83FD878721FBFE3424D4065E1A0D6 DUP2 MSTORE POP DUP2 MSTORE PUSH1 0x20 ADD PUSH1 0x40 MLOAD DUP1 PUSH1 0x40 ADD PUSH1 0x40 MSTORE DUP1 PUSH32 0x1936910BE74825B9CDA7C6CFC6ED13985EDF7CE902EFC5A5F1F02867ABCB787C DUP2 MSTORE PUSH1 0x20 ADD PUSH32 0x8111D8C2BF4CD23D1B4EA067851C96EBC42026708372215902BCCEAD697AF75 DUP2 MSTORE POP DUP2 MSTORE PUSH1 0x20 ADD PUSH1 0x40 MLOAD DUP1 PUSH1 0x40 ADD PUSH1 0x40 MSTORE DUP1 PUSH32 0x1372F33997F3C9868C8B1407D29181AB51A1C23550E77D14E2891352CD29FEB5 DUP2 MSTORE PUSH1 0x20 ADD PUSH32 0xBF35790F81533B5260ED60A0A2767D520C0F7E5BF24E94C025518B1EC832E9D DUP2 MSTORE POP DUP2 MSTORE PUSH1 0x20 ADD PUSH1 0x40 MLOAD DUP1 PUSH1 0x40 ADD PUSH1 0x40 MSTORE DUP1 PUSH32 0x18859E7ABDDC5963E090BCD411DE1F311CBF23C3074A2B6F08DBB7D99484BEDB DUP2 MSTORE PUSH1 0x20 ADD PUSH32 0x11A37F87B386A12A8BAF952397CF5A73769EBEE70DD46DD6B550AC9383F5FF3 DUP2 MSTORE POP DUP2 MSTORE PUSH1 0x20 ADD PUSH1 0x40 MLOAD DUP1 PUSH1 0x40 ADD PUSH1 0x40 MSTORE DUP1 PUSH32 0x1D2C1BB1D6559B5293E8629BC427474EFAC42AEA16A03C189AD76521EA4F2284 DUP2 MSTORE PUSH1 0x20 ADD PUSH32 0x1279B2CA670EA2DE771EBA3FD057D959446931616389345E3AF53BDC3979DC9D DUP2 MSTORE POP DUP2 MSTORE PUSH1 0x20 ADD PUSH1 0x40 MLOAD DUP1 PUSH1 0x40 ADD PUSH1 0x40 MSTORE DUP1 PUSH32 0x14EF49B532B02A1924875CB34D2AE21E4B4F9C2BF67799F98D4EC28E8EE56B9 DUP2 MSTORE PUSH1 0x20 ADD PUSH32 0x169865B557618583457144735905F9BCC54C6E4F3F8732868C000AACEA31586C DUP2 MSTORE POP DUP2 MSTORE PUSH1 0x20 ADD PUSH1 0x40 MLOAD DUP1 PUSH1 0x40 ADD PUSH1 0x40 MSTORE DUP1 PUSH32 0x2A06FEEA599BD4E5E74C5F28CC3400093EBCB579EA37AB677C691B4BBF897323 DUP2 MSTORE PUSH1 0x20 ADD PUSH31 0x1167F3E1F222E6BAC9710D40DD440F5D6111D24AFFC0591A9C5044E58A8BC6 DUP2 MSTORE POP DUP2 MSTORE PUSH1 0x20 ADD PUSH1 0x40 MLOAD DUP1 PUSH1 0x40 ADD PUSH1 0x40 MSTORE DUP1 PUSH32 0x1D664C1A1071A2B99C50086D0B9ABCEA0735400AFBDC246659E3117394A9AC3B DUP2 MSTORE PUSH1 0x20 ADD PUSH32 0x301D21AA2CAB1ECCADC97552A98795EDB6C0A4F41ACB396A7FA29BBF4C88CA55 DUP2 MSTORE POP DUP2 MSTORE PUSH1 0x20 ADD PUSH1 0x40 MLOAD DUP1 PUSH1 0x40 ADD PUSH1 0x40 MSTORE DUP1 PUSH32 0x1B9E4AB7330F10AAE4DE806B1A16F618D1797369102286CC1D6F5312E204AAB2 DUP2 MSTORE PUSH1 0x20 ADD PUSH32 0xB3FEFC5FA1420710D0FA96CF2C4CB5FF3070AB39937063E1037E32FA799D118 DUP2 MSTORE POP DUP2 MSTORE PUSH1 0x20 ADD PUSH1 0x40 MLOAD DUP1 PUSH1 0x40 ADD PUSH1 0x40 MSTORE DUP1 PUSH32 0x2E7A2B60E4056E7E205817F3A6FC0E3B2DA86E6820997074C90400F76598859C DUP2 MSTORE PUSH1 0x20 ADD PUSH32 0x8AF47D2D72EA36780C352F219FA426353819250C6B96C1CED033649F87C393E DUP2 MSTORE POP DUP2 MSTORE PUSH1 0x20 ADD PUSH1 0x40 MLOAD DUP1 PUSH1 0x40 ADD PUSH1 0x40 MSTORE DUP1 PUSH32 0x43A7AFE36334E6B70F93569C1A5FDD2411A0D81817B8E5676BD504F2B731A2D DUP2 MSTORE PUSH1 0x20 ADD PUSH32 0x2B2AA5736B59DE44480B8E476B01D896B2C0B01C9BA682D6CF35497ADE662840 DUP2 MSTORE POP DUP2 MSTORE PUSH1 0x20 ADD PUSH1 0x40 MLOAD DUP1 PUSH1 0x40 ADD PUSH1 0x40 MSTORE DUP1 PUSH32 0x11A23114DB5A2C93694759DE70F0C15D038D91D483D733F7DFB996A6CAE24EDF DUP2 MSTORE PUSH1 0x20 ADD PUSH32 0x25D95ECECC12EC37107AE134690D5B5EDD0059F4CB70BEFE2BBBA7CB9CC952FC DUP2 MSTORE POP DUP2 MSTORE PUSH1 0x20 ADD PUSH1 0x40 MLOAD DUP1 PUSH1 0x40 ADD PUSH1 0x40 MSTORE DUP1 PUSH32 0x199B66BCDBF44116A2657DD4B13F148A4C1F353E1A73005C5D1376A0847B503F DUP2 MSTORE PUSH1 0x20 ADD PUSH32 0xDFCD53B8BFFFF4F4B5A743083FC77576C0890FC50CDF6CD1062EDEEEC0CB71A DUP2 MSTORE POP DUP2 MSTORE PUSH1 0x20 ADD PUSH1 0x40 MLOAD DUP1 PUSH1 0x40 ADD PUSH1 0x40 MSTORE DUP1 PUSH32 0x21CB8F08B23B4490F924B6A60706C0B3FF7727FC0052E9649AEC2E5C0A5ADA73 DUP2 MSTORE PUSH1 0x20 ADD PUSH32 0x179C27198AAE89092916517DEEE898108CE4637F2539EA2A409933CDD969634F DUP2 MSTORE POP DUP2 MSTORE PUSH1 0x20 ADD PUSH1 0x40 MLOAD DUP1 PUSH1 0x40 ADD PUSH1 0x40 MSTORE DUP1 PUSH32 0x130B82DD81EB3D7ED1DEE71A2C3629DD2AC5129D3E87FAEFF026348F995CE2F3 DUP2 MSTORE PUSH1 0x20 ADD PUSH32 0x13E5885AB6314D43DEB17738DDA747EAD8344706B24CC708A1571AFB4B639C1D DUP2 MSTORE POP DUP2 MSTORE PUSH1 0x20 ADD PUSH1 0x40 MLOAD DUP1 PUSH1 0x40 ADD PUSH1 0x40 MSTORE DUP1 PUSH32 0x1AAB4ED62AA275A5EDB98240CD77E5B1B18DDB46F98082438E7604A80CF14627 DUP2 MSTORE PUSH1 0x20 ADD PUSH32 0x13D4F041DEDC94942529847A85253D7EDF5D15ACD19E23510E0BB44A93A49076 DUP2 MSTORE POP DUP2 MSTORE PUSH1 0x20 ADD PUSH1 0x40 MLOAD DUP1 PUSH1 0x40 ADD PUSH1 0x40 MSTORE DUP1 PUSH32 0x255358708FD3D2237599FF4931D0345F64ADF1921EC76E2E2AB9CBCB83D0AEF5 DUP2 MSTORE PUSH1 0x20 ADD PUSH32 0x1E6609E9557B57407DF8569EA6BBC93BF969AE35F432749398D2B21EF0E489D3 DUP2 MSTORE POP DUP2 MSTORE PUSH1 0x20 ADD PUSH1 0x40 MLOAD DUP1 PUSH1 0x40 ADD PUSH1 0x40 MSTORE DUP1 PUSH32 0x2432EDEEE66B67F039A39D9246432543552E36CEF5D10B974DD6ED19CF21CE52 DUP2 MSTORE PUSH1 0x20 ADD PUSH32 0x4BDE8C7777F42F1889EB647DD5C8ACC1D69B76451367B1B72C2BA1F2B5C0E30 DUP2 MSTORE POP DUP2 MSTORE PUSH1 0x20 ADD PUSH1 0x40 MLOAD DUP1 PUSH1 0x40 ADD PUSH1 0x40 MSTORE DUP1 PUSH32 0x2C147D501F73B3779F6751C8E330BB720919AD4D694F16D2348B4D092B07E789 DUP2 MSTORE PUSH1 0x20 ADD PUSH32 0xD2F25B54763ED3A681FCFAD54CAE1175CD6C3E625FC9152C5BADD1F213B96DB DUP2 MSTORE POP DUP2 MSTORE PUSH1 0x20 ADD PUSH1 0x40 MLOAD DUP1 PUSH1 0x40 ADD PUSH1 0x40 MSTORE DUP1 PUSH32 0x1992167D72CF4CDE6D2CB046B78AF684B898C697369034146A50B7451CC0BCD4 DUP2 MSTORE PUSH1 0x20 ADD PUSH32 0x2E31516E420550401FF16A061A720DAB6FFFB99C22CA2D504E4BC2C0AEC6AFE1 DUP2 MSTORE POP DUP2 MSTORE PUSH1 0x20 ADD PUSH1 0x40 MLOAD DUP1 PUSH1 0x40 ADD PUSH1 0x40 MSTORE DUP1 PUSH32 0x2378566A867B2C4A9EB80669F6A2B8DBB0E4F71CAEA432AC1EDE70E807CE52D6 DUP2 MSTORE PUSH1 0x20 ADD PUSH32 0x1B087938498411CDA9425AC52FF3C407E9358BE64C9CC09F7423748C55EBC422 DUP2 MSTORE POP DUP2 MSTORE PUSH1 0x20 ADD PUSH1 0x40 MLOAD DUP1 PUSH1 0x40 ADD PUSH1 0x40 MSTORE DUP1 PUSH32 0x151ED523CFCEC4952F91CAF594BE159DD1CD9F7A36129C6820E8CDADA90808ED DUP2 MSTORE PUSH1 0x20 ADD PUSH32 0x2D50EEC18DCC7819AB7DBA531573C8FBA9A5E21AAF06E6C6D637AAAE72F02E3A DUP2 MSTORE POP DUP2 MSTORE PUSH1 0x20 ADD PUSH1 0x40 MLOAD DUP1 PUSH1 0x40 ADD PUSH1 0x40 MSTORE DUP1 PUSH32 0x2894E1EEDD54E60F3981A1496E0B314B46071BA34A724776D6F71C6A19C2E654 DUP2 MSTORE PUSH1 0x20 ADD PUSH32 0x172B9354D30FC85E03CC7C359FEF280D5186B117182CBACA082EC8F5CCA20AB9 DUP2 MSTORE POP DUP2 MSTORE PUSH1 0x20 ADD PUSH1 0x40 MLOAD DUP1 PUSH1 0x40 ADD PUSH1 0x40 MSTORE DUP1 PUSH32 0xFF23139F423BC5504D843F69FA7563935A81A0DBE3C08DE6675A27C6DF99A38 DUP2 MSTORE PUSH1 0x20 ADD PUSH32 0xA48DFF44F8AF0E150DCE9731196A9B981FC2C81064109561567007200606E9D DUP2 MSTORE POP DUP2 MSTORE PUSH1 0x20 ADD PUSH1 0x40 MLOAD DUP1 PUSH1 0x40 ADD PUSH1 0x40 MSTORE DUP1 PUSH32 0x1EA2387F72E46131B26CDDC9FB3F94DA435BB9D49B91AA41F6ED398CD2F704A5 DUP2 MSTORE PUSH1 0x20 ADD PUSH32 0x67787A509A9D2FC45E9E30075DA18E28F58079C5E35842A4207B434CB8BFB68 DUP2 MSTORE POP DUP2 MSTORE PUSH1 0x20 ADD PUSH1 0x40 MLOAD DUP1 PUSH1 0x40 ADD PUSH1 0x40 MSTORE DUP1 PUSH1 0x1 DUP2 MSTORE PUSH1 0x20 ADD PUSH1 0x2 DUP2 MSTORE POP DUP2 MSTORE PUSH1 0x20 ADD PUSH1 0x40 MLOAD DUP1 PUSH1 0x40 ADD PUSH1 0x40 MSTORE DUP1 PUSH32 0x299E521AEAF9D912FDF26B9E82CD6B2AFAB83C04522736C587A08C290E3AFF24 DUP2 MSTORE PUSH1 0x20 ADD PUSH32 0x2C30E3714A22AB963EB1587B5266FD1F5CDC782491DD8985755C7B73BD222C4F DUP2 MSTORE POP DUP2 MSTORE POP SWAP1 POP DUP1 SWAP2 POP POP SWAP1 JUMP JUMPDEST PUSH1 0x0 PUSH32 0x30644E72E131A029B85045B68181585D2833E84879B9709143E1F593F0000001 DUP3 PUSH1 0x0 SHR PUSH2 0x271E SWAP2 SWAP1 PUSH2 0x74CD JUMP JUMPDEST SWAP1 POP SWAP2 SWAP1 POP JUMP JUMPDEST PUSH1 0x0 DUP1 PUSH1 0x0 DUP1 PUSH1 0x0 PUSH1 0xC DUP7 PUSH1 0x3 PUSH2 0x273C SWAP2 SWAP1 PUSH2 0x73BF JUMP JUMPDEST PUSH2 0x2746 SWAP2 SWAP1 PUSH2 0x73BF JUMP JUMPDEST PUSH8 0xFFFFFFFFFFFFFFFF DUP2 GT ISZERO PUSH2 0x275F JUMPI PUSH2 0x275E PUSH2 0x74FE JUMP JUMPDEST JUMPDEST PUSH1 0x40 MLOAD SWAP1 DUP1 DUP3 MSTORE DUP1 PUSH1 0x20 MUL PUSH1 0x20 ADD DUP3 ADD PUSH1 0x40 MSTORE DUP1 ISZERO PUSH2 0x278D JUMPI DUP2 PUSH1 0x20 ADD PUSH1 0x20 DUP3 MUL DUP1 CALLDATASIZE DUP4 CALLDATACOPY DUP1 DUP3 ADD SWAP2 POP POP SWAP1 POP JUMPDEST POP SWAP1 POP DUP9 PUSH1 0x0 ADD MLOAD PUSH1 0x0 SHL DUP2 PUSH1 0x0 DUP2 MLOAD DUP2 LT PUSH2 0x27AC JUMPI PUSH2 0x27AB PUSH2 0x73F3 JUMP JUMPDEST JUMPDEST PUSH1 0x20 MUL PUSH1 0x20 ADD ADD DUP2 DUP2 MSTORE POP POP DUP9 PUSH1 0x20 ADD MLOAD PUSH1 0x0 SHL DUP2 PUSH1 0x1 DUP2 MLOAD DUP2 LT PUSH2 0x27D4 JUMPI PUSH2 0x27D3 PUSH2 0x73F3 JUMP JUMPDEST JUMPDEST PUSH1 0x20 MUL PUSH1 0x20 ADD ADD DUP2 DUP2 MSTORE POP POP DUP9 PUSH1 0x40 ADD MLOAD PUSH1 0x0 SHL DUP2 PUSH1 0x2 DUP2 MLOAD DUP2 LT PUSH2 0x27FC JUMPI PUSH2 0x27FB PUSH2 0x73F3 JUMP JUMPDEST JUMPDEST PUSH1 0x20 MUL PUSH1 0x20 ADD ADD DUP2 DUP2 MSTORE POP POP PUSH1 0x0 JUMPDEST DUP7 DUP2 LT ISZERO PUSH2 0x2865 JUMPI DUP9 DUP9 DUP3 DUP2 DUP2 LT PUSH2 0x2826 JUMPI PUSH2 0x2825 PUSH2 0x73F3 JUMP JUMPDEST JUMPDEST SWAP1 POP PUSH1 0x20 MUL ADD CALLDATALOAD DUP3 DUP3 PUSH1 0x3 PUSH2 0x283B SWAP2 SWAP1 PUSH2 0x73BF JUMP JUMPDEST DUP2 MLOAD DUP2 LT PUSH2 0x284C JUMPI PUSH2 0x284B PUSH2 0x73F3 JUMP JUMPDEST JUMPDEST PUSH1 0x20 MUL PUSH1 0x20 ADD ADD DUP2 DUP2 MSTORE POP POP DUP1 DUP1 PUSH1 0x1 ADD SWAP2 POP POP PUSH2 0x280B JUMP JUMPDEST POP DUP9 PUSH1 0x60 ADD MLOAD PUSH1 0x0 ADD MLOAD PUSH1 0x0 SHL DUP2 DUP8 PUSH1 0x3 PUSH2 0x2880 SWAP2 SWAP1 PUSH2 0x73BF JUMP JUMPDEST DUP2 MLOAD DUP2 LT PUSH2 0x2891 JUMPI PUSH2 0x2890 PUSH2 0x73F3 JUMP JUMPDEST JUMPDEST PUSH1 0x20 MUL PUSH1 0x20 ADD ADD DUP2 DUP2 MSTORE POP POP DUP9 PUSH1 0x60 ADD MLOAD PUSH1 0x20 ADD MLOAD PUSH1 0x0 SHL DUP2 PUSH1 0x1 DUP9 PUSH1 0x3 PUSH2 0x28B9 SWAP2 SWAP1 PUSH2 0x73BF JUMP JUMPDEST PUSH2 0x28C3 SWAP2 SWAP1 PUSH2 0x73BF JUMP JUMPDEST DUP2 MLOAD DUP2 LT PUSH2 0x28D4 JUMPI PUSH2 0x28D3 PUSH2 0x73F3 JUMP JUMPDEST JUMPDEST PUSH1 0x20 MUL PUSH1 0x20 ADD ADD DUP2 DUP2 MSTORE POP POP DUP9 PUSH1 0x60 ADD MLOAD PUSH1 0x40 ADD MLOAD PUSH1 0x0 SHL DUP2 PUSH1 0x2 DUP9 PUSH1 0x3 PUSH2 0x28FC SWAP2 SWAP1 PUSH2 0x73BF JUMP JUMPDEST PUSH2 0x2906 SWAP2 SWAP1 PUSH2 0x73BF JUMP JUMPDEST DUP2 MLOAD DUP2 LT PUSH2 0x2917 JUMPI PUSH2 0x2916 PUSH2 0x73F3 JUMP JUMPDEST JUMPDEST PUSH1 0x20 MUL PUSH1 0x20 ADD ADD DUP2 DUP2 MSTORE POP POP DUP9 PUSH1 0x60 ADD MLOAD PUSH1 0x60 ADD MLOAD PUSH1 0x0 SHL DUP2 PUSH1 0x3 DUP9 PUSH1 0x3 PUSH2 0x293F SWAP2 SWAP1 PUSH2 0x73BF JUMP JUMPDEST PUSH2 0x2949 SWAP2 SWAP1 PUSH2 0x73BF JUMP JUMPDEST DUP2 MLOAD DUP2 LT PUSH2 0x295A JUMPI PUSH2 0x2959 PUSH2 0x73F3 JUMP JUMPDEST JUMPDEST PUSH1 0x20 MUL PUSH1 0x20 ADD ADD DUP2 DUP2 MSTORE POP POP DUP9 PUSH1 0x80 ADD MLOAD PUSH1 0x0 ADD MLOAD PUSH1 0x0 SHL DUP2 PUSH1 0x4 DUP9 PUSH1 0x3 PUSH2 0x2982 SWAP2 SWAP1 PUSH2 0x73BF JUMP JUMPDEST PUSH2 0x298C SWAP2 SWAP1 PUSH2 0x73BF JUMP JUMPDEST DUP2 MLOAD DUP2 LT PUSH2 0x299D JUMPI PUSH2 0x299C PUSH2 0x73F3 JUMP JUMPDEST JUMPDEST PUSH1 0x20 MUL PUSH1 0x20 ADD ADD DUP2 DUP2 MSTORE POP POP DUP9 PUSH1 0x80 ADD MLOAD PUSH1 0x20 ADD MLOAD PUSH1 0x0 SHL DUP2 PUSH1 0x5 DUP9 PUSH1 0x3 PUSH2 0x29C5 SWAP2 SWAP1 PUSH2 0x73BF JUMP JUMPDEST PUSH2 0x29CF SWAP2 SWAP1 PUSH2 0x73BF JUMP JUMPDEST DUP2 MLOAD DUP2 LT PUSH2 0x29E0 JUMPI PUSH2 0x29DF PUSH2 0x73F3 JUMP JUMPDEST JUMPDEST PUSH1 0x20 MUL PUSH1 0x20 ADD ADD DUP2 DUP2 MSTORE POP POP DUP9 PUSH1 0x80 ADD MLOAD PUSH1 0x40 ADD MLOAD PUSH1 0x0 SHL DUP2 PUSH1 0x6 DUP9 PUSH1 0x3 PUSH2 0x2A08 SWAP2 SWAP1 PUSH2 0x73BF JUMP JUMPDEST PUSH2 0x2A12 SWAP2 SWAP1 PUSH2 0x73BF JUMP JUMPDEST DUP2 MLOAD DUP2 LT PUSH2 0x2A23 JUMPI PUSH2 0x2A22 PUSH2 0x73F3 JUMP JUMPDEST JUMPDEST PUSH1 0x20 MUL PUSH1 0x20 ADD ADD DUP2 DUP2 MSTORE POP POP DUP9 PUSH1 0x80 ADD MLOAD PUSH1 0x60 ADD MLOAD PUSH1 0x0 SHL DUP2 PUSH1 0x7 DUP9 PUSH1 0x3 PUSH2 0x2A4B SWAP2 SWAP1 PUSH2 0x73BF JUMP JUMPDEST PUSH2 0x2A55 SWAP2 SWAP1 PUSH2 0x73BF JUMP JUMPDEST DUP2 MLOAD DUP2 LT PUSH2 0x2A66 JUMPI PUSH2 0x2A65 PUSH2 0x73F3 JUMP JUMPDEST JUMPDEST PUSH1 0x20 MUL PUSH1 0x20 ADD ADD DUP2 DUP2 MSTORE POP POP DUP9 PUSH1 0xA0 ADD MLOAD PUSH1 0x0 ADD MLOAD PUSH1 0x0 SHL DUP2 PUSH1 0x8 DUP9 PUSH1 0x3 PUSH2 0x2A8E SWAP2 SWAP1 PUSH2 0x73BF JUMP JUMPDEST PUSH2 0x2A98 SWAP2 SWAP1 PUSH2 0x73BF JUMP JUMPDEST DUP2 MLOAD DUP2 LT PUSH2 0x2AA9 JUMPI PUSH2 0x2AA8 PUSH2 0x73F3 JUMP JUMPDEST JUMPDEST PUSH1 0x20 MUL PUSH1 0x20 ADD ADD DUP2 DUP2 MSTORE POP POP DUP9 PUSH1 0xA0 ADD MLOAD PUSH1 0x20 ADD MLOAD PUSH1 0x0 SHL DUP2 PUSH1 0x9 DUP9 PUSH1 0x3 PUSH2 0x2AD1 SWAP2 SWAP1 PUSH2 0x73BF JUMP JUMPDEST PUSH2 0x2ADB SWAP2 SWAP1 PUSH2 0x73BF JUMP JUMPDEST DUP2 MLOAD DUP2 LT PUSH2 0x2AEC JUMPI PUSH2 0x2AEB PUSH2 0x73F3 JUMP JUMPDEST JUMPDEST PUSH1 0x20 MUL PUSH1 0x20 ADD ADD DUP2 DUP2 MSTORE POP POP DUP9 PUSH1 0xA0 ADD MLOAD PUSH1 0x40 ADD MLOAD PUSH1 0x0 SHL DUP2 PUSH1 0xA DUP9 PUSH1 0x3 PUSH2 0x2B14 SWAP2 SWAP1 PUSH2 0x73BF JUMP JUMPDEST PUSH2 0x2B1E SWAP2 SWAP1 PUSH2 0x73BF JUMP JUMPDEST DUP2 MLOAD DUP2 LT PUSH2 0x2B2F JUMPI PUSH2 0x2B2E PUSH2 0x73F3 JUMP JUMPDEST JUMPDEST PUSH1 0x20 MUL PUSH1 0x20 ADD ADD DUP2 DUP2 MSTORE POP POP DUP9 PUSH1 0xA0 ADD MLOAD PUSH1 0x60 ADD MLOAD PUSH1 0x0 SHL DUP2 PUSH1 0xB DUP9 PUSH1 0x3 PUSH2 0x2B57 SWAP2 SWAP1 PUSH2 0x73BF JUMP JUMPDEST PUSH2 0x2B61 SWAP2 SWAP1 PUSH2 0x73BF JUMP JUMPDEST DUP2 MLOAD DUP2 LT PUSH2 0x2B72 JUMPI PUSH2 0x2B71 PUSH2 0x73F3 JUMP JUMPDEST JUMPDEST PUSH1 0x20 MUL PUSH1 0x20 ADD ADD DUP2 DUP2 MSTORE POP POP PUSH2 0x2BAD DUP2 PUSH1 0x40 MLOAD PUSH1 0x20 ADD PUSH2 0x2B92 SWAP2 SWAP1 PUSH2 0x75E5 JUMP JUMPDEST PUSH1 0x40 MLOAD PUSH1 0x20 DUP2 DUP4 SUB SUB DUP2 MSTORE SWAP1 PUSH1 0x40 MSTORE DUP1 MLOAD SWAP1 PUSH1 0x20 ADD KECCAK256 PUSH2 0x26ED JUMP JUMPDEST SWAP2 POP PUSH2 0x2BB8 DUP3 PUSH2 0x43AB JUMP JUMPDEST DUP1 SWAP6 POP DUP2 SWAP7 POP POP POP PUSH2 0x2BEF DUP3 PUSH1 0x40 MLOAD PUSH1 0x20 ADD PUSH2 0x2BD4 SWAP2 SWAP1 PUSH2 0x761D JUMP JUMPDEST PUSH1 0x40 MLOAD PUSH1 0x20 DUP2 DUP4 SUB SUB DUP2 MSTORE SWAP1 PUSH1 0x40 MSTORE DUP1 MLOAD SWAP1 PUSH1 0x20 ADD KECCAK256 PUSH2 0x26ED JUMP JUMPDEST SWAP2 POP PUSH1 0x0 PUSH2 0x2BFC DUP4 PUSH2 0x43AB JUMP JUMPDEST DUP1 SWAP3 POP DUP2 SWAP6 POP POP POP POP POP SWAP5 POP SWAP5 POP SWAP5 POP SWAP5 SWAP1 POP JUMP JUMPDEST PUSH1 0x0 DUP1 PUSH1 0x0 PUSH2 0x2C1E PUSH2 0x6CDC JUMP JUMPDEST PUSH2 0x2C27 DUP7 PUSH2 0x43F7 JUMP JUMPDEST DUP2 PUSH1 0x0 PUSH1 0xD DUP2 LT PUSH2 0x2C3B JUMPI PUSH2 0x2C3A PUSH2 0x73F3 JUMP JUMPDEST JUMPDEST PUSH1 0x20 MUL ADD DUP2 DUP2 MSTORE POP POP DUP5 PUSH2 0x100 ADD MLOAD PUSH1 0x0 ADD MLOAD PUSH1 0x0 SHL DUP2 PUSH1 0x1 PUSH1 0xD DUP2 LT PUSH2 0x2C65 JUMPI PUSH2 0x2C64 PUSH2 0x73F3 JUMP JUMPDEST JUMPDEST PUSH1 0x20 MUL ADD DUP2 DUP2 MSTORE POP POP DUP5 PUSH2 0x100 ADD MLOAD PUSH1 0x20 ADD MLOAD PUSH1 0x0 SHL DUP2 PUSH1 0x2 PUSH1 0xD DUP2 LT PUSH2 0x2C8F JUMPI PUSH2 0x2C8E PUSH2 0x73F3 JUMP JUMPDEST JUMPDEST PUSH1 0x20 MUL ADD DUP2 DUP2 MSTORE POP POP DUP5 PUSH2 0x100 ADD MLOAD PUSH1 0x40 ADD MLOAD PUSH1 0x0 SHL DUP2 PUSH1 0x3 PUSH1 0xD DUP2 LT PUSH2 0x2CB9 JUMPI PUSH2 0x2CB8 PUSH2 0x73F3 JUMP JUMPDEST JUMPDEST PUSH1 0x20 MUL ADD DUP2 DUP2 MSTORE POP POP DUP5 PUSH2 0x100 ADD MLOAD PUSH1 0x60 ADD MLOAD PUSH1 0x0 SHL DUP2 PUSH1 0x4 PUSH1 0xD DUP2 LT PUSH2 0x2CE3 JUMPI PUSH2 0x2CE2 PUSH2 0x73F3 JUMP JUMPDEST JUMPDEST PUSH1 0x20 MUL ADD DUP2 DUP2 MSTORE POP POP DUP5 PUSH2 0x120 ADD MLOAD PUSH1 0x0 ADD MLOAD PUSH1 0x0 SHL DUP2 PUSH1 0x5 PUSH1 0xD DUP2 LT PUSH2 0x2D0D JUMPI PUSH2 0x2D0C PUSH2 0x73F3 JUMP JUMPDEST JUMPDEST PUSH1 0x20 MUL ADD DUP2 DUP2 MSTORE POP POP DUP5 PUSH2 0x120 ADD MLOAD PUSH1 0x20 ADD MLOAD PUSH1 0x0 SHL DUP2 PUSH1 0x6 PUSH1 0xD DUP2 LT PUSH2 0x2D37 JUMPI PUSH2 0x2D36 PUSH2 0x73F3 JUMP JUMPDEST JUMPDEST PUSH1 0x20 MUL ADD DUP2 DUP2 MSTORE POP POP DUP5 PUSH2 0x120 ADD MLOAD PUSH1 0x40 ADD MLOAD PUSH1 0x0 SHL DUP2 PUSH1 0x7 PUSH1 0xD DUP2 LT PUSH2 0x2D61 JUMPI PUSH2 0x2D60 PUSH2 0x73F3 JUMP JUMPDEST JUMPDEST PUSH1 0x20 MUL ADD DUP2 DUP2 MSTORE POP POP DUP5 PUSH2 0x120 ADD MLOAD PUSH1 0x60 ADD MLOAD PUSH1 0x0 SHL DUP2 PUSH1 0x8 PUSH1 0xD DUP2 LT PUSH2 0x2D8B JUMPI PUSH2 0x2D8A PUSH2 0x73F3 JUMP JUMPDEST JUMPDEST PUSH1 0x20 MUL ADD DUP2 DUP2 MSTORE POP POP DUP5 PUSH1 0xC0 ADD MLOAD PUSH1 0x0 ADD MLOAD PUSH1 0x0 SHL DUP2 PUSH1 0x9 PUSH1 0xD DUP2 LT PUSH2 0x2DB4 JUMPI PUSH2 0x2DB3 PUSH2 0x73F3 JUMP JUMPDEST JUMPDEST PUSH1 0x20 MUL ADD DUP2 DUP2 MSTORE POP POP DUP5 PUSH1 0xC0 ADD MLOAD PUSH1 0x20 ADD MLOAD PUSH1 0x0 SHL DUP2 PUSH1 0xA PUSH1 0xD DUP2 LT PUSH2 0x2DDD JUMPI PUSH2 0x2DDC PUSH2 0x73F3 JUMP JUMPDEST JUMPDEST PUSH1 0x20 MUL ADD DUP2 DUP2 MSTORE POP POP DUP5 PUSH1 0xC0 ADD MLOAD PUSH1 0x40 ADD MLOAD PUSH1 0x0 SHL DUP2 PUSH1 0xB PUSH1 0xD DUP2 LT PUSH2 0x2E06 JUMPI PUSH2 0x2E05 PUSH2 0x73F3 JUMP JUMPDEST JUMPDEST PUSH1 0x20 MUL ADD DUP2 DUP2 MSTORE POP POP DUP5 PUSH1 0xC0 ADD MLOAD PUSH1 0x60 ADD MLOAD PUSH1 0x0 SHL DUP2 PUSH1 0xC PUSH1 0xD DUP2 LT PUSH2 0x2E2F JUMPI PUSH2 0x2E2E PUSH2 0x73F3 JUMP JUMPDEST JUMPDEST PUSH1 0x20 MUL ADD DUP2 DUP2 MSTORE POP POP PUSH2 0x2E67 DUP2 PUSH1 0x40 MLOAD PUSH1 0x20 ADD PUSH2 0x2E4C SWAP2 SWAP1 PUSH2 0x76BC JUMP JUMPDEST PUSH1 0x40 MLOAD PUSH1 0x20 DUP2 DUP4 SUB SUB DUP2 MSTORE SWAP1 PUSH1 0x40 MSTORE DUP1 MLOAD SWAP1 PUSH1 0x20 ADD KECCAK256 PUSH2 0x26ED JUMP JUMPDEST SWAP2 POP PUSH2 0x2E72 DUP3 PUSH2 0x43AB JUMP JUMPDEST DUP1 SWAP5 POP DUP2 SWAP6 POP POP POP POP SWAP3 POP SWAP3 POP SWAP3 JUMP JUMPDEST PUSH2 0x2E8A PUSH2 0x6CFF JUMP JUMPDEST PUSH1 0x0 PUSH2 0x2E94 PUSH2 0x6D22 JUMP JUMPDEST DUP5 DUP2 PUSH1 0x0 PUSH1 0x9 DUP2 LT PUSH2 0x2EA9 JUMPI PUSH2 0x2EA8 PUSH2 0x73F3 JUMP JUMPDEST JUMPDEST PUSH1 0x20 MUL ADD DUP2 DUP2 MSTORE POP POP DUP4 PUSH2 0x140 ADD MLOAD PUSH1 0x0 ADD MLOAD DUP2 PUSH1 0x1 PUSH1 0x9 DUP2 LT PUSH2 0x2ED0 JUMPI PUSH2 0x2ECF PUSH2 0x73F3 JUMP JUMPDEST JUMPDEST PUSH1 0x20 MUL ADD DUP2 DUP2 MSTORE POP POP DUP4 PUSH2 0x140 ADD MLOAD PUSH1 0x20 ADD MLOAD DUP2 PUSH1 0x2 PUSH1 0x9 DUP2 LT PUSH2 0x2EF7 JUMPI PUSH2 0x2EF6 PUSH2 0x73F3 JUMP JUMPDEST JUMPDEST PUSH1 0x20 MUL ADD DUP2 DUP2 MSTORE POP POP DUP4 PUSH2 0x140 ADD MLOAD PUSH1 0x40 ADD MLOAD DUP2 PUSH1 0x3 PUSH1 0x9 DUP2 LT PUSH2 0x2F1E JUMPI PUSH2 0x2F1D PUSH2 0x73F3 JUMP JUMPDEST JUMPDEST PUSH1 0x20 MUL ADD DUP2 DUP2 MSTORE POP POP DUP4 PUSH2 0x140 ADD MLOAD PUSH1 0x60 ADD MLOAD DUP2 PUSH1 0x4 PUSH1 0x9 DUP2 LT PUSH2 0x2F45 JUMPI PUSH2 0x2F44 PUSH2 0x73F3 JUMP JUMPDEST JUMPDEST PUSH1 0x20 MUL ADD DUP2 DUP2 MSTORE POP POP DUP4 PUSH1 0xE0 ADD MLOAD PUSH1 0x0 ADD MLOAD DUP2 PUSH1 0x5 PUSH1 0x9 DUP2 LT PUSH2 0x2F6B JUMPI PUSH2 0x2F6A PUSH2 0x73F3 JUMP JUMPDEST JUMPDEST PUSH1 0x20 MUL ADD DUP2 DUP2 MSTORE POP POP DUP4 PUSH1 0xE0 ADD MLOAD PUSH1 0x20 ADD MLOAD DUP2 PUSH1 0x6 PUSH1 0x9 DUP2 LT PUSH2 0x2F91 JUMPI PUSH2 0x2F90 PUSH2 0x73F3 JUMP JUMPDEST JUMPDEST PUSH1 0x20 MUL ADD DUP2 DUP2 MSTORE POP POP DUP4 PUSH1 0xE0 ADD MLOAD PUSH1 0x40 ADD MLOAD DUP2 PUSH1 0x7 PUSH1 0x9 DUP2 LT PUSH2 0x2FB7 JUMPI PUSH2 0x2FB6 PUSH2 0x73F3 JUMP JUMPDEST JUMPDEST PUSH1 0x20 MUL ADD DUP2 DUP2 MSTORE POP POP DUP4 PUSH1 0xE0 ADD MLOAD PUSH1 0x60 ADD MLOAD DUP2 PUSH1 0x8 PUSH1 0x9 DUP2 LT PUSH2 0x2FDD JUMPI PUSH2 0x2FDC PUSH2 0x73F3 JUMP JUMPDEST JUMPDEST PUSH1 0x20 MUL ADD DUP2 DUP2 MSTORE POP POP PUSH2 0x3015 DUP2 PUSH1 0x40 MLOAD PUSH1 0x20 ADD PUSH2 0x2FFA SWAP2 SWAP1 PUSH2 0x7783 JUMP JUMPDEST PUSH1 0x40 MLOAD PUSH1 0x20 DUP2 DUP4 SUB SUB DUP2 MSTORE SWAP1 PUSH1 0x40 MSTORE DUP1 MLOAD SWAP1 PUSH1 0x20 ADD KECCAK256 PUSH2 0x26ED JUMP JUMPDEST SWAP2 POP PUSH2 0x3020 DUP3 PUSH2 0x43AB JUMP JUMPDEST DUP5 PUSH1 0x0 PUSH1 0x19 DUP2 LT PUSH2 0x3034 JUMPI PUSH2 0x3033 PUSH2 0x73F3 JUMP JUMPDEST JUMPDEST PUSH1 0x20 MUL ADD DUP6 PUSH1 0x1 PUSH1 0x19 DUP2 LT PUSH2 0x304C JUMPI PUSH2 0x304B PUSH2 0x73F3 JUMP JUMPDEST JUMPDEST PUSH1 0x20 MUL ADD DUP3 DUP2 MSTORE POP DUP3 DUP2 MSTORE POP POP POP PUSH1 0x0 PUSH1 0x1 SWAP1 POP JUMPDEST PUSH1 0x2 PUSH1 0x19 PUSH2 0x306F SWAP2 SWAP1 PUSH2 0x779F JUMP JUMPDEST DUP2 LT ISZERO PUSH2 0x3119 JUMPI PUSH2 0x30A5 DUP4 PUSH1 0x40 MLOAD PUSH1 0x20 ADD PUSH2 0x308A SWAP2 SWAP1 PUSH2 0x761D JUMP JUMPDEST PUSH1 0x40 MLOAD PUSH1 0x20 DUP2 DUP4 SUB SUB DUP2 MSTORE SWAP1 PUSH1 0x40 MSTORE DUP1 MLOAD SWAP1 PUSH1 0x20 ADD KECCAK256 PUSH2 0x26ED JUMP JUMPDEST SWAP3 POP PUSH2 0x30B0 DUP4 PUSH2 0x43AB JUMP JUMPDEST DUP6 DUP4 PUSH1 0x2 PUSH2 0x30BE SWAP2 SWAP1 PUSH2 0x737D JUMP JUMPDEST PUSH1 0x19 DUP2 LT PUSH2 0x30CF JUMPI PUSH2 0x30CE PUSH2 0x73F3 JUMP JUMPDEST JUMPDEST PUSH1 0x20 MUL ADD DUP7 PUSH1 0x1 DUP6 PUSH1 0x2 PUSH2 0x30E3 SWAP2 SWAP1 PUSH2 0x737D JUMP JUMPDEST PUSH2 0x30ED SWAP2 SWAP1 PUSH2 0x73BF JUMP JUMPDEST PUSH1 0x19 DUP2 LT PUSH2 0x30FE JUMPI PUSH2 0x30FD PUSH2 0x73F3 JUMP JUMPDEST JUMPDEST PUSH1 0x20 MUL ADD DUP3 DUP2 MSTORE POP DUP3 DUP2 MSTORE POP POP POP DUP1 DUP1 PUSH1 0x1 ADD SWAP2 POP POP PUSH2 0x3061 JUMP JUMPDEST POP PUSH1 0x1 DUP1 PUSH1 0x19 AND EQ DUP1 ISZERO PUSH2 0x312E JUMPI POP PUSH1 0x2 PUSH1 0x19 GT JUMPDEST ISZERO PUSH2 0x319E JUMPI PUSH2 0x3162 DUP3 PUSH1 0x40 MLOAD PUSH1 0x20 ADD PUSH2 0x3147 SWAP2 SWAP1 PUSH2 0x761D JUMP JUMPDEST PUSH1 0x40 MLOAD PUSH1 0x20 DUP2 DUP4 SUB SUB DUP2 MSTORE SWAP1 PUSH1 0x40 MSTORE DUP1 MLOAD SWAP1 PUSH1 0x20 ADD KECCAK256 PUSH2 0x26ED JUMP JUMPDEST SWAP2 POP PUSH1 0x0 PUSH2 0x316F DUP4 PUSH2 0x43AB JUMP JUMPDEST DUP6 PUSH1 0x1 PUSH1 0x19 PUSH2 0x317E SWAP2 SWAP1 PUSH2 0x7422 JUMP JUMPDEST PUSH1 0x19 DUP2 LT PUSH2 0x318F JUMPI PUSH2 0x318E PUSH2 0x73F3 JUMP JUMPDEST JUMPDEST PUSH1 0x20 MUL ADD DUP2 SWAP4 POP DUP3 DUP2 MSTORE POP POP POP POP JUMPDEST POP SWAP3 POP SWAP3 SWAP1 POP JUMP JUMPDEST PUSH2 0x31AE PUSH2 0x6D45 JUMP JUMPDEST PUSH1 0x0 DUP1 PUSH1 0x0 SWAP1 POP JUMPDEST PUSH1 0x1C DUP2 LT ISZERO PUSH2 0x3229 JUMPI PUSH2 0x31EE DUP5 PUSH1 0x40 MLOAD PUSH1 0x20 ADD PUSH2 0x31D3 SWAP2 SWAP1 PUSH2 0x761D JUMP JUMPDEST PUSH1 0x40 MLOAD PUSH1 0x20 DUP2 DUP4 SUB SUB DUP2 MSTORE SWAP1 PUSH1 0x40 MSTORE DUP1 MLOAD SWAP1 PUSH1 0x20 ADD KECCAK256 PUSH2 0x26ED JUMP JUMPDEST SWAP4 POP PUSH1 0x0 PUSH2 0x31FB DUP6 PUSH2 0x43AB JUMP JUMPDEST DUP6 DUP5 PUSH1 0x1C DUP2 LT PUSH2 0x320E JUMPI PUSH2 0x320D PUSH2 0x73F3 JUMP JUMPDEST JUMPDEST PUSH1 0x20 MUL ADD DUP2 SWAP4 POP DUP3 DUP2 MSTORE POP POP POP POP DUP1 DUP1 PUSH1 0x1 ADD SWAP2 POP POP PUSH2 0x31B6 JUMP JUMPDEST POP DUP3 SWAP1 POP SWAP2 POP SWAP2 JUMP JUMPDEST PUSH2 0x323A PUSH2 0x6D45 JUMP JUMPDEST PUSH1 0x0 DUP1 PUSH1 0x0 SWAP1 POP JUMPDEST PUSH1 0x1C DUP2 LT ISZERO PUSH2 0x3352 JUMPI PUSH2 0x3253 PUSH2 0x6D68 JUMP JUMPDEST DUP5 DUP2 PUSH1 0x0 PUSH1 0x9 DUP2 LT PUSH2 0x3268 JUMPI PUSH2 0x3267 PUSH2 0x73F3 JUMP JUMPDEST JUMPDEST PUSH1 0x20 MUL ADD DUP2 DUP2 MSTORE POP POP PUSH1 0x0 JUMPDEST PUSH1 0x8 DUP2 LT ISZERO PUSH2 0x32E6 JUMPI DUP7 PUSH2 0x160 ADD MLOAD DUP4 PUSH1 0x1C DUP2 LT PUSH2 0x3295 JUMPI PUSH2 0x3294 PUSH2 0x73F3 JUMP JUMPDEST JUMPDEST PUSH1 0x20 MUL ADD MLOAD DUP2 PUSH1 0x8 DUP2 LT PUSH2 0x32AC JUMPI PUSH2 0x32AB PUSH2 0x73F3 JUMP JUMPDEST JUMPDEST PUSH1 0x20 MUL ADD MLOAD DUP3 PUSH1 0x1 DUP4 PUSH2 0x32BF SWAP2 SWAP1 PUSH2 0x73BF JUMP JUMPDEST PUSH1 0x9 DUP2 LT PUSH2 0x32D0 JUMPI PUSH2 0x32CF PUSH2 0x73F3 JUMP JUMPDEST JUMPDEST PUSH1 0x20 MUL ADD DUP2 DUP2 MSTORE POP POP DUP1 DUP1 PUSH1 0x1 ADD SWAP2 POP POP PUSH2 0x3274 JUMP JUMPDEST POP PUSH2 0x3316 DUP2 PUSH1 0x40 MLOAD PUSH1 0x20 ADD PUSH2 0x32FB SWAP2 SWAP1 PUSH2 0x789C JUMP JUMPDEST PUSH1 0x40 MLOAD PUSH1 0x20 DUP2 DUP4 SUB SUB DUP2 MSTORE SWAP1 PUSH1 0x40 MSTORE DUP1 MLOAD SWAP1 PUSH1 0x20 ADD KECCAK256 PUSH2 0x26ED JUMP JUMPDEST SWAP5 POP PUSH1 0x0 PUSH2 0x3323 DUP7 PUSH2 0x43AB JUMP JUMPDEST DUP7 DUP6 PUSH1 0x1C DUP2 LT PUSH2 0x3336 JUMPI PUSH2 0x3335 PUSH2 0x73F3 JUMP JUMPDEST JUMPDEST PUSH1 0x20 MUL ADD DUP2 SWAP4 POP DUP3 DUP2 MSTORE POP POP POP POP POP DUP1 DUP1 PUSH1 0x1 ADD SWAP2 POP POP PUSH2 0x3242 JUMP JUMPDEST POP DUP3 SWAP1 POP SWAP3 POP SWAP3 SWAP1 POP JUMP JUMPDEST PUSH1 0x0 DUP1 PUSH2 0x3368 PUSH2 0x6D8B JUMP JUMPDEST DUP4 DUP2 PUSH1 0x0 PUSH1 0x2D DUP2 LT PUSH2 0x337D JUMPI PUSH2 0x337C PUSH2 0x73F3 JUMP JUMPDEST JUMPDEST PUSH1 0x20 MUL ADD DUP2 DUP2 MSTORE POP POP PUSH1 0x0 JUMPDEST PUSH1 0x2C DUP2 LT ISZERO PUSH2 0x33E4 JUMPI DUP6 PUSH2 0x180 ADD MLOAD DUP2 PUSH1 0x2C DUP2 LT PUSH2 0x33AA JUMPI PUSH2 0x33A9 PUSH2 0x73F3 JUMP JUMPDEST JUMPDEST PUSH1 0x20 MUL ADD MLOAD DUP3 PUSH1 0x1 DUP4 PUSH2 0x33BD SWAP2 SWAP1 PUSH2 0x73BF JUMP JUMPDEST PUSH1 0x2D DUP2 LT PUSH2 0x33CE JUMPI PUSH2 0x33CD PUSH2 0x73F3 JUMP JUMPDEST JUMPDEST PUSH1 0x20 MUL ADD DUP2 DUP2 MSTORE POP POP DUP1 DUP1 PUSH1 0x1 ADD SWAP2 POP POP PUSH2 0x3389 JUMP JUMPDEST POP PUSH2 0x3414 DUP2 PUSH1 0x40 MLOAD PUSH1 0x20 ADD PUSH2 0x33F9 SWAP2 SWAP1 PUSH2 0x793C JUMP JUMPDEST PUSH1 0x40 MLOAD PUSH1 0x20 DUP2 DUP4 SUB SUB DUP2 MSTORE SWAP1 PUSH1 0x40 MSTORE DUP1 MLOAD SWAP1 PUSH1 0x20 ADD KECCAK256 PUSH2 0x26ED JUMP JUMPDEST SWAP2 POP PUSH1 0x0 PUSH2 0x3421 DUP4 PUSH2 0x43AB JUMP JUMPDEST DUP1 SWAP3 POP DUP2 SWAP6 POP POP POP POP POP SWAP3 POP SWAP3 SWAP1 POP JUMP JUMPDEST PUSH1 0x0 DUP1 PUSH2 0x343D PUSH2 0x6DAE JUMP JUMPDEST DUP4 DUP2 PUSH1 0x0 PUSH1 0x6D DUP2 LT PUSH2 0x3452 JUMPI PUSH2 0x3451 PUSH2 0x73F3 JUMP JUMPDEST JUMPDEST PUSH1 0x20 MUL ADD DUP2 DUP2 MSTORE POP POP PUSH1 0x0 JUMPDEST PUSH1 0x1 PUSH1 0x1C PUSH2 0x346C SWAP2 SWAP1 PUSH2 0x7422 JUMP JUMPDEST DUP2 LT ISZERO PUSH2 0x35D4 JUMPI DUP6 PUSH2 0x1A0 ADD MLOAD DUP2 PUSH1 0x1B DUP2 LT PUSH2 0x348B JUMPI PUSH2 0x348A PUSH2 0x73F3 JUMP JUMPDEST JUMPDEST PUSH1 0x20 MUL ADD MLOAD PUSH1 0x0 ADD MLOAD DUP3 PUSH1 0x4 DUP4 PUSH2 0x34A2 SWAP2 SWAP1 PUSH2 0x737D JUMP JUMPDEST PUSH1 0x1 PUSH2 0x34AE SWAP2 SWAP1 PUSH2 0x73BF JUMP JUMPDEST PUSH1 0x6D DUP2 LT PUSH2 0x34BF JUMPI PUSH2 0x34BE PUSH2 0x73F3 JUMP JUMPDEST JUMPDEST PUSH1 0x20 MUL ADD DUP2 DUP2 MSTORE POP POP DUP6 PUSH2 0x1A0 ADD MLOAD DUP2 PUSH1 0x1B DUP2 LT PUSH2 0x34E0 JUMPI PUSH2 0x34DF PUSH2 0x73F3 JUMP JUMPDEST JUMPDEST PUSH1 0x20 MUL ADD MLOAD PUSH1 0x20 ADD MLOAD DUP3 PUSH1 0x4 DUP4 PUSH2 0x34F7 SWAP2 SWAP1 PUSH2 0x737D JUMP JUMPDEST PUSH1 0x2 PUSH2 0x3503 SWAP2 SWAP1 PUSH2 0x73BF JUMP JUMPDEST PUSH1 0x6D DUP2 LT PUSH2 0x3514 JUMPI PUSH2 0x3513 PUSH2 0x73F3 JUMP JUMPDEST JUMPDEST PUSH1 0x20 MUL ADD DUP2 DUP2 MSTORE POP POP DUP6 PUSH2 0x1A0 ADD MLOAD DUP2 PUSH1 0x1B DUP2 LT PUSH2 0x3535 JUMPI PUSH2 0x3534 PUSH2 0x73F3 JUMP JUMPDEST JUMPDEST PUSH1 0x20 MUL ADD MLOAD PUSH1 0x40 ADD MLOAD DUP3 PUSH1 0x4 DUP4 PUSH2 0x354C SWAP2 SWAP1 PUSH2 0x737D JUMP JUMPDEST PUSH1 0x3 PUSH2 0x3558 SWAP2 SWAP1 PUSH2 0x73BF JUMP JUMPDEST PUSH1 0x6D DUP2 LT PUSH2 0x3569 JUMPI PUSH2 0x3568 PUSH2 0x73F3 JUMP JUMPDEST JUMPDEST PUSH1 0x20 MUL ADD DUP2 DUP2 MSTORE POP POP DUP6 PUSH2 0x1A0 ADD MLOAD DUP2 PUSH1 0x1B DUP2 LT PUSH2 0x358A JUMPI PUSH2 0x3589 PUSH2 0x73F3 JUMP JUMPDEST JUMPDEST PUSH1 0x20 MUL ADD MLOAD PUSH1 0x60 ADD MLOAD DUP3 PUSH1 0x4 DUP4 PUSH2 0x35A1 SWAP2 SWAP1 PUSH2 0x737D JUMP JUMPDEST PUSH1 0x4 PUSH2 0x35AD SWAP2 SWAP1 PUSH2 0x73BF JUMP JUMPDEST PUSH1 0x6D DUP2 LT PUSH2 0x35BE JUMPI PUSH2 0x35BD PUSH2 0x73F3 JUMP JUMPDEST JUMPDEST PUSH1 0x20 MUL ADD DUP2 DUP2 MSTORE POP POP DUP1 DUP1 PUSH1 0x1 ADD SWAP2 POP POP PUSH2 0x345E JUMP JUMPDEST POP PUSH2 0x3604 DUP2 PUSH1 0x40 MLOAD PUSH1 0x20 ADD PUSH2 0x35E9 SWAP2 SWAP1 PUSH2 0x79DC JUMP JUMPDEST PUSH1 0x40 MLOAD PUSH1 0x20 DUP2 DUP4 SUB SUB DUP2 MSTORE SWAP1 PUSH1 0x40 MSTORE DUP1 MLOAD SWAP1 PUSH1 0x20 ADD KECCAK256 PUSH2 0x26ED JUMP JUMPDEST SWAP2 POP PUSH1 0x0 PUSH2 0x3611 DUP4 PUSH2 0x43AB JUMP JUMPDEST DUP1 SWAP3 POP DUP2 SWAP6 POP POP POP POP POP SWAP3 POP SWAP3 SWAP1 POP JUMP JUMPDEST PUSH1 0x0 DUP1 PUSH2 0x362D PUSH2 0x6DD1 JUMP JUMPDEST DUP4 DUP2 PUSH1 0x0 PUSH1 0x1D DUP2 LT PUSH2 0x3642 JUMPI PUSH2 0x3641 PUSH2 0x73F3 JUMP JUMPDEST JUMPDEST PUSH1 0x20 MUL ADD DUP2 DUP2 MSTORE POP POP PUSH1 0x0 JUMPDEST PUSH1 0x1C DUP2 LT ISZERO PUSH2 0x36A9 JUMPI DUP6 PUSH2 0x1C0 ADD MLOAD DUP2 PUSH1 0x1C DUP2 LT PUSH2 0x366F JUMPI PUSH2 0x366E PUSH2 0x73F3 JUMP JUMPDEST JUMPDEST PUSH1 0x20 MUL ADD MLOAD DUP3 PUSH1 0x1 DUP4 PUSH2 0x3682 SWAP2 SWAP1 PUSH2 0x73BF JUMP JUMPDEST PUSH1 0x1D DUP2 LT PUSH2 0x3693 JUMPI PUSH2 0x3692 PUSH2 0x73F3 JUMP JUMPDEST JUMPDEST PUSH1 0x20 MUL ADD DUP2 DUP2 MSTORE POP POP DUP1 DUP1 PUSH1 0x1 ADD SWAP2 POP POP PUSH2 0x364E JUMP JUMPDEST POP PUSH2 0x36D9 DUP2 PUSH1 0x40 MLOAD PUSH1 0x20 ADD PUSH2 0x36BE SWAP2 SWAP1 PUSH2 0x7A7C JUMP JUMPDEST PUSH1 0x40 MLOAD PUSH1 0x20 DUP2 DUP4 SUB SUB DUP2 MSTORE SWAP1 PUSH1 0x40 MSTORE DUP1 MLOAD SWAP1 PUSH1 0x20 ADD KECCAK256 PUSH2 0x26ED JUMP JUMPDEST SWAP2 POP PUSH1 0x0 PUSH2 0x36E6 DUP4 PUSH2 0x43AB JUMP JUMPDEST DUP1 SWAP3 POP DUP2 SWAP6 POP POP POP POP POP SWAP3 POP SWAP3 SWAP1 POP JUMP JUMPDEST PUSH1 0x0 DUP1 PUSH2 0x3702 PUSH2 0x6DF4 JUMP JUMPDEST DUP4 DUP2 PUSH1 0x0 PUSH1 0x5 DUP2 LT PUSH2 0x3717 JUMPI PUSH2 0x3716 PUSH2 0x73F3 JUMP JUMPDEST JUMPDEST PUSH1 0x20 MUL ADD DUP2 DUP2 MSTORE POP POP DUP5 PUSH2 0x1E0 ADD MLOAD PUSH1 0x0 ADD MLOAD DUP2 PUSH1 0x1 PUSH1 0x5 DUP2 LT PUSH2 0x373E JUMPI PUSH2 0x373D PUSH2 0x73F3 JUMP JUMPDEST JUMPDEST PUSH1 0x20 MUL ADD DUP2 DUP2 MSTORE POP POP DUP5 PUSH2 0x1E0 ADD MLOAD PUSH1 0x20 ADD MLOAD DUP2 PUSH1 0x2 PUSH1 0x5 DUP2 LT PUSH2 0x3765 JUMPI PUSH2 0x3764 PUSH2 0x73F3 JUMP JUMPDEST JUMPDEST PUSH1 0x20 MUL ADD DUP2 DUP2 MSTORE POP POP DUP5 PUSH2 0x1E0 ADD MLOAD PUSH1 0x40 ADD MLOAD DUP2 PUSH1 0x3 PUSH1 0x5 DUP2 LT PUSH2 0x378C JUMPI PUSH2 0x378B PUSH2 0x73F3 JUMP JUMPDEST JUMPDEST PUSH1 0x20 MUL ADD DUP2 DUP2 MSTORE POP POP DUP5 PUSH2 0x1E0 ADD MLOAD PUSH1 0x60 ADD MLOAD DUP2 PUSH1 0x4 PUSH1 0x5 DUP2 LT PUSH2 0x37B3 JUMPI PUSH2 0x37B2 PUSH2 0x73F3 JUMP JUMPDEST JUMPDEST PUSH1 0x20 MUL ADD DUP2 DUP2 MSTORE POP POP PUSH2 0x37EB DUP2 PUSH1 0x40 MLOAD PUSH1 0x20 ADD PUSH2 0x37D0 SWAP2 SWAP1 PUSH2 0x7B1C JUMP JUMPDEST PUSH1 0x40 MLOAD PUSH1 0x20 DUP2 DUP4 SUB SUB DUP2 MSTORE SWAP1 PUSH1 0x40 MSTORE DUP1 MLOAD SWAP1 PUSH1 0x20 ADD KECCAK256 PUSH2 0x26ED JUMP JUMPDEST SWAP2 POP PUSH1 0x0 PUSH2 0x37F8 DUP4 PUSH2 0x43AB JUMP JUMPDEST DUP1 SWAP3 POP DUP2 SWAP6 POP POP POP POP POP SWAP3 POP SWAP3 SWAP1 POP JUMP JUMPDEST PUSH1 0x0 PUSH32 0x30644E72E131A029B85045B68181585D2833E84879B9709143E1F593F0000001 DUP3 PUSH2 0x3837 SWAP2 SWAP1 PUSH2 0x74CD JUMP JUMPDEST SWAP1 POP SWAP2 SWAP1 POP JUMP JUMPDEST PUSH1 0x0 PUSH32 0x30644E72E131A029B85045B68181585D2833E84879B9709143E1F593F0000001 DUP1 PUSH2 0x386F JUMPI PUSH2 0x386E PUSH2 0x749E JUMP JUMPDEST JUMPDEST DUP3 DUP5 MULMOD SWAP1 POP SWAP3 SWAP2 POP POP JUMP JUMPDEST PUSH1 0x0 PUSH32 0x30644E72E131A029B85045B68181585D2833E84879B9709143E1F593F0000001 DUP1 PUSH2 0x38AB JUMPI PUSH2 0x38AA PUSH2 0x749E JUMP JUMPDEST JUMPDEST DUP3 DUP5 ADDMOD SWAP1 POP SWAP3 SWAP2 POP POP JUMP JUMPDEST PUSH1 0x0 PUSH32 0x30644E72E131A029B85045B68181585D2833E84879B9709143E1F593F0000001 DUP1 PUSH2 0x38E7 JUMPI PUSH2 0x38E6 PUSH2 0x749E JUMP JUMPDEST JUMPDEST DUP3 PUSH32 0x30644E72E131A029B85045B68181585D2833E84879B9709143E1F593F0000001 PUSH2 0x3913 SWAP2 SWAP1 PUSH2 0x7422 JUMP JUMPDEST DUP5 ADDMOD SWAP1 POP SWAP3 SWAP2 POP POP JUMP JUMPDEST PUSH1 0x0 PUSH2 0x3931 DUP4 PUSH2 0x392C DUP5 PUSH2 0x3E2E JUMP JUMPDEST PUSH2 0x383E JUMP JUMPDEST SWAP1 POP SWAP3 SWAP2 POP POP JUMP JUMPDEST PUSH1 0x0 DUP1 PUSH2 0x3976 DUP5 PUSH1 0x0 PUSH1 0x8 DUP2 LT PUSH2 0x3953 JUMPI PUSH2 0x3952 PUSH2 0x73F3 JUMP JUMPDEST JUMPDEST PUSH1 0x20 MUL ADD MLOAD DUP6 PUSH1 0x1 PUSH1 0x8 DUP2 LT PUSH2 0x396C JUMPI PUSH2 0x396B PUSH2 0x73F3 JUMP JUMPDEST JUMPDEST PUSH1 0x20 MUL ADD MLOAD PUSH2 0x387A JUMP JUMPDEST SWAP1 POP PUSH2 0x3982 DUP2 DUP5 PUSH2 0x3CAE JUMP JUMPDEST SWAP2 POP POP SWAP3 SWAP2 POP POP JUMP JUMPDEST PUSH1 0x0 DUP1 PUSH1 0x40 MLOAD DUP1 PUSH2 0x100 ADD PUSH1 0x40 MSTORE DUP1 PUSH32 0x30644E72E131A029B85045B68181585D2833E84879B9709143E1F593EFFFEC51 DUP2 MSTORE PUSH1 0x20 ADD PUSH2 0x2D0 DUP2 MSTORE PUSH1 0x20 ADD PUSH32 0x30644E72E131A029B85045B68181585D2833E84879B9709143E1F593EFFFFF11 DUP2 MSTORE PUSH1 0x20 ADD PUSH1 0x90 DUP2 MSTORE PUSH1 0x20 ADD PUSH32 0x30644E72E131A029B85045B68181585D2833E84879B9709143E1F593EFFFFF71 DUP2 MSTORE PUSH1 0x20 ADD PUSH1 0xF0 DUP2 MSTORE PUSH1 0x20 ADD PUSH32 0x30644E72E131A029B85045B68181585D2833E84879B9709143E1F593EFFFFD31 DUP2 MSTORE PUSH1 0x20 ADD PUSH2 0x13B0 DUP2 MSTORE POP SWAP1 POP PUSH1 0x0 PUSH1 0x40 MLOAD DUP1 PUSH2 0x100 ADD PUSH1 0x40 MSTORE DUP1 PUSH1 0x0 DUP2 MSTORE PUSH1 0x20 ADD PUSH1 0x1 DUP2 MSTORE PUSH1 0x20 ADD PUSH1 0x2 DUP2 MSTORE PUSH1 0x20 ADD PUSH1 0x3 DUP2 MSTORE PUSH1 0x20 ADD PUSH1 0x4 DUP2 MSTORE PUSH1 0x20 ADD PUSH1 0x5 DUP2 MSTORE PUSH1 0x20 ADD PUSH1 0x6 DUP2 MSTORE PUSH1 0x20 ADD PUSH1 0x7 DUP2 MSTORE POP SWAP1 POP PUSH1 0x0 PUSH1 0x1 SWAP1 POP PUSH1 0x0 JUMPDEST PUSH1 0x8 DUP2 LT ISZERO PUSH2 0x3AC8 JUMPI PUSH2 0x3ABB DUP3 PUSH2 0x3AB6 DUP9 DUP5 PUSH2 0x38B6 JUMP JUMPDEST PUSH2 0x383E JUMP JUMPDEST SWAP2 POP DUP1 PUSH1 0x1 ADD SWAP1 POP PUSH2 0x3A9F JUMP JUMPDEST POP PUSH2 0x3AD1 PUSH2 0x6E16 JUMP JUMPDEST PUSH1 0x0 JUMPDEST PUSH1 0x8 DUP2 LT ISZERO PUSH2 0x3B59 JUMPI PUSH1 0x0 DUP6 DUP3 PUSH1 0x8 DUP2 LT PUSH2 0x3AF2 JUMPI PUSH2 0x3AF1 PUSH2 0x73F3 JUMP JUMPDEST JUMPDEST PUSH1 0x20 MUL ADD MLOAD SWAP1 POP PUSH2 0x3B23 DUP2 PUSH2 0x3B1E DUP11 DUP9 DUP7 PUSH1 0x8 DUP2 LT PUSH2 0x3B14 JUMPI PUSH2 0x3B13 PUSH2 0x73F3 JUMP JUMPDEST JUMPDEST PUSH1 0x20 MUL ADD MLOAD PUSH2 0x38B6 JUMP JUMPDEST PUSH2 0x383E JUMP JUMPDEST SWAP1 POP PUSH2 0x3B2E DUP2 PUSH2 0x3E2E JUMP JUMPDEST SWAP1 POP DUP1 DUP4 DUP4 PUSH1 0x8 DUP2 LT PUSH2 0x3B44 JUMPI PUSH2 0x3B43 PUSH2 0x73F3 JUMP JUMPDEST JUMPDEST PUSH1 0x20 MUL ADD DUP2 DUP2 MSTORE POP POP POP DUP1 PUSH1 0x1 ADD SWAP1 POP PUSH2 0x3AD4 JUMP JUMPDEST POP PUSH1 0x0 JUMPDEST PUSH1 0x8 DUP2 LT ISZERO PUSH2 0x3BBD JUMPI PUSH1 0x0 DUP9 DUP3 PUSH1 0x8 DUP2 LT PUSH2 0x3B7B JUMPI PUSH2 0x3B7A PUSH2 0x73F3 JUMP JUMPDEST JUMPDEST PUSH1 0x20 MUL ADD MLOAD SWAP1 POP PUSH2 0x3BA3 DUP2 DUP5 DUP5 PUSH1 0x8 DUP2 LT PUSH2 0x3B99 JUMPI PUSH2 0x3B98 PUSH2 0x73F3 JUMP JUMPDEST JUMPDEST PUSH1 0x20 MUL ADD MLOAD PUSH2 0x383E JUMP JUMPDEST SWAP1 POP PUSH2 0x3BAF DUP8 DUP3 PUSH2 0x387A JUMP JUMPDEST SWAP7 POP POP DUP1 PUSH1 0x1 ADD SWAP1 POP PUSH2 0x3B5D JUMP JUMPDEST POP PUSH2 0x3BC8 DUP6 DUP4 PUSH2 0x383E JUMP JUMPDEST SWAP5 POP POP POP POP POP SWAP3 SWAP2 POP POP JUMP JUMPDEST PUSH1 0x0 DUP1 PUSH2 0x3C10 PUSH1 0x1 PUSH2 0x3C0B DUP7 PUSH2 0x3C06 DUP11 PUSH1 0xC0 ADD MLOAD DUP9 PUSH1 0x1C DUP2 LT PUSH2 0x3BFA JUMPI PUSH2 0x3BF9 PUSH2 0x73F3 JUMP JUMPDEST JUMPDEST PUSH1 0x20 MUL ADD MLOAD PUSH1 0x1 PUSH2 0x38B6 JUMP JUMPDEST PUSH2 0x383E JUMP JUMPDEST PUSH2 0x387A JUMP JUMPDEST SWAP1 POP PUSH2 0x3C1C DUP6 DUP3 PUSH2 0x383E JUMP JUMPDEST SWAP2 POP POP SWAP5 SWAP4 POP POP POP POP JUMP JUMPDEST PUSH1 0x0 DUP1 DUP5 PUSH2 0x180 ADD MLOAD SWAP1 POP PUSH2 0x3C3A PUSH2 0x6E39 JUMP JUMPDEST PUSH2 0x3C45 DUP3 DUP3 DUP7 PUSH2 0x4404 JUMP JUMPDEST PUSH2 0x3C51 DUP3 DUP7 DUP4 DUP8 PUSH2 0x4649 JUMP JUMPDEST PUSH2 0x3C5D DUP3 DUP7 DUP4 DUP8 PUSH2 0x4946 JUMP JUMPDEST PUSH2 0x3C68 DUP3 DUP3 DUP7 PUSH2 0x4BEC JUMP JUMPDEST PUSH2 0x3C73 DUP3 DUP3 DUP7 PUSH2 0x4EC4 JUMP JUMPDEST PUSH2 0x3C7F DUP3 DUP7 DUP4 DUP8 PUSH2 0x5311 JUMP JUMPDEST PUSH2 0x3C8A DUP3 DUP3 DUP7 PUSH2 0x5FAB JUMP JUMPDEST PUSH2 0x3C95 DUP3 DUP3 DUP7 PUSH2 0x646B JUMP JUMPDEST PUSH2 0x3CA3 DUP2 DUP7 PUSH1 0xA0 ADD MLOAD PUSH2 0x68BE JUMP JUMPDEST SWAP3 POP POP POP SWAP4 SWAP3 POP POP POP JUMP JUMPDEST PUSH1 0x0 DUP2 DUP4 EQ SWAP1 POP SWAP3 SWAP2 POP POP JUMP JUMPDEST PUSH2 0x3CC3 PUSH2 0x6D45 JUMP JUMPDEST DUP2 DUP2 PUSH1 0x0 PUSH1 0x1C DUP2 LT PUSH2 0x3CD8 JUMPI PUSH2 0x3CD7 PUSH2 0x73F3 JUMP JUMPDEST JUMPDEST PUSH1 0x20 MUL ADD DUP2 DUP2 MSTORE POP POP PUSH1 0x0 PUSH1 0x1 SWAP1 POP JUMPDEST PUSH1 0x1C DUP2 LT ISZERO PUSH2 0x3D44 JUMPI PUSH2 0x3D1D DUP3 PUSH1 0x1 DUP4 PUSH2 0x3D02 SWAP2 SWAP1 PUSH2 0x7422 JUMP JUMPDEST PUSH1 0x1C DUP2 LT PUSH2 0x3D13 JUMPI PUSH2 0x3D12 PUSH2 0x73F3 JUMP JUMPDEST JUMPDEST PUSH1 0x20 MUL ADD MLOAD PUSH2 0x3F3A JUMP JUMPDEST DUP3 DUP3 PUSH1 0x1C DUP2 LT PUSH2 0x3D30 JUMPI PUSH2 0x3D2F PUSH2 0x73F3 JUMP JUMPDEST JUMPDEST PUSH1 0x20 MUL ADD DUP2 DUP2 MSTORE POP POP DUP1 PUSH1 0x1 ADD SWAP1 POP PUSH2 0x3CE8 JUMP JUMPDEST POP SWAP2 SWAP1 POP JUMP JUMPDEST PUSH2 0x3D52 PUSH2 0x6E5C JUMP JUMPDEST PUSH1 0x0 DUP4 PUSH2 0x160 ADD MLOAD SWAP1 POP PUSH2 0x3D86 PUSH2 0x3D81 DUP3 DUP6 PUSH1 0x0 PUSH1 0x1C DUP2 LT PUSH2 0x3D77 JUMPI PUSH2 0x3D76 PUSH2 0x73F3 JUMP JUMPDEST JUMPDEST PUSH1 0x20 MUL ADD MLOAD PUSH2 0x38B6 JUMP JUMPDEST PUSH2 0x3E2E JUMP JUMPDEST DUP3 PUSH1 0x0 PUSH1 0x1D DUP2 LT PUSH2 0x3D9A JUMPI PUSH2 0x3D99 PUSH2 0x73F3 JUMP JUMPDEST JUMPDEST PUSH1 0x20 MUL ADD DUP2 DUP2 MSTORE POP POP PUSH1 0x0 JUMPDEST PUSH1 0x1C DUP2 LT ISZERO PUSH2 0x3E26 JUMPI PUSH1 0x0 PUSH1 0x1 PUSH1 0x12 PUSH2 0x3DBF SWAP2 SWAP1 PUSH2 0x73BF JUMP JUMPDEST DUP3 GT PUSH2 0x3DF1 JUMPI PUSH2 0x3DEE PUSH2 0x3DE9 DUP5 DUP8 DUP6 PUSH1 0x1C DUP2 LT PUSH2 0x3DDF JUMPI PUSH2 0x3DDE PUSH2 0x73F3 JUMP JUMPDEST JUMPDEST PUSH1 0x20 MUL ADD MLOAD PUSH2 0x387A JUMP JUMPDEST PUSH2 0x3E2E JUMP JUMPDEST SWAP1 POP JUMPDEST DUP1 DUP5 PUSH1 0x1 DUP5 PUSH2 0x3E00 SWAP2 SWAP1 PUSH2 0x73BF JUMP JUMPDEST PUSH1 0x1D DUP2 LT PUSH2 0x3E11 JUMPI PUSH2 0x3E10 PUSH2 0x73F3 JUMP JUMPDEST JUMPDEST PUSH1 0x20 MUL ADD DUP2 DUP2 MSTORE POP POP POP DUP1 PUSH1 0x1 ADD SWAP1 POP PUSH2 0x3DA6 JUMP JUMPDEST POP POP SWAP3 SWAP2 POP POP JUMP JUMPDEST PUSH1 0x0 DUP1 DUP3 SWAP1 POP PUSH1 0x0 PUSH1 0x40 MLOAD PUSH1 0x20 DUP2 MSTORE PUSH1 0x20 DUP1 DUP3 ADD MSTORE PUSH1 0x20 PUSH1 0x40 DUP3 ADD MSTORE DUP3 PUSH1 0x60 DUP3 ADD MSTORE PUSH1 0x2 PUSH32 0x30644E72E131A029B85045B68181585D2833E84879B9709143E1F593F0000001 SUB PUSH1 0x80 DUP3 ADD MSTORE PUSH32 0x30644E72E131A029B85045B68181585D2833E84879B9709143E1F593F0000001 PUSH1 0xA0 DUP3 ADD MSTORE PUSH1 0x20 PUSH1 0x0 PUSH1 0xC0 DUP4 PUSH1 0x5 GAS STATICCALL DUP1 PUSH2 0x3EB4 JUMPI PUSH1 0x0 DUP1 REVERT JUMPDEST PUSH1 0x0 MLOAD SWAP3 POP POP POP DUP1 SWAP3 POP POP POP SWAP2 SWAP1 POP JUMP JUMPDEST PUSH2 0x3ECD PUSH2 0x6E7F JUMP JUMPDEST PUSH1 0x40 MLOAD DUP1 PUSH1 0x40 ADD PUSH1 0x40 MSTORE DUP1 PUSH1 0x88 DUP5 PUSH1 0x20 ADD MLOAD SWAP1 SHL DUP5 PUSH1 0x0 ADD MLOAD OR DUP2 MSTORE PUSH1 0x20 ADD PUSH1 0x88 DUP5 PUSH1 0x60 ADD MLOAD SWAP1 SHL DUP5 PUSH1 0x40 ADD MLOAD OR DUP2 MSTORE POP SWAP1 POP SWAP2 SWAP1 POP JUMP JUMPDEST PUSH1 0x0 DUP2 PUSH32 0x30644E72E131A029B85045B68181585D2833E84879B9709143E1F593F0000001 PUSH2 0x3F33 SWAP2 SWAP1 PUSH2 0x7422 JUMP JUMPDEST SWAP1 POP SWAP2 SWAP1 POP JUMP JUMPDEST PUSH1 0x0 PUSH2 0x3F46 DUP3 DUP4 PUSH2 0x383E JUMP JUMPDEST SWAP1 POP SWAP2 SWAP1 POP JUMP JUMPDEST PUSH1 0x0 DUP1 PUSH1 0x1C SWAP1 POP JUMPDEST PUSH1 0x0 DUP2 GT ISZERO PUSH2 0x4077 JUMPI PUSH1 0x0 DUP4 PUSH1 0x1 DUP4 PUSH2 0x3F6E SWAP2 SWAP1 PUSH2 0x7422 JUMP JUMPDEST PUSH1 0x1C DUP2 LT PUSH2 0x3F7F JUMPI PUSH2 0x3F7E PUSH2 0x73F3 JUMP JUMPDEST JUMPDEST PUSH1 0x20 MUL ADD MLOAD SWAP1 POP PUSH1 0x0 DUP8 PUSH1 0xE0 ADD MLOAD PUSH1 0x1 DUP5 PUSH2 0x3F9A SWAP2 SWAP1 PUSH2 0x7422 JUMP JUMPDEST PUSH1 0x1C DUP2 LT PUSH2 0x3FAB JUMPI PUSH2 0x3FAA PUSH2 0x73F3 JUMP JUMPDEST JUMPDEST PUSH1 0x20 MUL ADD MLOAD SWAP1 POP PUSH1 0x0 DUP7 PUSH1 0x1 DUP6 PUSH2 0x3FC2 SWAP2 SWAP1 PUSH2 0x7422 JUMP JUMPDEST PUSH1 0x1C DUP2 LT PUSH2 0x3FD3 JUMPI PUSH2 0x3FD2 PUSH2 0x73F3 JUMP JUMPDEST JUMPDEST PUSH1 0x20 MUL ADD MLOAD SWAP1 POP PUSH1 0x0 PUSH2 0x401E PUSH2 0x3FF3 PUSH2 0x3FEC DUP7 DUP13 PUSH2 0x383E JUMP JUMPDEST PUSH1 0x2 PUSH2 0x383E JUMP JUMPDEST PUSH2 0x4019 DUP5 PUSH2 0x4014 PUSH2 0x400E DUP10 PUSH2 0x4009 PUSH1 0x1 DUP12 PUSH2 0x38B6 JUMP JUMPDEST PUSH2 0x383E JUMP JUMPDEST DUP9 PUSH2 0x38B6 JUMP JUMPDEST PUSH2 0x383E JUMP JUMPDEST PUSH2 0x38B6 JUMP JUMPDEST SWAP1 POP PUSH2 0x404E DUP2 PUSH2 0x4049 PUSH2 0x4044 PUSH2 0x403E DUP9 PUSH2 0x4039 PUSH1 0x1 DUP11 PUSH2 0x38B6 JUMP JUMPDEST PUSH2 0x383E JUMP JUMPDEST DUP8 PUSH2 0x387A JUMP JUMPDEST PUSH2 0x3E2E JUMP JUMPDEST PUSH2 0x383E JUMP JUMPDEST SWAP1 POP PUSH1 0x0 PUSH1 0x12 DUP7 GT SWAP1 POP DUP1 PUSH2 0x4061 JUMPI DUP2 SWAP10 POP JUMPDEST POP POP POP POP POP DUP1 PUSH2 0x4070 SWAP1 PUSH2 0x7B37 JUMP JUMPDEST SWAP1 POP PUSH2 0x3F55 JUMP JUMPDEST POP DUP4 SWAP1 POP SWAP5 SWAP4 POP POP POP POP JUMP JUMPDEST PUSH2 0x408B PUSH2 0x6E7F JUMP JUMPDEST PUSH1 0x0 PUSH1 0x2 PUSH1 0x1C PUSH1 0x2C PUSH2 0x409D SWAP2 SWAP1 PUSH2 0x73BF JUMP JUMPDEST PUSH2 0x40A7 SWAP2 SWAP1 PUSH2 0x73BF JUMP JUMPDEST SWAP1 POP PUSH1 0x1 PUSH1 0x40 MLOAD DUP6 MLOAD MLOAD PUSH1 0x40 DUP3 ADD MSTORE DUP6 MLOAD PUSH1 0x20 ADD MLOAD PUSH1 0x60 DUP3 ADD MSTORE DUP5 MLOAD PUSH1 0x80 DUP3 ADD MSTORE PUSH1 0x40 DUP2 PUSH1 0x60 PUSH1 0x40 DUP5 ADD PUSH1 0x7 GAS STATICCALL DUP3 AND SWAP2 POP PUSH1 0x1 JUMPDEST DUP4 DUP2 LT ISZERO PUSH2 0x4138 JUMPI PUSH1 0x20 DUP2 MUL DUP8 ADD PUSH1 0x20 DUP3 MUL DUP8 ADD DUP2 MLOAD MLOAD PUSH1 0x40 DUP6 ADD MSTORE DUP2 MLOAD PUSH1 0x20 ADD MLOAD PUSH1 0x60 DUP6 ADD MSTORE DUP1 MLOAD PUSH1 0x80 DUP6 ADD MSTORE PUSH1 0x40 DUP1 DUP6 ADD PUSH1 0x60 PUSH1 0x40 DUP8 ADD PUSH1 0x7 GAS STATICCALL DUP6 AND SWAP5 POP PUSH1 0x40 DUP5 PUSH1 0x80 DUP7 PUSH1 0x6 GAS STATICCALL DUP6 AND SWAP5 POP POP POP PUSH1 0x1 DUP2 ADD SWAP1 POP PUSH2 0x40DC JUMP JUMPDEST DUP2 MLOAD DUP6 MSTORE PUSH1 0x20 DUP3 ADD MLOAD PUSH1 0x20 DUP7 ADD MSTORE POP POP POP POP SWAP3 SWAP2 POP POP JUMP JUMPDEST PUSH2 0x4158 PUSH2 0x6E7F JUMP JUMPDEST PUSH32 0x30644E72E131A029B85045B68181585D97816A916871CA8D3C208C16D87CFD47 DUP3 PUSH1 0x20 ADD MLOAD PUSH32 0x30644E72E131A029B85045B68181585D97816A916871CA8D3C208C16D87CFD47 PUSH2 0x41A9 SWAP2 SWAP1 PUSH2 0x7422 JUMP JUMPDEST PUSH2 0x41B3 SWAP2 SWAP1 PUSH2 0x74CD JUMP JUMPDEST DUP3 PUSH1 0x20 ADD DUP2 DUP2 MSTORE POP POP DUP2 SWAP1 POP SWAP2 SWAP1 POP JUMP JUMPDEST PUSH1 0x0 DUP1 DUP4 PUSH1 0x0 ADD MLOAD DUP5 PUSH1 0x20 ADD MLOAD PUSH32 0x198E9393920D483A7260BFB731FB5D25F1AA493335A9E71297E485B7AEF312C2 PUSH32 0x1800DEEF121F1E76426A00665E5C4479674322D4F75EDADD46DEBD5CD992F6ED PUSH32 0x90689D0585FF075EC9E99AD690C3395BC4B313370B38EF355ACDADCD122975B PUSH32 0x12C85EA5DB8C6DEB4AAB71808DCB408FE3D1E7690C43D37B4CE6CC0166FA7DAA DUP9 PUSH1 0x0 ADD MLOAD DUP10 PUSH1 0x20 ADD MLOAD PUSH32 0x260E01B251F6F1C7E7FF4E580791DEE8EA51D87A358E038B4EFE30FAC09383C1 PUSH32 0x118C4D5B837BCC2BC89B5B398B5974E9F5944073B32078B7E231FEC938883B0 PUSH32 0x4FC6369F7110FE3D25156C1BB9A72859CF2A04641F99BA4EE413C80DA6A5FE4 PUSH32 0x22FEBDA3C0C0632A56475B4214E5615E11E6DD3F96E6CEA2854A87D4DACC5E55 PUSH1 0x40 MLOAD PUSH1 0x20 ADD PUSH2 0x42FE SWAP13 SWAP12 SWAP11 SWAP10 SWAP9 SWAP8 SWAP7 SWAP6 SWAP5 SWAP4 SWAP3 SWAP2 SWAP1 PUSH2 0x7B60 JUMP JUMPDEST PUSH1 0x40 MLOAD PUSH1 0x20 DUP2 DUP4 SUB SUB DUP2 MSTORE SWAP1 PUSH1 0x40 MSTORE SWAP1 POP PUSH1 0x0 DUP1 PUSH1 0x8 PUSH20 0xFFFFFFFFFFFFFFFFFFFFFFFFFFFFFFFFFFFFFFFF AND DUP4 PUSH1 0x40 MLOAD PUSH2 0x4338 SWAP2 SWAP1 PUSH2 0x7CA7 JUMP JUMPDEST PUSH1 0x0 PUSH1 0x40 MLOAD DUP1 DUP4 SUB DUP2 DUP6 GAS STATICCALL SWAP2 POP POP RETURNDATASIZE DUP1 PUSH1 0x0 DUP2 EQ PUSH2 0x4373 JUMPI PUSH1 0x40 MLOAD SWAP2 POP PUSH1 0x1F NOT PUSH1 0x3F RETURNDATASIZE ADD AND DUP3 ADD PUSH1 0x40 MSTORE RETURNDATASIZE DUP3 MSTORE RETURNDATASIZE PUSH1 0x0 PUSH1 0x20 DUP5 ADD RETURNDATACOPY PUSH2 0x4378 JUMP JUMPDEST PUSH1 0x60 SWAP2 POP JUMPDEST POP SWAP2 POP SWAP2 POP PUSH1 0x0 DUP2 DUP1 PUSH1 0x20 ADD SWAP1 MLOAD DUP2 ADD SWAP1 PUSH2 0x4393 SWAP2 SWAP1 PUSH2 0x7CEA JUMP JUMPDEST SWAP1 POP DUP3 DUP1 ISZERO PUSH2 0x439F JUMPI POP DUP1 JUMPDEST SWAP5 POP POP POP POP POP SWAP3 SWAP2 POP POP JUMP JUMPDEST PUSH1 0x0 DUP1 PUSH1 0x0 DUP4 SWAP1 POP PUSH1 0x0 PUSH16 0xFFFFFFFFFFFFFFFFFFFFFFFFFFFFFFFF DUP3 AND SWAP1 POP PUSH1 0x0 PUSH1 0x80 DUP4 SWAP1 SHR SWAP1 POP PUSH2 0x43DF DUP3 PUSH1 0x0 SHL PUSH2 0x26ED JUMP JUMPDEST SWAP5 POP PUSH2 0x43ED DUP2 PUSH1 0x0 SHL PUSH2 0x26ED JUMP JUMPDEST SWAP4 POP POP POP POP SWAP2 POP SWAP2 JUMP JUMPDEST PUSH1 0x0 DUP2 PUSH1 0x0 SHL SWAP1 POP SWAP2 SWAP1 POP JUMP JUMPDEST PUSH1 0x0 PUSH2 0x4411 DUP5 PUSH1 0x6 PUSH2 0x6955 JUMP JUMPDEST SWAP1 POP PUSH1 0x0 PUSH32 0x183227397098D014DC2822DB40C0AC2E9419F4243CDCB848A1F0FAC9F8000000 SWAP1 POP PUSH1 0x0 PUSH2 0x4487 PUSH2 0x4481 PUSH2 0x444B DUP6 PUSH1 0x3 PUSH2 0x38B6 JUMP JUMPDEST PUSH2 0x447C PUSH2 0x446C PUSH2 0x445C DUP12 PUSH1 0x0 PUSH2 0x6955 JUMP JUMPDEST PUSH2 0x4467 DUP13 PUSH1 0x1C PUSH2 0x6955 JUMP JUMPDEST PUSH2 0x383E JUMP JUMPDEST PUSH2 0x4477 DUP12 PUSH1 0x1B PUSH2 0x6955 JUMP JUMPDEST PUSH2 0x383E JUMP JUMPDEST PUSH2 0x383E JUMP JUMPDEST DUP4 PUSH2 0x383E JUMP JUMPDEST SWAP1 POP PUSH2 0x4535 PUSH2 0x4525 PUSH2 0x4502 PUSH2 0x44DF PUSH2 0x44BC DUP6 PUSH2 0x44B7 PUSH2 0x44A7 DUP14 PUSH1 0x2 PUSH2 0x6955 JUMP JUMPDEST PUSH2 0x44B2 DUP15 PUSH1 0x1B PUSH2 0x6955 JUMP JUMPDEST PUSH2 0x383E JUMP JUMPDEST PUSH2 0x387A JUMP JUMPDEST PUSH2 0x44DA PUSH2 0x44CA DUP13 PUSH1 0x3 PUSH2 0x6955 JUMP JUMPDEST PUSH2 0x44D5 DUP14 PUSH1 0x1C PUSH2 0x6955 JUMP JUMPDEST PUSH2 0x383E JUMP JUMPDEST PUSH2 0x387A JUMP JUMPDEST PUSH2 0x44FD PUSH2 0x44ED DUP12 PUSH1 0x4 PUSH2 0x6955 JUMP JUMPDEST PUSH2 0x44F8 DUP13 PUSH1 0x1D PUSH2 0x6955 JUMP JUMPDEST PUSH2 0x383E JUMP JUMPDEST PUSH2 0x387A JUMP JUMPDEST PUSH2 0x4520 PUSH2 0x4510 DUP11 PUSH1 0x5 PUSH2 0x6955 JUMP JUMPDEST PUSH2 0x451B DUP12 PUSH1 0x1E PUSH2 0x6955 JUMP JUMPDEST PUSH2 0x383E JUMP JUMPDEST PUSH2 0x387A JUMP JUMPDEST PUSH2 0x4530 DUP9 PUSH1 0x1 PUSH2 0x6955 JUMP JUMPDEST PUSH2 0x387A JUMP JUMPDEST SWAP1 POP PUSH2 0x455E DUP2 PUSH2 0x4559 PUSH2 0x4549 DUP7 PUSH1 0x1 PUSH2 0x38B6 JUMP JUMPDEST PUSH2 0x4554 DUP11 PUSH1 0x2A PUSH2 0x6955 JUMP JUMPDEST PUSH2 0x383E JUMP JUMPDEST PUSH2 0x387A JUMP JUMPDEST SWAP1 POP PUSH2 0x456A DUP2 DUP5 PUSH2 0x383E JUMP JUMPDEST SWAP1 POP PUSH2 0x4576 DUP2 DUP6 PUSH2 0x383E JUMP JUMPDEST SWAP1 POP DUP1 DUP6 PUSH1 0x0 PUSH1 0x1A DUP2 LT PUSH2 0x458D JUMPI PUSH2 0x458C PUSH2 0x73F3 JUMP JUMPDEST JUMPDEST PUSH1 0x20 MUL ADD DUP2 DUP2 MSTORE POP POP POP POP PUSH1 0x0 PUSH2 0x45DE PUSH2 0x45CE PUSH2 0x45BE PUSH2 0x45AE DUP9 PUSH1 0x1B PUSH2 0x6955 JUMP JUMPDEST PUSH2 0x45B9 DUP10 PUSH1 0x1E PUSH2 0x6955 JUMP JUMPDEST PUSH2 0x387A JUMP JUMPDEST PUSH2 0x45C9 DUP9 PUSH1 0x27 PUSH2 0x6955 JUMP JUMPDEST PUSH2 0x38B6 JUMP JUMPDEST PUSH2 0x45D9 DUP8 PUSH1 0x0 PUSH2 0x6955 JUMP JUMPDEST PUSH2 0x387A JUMP JUMPDEST SWAP1 POP PUSH2 0x45F4 DUP2 PUSH2 0x45EF DUP5 PUSH1 0x2 PUSH2 0x38B6 JUMP JUMPDEST PUSH2 0x383E JUMP JUMPDEST SWAP1 POP PUSH2 0x460A DUP2 PUSH2 0x4605 DUP5 PUSH1 0x1 PUSH2 0x38B6 JUMP JUMPDEST PUSH2 0x383E JUMP JUMPDEST SWAP1 POP PUSH2 0x4616 DUP2 DUP4 PUSH2 0x383E JUMP JUMPDEST SWAP1 POP PUSH2 0x4622 DUP2 DUP5 PUSH2 0x383E JUMP JUMPDEST SWAP1 POP DUP1 DUP5 PUSH1 0x1 PUSH1 0x1A DUP2 LT PUSH2 0x4639 JUMPI PUSH2 0x4638 PUSH2 0x73F3 JUMP JUMPDEST JUMPDEST PUSH1 0x20 MUL ADD DUP2 DUP2 MSTORE POP POP POP POP POP POP POP JUMP JUMPDEST PUSH1 0x0 DUP1 PUSH1 0x0 PUSH2 0x4686 PUSH2 0x467C PUSH2 0x465F DUP10 PUSH1 0x1B PUSH2 0x6955 JUMP JUMPDEST PUSH2 0x4677 PUSH2 0x466D DUP12 PUSH1 0x11 PUSH2 0x6955 JUMP JUMPDEST DUP11 PUSH1 0x60 ADD MLOAD PUSH2 0x383E JUMP JUMPDEST PUSH2 0x387A JUMP JUMPDEST DUP8 PUSH1 0x80 ADD MLOAD PUSH2 0x387A JUMP JUMPDEST SWAP1 POP PUSH2 0x46C9 DUP2 PUSH2 0x46C4 PUSH2 0x46BA PUSH2 0x469D DUP12 PUSH1 0x1C PUSH2 0x6955 JUMP JUMPDEST PUSH2 0x46B5 PUSH2 0x46AB DUP14 PUSH1 0x12 PUSH2 0x6955 JUMP JUMPDEST DUP13 PUSH1 0x60 ADD MLOAD PUSH2 0x383E JUMP JUMPDEST PUSH2 0x387A JUMP JUMPDEST DUP10 PUSH1 0x80 ADD MLOAD PUSH2 0x387A JUMP JUMPDEST PUSH2 0x383E JUMP JUMPDEST SWAP1 POP PUSH2 0x470C DUP2 PUSH2 0x4707 PUSH2 0x46FD PUSH2 0x46E0 DUP12 PUSH1 0x1D PUSH2 0x6955 JUMP JUMPDEST PUSH2 0x46F8 PUSH2 0x46EE DUP14 PUSH1 0x13 PUSH2 0x6955 JUMP JUMPDEST DUP13 PUSH1 0x60 ADD MLOAD PUSH2 0x383E JUMP JUMPDEST PUSH2 0x387A JUMP JUMPDEST DUP10 PUSH1 0x80 ADD MLOAD PUSH2 0x387A JUMP JUMPDEST PUSH2 0x383E JUMP JUMPDEST SWAP1 POP PUSH2 0x474F DUP2 PUSH2 0x474A PUSH2 0x4740 PUSH2 0x4723 DUP12 PUSH1 0x1E PUSH2 0x6955 JUMP JUMPDEST PUSH2 0x473B PUSH2 0x4731 DUP14 PUSH1 0x14 PUSH2 0x6955 JUMP JUMPDEST DUP13 PUSH1 0x60 ADD MLOAD PUSH2 0x383E JUMP JUMPDEST PUSH2 0x387A JUMP JUMPDEST DUP10 PUSH1 0x80 ADD MLOAD PUSH2 0x387A JUMP JUMPDEST PUSH2 0x383E JUMP JUMPDEST SWAP1 POP DUP1 SWAP3 POP POP PUSH1 0x0 PUSH2 0x478F PUSH2 0x4785 PUSH2 0x4768 DUP10 PUSH1 0x1B PUSH2 0x6955 JUMP JUMPDEST PUSH2 0x4780 PUSH2 0x4776 DUP12 PUSH1 0xD PUSH2 0x6955 JUMP JUMPDEST DUP11 PUSH1 0x60 ADD MLOAD PUSH2 0x383E JUMP JUMPDEST PUSH2 0x387A JUMP JUMPDEST DUP8 PUSH1 0x80 ADD MLOAD PUSH2 0x387A JUMP JUMPDEST SWAP1 POP PUSH2 0x47D2 DUP2 PUSH2 0x47CD PUSH2 0x47C3 PUSH2 0x47A6 DUP12 PUSH1 0x1C PUSH2 0x6955 JUMP JUMPDEST PUSH2 0x47BE PUSH2 0x47B4 DUP14 PUSH1 0xE PUSH2 0x6955 JUMP JUMPDEST DUP13 PUSH1 0x60 ADD MLOAD PUSH2 0x383E JUMP JUMPDEST PUSH2 0x387A JUMP JUMPDEST DUP10 PUSH1 0x80 ADD MLOAD PUSH2 0x387A JUMP JUMPDEST PUSH2 0x383E JUMP JUMPDEST SWAP1 POP PUSH2 0x4815 DUP2 PUSH2 0x4810 PUSH2 0x4806 PUSH2 0x47E9 DUP12 PUSH1 0x1D PUSH2 0x6955 JUMP JUMPDEST PUSH2 0x4801 PUSH2 0x47F7 DUP14 PUSH1 0xF PUSH2 0x6955 JUMP JUMPDEST DUP13 PUSH1 0x60 ADD MLOAD PUSH2 0x383E JUMP JUMPDEST PUSH2 0x387A JUMP JUMPDEST DUP10 PUSH1 0x80 ADD MLOAD PUSH2 0x387A JUMP JUMPDEST PUSH2 0x383E JUMP JUMPDEST SWAP1 POP PUSH2 0x4858 DUP2 PUSH2 0x4853 PUSH2 0x4849 PUSH2 0x482C DUP12 PUSH1 0x1E PUSH2 0x6955 JUMP JUMPDEST PUSH2 0x4844 PUSH2 0x483A DUP14 PUSH1 0x10 PUSH2 0x6955 JUMP JUMPDEST DUP13 PUSH1 0x60 ADD MLOAD PUSH2 0x383E JUMP JUMPDEST PUSH2 0x387A JUMP JUMPDEST DUP10 PUSH1 0x80 ADD MLOAD PUSH2 0x387A JUMP JUMPDEST PUSH2 0x383E JUMP JUMPDEST SWAP1 POP DUP1 SWAP2 POP POP PUSH1 0x0 PUSH2 0x4887 PUSH2 0x4881 PUSH2 0x4871 DUP10 PUSH1 0x1F PUSH2 0x6955 JUMP JUMPDEST PUSH2 0x487C DUP11 PUSH1 0x19 PUSH2 0x6955 JUMP JUMPDEST PUSH2 0x387A JUMP JUMPDEST DUP5 PUSH2 0x383E JUMP JUMPDEST SWAP1 POP PUSH2 0x48C7 DUP2 PUSH2 0x48C2 PUSH2 0x48BC PUSH2 0x489E DUP12 PUSH1 0x2B PUSH2 0x6955 JUMP JUMPDEST PUSH2 0x48B7 PUSH2 0x48AC DUP14 PUSH1 0x1A PUSH2 0x6955 JUMP JUMPDEST DUP13 PUSH2 0x180 ADD MLOAD PUSH2 0x383E JUMP JUMPDEST PUSH2 0x387A JUMP JUMPDEST DUP6 PUSH2 0x383E JUMP JUMPDEST PUSH2 0x38B6 JUMP JUMPDEST SWAP1 POP PUSH2 0x48D3 DUP2 DUP6 PUSH2 0x383E JUMP JUMPDEST SWAP1 POP DUP1 DUP6 PUSH1 0x2 PUSH1 0x1A DUP2 LT PUSH2 0x48EA JUMPI PUSH2 0x48E9 PUSH2 0x73F3 JUMP JUMPDEST JUMPDEST PUSH1 0x20 MUL ADD DUP2 DUP2 MSTORE POP POP POP PUSH1 0x0 PUSH2 0x491D PUSH2 0x4917 PUSH2 0x4907 DUP10 PUSH1 0x1A PUSH2 0x6955 JUMP JUMPDEST PUSH2 0x4912 DUP11 PUSH1 0x2B PUSH2 0x6955 JUMP JUMPDEST PUSH2 0x383E JUMP JUMPDEST DUP6 PUSH2 0x383E JUMP JUMPDEST SWAP1 POP DUP1 DUP6 PUSH1 0x3 PUSH1 0x1A DUP2 LT PUSH2 0x4934 JUMPI PUSH2 0x4933 PUSH2 0x73F3 JUMP JUMPDEST JUMPDEST PUSH1 0x20 MUL ADD DUP2 DUP2 MSTORE POP POP POP POP POP POP POP POP POP JUMP JUMPDEST PUSH1 0x0 DUP1 PUSH2 0x49C1 PUSH2 0x49A4 PUSH2 0x4987 PUSH2 0x496A PUSH2 0x4960 DUP11 PUSH1 0x15 PUSH2 0x6955 JUMP JUMPDEST DUP10 PUSH1 0x80 ADD MLOAD PUSH2 0x387A JUMP JUMPDEST PUSH2 0x4982 PUSH2 0x4978 DUP12 PUSH1 0x16 PUSH2 0x6955 JUMP JUMPDEST DUP11 PUSH1 0x0 ADD MLOAD PUSH2 0x383E JUMP JUMPDEST PUSH2 0x387A JUMP JUMPDEST PUSH2 0x499F PUSH2 0x4995 DUP11 PUSH1 0x17 PUSH2 0x6955 JUMP JUMPDEST DUP10 PUSH1 0x20 ADD MLOAD PUSH2 0x383E JUMP JUMPDEST PUSH2 0x387A JUMP JUMPDEST PUSH2 0x49BC PUSH2 0x49B2 DUP10 PUSH1 0x18 PUSH2 0x6955 JUMP JUMPDEST DUP9 PUSH1 0x40 ADD MLOAD PUSH2 0x383E JUMP JUMPDEST PUSH2 0x387A JUMP JUMPDEST SWAP2 POP PUSH1 0x0 PUSH2 0x4A03 PUSH2 0x49E0 PUSH2 0x49D6 DUP10 PUSH1 0x1B PUSH2 0x6955 JUMP JUMPDEST DUP9 PUSH1 0x80 ADD MLOAD PUSH2 0x387A JUMP JUMPDEST PUSH2 0x49FE PUSH2 0x49EE DUP11 PUSH1 0x3 PUSH2 0x6955 JUMP JUMPDEST PUSH2 0x49F9 DUP12 PUSH1 0x27 PUSH2 0x6955 JUMP JUMPDEST PUSH2 0x383E JUMP JUMPDEST PUSH2 0x387A JUMP JUMPDEST SWAP1 POP PUSH1 0x0 PUSH2 0x4A38 PUSH2 0x4A15 DUP10 PUSH1 0x1C PUSH2 0x6955 JUMP JUMPDEST PUSH2 0x4A33 PUSH2 0x4A23 DUP12 PUSH1 0x0 PUSH2 0x6955 JUMP JUMPDEST PUSH2 0x4A2E DUP13 PUSH1 0x28 PUSH2 0x6955 JUMP JUMPDEST PUSH2 0x383E JUMP JUMPDEST PUSH2 0x387A JUMP JUMPDEST SWAP1 POP PUSH1 0x0 PUSH2 0x4A6D PUSH2 0x4A4A DUP11 PUSH1 0x1D PUSH2 0x6955 JUMP JUMPDEST PUSH2 0x4A68 PUSH2 0x4A58 DUP13 PUSH1 0x1 PUSH2 0x6955 JUMP JUMPDEST PUSH2 0x4A63 DUP14 PUSH1 0x29 PUSH2 0x6955 JUMP JUMPDEST PUSH2 0x383E JUMP JUMPDEST PUSH2 0x387A JUMP JUMPDEST SWAP1 POP PUSH2 0x4ABC PUSH2 0x4A9F PUSH2 0x4A8C DUP6 PUSH2 0x4A87 DUP7 DUP14 PUSH1 0x0 ADD MLOAD PUSH2 0x383E JUMP JUMPDEST PUSH2 0x387A JUMP JUMPDEST PUSH2 0x4A9A DUP5 DUP13 PUSH1 0x20 ADD MLOAD PUSH2 0x383E JUMP JUMPDEST PUSH2 0x387A JUMP JUMPDEST PUSH2 0x4AB7 PUSH2 0x4AAD DUP13 PUSH1 0x4 PUSH2 0x6955 JUMP JUMPDEST DUP12 PUSH1 0x40 ADD MLOAD PUSH2 0x383E JUMP JUMPDEST PUSH2 0x387A JUMP JUMPDEST SWAP4 POP POP POP POP PUSH1 0x0 PUSH2 0x4AD7 PUSH2 0x4AD1 DUP9 PUSH1 0x20 PUSH2 0x6955 JUMP JUMPDEST DUP5 PUSH2 0x383E JUMP JUMPDEST SWAP1 POP PUSH1 0x0 PUSH2 0x4AEF PUSH2 0x4AE9 DUP10 PUSH1 0x20 PUSH2 0x6955 JUMP JUMPDEST DUP5 PUSH2 0x383E JUMP JUMPDEST SWAP1 POP PUSH1 0x0 PUSH2 0x4B37 PUSH2 0x4B14 PUSH2 0x4B04 DUP12 PUSH1 0x22 PUSH2 0x6955 JUMP JUMPDEST PUSH2 0x4B0F DUP13 PUSH1 0xA PUSH2 0x6955 JUMP JUMPDEST PUSH2 0x387A JUMP JUMPDEST PUSH2 0x4B32 PUSH2 0x4B22 DUP13 PUSH1 0x22 PUSH2 0x6955 JUMP JUMPDEST PUSH2 0x4B2D DUP14 PUSH1 0xA PUSH2 0x6955 JUMP JUMPDEST PUSH2 0x383E JUMP JUMPDEST PUSH2 0x38B6 JUMP JUMPDEST SWAP1 POP PUSH1 0x0 PUSH2 0x4B61 PUSH2 0x4B5B PUSH2 0x4B4B DUP8 DUP10 PUSH2 0x383E JUMP JUMPDEST PUSH2 0x4B56 DUP14 PUSH1 0x20 PUSH2 0x6955 JUMP JUMPDEST PUSH2 0x383E JUMP JUMPDEST DUP4 PUSH2 0x38B6 JUMP JUMPDEST SWAP1 POP PUSH2 0x4B6D DUP2 DUP9 PUSH2 0x383E JUMP JUMPDEST SWAP1 POP PUSH1 0x0 PUSH2 0x4BA1 PUSH2 0x4B88 PUSH2 0x4B82 DUP14 PUSH1 0xA PUSH2 0x6955 JUMP JUMPDEST DUP8 PUSH2 0x383E JUMP JUMPDEST PUSH2 0x4B9C PUSH2 0x4B96 DUP15 PUSH1 0x21 PUSH2 0x6955 JUMP JUMPDEST DUP8 PUSH2 0x383E JUMP JUMPDEST PUSH2 0x38B6 JUMP JUMPDEST SWAP1 POP DUP2 DUP10 PUSH1 0x4 PUSH1 0x1A DUP2 LT PUSH2 0x4BB8 JUMPI PUSH2 0x4BB7 PUSH2 0x73F3 JUMP JUMPDEST JUMPDEST PUSH1 0x20 MUL ADD DUP2 DUP2 MSTORE POP POP DUP1 DUP10 PUSH1 0x5 PUSH1 0x1A DUP2 LT PUSH2 0x4BD6 JUMPI PUSH2 0x4BD5 PUSH2 0x73F3 JUMP JUMPDEST JUMPDEST PUSH1 0x20 MUL ADD DUP2 DUP2 MSTORE POP POP POP POP POP POP POP POP POP POP POP POP POP JUMP JUMPDEST PUSH1 0x0 PUSH2 0x4BFA PUSH1 0x0 PUSH1 0x1 PUSH2 0x38B6 JUMP JUMPDEST SWAP1 POP PUSH1 0x0 PUSH2 0x4C0A PUSH1 0x0 PUSH1 0x2 PUSH2 0x38B6 JUMP JUMPDEST SWAP1 POP PUSH1 0x0 PUSH2 0x4C1A PUSH1 0x0 PUSH1 0x3 PUSH2 0x38B6 JUMP JUMPDEST SWAP1 POP PUSH1 0x0 PUSH2 0x4C3C PUSH2 0x4C2C DUP9 PUSH1 0x1C PUSH2 0x6955 JUMP JUMPDEST PUSH2 0x4C37 DUP10 PUSH1 0x1B PUSH2 0x6955 JUMP JUMPDEST PUSH2 0x38B6 JUMP JUMPDEST SWAP1 POP PUSH1 0x0 PUSH2 0x4C5E PUSH2 0x4C4E DUP10 PUSH1 0x1D PUSH2 0x6955 JUMP JUMPDEST PUSH2 0x4C59 DUP11 PUSH1 0x1C PUSH2 0x6955 JUMP JUMPDEST PUSH2 0x38B6 JUMP JUMPDEST SWAP1 POP PUSH1 0x0 PUSH2 0x4C80 PUSH2 0x4C70 DUP11 PUSH1 0x1E PUSH2 0x6955 JUMP JUMPDEST PUSH2 0x4C7B DUP12 PUSH1 0x1D PUSH2 0x6955 JUMP JUMPDEST PUSH2 0x38B6 JUMP JUMPDEST SWAP1 POP PUSH1 0x0 PUSH2 0x4CA2 PUSH2 0x4C92 DUP12 PUSH1 0x27 PUSH2 0x6955 JUMP JUMPDEST PUSH2 0x4C9D DUP13 PUSH1 0x1E PUSH2 0x6955 JUMP JUMPDEST PUSH2 0x38B6 JUMP JUMPDEST SWAP1 POP PUSH1 0x0 DUP5 SWAP1 POP PUSH2 0x4CBC DUP2 PUSH2 0x4CB7 DUP8 DUP12 PUSH2 0x387A JUMP JUMPDEST PUSH2 0x383E JUMP JUMPDEST SWAP1 POP PUSH2 0x4CD1 DUP2 PUSH2 0x4CCC DUP8 DUP11 PUSH2 0x387A JUMP JUMPDEST PUSH2 0x383E JUMP JUMPDEST SWAP1 POP PUSH2 0x4CE6 DUP2 PUSH2 0x4CE1 DUP8 DUP10 PUSH2 0x387A JUMP JUMPDEST PUSH2 0x383E JUMP JUMPDEST SWAP1 POP PUSH2 0x4CFC DUP2 PUSH2 0x4CF7 DUP14 PUSH1 0x7 PUSH2 0x6955 JUMP JUMPDEST PUSH2 0x383E JUMP JUMPDEST SWAP1 POP PUSH2 0x4D08 DUP2 DUP11 PUSH2 0x383E JUMP JUMPDEST SWAP1 POP DUP1 DUP11 PUSH1 0x6 PUSH1 0x1A DUP2 LT PUSH2 0x4D1F JUMPI PUSH2 0x4D1E PUSH2 0x73F3 JUMP JUMPDEST JUMPDEST PUSH1 0x20 MUL ADD DUP2 DUP2 MSTORE POP POP POP PUSH1 0x0 DUP4 SWAP1 POP PUSH2 0x4D41 DUP2 PUSH2 0x4D3C DUP7 DUP12 PUSH2 0x387A JUMP JUMPDEST PUSH2 0x383E JUMP JUMPDEST SWAP1 POP PUSH2 0x4D56 DUP2 PUSH2 0x4D51 DUP7 DUP11 PUSH2 0x387A JUMP JUMPDEST PUSH2 0x383E JUMP JUMPDEST SWAP1 POP PUSH2 0x4D6B DUP2 PUSH2 0x4D66 DUP7 DUP10 PUSH2 0x387A JUMP JUMPDEST PUSH2 0x383E JUMP JUMPDEST SWAP1 POP PUSH2 0x4D81 DUP2 PUSH2 0x4D7C DUP14 PUSH1 0x7 PUSH2 0x6955 JUMP JUMPDEST PUSH2 0x383E JUMP JUMPDEST SWAP1 POP PUSH2 0x4D8D DUP2 DUP11 PUSH2 0x383E JUMP JUMPDEST SWAP1 POP DUP1 DUP11 PUSH1 0x7 PUSH1 0x1A DUP2 LT PUSH2 0x4DA4 JUMPI PUSH2 0x4DA3 PUSH2 0x73F3 JUMP JUMPDEST JUMPDEST PUSH1 0x20 MUL ADD DUP2 DUP2 MSTORE POP POP POP PUSH1 0x0 DUP3 SWAP1 POP PUSH2 0x4DC6 DUP2 PUSH2 0x4DC1 DUP6 DUP12 PUSH2 0x387A JUMP JUMPDEST PUSH2 0x383E JUMP JUMPDEST SWAP1 POP PUSH2 0x4DDB DUP2 PUSH2 0x4DD6 DUP6 DUP11 PUSH2 0x387A JUMP JUMPDEST PUSH2 0x383E JUMP JUMPDEST SWAP1 POP PUSH2 0x4DF0 DUP2 PUSH2 0x4DEB DUP6 DUP10 PUSH2 0x387A JUMP JUMPDEST PUSH2 0x383E JUMP JUMPDEST SWAP1 POP PUSH2 0x4E06 DUP2 PUSH2 0x4E01 DUP14 PUSH1 0x7 PUSH2 0x6955 JUMP JUMPDEST PUSH2 0x383E JUMP JUMPDEST SWAP1 POP PUSH2 0x4E12 DUP2 DUP11 PUSH2 0x383E JUMP JUMPDEST SWAP1 POP DUP1 DUP11 PUSH1 0x8 PUSH1 0x1A DUP2 LT PUSH2 0x4E29 JUMPI PUSH2 0x4E28 PUSH2 0x73F3 JUMP JUMPDEST JUMPDEST PUSH1 0x20 MUL ADD DUP2 DUP2 MSTORE POP POP POP PUSH1 0x0 DUP2 SWAP1 POP PUSH2 0x4E4B DUP2 PUSH2 0x4E46 DUP5 DUP12 PUSH2 0x387A JUMP JUMPDEST PUSH2 0x383E JUMP JUMPDEST SWAP1 POP PUSH2 0x4E60 DUP2 PUSH2 0x4E5B DUP5 DUP11 PUSH2 0x387A JUMP JUMPDEST PUSH2 0x383E JUMP JUMPDEST SWAP1 POP PUSH2 0x4E75 DUP2 PUSH2 0x4E70 DUP5 DUP10 PUSH2 0x387A JUMP JUMPDEST PUSH2 0x383E JUMP JUMPDEST SWAP1 POP PUSH2 0x4E8B DUP2 PUSH2 0x4E86 DUP14 PUSH1 0x7 PUSH2 0x6955 JUMP JUMPDEST PUSH2 0x383E JUMP JUMPDEST SWAP1 POP PUSH2 0x4E97 DUP2 DUP11 PUSH2 0x383E JUMP JUMPDEST SWAP1 POP DUP1 DUP11 PUSH1 0x9 PUSH1 0x1A DUP2 LT PUSH2 0x4EAE JUMPI PUSH2 0x4EAD PUSH2 0x73F3 JUMP JUMPDEST JUMPDEST PUSH1 0x20 MUL ADD DUP2 DUP2 MSTORE POP POP POP POP POP POP POP POP POP POP POP POP POP JUMP JUMPDEST PUSH2 0x4ECC PUSH2 0x6E99 JUMP JUMPDEST PUSH2 0x4ED7 DUP5 PUSH1 0x1C PUSH2 0x6955 JUMP JUMPDEST DUP2 PUSH1 0x0 ADD DUP2 DUP2 MSTORE POP POP PUSH2 0x4EEB DUP5 PUSH1 0x1D PUSH2 0x6955 JUMP JUMPDEST DUP2 PUSH1 0x20 ADD DUP2 DUP2 MSTORE POP POP PUSH2 0x4EFF DUP5 PUSH1 0x27 PUSH2 0x6955 JUMP JUMPDEST DUP2 PUSH1 0x40 ADD DUP2 DUP2 MSTORE POP POP PUSH2 0x4F13 DUP5 PUSH1 0x2A PUSH2 0x6955 JUMP JUMPDEST DUP2 PUSH1 0x60 ADD DUP2 DUP2 MSTORE POP POP PUSH2 0x4F27 DUP5 PUSH1 0x29 PUSH2 0x6955 JUMP JUMPDEST DUP2 PUSH1 0x80 ADD DUP2 DUP2 MSTORE POP POP PUSH2 0x4F3B DUP5 PUSH1 0x28 PUSH2 0x6955 JUMP JUMPDEST DUP2 PUSH1 0xA0 ADD DUP2 DUP2 MSTORE POP POP PUSH1 0x0 PUSH2 0x4F51 DUP6 PUSH1 0x2 PUSH2 0x6955 JUMP JUMPDEST SWAP1 POP PUSH1 0x0 PUSH2 0x4F60 DUP7 PUSH1 0x0 PUSH2 0x6955 JUMP JUMPDEST SWAP1 POP PUSH1 0x0 PUSH2 0x4F76 DUP5 PUSH1 0x40 ADD MLOAD DUP6 PUSH1 0x0 ADD MLOAD PUSH2 0x38B6 JUMP JUMPDEST SWAP1 POP PUSH1 0x0 PUSH2 0x4F8C DUP6 PUSH1 0x20 ADD MLOAD DUP7 PUSH1 0x20 ADD MLOAD PUSH2 0x383E JUMP JUMPDEST SWAP1 POP PUSH1 0x0 DUP7 SWAP1 POP PUSH1 0x0 PUSH2 0x4FA7 DUP8 PUSH1 0x60 ADD MLOAD DUP9 PUSH1 0x60 ADD MLOAD PUSH2 0x383E JUMP JUMPDEST SWAP1 POP PUSH1 0x0 PUSH2 0x4FC6 PUSH2 0x4FC0 DUP10 PUSH1 0x20 ADD MLOAD DUP11 PUSH1 0x60 ADD MLOAD PUSH2 0x383E JUMP JUMPDEST DUP9 PUSH2 0x383E JUMP JUMPDEST SWAP1 POP PUSH1 0x0 PUSH2 0x4FE9 PUSH2 0x4FDF DUP11 PUSH1 0xA0 ADD MLOAD DUP12 PUSH1 0x40 ADD MLOAD PUSH2 0x387A JUMP JUMPDEST DUP11 PUSH1 0x0 ADD MLOAD PUSH2 0x387A JUMP JUMPDEST SWAP1 POP PUSH2 0x4FFE PUSH2 0x4FF8 DUP3 DUP9 PUSH2 0x383E JUMP JUMPDEST DUP8 PUSH2 0x383E JUMP JUMPDEST SWAP1 POP PUSH2 0x5025 PUSH2 0x501F PUSH2 0x5019 PUSH2 0x5013 DUP5 DUP8 PUSH2 0x38B6 JUMP JUMPDEST DUP9 PUSH2 0x38B6 JUMP JUMPDEST DUP5 PUSH2 0x387A JUMP JUMPDEST DUP4 PUSH2 0x387A JUMP JUMPDEST SWAP1 POP PUSH2 0x5057 PUSH2 0x5047 PUSH2 0x5037 DUP4 DUP8 PUSH2 0x383E JUMP JUMPDEST PUSH2 0x5042 DUP16 PUSH1 0x8 PUSH2 0x6955 JUMP JUMPDEST PUSH2 0x383E JUMP JUMPDEST PUSH2 0x5052 PUSH1 0x1 DUP11 PUSH2 0x38B6 JUMP JUMPDEST PUSH2 0x383E JUMP JUMPDEST DUP12 PUSH1 0xA PUSH1 0x1A DUP2 LT PUSH2 0x506B JUMPI PUSH2 0x506A PUSH2 0x73F3 JUMP JUMPDEST JUMPDEST PUSH1 0x20 MUL ADD DUP2 DUP2 MSTORE POP POP POP POP POP POP PUSH1 0x0 PUSH2 0x508C DUP7 PUSH1 0x20 ADD MLOAD DUP8 PUSH1 0x80 ADD MLOAD PUSH2 0x387A JUMP JUMPDEST SWAP1 POP PUSH1 0x0 PUSH2 0x50AB PUSH2 0x50A1 DUP9 PUSH1 0x60 ADD MLOAD DUP9 PUSH2 0x383E JUMP JUMPDEST DUP9 PUSH1 0x20 ADD MLOAD PUSH2 0x38B6 JUMP JUMPDEST SWAP1 POP PUSH1 0x0 PUSH2 0x50DC PUSH2 0x50BC DUP5 DUP8 PUSH2 0x383E JUMP JUMPDEST PUSH2 0x50D7 PUSH2 0x50D1 DUP12 PUSH1 0xA0 ADD MLOAD DUP13 PUSH1 0x0 ADD MLOAD PUSH2 0x38B6 JUMP JUMPDEST DUP6 PUSH2 0x383E JUMP JUMPDEST PUSH2 0x387A JUMP JUMPDEST SWAP1 POP PUSH2 0x510E PUSH2 0x50FE PUSH2 0x50EE DUP4 DUP13 PUSH2 0x383E JUMP JUMPDEST PUSH2 0x50F9 DUP15 PUSH1 0x8 PUSH2 0x6955 JUMP JUMPDEST PUSH2 0x383E JUMP JUMPDEST PUSH2 0x5109 PUSH1 0x1 DUP10 PUSH2 0x38B6 JUMP JUMPDEST PUSH2 0x383E JUMP JUMPDEST DUP11 PUSH1 0xB PUSH1 0x1A DUP2 LT PUSH2 0x5122 JUMPI PUSH2 0x5121 PUSH2 0x73F3 JUMP JUMPDEST JUMPDEST PUSH1 0x20 MUL ADD DUP2 DUP2 MSTORE POP POP POP POP POP PUSH1 0x0 PUSH2 0x5148 PUSH2 0x513E DUP4 PUSH1 0x11 PUSH2 0x387A JUMP JUMPDEST DUP8 PUSH1 0x0 ADD MLOAD PUSH2 0x383E JUMP JUMPDEST SWAP1 POP PUSH1 0x0 PUSH2 0x5156 DUP4 DUP5 PUSH2 0x387A JUMP JUMPDEST SWAP1 POP PUSH2 0x5162 DUP2 DUP3 PUSH2 0x387A JUMP JUMPDEST SWAP1 POP PUSH1 0x0 PUSH2 0x5171 DUP4 PUSH1 0x9 PUSH2 0x383E JUMP JUMPDEST SWAP1 POP PUSH2 0x51A4 PUSH2 0x519E PUSH2 0x5198 PUSH2 0x518E DUP12 PUSH1 0xA0 ADD MLOAD DUP13 PUSH1 0x0 ADD MLOAD PUSH2 0x387A JUMP JUMPDEST DUP12 PUSH1 0x0 ADD MLOAD PUSH2 0x387A JUMP JUMPDEST DUP5 PUSH2 0x383E JUMP JUMPDEST DUP3 PUSH2 0x38B6 JUMP JUMPDEST DUP9 PUSH1 0xC0 ADD DUP2 DUP2 MSTORE POP POP PUSH1 0x0 PUSH2 0x51D9 PUSH2 0x51D3 PUSH2 0x51C3 DUP12 PUSH1 0xC0 ADD MLOAD DUP14 PUSH2 0x383E JUMP JUMPDEST PUSH2 0x51CE DUP16 PUSH1 0x8 PUSH2 0x6955 JUMP JUMPDEST PUSH2 0x383E JUMP JUMPDEST DUP9 PUSH2 0x383E JUMP JUMPDEST SWAP1 POP PUSH2 0x51FD DUP12 PUSH1 0xA PUSH1 0x1A DUP2 LT PUSH2 0x51F2 JUMPI PUSH2 0x51F1 PUSH2 0x73F3 JUMP JUMPDEST JUMPDEST PUSH1 0x20 MUL ADD MLOAD DUP3 PUSH2 0x387A JUMP JUMPDEST DUP12 PUSH1 0xA PUSH1 0x1A DUP2 LT PUSH2 0x5211 JUMPI PUSH2 0x5210 PUSH2 0x73F3 JUMP JUMPDEST JUMPDEST PUSH1 0x20 MUL ADD DUP2 DUP2 MSTORE POP POP POP POP POP POP PUSH1 0x0 PUSH2 0x524C PUSH2 0x5242 PUSH2 0x5238 DUP9 PUSH1 0x0 ADD MLOAD DUP10 PUSH1 0x0 ADD MLOAD PUSH2 0x387A JUMP JUMPDEST DUP9 PUSH1 0x0 ADD MLOAD PUSH2 0x387A JUMP JUMPDEST DUP8 PUSH1 0x0 ADD MLOAD PUSH2 0x383E JUMP JUMPDEST SWAP1 POP PUSH1 0x0 PUSH2 0x529F PUSH2 0x526E DUP4 PUSH2 0x5269 DUP11 PUSH1 0x0 ADD MLOAD DUP12 PUSH1 0xA0 ADD MLOAD PUSH2 0x38B6 JUMP JUMPDEST PUSH2 0x383E JUMP JUMPDEST PUSH2 0x529A PUSH2 0x5283 DUP11 PUSH1 0x20 ADD MLOAD DUP12 PUSH1 0x20 ADD MLOAD PUSH2 0x387A JUMP JUMPDEST PUSH2 0x5295 DUP12 PUSH1 0x20 ADD MLOAD DUP13 PUSH1 0x80 ADD MLOAD PUSH2 0x387A JUMP JUMPDEST PUSH2 0x383E JUMP JUMPDEST PUSH2 0x38B6 JUMP JUMPDEST SWAP1 POP PUSH2 0x52E8 DUP10 PUSH1 0xB PUSH1 0x1A DUP2 LT PUSH2 0x52B8 JUMPI PUSH2 0x52B7 PUSH2 0x73F3 JUMP JUMPDEST JUMPDEST PUSH1 0x20 MUL ADD MLOAD PUSH2 0x52E3 PUSH2 0x52DD PUSH2 0x52CD DUP6 DUP14 PUSH2 0x383E JUMP JUMPDEST PUSH2 0x52D8 DUP16 PUSH1 0x8 PUSH2 0x6955 JUMP JUMPDEST PUSH2 0x383E JUMP JUMPDEST DUP9 PUSH2 0x383E JUMP JUMPDEST PUSH2 0x387A JUMP JUMPDEST DUP10 PUSH1 0xB PUSH1 0x1A DUP2 LT PUSH2 0x52FC JUMPI PUSH2 0x52FB PUSH2 0x73F3 JUMP JUMPDEST JUMPDEST PUSH1 0x20 MUL ADD DUP2 DUP2 MSTORE POP POP POP POP POP POP POP POP POP POP POP POP JUMP JUMPDEST PUSH2 0x5319 PUSH2 0x6ED6 JUMP JUMPDEST PUSH2 0x535D PUSH2 0x533A PUSH2 0x532A DUP8 PUSH1 0x1B PUSH2 0x6955 JUMP JUMPDEST PUSH2 0x5335 DUP9 PUSH1 0x28 PUSH2 0x6955 JUMP JUMPDEST PUSH2 0x383E JUMP JUMPDEST PUSH2 0x5358 PUSH2 0x5348 DUP9 PUSH1 0x27 PUSH2 0x6955 JUMP JUMPDEST PUSH2 0x5353 DUP10 PUSH1 0x1C PUSH2 0x6955 JUMP JUMPDEST PUSH2 0x383E JUMP JUMPDEST PUSH2 0x387A JUMP JUMPDEST DUP2 PUSH1 0x0 ADD DUP2 DUP2 MSTORE POP POP PUSH2 0x53BD PUSH2 0x53AD PUSH2 0x538A PUSH2 0x537A DUP9 PUSH1 0x1B PUSH2 0x6955 JUMP JUMPDEST PUSH2 0x5385 DUP10 PUSH1 0x1E PUSH2 0x6955 JUMP JUMPDEST PUSH2 0x383E JUMP JUMPDEST PUSH2 0x53A8 PUSH2 0x5398 DUP10 PUSH1 0x1C PUSH2 0x6955 JUMP JUMPDEST PUSH2 0x53A3 DUP11 PUSH1 0x1D PUSH2 0x6955 JUMP JUMPDEST PUSH2 0x383E JUMP JUMPDEST PUSH2 0x387A JUMP JUMPDEST PUSH2 0x53B8 DUP8 PUSH1 0x29 PUSH2 0x6955 JUMP JUMPDEST PUSH2 0x38B6 JUMP JUMPDEST DUP2 PUSH1 0x40 ADD DUP2 DUP2 MSTORE POP POP PUSH2 0x53D9 DUP2 PUSH1 0x40 ADD MLOAD PUSH1 0x44 PUSH1 0x1 SWAP1 SHL PUSH2 0x383E JUMP JUMPDEST DUP2 PUSH1 0x40 ADD DUP2 DUP2 MSTORE POP POP PUSH2 0x53FA DUP2 PUSH1 0x40 ADD MLOAD PUSH2 0x53F5 DUP8 PUSH1 0x2A PUSH2 0x6955 JUMP JUMPDEST PUSH2 0x38B6 JUMP JUMPDEST DUP2 PUSH1 0x40 ADD DUP2 DUP2 MSTORE POP POP PUSH2 0x5415 DUP2 PUSH1 0x40 ADD MLOAD DUP3 PUSH1 0x0 ADD MLOAD PUSH2 0x387A JUMP JUMPDEST DUP2 PUSH1 0x40 ADD DUP2 DUP2 MSTORE POP POP PUSH2 0x5436 DUP2 PUSH1 0x40 ADD MLOAD PUSH2 0x5431 DUP8 PUSH1 0x5 PUSH2 0x6955 JUMP JUMPDEST PUSH2 0x383E JUMP JUMPDEST DUP2 PUSH1 0x40 ADD DUP2 DUP2 MSTORE POP POP PUSH2 0x5452 DUP2 PUSH1 0x0 ADD MLOAD PUSH1 0x44 PUSH1 0x1 SWAP1 SHL PUSH2 0x383E JUMP JUMPDEST DUP2 PUSH1 0x0 ADD DUP2 DUP2 MSTORE POP POP PUSH2 0x5486 DUP2 PUSH1 0x0 ADD MLOAD PUSH2 0x5481 PUSH2 0x5471 DUP9 PUSH1 0x27 PUSH2 0x6955 JUMP JUMPDEST PUSH2 0x547C DUP10 PUSH1 0x28 PUSH2 0x6955 JUMP JUMPDEST PUSH2 0x383E JUMP JUMPDEST PUSH2 0x387A JUMP JUMPDEST DUP2 PUSH1 0x0 ADD DUP2 DUP2 MSTORE POP POP DUP1 PUSH1 0x0 ADD MLOAD DUP2 PUSH1 0x20 ADD DUP2 DUP2 MSTORE POP POP PUSH2 0x54C8 DUP2 PUSH1 0x20 ADD MLOAD PUSH2 0x54C3 PUSH2 0x54B3 DUP9 PUSH1 0x1D PUSH2 0x6955 JUMP JUMPDEST PUSH2 0x54BE DUP10 PUSH1 0x1E PUSH2 0x6955 JUMP JUMPDEST PUSH2 0x387A JUMP JUMPDEST PUSH2 0x38B6 JUMP JUMPDEST DUP2 PUSH1 0x20 ADD DUP2 DUP2 MSTORE POP POP PUSH2 0x54E9 DUP2 PUSH1 0x20 ADD MLOAD PUSH2 0x54E4 DUP8 PUSH1 0x4 PUSH2 0x6955 JUMP JUMPDEST PUSH2 0x383E JUMP JUMPDEST DUP2 PUSH1 0x20 ADD DUP2 DUP2 MSTORE POP POP DUP1 PUSH1 0x0 ADD MLOAD DUP2 PUSH1 0x60 ADD DUP2 DUP2 MSTORE POP POP PUSH2 0x5518 DUP2 PUSH1 0x60 ADD MLOAD PUSH2 0x5513 DUP8 PUSH1 0x1E PUSH2 0x6955 JUMP JUMPDEST PUSH2 0x387A JUMP JUMPDEST DUP2 PUSH1 0x60 ADD DUP2 DUP2 MSTORE POP POP PUSH2 0x554C DUP2 PUSH1 0x60 ADD MLOAD PUSH2 0x5547 PUSH2 0x5537 DUP9 PUSH1 0x29 PUSH2 0x6955 JUMP JUMPDEST PUSH2 0x5542 DUP10 PUSH1 0x2A PUSH2 0x6955 JUMP JUMPDEST PUSH2 0x387A JUMP JUMPDEST PUSH2 0x38B6 JUMP JUMPDEST DUP2 PUSH1 0x60 ADD DUP2 DUP2 MSTORE POP POP PUSH2 0x556D DUP2 PUSH1 0x60 ADD MLOAD PUSH2 0x5568 DUP8 PUSH1 0x0 PUSH2 0x6955 JUMP JUMPDEST PUSH2 0x383E JUMP JUMPDEST DUP2 PUSH1 0x60 ADD DUP2 DUP2 MSTORE POP POP PUSH1 0x0 PUSH2 0x5597 PUSH2 0x558D DUP4 PUSH1 0x20 ADD MLOAD DUP5 PUSH1 0x40 ADD MLOAD PUSH2 0x387A JUMP JUMPDEST DUP4 PUSH1 0x60 ADD MLOAD PUSH2 0x387A JUMP JUMPDEST SWAP1 POP PUSH2 0x55AD DUP2 PUSH2 0x55A8 DUP9 PUSH1 0x3 PUSH2 0x6955 JUMP JUMPDEST PUSH2 0x383E JUMP JUMPDEST SWAP1 POP PUSH2 0x55C8 PUSH2 0x55BD DUP8 PUSH1 0x28 PUSH2 0x6955 JUMP JUMPDEST PUSH1 0xE PUSH1 0x1 SWAP1 SHL PUSH2 0x383E JUMP JUMPDEST DUP3 PUSH1 0x80 ADD DUP2 DUP2 MSTORE POP POP PUSH2 0x55E9 DUP3 PUSH1 0x80 ADD MLOAD PUSH2 0x55E4 DUP9 PUSH1 0x27 PUSH2 0x6955 JUMP JUMPDEST PUSH2 0x387A JUMP JUMPDEST DUP3 PUSH1 0x80 ADD DUP2 DUP2 MSTORE POP POP PUSH2 0x5605 DUP3 PUSH1 0x80 ADD MLOAD PUSH1 0xE PUSH1 0x1 SWAP1 SHL PUSH2 0x383E JUMP JUMPDEST DUP3 PUSH1 0x80 ADD DUP2 DUP2 MSTORE POP POP PUSH2 0x5626 DUP3 PUSH1 0x80 ADD MLOAD PUSH2 0x5621 DUP9 PUSH1 0x1D PUSH2 0x6955 JUMP JUMPDEST PUSH2 0x387A JUMP JUMPDEST DUP3 PUSH1 0x80 ADD DUP2 DUP2 MSTORE POP POP PUSH2 0x5642 DUP3 PUSH1 0x80 ADD MLOAD PUSH1 0xE PUSH1 0x1 SWAP1 SHL PUSH2 0x383E JUMP JUMPDEST DUP3 PUSH1 0x80 ADD DUP2 DUP2 MSTORE POP POP PUSH2 0x5663 DUP3 PUSH1 0x80 ADD MLOAD PUSH2 0x565E DUP9 PUSH1 0x1C PUSH2 0x6955 JUMP JUMPDEST PUSH2 0x387A JUMP JUMPDEST DUP3 PUSH1 0x80 ADD DUP2 DUP2 MSTORE POP POP PUSH2 0x567F DUP3 PUSH1 0x80 ADD MLOAD PUSH1 0xE PUSH1 0x1 SWAP1 SHL PUSH2 0x383E JUMP JUMPDEST DUP3 PUSH1 0x80 ADD DUP2 DUP2 MSTORE POP POP PUSH2 0x56A0 DUP3 PUSH1 0x80 ADD MLOAD PUSH2 0x569B DUP9 PUSH1 0x1B PUSH2 0x6955 JUMP JUMPDEST PUSH2 0x387A JUMP JUMPDEST DUP3 PUSH1 0x80 ADD DUP2 DUP2 MSTORE POP POP PUSH2 0x56C1 DUP3 PUSH1 0x80 ADD MLOAD PUSH2 0x56BC DUP9 PUSH1 0x1E PUSH2 0x6955 JUMP JUMPDEST PUSH2 0x38B6 JUMP JUMPDEST DUP3 PUSH1 0x80 ADD DUP2 DUP2 MSTORE POP POP PUSH2 0x56E2 DUP3 PUSH1 0x80 ADD MLOAD PUSH2 0x56DD DUP9 PUSH1 0x5 PUSH2 0x6955 JUMP JUMPDEST PUSH2 0x383E JUMP JUMPDEST DUP3 PUSH1 0x80 ADD DUP2 DUP2 MSTORE POP POP PUSH2 0x5704 PUSH2 0x56F9 DUP8 PUSH1 0x29 PUSH2 0x6955 JUMP JUMPDEST PUSH1 0xE PUSH1 0x1 SWAP1 SHL PUSH2 0x383E JUMP JUMPDEST DUP3 PUSH1 0xA0 ADD DUP2 DUP2 MSTORE POP POP PUSH2 0x5725 DUP3 PUSH1 0xA0 ADD MLOAD PUSH2 0x5720 DUP9 PUSH1 0x28 PUSH2 0x6955 JUMP JUMPDEST PUSH2 0x387A JUMP JUMPDEST DUP3 PUSH1 0xA0 ADD DUP2 DUP2 MSTORE POP POP PUSH2 0x5741 DUP3 PUSH1 0xA0 ADD MLOAD PUSH1 0xE PUSH1 0x1 SWAP1 SHL PUSH2 0x383E JUMP JUMPDEST DUP3 PUSH1 0xA0 ADD DUP2 DUP2 MSTORE POP POP PUSH2 0x5762 DUP3 PUSH1 0xA0 ADD MLOAD PUSH2 0x575D DUP9 PUSH1 0x27 PUSH2 0x6955 JUMP JUMPDEST PUSH2 0x387A JUMP JUMPDEST DUP3 PUSH1 0xA0 ADD DUP2 DUP2 MSTORE POP POP PUSH2 0x577E DUP3 PUSH1 0xA0 ADD MLOAD PUSH1 0xE PUSH1 0x1 SWAP1 SHL PUSH2 0x383E JUMP JUMPDEST DUP3 PUSH1 0xA0 ADD DUP2 DUP2 MSTORE POP POP PUSH2 0x579F DUP3 PUSH1 0xA0 ADD MLOAD PUSH2 0x579A DUP9 PUSH1 0x1E PUSH2 0x6955 JUMP JUMPDEST PUSH2 0x387A JUMP JUMPDEST DUP3 PUSH1 0xA0 ADD DUP2 DUP2 MSTORE POP POP PUSH2 0x57BB DUP3 PUSH1 0xA0 ADD MLOAD PUSH1 0xE PUSH1 0x1 SWAP1 SHL PUSH2 0x383E JUMP JUMPDEST DUP3 PUSH1 0xA0 ADD DUP2 DUP2 MSTORE POP POP PUSH2 0x57DC DUP3 PUSH1 0xA0 ADD MLOAD PUSH2 0x57D7 DUP9 PUSH1 0x1D PUSH2 0x6955 JUMP JUMPDEST PUSH2 0x387A JUMP JUMPDEST DUP3 PUSH1 0xA0 ADD DUP2 DUP2 MSTORE POP POP PUSH2 0x57FD DUP3 PUSH1 0xA0 ADD MLOAD PUSH2 0x57F8 DUP9 PUSH1 0x2A PUSH2 0x6955 JUMP JUMPDEST PUSH2 0x38B6 JUMP JUMPDEST DUP3 PUSH1 0xA0 ADD DUP2 DUP2 MSTORE POP POP PUSH2 0x581E DUP3 PUSH1 0xA0 ADD MLOAD PUSH2 0x5819 DUP9 PUSH1 0x0 PUSH2 0x6955 JUMP JUMPDEST PUSH2 0x383E JUMP JUMPDEST DUP3 PUSH1 0xA0 ADD DUP2 DUP2 MSTORE POP POP PUSH1 0x0 PUSH2 0x583B DUP4 PUSH1 0x80 ADD MLOAD DUP5 PUSH1 0xA0 ADD MLOAD PUSH2 0x387A JUMP JUMPDEST SWAP1 POP PUSH2 0x5851 DUP2 PUSH2 0x584C DUP10 PUSH1 0x4 PUSH2 0x6955 JUMP JUMPDEST PUSH2 0x383E JUMP JUMPDEST SWAP1 POP PUSH2 0x586B PUSH2 0x5861 DUP9 PUSH1 0x1D PUSH2 0x6955 JUMP JUMPDEST DUP8 PUSH1 0x40 ADD MLOAD PUSH2 0x383E JUMP JUMPDEST DUP4 PUSH1 0xC0 ADD DUP2 DUP2 MSTORE POP POP PUSH2 0x5899 DUP4 PUSH1 0xC0 ADD MLOAD PUSH2 0x5894 PUSH2 0x588A DUP11 PUSH1 0x1C PUSH2 0x6955 JUMP JUMPDEST DUP10 PUSH1 0x20 ADD MLOAD PUSH2 0x383E JUMP JUMPDEST PUSH2 0x387A JUMP JUMPDEST DUP4 PUSH1 0xC0 ADD DUP2 DUP2 MSTORE POP POP PUSH2 0x58C7 DUP4 PUSH1 0xC0 ADD MLOAD PUSH2 0x58C2 PUSH2 0x58B8 DUP11 PUSH1 0x1B PUSH2 0x6955 JUMP JUMPDEST DUP10 PUSH1 0x0 ADD MLOAD PUSH2 0x383E JUMP JUMPDEST PUSH2 0x387A JUMP JUMPDEST DUP4 PUSH1 0xC0 ADD DUP2 DUP2 MSTORE POP POP PUSH2 0x58E8 DUP4 PUSH1 0xC0 ADD MLOAD PUSH2 0x58E3 DUP10 PUSH1 0x1 PUSH2 0x6955 JUMP JUMPDEST PUSH2 0x387A JUMP JUMPDEST DUP4 PUSH1 0xC0 ADD DUP2 DUP2 MSTORE POP POP DUP3 PUSH1 0xC0 ADD MLOAD DUP4 PUSH1 0xE0 ADD DUP2 DUP2 MSTORE POP POP PUSH2 0x5917 DUP4 PUSH1 0xC0 ADD MLOAD PUSH2 0x5912 DUP10 PUSH1 0x1E PUSH2 0x6955 JUMP JUMPDEST PUSH2 0x38B6 JUMP JUMPDEST DUP4 PUSH1 0xC0 ADD DUP2 DUP2 MSTORE POP POP PUSH2 0x593E PUSH2 0x592E DUP9 PUSH1 0x27 PUSH2 0x6955 JUMP JUMPDEST PUSH2 0x5939 DUP10 PUSH1 0x1B PUSH2 0x6955 JUMP JUMPDEST PUSH2 0x38B6 JUMP JUMPDEST DUP4 PUSH2 0x140 ADD DUP2 DUP2 MSTORE POP POP PUSH2 0x5966 PUSH2 0x5956 DUP9 PUSH1 0x2A PUSH2 0x6955 JUMP JUMPDEST PUSH2 0x5961 DUP10 PUSH1 0x1E PUSH2 0x6955 JUMP JUMPDEST PUSH2 0x38B6 JUMP JUMPDEST DUP4 PUSH2 0x120 ADD DUP2 DUP2 MSTORE POP POP PUSH2 0x5992 PUSH2 0x5987 DUP5 PUSH2 0x140 ADD MLOAD DUP6 PUSH2 0x140 ADD MLOAD PUSH2 0x383E JUMP JUMPDEST DUP5 PUSH2 0x140 ADD MLOAD PUSH2 0x38B6 JUMP JUMPDEST DUP4 PUSH2 0x280 ADD DUP2 DUP2 MSTORE POP POP PUSH2 0x59EF PUSH2 0x59E4 PUSH2 0x59DD DUP6 PUSH2 0x140 ADD MLOAD PUSH1 0x1 PUSH32 0x30644E72E131A029B85045B68181585D2833E84879B9709143E1F593F0000001 PUSH2 0x59D8 SWAP2 SWAP1 PUSH2 0x7422 JUMP JUMPDEST PUSH2 0x383E JUMP JUMPDEST PUSH1 0x1 PUSH2 0x387A JUMP JUMPDEST DUP5 PUSH2 0x120 ADD MLOAD PUSH2 0x383E JUMP JUMPDEST DUP4 PUSH2 0x160 ADD DUP2 DUP2 MSTORE POP POP PUSH2 0x5A41 PUSH2 0x5A28 DUP5 PUSH2 0x160 ADD MLOAD PUSH2 0x5A23 PUSH2 0x5A13 DUP12 PUSH1 0x2 PUSH2 0x6955 JUMP JUMPDEST PUSH2 0x5A1E DUP13 PUSH1 0x3 PUSH2 0x6955 JUMP JUMPDEST PUSH2 0x383E JUMP JUMPDEST PUSH2 0x383E JUMP JUMPDEST PUSH2 0x5A3C PUSH2 0x5A36 DUP11 PUSH1 0x9 PUSH2 0x6955 JUMP JUMPDEST DUP8 PUSH2 0x383E JUMP JUMPDEST PUSH2 0x383E JUMP JUMPDEST DUP6 PUSH1 0xD PUSH1 0x1A DUP2 LT PUSH2 0x5A55 JUMPI PUSH2 0x5A54 PUSH2 0x73F3 JUMP JUMPDEST JUMPDEST PUSH1 0x20 MUL ADD DUP2 DUP2 MSTORE POP POP PUSH2 0x5AA6 PUSH2 0x5A8D DUP5 PUSH2 0x280 ADD MLOAD PUSH2 0x5A88 PUSH2 0x5A78 DUP12 PUSH1 0x2 PUSH2 0x6955 JUMP JUMPDEST PUSH2 0x5A83 DUP13 PUSH1 0x3 PUSH2 0x6955 JUMP JUMPDEST PUSH2 0x383E JUMP JUMPDEST PUSH2 0x383E JUMP JUMPDEST PUSH2 0x5AA1 PUSH2 0x5A9B DUP11 PUSH1 0x9 PUSH2 0x6955 JUMP JUMPDEST DUP8 PUSH2 0x383E JUMP JUMPDEST PUSH2 0x383E JUMP JUMPDEST DUP6 PUSH1 0xE PUSH1 0x1A DUP2 LT PUSH2 0x5ABA JUMPI PUSH2 0x5AB9 PUSH2 0x73F3 JUMP JUMPDEST JUMPDEST PUSH1 0x20 MUL ADD DUP2 DUP2 MSTORE POP POP PUSH2 0x5AEE DUP4 PUSH1 0xC0 ADD MLOAD PUSH2 0x5AE9 PUSH2 0x5AD9 DUP11 PUSH1 0x2 PUSH2 0x6955 JUMP JUMPDEST PUSH2 0x5AE4 DUP12 PUSH1 0x3 PUSH2 0x6955 JUMP JUMPDEST PUSH2 0x383E JUMP JUMPDEST PUSH2 0x383E JUMP JUMPDEST DUP4 PUSH2 0x1E0 ADD DUP2 DUP2 MSTORE POP POP PUSH1 0x0 PUSH2 0x5B12 PUSH2 0x5B08 DUP10 PUSH1 0x1E PUSH2 0x6955 JUMP JUMPDEST DUP6 PUSH1 0xE0 ADD MLOAD PUSH2 0x38B6 JUMP JUMPDEST SWAP1 POP PUSH2 0x5B27 PUSH2 0x5B21 DUP3 DUP4 PUSH2 0x383E JUMP JUMPDEST DUP3 PUSH2 0x38B6 JUMP JUMPDEST DUP5 PUSH2 0x1A0 ADD DUP2 DUP2 MSTORE POP POP PUSH2 0x5B49 PUSH2 0x5B3F DUP10 PUSH1 0x29 PUSH2 0x6955 JUMP JUMPDEST DUP9 PUSH1 0x40 ADD MLOAD PUSH2 0x383E JUMP JUMPDEST DUP5 PUSH2 0x100 ADD DUP2 DUP2 MSTORE POP POP PUSH2 0x5B79 DUP5 PUSH2 0x100 ADD MLOAD PUSH2 0x5B74 PUSH2 0x5B6A DUP12 PUSH1 0x28 PUSH2 0x6955 JUMP JUMPDEST DUP11 PUSH1 0x20 ADD MLOAD PUSH2 0x383E JUMP JUMPDEST PUSH2 0x387A JUMP JUMPDEST DUP5 PUSH2 0x100 ADD DUP2 DUP2 MSTORE POP POP PUSH2 0x5BA9 DUP5 PUSH2 0x100 ADD MLOAD PUSH2 0x5BA4 PUSH2 0x5B9A DUP12 PUSH1 0x27 PUSH2 0x6955 JUMP JUMPDEST DUP11 PUSH1 0x0 ADD MLOAD PUSH2 0x383E JUMP JUMPDEST PUSH2 0x387A JUMP JUMPDEST DUP5 PUSH2 0x100 ADD DUP2 DUP2 MSTORE POP POP PUSH2 0x5BCC PUSH2 0x5BC1 DUP10 PUSH1 0x2A PUSH2 0x6955 JUMP JUMPDEST DUP6 PUSH2 0x100 ADD MLOAD PUSH2 0x38B6 JUMP JUMPDEST DUP5 PUSH2 0x100 ADD DUP2 DUP2 MSTORE POP POP PUSH1 0x0 PUSH2 0x5BF6 PUSH2 0x5BE6 DUP11 PUSH1 0x29 PUSH2 0x6955 JUMP JUMPDEST PUSH2 0x5BF1 DUP12 PUSH1 0x1D PUSH2 0x6955 JUMP JUMPDEST PUSH2 0x38B6 JUMP JUMPDEST SWAP1 POP PUSH2 0x5C93 PUSH2 0x5C49 PUSH2 0x5C43 PUSH2 0x5C3C DUP9 PUSH2 0x140 ADD MLOAD PUSH1 0x1 PUSH32 0x30644E72E131A029B85045B68181585D2833E84879B9709143E1F593F0000001 PUSH2 0x5C37 SWAP2 SWAP1 PUSH2 0x7422 JUMP JUMPDEST PUSH2 0x383E JUMP JUMPDEST PUSH1 0x1 PUSH2 0x387A JUMP JUMPDEST DUP4 PUSH2 0x383E JUMP JUMPDEST PUSH2 0x5C8E PUSH2 0x5C87 DUP9 PUSH2 0x100 ADD MLOAD PUSH1 0x1 PUSH32 0x30644E72E131A029B85045B68181585D2833E84879B9709143E1F593F0000001 PUSH2 0x5C82 SWAP2 SWAP1 PUSH2 0x7422 JUMP JUMPDEST PUSH2 0x383E JUMP JUMPDEST PUSH1 0x1 PUSH2 0x387A JUMP JUMPDEST PUSH2 0x383E JUMP JUMPDEST DUP6 PUSH2 0x180 ADD DUP2 DUP2 MSTORE POP POP PUSH2 0x5CBF PUSH2 0x5CB4 DUP7 PUSH2 0x100 ADD MLOAD DUP8 PUSH2 0x100 ADD MLOAD PUSH2 0x383E JUMP JUMPDEST DUP7 PUSH2 0x100 ADD MLOAD PUSH2 0x38B6 JUMP JUMPDEST DUP6 PUSH2 0x1C0 ADD DUP2 DUP2 MSTORE POP POP PUSH2 0x5CFE PUSH2 0x5CE5 DUP7 PUSH2 0x180 ADD MLOAD PUSH2 0x5CE0 DUP13 PUSH1 0x6 PUSH2 0x6955 JUMP JUMPDEST PUSH2 0x383E JUMP JUMPDEST PUSH2 0x5CF9 PUSH2 0x5CF3 DUP13 PUSH1 0x9 PUSH2 0x6955 JUMP JUMPDEST DUP10 PUSH2 0x383E JUMP JUMPDEST PUSH2 0x383E JUMP JUMPDEST DUP8 PUSH1 0xF PUSH1 0x1A DUP2 LT PUSH2 0x5D12 JUMPI PUSH2 0x5D11 PUSH2 0x73F3 JUMP JUMPDEST JUMPDEST PUSH1 0x20 MUL ADD DUP2 DUP2 MSTORE POP POP PUSH2 0x5D50 PUSH2 0x5D37 DUP7 PUSH2 0x280 ADD MLOAD PUSH2 0x5D32 DUP13 PUSH1 0x6 PUSH2 0x6955 JUMP JUMPDEST PUSH2 0x383E JUMP JUMPDEST PUSH2 0x5D4B PUSH2 0x5D45 DUP13 PUSH1 0x9 PUSH2 0x6955 JUMP JUMPDEST DUP10 PUSH2 0x383E JUMP JUMPDEST PUSH2 0x383E JUMP JUMPDEST DUP8 PUSH1 0x10 PUSH1 0x1A DUP2 LT PUSH2 0x5D64 JUMPI PUSH2 0x5D63 PUSH2 0x73F3 JUMP JUMPDEST JUMPDEST PUSH1 0x20 MUL ADD DUP2 DUP2 MSTORE POP POP PUSH2 0x5DA2 PUSH2 0x5D89 DUP7 PUSH2 0x1C0 ADD MLOAD PUSH2 0x5D84 DUP13 PUSH1 0x6 PUSH2 0x6955 JUMP JUMPDEST PUSH2 0x383E JUMP JUMPDEST PUSH2 0x5D9D PUSH2 0x5D97 DUP13 PUSH1 0x9 PUSH2 0x6955 JUMP JUMPDEST DUP10 PUSH2 0x383E JUMP JUMPDEST PUSH2 0x383E JUMP JUMPDEST DUP8 PUSH1 0x11 PUSH1 0x1A DUP2 LT PUSH2 0x5DB6 JUMPI PUSH2 0x5DB5 PUSH2 0x73F3 JUMP JUMPDEST JUMPDEST PUSH1 0x20 MUL ADD DUP2 DUP2 MSTORE POP POP PUSH2 0x5DD8 DUP6 PUSH2 0x1A0 ADD MLOAD PUSH2 0x5DD3 DUP12 PUSH1 0x6 PUSH2 0x6955 JUMP JUMPDEST PUSH2 0x383E JUMP JUMPDEST DUP6 PUSH2 0x200 ADD DUP2 DUP2 MSTORE POP POP PUSH2 0x5E00 PUSH2 0x5DF0 DUP11 PUSH1 0x28 PUSH2 0x6955 JUMP JUMPDEST PUSH2 0x5DFB DUP12 PUSH1 0x1C PUSH2 0x6955 JUMP JUMPDEST PUSH2 0x38B6 JUMP JUMPDEST DUP6 PUSH2 0x220 ADD DUP2 DUP2 MSTORE POP POP PUSH2 0x5E70 PUSH2 0x5E60 PUSH2 0x5E55 PUSH2 0x5E4E DUP9 PUSH2 0x140 ADD MLOAD PUSH1 0x1 PUSH32 0x30644E72E131A029B85045B68181585D2833E84879B9709143E1F593F0000001 PUSH2 0x5E49 SWAP2 SWAP1 PUSH2 0x7422 JUMP JUMPDEST PUSH2 0x383E JUMP JUMPDEST PUSH1 0x1 PUSH2 0x387A JUMP JUMPDEST DUP8 PUSH2 0x220 ADD MLOAD PUSH2 0x383E JUMP JUMPDEST PUSH2 0x5E6B DUP12 PUSH1 0x1D PUSH2 0x6955 JUMP JUMPDEST PUSH2 0x38B6 JUMP JUMPDEST DUP6 PUSH2 0x240 ADD DUP2 DUP2 MSTORE POP POP DUP5 PUSH2 0x1E0 ADD MLOAD DUP6 PUSH2 0x260 ADD DUP2 DUP2 MSTORE POP POP PUSH2 0x5EC4 DUP6 PUSH2 0x260 ADD MLOAD PUSH2 0x5EBF DUP8 PUSH2 0x240 ADD MLOAD PUSH2 0x5EBA PUSH2 0x5EAA DUP15 PUSH1 0x5 PUSH2 0x6955 JUMP JUMPDEST PUSH2 0x5EB5 DUP16 PUSH1 0x2 PUSH2 0x6955 JUMP JUMPDEST PUSH2 0x383E JUMP JUMPDEST PUSH2 0x383E JUMP JUMPDEST PUSH2 0x387A JUMP JUMPDEST DUP6 PUSH2 0x260 ADD DUP2 DUP2 MSTORE POP POP PUSH2 0x5F07 DUP6 PUSH2 0x260 ADD MLOAD PUSH2 0x5F02 DUP8 PUSH1 0xC0 ADD MLOAD PUSH2 0x5EFD PUSH2 0x5EED DUP15 PUSH1 0x0 PUSH2 0x6955 JUMP JUMPDEST PUSH2 0x5EF8 DUP16 PUSH1 0x2 PUSH2 0x6955 JUMP JUMPDEST PUSH2 0x383E JUMP JUMPDEST PUSH2 0x383E JUMP JUMPDEST PUSH2 0x387A JUMP JUMPDEST DUP6 PUSH2 0x260 ADD DUP2 DUP2 MSTORE POP POP PUSH2 0x5F25 DUP6 PUSH2 0x260 ADD MLOAD DUP7 PUSH2 0x200 ADD MLOAD PUSH2 0x387A JUMP JUMPDEST DUP6 PUSH2 0x260 ADD DUP2 DUP2 MSTORE POP POP PUSH2 0x5F47 PUSH2 0x5F41 DUP7 PUSH2 0x260 ADD MLOAD DUP7 PUSH2 0x387A JUMP JUMPDEST DUP5 PUSH2 0x387A JUMP JUMPDEST DUP6 PUSH2 0x2A0 ADD DUP2 DUP2 MSTORE POP POP PUSH2 0x5F73 DUP6 PUSH2 0x2A0 ADD MLOAD PUSH2 0x5F6E PUSH2 0x5F68 DUP13 PUSH1 0x9 PUSH2 0x6955 JUMP JUMPDEST DUP10 PUSH2 0x383E JUMP JUMPDEST PUSH2 0x383E JUMP JUMPDEST DUP6 PUSH2 0x2A0 ADD DUP2 DUP2 MSTORE POP POP DUP5 PUSH2 0x2A0 ADD MLOAD DUP8 PUSH1 0xC PUSH1 0x1A DUP2 LT PUSH2 0x5F97 JUMPI PUSH2 0x5F96 PUSH2 0x73F3 JUMP JUMPDEST JUMPDEST PUSH1 0x20 MUL ADD DUP2 DUP2 MSTORE POP POP POP POP POP POP POP POP POP POP POP JUMP JUMPDEST PUSH2 0x5FB3 PUSH2 0x6F7D JUMP JUMPDEST PUSH2 0x5FD1 PUSH2 0x5FC1 DUP6 PUSH1 0x1B PUSH2 0x6955 JUMP JUMPDEST PUSH2 0x5FCC DUP7 PUSH1 0x2 PUSH2 0x6955 JUMP JUMPDEST PUSH2 0x387A JUMP JUMPDEST DUP2 PUSH1 0x0 ADD DUP2 DUP2 MSTORE POP POP PUSH2 0x5FF8 PUSH2 0x5FE8 DUP6 PUSH1 0x1C PUSH2 0x6955 JUMP JUMPDEST PUSH2 0x5FF3 DUP7 PUSH1 0x3 PUSH2 0x6955 JUMP JUMPDEST PUSH2 0x387A JUMP JUMPDEST DUP2 PUSH1 0x20 ADD DUP2 DUP2 MSTORE POP POP PUSH2 0x601F PUSH2 0x600F DUP6 PUSH1 0x1D PUSH2 0x6955 JUMP JUMPDEST PUSH2 0x601A DUP7 PUSH1 0x4 PUSH2 0x6955 JUMP JUMPDEST PUSH2 0x387A JUMP JUMPDEST DUP2 PUSH1 0x40 ADD DUP2 DUP2 MSTORE POP POP PUSH2 0x6046 PUSH2 0x6036 DUP6 PUSH1 0x1E PUSH2 0x6955 JUMP JUMPDEST PUSH2 0x6041 DUP7 PUSH1 0x5 PUSH2 0x6955 JUMP JUMPDEST PUSH2 0x387A JUMP JUMPDEST DUP2 PUSH1 0x60 ADD DUP2 DUP2 MSTORE POP POP PUSH2 0x6088 PUSH2 0x607E PUSH2 0x6074 PUSH2 0x606A DUP5 PUSH1 0x0 ADD MLOAD DUP6 PUSH1 0x0 ADD MLOAD PUSH2 0x383E JUMP JUMPDEST DUP5 PUSH1 0x0 ADD MLOAD PUSH2 0x383E JUMP JUMPDEST DUP4 PUSH1 0x0 ADD MLOAD PUSH2 0x383E JUMP JUMPDEST DUP3 PUSH1 0x0 ADD MLOAD PUSH2 0x383E JUMP JUMPDEST DUP2 PUSH1 0x80 ADD DUP2 DUP2 MSTORE POP POP PUSH2 0x60CA PUSH2 0x60C0 PUSH2 0x60B6 PUSH2 0x60AC DUP5 PUSH1 0x20 ADD MLOAD DUP6 PUSH1 0x20 ADD MLOAD PUSH2 0x383E JUMP JUMPDEST DUP5 PUSH1 0x20 ADD MLOAD PUSH2 0x383E JUMP JUMPDEST DUP4 PUSH1 0x20 ADD MLOAD PUSH2 0x383E JUMP JUMPDEST DUP3 PUSH1 0x20 ADD MLOAD PUSH2 0x383E JUMP JUMPDEST DUP2 PUSH1 0xA0 ADD DUP2 DUP2 MSTORE POP POP PUSH2 0x610C PUSH2 0x6102 PUSH2 0x60F8 PUSH2 0x60EE DUP5 PUSH1 0x40 ADD MLOAD DUP6 PUSH1 0x40 ADD MLOAD PUSH2 0x383E JUMP JUMPDEST DUP5 PUSH1 0x40 ADD MLOAD PUSH2 0x383E JUMP JUMPDEST DUP4 PUSH1 0x40 ADD MLOAD PUSH2 0x383E JUMP JUMPDEST DUP3 PUSH1 0x40 ADD MLOAD PUSH2 0x383E JUMP JUMPDEST DUP2 PUSH1 0xC0 ADD DUP2 DUP2 MSTORE POP POP PUSH2 0x614E PUSH2 0x6144 PUSH2 0x613A PUSH2 0x6130 DUP5 PUSH1 0x60 ADD MLOAD DUP6 PUSH1 0x60 ADD MLOAD PUSH2 0x383E JUMP JUMPDEST DUP5 PUSH1 0x60 ADD MLOAD PUSH2 0x383E JUMP JUMPDEST DUP4 PUSH1 0x60 ADD MLOAD PUSH2 0x383E JUMP JUMPDEST DUP3 PUSH1 0x60 ADD MLOAD PUSH2 0x383E JUMP JUMPDEST DUP2 PUSH1 0xE0 ADD DUP2 DUP2 MSTORE POP POP PUSH2 0x6169 DUP2 PUSH1 0x80 ADD MLOAD DUP3 PUSH1 0xA0 ADD MLOAD PUSH2 0x387A JUMP JUMPDEST DUP2 PUSH2 0x100 ADD DUP2 DUP2 MSTORE POP POP PUSH2 0x6185 DUP2 PUSH1 0xC0 ADD MLOAD DUP3 PUSH1 0xE0 ADD MLOAD PUSH2 0x387A JUMP JUMPDEST DUP2 PUSH2 0x120 ADD DUP2 DUP2 MSTORE POP POP PUSH2 0x61AF PUSH2 0x61A4 DUP3 PUSH1 0xA0 ADD MLOAD DUP4 PUSH1 0xA0 ADD MLOAD PUSH2 0x387A JUMP JUMPDEST DUP3 PUSH2 0x120 ADD MLOAD PUSH2 0x387A JUMP JUMPDEST DUP2 PUSH2 0x140 ADD DUP2 DUP2 MSTORE POP POP PUSH2 0x61D9 PUSH2 0x61CE DUP3 PUSH1 0xE0 ADD MLOAD DUP4 PUSH1 0xE0 ADD MLOAD PUSH2 0x387A JUMP JUMPDEST DUP3 PUSH2 0x100 ADD MLOAD PUSH2 0x387A JUMP JUMPDEST DUP2 PUSH2 0x160 ADD DUP2 DUP2 MSTORE POP POP PUSH2 0x61F7 DUP2 PUSH2 0x120 ADD MLOAD DUP3 PUSH2 0x120 ADD MLOAD PUSH2 0x387A JUMP JUMPDEST DUP2 PUSH2 0x1E0 ADD DUP2 DUP2 MSTORE POP POP PUSH2 0x6223 PUSH2 0x6218 DUP3 PUSH2 0x1E0 ADD MLOAD DUP4 PUSH2 0x1E0 ADD MLOAD PUSH2 0x387A JUMP JUMPDEST DUP3 PUSH2 0x160 ADD MLOAD PUSH2 0x387A JUMP JUMPDEST DUP2 PUSH2 0x1E0 ADD DUP2 DUP2 MSTORE POP POP PUSH2 0x6241 DUP2 PUSH2 0x100 ADD MLOAD DUP3 PUSH2 0x100 ADD MLOAD PUSH2 0x387A JUMP JUMPDEST DUP2 PUSH2 0x1A0 ADD DUP2 DUP2 MSTORE POP POP PUSH2 0x626D PUSH2 0x6262 DUP3 PUSH2 0x1A0 ADD MLOAD DUP4 PUSH2 0x1A0 ADD MLOAD PUSH2 0x387A JUMP JUMPDEST DUP3 PUSH2 0x140 ADD MLOAD PUSH2 0x387A JUMP JUMPDEST DUP2 PUSH2 0x1A0 ADD DUP2 DUP2 MSTORE POP POP PUSH2 0x628B DUP2 PUSH2 0x160 ADD MLOAD DUP3 PUSH2 0x1A0 ADD MLOAD PUSH2 0x387A JUMP JUMPDEST DUP2 PUSH2 0x180 ADD DUP2 DUP2 MSTORE POP POP PUSH2 0x62A9 DUP2 PUSH2 0x140 ADD MLOAD DUP3 PUSH2 0x1E0 ADD MLOAD PUSH2 0x387A JUMP JUMPDEST DUP2 PUSH2 0x1C0 ADD DUP2 DUP2 MSTORE POP POP PUSH2 0x62C7 PUSH2 0x62C1 DUP6 PUSH1 0xB PUSH2 0x6955 JUMP JUMPDEST DUP4 PUSH2 0x383E JUMP JUMPDEST DUP2 PUSH2 0x200 ADD DUP2 DUP2 MSTORE POP POP PUSH2 0x6319 DUP4 PUSH1 0x12 PUSH1 0x1A DUP2 LT PUSH2 0x62E8 JUMPI PUSH2 0x62E7 PUSH2 0x73F3 JUMP JUMPDEST JUMPDEST PUSH1 0x20 MUL ADD MLOAD PUSH2 0x6314 DUP4 PUSH2 0x200 ADD MLOAD PUSH2 0x630F DUP6 PUSH2 0x180 ADD MLOAD PUSH2 0x630A DUP11 PUSH1 0x27 PUSH2 0x6955 JUMP JUMPDEST PUSH2 0x38B6 JUMP JUMPDEST PUSH2 0x383E JUMP JUMPDEST PUSH2 0x387A JUMP JUMPDEST DUP4 PUSH1 0x12 PUSH1 0x1A DUP2 LT PUSH2 0x632D JUMPI PUSH2 0x632C PUSH2 0x73F3 JUMP JUMPDEST JUMPDEST PUSH1 0x20 MUL ADD DUP2 DUP2 MSTORE POP POP PUSH2 0x637E DUP4 PUSH1 0x13 PUSH1 0x1A DUP2 LT PUSH2 0x634D JUMPI PUSH2 0x634C PUSH2 0x73F3 JUMP JUMPDEST JUMPDEST PUSH1 0x20 MUL ADD MLOAD PUSH2 0x6379 DUP4 PUSH2 0x200 ADD MLOAD PUSH2 0x6374 DUP6 PUSH2 0x1A0 ADD MLOAD PUSH2 0x636F DUP11 PUSH1 0x28 PUSH2 0x6955 JUMP JUMPDEST PUSH2 0x38B6 JUMP JUMPDEST PUSH2 0x383E JUMP JUMPDEST PUSH2 0x387A JUMP JUMPDEST DUP4 PUSH1 0x13 PUSH1 0x1A DUP2 LT PUSH2 0x6392 JUMPI PUSH2 0x6391 PUSH2 0x73F3 JUMP JUMPDEST JUMPDEST PUSH1 0x20 MUL ADD DUP2 DUP2 MSTORE POP POP PUSH2 0x63E3 DUP4 PUSH1 0x14 PUSH1 0x1A DUP2 LT PUSH2 0x63B2 JUMPI PUSH2 0x63B1 PUSH2 0x73F3 JUMP JUMPDEST JUMPDEST PUSH1 0x20 MUL ADD MLOAD PUSH2 0x63DE DUP4 PUSH2 0x200 ADD MLOAD PUSH2 0x63D9 DUP6 PUSH2 0x1C0 ADD MLOAD PUSH2 0x63D4 DUP11 PUSH1 0x29 PUSH2 0x6955 JUMP JUMPDEST PUSH2 0x38B6 JUMP JUMPDEST PUSH2 0x383E JUMP JUMPDEST PUSH2 0x387A JUMP JUMPDEST DUP4 PUSH1 0x14 PUSH1 0x1A DUP2 LT PUSH2 0x63F7 JUMPI PUSH2 0x63F6 PUSH2 0x73F3 JUMP JUMPDEST JUMPDEST PUSH1 0x20 MUL ADD DUP2 DUP2 MSTORE POP POP PUSH2 0x6448 DUP4 PUSH1 0x15 PUSH1 0x1A DUP2 LT PUSH2 0x6417 JUMPI PUSH2 0x6416 PUSH2 0x73F3 JUMP JUMPDEST JUMPDEST PUSH1 0x20 MUL ADD MLOAD PUSH2 0x6443 DUP4 PUSH2 0x200 ADD MLOAD PUSH2 0x643E DUP6 PUSH2 0x1E0 ADD MLOAD PUSH2 0x6439 DUP11 PUSH1 0x2A PUSH2 0x6955 JUMP JUMPDEST PUSH2 0x38B6 JUMP JUMPDEST PUSH2 0x383E JUMP JUMPDEST PUSH2 0x387A JUMP JUMPDEST DUP4 PUSH1 0x15 PUSH1 0x1A DUP2 LT PUSH2 0x645C JUMPI PUSH2 0x645B PUSH2 0x73F3 JUMP JUMPDEST JUMPDEST PUSH1 0x20 MUL ADD DUP2 DUP2 MSTORE POP POP POP POP POP POP JUMP JUMPDEST PUSH2 0x6473 PUSH2 0x7001 JUMP JUMPDEST PUSH1 0x0 PUSH1 0x40 MLOAD DUP1 PUSH1 0x80 ADD PUSH1 0x40 MSTORE DUP1 PUSH2 0x64A9 PUSH32 0x10DC6E9C006EA38B04B1E03B4BD9490C0D03F98929CA1D7FB56821FD19D3B6E7 PUSH2 0x3809 JUMP JUMPDEST DUP2 MSTORE PUSH1 0x20 ADD PUSH2 0x64D7 PUSH32 0xC28145B6A44DF3E0149B3D0A30B3BB599DF9756D4DD9B84A86B38CFB45A740B PUSH2 0x3809 JUMP JUMPDEST DUP2 MSTORE PUSH1 0x20 ADD PUSH2 0x6504 PUSH31 0x544B8338791518B2C7645A50392798B21F75BB60E3596170067D00141CAC15 PUSH2 0x3809 JUMP JUMPDEST DUP2 MSTORE PUSH1 0x20 ADD PUSH2 0x6532 PUSH32 0x222C01175718386F2E2E82EB122789E352E105A3B8FA852613BC534433EE428B PUSH2 0x3809 JUMP JUMPDEST DUP2 MSTORE POP SWAP1 POP PUSH2 0x6555 PUSH2 0x6545 DUP7 PUSH1 0x1B PUSH2 0x6955 JUMP JUMPDEST PUSH2 0x6550 DUP8 PUSH1 0x2 PUSH2 0x6955 JUMP JUMPDEST PUSH2 0x387A JUMP JUMPDEST DUP3 PUSH2 0x120 ADD DUP2 DUP2 MSTORE POP POP PUSH2 0x659D PUSH2 0x6592 PUSH2 0x6587 PUSH2 0x657C DUP6 PUSH2 0x120 ADD MLOAD DUP7 PUSH2 0x120 ADD MLOAD PUSH2 0x383E JUMP JUMPDEST DUP6 PUSH2 0x120 ADD MLOAD PUSH2 0x383E JUMP JUMPDEST DUP5 PUSH2 0x120 ADD MLOAD PUSH2 0x383E JUMP JUMPDEST DUP4 PUSH2 0x120 ADD MLOAD PUSH2 0x383E JUMP JUMPDEST DUP3 PUSH1 0x0 ADD DUP2 DUP2 MSTORE POP POP PUSH2 0x65B1 DUP6 PUSH1 0x1C PUSH2 0x6955 JUMP JUMPDEST DUP3 PUSH1 0x20 ADD DUP2 DUP2 MSTORE POP POP PUSH2 0x65C5 DUP6 PUSH1 0x1D PUSH2 0x6955 JUMP JUMPDEST DUP3 PUSH1 0x40 ADD DUP2 DUP2 MSTORE POP POP PUSH2 0x65D9 DUP6 PUSH1 0x1E PUSH2 0x6955 JUMP JUMPDEST DUP3 PUSH1 0x60 ADD DUP2 DUP2 MSTORE POP POP PUSH2 0x660E PUSH2 0x6604 PUSH2 0x65FA DUP5 PUSH1 0x0 ADD MLOAD DUP6 PUSH1 0x20 ADD MLOAD PUSH2 0x387A JUMP JUMPDEST DUP5 PUSH1 0x40 ADD MLOAD PUSH2 0x387A JUMP JUMPDEST DUP4 PUSH1 0x60 ADD MLOAD PUSH2 0x387A JUMP JUMPDEST DUP3 PUSH1 0x80 ADD DUP2 DUP2 MSTORE POP POP PUSH2 0x662B PUSH2 0x6625 DUP7 PUSH1 0xC PUSH2 0x6955 JUMP JUMPDEST DUP5 PUSH2 0x383E JUMP JUMPDEST DUP3 PUSH2 0x140 ADD DUP2 DUP2 MSTORE POP POP PUSH2 0x6668 PUSH2 0x665E DUP4 PUSH1 0x0 ADD MLOAD DUP4 PUSH1 0x0 PUSH1 0x4 DUP2 LT PUSH2 0x6654 JUMPI PUSH2 0x6653 PUSH2 0x73F3 JUMP JUMPDEST JUMPDEST PUSH1 0x20 MUL ADD MLOAD PUSH2 0x383E JUMP JUMPDEST DUP4 PUSH1 0x80 ADD MLOAD PUSH2 0x387A JUMP JUMPDEST DUP3 PUSH1 0xA0 ADD DUP2 DUP2 MSTORE POP POP PUSH2 0x66B8 DUP5 PUSH1 0x16 PUSH1 0x1A DUP2 LT PUSH2 0x6688 JUMPI PUSH2 0x6687 PUSH2 0x73F3 JUMP JUMPDEST JUMPDEST PUSH1 0x20 MUL ADD MLOAD PUSH2 0x66B3 DUP5 PUSH2 0x140 ADD MLOAD PUSH2 0x66AE DUP7 PUSH1 0xA0 ADD MLOAD PUSH2 0x66A9 DUP12 PUSH1 0x27 PUSH2 0x6955 JUMP JUMPDEST PUSH2 0x38B6 JUMP JUMPDEST PUSH2 0x383E JUMP JUMPDEST PUSH2 0x387A JUMP JUMPDEST DUP5 PUSH1 0x16 PUSH1 0x1A DUP2 LT PUSH2 0x66CC JUMPI PUSH2 0x66CB PUSH2 0x73F3 JUMP JUMPDEST JUMPDEST PUSH1 0x20 MUL ADD DUP2 DUP2 MSTORE POP POP PUSH2 0x6708 PUSH2 0x66FE DUP4 PUSH1 0x20 ADD MLOAD DUP4 PUSH1 0x1 PUSH1 0x4 DUP2 LT PUSH2 0x66F4 JUMPI PUSH2 0x66F3 PUSH2 0x73F3 JUMP JUMPDEST JUMPDEST PUSH1 0x20 MUL ADD MLOAD PUSH2 0x383E JUMP JUMPDEST DUP4 PUSH1 0x80 ADD MLOAD PUSH2 0x387A JUMP JUMPDEST DUP3 PUSH1 0xC0 ADD DUP2 DUP2 MSTORE POP POP PUSH2 0x6758 DUP5 PUSH1 0x17 PUSH1 0x1A DUP2 LT PUSH2 0x6728 JUMPI PUSH2 0x6727 PUSH2 0x73F3 JUMP JUMPDEST JUMPDEST PUSH1 0x20 MUL ADD MLOAD PUSH2 0x6753 DUP5 PUSH2 0x140 ADD MLOAD PUSH2 0x674E DUP7 PUSH1 0xC0 ADD MLOAD PUSH2 0x6749 DUP12 PUSH1 0x28 PUSH2 0x6955 JUMP JUMPDEST PUSH2 0x38B6 JUMP JUMPDEST PUSH2 0x383E JUMP JUMPDEST PUSH2 0x387A JUMP JUMPDEST DUP5 PUSH1 0x17 PUSH1 0x1A DUP2 LT PUSH2 0x676C JUMPI PUSH2 0x676B PUSH2 0x73F3 JUMP JUMPDEST JUMPDEST PUSH1 0x20 MUL ADD DUP2 DUP2 MSTORE POP POP PUSH2 0x67A8 PUSH2 0x679E DUP4 PUSH1 0x40 ADD MLOAD DUP4 PUSH1 0x2 PUSH1 0x4 DUP2 LT PUSH2 0x6794 JUMPI PUSH2 0x6793 PUSH2 0x73F3 JUMP JUMPDEST JUMPDEST PUSH1 0x20 MUL ADD MLOAD PUSH2 0x383E JUMP JUMPDEST DUP4 PUSH1 0x80 ADD MLOAD PUSH2 0x387A JUMP JUMPDEST DUP3 PUSH1 0xE0 ADD DUP2 DUP2 MSTORE POP POP PUSH2 0x67F8 DUP5 PUSH1 0x18 PUSH1 0x1A DUP2 LT PUSH2 0x67C8 JUMPI PUSH2 0x67C7 PUSH2 0x73F3 JUMP JUMPDEST JUMPDEST PUSH1 0x20 MUL ADD MLOAD PUSH2 0x67F3 DUP5 PUSH2 0x140 ADD MLOAD PUSH2 0x67EE DUP7 PUSH1 0xE0 ADD MLOAD PUSH2 0x67E9 DUP12 PUSH1 0x29 PUSH2 0x6955 JUMP JUMPDEST PUSH2 0x38B6 JUMP JUMPDEST PUSH2 0x383E JUMP JUMPDEST PUSH2 0x387A JUMP JUMPDEST DUP5 PUSH1 0x18 PUSH1 0x1A DUP2 LT PUSH2 0x680C JUMPI PUSH2 0x680B PUSH2 0x73F3 JUMP JUMPDEST JUMPDEST PUSH1 0x20 MUL ADD DUP2 DUP2 MSTORE POP POP PUSH2 0x6848 PUSH2 0x683E DUP4 PUSH1 0x60 ADD MLOAD DUP4 PUSH1 0x3 PUSH1 0x4 DUP2 LT PUSH2 0x6834 JUMPI PUSH2 0x6833 PUSH2 0x73F3 JUMP JUMPDEST JUMPDEST PUSH1 0x20 MUL ADD MLOAD PUSH2 0x383E JUMP JUMPDEST DUP4 PUSH1 0x80 ADD MLOAD PUSH2 0x387A JUMP JUMPDEST DUP3 PUSH2 0x100 ADD DUP2 DUP2 MSTORE POP POP PUSH2 0x689A DUP5 PUSH1 0x19 PUSH1 0x1A DUP2 LT PUSH2 0x6869 JUMPI PUSH2 0x6868 PUSH2 0x73F3 JUMP JUMPDEST JUMPDEST PUSH1 0x20 MUL ADD MLOAD PUSH2 0x6895 DUP5 PUSH2 0x140 ADD MLOAD PUSH2 0x6890 DUP7 PUSH2 0x100 ADD MLOAD PUSH2 0x688B DUP12 PUSH1 0x2A PUSH2 0x6955 JUMP JUMPDEST PUSH2 0x38B6 JUMP JUMPDEST PUSH2 0x383E JUMP JUMPDEST PUSH2 0x387A JUMP JUMPDEST DUP5 PUSH1 0x19 PUSH1 0x1A DUP2 LT PUSH2 0x68AE JUMPI PUSH2 0x68AD PUSH2 0x73F3 JUMP JUMPDEST JUMPDEST PUSH1 0x20 MUL ADD DUP2 DUP2 MSTORE POP POP POP POP POP POP POP JUMP JUMPDEST PUSH1 0x0 PUSH2 0x68E2 DUP2 DUP5 PUSH1 0x0 PUSH1 0x1A DUP2 LT PUSH2 0x68D8 JUMPI PUSH2 0x68D7 PUSH2 0x73F3 JUMP JUMPDEST JUMPDEST PUSH1 0x20 MUL ADD MLOAD PUSH2 0x387A JUMP JUMPDEST SWAP1 POP PUSH1 0x0 PUSH1 0x1 SWAP1 POP JUMPDEST PUSH1 0x1A DUP2 LT ISZERO PUSH2 0x694E JUMPI PUSH2 0x6941 DUP3 PUSH2 0x693C DUP7 DUP5 PUSH1 0x1A DUP2 LT PUSH2 0x690E JUMPI PUSH2 0x690D PUSH2 0x73F3 JUMP JUMPDEST JUMPDEST PUSH1 0x20 MUL ADD MLOAD DUP7 PUSH1 0x1 DUP7 PUSH2 0x6921 SWAP2 SWAP1 PUSH2 0x7422 JUMP JUMPDEST PUSH1 0x19 DUP2 LT PUSH2 0x6932 JUMPI PUSH2 0x6931 PUSH2 0x73F3 JUMP JUMPDEST JUMPDEST PUSH1 0x20 MUL ADD MLOAD PUSH2 0x383E JUMP JUMPDEST PUSH2 0x387A JUMP JUMPDEST SWAP2 POP DUP1 PUSH1 0x1 ADD SWAP1 POP PUSH2 0x68EB JUMP JUMPDEST POP SWAP3 SWAP2 POP POP JUMP JUMPDEST PUSH1 0x0 DUP3 DUP3 PUSH1 0x2B DUP2 GT ISZERO PUSH2 0x696B JUMPI PUSH2 0x696A PUSH2 0x7D17 JUMP JUMPDEST JUMPDEST PUSH1 0x2C DUP2 LT PUSH2 0x697C JUMPI PUSH2 0x697B PUSH2 0x73F3 JUMP JUMPDEST JUMPDEST PUSH1 0x20 MUL ADD MLOAD SWAP1 POP SWAP3 SWAP2 POP POP JUMP JUMPDEST PUSH1 0x40 MLOAD DUP1 PUSH2 0x3C0 ADD PUSH1 0x40 MSTORE DUP1 PUSH1 0x0 DUP2 MSTORE PUSH1 0x20 ADD PUSH1 0x0 DUP2 MSTORE PUSH1 0x20 ADD PUSH1 0x0 DUP2 MSTORE PUSH1 0x20 ADD PUSH2 0x69B2 PUSH2 0x6E7F JUMP JUMPDEST DUP2 MSTORE PUSH1 0x20 ADD PUSH2 0x69BF PUSH2 0x6E7F JUMP JUMPDEST DUP2 MSTORE PUSH1 0x20 ADD PUSH2 0x69CC PUSH2 0x6E7F JUMP JUMPDEST DUP2 MSTORE PUSH1 0x20 ADD PUSH2 0x69D9 PUSH2 0x6E7F JUMP JUMPDEST DUP2 MSTORE PUSH1 0x20 ADD PUSH2 0x69E6 PUSH2 0x6E7F JUMP JUMPDEST DUP2 MSTORE PUSH1 0x20 ADD PUSH2 0x69F3 PUSH2 0x6E7F JUMP JUMPDEST DUP2 MSTORE PUSH1 0x20 ADD PUSH2 0x6A00 PUSH2 0x6E7F JUMP JUMPDEST DUP2 MSTORE PUSH1 0x20 ADD PUSH2 0x6A0D PUSH2 0x6E7F JUMP JUMPDEST DUP2 MSTORE PUSH1 0x20 ADD PUSH2 0x6A1A PUSH2 0x6E7F JUMP JUMPDEST DUP2 MSTORE PUSH1 0x20 ADD PUSH2 0x6A27 PUSH2 0x6E7F JUMP JUMPDEST DUP2 MSTORE PUSH1 0x20 ADD PUSH2 0x6A34 PUSH2 0x6E7F JUMP JUMPDEST DUP2 MSTORE PUSH1 0x20 ADD PUSH2 0x6A41 PUSH2 0x6E7F JUMP JUMPDEST DUP2 MSTORE PUSH1 0x20 ADD PUSH2 0x6A4E PUSH2 0x6E7F JUMP JUMPDEST DUP2 MSTORE PUSH1 0x20 ADD PUSH2 0x6A5B PUSH2 0x6E7F JUMP JUMPDEST DUP2 MSTORE PUSH1 0x20 ADD PUSH2 0x6A68 PUSH2 0x6E7F JUMP JUMPDEST DUP2 MSTORE PUSH1 0x20 ADD PUSH2 0x6A75 PUSH2 0x6E7F JUMP JUMPDEST DUP2 MSTORE PUSH1 0x20 ADD PUSH2 0x6A82 PUSH2 0x6E7F JUMP JUMPDEST DUP2 MSTORE PUSH1 0x20 ADD PUSH2 0x6A8F PUSH2 0x6E7F JUMP JUMPDEST DUP2 MSTORE PUSH1 0x20 ADD PUSH2 0x6A9C PUSH2 0x6E7F JUMP JUMPDEST DUP2 MSTORE PUSH1 0x20 ADD PUSH2 0x6AA9 PUSH2 0x6E7F JUMP JUMPDEST DUP2 MSTORE PUSH1 0x20 ADD PUSH2 0x6AB6 PUSH2 0x6E7F JUMP JUMPDEST DUP2 MSTORE PUSH1 0x20 ADD PUSH2 0x6AC3 PUSH2 0x6E7F JUMP JUMPDEST DUP2 MSTORE PUSH1 0x20 ADD PUSH2 0x6AD0 PUSH2 0x6E7F JUMP JUMPDEST DUP2 MSTORE PUSH1 0x20 ADD PUSH2 0x6ADD PUSH2 0x6E7F JUMP JUMPDEST DUP2 MSTORE PUSH1 0x20 ADD PUSH2 0x6AEA PUSH2 0x6E7F JUMP JUMPDEST DUP2 MSTORE PUSH1 0x20 ADD PUSH2 0x6AF7 PUSH2 0x6E7F JUMP JUMPDEST DUP2 MSTORE PUSH1 0x20 ADD PUSH2 0x6B04 PUSH2 0x6E7F JUMP JUMPDEST DUP2 MSTORE POP SWAP1 JUMP JUMPDEST PUSH1 0x40 MLOAD DUP1 PUSH2 0x220 ADD PUSH1 0x40 MSTORE DUP1 PUSH1 0x0 DUP2 MSTORE PUSH1 0x20 ADD PUSH1 0x0 DUP2 MSTORE PUSH1 0x20 ADD PUSH1 0x0 DUP2 MSTORE PUSH1 0x20 ADD PUSH2 0x6B33 PUSH2 0x705B JUMP JUMPDEST DUP2 MSTORE PUSH1 0x20 ADD PUSH2 0x6B40 PUSH2 0x705B JUMP JUMPDEST DUP2 MSTORE PUSH1 0x20 ADD PUSH2 0x6B4D PUSH2 0x705B JUMP JUMPDEST DUP2 MSTORE PUSH1 0x20 ADD PUSH2 0x6B5A PUSH2 0x705B JUMP JUMPDEST DUP2 MSTORE PUSH1 0x20 ADD PUSH2 0x6B67 PUSH2 0x705B JUMP JUMPDEST DUP2 MSTORE PUSH1 0x20 ADD PUSH2 0x6B74 PUSH2 0x705B JUMP JUMPDEST DUP2 MSTORE PUSH1 0x20 ADD PUSH2 0x6B81 PUSH2 0x705B JUMP JUMPDEST DUP2 MSTORE PUSH1 0x20 ADD PUSH2 0x6B8E PUSH2 0x705B JUMP JUMPDEST DUP2 MSTORE PUSH1 0x20 ADD PUSH2 0x6B9B PUSH2 0x7083 JUMP JUMPDEST DUP2 MSTORE PUSH1 0x20 ADD PUSH2 0x6BA8 PUSH2 0x70B1 JUMP JUMPDEST DUP2 MSTORE PUSH1 0x20 ADD PUSH2 0x6BB5 PUSH2 0x70D4 JUMP JUMPDEST DUP2 MSTORE PUSH1 0x20 ADD PUSH2 0x6BC2 PUSH2 0x6D45 JUMP JUMPDEST DUP2 MSTORE PUSH1 0x20 ADD PUSH2 0x6BCF PUSH2 0x705B JUMP JUMPDEST DUP2 MSTORE PUSH1 0x20 ADD PUSH2 0x6BDC PUSH2 0x705B JUMP JUMPDEST DUP2 MSTORE POP SWAP1 JUMP JUMPDEST PUSH1 0x40 MLOAD DUP1 PUSH2 0x1A0 ADD PUSH1 0x40 MSTORE DUP1 PUSH1 0x0 DUP2 MSTORE PUSH1 0x20 ADD PUSH1 0x0 DUP2 MSTORE PUSH1 0x20 ADD PUSH1 0x0 DUP2 MSTORE PUSH1 0x20 ADD PUSH1 0x0 DUP2 MSTORE PUSH1 0x20 ADD PUSH1 0x0 DUP2 MSTORE PUSH1 0x20 ADD PUSH2 0x6C19 PUSH2 0x6CFF JUMP JUMPDEST DUP2 MSTORE PUSH1 0x20 ADD PUSH2 0x6C26 PUSH2 0x6D45 JUMP JUMPDEST DUP2 MSTORE PUSH1 0x20 ADD PUSH2 0x6C33 PUSH2 0x6D45 JUMP JUMPDEST DUP2 MSTORE PUSH1 0x20 ADD PUSH1 0x0 DUP2 MSTORE PUSH1 0x20 ADD PUSH1 0x0 DUP2 MSTORE PUSH1 0x20 ADD PUSH1 0x0 DUP2 MSTORE PUSH1 0x20 ADD PUSH1 0x0 DUP2 MSTORE PUSH1 0x20 ADD PUSH1 0x0 DUP2 MSTORE POP SWAP1 JUMP JUMPDEST PUSH1 0x40 MLOAD DUP1 PUSH1 0xA0 ADD PUSH1 0x40 MSTORE DUP1 PUSH1 0x0 DUP2 MSTORE PUSH1 0x20 ADD PUSH1 0x0 DUP2 MSTORE PUSH1 0x20 ADD PUSH1 0x0 DUP2 MSTORE PUSH1 0x20 ADD PUSH1 0x0 DUP2 MSTORE PUSH1 0x20 ADD PUSH1 0x0 DUP2 MSTORE POP SWAP1 JUMP JUMPDEST PUSH1 0x40 MLOAD DUP1 PUSH2 0x940 ADD PUSH1 0x40 MSTORE DUP1 PUSH1 0x4A SWAP1 PUSH1 0x20 DUP3 MUL DUP1 CALLDATASIZE DUP4 CALLDATACOPY DUP1 DUP3 ADD SWAP2 POP POP SWAP1 POP POP SWAP1 JUMP JUMPDEST PUSH1 0x40 MLOAD DUP1 PUSH2 0x940 ADD PUSH1 0x40 MSTORE DUP1 PUSH1 0x4A SWAP1 JUMPDEST PUSH2 0x6CC6 PUSH2 0x6E7F JUMP JUMPDEST DUP2 MSTORE PUSH1 0x20 ADD SWAP1 PUSH1 0x1 SWAP1 SUB SWAP1 DUP2 PUSH2 0x6CBE JUMPI SWAP1 POP POP SWAP1 JUMP JUMPDEST PUSH1 0x40 MLOAD DUP1 PUSH2 0x1A0 ADD PUSH1 0x40 MSTORE DUP1 PUSH1 0xD SWAP1 PUSH1 0x20 DUP3 MUL DUP1 CALLDATASIZE DUP4 CALLDATACOPY DUP1 DUP3 ADD SWAP2 POP POP SWAP1 POP POP SWAP1 JUMP JUMPDEST PUSH1 0x40 MLOAD DUP1 PUSH2 0x320 ADD PUSH1 0x40 MSTORE DUP1 PUSH1 0x19 SWAP1 PUSH1 0x20 DUP3 MUL DUP1 CALLDATASIZE DUP4 CALLDATACOPY DUP1 DUP3 ADD SWAP2 POP POP SWAP1 POP POP SWAP1 JUMP JUMPDEST PUSH1 0x40 MLOAD DUP1 PUSH2 0x120 ADD PUSH1 0x40 MSTORE DUP1 PUSH1 0x9 SWAP1 PUSH1 0x20 DUP3 MUL DUP1 CALLDATASIZE DUP4 CALLDATACOPY DUP1 DUP3 ADD SWAP2 POP POP SWAP1 POP POP SWAP1 JUMP JUMPDEST PUSH1 0x40 MLOAD DUP1 PUSH2 0x380 ADD PUSH1 0x40 MSTORE DUP1 PUSH1 0x1C SWAP1 PUSH1 0x20 DUP3 MUL DUP1 CALLDATASIZE DUP4 CALLDATACOPY DUP1 DUP3 ADD SWAP2 POP POP SWAP1 POP POP SWAP1 JUMP JUMPDEST PUSH1 0x40 MLOAD DUP1 PUSH2 0x120 ADD PUSH1 0x40 MSTORE DUP1 PUSH1 0x9 SWAP1 PUSH1 0x20 DUP3 MUL DUP1 CALLDATASIZE DUP4 CALLDATACOPY DUP1 DUP3 ADD SWAP2 POP POP SWAP1 POP POP SWAP1 JUMP JUMPDEST PUSH1 0x40 MLOAD DUP1 PUSH2 0x5A0 ADD PUSH1 0x40 MSTORE DUP1 PUSH1 0x2D SWAP1 PUSH1 0x20 DUP3 MUL DUP1 CALLDATASIZE DUP4 CALLDATACOPY DUP1 DUP3 ADD SWAP2 POP POP SWAP1 POP POP SWAP1 JUMP JUMPDEST PUSH1 0x40 MLOAD DUP1 PUSH2 0xDA0 ADD PUSH1 0x40 MSTORE DUP1 PUSH1 0x6D SWAP1 PUSH1 0x20 DUP3 MUL DUP1 CALLDATASIZE DUP4 CALLDATACOPY DUP1 DUP3 ADD SWAP2 POP POP SWAP1 POP POP SWAP1 JUMP JUMPDEST PUSH1 0x40 MLOAD DUP1 PUSH2 0x3A0 ADD PUSH1 0x40 MSTORE DUP1 PUSH1 0x1D SWAP1 PUSH1 0x20 DUP3 MUL DUP1 CALLDATASIZE DUP4 CALLDATACOPY DUP1 DUP3 ADD SWAP2 POP POP SWAP1 POP POP SWAP1 JUMP JUMPDEST PUSH1 0x40 MLOAD DUP1 PUSH1 0xA0 ADD PUSH1 0x40 MSTORE DUP1 PUSH1 0x5 SWAP1 PUSH1 0x20 DUP3 MUL DUP1 CALLDATASIZE DUP4 CALLDATACOPY DUP1 DUP3 ADD SWAP2 POP POP SWAP1 POP POP SWAP1 JUMP JUMPDEST PUSH1 0x40 MLOAD DUP1 PUSH2 0x100 ADD PUSH1 0x40 MSTORE DUP1 PUSH1 0x8 SWAP1 PUSH1 0x20 DUP3 MUL DUP1 CALLDATASIZE DUP4 CALLDATACOPY DUP1 DUP3 ADD SWAP2 POP POP SWAP1 POP POP SWAP1 JUMP JUMPDEST PUSH1 0x40 MLOAD DUP1 PUSH2 0x340 ADD PUSH1 0x40 MSTORE DUP1 PUSH1 0x1A SWAP1 PUSH1 0x20 DUP3 MUL DUP1 CALLDATASIZE DUP4 CALLDATACOPY DUP1 DUP3 ADD SWAP2 POP POP SWAP1 POP POP SWAP1 JUMP JUMPDEST PUSH1 0x40 MLOAD DUP1 PUSH2 0x3A0 ADD PUSH1 0x40 MSTORE DUP1 PUSH1 0x1D SWAP1 PUSH1 0x20 DUP3 MUL DUP1 CALLDATASIZE DUP4 CALLDATACOPY DUP1 DUP3 ADD SWAP2 POP POP SWAP1 POP POP SWAP1 JUMP JUMPDEST PUSH1 0x40 MLOAD DUP1 PUSH1 0x40 ADD PUSH1 0x40 MSTORE DUP1 PUSH1 0x0 DUP2 MSTORE PUSH1 0x20 ADD PUSH1 0x0 DUP2 MSTORE POP SWAP1 JUMP JUMPDEST PUSH1 0x40 MLOAD DUP1 PUSH1 0xE0 ADD PUSH1 0x40 MSTORE DUP1 PUSH1 0x0 DUP2 MSTORE PUSH1 0x20 ADD PUSH1 0x0 DUP2 MSTORE PUSH1 0x20 ADD PUSH1 0x0 DUP2 MSTORE PUSH1 0x20 ADD PUSH1 0x0 DUP2 MSTORE PUSH1 0x20 ADD PUSH1 0x0 DUP2 MSTORE PUSH1 0x20 ADD PUSH1 0x0 DUP2 MSTORE PUSH1 0x20 ADD PUSH1 0x0 DUP2 MSTORE POP SWAP1 JUMP JUMPDEST PUSH1 0x40 MLOAD DUP1 PUSH2 0x2C0 ADD PUSH1 0x40 MSTORE DUP1 PUSH1 0x0 DUP2 MSTORE PUSH1 0x20 ADD PUSH1 0x0 DUP2 MSTORE PUSH1 0x20 ADD PUSH1 0x0 DUP2 MSTORE PUSH1 0x20 ADD PUSH1 0x0 DUP2 MSTORE PUSH1 0x20 ADD PUSH1 0x0 DUP2 MSTORE PUSH1 0x20 ADD PUSH1 0x0 DUP2 MSTORE PUSH1 0x20 ADD PUSH1 0x0 DUP2 MSTORE PUSH1 0x20 ADD PUSH1 0x0 DUP2 MSTORE PUSH1 0x20 ADD PUSH1 0x0 DUP2 MSTORE PUSH1 0x20 ADD PUSH1 0x0 DUP2 MSTORE PUSH1 0x20 ADD PUSH1 0x0 DUP2 MSTORE PUSH1 0x20 ADD PUSH1 0x0 DUP2 MSTORE PUSH1 0x20 ADD PUSH1 0x0 DUP2 MSTORE PUSH1 0x20 ADD PUSH1 0x0 DUP2 MSTORE PUSH1 0x20 ADD PUSH1 0x0 DUP2 MSTORE PUSH1 0x20 ADD PUSH1 0x0 DUP2 MSTORE PUSH1 0x20 ADD PUSH1 0x0 DUP2 MSTORE PUSH1 0x20 ADD PUSH1 0x0 DUP2 MSTORE PUSH1 0x20 ADD PUSH1 0x0 DUP2 MSTORE PUSH1 0x20 ADD PUSH1 0x0 DUP2 MSTORE PUSH1 0x20 ADD PUSH1 0x0 DUP2 MSTORE PUSH1 0x20 ADD PUSH1 0x0 DUP2 MSTORE POP SWAP1 JUMP JUMPDEST PUSH1 0x40 MLOAD DUP1 PUSH2 0x220 ADD PUSH1 0x40 MSTORE DUP1 PUSH1 0x0 DUP2 MSTORE PUSH1 0x20 ADD PUSH1 0x0 DUP2 MSTORE PUSH1 0x20 ADD PUSH1 0x0 DUP2 MSTORE PUSH1 0x20 ADD PUSH1 0x0 DUP2 MSTORE PUSH1 0x20 ADD PUSH1 0x0 DUP2 MSTORE PUSH1 0x20 ADD PUSH1 0x0 DUP2 MSTORE PUSH1 0x20 ADD PUSH1 0x0 DUP2 MSTORE PUSH1 0x20 ADD PUSH1 0x0 DUP2 MSTORE PUSH1 0x20 ADD PUSH1 0x0 DUP2 MSTORE PUSH1 0x20 ADD PUSH1 0x0 DUP2 MSTORE PUSH1 0x20 ADD PUSH1 0x0 DUP2 MSTORE PUSH1 0x20 ADD PUSH1 0x0 DUP2 MSTORE PUSH1 0x20 ADD PUSH1 0x0 DUP2 MSTORE PUSH1 0x20 ADD PUSH1 0x0 DUP2 MSTORE PUSH1 0x20 ADD PUSH1 0x0 DUP2 MSTORE PUSH1 0x20 ADD PUSH1 0x0 DUP2 MSTORE PUSH1 0x20 ADD PUSH1 0x0 DUP2 MSTORE POP SWAP1 JUMP JUMPDEST PUSH1 0x40 MLOAD DUP1 PUSH2 0x160 ADD PUSH1 0x40 MSTORE DUP1 PUSH1 0x0 DUP2 MSTORE PUSH1 0x20 ADD PUSH1 0x0 DUP2 MSTORE PUSH1 0x20 ADD PUSH1 0x0 DUP2 MSTORE PUSH1 0x20 ADD PUSH1 0x0 DUP2 MSTORE PUSH1 0x20 ADD PUSH1 0x0 DUP2 MSTORE PUSH1 0x20 ADD PUSH1 0x0 DUP2 MSTORE PUSH1 0x20 ADD PUSH1 0x0 DUP2 MSTORE PUSH1 0x20 ADD PUSH1 0x0 DUP2 MSTORE PUSH1 0x20 ADD PUSH1 0x0 DUP2 MSTORE PUSH1 0x20 ADD PUSH1 0x0 DUP2 MSTORE PUSH1 0x20 ADD PUSH1 0x0 DUP2 MSTORE POP SWAP1 JUMP JUMPDEST PUSH1 0x40 MLOAD DUP1 PUSH1 0x80 ADD PUSH1 0x40 MSTORE DUP1 PUSH1 0x0 DUP2 MSTORE PUSH1 0x20 ADD PUSH1 0x0 DUP2 MSTORE PUSH1 0x20 ADD PUSH1 0x0 DUP2 MSTORE PUSH1 0x20 ADD PUSH1 0x0 DUP2 MSTORE POP SWAP1 JUMP JUMPDEST PUSH1 0x40 MLOAD DUP1 PUSH2 0x380 ADD PUSH1 0x40 MSTORE DUP1 PUSH1 0x1C SWAP1 JUMPDEST PUSH2 0x709B PUSH2 0x6E16 JUMP JUMPDEST DUP2 MSTORE PUSH1 0x20 ADD SWAP1 PUSH1 0x1 SWAP1 SUB SWAP1 DUP2 PUSH2 0x7093 JUMPI SWAP1 POP POP SWAP1 JUMP JUMPDEST PUSH1 0x40 MLOAD DUP1 PUSH2 0x580 ADD PUSH1 0x40 MSTORE DUP1 PUSH1 0x2C SWAP1 PUSH1 0x20 DUP3 MUL DUP1 CALLDATASIZE DUP4 CALLDATACOPY DUP1 DUP3 ADD SWAP2 POP POP SWAP1 POP POP SWAP1 JUMP JUMPDEST PUSH1 0x40 MLOAD DUP1 PUSH2 0x360 ADD PUSH1 0x40 MSTORE DUP1 PUSH1 0x1B SWAP1 JUMPDEST PUSH2 0x70EC PUSH2 0x705B JUMP JUMPDEST DUP2 MSTORE PUSH1 0x20 ADD SWAP1 PUSH1 0x1 SWAP1 SUB SWAP1 DUP2 PUSH2 0x70E4 JUMPI SWAP1 POP POP SWAP1 JUMP JUMPDEST PUSH1 0x0 DUP1 REVERT JUMPDEST PUSH1 0x0 DUP1 REVERT JUMPDEST PUSH1 0x0 DUP1 REVERT JUMPDEST PUSH1 0x0 DUP1 REVERT JUMPDEST PUSH1 0x0 DUP1 REVERT JUMPDEST PUSH1 0x0 DUP1 DUP4 PUSH1 0x1F DUP5 ADD SLT PUSH2 0x7131 JUMPI PUSH2 0x7130 PUSH2 0x710C JUMP JUMPDEST JUMPDEST DUP3 CALLDATALOAD SWAP1 POP PUSH8 0xFFFFFFFFFFFFFFFF DUP2 GT ISZERO PUSH2 0x714E JUMPI PUSH2 0x714D PUSH2 0x7111 JUMP JUMPDEST JUMPDEST PUSH1 0x20 DUP4 ADD SWAP2 POP DUP4 PUSH1 0x1 DUP3 MUL DUP4 ADD GT ISZERO PUSH2 0x716A JUMPI PUSH2 0x7169 PUSH2 0x7116 JUMP JUMPDEST JUMPDEST SWAP3 POP SWAP3 SWAP1 POP JUMP JUMPDEST PUSH1 0x0 DUP1 DUP4 PUSH1 0x1F DUP5 ADD SLT PUSH2 0x7187 JUMPI PUSH2 0x7186 PUSH2 0x710C JUMP JUMPDEST JUMPDEST DUP3 CALLDATALOAD SWAP1 POP PUSH8 0xFFFFFFFFFFFFFFFF DUP2 GT ISZERO PUSH2 0x71A4 JUMPI PUSH2 0x71A3 PUSH2 0x7111 JUMP JUMPDEST JUMPDEST PUSH1 0x20 DUP4 ADD SWAP2 POP DUP4 PUSH1 0x20 DUP3 MUL DUP4 ADD GT ISZERO PUSH2 0x71C0 JUMPI PUSH2 0x71BF PUSH2 0x7116 JUMP JUMPDEST JUMPDEST SWAP3 POP SWAP3 SWAP1 POP JUMP JUMPDEST PUSH1 0x0 DUP1 PUSH1 0x0 DUP1 PUSH1 0x40 DUP6 DUP8 SUB SLT ISZERO PUSH2 0x71E1 JUMPI PUSH2 0x71E0 PUSH2 0x7102 JUMP JUMPDEST JUMPDEST PUSH1 0x0 DUP6 ADD CALLDATALOAD PUSH8 0xFFFFFFFFFFFFFFFF DUP2 GT ISZERO PUSH2 0x71FF JUMPI PUSH2 0x71FE PUSH2 0x7107 JUMP JUMPDEST JUMPDEST PUSH2 0x720B DUP8 DUP3 DUP9 ADD PUSH2 0x711B JUMP JUMPDEST SWAP5 POP SWAP5 POP POP PUSH1 0x20 DUP6 ADD CALLDATALOAD PUSH8 0xFFFFFFFFFFFFFFFF DUP2 GT ISZERO PUSH2 0x722E JUMPI PUSH2 0x722D PUSH2 0x7107 JUMP JUMPDEST JUMPDEST PUSH2 0x723A DUP8 DUP3 DUP9 ADD PUSH2 0x7171 JUMP JUMPDEST SWAP3 POP SWAP3 POP POP SWAP3 SWAP6 SWAP2 SWAP5 POP SWAP3 POP JUMP JUMPDEST PUSH1 0x0 DUP2 ISZERO ISZERO SWAP1 POP SWAP2 SWAP1 POP JUMP JUMPDEST PUSH2 0x725D DUP2 PUSH2 0x7248 JUMP JUMPDEST DUP3 MSTORE POP POP JUMP JUMPDEST PUSH1 0x0 PUSH1 0x20 DUP3 ADD SWAP1 POP PUSH2 0x7278 PUSH1 0x0 DUP4 ADD DUP5 PUSH2 0x7254 JUMP JUMPDEST SWAP3 SWAP2 POP POP JUMP JUMPDEST PUSH1 0x0 DUP1 REVERT JUMPDEST PUSH1 0x0 DUP1 REVERT JUMPDEST PUSH1 0x0 DUP1 DUP6 DUP6 GT ISZERO PUSH2 0x729C JUMPI PUSH2 0x729B PUSH2 0x727E JUMP JUMPDEST JUMPDEST DUP4 DUP7 GT ISZERO PUSH2 0x72AD JUMPI PUSH2 0x72AC PUSH2 0x7283 JUMP JUMPDEST JUMPDEST PUSH1 0x1 DUP6 MUL DUP4 ADD SWAP2 POP DUP5 DUP7 SUB SWAP1 POP SWAP5 POP SWAP5 SWAP3 POP POP POP JUMP JUMPDEST PUSH1 0x0 DUP3 SWAP1 POP SWAP3 SWAP2 POP POP JUMP JUMPDEST PUSH1 0x0 DUP2 SWAP1 POP SWAP2 SWAP1 POP JUMP JUMPDEST PUSH1 0x0 DUP3 DUP3 SHL SWAP1 POP SWAP3 SWAP2 POP POP JUMP JUMPDEST PUSH1 0x0 PUSH2 0x72F1 DUP4 DUP4 PUSH2 0x72C3 JUMP JUMPDEST DUP3 PUSH2 0x72FC DUP2 CALLDATALOAD PUSH2 0x72CE JUMP JUMPDEST SWAP3 POP PUSH1 0x20 DUP3 LT ISZERO PUSH2 0x733C JUMPI PUSH2 0x7337 PUSH32 0xFFFFFFFFFFFFFFFFFFFFFFFFFFFFFFFFFFFFFFFFFFFFFFFFFFFFFFFFFFFFFFFF DUP4 PUSH1 0x20 SUB PUSH1 0x8 MUL PUSH2 0x72D8 JUMP JUMPDEST DUP4 AND SWAP3 POP JUMPDEST POP POP SWAP3 SWAP2 POP POP JUMP JUMPDEST PUSH1 0x0 DUP2 SWAP1 POP SWAP2 SWAP1 POP JUMP JUMPDEST PUSH32 0x4E487B7100000000000000000000000000000000000000000000000000000000 PUSH1 0x0 MSTORE PUSH1 0x11 PUSH1 0x4 MSTORE PUSH1 0x24 PUSH1 0x0 REVERT JUMPDEST PUSH1 0x0 PUSH2 0x7388 DUP3 PUSH2 0x7344 JUMP JUMPDEST SWAP2 POP PUSH2 0x7393 DUP4 PUSH2 0x7344 JUMP JUMPDEST SWAP3 POP DUP3 DUP3 MUL PUSH2 0x73A1 DUP2 PUSH2 0x7344 JUMP JUMPDEST SWAP2 POP DUP3 DUP3 DIV DUP5 EQ DUP4 ISZERO OR PUSH2 0x73B8 JUMPI PUSH2 0x73B7 PUSH2 0x734E JUMP JUMPDEST JUMPDEST POP SWAP3 SWAP2 POP POP JUMP JUMPDEST PUSH1 0x0 PUSH2 0x73CA DUP3 PUSH2 0x7344 JUMP JUMPDEST SWAP2 POP PUSH2 0x73D5 DUP4 PUSH2 0x7344 JUMP JUMPDEST SWAP3 POP DUP3 DUP3 ADD SWAP1 POP DUP1 DUP3 GT ISZERO PUSH2 0x73ED JUMPI PUSH2 0x73EC PUSH2 0x734E JUMP JUMPDEST JUMPDEST SWAP3 SWAP2 POP POP JUMP JUMPDEST PUSH32 0x4E487B7100000000000000000000000000000000000000000000000000000000 PUSH1 0x0 MSTORE PUSH1 0x32 PUSH1 0x4 MSTORE PUSH1 0x24 PUSH1 0x0 REVERT JUMPDEST PUSH1 0x0 PUSH2 0x742D DUP3 PUSH2 0x7344 JUMP JUMPDEST SWAP2 POP PUSH2 0x7438 DUP4 PUSH2 0x7344 JUMP JUMPDEST SWAP3 POP DUP3 DUP3 SUB SWAP1 POP DUP2 DUP2 GT ISZERO PUSH2 0x7450 JUMPI PUSH2 0x744F PUSH2 0x734E JUMP JUMPDEST JUMPDEST SWAP3 SWAP2 POP POP JUMP JUMPDEST PUSH1 0x0 PUSH2 0x7461 DUP3 PUSH2 0x7344 JUMP JUMPDEST SWAP2 POP PUSH32 0xFFFFFFFFFFFFFFFFFFFFFFFFFFFFFFFFFFFFFFFFFFFFFFFFFFFFFFFFFFFFFFFF DUP3 SUB PUSH2 0x7493 JUMPI PUSH2 0x7492 PUSH2 0x734E JUMP JUMPDEST JUMPDEST PUSH1 0x1 DUP3 ADD SWAP1 POP SWAP2 SWAP1 POP JUMP JUMPDEST PUSH32 0x4E487B7100000000000000000000000000000000000000000000000000000000 PUSH1 0x0 MSTORE PUSH1 0x12 PUSH1 0x4 MSTORE PUSH1 0x24 PUSH1 0x0 REVERT JUMPDEST PUSH1 0x0 PUSH2 0x74D8 DUP3 PUSH2 0x7344 JUMP JUMPDEST SWAP2 POP PUSH2 0x74E3 DUP4 PUSH2 0x7344 JUMP JUMPDEST SWAP3 POP DUP3 PUSH2 0x74F3 JUMPI PUSH2 0x74F2 PUSH2 0x749E JUMP JUMPDEST JUMPDEST DUP3 DUP3 MOD SWAP1 POP SWAP3 SWAP2 POP POP JUMP JUMPDEST PUSH32 0x4E487B7100000000000000000000000000000000000000000000000000000000 PUSH1 0x0 MSTORE PUSH1 0x41 PUSH1 0x4 MSTORE PUSH1 0x24 PUSH1 0x0 REVERT JUMPDEST PUSH1 0x0 DUP2 MLOAD SWAP1 POP SWAP2 SWAP1 POP JUMP JUMPDEST PUSH1 0x0 DUP2 SWAP1 POP SWAP3 SWAP2 POP POP JUMP JUMPDEST PUSH1 0x0 DUP2 SWAP1 POP PUSH1 0x20 DUP3 ADD SWAP1 POP SWAP2 SWAP1 POP JUMP JUMPDEST PUSH2 0x755C DUP2 PUSH2 0x72CE JUMP JUMPDEST DUP3 MSTORE POP POP JUMP JUMPDEST PUSH1 0x0 PUSH2 0x756E DUP4 DUP4 PUSH2 0x7553 JUMP JUMPDEST PUSH1 0x20 DUP4 ADD SWAP1 POP SWAP3 SWAP2 POP POP JUMP JUMPDEST PUSH1 0x0 PUSH1 0x20 DUP3 ADD SWAP1 POP SWAP2 SWAP1 POP JUMP JUMPDEST PUSH1 0x0 PUSH2 0x7592 DUP3 PUSH2 0x752D JUMP JUMPDEST PUSH2 0x759C DUP2 DUP6 PUSH2 0x7538 JUMP JUMPDEST SWAP4 POP PUSH2 0x75A7 DUP4 PUSH2 0x7543 JUMP JUMPDEST DUP1 PUSH1 0x0 JUMPDEST DUP4 DUP2 LT ISZERO PUSH2 0x75D8 JUMPI DUP2 MLOAD PUSH2 0x75BF DUP9 DUP3 PUSH2 0x7562 JUMP JUMPDEST SWAP8 POP PUSH2 0x75CA DUP4 PUSH2 0x757A JUMP JUMPDEST SWAP3 POP POP PUSH1 0x1 DUP2 ADD SWAP1 POP PUSH2 0x75AB JUMP JUMPDEST POP DUP6 SWAP4 POP POP POP POP SWAP3 SWAP2 POP POP JUMP JUMPDEST PUSH1 0x0 PUSH2 0x75F1 DUP3 DUP5 PUSH2 0x7587 JUMP JUMPDEST SWAP2 POP DUP2 SWAP1 POP SWAP3 SWAP2 POP POP JUMP JUMPDEST PUSH1 0x0 DUP2 SWAP1 POP SWAP2 SWAP1 POP JUMP JUMPDEST PUSH2 0x7617 PUSH2 0x7612 DUP3 PUSH2 0x7344 JUMP JUMPDEST PUSH2 0x75FC JUMP JUMPDEST DUP3 MSTORE POP POP JUMP JUMPDEST PUSH1 0x0 PUSH2 0x7629 DUP3 DUP5 PUSH2 0x7606 JUMP JUMPDEST PUSH1 0x20 DUP3 ADD SWAP2 POP DUP2 SWAP1 POP SWAP3 SWAP2 POP POP JUMP JUMPDEST PUSH1 0x0 PUSH1 0xD SWAP1 POP SWAP2 SWAP1 POP JUMP JUMPDEST PUSH1 0x0 DUP2 SWAP1 POP SWAP3 SWAP2 POP POP JUMP JUMPDEST PUSH1 0x0 DUP2 SWAP1 POP SWAP2 SWAP1 POP JUMP JUMPDEST PUSH1 0x0 PUSH1 0x20 DUP3 ADD SWAP1 POP SWAP2 SWAP1 POP JUMP JUMPDEST PUSH2 0x766E DUP2 PUSH2 0x7638 JUMP JUMPDEST PUSH2 0x7678 DUP2 DUP5 PUSH2 0x7643 JUMP JUMPDEST SWAP3 POP PUSH2 0x7683 DUP3 PUSH2 0x764E JUMP JUMPDEST DUP1 PUSH1 0x0 JUMPDEST DUP4 DUP2 LT ISZERO PUSH2 0x76B4 JUMPI DUP2 MLOAD PUSH2 0x769B DUP8 DUP3 PUSH2 0x7562 JUMP JUMPDEST SWAP7 POP PUSH2 0x76A6 DUP4 PUSH2 0x7658 JUMP JUMPDEST SWAP3 POP POP PUSH1 0x1 DUP2 ADD SWAP1 POP PUSH2 0x7687 JUMP JUMPDEST POP POP POP POP POP POP JUMP JUMPDEST PUSH1 0x0 PUSH2 0x76C8 DUP3 DUP5 PUSH2 0x7665 JUMP JUMPDEST PUSH2 0x1A0 DUP3 ADD SWAP2 POP DUP2 SWAP1 POP SWAP3 SWAP2 POP POP JUMP JUMPDEST PUSH1 0x0 PUSH1 0x9 SWAP1 POP SWAP2 SWAP1 POP JUMP JUMPDEST PUSH1 0x0 DUP2 SWAP1 POP SWAP3 SWAP2 POP POP JUMP JUMPDEST PUSH1 0x0 DUP2 SWAP1 POP SWAP2 SWAP1 POP JUMP JUMPDEST PUSH2 0x7701 DUP2 PUSH2 0x7344 JUMP JUMPDEST DUP3 MSTORE POP POP JUMP JUMPDEST PUSH1 0x0 PUSH2 0x7713 DUP4 DUP4 PUSH2 0x76F8 JUMP JUMPDEST PUSH1 0x20 DUP4 ADD SWAP1 POP SWAP3 SWAP2 POP POP JUMP JUMPDEST PUSH1 0x0 PUSH1 0x20 DUP3 ADD SWAP1 POP SWAP2 SWAP1 POP JUMP JUMPDEST PUSH2 0x7735 DUP2 PUSH2 0x76D8 JUMP JUMPDEST PUSH2 0x773F DUP2 DUP5 PUSH2 0x76E3 JUMP JUMPDEST SWAP3 POP PUSH2 0x774A DUP3 PUSH2 0x76EE JUMP JUMPDEST DUP1 PUSH1 0x0 JUMPDEST DUP4 DUP2 LT ISZERO PUSH2 0x777B JUMPI DUP2 MLOAD PUSH2 0x7762 DUP8 DUP3 PUSH2 0x7707 JUMP JUMPDEST SWAP7 POP PUSH2 0x776D DUP4 PUSH2 0x771F JUMP JUMPDEST SWAP3 POP POP PUSH1 0x1 DUP2 ADD SWAP1 POP PUSH2 0x774E JUMP JUMPDEST POP POP POP POP POP POP JUMP JUMPDEST PUSH1 0x0 PUSH2 0x778F DUP3 DUP5 PUSH2 0x772C JUMP JUMPDEST PUSH2 0x120 DUP3 ADD SWAP2 POP DUP2 SWAP1 POP SWAP3 SWAP2 POP POP JUMP JUMPDEST PUSH1 0x0 PUSH2 0x77AA DUP3 PUSH2 0x7344 JUMP JUMPDEST SWAP2 POP PUSH2 0x77B5 DUP4 PUSH2 0x7344 JUMP JUMPDEST SWAP3 POP DUP3 PUSH2 0x77C5 JUMPI PUSH2 0x77C4 PUSH2 0x749E JUMP JUMPDEST JUMPDEST DUP3 DUP3 DIV SWAP1 POP SWAP3 SWAP2 POP POP JUMP JUMPDEST PUSH1 0x0 PUSH1 0x9 SWAP1 POP SWAP2 SWAP1 POP JUMP JUMPDEST PUSH1 0x0 DUP2 SWAP1 POP SWAP2 SWAP1 POP JUMP JUMPDEST PUSH1 0x0 DUP2 SWAP1 POP SWAP2 SWAP1 POP JUMP JUMPDEST PUSH1 0x0 PUSH2 0x780A PUSH2 0x7805 PUSH2 0x7800 DUP5 PUSH2 0x7344 JUMP JUMPDEST PUSH2 0x77E5 JUMP JUMPDEST PUSH2 0x7344 JUMP JUMPDEST SWAP1 POP SWAP2 SWAP1 POP JUMP JUMPDEST PUSH2 0x781A DUP2 PUSH2 0x77EF JUMP JUMPDEST DUP3 MSTORE POP POP JUMP JUMPDEST PUSH1 0x0 PUSH2 0x782C DUP4 DUP4 PUSH2 0x7811 JUMP JUMPDEST PUSH1 0x20 DUP4 ADD SWAP1 POP SWAP3 SWAP2 POP POP JUMP JUMPDEST PUSH1 0x0 PUSH1 0x20 DUP3 ADD SWAP1 POP SWAP2 SWAP1 POP JUMP JUMPDEST PUSH2 0x784E DUP2 PUSH2 0x77D0 JUMP JUMPDEST PUSH2 0x7858 DUP2 DUP5 PUSH2 0x76E3 JUMP JUMPDEST SWAP3 POP PUSH2 0x7863 DUP3 PUSH2 0x77DB JUMP JUMPDEST DUP1 PUSH1 0x0 JUMPDEST DUP4 DUP2 LT ISZERO PUSH2 0x7894 JUMPI DUP2 MLOAD PUSH2 0x787B DUP8 DUP3 PUSH2 0x7820 JUMP JUMPDEST SWAP7 POP PUSH2 0x7886 DUP4 PUSH2 0x7838 JUMP JUMPDEST SWAP3 POP POP PUSH1 0x1 DUP2 ADD SWAP1 POP PUSH2 0x7867 JUMP JUMPDEST POP POP POP POP POP POP JUMP JUMPDEST PUSH1 0x0 PUSH2 0x78A8 DUP3 DUP5 PUSH2 0x7845 JUMP JUMPDEST PUSH2 0x120 DUP3 ADD SWAP2 POP DUP2 SWAP1 POP SWAP3 SWAP2 POP POP JUMP JUMPDEST PUSH1 0x0 PUSH1 0x2D SWAP1 POP SWAP2 SWAP1 POP JUMP JUMPDEST PUSH1 0x0 DUP2 SWAP1 POP SWAP3 SWAP2 POP POP JUMP JUMPDEST PUSH1 0x0 DUP2 SWAP1 POP SWAP2 SWAP1 POP JUMP JUMPDEST PUSH1 0x0 PUSH1 0x20 DUP3 ADD SWAP1 POP SWAP2 SWAP1 POP JUMP JUMPDEST PUSH2 0x78EE DUP2 PUSH2 0x78B8 JUMP JUMPDEST PUSH2 0x78F8 DUP2 DUP5 PUSH2 0x78C3 JUMP JUMPDEST SWAP3 POP PUSH2 0x7903 DUP3 PUSH2 0x78CE JUMP JUMPDEST DUP1 PUSH1 0x0 JUMPDEST DUP4 DUP2 LT ISZERO PUSH2 0x7934 JUMPI DUP2 MLOAD PUSH2 0x791B DUP8 DUP3 PUSH2 0x7820 JUMP JUMPDEST SWAP7 POP PUSH2 0x7926 DUP4 PUSH2 0x78D8 JUMP JUMPDEST SWAP3 POP POP PUSH1 0x1 DUP2 ADD SWAP1 POP PUSH2 0x7907 JUMP JUMPDEST POP POP POP POP POP POP JUMP JUMPDEST PUSH1 0x0 PUSH2 0x7948 DUP3 DUP5 PUSH2 0x78E5 JUMP JUMPDEST PUSH2 0x5A0 DUP3 ADD SWAP2 POP DUP2 SWAP1 POP SWAP3 SWAP2 POP POP JUMP JUMPDEST PUSH1 0x0 PUSH1 0x6D SWAP1 POP SWAP2 SWAP1 POP JUMP JUMPDEST PUSH1 0x0 DUP2 SWAP1 POP SWAP3 SWAP2 POP POP JUMP JUMPDEST PUSH1 0x0 DUP2 SWAP1 POP SWAP2 SWAP1 POP JUMP JUMPDEST PUSH1 0x0 PUSH1 0x20 DUP3 ADD SWAP1 POP SWAP2 SWAP1 POP JUMP JUMPDEST PUSH2 0x798E DUP2 PUSH2 0x7958 JUMP JUMPDEST PUSH2 0x7998 DUP2 DUP5 PUSH2 0x7963 JUMP JUMPDEST SWAP3 POP PUSH2 0x79A3 DUP3 PUSH2 0x796E JUMP JUMPDEST DUP1 PUSH1 0x0 JUMPDEST DUP4 DUP2 LT ISZERO PUSH2 0x79D4 JUMPI DUP2 MLOAD PUSH2 0x79BB DUP8 DUP3 PUSH2 0x7707 JUMP JUMPDEST SWAP7 POP PUSH2 0x79C6 DUP4 PUSH2 0x7978 JUMP JUMPDEST SWAP3 POP POP PUSH1 0x1 DUP2 ADD SWAP1 POP PUSH2 0x79A7 JUMP JUMPDEST POP POP POP POP POP POP JUMP JUMPDEST PUSH1 0x0 PUSH2 0x79E8 DUP3 DUP5 PUSH2 0x7985 JUMP JUMPDEST PUSH2 0xDA0 DUP3 ADD SWAP2 POP DUP2 SWAP1 POP SWAP3 SWAP2 POP POP JUMP JUMPDEST PUSH1 0x0 PUSH1 0x1D SWAP1 POP SWAP2 SWAP1 POP JUMP JUMPDEST PUSH1 0x0 DUP2 SWAP1 POP SWAP3 SWAP2 POP POP JUMP JUMPDEST PUSH1 0x0 DUP2 SWAP1 POP SWAP2 SWAP1 POP JUMP JUMPDEST PUSH1 0x0 PUSH1 0x20 DUP3 ADD SWAP1 POP SWAP2 SWAP1 POP JUMP JUMPDEST PUSH2 0x7A2E DUP2 PUSH2 0x79F8 JUMP JUMPDEST PUSH2 0x7A38 DUP2 DUP5 PUSH2 0x7A03 JUMP JUMPDEST SWAP3 POP PUSH2 0x7A43 DUP3 PUSH2 0x7A0E JUMP JUMPDEST DUP1 PUSH1 0x0 JUMPDEST DUP4 DUP2 LT ISZERO PUSH2 0x7A74 JUMPI DUP2 MLOAD PUSH2 0x7A5B DUP8 DUP3 PUSH2 0x7707 JUMP JUMPDEST SWAP7 POP PUSH2 0x7A66 DUP4 PUSH2 0x7A18 JUMP JUMPDEST SWAP3 POP POP PUSH1 0x1 DUP2 ADD SWAP1 POP PUSH2 0x7A47 JUMP JUMPDEST POP POP POP POP POP POP JUMP JUMPDEST PUSH1 0x0 PUSH2 0x7A88 DUP3 DUP5 PUSH2 0x7A25 JUMP JUMPDEST PUSH2 0x3A0 DUP3 ADD SWAP2 POP DUP2 SWAP1 POP SWAP3 SWAP2 POP POP JUMP JUMPDEST PUSH1 0x0 PUSH1 0x5 SWAP1 POP SWAP2 SWAP1 POP JUMP JUMPDEST PUSH1 0x0 DUP2 SWAP1 POP SWAP3 SWAP2 POP POP JUMP JUMPDEST PUSH1 0x0 DUP2 SWAP1 POP SWAP2 SWAP1 POP JUMP JUMPDEST PUSH1 0x0 PUSH1 0x20 DUP3 ADD SWAP1 POP SWAP2 SWAP1 POP JUMP JUMPDEST PUSH2 0x7ACE DUP2 PUSH2 0x7A98 JUMP JUMPDEST PUSH2 0x7AD8 DUP2 DUP5 PUSH2 0x7AA3 JUMP JUMPDEST SWAP3 POP PUSH2 0x7AE3 DUP3 PUSH2 0x7AAE JUMP JUMPDEST DUP1 PUSH1 0x0 JUMPDEST DUP4 DUP2 LT ISZERO PUSH2 0x7B14 JUMPI DUP2 MLOAD PUSH2 0x7AFB DUP8 DUP3 PUSH2 0x7707 JUMP JUMPDEST SWAP7 POP PUSH2 0x7B06 DUP4 PUSH2 0x7AB8 JUMP JUMPDEST SWAP3 POP POP PUSH1 0x1 DUP2 ADD SWAP1 POP PUSH2 0x7AE7 JUMP JUMPDEST POP POP POP POP POP POP JUMP JUMPDEST PUSH1 0x0 PUSH2 0x7B28 DUP3 DUP5 PUSH2 0x7AC5 JUMP JUMPDEST PUSH1 0xA0 DUP3 ADD SWAP2 POP DUP2 SWAP1 POP SWAP3 SWAP2 POP POP JUMP JUMPDEST PUSH1 0x0 PUSH2 0x7B42 DUP3 PUSH2 0x7344 JUMP JUMPDEST SWAP2 POP PUSH1 0x0 DUP3 SUB PUSH2 0x7B55 JUMPI PUSH2 0x7B54 PUSH2 0x734E JUMP JUMPDEST JUMPDEST PUSH1 0x1 DUP3 SUB SWAP1 POP SWAP2 SWAP1 POP JUMP JUMPDEST PUSH1 0x0 PUSH2 0x7B6C DUP3 DUP16 PUSH2 0x7606 JUMP JUMPDEST PUSH1 0x20 DUP3 ADD SWAP2 POP PUSH2 0x7B7C DUP3 DUP15 PUSH2 0x7606 JUMP JUMPDEST PUSH1 0x20 DUP3 ADD SWAP2 POP PUSH2 0x7B8C DUP3 DUP14 PUSH2 0x7606 JUMP JUMPDEST PUSH1 0x20 DUP3 ADD SWAP2 POP PUSH2 0x7B9C DUP3 DUP13 PUSH2 0x7606 JUMP JUMPDEST PUSH1 0x20 DUP3 ADD SWAP2 POP PUSH2 0x7BAC DUP3 DUP12 PUSH2 0x7606 JUMP JUMPDEST PUSH1 0x20 DUP3 ADD SWAP2 POP PUSH2 0x7BBC DUP3 DUP11 PUSH2 0x7606 JUMP JUMPDEST PUSH1 0x20 DUP3 ADD SWAP2 POP PUSH2 0x7BCC DUP3 DUP10 PUSH2 0x7606 JUMP JUMPDEST PUSH1 0x20 DUP3 ADD SWAP2 POP PUSH2 0x7BDC DUP3 DUP9 PUSH2 0x7606 JUMP JUMPDEST PUSH1 0x20 DUP3 ADD SWAP2 POP PUSH2 0x7BEC DUP3 DUP8 PUSH2 0x7606 JUMP JUMPDEST PUSH1 0x20 DUP3 ADD SWAP2 POP PUSH2 0x7BFC DUP3 DUP7 PUSH2 0x7606 JUMP JUMPDEST PUSH1 0x20 DUP3 ADD SWAP2 POP PUSH2 0x7C0C DUP3 DUP6 PUSH2 0x7606 JUMP JUMPDEST PUSH1 0x20 DUP3 ADD SWAP2 POP PUSH2 0x7C1C DUP3 DUP5 PUSH2 0x7606 JUMP JUMPDEST PUSH1 0x20 DUP3 ADD SWAP2 POP DUP2 SWAP1 POP SWAP14 SWAP13 POP POP POP POP POP POP POP POP POP POP POP POP POP JUMP JUMPDEST PUSH1 0x0 DUP2 MLOAD SWAP1 POP SWAP2 SWAP1 POP JUMP JUMPDEST PUSH1 0x0 DUP2 SWAP1 POP SWAP3 SWAP2 POP POP JUMP JUMPDEST PUSH1 0x0 JUMPDEST DUP4 DUP2 LT ISZERO PUSH2 0x7C6A JUMPI DUP1 DUP3 ADD MLOAD DUP2 DUP5 ADD MSTORE PUSH1 0x20 DUP2 ADD SWAP1 POP PUSH2 0x7C4F JUMP JUMPDEST PUSH1 0x0 DUP5 DUP5 ADD MSTORE POP POP POP POP JUMP JUMPDEST PUSH1 0x0 PUSH2 0x7C81 DUP3 PUSH2 0x7C36 JUMP JUMPDEST PUSH2 0x7C8B DUP2 DUP6 PUSH2 0x7C41 JUMP JUMPDEST SWAP4 POP PUSH2 0x7C9B DUP2 DUP6 PUSH1 0x20 DUP7 ADD PUSH2 0x7C4C JUMP JUMPDEST DUP1 DUP5 ADD SWAP2 POP POP SWAP3 SWAP2 POP POP JUMP JUMPDEST PUSH1 0x0 PUSH2 0x7CB3 DUP3 DUP5 PUSH2 0x7C76 JUMP JUMPDEST SWAP2 POP DUP2 SWAP1 POP SWAP3 SWAP2 POP POP JUMP JUMPDEST PUSH2 0x7CC7 DUP2 PUSH2 0x7248 JUMP JUMPDEST DUP2 EQ PUSH2 0x7CD2 JUMPI PUSH1 0x0 DUP1 REVERT JUMPDEST POP JUMP JUMPDEST PUSH1 0x0 DUP2 MLOAD SWAP1 POP PUSH2 0x7CE4 DUP2 PUSH2 0x7CBE JUMP JUMPDEST SWAP3 SWAP2 POP POP JUMP JUMPDEST PUSH1 0x0 PUSH1 0x20 DUP3 DUP5 SUB SLT ISZERO PUSH2 0x7D00 JUMPI PUSH2 0x7CFF PUSH2 0x7102 JUMP JUMPDEST JUMPDEST PUSH1 0x0 PUSH2 0x7D0E DUP5 DUP3 DUP6 ADD PUSH2 0x7CD5 JUMP JUMPDEST SWAP2 POP POP SWAP3 SWAP2 POP POP JUMP JUMPDEST PUSH32 0x4E487B7100000000000000000000000000000000000000000000000000000000 PUSH1 0x0 MSTORE PUSH1 0x21 PUSH1 0x4 MSTORE PUSH1 0x24 PUSH1 0x0 REVERT INVALID LOG2 PUSH5 0x6970667358 0x22 SLT KECCAK256 0xC7 STOP SDIV 0xBB 0xDC PUSH2 0x7E70 NOT ADDMOD TSTORE 0xAE CALLDATASIZE SWAP15 0xBD CALLDATASIZE SLT 0xAF 0xD TIMESTAMP 0xF6 PUSH30 0x66ADF372AAA7B34E3CF464736F6C634300081C0033000000000000000000 "},"methodIdentifiers":{"deposit(uint256,uint256)":"e2bbb158","escrowData(address)":"72236b82","paymentToken()":"3013ce29","verifier()":"2b7ac3f3","verifyTest(bytes,bytes32[])":"b12a2c54","withdraw(bytes,uint256,uint256,address)":"4c674934"}}}}}