{"contracts/Escrow.sol":{"OBEscrow":{"abi":[{"inputs":[{"internalType":"address","name":"_paymentToken","type":"address"},{"internalType":"address","name":"_aavePoolAddress","type":"address"}],"stateMutability":"nonpayable","type":"constructor"},{"inputs":[],"name":"aavePool","outputs":[{"internalType":"contract IAavePool","name":"","type":"address"}],"stateMutability":"view","type":"function"},{"inputs":[{"internalType":"uint256","name":"_amount","type":"uint256"},{"internalType":"uint256","name":"_commitment","type":"uint256"}],"name":"deposit","outputs":[],"stateMutability":"nonpayable","type":"function"},{"inputs":[{"internalType":"address","name":"","type":"address"}],"name":"escrowData","outputs":[{"internalType":"uint256","name":"amount","type":"uint256"},{"internalType":"uint256","name":"commitment","type":"uint256"}],"stateMutability":"view","type":"function"},{"inputs":[],"name":"paymentToken","outputs":[{"internalType":"address","name":"","type":"address"}],"stateMutability":"view","type":"function"},{"inputs":[],"name":"verifier","outputs":[{"internalType":"contract HonkVerifier","name":"","type":"address"}],"stateMutability":"view","type":"function"},{"inputs":[{"internalType":"bytes","name":"_proof","type":"bytes"},{"internalType":"bytes32[]","name":"_publicInputs","type":"bytes32[]"}],"name":"verifyTest","outputs":[{"internalType":"bool","name":"","type":"bool"}],"stateMutability":"view","type":"function"},{"inputs":[{"internalType":"bytes","name":"_proof","type":"bytes"},{"internalType":"uint256","name":"_amount","type":"uint256"},{"internalType":"uint256","name":"_commitment","type":"uint256"},{"internalType":"address","name":"_from","type":"address"}],"name":"withdraw","outputs":[],"stateMutability":"nonpayable","type":"function"}],"evm":{"bytecode":{"linkReferences":{},"object":"60806040526040516100109061015a565b604051809103906000f08015801561002c573d6000803e3d6000fd5b50600280546001600160a01b0319166001600160a01b039290921691909117905534801561005957600080fd5b506040516166e23803806166e283398101604081905261007891610183565b6001600160a01b0382166100d35760405162461bcd60e51b815260206004820152601d60248201527f496e76616c6964207061796d656e7420746f6b656e206164647265737300000060448201526064015b60405180910390fd5b6001600160a01b0381166101295760405162461bcd60e51b815260206004820152601960248201527f496e76616c6964204161766520506f6f6c20616464726573730000000000000060448201526064016100ca565b600080546001600160a01b039384166001600160a01b031991821617909155600180549290931691161790556101b6565b61595080610d9283390190565b80516001600160a01b038116811461017e57600080fd5b919050565b6000806040838503121561019657600080fd5b61019f83610167565b91506101ad60208401610167565b90509250929050565b610bcd806101c56000396000f3fe608060405234801561001057600080fd5b506004361061007d5760003560e01c806372236b821161005b57806372236b82146100da578063a03e4bc314610116578063b12a2c5414610129578063e2bbb1581461014c57600080fd5b80632b7ac3f3146100825780633013ce29146100b25780634c674934146100c5575b600080fd5b600254610095906001600160a01b031681565b6040516001600160a01b0390911681526020015b60405180910390f35b600054610095906001600160a01b031681565b6100d86100d33660046108cd565b61015f565b005b6101016100e8366004610934565b6003602052600090815260409020805460019091015482565b604080519283526020830191909152016100a9565b600154610095906001600160a01b031681565b61013c610137366004610956565b61049c565b60405190151581526020016100a9565b6100d861015a3660046109fa565b61051d565b6040805160028082526060820183526000926020830190803683370190505090508260001b8160008151811061019757610197610a1c565b6020026020010181815250508360001b816001815181106101ba576101ba610a1c565b6020908102919091010152600254604051633a94343960e21b81526001600160a01b039091169063ea50d0e4906101f990899089908690600401610a5b565b602060405180830381865afa158015610216573d6000803e3d6000fd5b505050506040513d601f19601f8201168201806040525081019061023a9190610ab7565b61027b5760405162461bcd60e51b815260206004820152600d60248201526c24b73b30b634b210383937b7b360991b60448201526064015b60405180910390fd5b61028a8464e8d4a51000610aef565b6001600160a01b03831660009081526003602052604090208054919550908511156102ee5760405162461bcd60e51b8152602060048201526014602482015273496e73756666696369656e742062616c616e636560601b6044820152606401610272565b838160010154146103415760405162461bcd60e51b815260206004820152601c60248201527f496e76616c696420726563697069656e7420636f6d6d69746d656e74000000006044820152606401610272565b600154600054604051631a4ca37b60e21b81526001600160a01b039182166004820152602481018890523060448201529116906369328dec906064016020604051808303816000875af115801561039c573d6000803e3d6000fd5b505050506040513d601f19601f820116820180604052508101906103c09190610b0c565b5060005460405163a9059cbb60e01b8152336004820152602481018790526001600160a01b039091169063a9059cbb906044016020604051808303816000875af1158015610412573d6000803e3d6000fd5b505050506040513d601f19601f820116820180604052508101906104369190610ab7565b61047a5760405162461bcd60e51b8152602060048201526015602482015274151bdad95b881d1c985b9cd9995c8819985a5b1959605a1b6044820152606401610272565b8481600001600082825461048e9190610b25565b909155505050505050505050565b600254604051633a94343960e21b81526000916001600160a01b03169063ea50d0e4906104d3908890889088908890600401610b38565b602060405180830381865afa1580156104f0573d6000803e3d6000fd5b505050506040513d601f19601f820116820180604052508101906105149190610ab7565b95945050505050565b6000821161056d5760405162461bcd60e51b815260206004820181905260248201527f416d6f756e74206d7573742062652067726561746572207468616e207a65726f6044820152606401610272565b600080546040516370a0823160e01b81523060048201526001600160a01b03909116906370a0823190602401602060405180830381865afa1580156105b6573d6000803e3d6000fd5b505050506040513d601f19601f820116820180604052508101906105da9190610b0c565b6000546040516323b872dd60e01b8152336004820152306024820152604481018690529192506001600160a01b0316906323b872dd906064016020604051808303816000875af1158015610632573d6000803e3d6000fd5b505050506040513d601f19601f820116820180604052508101906106569190610ab7565b50600080546040516370a0823160e01b815230600482015283916001600160a01b0316906370a0823190602401602060405180830381865afa1580156106a0573d6000803e3d6000fd5b505050506040513d601f19601f820116820180604052508101906106c49190610b0c565b6106ce9190610b25565b90508381146107315760405162461bcd60e51b815260206004820152602960248201527f546f6b656e207472616e73666572206661696c6564206f72207061727469616c604482015268103a3930b739b332b960b91b6064820152608401610272565b60005460015460405163095ea7b360e01b81526001600160a01b0391821660048201526024810184905291169063095ea7b3906044016020604051808303816000875af1158015610786573d6000803e3d6000fd5b505050506040513d601f19601f820116820180604052508101906107aa9190610ab7565b506001546000805460405163617ba03760e01b81526001600160a01b0391821660048201526024810185905230604482015260648101929092529091169063617ba03790608401600060405180830381600087803b15801561080b57600080fd5b505af115801561081f573d6000803e3d6000fd5b505033600090815260036020526040812060018101549093509003905061084857600181018490555b8181600001600082825461085c9190610b84565b90915550505050505050565b60008083601f84011261087a57600080fd5b50813567ffffffffffffffff81111561089257600080fd5b6020830191508360208285010111156108aa57600080fd5b9250929050565b80356001600160a01b03811681146108c857600080fd5b919050565b6000806000806000608086880312156108e557600080fd5b853567ffffffffffffffff8111156108fc57600080fd5b61090888828901610868565b9096509450506020860135925060408601359150610928606087016108b1565b90509295509295909350565b60006020828403121561094657600080fd5b61094f826108b1565b9392505050565b6000806000806040858703121561096c57600080fd5b843567ffffffffffffffff81111561098357600080fd5b61098f87828801610868565b909550935050602085013567ffffffffffffffff8111156109af57600080fd5b8501601f810187136109c057600080fd5b803567ffffffffffffffff8111156109d757600080fd5b8760208260051b84010111156109ec57600080fd5b949793965060200194505050565b60008060408385031215610a0d57600080fd5b50508035926020909101359150565b634e487b7160e01b600052603260045260246000fd5b81835281816020850137506000828201602090810191909152601f909101601f19169091010190565b604081526000610a6f604083018587610a32565b828103602084015280845180835260208301915060208601925060005b81811015610aaa578351835260209384019390920191600101610a8c565b5090979650505050505050565b600060208284031215610ac957600080fd5b8151801515811461094f57600080fd5b634e487b7160e01b600052601160045260246000fd5b8082028115828204841417610b0657610b06610ad9565b92915050565b600060208284031215610b1e57600080fd5b5051919050565b81810381811115610b0657610b06610ad9565b604081526000610b4c604083018688610a32565b82810360208401528381526001600160fb1b03841115610b6b57600080fd5b8360051b80866020840137016020019695505050505050565b80820180821115610b0657610b06610ad956fea2646970667358221220137e6acc20e905cb8c00684c7ed86f9194c508bf7fc7822873e2faad5dabc00a64736f6c634300081b00336080604052348015600f57600080fd5b506159318061001f6000396000f3fe608060405234801561001057600080fd5b506004361061002b5760003560e01c8063ea50d0e414610030575b600080fd5b61004361003e3660046154f9565b610057565b604051901515815260200160405180910390f35b60008061006261016e565b905060006100708787610183565b604083015190915084146100975760405163fa06659360e01b815260040160405180910390fd5b60006100a98287878660400151610b27565b90506100f78686808060200260200160405190810160405280939291908181526020018383602002808284376000920191909152505050506060830151608084015186516040870151610c02565b61018082015260006101098383610cc6565b905080610129576040516313f8744360e31b815260040160405180910390fd5b6000610136848685610d87565b905080610156576040516352ec174560e11b815260040160405180910390fd5b8180156101605750805b9a9950505050505050505050565b610176614dc5565b61017e611507565b905090565b61018b61517c565b61019361517c565b6101a16020600085876155cc565b6101aa916155f6565b81526101ba6040602085876155cc565b6101c3916155f6565b60208201526101d66060604085876155cc565b6101df916155f6565b6040808301919091528051608080820190925290819061020290606087896155cc565b61020b916155f6565b815260200161021e60a0608087896155cc565b610227916155f6565b815260200161023a60c060a087896155cc565b610243916155f6565b815260200161025660e060c087896155cc565b61025f916155f6565b9052606082015260408051608081019091528061028161010060e087896155cc565b61028a916155f6565b815260200161029f61012061010087896155cc565b6102a8916155f6565b81526020016102bd61014061012087896155cc565b6102c6916155f6565b81526020016102db61016061014087896155cc565b6102e4916155f6565b90526080808301919091526040805191820190528061030961018061016087896155cc565b610312916155f6565b81526020016103276101a061018087896155cc565b610330916155f6565b81526020016103456101c06101a087896155cc565b61034e916155f6565b81526020016103636101e06101c087896155cc565b61036c916155f6565b905260a082015260408051608081019091528061038f6102006101e087896155cc565b610398916155f6565b81526020016103ad61022061020087896155cc565b6103b6916155f6565b81526020016103cb61024061022087896155cc565b6103d4916155f6565b81526020016103e961026061024087896155cc565b6103f2916155f6565b905261010082015260408051608081019091528061041661028061026087896155cc565b61041f916155f6565b81526020016104346102a061028087896155cc565b61043d916155f6565b81526020016104526102c06102a087896155cc565b61045b916155f6565b81526020016104706102e06102c087896155cc565b610479916155f6565b905261012082015260408051608081019091528061049d6103006102e087896155cc565b6104a6916155f6565b81526020016104bb61032061030087896155cc565b6104c4916155f6565b81526020016104d961034061032087896155cc565b6104e2916155f6565b81526020016104f761036061034087896155cc565b610500916155f6565b905260c082015260408051608081019091528061052361038061036087896155cc565b61052c916155f6565b81526020016105416103a061038087896155cc565b61054a916155f6565b815260200161055f6103c06103a087896155cc565b610568916155f6565b815260200161057d6103e06103c087896155cc565b610586916155f6565b90526101408201526040805160808101909152806105aa6104006103e087896155cc565b6105b3916155f6565b81526020016105c861042061040087896155cc565b6105d1916155f6565b81526020016105e661044061042087896155cc565b6105ef916155f6565b815260200161060461046061044087896155cc565b61060d916155f6565b905260e082015261046060005b601c8110156106df576000600861063283602061562a565b61063c919061562a565b6106469084615641565b905060005b60088110156106d557600061066182602061562a565b61066b9084615641565b9050600061067a826020615641565b905061069961068b82848c8e6155cc565b610694916155f6565b611dee565b87610160015186601c81106106b0576106b0615654565b602002015184600881106106c6576106c6615654565b6020020152505060010161064b565b505060010161061a565b506106ec6008601c61562a565b6106f790602061562a565b6107019082615641565b905060005b602c81101561076c57600061071c82602061562a565b6107269084615641565b90506000610735826020615641565b905061074661068b82848a8c6155cc565b85610180015184602c811061075d5761075d615654565b60200201525050600101610706565b50610779602c602061562a565b6107839082615641565b905060005b6107946001601c61566a565b8110156108b45760006107a882608061562a565b6107b29084615641565b905060006107c1826020615641565b90508060006107d1826020615641565b90508060006107e1826020615641565b90508060006107f1826020615641565b905060405180608001604052808f8f8b908b92610810939291906155cc565b610819916155f6565b60001c81526020018f8f89908992610833939291906155cc565b61083c916155f6565b60001c81526020018f8f87908792610856939291906155cc565b61085f916155f6565b60001c81526020018f8f85908592610879939291906155cc565b610882916155f6565b90526101a08c01518a601b811061089b5761089b615654565b6020020152505060019096019550610788945050505050565b506108c16001601c61566a565b6108cc90608061562a565b6108d69082615641565b905060005b601c8110156109415760006108f182602061562a565b6108fb9084615641565b9050600061090a826020615641565b905061091b61068b82848a8c6155cc565b856101c0015184601c811061093257610932615654565b602002015250506001016108db565b5061094e601c602061562a565b6109589082615641565b90506040518060800160405280868684908560206109769190615641565b92610983939291906155cc565b61098c916155f6565b60001c815260200186868460206109a39190615641565b906109af866040615641565b926109bc939291906155cc565b6109c5916155f6565b815260200186866109d7856040615641565b906109e3866060615641565b926109f0939291906155cc565b6109f9916155f6565b81526020018686610a0b856060615641565b90610a17866080615641565b92610a24939291906155cc565b610a2d916155f6565b90526101e0830152610a40816080615641565b9050604051806080016040528086868490856020610a5e9190615641565b92610a6b939291906155cc565b610a74916155f6565b60001c81526020018686846020610a8b9190615641565b90610a97866040615641565b92610aa4939291906155cc565b610aad916155f6565b81526020018686610abf856040615641565b90610acb866060615641565b92610ad8939291906155cc565b610ae1916155f6565b81526020018686610af3856060615641565b90610aff866080615641565b92610b0c939291906155cc565b610b15916155f6565b90526102008301525090505b92915050565b610b2f61524e565b6000610b3d86868686611e08565b604086019190915260208501919091529083529050610b5c818761225f565b608085019190915260608401919091529050610b788187612334565b60a08401919091529050610b8b816124b4565b60c08401919091529050610b9f8682612517565b60e08401919091529050610bb386826125ee565b6101008401919091529050610bc8868261267c565b6101208401919091529050610bdd86826127ec565b6101408401919091529050610bf28682612860565b5061016083015250949350505050565b600060018082610c2787610c228a610c1d6106948a8c615641565b6128b8565b6128d3565b90506000610c4688610c418b610c1d6106948b6001615641565b6128ee565b905060005b6002811015610cbb576000610c788c8381518110610c6b57610c6b615654565b6020026020010151611dee565b9050610c8886610c1d86846128d3565b9550610c9885610c1d85846128d3565b9450610ca4848c6128d3565b9350610cb0838c6128ee565b925050600101610c4b565b506101608484612920565b6000806001815b6012811015610d6957600086610160015182601c8110610cef57610cef615654565b602002015190506000610d028286612936565b905080610d22576040516313f8744360e31b815260040160405180910390fd5b60008760e0015184601c8110610d3a57610d3a615654565b60200201519050610d4b838261295a565b9550610d5988868387612b7c565b9450505050806001019050610ccd565b506000610d77868684612bb9565b90508281145b9695505050505050565b6000610dbb6040518060a0016040528060008152602001600081526020016000815260200160008152602001600081525090565b6000610dcb846101200151612c33565b9050610dd56152c8565b610ddd6152e7565b6000610de98785612c98565b8051610140890151919250610e0a91610c22908460015b60200201516128b8565b8552610120870151610e3890610e1f90612d2b565b82516101408a0151610c1d9190610c4190866001610e00565b6020860152600183526101e0890151610e5090612d9b565b8252600160608601819052600060808701525b60238111610f0957610e85610e7b8760000151612de7565b87606001516128b8565b8482604a8110610e9757610e97615654565b602002015260808601516101808b0151610eda9190610c2290610ebb60018661566a565b602c8110610ecb57610ecb615654565b602002015189606001516128b8565b60808701526060860151610100890151610ef491906128b8565b6060870152610f028161567d565b9050610e63565b506000610f1860236001615641565b90505b602c8111610f9857610f33610e7b8760200151612de7565b8482604a8110610f4557610f45615654565b602002015260808601516101808b0151610f699190610c2290610ebb60018661566a565b60808701526060860151610100890151610f8391906128b8565b6060870152610f918161567d565b9050610f1b565b50606088015182600160200201526080880151826002602002015260a0880151826003602002015260c0880151826004602002015260e08801518260056020020152610100880151826006602002015261012088015182600760200201526101408801518260086020020152610180880151826009602002015261016088015182600a60200201526101a088015182600b60200201526101c088015182600c60200201526101e088015182600d602002015261020088015182600e602002015261022088015182600f60200201526102408801518260106020020152610260880151826011602002015261028088015182601260200201526102a088015182601360200201526102c088015182601460200201526102e08801518260156020020152610300880151826016602002015261032088015182601760200201526103408801518260186020020152610360880151826019602002015261038088015182601a60200201526103a088015182601b6020020152606089015161111c90612d9b565b610380830152608089015161113090612d9b565b6103a083015260a089015161114490612d9b565b6103c083015260c089015161115890612d9b565b6103e083015260e089015161116c90612d9b565b61040083015261014089015161118190612d9b565b61042083015261010089015161119690612d9b565b6104408301526101208901516111ab90612d9b565b6104608301526103008801516104808301526103208801516104a08301526103408801516104c08301526103608801516104e083015260608901516111ef90612d9b565b610500830152608089015161120390612d9b565b61052083015260a089015161121790612d9b565b61054083015260c089015161122b90612d9b565b61056083015260e089015161123f90612d9b565b6105808301526000604086015261014087015161125b90612e01565b606086015260005b61126f6001601c61566a565b8110156113985760006112846001601261566a565b82101590506000816112ee5760608801516112b590856112a5866002615641565b601d8110610e0057610e00615654565b90506112c081612de7565b86846112ce602c6001615641565b6112d89190615641565b604a81106112e8576112e8615654565b60200201525b61131d8860400151610c22838f6101c0015187600161130d9190615641565b601c8110610e0057610e00615654565b604089015260608801516101408b015161133791906128b8565b60608901526101a08c01516113619084601b811061135757611357615654565b6020020151612d9b565b858461136f602c6001615641565b6113799190615641565b604a811061138957611389615654565b60200201525050600101611263565b5060006113b08887608001518c6101c0015188612e0d565b60408701519091506113c890610c2283856000610e00565b604087018190526101c08b0151516101408a01516113f79291610c22916113ef91906128b8565b856001610e00565b6040808801919091528051808201909152600181526002602082015283611420601c602c615641565b604a811061143057611430615654565b6020020152604086015184611447601c602c615641565b604a811061145757611457615654565b60200201526102008a015160009061146e90612d9b565b9050808461147e601c602c615641565b611489906001615641565b604a811061149957611499615654565b6020020152610160890151856114b1601c602c615641565b6114bc906001615641565b604a81106114cc576114cc615654565b602002015260006114dd8587612f12565b905060006114ea83612fe5565b90506114f6828261305d565b9d9c50505050505050505050505050565b61150f614dc5565b50604080516103c08101825262040000815260126020808301919091526002828401819052835180850185527e9891ba98b16a931022d562afcf3bbe33264f39480d40e1a756bb2b67a67c3281527f1f2b153cb5f99110d4d3e706e908c763bb046a623f2ab7141ebaef42c4702cd7818401526060840152835180850185527f2cd3883078bdbf32147af0a597ad2794c942902909c774dffc649ea23e7ca7d381527f236962843ceb03d83fb13b188c162d3f009ff2476b3ac9f9323655c7d1f65577818401526080840152835180850185527f19354e8afecb9c7bb0990af24ed3f8bf666b01956747f187dc6c88b09c136dab81527f24d034b6de2ffd8811ecbf337b78dff4cb60b04efb17141be573fd0ea8b621608184015260a0840152835180850185527f152a6bc982907bae246e25c05917d90ab95e13358346f966224b5f86d57f38bb81527f0b5f115aa2adbcdb4918ed59691ba16586fec9e3ec4d9ad3bb41a7e1c7a0c36b8184015260c0840152835180850185527f0ce2c38cc43f912abfad7230e874bd6d9b367d20c25e46883d876d136eaca82381527f26947a0ceb77dc4ee0ec74c1b046f0b74bf7029ce4a35deba46e62d782e3c4528184015260e0840152835180850185527f139452394e1bf9785ea784a186bd3c2c3ae681a7eb3f66d9b2da0cabae900bf881527f22b8343f3616fd16193c6d319659dc90dfabed3cccab07aa69adcef66593d7e481840152610100840152835180850185527f1abe4043da8b3ee96553bd2214aab5eb8ddb4e5163e7d7f15e763b8b6468ce0381527f12ee2d46f2f1befca3ef3aae4ac0e395519eb8724e9aab0ea7cd7e3692c9185381840152610120840152835180850185527f08f50e0450748457163a377b91034f2495d83db1a99874869bbdf1cef9f743cd81527f12652fe45b72e3e3da4978ed90a68cf709c9121ef5d919d058ecd0a54271db5d81840152610140840152835180850185527f28ac89faa27c9bf4c14416a3bcc0298e30a6756095071d934b6b623e85619a2d81527f1ae2880acc89c552509f7d51581667c3851e960caa2e9ad718d4444a37f4f32081840152610160840152835180850185527f234efe99a75d4d4da5c228231e94309eea78df6418610081ed3b2ebfe698bc5d81527f1545a5518153176a0e8ba76eb2ec25b50e9cac35907327a5305afe8c91ed472681840152610180840152835180850185527f19206cec1de2f224b62ec64f224337782063ea1ccccb3e29f2bf984f6098b08581527f1bf7a269c608647b698a7c4a853ee32edd7459432d302ca4336db37e17a31b45818401526101a0840152835180850185527f20afb3f14e5a49829b3b25cca610906480c2ebca92c3c7db32104c3c552edf0d81527ed84bd324fed9e043bb1c53bf9d76b47df6dc9a846e8755cf41ca77933bedf7818401526101c0840152835180850185527f11cbf57f0aef4c2a2c595962b8bc590c979434e96cd9d62b343f3336138a037c81527f25e79bd15f15dffe2527f5022f6201dc9191210c0c869a858094d71dc8d3f00e818401526101e0840152835180850185527f230560882c1a908c1e22ea51be8fb5e44ce39c8aff7d36813c314942e12dbe7281527f28eb7f5274af203347bcce94b85b38c19eaed9e40ce422ec9bb55f0b3a645c5781840152610200840152835180850185527f3004389f432db0e653e32b585d865b85e548881c3cdbb8341c8d5aeba7815c4181527f0f912db3be8fd6af2931eca6398de9722542ae7f0207f0268a5748655fff8cb081840152610220840152835180850185527f1fa5207d195f23d48846a8b8bc71305cae0dbf9c2a36df8b34feea7e9dfd41cd81527f2f277ab2afdb3ea9ccde04098f09650f3210c0ee76130d01c657399495e505e581840152610240840152835180850185527f0fa50ee7e676b181b00ef3a7d183bb6cc93decd7e5d6c957b848c8ddff4d44cb81527f23d22588653be0bf1838c78164deeb6d17b0567e79fe41e40290638a3460019a81840152610260840152835180850185527f05984689f2a9ed585db12c41495a826877bdadab07f8f5f98845b7e4668603a681527f0cbcf6d16144be82a8bcf101f71b335b8df2fcf3eb9addaf308759c6035d725081840152610280840152835180850185527f1db8e12863abeec2e112af5095c79920eb93eb1f1a77e6516d9a24199ee1b53281527f0a4b611b3cbeb944b6a1cc0f1611e6fa7c1f4e37a7447c4f45798158c4bb50e0818401526102a0840152835180850185527f1cc7424b73547f19146955565c614f96b5ced8c8c9505e763501c383283299a081527f057864d247fda9db25bea79b8be2253bcb9d4a91ab6ab8f9399457ae05f28dbc818401526102c0840152835180850185527f139849fb0a25647a2134233a6d4b6e6136e9c1981c75681041b6639d30d71aef81527f1914111000b51b59b2eaa20c8dcb0e40eca2ccbe16d04aa19124b8cb5f5e9132818401526102e0840152835180850185527f151ed523cfcec4952f91caf594be159dd1cd9f7a36129c6820e8cdada90808ed81527f2d50eec18dcc7819ab7dba531573c8fba9a5e21aaf06e6c6d637aaae72f02e3a81840152610300840152835180850185527f2894e1eedd54e60f3981a1496e0b314b46071ba34a724776d6f71c6a19c2e65481527f172b9354d30fc85e03cc7c359fef280d5186b117182cbaca082ec8f5cca20ab981840152610320840152835180850185527f0ff23139f423bc5504d843f69fa7563935a81a0dbe3c08de6675a27c6df99a3881527f0a48dff44f8af0e150dce9731196a9b981fc2c81064109561567007200606e9d81840152610340840152835180850185527f1ea2387f72e46131b26cddc9fb3f94da435bb9d49b91aa41f6ed398cd2f704a581527f067787a509a9d2fc45e9e30075da18e28f58079c5e35842a4207b434cb8bfb688184015261036084015283518085018552600181528083019190915261038083015282518084019093527f1d42c8673a4c598e70de9c7a5c97c794f6c21cbf1fabb67e8b88617f9188ab3d83527f229429a4e555d548e7ff728368bfba0408b96c9a2fb82c728b45d9b3c24af93b908301526103a081019190915290565b6000610b216000805160206158dc833981519152836156ac565b600080808080611e19866003615641565b611e2490600c615641565b67ffffffffffffffff811115611e3c57611e3c6156c0565b604051908082528060200260200182016040528015611e65578160200160208202803683370190505b509050886000015160001b81600081518110611e8357611e83615654565b602002602001018181525050886020015160001b81600181518110611eaa57611eaa615654565b602002602001018181525050886040015160001b81600281518110611ed157611ed1615654565b60200260200101818152505060005b86811015611f3257888882818110611efa57611efa615654565b9050602002013582826003611f0f9190615641565b81518110611f1f57611f1f615654565b6020908102919091010152600101611ee0565b5060608901515181611f45886003615641565b81518110611f5557611f55615654565b60209081029190910181019190915260608a0151015181611f77886003615641565b611f82906001615641565b81518110611f9257611f92615654565b602090810291909101015260608901516040015181611fb2886003615641565b611fbd906002615641565b81518110611fcd57611fcd615654565b60209081029190910101526060808a0151015181611fec886003615641565b611ff7906003615641565b8151811061200757612007615654565b602090810291909101015260808901515181612024886003615641565b61202f906004615641565b8151811061203f5761203f615654565b60209081029190910181019190915260808a0151015181612061886003615641565b61206c906005615641565b8151811061207c5761207c615654565b60209081029190910101526080890151604001518161209c886003615641565b6120a7906006615641565b815181106120b7576120b7615654565b6020908102919091010152608089015160600151816120d7886003615641565b6120e2906007615641565b815181106120f2576120f2615654565b602090810291909101015260a0890151518161210f886003615641565b61211a906008615641565b8151811061212a5761212a615654565b60209081029190910181019190915260a08a015101518161214c886003615641565b612157906009615641565b8151811061216757612167615654565b602090810291909101015260a08901516040015181612187886003615641565b61219290600a615641565b815181106121a2576121a2615654565b602090810291909101015260a089015160600151816121c2886003615641565b6121cd90600b615641565b815181106121dd576121dd615654565b602002602001018181525050612218816040516020016121fd91906156d6565b60405160208183030381529060405280519060200120611dee565b915061222382613264565b604080516020810186905292975090955061223e91016121fd565b9150600061224b83613264565b50959a949950949750909550919350505050565b600080600061226c615321565b8581526101008581018051516020808501919091528151810151604080860191909152825181015160608087019190915292518301516080860152610120808a0180515160a0880152805184015160c080890191909152815184015160e08901529051850151958701959095529389018051519486019490945283518201516101408601528351810151610160860152925190910151610180840152905161231a916121fd9184910161570c565b915061232582613264565b90979096509194509092505050565b61233c615340565b600061234661535f565b8481526101408401805151602080840191909152815181015160408085019190915282518101516060808601919091529251830151608085015260e080880180515160a0870152805184015160c0870152805183015191860191909152519092015161010084015290516123c0916121fd91849101615741565b91506123cb82613264565b6020850152835260015b6123e160026019615776565b811015612461576123fe836040516020016121fd91815260200190565b925061240983613264565b8561241584600261562a565b6019811061242557612425615654565b602002018661243585600261562a565b612440906001615641565b6019811061245057612450615654565b6020020191909152526001016123d5565b50612478826040516020016121fd91815260200190565b9150600061248583613264565b856124926001601961566a565b601981106124a2576124a2615654565b60200201919091525050509250929050565b6124bc61537e565b6000805b601c811015612510576124df846040516020016121fd91815260200190565b935060006124ec85613264565b8584601c81106124fe576124fe615654565b602002019190915250506001016124c0565b5090929050565b61251f61537e565b6000805b601c8110156125e55761253461535f565b84815260005b600881101561259e5786610160015183601c811061255a5761255a615654565b6020020151816008811061257057612570615654565b602002015182612581836001615641565b6009811061259157612591615654565b602002015260010161253a565b506125b3816040516020016121fd9190615741565b945060006125c086613264565b8685601c81106125d2576125d2615654565b6020020191909152505050600101612523565b50909391925050565b6000806125f961539d565b83815260005b602c81101561264d5785610180015181602c811061261f5761261f615654565b602002015182612630836001615641565b602d811061264057612640615654565b60200201526001016125ff565b50612662816040516020016121fd919061578a565b9150600061266f83613264565b5096929550919350505050565b6000806126876153bc565b83815260005b6126996001601c61566a565b8110156127d757856101a0015181601b81106126b7576126b7615654565b602002015151826126c983600461562a565b6126d4906001615641565b606d81106126e4576126e4615654565b60200201526101a086015181601b811061270057612700615654565b60200201516020015182826004612717919061562a565b612722906002615641565b606d811061273257612732615654565b60200201526101a086015181601b811061274e5761274e615654565b6020020151604001518261276383600461562a565b61276e906003615641565b606d811061277e5761277e615654565b60200201526101a086015181601b811061279a5761279a615654565b602002015160600151826127af83600461562a565b6127ba906004615641565b606d81106127ca576127ca615654565b602002015260010161268d565b50612662816040516020016121fd91906157bf565b6000806127f76153db565b83815260005b601c81101561284b57856101c0015181601c811061281d5761281d615654565b60200201518261282e836001615641565b601d811061283e5761283e615654565b60200201526001016127fd565b50612662816040516020016121fd91906157f4565b60008061286b6153fa565b8381526101e085018051516020808401919091528151810151604080850191909152825181015160608086019190915292519092015160808401529051612662916121fd91849101615829565b60006000805160206158dc8339815191528284099392505050565b60006000805160206158dc8339815191528284089392505050565b60006000805160206158dc833981519152612917836000805160206158dc83398151915261566a565b84089392505050565b600061292f83610c1d84612d2b565b9392505050565b8151600090819061294f908560015b60200201516128d3565b929092149392505050565b6000806040518061010001604052807f30644e72e131a029b85045b68181585d2833e84879b9709143e1f593efffec5181526020016102d081526020017f30644e72e131a029b85045b68181585d2833e84879b9709143e1f593efffff118152602001609081526020017f30644e72e131a029b85045b68181585d2833e84879b9709143e1f593efffff71815260200160f081526020017f30644e72e131a029b85045b68181585d2833e84879b9709143e1f593effffd3181526020016113b081525090506000604051806101000160405280600081526020016001815260200160028152602001600381526020016004815260200160058152602001600681526020016007815250905060006001905060005b6008811015612a8f57612a8582610c1d88846128ee565b9150600101612a6e565b50612a98615418565b60005b6008811015612b11576000858260088110612ab857612ab8615654565b60200201519050612ae381610c1d8a888660088110612ad957612ad9615654565b60200201516128ee565b9050612aee81612d2b565b905080838360088110612b0357612b03615654565b602002015250600101612a9b565b5060005b6008811015612b66576000888260088110612b3257612b32615654565b60200201519050612b4f81848460088110610e0057610e00615654565b9050612b5b87826128d3565b965050600101612b15565b50612b7185836128b8565b979650505050505050565b600080612bad6001610c2286610c1d8a60c0015188601c8110612ba157612ba1615654565b602002015160016128ee565b9050610d7d85826128b8565b610180830151600090612bca615437565b612bd582828661329e565b612be18286838761344f565b612bed8286838761363d565b612bf8828286613844565b612c03828286613a36565b612c0f82868387613d95565b612c1a828286614650565b612c25828286614a2c565b610d7d818660a00151614d2e565b612c3b61537e565b81815260015b601c811015612c9257612c7382612c5960018461566a565b601c8110612c6957612c69615654565b6020020151612e01565b8282601c8110612c8557612c85615654565b6020020152600101612c41565b50919050565b612ca06153db565b610160830151612cba612cb582856000612ad9565b612d2b565b825260005b601c811015612d23576000612cd660126001615641565b8211612cf857612cf5612cb5848785601c811061294557612945615654565b90505b8084612d05846001615641565b601d8110612d1557612d15615654565b602002015250600101612cbf565b505092915050565b6000808290506000604051602081526020808201526020604082015282606082015260026000805160206158dc8339815191520360808201526000805160206158dc83398151915260a08201526020600060c08360055afa905080612d8f57600080fd5b50506000519392505050565b6040805180820190915260008082526020820152604051806040016040528060888460200151901b846000015117815260200160888460600151901b8460400151178152509050919050565b6000610b21826000805160206158dc83398151915261566a565b6000610b2182836128b8565b6000601c5b8015612f0857600083612e2660018461566a565b601c8110612e3657612e36615654565b6020020151905060008760e00151600184612e51919061566a565b601c8110612e6157612e61615654565b60200201519050600086612e7660018661566a565b601c8110612e8657612e86615654565b602002015190506000612ec2612ea6612e9f868c6128b8565b60026128b8565b610c4184610c1d612ebc89610c1d60018b6128ee565b886128ee565b9050612ee381610c1d612cb5612edd88610c1d60018a6128ee565b876128d3565b90506012851180612ef2578199505b505050505080612f019061585d565b9050612e12565b5092949350505050565b60408051808201909152600080825260208201526000612f34601c602c615641565b612f3f906002615641565b90506001604051855151604082015285516020015160608201528451608082015260408160606040840160075afa8216915060015b83811015612fcd5760208102870160208202870181515160408501528151602001516060850152805160808501525050604080830160606040850160075afa8316925060408260808460065afa90921691600101612f74565b50805184526020810151602085015250505092915050565b60408051808201909152600080825260208201527f30644e72e131a029b85045b68181585d97816a916871ca8d3c208c16d87cfd4782602001517f30644e72e131a029b85045b68181585d97816a916871ca8d3c208c16d87cfd4761304a919061566a565b61305491906156ac565b60208301525090565b81516020808401518351848301516040805194850195909552938301919091527f198e9393920d483a7260bfb731fb5d25f1aa493335a9e71297e485b7aef312c260608301527f1800deef121f1e76426a00665e5c4479674322d4f75edadd46debd5cd992f6ed60808301527f090689d0585ff075ec9e99ad690c3395bc4b313370b38ef355acdadcd122975b60a08301527f12c85ea5db8c6deb4aab71808dcb408fe3d1e7690c43d37b4ce6cc0166fa7daa60c083015260e08201526101008101919091527f260e01b251f6f1c7e7ff4e580791dee8ea51d87a358e038b4efe30fac09383c16101208201527f0118c4d5b837bcc2bc89b5b398b5974e9f5944073b32078b7e231fec938883b06101408201527f04fc6369f7110fe3d25156c1bb9a72859cf2a04641f99ba4ee413c80da6a5fe46101608201527f22febda3c0c0632a56475b4214e5615e11e6dd3f96e6cea2854a87d4dacc5e5561018082015260009081906101a001604051602081830303815290604052905060008060086001600160a01b0316836040516131f59190615874565b600060405180830381855afa9150503d8060008114613230576040519150601f19603f3d011682016040523d82523d6000602084013e613235565b606091505b509150915060008180602001905181019061325091906158a3565b9050828015612b7157509695505050505050565b600080826fffffffffffffffffffffffffffffffff8116608082901c61328982611dee565b945061329481611dee565b9350505050915091565b60006132ab846006614d94565b90507f183227397098d014dc2822db40c0ac2e9419f4243cdcb848a1f0fac9f8000000600061330e6133086132e18560036128ee565b610c1d6132fd6132f28b6000614d94565b610c1d8c601c614d94565b610c1d8b601b614d94565b836128b8565b905061338f61338461336b61335261333985610c2261332e8d6002614d94565b610c1d8e601b614d94565b610c226133478c6003614d94565b610c1d8d601c614d94565b610c226133608b6004614d94565b610c1d8c601d614d94565b610c226133798a6005614d94565b610c1d8b601e614d94565b610c22886001614d94565b90506133ae81610c226133a38660016128ee565b610c1d8a602a614d94565b90506133ba81846128b8565b90506133c681856128b8565b855250600090506134026133f76133ec6133e188601b614d94565b610c2289601e614d94565b610c41886027614d94565b610c22876000614d94565b905061341381610c1d8460026128ee565b905061342481610c1d8460016128ee565b905061343081836128b8565b905061343c81846128b8565b9050808460015b60200201525050505050565b600080600061348761347d61346589601b614d94565b610c226134738b6011614d94565b8a606001516128b8565b87608001516128d3565b90506134c081610c1d6134b661349e8b601c614d94565b610c226134ac8d6012614d94565b8c606001516128b8565b89608001516128d3565b90506134e581610c1d6134b66134d78b601d614d94565b610c226134ac8d6013614d94565b905061350a81610c1d6134b66134fc8b601e614d94565b610c226134ac8d6014614d94565b92506000905061352f61347d61352189601b614d94565b610c226134738b600d614d94565b905061355481610c1d6134b66135468b601c614d94565b610c226134ac8d600e614d94565b905061357981610c1d6134b661356b8b601d614d94565b610c226134ac8d600f614d94565b905061359e81610c1d6134b66135908b601e614d94565b610c226134ac8d6010614d94565b9150600090506135c66135c06135b589601f614d94565b610c228a6019614d94565b846128b8565b90506135fc81610c416135f66135dd8b602b614d94565b610c226135eb8d601a614d94565b8c61018001516128b8565b856128b8565b905061360881856128b8565b604086015250600061362c6135f661362189601a614d94565b610c1d8a602b614d94565b606090950194909452505050505050565b60008061369c61368461366c6136576134b68a6015614d94565b610c226136658b6016614d94565b8a516128b8565b610c2261367a8a6017614d94565b89602001516128b8565b610c22613692896018614d94565b88604001516128b8565b915060006136d46136bb6136b189601b614d94565b88608001516128d3565b610c226136c98a6003614d94565b610c1d8b6027614d94565b905060006136ff6136e689601c614d94565b610c226136f48b6000614d94565b610c1d8c6028614d94565b9050600061372a6137118a601d614d94565b610c2261371f8c6001614d94565b610c1d8d6029614d94565b905061376a61375261374485610c22868d600001516128b8565b610c22848c602001516128b8565b610c226137608c6004614d94565b8b604001516128b8565b9350505050600061377f6135c0886020614d94565b905060006137916135c0896020614d94565b905060006137ca6137b16137a68b6022614d94565b610c228c600a614d94565b610c416137bf8c6022614d94565b610c1d8d600a614d94565b905060006137ef6137e96137de87896128b8565b610c1d8d6020614d94565b836128ee565b90506137fb81886128b8565b905060006138246138166138108d600a614d94565b876128b8565b610c416138108e6021614d94565b60808a018390529050808960055b60200201525050505050505050505050565b6000613852600060016128ee565b90506000613862600060026128ee565b90506000613872600060036128ee565b9050600061388f61388488601c614d94565b610c4189601b614d94565b905060006138ac6138a189601d614d94565b610c418a601c614d94565b905060006138c96138be8a601e614d94565b610c418b601d614d94565b905060006138e66138db8b6027614d94565b610c418c601e614d94565b9050836138f781610c1d818b6128d3565b905061390781610c1d878a6128d3565b905061391781610c1d87896128d3565b905061392881610c1d8d6007614d94565b9050613934818a6128b8565b60c08b0152508261394981610c1d818b6128d3565b905061395981610c1d868a6128d3565b905061396981610c1d86896128d3565b905061397a81610c1d8d6007614d94565b9050613986818a6128b8565b60e08b0152508161399b81610c1d818b6128d3565b90506139ab81610c1d858a6128d3565b90506139bb81610c1d85896128d3565b90506139cc81610c1d8d6007614d94565b90506139d8818a6128b8565b6101008b015250806139ee81610c1d818b6128d3565b90506139fe81610c1d848a6128d3565b9050613a0e81610c1d84896128d3565b9050613a1f81610c1d8d6007614d94565b9050613a2b818a6128b8565b9050808a6009613832565b613a766040518060e00160405280600081526020016000815260200160008152602001600081526020016000815260200160008152602001600081525090565b613a8184601c614d94565b8152613a8e84601d614d94565b6020820152613a9e846027614d94565b6040820152613aae84602a614d94565b6060820152613abe846029614d94565b6080820152613ace846028614d94565b60a08201526000613ae0856002614d94565b90506000613aef866000614d94565b90506000613b05846040015185600001516128ee565b90506000613b1b856020015186602001516128b8565b60608601519091508690600090613b3290806128b8565b90506000613b51613b4b89602001518a606001516128b8565b886128b8565b90506000613b71613b6a8a60a001518b604001516128d3565b8a516128d3565b9050613b8061381082886128b8565b9050613ba1613b9b613b95612ebc84876128ee565b846128d3565b836128d3565b9050613bc9613bbe613bb383876128b8565b610c1d8f6008614d94565b610c1d60018a6128ee565b6101408c01525050505060208501516080860151600091613be9916128d3565b90506000613c08613bfe8860600151886128b8565b88602001516128ee565b90506000613c2e613c1984876128b8565b610c226135f68b60a001518c600001516128ee565b9050613c56613c4b613c40838c6128b8565b610c1d8e6008614d94565b610c1d6001896128ee565b6101608b01525060009150613c789050613c718360116128d3565b87516128b8565b90506000613c8683846128d3565b9050613c9281826128d3565b90506000613ca18360096128b8565b9050613ccb613cc56135c0613cbe8b60a001518c600001516128d3565b8b516128d3565b826128ee565b60c08901819052600090613ce790613b4b90613bb3908d6128b8565b9050613cfa8b600a6020020151826128d3565b6101408c01525050865160009250613d229150613c7190613d1b90806128d3565b88516128d3565b90506000613d64613d3f83610c1d8a600001518b60a001516128ee565b6020890151610c4190613d5290806128d3565b610c1d8b602001518c608001516128d3565b9050613d8189600b6020020151610c22613b4b613bb3858d6128b8565b89600b602002015250505050505050505050565b613e3f604051806102c00160405280600081526020016000815260200160008152602001600081526020016000815260200160008152602001600081526020016000815260200160008152602001600081526020016000815260200160008152602001600081526020016000815260200160008152602001600081526020016000815260200160008152602001600081526020016000815260200160008152602001600081525090565b613e74613e5b613e5087601b614d94565b610c1d886028614d94565b610c22613e69886027614d94565b610c1d89601c614d94565b8152613eb9613eae613e95613e8a88601b614d94565b610c1d89601e614d94565b610c22613ea389601c614d94565b610c1d8a601d614d94565b610c41876029614d94565b60408201819052613ece90600160441b6128b8565b60408201819052613ee490610c4187602a614d94565b604082018190528151613ef791906128d3565b60408201819052613f0d90610c1d876005614d94565b60408201528051613f2290600160441b6128b8565b808252613f4290610c22613f37886027614d94565b610c1d896028614d94565b80825260208201819052613f5e90610c416133e188601d614d94565b60208201819052613f7490610c1d876004614d94565b6020820152805160608201819052613f9190610c2287601e614d94565b60608201819052613fb590610c41613faa886029614d94565b610c2289602a614d94565b60608201819052613fcb90610c1d876000614d94565b8160600181815250506000613ff5613feb836020015184604001516128d3565b83606001516128d3565b905061400681610c1d886003614d94565b905061401e614016876028614d94565b6140006128b8565b6080830181905261403490610c22886027614d94565b60808301819052614047906140006128b8565b6080830181905261405d90610c2288601d614d94565b60808301819052614070906140006128b8565b6080830181905261408690610c2288601c614d94565b60808301819052614099906140006128b8565b608083018190526140af90610c2288601b614d94565b608083018190526140c590610c4188601e614d94565b608083018190526140db90610c1d886005614d94565b60808301526140ee614016876029614d94565b60a0830181905261410490610c22886028614d94565b60a08301819052614117906140006128b8565b60a0830181905261412d90610c22886027614d94565b60a08301819052614140906140006128b8565b60a0830181905261415690610c2288601e614d94565b60a08301819052614169906140006128b8565b60a0830181905261417f90610c2288601d614d94565b60a0830181905261419590610c4188602a614d94565b60a083018190526141ab90610c1d886000614d94565b60a0830181905260808301516000916141c491906128d3565b90506141d581610c1d896004614d94565b90506141ef6141e588601d614d94565b87604001516128b8565b60c0840181905261420890610c2261367a8a601c614d94565b60c0840181905261422890610c226142218a601b614d94565b89516128b8565b60c0840181905261423e90610c22896001614d94565b60c0840181905260e0840181905261425b90610c4189601e614d94565b60c084015261426e613884886027614d94565b61014084015261428d61428288602a614d94565b610c4189601e614d94565b6101208401526101408301516142b2906142a790806128b8565b8461014001516128ee565b6102808401526101408301516142f5906142ea906142e390610c1d60016000805160206158dc83398151915261566a565b60016128d3565b8461012001516128b8565b610160840181905261432c9061431e90610c1d6143138b6002614d94565b610c1d8c6003614d94565b610c1d6138108a6009614d94565b6101a086015261028083015161434e9061431e90610c1d6143138b6002614d94565b6101c086015260c083015161437690610c1d61436b8a6002614d94565b610c1d8b6003614d94565b6101e0840152600061439661438c89601e614d94565b8560e001516128ee565b90506143a5613cc582836128b8565b6101a08501526143b9613692896029614d94565b61010085018190526143dd90610c226143d38b6028614d94565b8a602001516128b8565b61010085018190526143f790610c226136658b6027614d94565b61010085015261441661440b89602a614d94565b8561010001516128ee565b610100850152600061442c6138be8a6029614d94565b905061448261445b6133086142e388610140015160016000805160206158dc833981519152610c1d919061566a565b610c1d6142e388610100015160016000805160206158dc833981519152610c1d919061566a565b6101808601526101008501516144a79061449c90806128b8565b8661010001516128ee565b6101c08601526101808501516144da906144c690610c1d8c6006614d94565b610c1d6144d48c6009614d94565b896128b8565b6101e08801526102808501516144f9906144c690610c1d8c6006614d94565b6102008801526101c0850151614518906144c690610c1d8c6006614d94565b6102208801526101a085015161453390610c1d8b6006614d94565b6102008601526145526145478a6028614d94565b610c418b601c614d94565b610220860152610140850151614592906138be90614587906142e390610c1d60016000805160206158dc83398151915261566a565b8761022001516128b8565b61024086018190526101e086015161026087018190526145c991610c2290610c1d6145be8e6005614d94565b610c1d8f6002614d94565b610260860181905260c08601516145ed9190610c2290610c1d6145be8e6000614d94565b610260860181905261020086015161460591906128d3565b610260860181905261461b90613b9590866128d3565b6102a0860181905261463590610c1d6144d48c6009614d94565b6102a0860181905287600c6020020152505050505050505050565b6146d760405180610220016040528060008152602001600081526020016000815260200160008152602001600081526020016000815260200160008152602001600081526020016000815260200160008152602001600081526020016000815260200160008152602001600081526020016000815260200160008152602001600081525090565b6146f06146e585601b614d94565b610c22866002614d94565b815261470b61470085601c614d94565b610c22866003614d94565b602082015261472961471e85601d614d94565b610c22866004614d94565b604082015261474761473c85601e614d94565b610c22866005614d94565b60608201528051614779906147729061476b9061476490806128b8565b84516128b8565b83516128b8565b82516128b8565b608082015260208101516147b7906147ad906147a39061479990806128b8565b84602001516128b8565b83602001516128b8565b82602001516128b8565b60a082015260408101516147f5906147eb906147e1906147d790806128b8565b84604001516128b8565b83604001516128b8565b82604001516128b8565b60c08201526060810151614833906148299061481f9061481590806128b8565b84606001516128b8565b83606001516128b8565b82606001516128b8565b60e0820152608081015160a082015161484c91906128d3565b61010082015260c081015160e082015161486691906128d3565b61012082015260a081015161488a9061487f90806128d3565b8261012001516128d3565b61014082015260e08101516148ae906148a390806128d3565b8261010001516128d3565b6101608201526101208101516148c490806128d3565b6101e082018190526148e5906148da90806128d3565b8261016001516128d3565b6101e08201526101008101516148fb90806128d3565b6101a0820181905261491c9061491190806128d3565b8261014001516128d3565b6101a08201819052610160820151614933916128d3565b6101808201526101408101516101e082015161494f91906128d3565b6101c082015261496361330885600b614d94565b610200820181905261024084015161018083015161498e92610c2291610c1d90610c418a6027614d94565b83601260200201526149be8360136020020151610c22836102000151610c1d856101a00151610c418a6028614d94565b83601360200201526149ee8360146020020151610c22836102000151610c1d856101c00151610c418a6029614d94565b8360146020020152614a1e8360156020020151610c22836102000151610c1d856101e00151610c418a602a614d94565b836015602002015250505050565b614a8960405180610160016040528060008152602001600081526020016000815260200160008152602001600081526020016000815260200160008152602001600081526020016000815260200160008152602001600081525090565b60006040518060800160405280614abf7f10dc6e9c006ea38b04b1e03b4bd9490c0d03f98929ca1d7fb56821fd19d3b6e7611dee565b8152602001614aed7f0c28145b6a44df3e0149b3d0a30b3bb599df9756d4dd9b84a86b38cfb45a740b611dee565b8152602001614b1a7e544b8338791518b2c7645a50392798b21f75bb60e3596170067d00141cac15611dee565b8152602001614b487f222c01175718386f2e2e82eb122789e352e105a3b8fa852613bc534433ee428b611dee565b90529050614b65614b5a86601b614d94565b610c22876002614d94565b6101208301819052614b9990614b8e906142ea90614b8390806128b8565b8561012001516128b8565b8361012001516128b8565b8252614ba685601c614d94565b6020830152614bb685601d614d94565b6040830152614bc685601e614d94565b606083015281516020830151614bee91613feb91614be491906128d3565b84604001516128d3565b6080830152614c016135c086600c614d94565b6101408301528151614c2390614c1990836000610e00565b83608001516128d3565b60a0830152614c4f8460166020020151610c22846101400151610c1d8660a00151610c418b6027614d94565b6102c08501526020820151614c6a90614c1990836001610e00565b60c0830152614c968460176020020151610c22846101400151610c1d8660c00151610c418b6028614d94565b6102e08501526040820151614cb190614c1990836002610e00565b60e0830152614cdd8460186020020151610c22846101400151610c1d8660e00151610c418b6029614d94565b6103008501526060820151614cf890614c1990836003610e00565b610100830152614d268460196020020151610c22846101400151610c1d866101000151610c418b602a614d94565b846019613443565b6000614d3b818481612945565b905060015b601a811015614d8d57614d8382610c228684601a8110614d6257614d62615654565b602002015186614d7360018761566a565b60198110610e0057610e00615654565b9150600101614d40565b5092915050565b60008282602b811115614da957614da96158c5565b602c8110614db957614db9615654565b60200201519392505050565b604051806103c00160405280600081526020016000815260200160008152602001614e03604051806040016040528060008152602001600081525090565b8152602001614e25604051806040016040528060008152602001600081525090565b8152602001614e47604051806040016040528060008152602001600081525090565b8152602001614e69604051806040016040528060008152602001600081525090565b8152602001614e8b604051806040016040528060008152602001600081525090565b8152602001614ead604051806040016040528060008152602001600081525090565b8152602001614ecf604051806040016040528060008152602001600081525090565b8152602001614ef1604051806040016040528060008152602001600081525090565b8152602001614f13604051806040016040528060008152602001600081525090565b8152602001614f35604051806040016040528060008152602001600081525090565b8152602001614f57604051806040016040528060008152602001600081525090565b8152602001614f79604051806040016040528060008152602001600081525090565b8152602001614f9b604051806040016040528060008152602001600081525090565b8152602001614fbd604051806040016040528060008152602001600081525090565b8152602001614fdf604051806040016040528060008152602001600081525090565b8152602001615001604051806040016040528060008152602001600081525090565b8152602001615023604051806040016040528060008152602001600081525090565b8152602001615045604051806040016040528060008152602001600081525090565b8152602001615067604051806040016040528060008152602001600081525090565b8152602001615089604051806040016040528060008152602001600081525090565b81526020016150ab604051806040016040528060008152602001600081525090565b81526020016150cd604051806040016040528060008152602001600081525090565b81526020016150ef604051806040016040528060008152602001600081525090565b8152602001615111604051806040016040528060008152602001600081525090565b8152602001615133604051806040016040528060008152602001600081525090565b8152602001615155604051806040016040528060008152602001600081525090565b8152602001615177604051806040016040528060008152602001600081525090565b905290565b6040518061022001604052806000815260200160008152602001600081526020016151a5615456565b81526020016151b2615456565b81526020016151bf615456565b81526020016151cc615456565b81526020016151d9615456565b81526020016151e6615456565b81526020016151f3615456565b8152602001615200615456565b815260200161520d61547e565b815260200161521a6154ac565b81526020016152276154cb565b815260200161523461537e565b8152602001615241615456565b8152602001615177615456565b604051806101a001604052806000815260200160008152602001600081526020016000815260200160008152602001615285615340565b815260200161529261537e565b815260200161529f61537e565b815260200160008152602001600081526020016000815260200160008152602001600081525090565b604051806109400160405280604a906020820280368337509192915050565b604051806109400160405280604a905b60408051808201909152600080825260208201528152602001906001900390816152f75790505090565b604051806101a00160405280600d906020820280368337509192915050565b6040518061032001604052806019906020820280368337509192915050565b6040518061012001604052806009906020820280368337509192915050565b604051806103800160405280601c906020820280368337509192915050565b604051806105a00160405280602d906020820280368337509192915050565b60405180610da00160405280606d906020820280368337509192915050565b604051806103a00160405280601d906020820280368337509192915050565b6040518060a001604052806005906020820280368337509192915050565b6040518061010001604052806008906020820280368337509192915050565b604051806103400160405280601a906020820280368337509192915050565b6040518060800160405280600081526020016000815260200160008152602001600081525090565b604051806103800160405280601c905b615496615418565b81526020019060019003908161548e5790505090565b604051806105800160405280602c906020820280368337509192915050565b604051806103600160405280601b905b6154e3615456565b8152602001906001900390816154db5790505090565b6000806000806040858703121561550f57600080fd5b843567ffffffffffffffff81111561552657600080fd5b8501601f8101871361553757600080fd5b803567ffffffffffffffff81111561554e57600080fd5b87602082840101111561556057600080fd5b60209182019550935085013567ffffffffffffffff81111561558157600080fd5b8501601f8101871361559257600080fd5b803567ffffffffffffffff8111156155a957600080fd5b8760208260051b84010111156155be57600080fd5b949793965060200194505050565b600080858511156155dc57600080fd5b838611156155e957600080fd5b5050820193919092039150565b80356020831015610b2157600019602084900360031b1b1692915050565b634e487b7160e01b600052601160045260246000fd5b8082028115828204841417610b2157610b21615614565b80820180821115610b2157610b21615614565b634e487b7160e01b600052603260045260246000fd5b81810381811115610b2157610b21615614565b60006001820161568f5761568f615614565b5060010190565b634e487b7160e01b600052601260045260246000fd5b6000826156bb576156bb615696565b500690565b634e487b7160e01b600052604160045260246000fd5b8151600090829060208501835b828110156157015781518452602093840193909101906001016156e3565b509195945050505050565b60008183825b600d811015615731578151835260209283019290910190600101615712565b5050506101a08201905092915050565b60008183825b6009811015615766578151835260209283019290910190600101615747565b5050506101208201905092915050565b60008261578557615785615696565b500490565b60008183825b602d8110156157af578151835260209283019290910190600101615790565b5050506105a08201905092915050565b60008183825b606d8110156157e45781518352602092830192909101906001016157c5565b505050610da08201905092915050565b60008183825b601d8110156158195781518352602092830192909101906001016157fa565b5050506103a08201905092915050565b60008183825b600581101561584e57815183526020928301929091019060010161582f565b50505060a08201905092915050565b60008161586c5761586c615614565b506000190190565b6000825160005b81811015615895576020818601810151858301520161587b565b506000920191825250919050565b6000602082840312156158b557600080fd5b8151801515811461292f57600080fd5b634e487b7160e01b600052602160045260246000fdfe30644e72e131a029b85045b68181585d2833e84879b9709143e1f593f0000001a2646970667358221220fbd8e0019ae3e25c83dfccc8af1d181a32f663b82dbfb0be6e678e3e52f252ab64736f6c634300081b0033","opcodes":"PUSH1 0x80 PUSH1 0x40 MSTORE PUSH1 0x40 MLOAD PUSH2 0x10 SWAP1 PUSH2 0x15A JUMP JUMPDEST PUSH1 0x40 MLOAD DUP1 SWAP2 SUB SWAP1 PUSH1 0x0 CREATE DUP1 ISZERO DUP1 ISZERO PUSH2 0x2C JUMPI RETURNDATASIZE PUSH1 0x0 DUP1 RETURNDATACOPY RETURNDATASIZE PUSH1 0x0 REVERT JUMPDEST POP PUSH1 0x2 DUP1 SLOAD PUSH1 0x1 PUSH1 0x1 PUSH1 0xA0 SHL SUB NOT AND PUSH1 0x1 PUSH1 0x1 PUSH1 0xA0 SHL SUB SWAP3 SWAP1 SWAP3 AND SWAP2 SWAP1 SWAP2 OR SWAP1 SSTORE CALLVALUE DUP1 ISZERO PUSH2 0x59 JUMPI PUSH1 0x0 DUP1 REVERT JUMPDEST POP PUSH1 0x40 MLOAD PUSH2 0x66E2 CODESIZE SUB DUP1 PUSH2 0x66E2 DUP4 CODECOPY DUP2 ADD PUSH1 0x40 DUP2 SWAP1 MSTORE PUSH2 0x78 SWAP2 PUSH2 0x183 JUMP JUMPDEST PUSH1 0x1 PUSH1 0x1 PUSH1 0xA0 SHL SUB DUP3 AND PUSH2 0xD3 JUMPI PUSH1 0x40 MLOAD PUSH3 0x461BCD PUSH1 0xE5 SHL DUP2 MSTORE PUSH1 0x20 PUSH1 0x4 DUP3 ADD MSTORE PUSH1 0x1D PUSH1 0x24 DUP3 ADD MSTORE PUSH32 0x496E76616C6964207061796D656E7420746F6B656E2061646472657373000000 PUSH1 0x44 DUP3 ADD MSTORE PUSH1 0x64 ADD JUMPDEST PUSH1 0x40 MLOAD DUP1 SWAP2 SUB SWAP1 REVERT JUMPDEST PUSH1 0x1 PUSH1 0x1 PUSH1 0xA0 SHL SUB DUP2 AND PUSH2 0x129 JUMPI PUSH1 0x40 MLOAD PUSH3 0x461BCD PUSH1 0xE5 SHL DUP2 MSTORE PUSH1 0x20 PUSH1 0x4 DUP3 ADD MSTORE PUSH1 0x19 PUSH1 0x24 DUP3 ADD MSTORE PUSH32 0x496E76616C6964204161766520506F6F6C206164647265737300000000000000 PUSH1 0x44 DUP3 ADD MSTORE PUSH1 0x64 ADD PUSH2 0xCA JUMP JUMPDEST PUSH1 0x0 DUP1 SLOAD PUSH1 0x1 PUSH1 0x1 PUSH1 0xA0 SHL SUB SWAP4 DUP5 AND PUSH1 0x1 PUSH1 0x1 PUSH1 0xA0 SHL SUB NOT SWAP2 DUP3 AND OR SWAP1 SWAP2 SSTORE PUSH1 0x1 DUP1 SLOAD SWAP3 SWAP1 SWAP4 AND SWAP2 AND OR SWAP1 SSTORE PUSH2 0x1B6 JUMP JUMPDEST PUSH2 0x5950 DUP1 PUSH2 0xD92 DUP4 CODECOPY ADD SWAP1 JUMP JUMPDEST DUP1 MLOAD PUSH1 0x1 PUSH1 0x1 PUSH1 0xA0 SHL SUB DUP2 AND DUP2 EQ PUSH2 0x17E JUMPI PUSH1 0x0 DUP1 REVERT JUMPDEST SWAP2 SWAP1 POP JUMP JUMPDEST PUSH1 0x0 DUP1 PUSH1 0x40 DUP4 DUP6 SUB SLT ISZERO PUSH2 0x196 JUMPI PUSH1 0x0 DUP1 REVERT JUMPDEST PUSH2 0x19F DUP4 PUSH2 0x167 JUMP JUMPDEST SWAP2 POP PUSH2 0x1AD PUSH1 0x20 DUP5 ADD PUSH2 0x167 JUMP JUMPDEST SWAP1 POP SWAP3 POP SWAP3 SWAP1 POP JUMP JUMPDEST PUSH2 0xBCD DUP1 PUSH2 0x1C5 PUSH1 0x0 CODECOPY PUSH1 0x0 RETURN INVALID PUSH1 0x80 PUSH1 0x40 MSTORE CALLVALUE DUP1 ISZERO PUSH2 0x10 JUMPI PUSH1 0x0 DUP1 REVERT JUMPDEST POP PUSH1 0x4 CALLDATASIZE LT PUSH2 0x7D JUMPI PUSH1 0x0 CALLDATALOAD PUSH1 0xE0 SHR DUP1 PUSH4 0x72236B82 GT PUSH2 0x5B JUMPI DUP1 PUSH4 0x72236B82 EQ PUSH2 0xDA JUMPI DUP1 PUSH4 0xA03E4BC3 EQ PUSH2 0x116 JUMPI DUP1 PUSH4 0xB12A2C54 EQ PUSH2 0x129 JUMPI DUP1 PUSH4 0xE2BBB158 EQ PUSH2 0x14C JUMPI PUSH1 0x0 DUP1 REVERT JUMPDEST DUP1 PUSH4 0x2B7AC3F3 EQ PUSH2 0x82 JUMPI DUP1 PUSH4 0x3013CE29 EQ PUSH2 0xB2 JUMPI DUP1 PUSH4 0x4C674934 EQ PUSH2 0xC5 JUMPI JUMPDEST PUSH1 0x0 DUP1 REVERT JUMPDEST PUSH1 0x2 SLOAD PUSH2 0x95 SWAP1 PUSH1 0x1 PUSH1 0x1 PUSH1 0xA0 SHL SUB AND DUP2 JUMP JUMPDEST PUSH1 0x40 MLOAD PUSH1 0x1 PUSH1 0x1 PUSH1 0xA0 SHL SUB SWAP1 SWAP2 AND DUP2 MSTORE PUSH1 0x20 ADD JUMPDEST PUSH1 0x40 MLOAD DUP1 SWAP2 SUB SWAP1 RETURN JUMPDEST PUSH1 0x0 SLOAD PUSH2 0x95 SWAP1 PUSH1 0x1 PUSH1 0x1 PUSH1 0xA0 SHL SUB AND DUP2 JUMP JUMPDEST PUSH2 0xD8 PUSH2 0xD3 CALLDATASIZE PUSH1 0x4 PUSH2 0x8CD JUMP JUMPDEST PUSH2 0x15F JUMP JUMPDEST STOP JUMPDEST PUSH2 0x101 PUSH2 0xE8 CALLDATASIZE PUSH1 0x4 PUSH2 0x934 JUMP JUMPDEST PUSH1 0x3 PUSH1 0x20 MSTORE PUSH1 0x0 SWAP1 DUP2 MSTORE PUSH1 0x40 SWAP1 KECCAK256 DUP1 SLOAD PUSH1 0x1 SWAP1 SWAP2 ADD SLOAD DUP3 JUMP JUMPDEST PUSH1 0x40 DUP1 MLOAD SWAP3 DUP4 MSTORE PUSH1 0x20 DUP4 ADD SWAP2 SWAP1 SWAP2 MSTORE ADD PUSH2 0xA9 JUMP JUMPDEST PUSH1 0x1 SLOAD PUSH2 0x95 SWAP1 PUSH1 0x1 PUSH1 0x1 PUSH1 0xA0 SHL SUB AND DUP2 JUMP JUMPDEST PUSH2 0x13C PUSH2 0x137 CALLDATASIZE PUSH1 0x4 PUSH2 0x956 JUMP JUMPDEST PUSH2 0x49C JUMP JUMPDEST PUSH1 0x40 MLOAD SWAP1 ISZERO ISZERO DUP2 MSTORE PUSH1 0x20 ADD PUSH2 0xA9 JUMP JUMPDEST PUSH2 0xD8 PUSH2 0x15A CALLDATASIZE PUSH1 0x4 PUSH2 0x9FA JUMP JUMPDEST PUSH2 0x51D JUMP JUMPDEST PUSH1 0x40 DUP1 MLOAD PUSH1 0x2 DUP1 DUP3 MSTORE PUSH1 0x60 DUP3 ADD DUP4 MSTORE PUSH1 0x0 SWAP3 PUSH1 0x20 DUP4 ADD SWAP1 DUP1 CALLDATASIZE DUP4 CALLDATACOPY ADD SWAP1 POP POP SWAP1 POP DUP3 PUSH1 0x0 SHL DUP2 PUSH1 0x0 DUP2 MLOAD DUP2 LT PUSH2 0x197 JUMPI PUSH2 0x197 PUSH2 0xA1C JUMP JUMPDEST PUSH1 0x20 MUL PUSH1 0x20 ADD ADD DUP2 DUP2 MSTORE POP POP DUP4 PUSH1 0x0 SHL DUP2 PUSH1 0x1 DUP2 MLOAD DUP2 LT PUSH2 0x1BA JUMPI PUSH2 0x1BA PUSH2 0xA1C JUMP JUMPDEST PUSH1 0x20 SWAP1 DUP2 MUL SWAP2 SWAP1 SWAP2 ADD ADD MSTORE PUSH1 0x2 SLOAD PUSH1 0x40 MLOAD PUSH4 0x3A943439 PUSH1 0xE2 SHL DUP2 MSTORE PUSH1 0x1 PUSH1 0x1 PUSH1 0xA0 SHL SUB SWAP1 SWAP2 AND SWAP1 PUSH4 0xEA50D0E4 SWAP1 PUSH2 0x1F9 SWAP1 DUP10 SWAP1 DUP10 SWAP1 DUP7 SWAP1 PUSH1 0x4 ADD PUSH2 0xA5B JUMP JUMPDEST PUSH1 0x20 PUSH1 0x40 MLOAD DUP1 DUP4 SUB DUP2 DUP7 GAS STATICCALL ISZERO DUP1 ISZERO PUSH2 0x216 JUMPI RETURNDATASIZE PUSH1 0x0 DUP1 RETURNDATACOPY RETURNDATASIZE PUSH1 0x0 REVERT JUMPDEST POP POP POP POP PUSH1 0x40 MLOAD RETURNDATASIZE PUSH1 0x1F NOT PUSH1 0x1F DUP3 ADD AND DUP3 ADD DUP1 PUSH1 0x40 MSTORE POP DUP2 ADD SWAP1 PUSH2 0x23A SWAP2 SWAP1 PUSH2 0xAB7 JUMP JUMPDEST PUSH2 0x27B JUMPI PUSH1 0x40 MLOAD PUSH3 0x461BCD PUSH1 0xE5 SHL DUP2 MSTORE PUSH1 0x20 PUSH1 0x4 DUP3 ADD MSTORE PUSH1 0xD PUSH1 0x24 DUP3 ADD MSTORE PUSH13 0x24B73B30B634B210383937B7B3 PUSH1 0x99 SHL PUSH1 0x44 DUP3 ADD MSTORE PUSH1 0x64 ADD JUMPDEST PUSH1 0x40 MLOAD DUP1 SWAP2 SUB SWAP1 REVERT JUMPDEST PUSH2 0x28A DUP5 PUSH5 0xE8D4A51000 PUSH2 0xAEF JUMP JUMPDEST PUSH1 0x1 PUSH1 0x1 PUSH1 0xA0 SHL SUB DUP4 AND PUSH1 0x0 SWAP1 DUP2 MSTORE PUSH1 0x3 PUSH1 0x20 MSTORE PUSH1 0x40 SWAP1 KECCAK256 DUP1 SLOAD SWAP2 SWAP6 POP SWAP1 DUP6 GT ISZERO PUSH2 0x2EE JUMPI PUSH1 0x40 MLOAD PUSH3 0x461BCD PUSH1 0xE5 SHL DUP2 MSTORE PUSH1 0x20 PUSH1 0x4 DUP3 ADD MSTORE PUSH1 0x14 PUSH1 0x24 DUP3 ADD MSTORE PUSH20 0x496E73756666696369656E742062616C616E6365 PUSH1 0x60 SHL PUSH1 0x44 DUP3 ADD MSTORE PUSH1 0x64 ADD PUSH2 0x272 JUMP JUMPDEST DUP4 DUP2 PUSH1 0x1 ADD SLOAD EQ PUSH2 0x341 JUMPI PUSH1 0x40 MLOAD PUSH3 0x461BCD PUSH1 0xE5 SHL DUP2 MSTORE PUSH1 0x20 PUSH1 0x4 DUP3 ADD MSTORE PUSH1 0x1C PUSH1 0x24 DUP3 ADD MSTORE PUSH32 0x496E76616C696420726563697069656E7420636F6D6D69746D656E7400000000 PUSH1 0x44 DUP3 ADD MSTORE PUSH1 0x64 ADD PUSH2 0x272 JUMP JUMPDEST PUSH1 0x1 SLOAD PUSH1 0x0 SLOAD PUSH1 0x40 MLOAD PUSH4 0x1A4CA37B PUSH1 0xE2 SHL DUP2 MSTORE PUSH1 0x1 PUSH1 0x1 PUSH1 0xA0 SHL SUB SWAP2 DUP3 AND PUSH1 0x4 DUP3 ADD MSTORE PUSH1 0x24 DUP2 ADD DUP9 SWAP1 MSTORE ADDRESS PUSH1 0x44 DUP3 ADD MSTORE SWAP2 AND SWAP1 PUSH4 0x69328DEC SWAP1 PUSH1 0x64 ADD PUSH1 0x20 PUSH1 0x40 MLOAD DUP1 DUP4 SUB DUP2 PUSH1 0x0 DUP8 GAS CALL ISZERO DUP1 ISZERO PUSH2 0x39C JUMPI RETURNDATASIZE PUSH1 0x0 DUP1 RETURNDATACOPY RETURNDATASIZE PUSH1 0x0 REVERT JUMPDEST POP POP POP POP PUSH1 0x40 MLOAD RETURNDATASIZE PUSH1 0x1F NOT PUSH1 0x1F DUP3 ADD AND DUP3 ADD DUP1 PUSH1 0x40 MSTORE POP DUP2 ADD SWAP1 PUSH2 0x3C0 SWAP2 SWAP1 PUSH2 0xB0C JUMP JUMPDEST POP PUSH1 0x0 SLOAD PUSH1 0x40 MLOAD PUSH4 0xA9059CBB PUSH1 0xE0 SHL DUP2 MSTORE CALLER PUSH1 0x4 DUP3 ADD MSTORE PUSH1 0x24 DUP2 ADD DUP8 SWAP1 MSTORE PUSH1 0x1 PUSH1 0x1 PUSH1 0xA0 SHL SUB SWAP1 SWAP2 AND SWAP1 PUSH4 0xA9059CBB SWAP1 PUSH1 0x44 ADD PUSH1 0x20 PUSH1 0x40 MLOAD DUP1 DUP4 SUB DUP2 PUSH1 0x0 DUP8 GAS CALL ISZERO DUP1 ISZERO PUSH2 0x412 JUMPI RETURNDATASIZE PUSH1 0x0 DUP1 RETURNDATACOPY RETURNDATASIZE PUSH1 0x0 REVERT JUMPDEST POP POP POP POP PUSH1 0x40 MLOAD RETURNDATASIZE PUSH1 0x1F NOT PUSH1 0x1F DUP3 ADD AND DUP3 ADD DUP1 PUSH1 0x40 MSTORE POP DUP2 ADD SWAP1 PUSH2 0x436 SWAP2 SWAP1 PUSH2 0xAB7 JUMP JUMPDEST PUSH2 0x47A JUMPI PUSH1 0x40 MLOAD PUSH3 0x461BCD PUSH1 0xE5 SHL DUP2 MSTORE PUSH1 0x20 PUSH1 0x4 DUP3 ADD MSTORE PUSH1 0x15 PUSH1 0x24 DUP3 ADD MSTORE PUSH21 0x151BDAD95B881D1C985B9CD9995C8819985A5B1959 PUSH1 0x5A SHL PUSH1 0x44 DUP3 ADD MSTORE PUSH1 0x64 ADD PUSH2 0x272 JUMP JUMPDEST DUP5 DUP2 PUSH1 0x0 ADD PUSH1 0x0 DUP3 DUP3 SLOAD PUSH2 0x48E SWAP2 SWAP1 PUSH2 0xB25 JUMP JUMPDEST SWAP1 SWAP2 SSTORE POP POP POP POP POP POP POP POP POP JUMP JUMPDEST PUSH1 0x2 SLOAD PUSH1 0x40 MLOAD PUSH4 0x3A943439 PUSH1 0xE2 SHL DUP2 MSTORE PUSH1 0x0 SWAP2 PUSH1 0x1 PUSH1 0x1 PUSH1 0xA0 SHL SUB AND SWAP1 PUSH4 0xEA50D0E4 SWAP1 PUSH2 0x4D3 SWAP1 DUP9 SWAP1 DUP9 SWAP1 DUP9 SWAP1 DUP9 SWAP1 PUSH1 0x4 ADD PUSH2 0xB38 JUMP JUMPDEST PUSH1 0x20 PUSH1 0x40 MLOAD DUP1 DUP4 SUB DUP2 DUP7 GAS STATICCALL ISZERO DUP1 ISZERO PUSH2 0x4F0 JUMPI RETURNDATASIZE PUSH1 0x0 DUP1 RETURNDATACOPY RETURNDATASIZE PUSH1 0x0 REVERT JUMPDEST POP POP POP POP PUSH1 0x40 MLOAD RETURNDATASIZE PUSH1 0x1F NOT PUSH1 0x1F DUP3 ADD AND DUP3 ADD DUP1 PUSH1 0x40 MSTORE POP DUP2 ADD SWAP1 PUSH2 0x514 SWAP2 SWAP1 PUSH2 0xAB7 JUMP JUMPDEST SWAP6 SWAP5 POP POP POP POP POP JUMP JUMPDEST PUSH1 0x0 DUP3 GT PUSH2 0x56D JUMPI PUSH1 0x40 MLOAD PUSH3 0x461BCD PUSH1 0xE5 SHL DUP2 MSTORE PUSH1 0x20 PUSH1 0x4 DUP3 ADD DUP2 SWAP1 MSTORE PUSH1 0x24 DUP3 ADD MSTORE PUSH32 0x416D6F756E74206D7573742062652067726561746572207468616E207A65726F PUSH1 0x44 DUP3 ADD MSTORE PUSH1 0x64 ADD PUSH2 0x272 JUMP JUMPDEST PUSH1 0x0 DUP1 SLOAD PUSH1 0x40 MLOAD PUSH4 0x70A08231 PUSH1 0xE0 SHL DUP2 MSTORE ADDRESS PUSH1 0x4 DUP3 ADD MSTORE PUSH1 0x1 PUSH1 0x1 PUSH1 0xA0 SHL SUB SWAP1 SWAP2 AND SWAP1 PUSH4 0x70A08231 SWAP1 PUSH1 0x24 ADD PUSH1 0x20 PUSH1 0x40 MLOAD DUP1 DUP4 SUB DUP2 DUP7 GAS STATICCALL ISZERO DUP1 ISZERO PUSH2 0x5B6 JUMPI RETURNDATASIZE PUSH1 0x0 DUP1 RETURNDATACOPY RETURNDATASIZE PUSH1 0x0 REVERT JUMPDEST POP POP POP POP PUSH1 0x40 MLOAD RETURNDATASIZE PUSH1 0x1F NOT PUSH1 0x1F DUP3 ADD AND DUP3 ADD DUP1 PUSH1 0x40 MSTORE POP DUP2 ADD SWAP1 PUSH2 0x5DA SWAP2 SWAP1 PUSH2 0xB0C JUMP JUMPDEST PUSH1 0x0 SLOAD PUSH1 0x40 MLOAD PUSH4 0x23B872DD PUSH1 0xE0 SHL DUP2 MSTORE CALLER PUSH1 0x4 DUP3 ADD MSTORE ADDRESS PUSH1 0x24 DUP3 ADD MSTORE PUSH1 0x44 DUP2 ADD DUP7 SWAP1 MSTORE SWAP2 SWAP3 POP PUSH1 0x1 PUSH1 0x1 PUSH1 0xA0 SHL SUB AND SWAP1 PUSH4 0x23B872DD SWAP1 PUSH1 0x64 ADD PUSH1 0x20 PUSH1 0x40 MLOAD DUP1 DUP4 SUB DUP2 PUSH1 0x0 DUP8 GAS CALL ISZERO DUP1 ISZERO PUSH2 0x632 JUMPI RETURNDATASIZE PUSH1 0x0 DUP1 RETURNDATACOPY RETURNDATASIZE PUSH1 0x0 REVERT JUMPDEST POP POP POP POP PUSH1 0x40 MLOAD RETURNDATASIZE PUSH1 0x1F NOT PUSH1 0x1F DUP3 ADD AND DUP3 ADD DUP1 PUSH1 0x40 MSTORE POP DUP2 ADD SWAP1 PUSH2 0x656 SWAP2 SWAP1 PUSH2 0xAB7 JUMP JUMPDEST POP PUSH1 0x0 DUP1 SLOAD PUSH1 0x40 MLOAD PUSH4 0x70A08231 PUSH1 0xE0 SHL DUP2 MSTORE ADDRESS PUSH1 0x4 DUP3 ADD MSTORE DUP4 SWAP2 PUSH1 0x1 PUSH1 0x1 PUSH1 0xA0 SHL SUB AND SWAP1 PUSH4 0x70A08231 SWAP1 PUSH1 0x24 ADD PUSH1 0x20 PUSH1 0x40 MLOAD DUP1 DUP4 SUB DUP2 DUP7 GAS STATICCALL ISZERO DUP1 ISZERO PUSH2 0x6A0 JUMPI RETURNDATASIZE PUSH1 0x0 DUP1 RETURNDATACOPY RETURNDATASIZE PUSH1 0x0 REVERT JUMPDEST POP POP POP POP PUSH1 0x40 MLOAD RETURNDATASIZE PUSH1 0x1F NOT PUSH1 0x1F DUP3 ADD AND DUP3 ADD DUP1 PUSH1 0x40 MSTORE POP DUP2 ADD SWAP1 PUSH2 0x6C4 SWAP2 SWAP1 PUSH2 0xB0C JUMP JUMPDEST PUSH2 0x6CE SWAP2 SWAP1 PUSH2 0xB25 JUMP JUMPDEST SWAP1 POP DUP4 DUP2 EQ PUSH2 0x731 JUMPI PUSH1 0x40 MLOAD PUSH3 0x461BCD PUSH1 0xE5 SHL DUP2 MSTORE PUSH1 0x20 PUSH1 0x4 DUP3 ADD MSTORE PUSH1 0x29 PUSH1 0x24 DUP3 ADD MSTORE PUSH32 0x546F6B656E207472616E73666572206661696C6564206F72207061727469616C PUSH1 0x44 DUP3 ADD MSTORE PUSH9 0x103A3930B739B332B9 PUSH1 0xB9 SHL PUSH1 0x64 DUP3 ADD MSTORE PUSH1 0x84 ADD PUSH2 0x272 JUMP JUMPDEST PUSH1 0x0 SLOAD PUSH1 0x1 SLOAD PUSH1 0x40 MLOAD PUSH4 0x95EA7B3 PUSH1 0xE0 SHL DUP2 MSTORE PUSH1 0x1 PUSH1 0x1 PUSH1 0xA0 SHL SUB SWAP2 DUP3 AND PUSH1 0x4 DUP3 ADD MSTORE PUSH1 0x24 DUP2 ADD DUP5 SWAP1 MSTORE SWAP2 AND SWAP1 PUSH4 0x95EA7B3 SWAP1 PUSH1 0x44 ADD PUSH1 0x20 PUSH1 0x40 MLOAD DUP1 DUP4 SUB DUP2 PUSH1 0x0 DUP8 GAS CALL ISZERO DUP1 ISZERO PUSH2 0x786 JUMPI RETURNDATASIZE PUSH1 0x0 DUP1 RETURNDATACOPY RETURNDATASIZE PUSH1 0x0 REVERT JUMPDEST POP POP POP POP PUSH1 0x40 MLOAD RETURNDATASIZE PUSH1 0x1F NOT PUSH1 0x1F DUP3 ADD AND DUP3 ADD DUP1 PUSH1 0x40 MSTORE POP DUP2 ADD SWAP1 PUSH2 0x7AA SWAP2 SWAP1 PUSH2 0xAB7 JUMP JUMPDEST POP PUSH1 0x1 SLOAD PUSH1 0x0 DUP1 SLOAD PUSH1 0x40 MLOAD PUSH4 0x617BA037 PUSH1 0xE0 SHL DUP2 MSTORE PUSH1 0x1 PUSH1 0x1 PUSH1 0xA0 SHL SUB SWAP2 DUP3 AND PUSH1 0x4 DUP3 ADD MSTORE PUSH1 0x24 DUP2 ADD DUP6 SWAP1 MSTORE ADDRESS PUSH1 0x44 DUP3 ADD MSTORE PUSH1 0x64 DUP2 ADD SWAP3 SWAP1 SWAP3 MSTORE SWAP1 SWAP2 AND SWAP1 PUSH4 0x617BA037 SWAP1 PUSH1 0x84 ADD PUSH1 0x0 PUSH1 0x40 MLOAD DUP1 DUP4 SUB DUP2 PUSH1 0x0 DUP8 DUP1 EXTCODESIZE ISZERO DUP1 ISZERO PUSH2 0x80B JUMPI PUSH1 0x0 DUP1 REVERT JUMPDEST POP GAS CALL ISZERO DUP1 ISZERO PUSH2 0x81F JUMPI RETURNDATASIZE PUSH1 0x0 DUP1 RETURNDATACOPY RETURNDATASIZE PUSH1 0x0 REVERT JUMPDEST POP POP CALLER PUSH1 0x0 SWAP1 DUP2 MSTORE PUSH1 0x3 PUSH1 0x20 MSTORE PUSH1 0x40 DUP2 KECCAK256 PUSH1 0x1 DUP2 ADD SLOAD SWAP1 SWAP4 POP SWAP1 SUB SWAP1 POP PUSH2 0x848 JUMPI PUSH1 0x1 DUP2 ADD DUP5 SWAP1 SSTORE JUMPDEST DUP2 DUP2 PUSH1 0x0 ADD PUSH1 0x0 DUP3 DUP3 SLOAD PUSH2 0x85C SWAP2 SWAP1 PUSH2 0xB84 JUMP JUMPDEST SWAP1 SWAP2 SSTORE POP POP POP POP POP POP POP JUMP JUMPDEST PUSH1 0x0 DUP1 DUP4 PUSH1 0x1F DUP5 ADD SLT PUSH2 0x87A JUMPI PUSH1 0x0 DUP1 REVERT JUMPDEST POP DUP2 CALLDATALOAD PUSH8 0xFFFFFFFFFFFFFFFF DUP2 GT ISZERO PUSH2 0x892 JUMPI PUSH1 0x0 DUP1 REVERT JUMPDEST PUSH1 0x20 DUP4 ADD SWAP2 POP DUP4 PUSH1 0x20 DUP3 DUP6 ADD ADD GT ISZERO PUSH2 0x8AA JUMPI PUSH1 0x0 DUP1 REVERT JUMPDEST SWAP3 POP SWAP3 SWAP1 POP JUMP JUMPDEST DUP1 CALLDATALOAD PUSH1 0x1 PUSH1 0x1 PUSH1 0xA0 SHL SUB DUP2 AND DUP2 EQ PUSH2 0x8C8 JUMPI PUSH1 0x0 DUP1 REVERT JUMPDEST SWAP2 SWAP1 POP JUMP JUMPDEST PUSH1 0x0 DUP1 PUSH1 0x0 DUP1 PUSH1 0x0 PUSH1 0x80 DUP7 DUP9 SUB SLT ISZERO PUSH2 0x8E5 JUMPI PUSH1 0x0 DUP1 REVERT JUMPDEST DUP6 CALLDATALOAD PUSH8 0xFFFFFFFFFFFFFFFF DUP2 GT ISZERO PUSH2 0x8FC JUMPI PUSH1 0x0 DUP1 REVERT JUMPDEST PUSH2 0x908 DUP9 DUP3 DUP10 ADD PUSH2 0x868 JUMP JUMPDEST SWAP1 SWAP7 POP SWAP5 POP POP PUSH1 0x20 DUP7 ADD CALLDATALOAD SWAP3 POP PUSH1 0x40 DUP7 ADD CALLDATALOAD SWAP2 POP PUSH2 0x928 PUSH1 0x60 DUP8 ADD PUSH2 0x8B1 JUMP JUMPDEST SWAP1 POP SWAP3 SWAP6 POP SWAP3 SWAP6 SWAP1 SWAP4 POP JUMP JUMPDEST PUSH1 0x0 PUSH1 0x20 DUP3 DUP5 SUB SLT ISZERO PUSH2 0x946 JUMPI PUSH1 0x0 DUP1 REVERT JUMPDEST PUSH2 0x94F DUP3 PUSH2 0x8B1 JUMP JUMPDEST SWAP4 SWAP3 POP POP POP JUMP JUMPDEST PUSH1 0x0 DUP1 PUSH1 0x0 DUP1 PUSH1 0x40 DUP6 DUP8 SUB SLT ISZERO PUSH2 0x96C JUMPI PUSH1 0x0 DUP1 REVERT JUMPDEST DUP5 CALLDATALOAD PUSH8 0xFFFFFFFFFFFFFFFF DUP2 GT ISZERO PUSH2 0x983 JUMPI PUSH1 0x0 DUP1 REVERT JUMPDEST PUSH2 0x98F DUP8 DUP3 DUP9 ADD PUSH2 0x868 JUMP JUMPDEST SWAP1 SWAP6 POP SWAP4 POP POP PUSH1 0x20 DUP6 ADD CALLDATALOAD PUSH8 0xFFFFFFFFFFFFFFFF DUP2 GT ISZERO PUSH2 0x9AF JUMPI PUSH1 0x0 DUP1 REVERT JUMPDEST DUP6 ADD PUSH1 0x1F DUP2 ADD DUP8 SGT PUSH2 0x9C0 JUMPI PUSH1 0x0 DUP1 REVERT JUMPDEST DUP1 CALLDATALOAD PUSH8 0xFFFFFFFFFFFFFFFF DUP2 GT ISZERO PUSH2 0x9D7 JUMPI PUSH1 0x0 DUP1 REVERT JUMPDEST DUP8 PUSH1 0x20 DUP3 PUSH1 0x5 SHL DUP5 ADD ADD GT ISZERO PUSH2 0x9EC JUMPI PUSH1 0x0 DUP1 REVERT JUMPDEST SWAP5 SWAP8 SWAP4 SWAP7 POP PUSH1 0x20 ADD SWAP5 POP POP POP JUMP JUMPDEST PUSH1 0x0 DUP1 PUSH1 0x40 DUP4 DUP6 SUB SLT ISZERO PUSH2 0xA0D JUMPI PUSH1 0x0 DUP1 REVERT JUMPDEST POP POP DUP1 CALLDATALOAD SWAP3 PUSH1 0x20 SWAP1 SWAP2 ADD CALLDATALOAD SWAP2 POP JUMP JUMPDEST PUSH4 0x4E487B71 PUSH1 0xE0 SHL PUSH1 0x0 MSTORE PUSH1 0x32 PUSH1 0x4 MSTORE PUSH1 0x24 PUSH1 0x0 REVERT JUMPDEST DUP2 DUP4 MSTORE DUP2 DUP2 PUSH1 0x20 DUP6 ADD CALLDATACOPY POP PUSH1 0x0 DUP3 DUP3 ADD PUSH1 0x20 SWAP1 DUP2 ADD SWAP2 SWAP1 SWAP2 MSTORE PUSH1 0x1F SWAP1 SWAP2 ADD PUSH1 0x1F NOT AND SWAP1 SWAP2 ADD ADD SWAP1 JUMP JUMPDEST PUSH1 0x40 DUP2 MSTORE PUSH1 0x0 PUSH2 0xA6F PUSH1 0x40 DUP4 ADD DUP6 DUP8 PUSH2 0xA32 JUMP JUMPDEST DUP3 DUP2 SUB PUSH1 0x20 DUP5 ADD MSTORE DUP1 DUP5 MLOAD DUP1 DUP4 MSTORE PUSH1 0x20 DUP4 ADD SWAP2 POP PUSH1 0x20 DUP7 ADD SWAP3 POP PUSH1 0x0 JUMPDEST DUP2 DUP2 LT ISZERO PUSH2 0xAAA JUMPI DUP4 MLOAD DUP4 MSTORE PUSH1 0x20 SWAP4 DUP5 ADD SWAP4 SWAP1 SWAP3 ADD SWAP2 PUSH1 0x1 ADD PUSH2 0xA8C JUMP JUMPDEST POP SWAP1 SWAP8 SWAP7 POP POP POP POP POP POP POP JUMP JUMPDEST PUSH1 0x0 PUSH1 0x20 DUP3 DUP5 SUB SLT ISZERO PUSH2 0xAC9 JUMPI PUSH1 0x0 DUP1 REVERT JUMPDEST DUP2 MLOAD DUP1 ISZERO ISZERO DUP2 EQ PUSH2 0x94F JUMPI PUSH1 0x0 DUP1 REVERT JUMPDEST PUSH4 0x4E487B71 PUSH1 0xE0 SHL PUSH1 0x0 MSTORE PUSH1 0x11 PUSH1 0x4 MSTORE PUSH1 0x24 PUSH1 0x0 REVERT JUMPDEST DUP1 DUP3 MUL DUP2 ISZERO DUP3 DUP3 DIV DUP5 EQ OR PUSH2 0xB06 JUMPI PUSH2 0xB06 PUSH2 0xAD9 JUMP JUMPDEST SWAP3 SWAP2 POP POP JUMP JUMPDEST PUSH1 0x0 PUSH1 0x20 DUP3 DUP5 SUB SLT ISZERO PUSH2 0xB1E JUMPI PUSH1 0x0 DUP1 REVERT JUMPDEST POP MLOAD SWAP2 SWAP1 POP JUMP JUMPDEST DUP2 DUP2 SUB DUP2 DUP2 GT ISZERO PUSH2 0xB06 JUMPI PUSH2 0xB06 PUSH2 0xAD9 JUMP JUMPDEST PUSH1 0x40 DUP2 MSTORE PUSH1 0x0 PUSH2 0xB4C PUSH1 0x40 DUP4 ADD DUP7 DUP9 PUSH2 0xA32 JUMP JUMPDEST DUP3 DUP2 SUB PUSH1 0x20 DUP5 ADD MSTORE DUP4 DUP2 MSTORE PUSH1 0x1 PUSH1 0x1 PUSH1 0xFB SHL SUB DUP5 GT ISZERO PUSH2 0xB6B JUMPI PUSH1 0x0 DUP1 REVERT JUMPDEST DUP4 PUSH1 0x5 SHL DUP1 DUP7 PUSH1 0x20 DUP5 ADD CALLDATACOPY ADD PUSH1 0x20 ADD SWAP7 SWAP6 POP POP POP POP POP POP JUMP JUMPDEST DUP1 DUP3 ADD DUP1 DUP3 GT ISZERO PUSH2 0xB06 JUMPI PUSH2 0xB06 PUSH2 0xAD9 JUMP INVALID LOG2 PUSH5 0x6970667358 0x22 SLT KECCAK256 SGT PUSH31 0x6ACC20E905CB8C00684C7ED86F9194C508BF7FC7822873E2FAAD5DABC00A64 PUSH20 0x6F6C634300081B00336080604052348015600F57 PUSH1 0x0 DUP1 REVERT JUMPDEST POP PUSH2 0x5931 DUP1 PUSH2 0x1F PUSH1 0x0 CODECOPY PUSH1 0x0 RETURN INVALID PUSH1 0x80 PUSH1 0x40 MSTORE CALLVALUE DUP1 ISZERO PUSH2 0x10 JUMPI PUSH1 0x0 DUP1 REVERT JUMPDEST POP PUSH1 0x4 CALLDATASIZE LT PUSH2 0x2B JUMPI PUSH1 0x0 CALLDATALOAD PUSH1 0xE0 SHR DUP1 PUSH4 0xEA50D0E4 EQ PUSH2 0x30 JUMPI JUMPDEST PUSH1 0x0 DUP1 REVERT JUMPDEST PUSH2 0x43 PUSH2 0x3E CALLDATASIZE PUSH1 0x4 PUSH2 0x54F9 JUMP JUMPDEST PUSH2 0x57 JUMP JUMPDEST PUSH1 0x40 MLOAD SWAP1 ISZERO ISZERO DUP2 MSTORE PUSH1 0x20 ADD PUSH1 0x40 MLOAD DUP1 SWAP2 SUB SWAP1 RETURN JUMPDEST PUSH1 0x0 DUP1 PUSH2 0x62 PUSH2 0x16E JUMP JUMPDEST SWAP1 POP PUSH1 0x0 PUSH2 0x70 DUP8 DUP8 PUSH2 0x183 JUMP JUMPDEST PUSH1 0x40 DUP4 ADD MLOAD SWAP1 SWAP2 POP DUP5 EQ PUSH2 0x97 JUMPI PUSH1 0x40 MLOAD PUSH4 0xFA066593 PUSH1 0xE0 SHL DUP2 MSTORE PUSH1 0x4 ADD PUSH1 0x40 MLOAD DUP1 SWAP2 SUB SWAP1 REVERT JUMPDEST PUSH1 0x0 PUSH2 0xA9 DUP3 DUP8 DUP8 DUP7 PUSH1 0x40 ADD MLOAD PUSH2 0xB27 JUMP JUMPDEST SWAP1 POP PUSH2 0xF7 DUP7 DUP7 DUP1 DUP1 PUSH1 0x20 MUL PUSH1 0x20 ADD PUSH1 0x40 MLOAD SWAP1 DUP2 ADD PUSH1 0x40 MSTORE DUP1 SWAP4 SWAP3 SWAP2 SWAP1 DUP2 DUP2 MSTORE PUSH1 0x20 ADD DUP4 DUP4 PUSH1 0x20 MUL DUP1 DUP3 DUP5 CALLDATACOPY PUSH1 0x0 SWAP3 ADD SWAP2 SWAP1 SWAP2 MSTORE POP POP POP POP PUSH1 0x60 DUP4 ADD MLOAD PUSH1 0x80 DUP5 ADD MLOAD DUP7 MLOAD PUSH1 0x40 DUP8 ADD MLOAD PUSH2 0xC02 JUMP JUMPDEST PUSH2 0x180 DUP3 ADD MSTORE PUSH1 0x0 PUSH2 0x109 DUP4 DUP4 PUSH2 0xCC6 JUMP JUMPDEST SWAP1 POP DUP1 PUSH2 0x129 JUMPI PUSH1 0x40 MLOAD PUSH4 0x13F87443 PUSH1 0xE3 SHL DUP2 MSTORE PUSH1 0x4 ADD PUSH1 0x40 MLOAD DUP1 SWAP2 SUB SWAP1 REVERT JUMPDEST PUSH1 0x0 PUSH2 0x136 DUP5 DUP7 DUP6 PUSH2 0xD87 JUMP JUMPDEST SWAP1 POP DUP1 PUSH2 0x156 JUMPI PUSH1 0x40 MLOAD PUSH4 0x52EC1745 PUSH1 0xE1 SHL DUP2 MSTORE PUSH1 0x4 ADD PUSH1 0x40 MLOAD DUP1 SWAP2 SUB SWAP1 REVERT JUMPDEST DUP2 DUP1 ISZERO PUSH2 0x160 JUMPI POP DUP1 JUMPDEST SWAP11 SWAP10 POP POP POP POP POP POP POP POP POP POP JUMP JUMPDEST PUSH2 0x176 PUSH2 0x4DC5 JUMP JUMPDEST PUSH2 0x17E PUSH2 0x1507 JUMP JUMPDEST SWAP1 POP SWAP1 JUMP JUMPDEST PUSH2 0x18B PUSH2 0x517C JUMP JUMPDEST PUSH2 0x193 PUSH2 0x517C JUMP JUMPDEST PUSH2 0x1A1 PUSH1 0x20 PUSH1 0x0 DUP6 DUP8 PUSH2 0x55CC JUMP JUMPDEST PUSH2 0x1AA SWAP2 PUSH2 0x55F6 JUMP JUMPDEST DUP2 MSTORE PUSH2 0x1BA PUSH1 0x40 PUSH1 0x20 DUP6 DUP8 PUSH2 0x55CC JUMP JUMPDEST PUSH2 0x1C3 SWAP2 PUSH2 0x55F6 JUMP JUMPDEST PUSH1 0x20 DUP3 ADD MSTORE PUSH2 0x1D6 PUSH1 0x60 PUSH1 0x40 DUP6 DUP8 PUSH2 0x55CC JUMP JUMPDEST PUSH2 0x1DF SWAP2 PUSH2 0x55F6 JUMP JUMPDEST PUSH1 0x40 DUP1 DUP4 ADD SWAP2 SWAP1 SWAP2 MSTORE DUP1 MLOAD PUSH1 0x80 DUP1 DUP3 ADD SWAP1 SWAP3 MSTORE SWAP1 DUP2 SWAP1 PUSH2 0x202 SWAP1 PUSH1 0x60 DUP8 DUP10 PUSH2 0x55CC JUMP JUMPDEST PUSH2 0x20B SWAP2 PUSH2 0x55F6 JUMP JUMPDEST DUP2 MSTORE PUSH1 0x20 ADD PUSH2 0x21E PUSH1 0xA0 PUSH1 0x80 DUP8 DUP10 PUSH2 0x55CC JUMP JUMPDEST PUSH2 0x227 SWAP2 PUSH2 0x55F6 JUMP JUMPDEST DUP2 MSTORE PUSH1 0x20 ADD PUSH2 0x23A PUSH1 0xC0 PUSH1 0xA0 DUP8 DUP10 PUSH2 0x55CC JUMP JUMPDEST PUSH2 0x243 SWAP2 PUSH2 0x55F6 JUMP JUMPDEST DUP2 MSTORE PUSH1 0x20 ADD PUSH2 0x256 PUSH1 0xE0 PUSH1 0xC0 DUP8 DUP10 PUSH2 0x55CC JUMP JUMPDEST PUSH2 0x25F SWAP2 PUSH2 0x55F6 JUMP JUMPDEST SWAP1 MSTORE PUSH1 0x60 DUP3 ADD MSTORE PUSH1 0x40 DUP1 MLOAD PUSH1 0x80 DUP2 ADD SWAP1 SWAP2 MSTORE DUP1 PUSH2 0x281 PUSH2 0x100 PUSH1 0xE0 DUP8 DUP10 PUSH2 0x55CC JUMP JUMPDEST PUSH2 0x28A SWAP2 PUSH2 0x55F6 JUMP JUMPDEST DUP2 MSTORE PUSH1 0x20 ADD PUSH2 0x29F PUSH2 0x120 PUSH2 0x100 DUP8 DUP10 PUSH2 0x55CC JUMP JUMPDEST PUSH2 0x2A8 SWAP2 PUSH2 0x55F6 JUMP JUMPDEST DUP2 MSTORE PUSH1 0x20 ADD PUSH2 0x2BD PUSH2 0x140 PUSH2 0x120 DUP8 DUP10 PUSH2 0x55CC JUMP JUMPDEST PUSH2 0x2C6 SWAP2 PUSH2 0x55F6 JUMP JUMPDEST DUP2 MSTORE PUSH1 0x20 ADD PUSH2 0x2DB PUSH2 0x160 PUSH2 0x140 DUP8 DUP10 PUSH2 0x55CC JUMP JUMPDEST PUSH2 0x2E4 SWAP2 PUSH2 0x55F6 JUMP JUMPDEST SWAP1 MSTORE PUSH1 0x80 DUP1 DUP4 ADD SWAP2 SWAP1 SWAP2 MSTORE PUSH1 0x40 DUP1 MLOAD SWAP2 DUP3 ADD SWAP1 MSTORE DUP1 PUSH2 0x309 PUSH2 0x180 PUSH2 0x160 DUP8 DUP10 PUSH2 0x55CC JUMP JUMPDEST PUSH2 0x312 SWAP2 PUSH2 0x55F6 JUMP JUMPDEST DUP2 MSTORE PUSH1 0x20 ADD PUSH2 0x327 PUSH2 0x1A0 PUSH2 0x180 DUP8 DUP10 PUSH2 0x55CC JUMP JUMPDEST PUSH2 0x330 SWAP2 PUSH2 0x55F6 JUMP JUMPDEST DUP2 MSTORE PUSH1 0x20 ADD PUSH2 0x345 PUSH2 0x1C0 PUSH2 0x1A0 DUP8 DUP10 PUSH2 0x55CC JUMP JUMPDEST PUSH2 0x34E SWAP2 PUSH2 0x55F6 JUMP JUMPDEST DUP2 MSTORE PUSH1 0x20 ADD PUSH2 0x363 PUSH2 0x1E0 PUSH2 0x1C0 DUP8 DUP10 PUSH2 0x55CC JUMP JUMPDEST PUSH2 0x36C SWAP2 PUSH2 0x55F6 JUMP JUMPDEST SWAP1 MSTORE PUSH1 0xA0 DUP3 ADD MSTORE PUSH1 0x40 DUP1 MLOAD PUSH1 0x80 DUP2 ADD SWAP1 SWAP2 MSTORE DUP1 PUSH2 0x38F PUSH2 0x200 PUSH2 0x1E0 DUP8 DUP10 PUSH2 0x55CC JUMP JUMPDEST PUSH2 0x398 SWAP2 PUSH2 0x55F6 JUMP JUMPDEST DUP2 MSTORE PUSH1 0x20 ADD PUSH2 0x3AD PUSH2 0x220 PUSH2 0x200 DUP8 DUP10 PUSH2 0x55CC JUMP JUMPDEST PUSH2 0x3B6 SWAP2 PUSH2 0x55F6 JUMP JUMPDEST DUP2 MSTORE PUSH1 0x20 ADD PUSH2 0x3CB PUSH2 0x240 PUSH2 0x220 DUP8 DUP10 PUSH2 0x55CC JUMP JUMPDEST PUSH2 0x3D4 SWAP2 PUSH2 0x55F6 JUMP JUMPDEST DUP2 MSTORE PUSH1 0x20 ADD PUSH2 0x3E9 PUSH2 0x260 PUSH2 0x240 DUP8 DUP10 PUSH2 0x55CC JUMP JUMPDEST PUSH2 0x3F2 SWAP2 PUSH2 0x55F6 JUMP JUMPDEST SWAP1 MSTORE PUSH2 0x100 DUP3 ADD MSTORE PUSH1 0x40 DUP1 MLOAD PUSH1 0x80 DUP2 ADD SWAP1 SWAP2 MSTORE DUP1 PUSH2 0x416 PUSH2 0x280 PUSH2 0x260 DUP8 DUP10 PUSH2 0x55CC JUMP JUMPDEST PUSH2 0x41F SWAP2 PUSH2 0x55F6 JUMP JUMPDEST DUP2 MSTORE PUSH1 0x20 ADD PUSH2 0x434 PUSH2 0x2A0 PUSH2 0x280 DUP8 DUP10 PUSH2 0x55CC JUMP JUMPDEST PUSH2 0x43D SWAP2 PUSH2 0x55F6 JUMP JUMPDEST DUP2 MSTORE PUSH1 0x20 ADD PUSH2 0x452 PUSH2 0x2C0 PUSH2 0x2A0 DUP8 DUP10 PUSH2 0x55CC JUMP JUMPDEST PUSH2 0x45B SWAP2 PUSH2 0x55F6 JUMP JUMPDEST DUP2 MSTORE PUSH1 0x20 ADD PUSH2 0x470 PUSH2 0x2E0 PUSH2 0x2C0 DUP8 DUP10 PUSH2 0x55CC JUMP JUMPDEST PUSH2 0x479 SWAP2 PUSH2 0x55F6 JUMP JUMPDEST SWAP1 MSTORE PUSH2 0x120 DUP3 ADD MSTORE PUSH1 0x40 DUP1 MLOAD PUSH1 0x80 DUP2 ADD SWAP1 SWAP2 MSTORE DUP1 PUSH2 0x49D PUSH2 0x300 PUSH2 0x2E0 DUP8 DUP10 PUSH2 0x55CC JUMP JUMPDEST PUSH2 0x4A6 SWAP2 PUSH2 0x55F6 JUMP JUMPDEST DUP2 MSTORE PUSH1 0x20 ADD PUSH2 0x4BB PUSH2 0x320 PUSH2 0x300 DUP8 DUP10 PUSH2 0x55CC JUMP JUMPDEST PUSH2 0x4C4 SWAP2 PUSH2 0x55F6 JUMP JUMPDEST DUP2 MSTORE PUSH1 0x20 ADD PUSH2 0x4D9 PUSH2 0x340 PUSH2 0x320 DUP8 DUP10 PUSH2 0x55CC JUMP JUMPDEST PUSH2 0x4E2 SWAP2 PUSH2 0x55F6 JUMP JUMPDEST DUP2 MSTORE PUSH1 0x20 ADD PUSH2 0x4F7 PUSH2 0x360 PUSH2 0x340 DUP8 DUP10 PUSH2 0x55CC JUMP JUMPDEST PUSH2 0x500 SWAP2 PUSH2 0x55F6 JUMP JUMPDEST SWAP1 MSTORE PUSH1 0xC0 DUP3 ADD MSTORE PUSH1 0x40 DUP1 MLOAD PUSH1 0x80 DUP2 ADD SWAP1 SWAP2 MSTORE DUP1 PUSH2 0x523 PUSH2 0x380 PUSH2 0x360 DUP8 DUP10 PUSH2 0x55CC JUMP JUMPDEST PUSH2 0x52C SWAP2 PUSH2 0x55F6 JUMP JUMPDEST DUP2 MSTORE PUSH1 0x20 ADD PUSH2 0x541 PUSH2 0x3A0 PUSH2 0x380 DUP8 DUP10 PUSH2 0x55CC JUMP JUMPDEST PUSH2 0x54A SWAP2 PUSH2 0x55F6 JUMP JUMPDEST DUP2 MSTORE PUSH1 0x20 ADD PUSH2 0x55F PUSH2 0x3C0 PUSH2 0x3A0 DUP8 DUP10 PUSH2 0x55CC JUMP JUMPDEST PUSH2 0x568 SWAP2 PUSH2 0x55F6 JUMP JUMPDEST DUP2 MSTORE PUSH1 0x20 ADD PUSH2 0x57D PUSH2 0x3E0 PUSH2 0x3C0 DUP8 DUP10 PUSH2 0x55CC JUMP JUMPDEST PUSH2 0x586 SWAP2 PUSH2 0x55F6 JUMP JUMPDEST SWAP1 MSTORE PUSH2 0x140 DUP3 ADD MSTORE PUSH1 0x40 DUP1 MLOAD PUSH1 0x80 DUP2 ADD SWAP1 SWAP2 MSTORE DUP1 PUSH2 0x5AA PUSH2 0x400 PUSH2 0x3E0 DUP8 DUP10 PUSH2 0x55CC JUMP JUMPDEST PUSH2 0x5B3 SWAP2 PUSH2 0x55F6 JUMP JUMPDEST DUP2 MSTORE PUSH1 0x20 ADD PUSH2 0x5C8 PUSH2 0x420 PUSH2 0x400 DUP8 DUP10 PUSH2 0x55CC JUMP JUMPDEST PUSH2 0x5D1 SWAP2 PUSH2 0x55F6 JUMP JUMPDEST DUP2 MSTORE PUSH1 0x20 ADD PUSH2 0x5E6 PUSH2 0x440 PUSH2 0x420 DUP8 DUP10 PUSH2 0x55CC JUMP JUMPDEST PUSH2 0x5EF SWAP2 PUSH2 0x55F6 JUMP JUMPDEST DUP2 MSTORE PUSH1 0x20 ADD PUSH2 0x604 PUSH2 0x460 PUSH2 0x440 DUP8 DUP10 PUSH2 0x55CC JUMP JUMPDEST PUSH2 0x60D SWAP2 PUSH2 0x55F6 JUMP JUMPDEST SWAP1 MSTORE PUSH1 0xE0 DUP3 ADD MSTORE PUSH2 0x460 PUSH1 0x0 JUMPDEST PUSH1 0x1C DUP2 LT ISZERO PUSH2 0x6DF JUMPI PUSH1 0x0 PUSH1 0x8 PUSH2 0x632 DUP4 PUSH1 0x20 PUSH2 0x562A JUMP JUMPDEST PUSH2 0x63C SWAP2 SWAP1 PUSH2 0x562A JUMP JUMPDEST PUSH2 0x646 SWAP1 DUP5 PUSH2 0x5641 JUMP JUMPDEST SWAP1 POP PUSH1 0x0 JUMPDEST PUSH1 0x8 DUP2 LT ISZERO PUSH2 0x6D5 JUMPI PUSH1 0x0 PUSH2 0x661 DUP3 PUSH1 0x20 PUSH2 0x562A JUMP JUMPDEST PUSH2 0x66B SWAP1 DUP5 PUSH2 0x5641 JUMP JUMPDEST SWAP1 POP PUSH1 0x0 PUSH2 0x67A DUP3 PUSH1 0x20 PUSH2 0x5641 JUMP JUMPDEST SWAP1 POP PUSH2 0x699 PUSH2 0x68B DUP3 DUP5 DUP13 DUP15 PUSH2 0x55CC JUMP JUMPDEST PUSH2 0x694 SWAP2 PUSH2 0x55F6 JUMP JUMPDEST PUSH2 0x1DEE JUMP JUMPDEST DUP8 PUSH2 0x160 ADD MLOAD DUP7 PUSH1 0x1C DUP2 LT PUSH2 0x6B0 JUMPI PUSH2 0x6B0 PUSH2 0x5654 JUMP JUMPDEST PUSH1 0x20 MUL ADD MLOAD DUP5 PUSH1 0x8 DUP2 LT PUSH2 0x6C6 JUMPI PUSH2 0x6C6 PUSH2 0x5654 JUMP JUMPDEST PUSH1 0x20 MUL ADD MSTORE POP POP PUSH1 0x1 ADD PUSH2 0x64B JUMP JUMPDEST POP POP PUSH1 0x1 ADD PUSH2 0x61A JUMP JUMPDEST POP PUSH2 0x6EC PUSH1 0x8 PUSH1 0x1C PUSH2 0x562A JUMP JUMPDEST PUSH2 0x6F7 SWAP1 PUSH1 0x20 PUSH2 0x562A JUMP JUMPDEST PUSH2 0x701 SWAP1 DUP3 PUSH2 0x5641 JUMP JUMPDEST SWAP1 POP PUSH1 0x0 JUMPDEST PUSH1 0x2C DUP2 LT ISZERO PUSH2 0x76C JUMPI PUSH1 0x0 PUSH2 0x71C DUP3 PUSH1 0x20 PUSH2 0x562A JUMP JUMPDEST PUSH2 0x726 SWAP1 DUP5 PUSH2 0x5641 JUMP JUMPDEST SWAP1 POP PUSH1 0x0 PUSH2 0x735 DUP3 PUSH1 0x20 PUSH2 0x5641 JUMP JUMPDEST SWAP1 POP PUSH2 0x746 PUSH2 0x68B DUP3 DUP5 DUP11 DUP13 PUSH2 0x55CC JUMP JUMPDEST DUP6 PUSH2 0x180 ADD MLOAD DUP5 PUSH1 0x2C DUP2 LT PUSH2 0x75D JUMPI PUSH2 0x75D PUSH2 0x5654 JUMP JUMPDEST PUSH1 0x20 MUL ADD MSTORE POP POP PUSH1 0x1 ADD PUSH2 0x706 JUMP JUMPDEST POP PUSH2 0x779 PUSH1 0x2C PUSH1 0x20 PUSH2 0x562A JUMP JUMPDEST PUSH2 0x783 SWAP1 DUP3 PUSH2 0x5641 JUMP JUMPDEST SWAP1 POP PUSH1 0x0 JUMPDEST PUSH2 0x794 PUSH1 0x1 PUSH1 0x1C PUSH2 0x566A JUMP JUMPDEST DUP2 LT ISZERO PUSH2 0x8B4 JUMPI PUSH1 0x0 PUSH2 0x7A8 DUP3 PUSH1 0x80 PUSH2 0x562A JUMP JUMPDEST PUSH2 0x7B2 SWAP1 DUP5 PUSH2 0x5641 JUMP JUMPDEST SWAP1 POP PUSH1 0x0 PUSH2 0x7C1 DUP3 PUSH1 0x20 PUSH2 0x5641 JUMP JUMPDEST SWAP1 POP DUP1 PUSH1 0x0 PUSH2 0x7D1 DUP3 PUSH1 0x20 PUSH2 0x5641 JUMP JUMPDEST SWAP1 POP DUP1 PUSH1 0x0 PUSH2 0x7E1 DUP3 PUSH1 0x20 PUSH2 0x5641 JUMP JUMPDEST SWAP1 POP DUP1 PUSH1 0x0 PUSH2 0x7F1 DUP3 PUSH1 0x20 PUSH2 0x5641 JUMP JUMPDEST SWAP1 POP PUSH1 0x40 MLOAD DUP1 PUSH1 0x80 ADD PUSH1 0x40 MSTORE DUP1 DUP16 DUP16 DUP12 SWAP1 DUP12 SWAP3 PUSH2 0x810 SWAP4 SWAP3 SWAP2 SWAP1 PUSH2 0x55CC JUMP JUMPDEST PUSH2 0x819 SWAP2 PUSH2 0x55F6 JUMP JUMPDEST PUSH1 0x0 SHR DUP2 MSTORE PUSH1 0x20 ADD DUP16 DUP16 DUP10 SWAP1 DUP10 SWAP3 PUSH2 0x833 SWAP4 SWAP3 SWAP2 SWAP1 PUSH2 0x55CC JUMP JUMPDEST PUSH2 0x83C SWAP2 PUSH2 0x55F6 JUMP JUMPDEST PUSH1 0x0 SHR DUP2 MSTORE PUSH1 0x20 ADD DUP16 DUP16 DUP8 SWAP1 DUP8 SWAP3 PUSH2 0x856 SWAP4 SWAP3 SWAP2 SWAP1 PUSH2 0x55CC JUMP JUMPDEST PUSH2 0x85F SWAP2 PUSH2 0x55F6 JUMP JUMPDEST PUSH1 0x0 SHR DUP2 MSTORE PUSH1 0x20 ADD DUP16 DUP16 DUP6 SWAP1 DUP6 SWAP3 PUSH2 0x879 SWAP4 SWAP3 SWAP2 SWAP1 PUSH2 0x55CC JUMP JUMPDEST PUSH2 0x882 SWAP2 PUSH2 0x55F6 JUMP JUMPDEST SWAP1 MSTORE PUSH2 0x1A0 DUP13 ADD MLOAD DUP11 PUSH1 0x1B DUP2 LT PUSH2 0x89B JUMPI PUSH2 0x89B PUSH2 0x5654 JUMP JUMPDEST PUSH1 0x20 MUL ADD MSTORE POP POP PUSH1 0x1 SWAP1 SWAP7 ADD SWAP6 POP PUSH2 0x788 SWAP5 POP POP POP POP POP JUMP JUMPDEST POP PUSH2 0x8C1 PUSH1 0x1 PUSH1 0x1C PUSH2 0x566A JUMP JUMPDEST PUSH2 0x8CC SWAP1 PUSH1 0x80 PUSH2 0x562A JUMP JUMPDEST PUSH2 0x8D6 SWAP1 DUP3 PUSH2 0x5641 JUMP JUMPDEST SWAP1 POP PUSH1 0x0 JUMPDEST PUSH1 0x1C DUP2 LT ISZERO PUSH2 0x941 JUMPI PUSH1 0x0 PUSH2 0x8F1 DUP3 PUSH1 0x20 PUSH2 0x562A JUMP JUMPDEST PUSH2 0x8FB SWAP1 DUP5 PUSH2 0x5641 JUMP JUMPDEST SWAP1 POP PUSH1 0x0 PUSH2 0x90A DUP3 PUSH1 0x20 PUSH2 0x5641 JUMP JUMPDEST SWAP1 POP PUSH2 0x91B PUSH2 0x68B DUP3 DUP5 DUP11 DUP13 PUSH2 0x55CC JUMP JUMPDEST DUP6 PUSH2 0x1C0 ADD MLOAD DUP5 PUSH1 0x1C DUP2 LT PUSH2 0x932 JUMPI PUSH2 0x932 PUSH2 0x5654 JUMP JUMPDEST PUSH1 0x20 MUL ADD MSTORE POP POP PUSH1 0x1 ADD PUSH2 0x8DB JUMP JUMPDEST POP PUSH2 0x94E PUSH1 0x1C PUSH1 0x20 PUSH2 0x562A JUMP JUMPDEST PUSH2 0x958 SWAP1 DUP3 PUSH2 0x5641 JUMP JUMPDEST SWAP1 POP PUSH1 0x40 MLOAD DUP1 PUSH1 0x80 ADD PUSH1 0x40 MSTORE DUP1 DUP7 DUP7 DUP5 SWAP1 DUP6 PUSH1 0x20 PUSH2 0x976 SWAP2 SWAP1 PUSH2 0x5641 JUMP JUMPDEST SWAP3 PUSH2 0x983 SWAP4 SWAP3 SWAP2 SWAP1 PUSH2 0x55CC JUMP JUMPDEST PUSH2 0x98C SWAP2 PUSH2 0x55F6 JUMP JUMPDEST PUSH1 0x0 SHR DUP2 MSTORE PUSH1 0x20 ADD DUP7 DUP7 DUP5 PUSH1 0x20 PUSH2 0x9A3 SWAP2 SWAP1 PUSH2 0x5641 JUMP JUMPDEST SWAP1 PUSH2 0x9AF DUP7 PUSH1 0x40 PUSH2 0x5641 JUMP JUMPDEST SWAP3 PUSH2 0x9BC SWAP4 SWAP3 SWAP2 SWAP1 PUSH2 0x55CC JUMP JUMPDEST PUSH2 0x9C5 SWAP2 PUSH2 0x55F6 JUMP JUMPDEST DUP2 MSTORE PUSH1 0x20 ADD DUP7 DUP7 PUSH2 0x9D7 DUP6 PUSH1 0x40 PUSH2 0x5641 JUMP JUMPDEST SWAP1 PUSH2 0x9E3 DUP7 PUSH1 0x60 PUSH2 0x5641 JUMP JUMPDEST SWAP3 PUSH2 0x9F0 SWAP4 SWAP3 SWAP2 SWAP1 PUSH2 0x55CC JUMP JUMPDEST PUSH2 0x9F9 SWAP2 PUSH2 0x55F6 JUMP JUMPDEST DUP2 MSTORE PUSH1 0x20 ADD DUP7 DUP7 PUSH2 0xA0B DUP6 PUSH1 0x60 PUSH2 0x5641 JUMP JUMPDEST SWAP1 PUSH2 0xA17 DUP7 PUSH1 0x80 PUSH2 0x5641 JUMP JUMPDEST SWAP3 PUSH2 0xA24 SWAP4 SWAP3 SWAP2 SWAP1 PUSH2 0x55CC JUMP JUMPDEST PUSH2 0xA2D SWAP2 PUSH2 0x55F6 JUMP JUMPDEST SWAP1 MSTORE PUSH2 0x1E0 DUP4 ADD MSTORE PUSH2 0xA40 DUP2 PUSH1 0x80 PUSH2 0x5641 JUMP JUMPDEST SWAP1 POP PUSH1 0x40 MLOAD DUP1 PUSH1 0x80 ADD PUSH1 0x40 MSTORE DUP1 DUP7 DUP7 DUP5 SWAP1 DUP6 PUSH1 0x20 PUSH2 0xA5E SWAP2 SWAP1 PUSH2 0x5641 JUMP JUMPDEST SWAP3 PUSH2 0xA6B SWAP4 SWAP3 SWAP2 SWAP1 PUSH2 0x55CC JUMP JUMPDEST PUSH2 0xA74 SWAP2 PUSH2 0x55F6 JUMP JUMPDEST PUSH1 0x0 SHR DUP2 MSTORE PUSH1 0x20 ADD DUP7 DUP7 DUP5 PUSH1 0x20 PUSH2 0xA8B SWAP2 SWAP1 PUSH2 0x5641 JUMP JUMPDEST SWAP1 PUSH2 0xA97 DUP7 PUSH1 0x40 PUSH2 0x5641 JUMP JUMPDEST SWAP3 PUSH2 0xAA4 SWAP4 SWAP3 SWAP2 SWAP1 PUSH2 0x55CC JUMP JUMPDEST PUSH2 0xAAD SWAP2 PUSH2 0x55F6 JUMP JUMPDEST DUP2 MSTORE PUSH1 0x20 ADD DUP7 DUP7 PUSH2 0xABF DUP6 PUSH1 0x40 PUSH2 0x5641 JUMP JUMPDEST SWAP1 PUSH2 0xACB DUP7 PUSH1 0x60 PUSH2 0x5641 JUMP JUMPDEST SWAP3 PUSH2 0xAD8 SWAP4 SWAP3 SWAP2 SWAP1 PUSH2 0x55CC JUMP JUMPDEST PUSH2 0xAE1 SWAP2 PUSH2 0x55F6 JUMP JUMPDEST DUP2 MSTORE PUSH1 0x20 ADD DUP7 DUP7 PUSH2 0xAF3 DUP6 PUSH1 0x60 PUSH2 0x5641 JUMP JUMPDEST SWAP1 PUSH2 0xAFF DUP7 PUSH1 0x80 PUSH2 0x5641 JUMP JUMPDEST SWAP3 PUSH2 0xB0C SWAP4 SWAP3 SWAP2 SWAP1 PUSH2 0x55CC JUMP JUMPDEST PUSH2 0xB15 SWAP2 PUSH2 0x55F6 JUMP JUMPDEST SWAP1 MSTORE PUSH2 0x200 DUP4 ADD MSTORE POP SWAP1 POP JUMPDEST SWAP3 SWAP2 POP POP JUMP JUMPDEST PUSH2 0xB2F PUSH2 0x524E JUMP JUMPDEST PUSH1 0x0 PUSH2 0xB3D DUP7 DUP7 DUP7 DUP7 PUSH2 0x1E08 JUMP JUMPDEST PUSH1 0x40 DUP7 ADD SWAP2 SWAP1 SWAP2 MSTORE PUSH1 0x20 DUP6 ADD SWAP2 SWAP1 SWAP2 MSTORE SWAP1 DUP4 MSTORE SWAP1 POP PUSH2 0xB5C DUP2 DUP8 PUSH2 0x225F JUMP JUMPDEST PUSH1 0x80 DUP6 ADD SWAP2 SWAP1 SWAP2 MSTORE PUSH1 0x60 DUP5 ADD SWAP2 SWAP1 SWAP2 MSTORE SWAP1 POP PUSH2 0xB78 DUP2 DUP8 PUSH2 0x2334 JUMP JUMPDEST PUSH1 0xA0 DUP5 ADD SWAP2 SWAP1 SWAP2 MSTORE SWAP1 POP PUSH2 0xB8B DUP2 PUSH2 0x24B4 JUMP JUMPDEST PUSH1 0xC0 DUP5 ADD SWAP2 SWAP1 SWAP2 MSTORE SWAP1 POP PUSH2 0xB9F DUP7 DUP3 PUSH2 0x2517 JUMP JUMPDEST PUSH1 0xE0 DUP5 ADD SWAP2 SWAP1 SWAP2 MSTORE SWAP1 POP PUSH2 0xBB3 DUP7 DUP3 PUSH2 0x25EE JUMP JUMPDEST PUSH2 0x100 DUP5 ADD SWAP2 SWAP1 SWAP2 MSTORE SWAP1 POP PUSH2 0xBC8 DUP7 DUP3 PUSH2 0x267C JUMP JUMPDEST PUSH2 0x120 DUP5 ADD SWAP2 SWAP1 SWAP2 MSTORE SWAP1 POP PUSH2 0xBDD DUP7 DUP3 PUSH2 0x27EC JUMP JUMPDEST PUSH2 0x140 DUP5 ADD SWAP2 SWAP1 SWAP2 MSTORE SWAP1 POP PUSH2 0xBF2 DUP7 DUP3 PUSH2 0x2860 JUMP JUMPDEST POP PUSH2 0x160 DUP4 ADD MSTORE POP SWAP5 SWAP4 POP POP POP POP JUMP JUMPDEST PUSH1 0x0 PUSH1 0x1 DUP1 DUP3 PUSH2 0xC27 DUP8 PUSH2 0xC22 DUP11 PUSH2 0xC1D PUSH2 0x694 DUP11 DUP13 PUSH2 0x5641 JUMP JUMPDEST PUSH2 0x28B8 JUMP JUMPDEST PUSH2 0x28D3 JUMP JUMPDEST SWAP1 POP PUSH1 0x0 PUSH2 0xC46 DUP9 PUSH2 0xC41 DUP12 PUSH2 0xC1D PUSH2 0x694 DUP12 PUSH1 0x1 PUSH2 0x5641 JUMP JUMPDEST PUSH2 0x28EE JUMP JUMPDEST SWAP1 POP PUSH1 0x0 JUMPDEST PUSH1 0x2 DUP2 LT ISZERO PUSH2 0xCBB JUMPI PUSH1 0x0 PUSH2 0xC78 DUP13 DUP4 DUP2 MLOAD DUP2 LT PUSH2 0xC6B JUMPI PUSH2 0xC6B PUSH2 0x5654 JUMP JUMPDEST PUSH1 0x20 MUL PUSH1 0x20 ADD ADD MLOAD PUSH2 0x1DEE JUMP JUMPDEST SWAP1 POP PUSH2 0xC88 DUP7 PUSH2 0xC1D DUP7 DUP5 PUSH2 0x28D3 JUMP JUMPDEST SWAP6 POP PUSH2 0xC98 DUP6 PUSH2 0xC1D DUP6 DUP5 PUSH2 0x28D3 JUMP JUMPDEST SWAP5 POP PUSH2 0xCA4 DUP5 DUP13 PUSH2 0x28D3 JUMP JUMPDEST SWAP4 POP PUSH2 0xCB0 DUP4 DUP13 PUSH2 0x28EE JUMP JUMPDEST SWAP3 POP POP PUSH1 0x1 ADD PUSH2 0xC4B JUMP JUMPDEST POP PUSH2 0x160 DUP5 DUP5 PUSH2 0x2920 JUMP JUMPDEST PUSH1 0x0 DUP1 PUSH1 0x1 DUP2 JUMPDEST PUSH1 0x12 DUP2 LT ISZERO PUSH2 0xD69 JUMPI PUSH1 0x0 DUP7 PUSH2 0x160 ADD MLOAD DUP3 PUSH1 0x1C DUP2 LT PUSH2 0xCEF JUMPI PUSH2 0xCEF PUSH2 0x5654 JUMP JUMPDEST PUSH1 0x20 MUL ADD MLOAD SWAP1 POP PUSH1 0x0 PUSH2 0xD02 DUP3 DUP7 PUSH2 0x2936 JUMP JUMPDEST SWAP1 POP DUP1 PUSH2 0xD22 JUMPI PUSH1 0x40 MLOAD PUSH4 0x13F87443 PUSH1 0xE3 SHL DUP2 MSTORE PUSH1 0x4 ADD PUSH1 0x40 MLOAD DUP1 SWAP2 SUB SWAP1 REVERT JUMPDEST PUSH1 0x0 DUP8 PUSH1 0xE0 ADD MLOAD DUP5 PUSH1 0x1C DUP2 LT PUSH2 0xD3A JUMPI PUSH2 0xD3A PUSH2 0x5654 JUMP JUMPDEST PUSH1 0x20 MUL ADD MLOAD SWAP1 POP PUSH2 0xD4B DUP4 DUP3 PUSH2 0x295A JUMP JUMPDEST SWAP6 POP PUSH2 0xD59 DUP9 DUP7 DUP4 DUP8 PUSH2 0x2B7C JUMP JUMPDEST SWAP5 POP POP POP POP DUP1 PUSH1 0x1 ADD SWAP1 POP PUSH2 0xCCD JUMP JUMPDEST POP PUSH1 0x0 PUSH2 0xD77 DUP7 DUP7 DUP5 PUSH2 0x2BB9 JUMP JUMPDEST SWAP1 POP DUP3 DUP2 EQ JUMPDEST SWAP7 SWAP6 POP POP POP POP POP POP JUMP JUMPDEST PUSH1 0x0 PUSH2 0xDBB PUSH1 0x40 MLOAD DUP1 PUSH1 0xA0 ADD PUSH1 0x40 MSTORE DUP1 PUSH1 0x0 DUP2 MSTORE PUSH1 0x20 ADD PUSH1 0x0 DUP2 MSTORE PUSH1 0x20 ADD PUSH1 0x0 DUP2 MSTORE PUSH1 0x20 ADD PUSH1 0x0 DUP2 MSTORE PUSH1 0x20 ADD PUSH1 0x0 DUP2 MSTORE POP SWAP1 JUMP JUMPDEST PUSH1 0x0 PUSH2 0xDCB DUP5 PUSH2 0x120 ADD MLOAD PUSH2 0x2C33 JUMP JUMPDEST SWAP1 POP PUSH2 0xDD5 PUSH2 0x52C8 JUMP JUMPDEST PUSH2 0xDDD PUSH2 0x52E7 JUMP JUMPDEST PUSH1 0x0 PUSH2 0xDE9 DUP8 DUP6 PUSH2 0x2C98 JUMP JUMPDEST DUP1 MLOAD PUSH2 0x140 DUP10 ADD MLOAD SWAP2 SWAP3 POP PUSH2 0xE0A SWAP2 PUSH2 0xC22 SWAP1 DUP5 PUSH1 0x1 JUMPDEST PUSH1 0x20 MUL ADD MLOAD PUSH2 0x28B8 JUMP JUMPDEST DUP6 MSTORE PUSH2 0x120 DUP8 ADD MLOAD PUSH2 0xE38 SWAP1 PUSH2 0xE1F SWAP1 PUSH2 0x2D2B JUMP JUMPDEST DUP3 MLOAD PUSH2 0x140 DUP11 ADD MLOAD PUSH2 0xC1D SWAP2 SWAP1 PUSH2 0xC41 SWAP1 DUP7 PUSH1 0x1 PUSH2 0xE00 JUMP JUMPDEST PUSH1 0x20 DUP7 ADD MSTORE PUSH1 0x1 DUP4 MSTORE PUSH2 0x1E0 DUP10 ADD MLOAD PUSH2 0xE50 SWAP1 PUSH2 0x2D9B JUMP JUMPDEST DUP3 MSTORE PUSH1 0x1 PUSH1 0x60 DUP7 ADD DUP2 SWAP1 MSTORE PUSH1 0x0 PUSH1 0x80 DUP8 ADD MSTORE JUMPDEST PUSH1 0x23 DUP2 GT PUSH2 0xF09 JUMPI PUSH2 0xE85 PUSH2 0xE7B DUP8 PUSH1 0x0 ADD MLOAD PUSH2 0x2DE7 JUMP JUMPDEST DUP8 PUSH1 0x60 ADD MLOAD PUSH2 0x28B8 JUMP JUMPDEST DUP5 DUP3 PUSH1 0x4A DUP2 LT PUSH2 0xE97 JUMPI PUSH2 0xE97 PUSH2 0x5654 JUMP JUMPDEST PUSH1 0x20 MUL ADD MSTORE PUSH1 0x80 DUP7 ADD MLOAD PUSH2 0x180 DUP12 ADD MLOAD PUSH2 0xEDA SWAP2 SWAP1 PUSH2 0xC22 SWAP1 PUSH2 0xEBB PUSH1 0x1 DUP7 PUSH2 0x566A JUMP JUMPDEST PUSH1 0x2C DUP2 LT PUSH2 0xECB JUMPI PUSH2 0xECB PUSH2 0x5654 JUMP JUMPDEST PUSH1 0x20 MUL ADD MLOAD DUP10 PUSH1 0x60 ADD MLOAD PUSH2 0x28B8 JUMP JUMPDEST PUSH1 0x80 DUP8 ADD MSTORE PUSH1 0x60 DUP7 ADD MLOAD PUSH2 0x100 DUP10 ADD MLOAD PUSH2 0xEF4 SWAP2 SWAP1 PUSH2 0x28B8 JUMP JUMPDEST PUSH1 0x60 DUP8 ADD MSTORE PUSH2 0xF02 DUP2 PUSH2 0x567D JUMP JUMPDEST SWAP1 POP PUSH2 0xE63 JUMP JUMPDEST POP PUSH1 0x0 PUSH2 0xF18 PUSH1 0x23 PUSH1 0x1 PUSH2 0x5641 JUMP JUMPDEST SWAP1 POP JUMPDEST PUSH1 0x2C DUP2 GT PUSH2 0xF98 JUMPI PUSH2 0xF33 PUSH2 0xE7B DUP8 PUSH1 0x20 ADD MLOAD PUSH2 0x2DE7 JUMP JUMPDEST DUP5 DUP3 PUSH1 0x4A DUP2 LT PUSH2 0xF45 JUMPI PUSH2 0xF45 PUSH2 0x5654 JUMP JUMPDEST PUSH1 0x20 MUL ADD MSTORE PUSH1 0x80 DUP7 ADD MLOAD PUSH2 0x180 DUP12 ADD MLOAD PUSH2 0xF69 SWAP2 SWAP1 PUSH2 0xC22 SWAP1 PUSH2 0xEBB PUSH1 0x1 DUP7 PUSH2 0x566A JUMP JUMPDEST PUSH1 0x80 DUP8 ADD MSTORE PUSH1 0x60 DUP7 ADD MLOAD PUSH2 0x100 DUP10 ADD MLOAD PUSH2 0xF83 SWAP2 SWAP1 PUSH2 0x28B8 JUMP JUMPDEST PUSH1 0x60 DUP8 ADD MSTORE PUSH2 0xF91 DUP2 PUSH2 0x567D JUMP JUMPDEST SWAP1 POP PUSH2 0xF1B JUMP JUMPDEST POP PUSH1 0x60 DUP9 ADD MLOAD DUP3 PUSH1 0x1 PUSH1 0x20 MUL ADD MSTORE PUSH1 0x80 DUP9 ADD MLOAD DUP3 PUSH1 0x2 PUSH1 0x20 MUL ADD MSTORE PUSH1 0xA0 DUP9 ADD MLOAD DUP3 PUSH1 0x3 PUSH1 0x20 MUL ADD MSTORE PUSH1 0xC0 DUP9 ADD MLOAD DUP3 PUSH1 0x4 PUSH1 0x20 MUL ADD MSTORE PUSH1 0xE0 DUP9 ADD MLOAD DUP3 PUSH1 0x5 PUSH1 0x20 MUL ADD MSTORE PUSH2 0x100 DUP9 ADD MLOAD DUP3 PUSH1 0x6 PUSH1 0x20 MUL ADD MSTORE PUSH2 0x120 DUP9 ADD MLOAD DUP3 PUSH1 0x7 PUSH1 0x20 MUL ADD MSTORE PUSH2 0x140 DUP9 ADD MLOAD DUP3 PUSH1 0x8 PUSH1 0x20 MUL ADD MSTORE PUSH2 0x180 DUP9 ADD MLOAD DUP3 PUSH1 0x9 PUSH1 0x20 MUL ADD MSTORE PUSH2 0x160 DUP9 ADD MLOAD DUP3 PUSH1 0xA PUSH1 0x20 MUL ADD MSTORE PUSH2 0x1A0 DUP9 ADD MLOAD DUP3 PUSH1 0xB PUSH1 0x20 MUL ADD MSTORE PUSH2 0x1C0 DUP9 ADD MLOAD DUP3 PUSH1 0xC PUSH1 0x20 MUL ADD MSTORE PUSH2 0x1E0 DUP9 ADD MLOAD DUP3 PUSH1 0xD PUSH1 0x20 MUL ADD MSTORE PUSH2 0x200 DUP9 ADD MLOAD DUP3 PUSH1 0xE PUSH1 0x20 MUL ADD MSTORE PUSH2 0x220 DUP9 ADD MLOAD DUP3 PUSH1 0xF PUSH1 0x20 MUL ADD MSTORE PUSH2 0x240 DUP9 ADD MLOAD DUP3 PUSH1 0x10 PUSH1 0x20 MUL ADD MSTORE PUSH2 0x260 DUP9 ADD MLOAD DUP3 PUSH1 0x11 PUSH1 0x20 MUL ADD MSTORE PUSH2 0x280 DUP9 ADD MLOAD DUP3 PUSH1 0x12 PUSH1 0x20 MUL ADD MSTORE PUSH2 0x2A0 DUP9 ADD MLOAD DUP3 PUSH1 0x13 PUSH1 0x20 MUL ADD MSTORE PUSH2 0x2C0 DUP9 ADD MLOAD DUP3 PUSH1 0x14 PUSH1 0x20 MUL ADD MSTORE PUSH2 0x2E0 DUP9 ADD MLOAD DUP3 PUSH1 0x15 PUSH1 0x20 MUL ADD MSTORE PUSH2 0x300 DUP9 ADD MLOAD DUP3 PUSH1 0x16 PUSH1 0x20 MUL ADD MSTORE PUSH2 0x320 DUP9 ADD MLOAD DUP3 PUSH1 0x17 PUSH1 0x20 MUL ADD MSTORE PUSH2 0x340 DUP9 ADD MLOAD DUP3 PUSH1 0x18 PUSH1 0x20 MUL ADD MSTORE PUSH2 0x360 DUP9 ADD MLOAD DUP3 PUSH1 0x19 PUSH1 0x20 MUL ADD MSTORE PUSH2 0x380 DUP9 ADD MLOAD DUP3 PUSH1 0x1A PUSH1 0x20 MUL ADD MSTORE PUSH2 0x3A0 DUP9 ADD MLOAD DUP3 PUSH1 0x1B PUSH1 0x20 MUL ADD MSTORE PUSH1 0x60 DUP10 ADD MLOAD PUSH2 0x111C SWAP1 PUSH2 0x2D9B JUMP JUMPDEST PUSH2 0x380 DUP4 ADD MSTORE PUSH1 0x80 DUP10 ADD MLOAD PUSH2 0x1130 SWAP1 PUSH2 0x2D9B JUMP JUMPDEST PUSH2 0x3A0 DUP4 ADD MSTORE PUSH1 0xA0 DUP10 ADD MLOAD PUSH2 0x1144 SWAP1 PUSH2 0x2D9B JUMP JUMPDEST PUSH2 0x3C0 DUP4 ADD MSTORE PUSH1 0xC0 DUP10 ADD MLOAD PUSH2 0x1158 SWAP1 PUSH2 0x2D9B JUMP JUMPDEST PUSH2 0x3E0 DUP4 ADD MSTORE PUSH1 0xE0 DUP10 ADD MLOAD PUSH2 0x116C SWAP1 PUSH2 0x2D9B JUMP JUMPDEST PUSH2 0x400 DUP4 ADD MSTORE PUSH2 0x140 DUP10 ADD MLOAD PUSH2 0x1181 SWAP1 PUSH2 0x2D9B JUMP JUMPDEST PUSH2 0x420 DUP4 ADD MSTORE PUSH2 0x100 DUP10 ADD MLOAD PUSH2 0x1196 SWAP1 PUSH2 0x2D9B JUMP JUMPDEST PUSH2 0x440 DUP4 ADD MSTORE PUSH2 0x120 DUP10 ADD MLOAD PUSH2 0x11AB SWAP1 PUSH2 0x2D9B JUMP JUMPDEST PUSH2 0x460 DUP4 ADD MSTORE PUSH2 0x300 DUP9 ADD MLOAD PUSH2 0x480 DUP4 ADD MSTORE PUSH2 0x320 DUP9 ADD MLOAD PUSH2 0x4A0 DUP4 ADD MSTORE PUSH2 0x340 DUP9 ADD MLOAD PUSH2 0x4C0 DUP4 ADD MSTORE PUSH2 0x360 DUP9 ADD MLOAD PUSH2 0x4E0 DUP4 ADD MSTORE PUSH1 0x60 DUP10 ADD MLOAD PUSH2 0x11EF SWAP1 PUSH2 0x2D9B JUMP JUMPDEST PUSH2 0x500 DUP4 ADD MSTORE PUSH1 0x80 DUP10 ADD MLOAD PUSH2 0x1203 SWAP1 PUSH2 0x2D9B JUMP JUMPDEST PUSH2 0x520 DUP4 ADD MSTORE PUSH1 0xA0 DUP10 ADD MLOAD PUSH2 0x1217 SWAP1 PUSH2 0x2D9B JUMP JUMPDEST PUSH2 0x540 DUP4 ADD MSTORE PUSH1 0xC0 DUP10 ADD MLOAD PUSH2 0x122B SWAP1 PUSH2 0x2D9B JUMP JUMPDEST PUSH2 0x560 DUP4 ADD MSTORE PUSH1 0xE0 DUP10 ADD MLOAD PUSH2 0x123F SWAP1 PUSH2 0x2D9B JUMP JUMPDEST PUSH2 0x580 DUP4 ADD MSTORE PUSH1 0x0 PUSH1 0x40 DUP7 ADD MSTORE PUSH2 0x140 DUP8 ADD MLOAD PUSH2 0x125B SWAP1 PUSH2 0x2E01 JUMP JUMPDEST PUSH1 0x60 DUP7 ADD MSTORE PUSH1 0x0 JUMPDEST PUSH2 0x126F PUSH1 0x1 PUSH1 0x1C PUSH2 0x566A JUMP JUMPDEST DUP2 LT ISZERO PUSH2 0x1398 JUMPI PUSH1 0x0 PUSH2 0x1284 PUSH1 0x1 PUSH1 0x12 PUSH2 0x566A JUMP JUMPDEST DUP3 LT ISZERO SWAP1 POP PUSH1 0x0 DUP2 PUSH2 0x12EE JUMPI PUSH1 0x60 DUP9 ADD MLOAD PUSH2 0x12B5 SWAP1 DUP6 PUSH2 0x12A5 DUP7 PUSH1 0x2 PUSH2 0x5641 JUMP JUMPDEST PUSH1 0x1D DUP2 LT PUSH2 0xE00 JUMPI PUSH2 0xE00 PUSH2 0x5654 JUMP JUMPDEST SWAP1 POP PUSH2 0x12C0 DUP2 PUSH2 0x2DE7 JUMP JUMPDEST DUP7 DUP5 PUSH2 0x12CE PUSH1 0x2C PUSH1 0x1 PUSH2 0x5641 JUMP JUMPDEST PUSH2 0x12D8 SWAP2 SWAP1 PUSH2 0x5641 JUMP JUMPDEST PUSH1 0x4A DUP2 LT PUSH2 0x12E8 JUMPI PUSH2 0x12E8 PUSH2 0x5654 JUMP JUMPDEST PUSH1 0x20 MUL ADD MSTORE JUMPDEST PUSH2 0x131D DUP9 PUSH1 0x40 ADD MLOAD PUSH2 0xC22 DUP4 DUP16 PUSH2 0x1C0 ADD MLOAD DUP8 PUSH1 0x1 PUSH2 0x130D SWAP2 SWAP1 PUSH2 0x5641 JUMP JUMPDEST PUSH1 0x1C DUP2 LT PUSH2 0xE00 JUMPI PUSH2 0xE00 PUSH2 0x5654 JUMP JUMPDEST PUSH1 0x40 DUP10 ADD MSTORE PUSH1 0x60 DUP9 ADD MLOAD PUSH2 0x140 DUP12 ADD MLOAD PUSH2 0x1337 SWAP2 SWAP1 PUSH2 0x28B8 JUMP JUMPDEST PUSH1 0x60 DUP10 ADD MSTORE PUSH2 0x1A0 DUP13 ADD MLOAD PUSH2 0x1361 SWAP1 DUP5 PUSH1 0x1B DUP2 LT PUSH2 0x1357 JUMPI PUSH2 0x1357 PUSH2 0x5654 JUMP JUMPDEST PUSH1 0x20 MUL ADD MLOAD PUSH2 0x2D9B JUMP JUMPDEST DUP6 DUP5 PUSH2 0x136F PUSH1 0x2C PUSH1 0x1 PUSH2 0x5641 JUMP JUMPDEST PUSH2 0x1379 SWAP2 SWAP1 PUSH2 0x5641 JUMP JUMPDEST PUSH1 0x4A DUP2 LT PUSH2 0x1389 JUMPI PUSH2 0x1389 PUSH2 0x5654 JUMP JUMPDEST PUSH1 0x20 MUL ADD MSTORE POP POP PUSH1 0x1 ADD PUSH2 0x1263 JUMP JUMPDEST POP PUSH1 0x0 PUSH2 0x13B0 DUP9 DUP8 PUSH1 0x80 ADD MLOAD DUP13 PUSH2 0x1C0 ADD MLOAD DUP9 PUSH2 0x2E0D JUMP JUMPDEST PUSH1 0x40 DUP8 ADD MLOAD SWAP1 SWAP2 POP PUSH2 0x13C8 SWAP1 PUSH2 0xC22 DUP4 DUP6 PUSH1 0x0 PUSH2 0xE00 JUMP JUMPDEST PUSH1 0x40 DUP8 ADD DUP2 SWAP1 MSTORE PUSH2 0x1C0 DUP12 ADD MLOAD MLOAD PUSH2 0x140 DUP11 ADD MLOAD PUSH2 0x13F7 SWAP3 SWAP2 PUSH2 0xC22 SWAP2 PUSH2 0x13EF SWAP2 SWAP1 PUSH2 0x28B8 JUMP JUMPDEST DUP6 PUSH1 0x1 PUSH2 0xE00 JUMP JUMPDEST PUSH1 0x40 DUP1 DUP9 ADD SWAP2 SWAP1 SWAP2 MSTORE DUP1 MLOAD DUP1 DUP3 ADD SWAP1 SWAP2 MSTORE PUSH1 0x1 DUP2 MSTORE PUSH1 0x2 PUSH1 0x20 DUP3 ADD MSTORE DUP4 PUSH2 0x1420 PUSH1 0x1C PUSH1 0x2C PUSH2 0x5641 JUMP JUMPDEST PUSH1 0x4A DUP2 LT PUSH2 0x1430 JUMPI PUSH2 0x1430 PUSH2 0x5654 JUMP JUMPDEST PUSH1 0x20 MUL ADD MSTORE PUSH1 0x40 DUP7 ADD MLOAD DUP5 PUSH2 0x1447 PUSH1 0x1C PUSH1 0x2C PUSH2 0x5641 JUMP JUMPDEST PUSH1 0x4A DUP2 LT PUSH2 0x1457 JUMPI PUSH2 0x1457 PUSH2 0x5654 JUMP JUMPDEST PUSH1 0x20 MUL ADD MSTORE PUSH2 0x200 DUP11 ADD MLOAD PUSH1 0x0 SWAP1 PUSH2 0x146E SWAP1 PUSH2 0x2D9B JUMP JUMPDEST SWAP1 POP DUP1 DUP5 PUSH2 0x147E PUSH1 0x1C PUSH1 0x2C PUSH2 0x5641 JUMP JUMPDEST PUSH2 0x1489 SWAP1 PUSH1 0x1 PUSH2 0x5641 JUMP JUMPDEST PUSH1 0x4A DUP2 LT PUSH2 0x1499 JUMPI PUSH2 0x1499 PUSH2 0x5654 JUMP JUMPDEST PUSH1 0x20 MUL ADD MSTORE PUSH2 0x160 DUP10 ADD MLOAD DUP6 PUSH2 0x14B1 PUSH1 0x1C PUSH1 0x2C PUSH2 0x5641 JUMP JUMPDEST PUSH2 0x14BC SWAP1 PUSH1 0x1 PUSH2 0x5641 JUMP JUMPDEST PUSH1 0x4A DUP2 LT PUSH2 0x14CC JUMPI PUSH2 0x14CC PUSH2 0x5654 JUMP JUMPDEST PUSH1 0x20 MUL ADD MSTORE PUSH1 0x0 PUSH2 0x14DD DUP6 DUP8 PUSH2 0x2F12 JUMP JUMPDEST SWAP1 POP PUSH1 0x0 PUSH2 0x14EA DUP4 PUSH2 0x2FE5 JUMP JUMPDEST SWAP1 POP PUSH2 0x14F6 DUP3 DUP3 PUSH2 0x305D JUMP JUMPDEST SWAP14 SWAP13 POP POP POP POP POP POP POP POP POP POP POP POP POP JUMP JUMPDEST PUSH2 0x150F PUSH2 0x4DC5 JUMP JUMPDEST POP PUSH1 0x40 DUP1 MLOAD PUSH2 0x3C0 DUP2 ADD DUP3 MSTORE PUSH3 0x40000 DUP2 MSTORE PUSH1 0x12 PUSH1 0x20 DUP1 DUP4 ADD SWAP2 SWAP1 SWAP2 MSTORE PUSH1 0x2 DUP3 DUP5 ADD DUP2 SWAP1 MSTORE DUP4 MLOAD DUP1 DUP6 ADD DUP6 MSTORE PUSH31 0x9891BA98B16A931022D562AFCF3BBE33264F39480D40E1A756BB2B67A67C32 DUP2 MSTORE PUSH32 0x1F2B153CB5F99110D4D3E706E908C763BB046A623F2AB7141EBAEF42C4702CD7 DUP2 DUP5 ADD MSTORE PUSH1 0x60 DUP5 ADD MSTORE DUP4 MLOAD DUP1 DUP6 ADD DUP6 MSTORE PUSH32 0x2CD3883078BDBF32147AF0A597AD2794C942902909C774DFFC649EA23E7CA7D3 DUP2 MSTORE PUSH32 0x236962843CEB03D83FB13B188C162D3F009FF2476B3AC9F9323655C7D1F65577 DUP2 DUP5 ADD MSTORE PUSH1 0x80 DUP5 ADD MSTORE DUP4 MLOAD DUP1 DUP6 ADD DUP6 MSTORE PUSH32 0x19354E8AFECB9C7BB0990AF24ED3F8BF666B01956747F187DC6C88B09C136DAB DUP2 MSTORE PUSH32 0x24D034B6DE2FFD8811ECBF337B78DFF4CB60B04EFB17141BE573FD0EA8B62160 DUP2 DUP5 ADD MSTORE PUSH1 0xA0 DUP5 ADD MSTORE DUP4 MLOAD DUP1 DUP6 ADD DUP6 MSTORE PUSH32 0x152A6BC982907BAE246E25C05917D90AB95E13358346F966224B5F86D57F38BB DUP2 MSTORE PUSH32 0xB5F115AA2ADBCDB4918ED59691BA16586FEC9E3EC4D9AD3BB41A7E1C7A0C36B DUP2 DUP5 ADD MSTORE PUSH1 0xC0 DUP5 ADD MSTORE DUP4 MLOAD DUP1 DUP6 ADD DUP6 MSTORE PUSH32 0xCE2C38CC43F912ABFAD7230E874BD6D9B367D20C25E46883D876D136EACA823 DUP2 MSTORE PUSH32 0x26947A0CEB77DC4EE0EC74C1B046F0B74BF7029CE4A35DEBA46E62D782E3C452 DUP2 DUP5 ADD MSTORE PUSH1 0xE0 DUP5 ADD MSTORE DUP4 MLOAD DUP1 DUP6 ADD DUP6 MSTORE PUSH32 0x139452394E1BF9785EA784A186BD3C2C3AE681A7EB3F66D9B2DA0CABAE900BF8 DUP2 MSTORE PUSH32 0x22B8343F3616FD16193C6D319659DC90DFABED3CCCAB07AA69ADCEF66593D7E4 DUP2 DUP5 ADD MSTORE PUSH2 0x100 DUP5 ADD MSTORE DUP4 MLOAD DUP1 DUP6 ADD DUP6 MSTORE PUSH32 0x1ABE4043DA8B3EE96553BD2214AAB5EB8DDB4E5163E7D7F15E763B8B6468CE03 DUP2 MSTORE PUSH32 0x12EE2D46F2F1BEFCA3EF3AAE4AC0E395519EB8724E9AAB0EA7CD7E3692C91853 DUP2 DUP5 ADD MSTORE PUSH2 0x120 DUP5 ADD MSTORE DUP4 MLOAD DUP1 DUP6 ADD DUP6 MSTORE PUSH32 0x8F50E0450748457163A377B91034F2495D83DB1A99874869BBDF1CEF9F743CD DUP2 MSTORE PUSH32 0x12652FE45B72E3E3DA4978ED90A68CF709C9121EF5D919D058ECD0A54271DB5D DUP2 DUP5 ADD MSTORE PUSH2 0x140 DUP5 ADD MSTORE DUP4 MLOAD DUP1 DUP6 ADD DUP6 MSTORE PUSH32 0x28AC89FAA27C9BF4C14416A3BCC0298E30A6756095071D934B6B623E85619A2D DUP2 MSTORE PUSH32 0x1AE2880ACC89C552509F7D51581667C3851E960CAA2E9AD718D4444A37F4F320 DUP2 DUP5 ADD MSTORE PUSH2 0x160 DUP5 ADD MSTORE DUP4 MLOAD DUP1 DUP6 ADD DUP6 MSTORE PUSH32 0x234EFE99A75D4D4DA5C228231E94309EEA78DF6418610081ED3B2EBFE698BC5D DUP2 MSTORE PUSH32 0x1545A5518153176A0E8BA76EB2EC25B50E9CAC35907327A5305AFE8C91ED4726 DUP2 DUP5 ADD MSTORE PUSH2 0x180 DUP5 ADD MSTORE DUP4 MLOAD DUP1 DUP6 ADD DUP6 MSTORE PUSH32 0x19206CEC1DE2F224B62EC64F224337782063EA1CCCCB3E29F2BF984F6098B085 DUP2 MSTORE PUSH32 0x1BF7A269C608647B698A7C4A853EE32EDD7459432D302CA4336DB37E17A31B45 DUP2 DUP5 ADD MSTORE PUSH2 0x1A0 DUP5 ADD MSTORE DUP4 MLOAD DUP1 DUP6 ADD DUP6 MSTORE PUSH32 0x20AFB3F14E5A49829B3B25CCA610906480C2EBCA92C3C7DB32104C3C552EDF0D DUP2 MSTORE PUSH31 0xD84BD324FED9E043BB1C53BF9D76B47DF6DC9A846E8755CF41CA77933BEDF7 DUP2 DUP5 ADD MSTORE PUSH2 0x1C0 DUP5 ADD MSTORE DUP4 MLOAD DUP1 DUP6 ADD DUP6 MSTORE PUSH32 0x11CBF57F0AEF4C2A2C595962B8BC590C979434E96CD9D62B343F3336138A037C DUP2 MSTORE PUSH32 0x25E79BD15F15DFFE2527F5022F6201DC9191210C0C869A858094D71DC8D3F00E DUP2 DUP5 ADD MSTORE PUSH2 0x1E0 DUP5 ADD MSTORE DUP4 MLOAD DUP1 DUP6 ADD DUP6 MSTORE PUSH32 0x230560882C1A908C1E22EA51BE8FB5E44CE39C8AFF7D36813C314942E12DBE72 DUP2 MSTORE PUSH32 0x28EB7F5274AF203347BCCE94B85B38C19EAED9E40CE422EC9BB55F0B3A645C57 DUP2 DUP5 ADD MSTORE PUSH2 0x200 DUP5 ADD MSTORE DUP4 MLOAD DUP1 DUP6 ADD DUP6 MSTORE PUSH32 0x3004389F432DB0E653E32B585D865B85E548881C3CDBB8341C8D5AEBA7815C41 DUP2 MSTORE PUSH32 0xF912DB3BE8FD6AF2931ECA6398DE9722542AE7F0207F0268A5748655FFF8CB0 DUP2 DUP5 ADD MSTORE PUSH2 0x220 DUP5 ADD MSTORE DUP4 MLOAD DUP1 DUP6 ADD DUP6 MSTORE PUSH32 0x1FA5207D195F23D48846A8B8BC71305CAE0DBF9C2A36DF8B34FEEA7E9DFD41CD DUP2 MSTORE PUSH32 0x2F277AB2AFDB3EA9CCDE04098F09650F3210C0EE76130D01C657399495E505E5 DUP2 DUP5 ADD MSTORE PUSH2 0x240 DUP5 ADD MSTORE DUP4 MLOAD DUP1 DUP6 ADD DUP6 MSTORE PUSH32 0xFA50EE7E676B181B00EF3A7D183BB6CC93DECD7E5D6C957B848C8DDFF4D44CB DUP2 MSTORE PUSH32 0x23D22588653BE0BF1838C78164DEEB6D17B0567E79FE41E40290638A3460019A DUP2 DUP5 ADD MSTORE PUSH2 0x260 DUP5 ADD MSTORE DUP4 MLOAD DUP1 DUP6 ADD DUP6 MSTORE PUSH32 0x5984689F2A9ED585DB12C41495A826877BDADAB07F8F5F98845B7E4668603A6 DUP2 MSTORE PUSH32 0xCBCF6D16144BE82A8BCF101F71B335B8DF2FCF3EB9ADDAF308759C6035D7250 DUP2 DUP5 ADD MSTORE PUSH2 0x280 DUP5 ADD MSTORE DUP4 MLOAD DUP1 DUP6 ADD DUP6 MSTORE PUSH32 0x1DB8E12863ABEEC2E112AF5095C79920EB93EB1F1A77E6516D9A24199EE1B532 DUP2 MSTORE PUSH32 0xA4B611B3CBEB944B6A1CC0F1611E6FA7C1F4E37A7447C4F45798158C4BB50E0 DUP2 DUP5 ADD MSTORE PUSH2 0x2A0 DUP5 ADD MSTORE DUP4 MLOAD DUP1 DUP6 ADD DUP6 MSTORE PUSH32 0x1CC7424B73547F19146955565C614F96B5CED8C8C9505E763501C383283299A0 DUP2 MSTORE PUSH32 0x57864D247FDA9DB25BEA79B8BE2253BCB9D4A91AB6AB8F9399457AE05F28DBC DUP2 DUP5 ADD MSTORE PUSH2 0x2C0 DUP5 ADD MSTORE DUP4 MLOAD DUP1 DUP6 ADD DUP6 MSTORE PUSH32 0x139849FB0A25647A2134233A6D4B6E6136E9C1981C75681041B6639D30D71AEF DUP2 MSTORE PUSH32 0x1914111000B51B59B2EAA20C8DCB0E40ECA2CCBE16D04AA19124B8CB5F5E9132 DUP2 DUP5 ADD MSTORE PUSH2 0x2E0 DUP5 ADD MSTORE DUP4 MLOAD DUP1 DUP6 ADD DUP6 MSTORE PUSH32 0x151ED523CFCEC4952F91CAF594BE159DD1CD9F7A36129C6820E8CDADA90808ED DUP2 MSTORE PUSH32 0x2D50EEC18DCC7819AB7DBA531573C8FBA9A5E21AAF06E6C6D637AAAE72F02E3A DUP2 DUP5 ADD MSTORE PUSH2 0x300 DUP5 ADD MSTORE DUP4 MLOAD DUP1 DUP6 ADD DUP6 MSTORE PUSH32 0x2894E1EEDD54E60F3981A1496E0B314B46071BA34A724776D6F71C6A19C2E654 DUP2 MSTORE PUSH32 0x172B9354D30FC85E03CC7C359FEF280D5186B117182CBACA082EC8F5CCA20AB9 DUP2 DUP5 ADD MSTORE PUSH2 0x320 DUP5 ADD MSTORE DUP4 MLOAD DUP1 DUP6 ADD DUP6 MSTORE PUSH32 0xFF23139F423BC5504D843F69FA7563935A81A0DBE3C08DE6675A27C6DF99A38 DUP2 MSTORE PUSH32 0xA48DFF44F8AF0E150DCE9731196A9B981FC2C81064109561567007200606E9D DUP2 DUP5 ADD MSTORE PUSH2 0x340 DUP5 ADD MSTORE DUP4 MLOAD DUP1 DUP6 ADD DUP6 MSTORE PUSH32 0x1EA2387F72E46131B26CDDC9FB3F94DA435BB9D49B91AA41F6ED398CD2F704A5 DUP2 MSTORE PUSH32 0x67787A509A9D2FC45E9E30075DA18E28F58079C5E35842A4207B434CB8BFB68 DUP2 DUP5 ADD MSTORE PUSH2 0x360 DUP5 ADD MSTORE DUP4 MLOAD DUP1 DUP6 ADD DUP6 MSTORE PUSH1 0x1 DUP2 MSTORE DUP1 DUP4 ADD SWAP2 SWAP1 SWAP2 MSTORE PUSH2 0x380 DUP4 ADD MSTORE DUP3 MLOAD DUP1 DUP5 ADD SWAP1 SWAP4 MSTORE PUSH32 0x1D42C8673A4C598E70DE9C7A5C97C794F6C21CBF1FABB67E8B88617F9188AB3D DUP4 MSTORE PUSH32 0x229429A4E555D548E7FF728368BFBA0408B96C9A2FB82C728B45D9B3C24AF93B SWAP1 DUP4 ADD MSTORE PUSH2 0x3A0 DUP2 ADD SWAP2 SWAP1 SWAP2 MSTORE SWAP1 JUMP JUMPDEST PUSH1 0x0 PUSH2 0xB21 PUSH1 0x0 DUP1 MLOAD PUSH1 0x20 PUSH2 0x58DC DUP4 CODECOPY DUP2 MLOAD SWAP2 MSTORE DUP4 PUSH2 0x56AC JUMP JUMPDEST PUSH1 0x0 DUP1 DUP1 DUP1 DUP1 PUSH2 0x1E19 DUP7 PUSH1 0x3 PUSH2 0x5641 JUMP JUMPDEST PUSH2 0x1E24 SWAP1 PUSH1 0xC PUSH2 0x5641 JUMP JUMPDEST PUSH8 0xFFFFFFFFFFFFFFFF DUP2 GT ISZERO PUSH2 0x1E3C JUMPI PUSH2 0x1E3C PUSH2 0x56C0 JUMP JUMPDEST PUSH1 0x40 MLOAD SWAP1 DUP1 DUP3 MSTORE DUP1 PUSH1 0x20 MUL PUSH1 0x20 ADD DUP3 ADD PUSH1 0x40 MSTORE DUP1 ISZERO PUSH2 0x1E65 JUMPI DUP2 PUSH1 0x20 ADD PUSH1 0x20 DUP3 MUL DUP1 CALLDATASIZE DUP4 CALLDATACOPY ADD SWAP1 POP JUMPDEST POP SWAP1 POP DUP9 PUSH1 0x0 ADD MLOAD PUSH1 0x0 SHL DUP2 PUSH1 0x0 DUP2 MLOAD DUP2 LT PUSH2 0x1E83 JUMPI PUSH2 0x1E83 PUSH2 0x5654 JUMP JUMPDEST PUSH1 0x20 MUL PUSH1 0x20 ADD ADD DUP2 DUP2 MSTORE POP POP DUP9 PUSH1 0x20 ADD MLOAD PUSH1 0x0 SHL DUP2 PUSH1 0x1 DUP2 MLOAD DUP2 LT PUSH2 0x1EAA JUMPI PUSH2 0x1EAA PUSH2 0x5654 JUMP JUMPDEST PUSH1 0x20 MUL PUSH1 0x20 ADD ADD DUP2 DUP2 MSTORE POP POP DUP9 PUSH1 0x40 ADD MLOAD PUSH1 0x0 SHL DUP2 PUSH1 0x2 DUP2 MLOAD DUP2 LT PUSH2 0x1ED1 JUMPI PUSH2 0x1ED1 PUSH2 0x5654 JUMP JUMPDEST PUSH1 0x20 MUL PUSH1 0x20 ADD ADD DUP2 DUP2 MSTORE POP POP PUSH1 0x0 JUMPDEST DUP7 DUP2 LT ISZERO PUSH2 0x1F32 JUMPI DUP9 DUP9 DUP3 DUP2 DUP2 LT PUSH2 0x1EFA JUMPI PUSH2 0x1EFA PUSH2 0x5654 JUMP JUMPDEST SWAP1 POP PUSH1 0x20 MUL ADD CALLDATALOAD DUP3 DUP3 PUSH1 0x3 PUSH2 0x1F0F SWAP2 SWAP1 PUSH2 0x5641 JUMP JUMPDEST DUP2 MLOAD DUP2 LT PUSH2 0x1F1F JUMPI PUSH2 0x1F1F PUSH2 0x5654 JUMP JUMPDEST PUSH1 0x20 SWAP1 DUP2 MUL SWAP2 SWAP1 SWAP2 ADD ADD MSTORE PUSH1 0x1 ADD PUSH2 0x1EE0 JUMP JUMPDEST POP PUSH1 0x60 DUP10 ADD MLOAD MLOAD DUP2 PUSH2 0x1F45 DUP9 PUSH1 0x3 PUSH2 0x5641 JUMP JUMPDEST DUP2 MLOAD DUP2 LT PUSH2 0x1F55 JUMPI PUSH2 0x1F55 PUSH2 0x5654 JUMP JUMPDEST PUSH1 0x20 SWAP1 DUP2 MUL SWAP2 SWAP1 SWAP2 ADD DUP2 ADD SWAP2 SWAP1 SWAP2 MSTORE PUSH1 0x60 DUP11 ADD MLOAD ADD MLOAD DUP2 PUSH2 0x1F77 DUP9 PUSH1 0x3 PUSH2 0x5641 JUMP JUMPDEST PUSH2 0x1F82 SWAP1 PUSH1 0x1 PUSH2 0x5641 JUMP JUMPDEST DUP2 MLOAD DUP2 LT PUSH2 0x1F92 JUMPI PUSH2 0x1F92 PUSH2 0x5654 JUMP JUMPDEST PUSH1 0x20 SWAP1 DUP2 MUL SWAP2 SWAP1 SWAP2 ADD ADD MSTORE PUSH1 0x60 DUP10 ADD MLOAD PUSH1 0x40 ADD MLOAD DUP2 PUSH2 0x1FB2 DUP9 PUSH1 0x3 PUSH2 0x5641 JUMP JUMPDEST PUSH2 0x1FBD SWAP1 PUSH1 0x2 PUSH2 0x5641 JUMP JUMPDEST DUP2 MLOAD DUP2 LT PUSH2 0x1FCD JUMPI PUSH2 0x1FCD PUSH2 0x5654 JUMP JUMPDEST PUSH1 0x20 SWAP1 DUP2 MUL SWAP2 SWAP1 SWAP2 ADD ADD MSTORE PUSH1 0x60 DUP1 DUP11 ADD MLOAD ADD MLOAD DUP2 PUSH2 0x1FEC DUP9 PUSH1 0x3 PUSH2 0x5641 JUMP JUMPDEST PUSH2 0x1FF7 SWAP1 PUSH1 0x3 PUSH2 0x5641 JUMP JUMPDEST DUP2 MLOAD DUP2 LT PUSH2 0x2007 JUMPI PUSH2 0x2007 PUSH2 0x5654 JUMP JUMPDEST PUSH1 0x20 SWAP1 DUP2 MUL SWAP2 SWAP1 SWAP2 ADD ADD MSTORE PUSH1 0x80 DUP10 ADD MLOAD MLOAD DUP2 PUSH2 0x2024 DUP9 PUSH1 0x3 PUSH2 0x5641 JUMP JUMPDEST PUSH2 0x202F SWAP1 PUSH1 0x4 PUSH2 0x5641 JUMP JUMPDEST DUP2 MLOAD DUP2 LT PUSH2 0x203F JUMPI PUSH2 0x203F PUSH2 0x5654 JUMP JUMPDEST PUSH1 0x20 SWAP1 DUP2 MUL SWAP2 SWAP1 SWAP2 ADD DUP2 ADD SWAP2 SWAP1 SWAP2 MSTORE PUSH1 0x80 DUP11 ADD MLOAD ADD MLOAD DUP2 PUSH2 0x2061 DUP9 PUSH1 0x3 PUSH2 0x5641 JUMP JUMPDEST PUSH2 0x206C SWAP1 PUSH1 0x5 PUSH2 0x5641 JUMP JUMPDEST DUP2 MLOAD DUP2 LT PUSH2 0x207C JUMPI PUSH2 0x207C PUSH2 0x5654 JUMP JUMPDEST PUSH1 0x20 SWAP1 DUP2 MUL SWAP2 SWAP1 SWAP2 ADD ADD MSTORE PUSH1 0x80 DUP10 ADD MLOAD PUSH1 0x40 ADD MLOAD DUP2 PUSH2 0x209C DUP9 PUSH1 0x3 PUSH2 0x5641 JUMP JUMPDEST PUSH2 0x20A7 SWAP1 PUSH1 0x6 PUSH2 0x5641 JUMP JUMPDEST DUP2 MLOAD DUP2 LT PUSH2 0x20B7 JUMPI PUSH2 0x20B7 PUSH2 0x5654 JUMP JUMPDEST PUSH1 0x20 SWAP1 DUP2 MUL SWAP2 SWAP1 SWAP2 ADD ADD MSTORE PUSH1 0x80 DUP10 ADD MLOAD PUSH1 0x60 ADD MLOAD DUP2 PUSH2 0x20D7 DUP9 PUSH1 0x3 PUSH2 0x5641 JUMP JUMPDEST PUSH2 0x20E2 SWAP1 PUSH1 0x7 PUSH2 0x5641 JUMP JUMPDEST DUP2 MLOAD DUP2 LT PUSH2 0x20F2 JUMPI PUSH2 0x20F2 PUSH2 0x5654 JUMP JUMPDEST PUSH1 0x20 SWAP1 DUP2 MUL SWAP2 SWAP1 SWAP2 ADD ADD MSTORE PUSH1 0xA0 DUP10 ADD MLOAD MLOAD DUP2 PUSH2 0x210F DUP9 PUSH1 0x3 PUSH2 0x5641 JUMP JUMPDEST PUSH2 0x211A SWAP1 PUSH1 0x8 PUSH2 0x5641 JUMP JUMPDEST DUP2 MLOAD DUP2 LT PUSH2 0x212A JUMPI PUSH2 0x212A PUSH2 0x5654 JUMP JUMPDEST PUSH1 0x20 SWAP1 DUP2 MUL SWAP2 SWAP1 SWAP2 ADD DUP2 ADD SWAP2 SWAP1 SWAP2 MSTORE PUSH1 0xA0 DUP11 ADD MLOAD ADD MLOAD DUP2 PUSH2 0x214C DUP9 PUSH1 0x3 PUSH2 0x5641 JUMP JUMPDEST PUSH2 0x2157 SWAP1 PUSH1 0x9 PUSH2 0x5641 JUMP JUMPDEST DUP2 MLOAD DUP2 LT PUSH2 0x2167 JUMPI PUSH2 0x2167 PUSH2 0x5654 JUMP JUMPDEST PUSH1 0x20 SWAP1 DUP2 MUL SWAP2 SWAP1 SWAP2 ADD ADD MSTORE PUSH1 0xA0 DUP10 ADD MLOAD PUSH1 0x40 ADD MLOAD DUP2 PUSH2 0x2187 DUP9 PUSH1 0x3 PUSH2 0x5641 JUMP JUMPDEST PUSH2 0x2192 SWAP1 PUSH1 0xA PUSH2 0x5641 JUMP JUMPDEST DUP2 MLOAD DUP2 LT PUSH2 0x21A2 JUMPI PUSH2 0x21A2 PUSH2 0x5654 JUMP JUMPDEST PUSH1 0x20 SWAP1 DUP2 MUL SWAP2 SWAP1 SWAP2 ADD ADD MSTORE PUSH1 0xA0 DUP10 ADD MLOAD PUSH1 0x60 ADD MLOAD DUP2 PUSH2 0x21C2 DUP9 PUSH1 0x3 PUSH2 0x5641 JUMP JUMPDEST PUSH2 0x21CD SWAP1 PUSH1 0xB PUSH2 0x5641 JUMP JUMPDEST DUP2 MLOAD DUP2 LT PUSH2 0x21DD JUMPI PUSH2 0x21DD PUSH2 0x5654 JUMP JUMPDEST PUSH1 0x20 MUL PUSH1 0x20 ADD ADD DUP2 DUP2 MSTORE POP POP PUSH2 0x2218 DUP2 PUSH1 0x40 MLOAD PUSH1 0x20 ADD PUSH2 0x21FD SWAP2 SWAP1 PUSH2 0x56D6 JUMP JUMPDEST PUSH1 0x40 MLOAD PUSH1 0x20 DUP2 DUP4 SUB SUB DUP2 MSTORE SWAP1 PUSH1 0x40 MSTORE DUP1 MLOAD SWAP1 PUSH1 0x20 ADD KECCAK256 PUSH2 0x1DEE JUMP JUMPDEST SWAP2 POP PUSH2 0x2223 DUP3 PUSH2 0x3264 JUMP JUMPDEST PUSH1 0x40 DUP1 MLOAD PUSH1 0x20 DUP2 ADD DUP7 SWAP1 MSTORE SWAP3 SWAP8 POP SWAP1 SWAP6 POP PUSH2 0x223E SWAP2 ADD PUSH2 0x21FD JUMP JUMPDEST SWAP2 POP PUSH1 0x0 PUSH2 0x224B DUP4 PUSH2 0x3264 JUMP JUMPDEST POP SWAP6 SWAP11 SWAP5 SWAP10 POP SWAP5 SWAP8 POP SWAP1 SWAP6 POP SWAP2 SWAP4 POP POP POP POP JUMP JUMPDEST PUSH1 0x0 DUP1 PUSH1 0x0 PUSH2 0x226C PUSH2 0x5321 JUMP JUMPDEST DUP6 DUP2 MSTORE PUSH2 0x100 DUP6 DUP2 ADD DUP1 MLOAD MLOAD PUSH1 0x20 DUP1 DUP6 ADD SWAP2 SWAP1 SWAP2 MSTORE DUP2 MLOAD DUP2 ADD MLOAD PUSH1 0x40 DUP1 DUP7 ADD SWAP2 SWAP1 SWAP2 MSTORE DUP3 MLOAD DUP2 ADD MLOAD PUSH1 0x60 DUP1 DUP8 ADD SWAP2 SWAP1 SWAP2 MSTORE SWAP3 MLOAD DUP4 ADD MLOAD PUSH1 0x80 DUP7 ADD MSTORE PUSH2 0x120 DUP1 DUP11 ADD DUP1 MLOAD MLOAD PUSH1 0xA0 DUP9 ADD MSTORE DUP1 MLOAD DUP5 ADD MLOAD PUSH1 0xC0 DUP1 DUP10 ADD SWAP2 SWAP1 SWAP2 MSTORE DUP2 MLOAD DUP5 ADD MLOAD PUSH1 0xE0 DUP10 ADD MSTORE SWAP1 MLOAD DUP6 ADD MLOAD SWAP6 DUP8 ADD SWAP6 SWAP1 SWAP6 MSTORE SWAP4 DUP10 ADD DUP1 MLOAD MLOAD SWAP5 DUP7 ADD SWAP5 SWAP1 SWAP5 MSTORE DUP4 MLOAD DUP3 ADD MLOAD PUSH2 0x140 DUP7 ADD MSTORE DUP4 MLOAD DUP2 ADD MLOAD PUSH2 0x160 DUP7 ADD MSTORE SWAP3 MLOAD SWAP1 SWAP2 ADD MLOAD PUSH2 0x180 DUP5 ADD MSTORE SWAP1 MLOAD PUSH2 0x231A SWAP2 PUSH2 0x21FD SWAP2 DUP5 SWAP2 ADD PUSH2 0x570C JUMP JUMPDEST SWAP2 POP PUSH2 0x2325 DUP3 PUSH2 0x3264 JUMP JUMPDEST SWAP1 SWAP8 SWAP1 SWAP7 POP SWAP2 SWAP5 POP SWAP1 SWAP3 POP POP POP JUMP JUMPDEST PUSH2 0x233C PUSH2 0x5340 JUMP JUMPDEST PUSH1 0x0 PUSH2 0x2346 PUSH2 0x535F JUMP JUMPDEST DUP5 DUP2 MSTORE PUSH2 0x140 DUP5 ADD DUP1 MLOAD MLOAD PUSH1 0x20 DUP1 DUP5 ADD SWAP2 SWAP1 SWAP2 MSTORE DUP2 MLOAD DUP2 ADD MLOAD PUSH1 0x40 DUP1 DUP6 ADD SWAP2 SWAP1 SWAP2 MSTORE DUP3 MLOAD DUP2 ADD MLOAD PUSH1 0x60 DUP1 DUP7 ADD SWAP2 SWAP1 SWAP2 MSTORE SWAP3 MLOAD DUP4 ADD MLOAD PUSH1 0x80 DUP6 ADD MSTORE PUSH1 0xE0 DUP1 DUP9 ADD DUP1 MLOAD MLOAD PUSH1 0xA0 DUP8 ADD MSTORE DUP1 MLOAD DUP5 ADD MLOAD PUSH1 0xC0 DUP8 ADD MSTORE DUP1 MLOAD DUP4 ADD MLOAD SWAP2 DUP7 ADD SWAP2 SWAP1 SWAP2 MSTORE MLOAD SWAP1 SWAP3 ADD MLOAD PUSH2 0x100 DUP5 ADD MSTORE SWAP1 MLOAD PUSH2 0x23C0 SWAP2 PUSH2 0x21FD SWAP2 DUP5 SWAP2 ADD PUSH2 0x5741 JUMP JUMPDEST SWAP2 POP PUSH2 0x23CB DUP3 PUSH2 0x3264 JUMP JUMPDEST PUSH1 0x20 DUP6 ADD MSTORE DUP4 MSTORE PUSH1 0x1 JUMPDEST PUSH2 0x23E1 PUSH1 0x2 PUSH1 0x19 PUSH2 0x5776 JUMP JUMPDEST DUP2 LT ISZERO PUSH2 0x2461 JUMPI PUSH2 0x23FE DUP4 PUSH1 0x40 MLOAD PUSH1 0x20 ADD PUSH2 0x21FD SWAP2 DUP2 MSTORE PUSH1 0x20 ADD SWAP1 JUMP JUMPDEST SWAP3 POP PUSH2 0x2409 DUP4 PUSH2 0x3264 JUMP JUMPDEST DUP6 PUSH2 0x2415 DUP5 PUSH1 0x2 PUSH2 0x562A JUMP JUMPDEST PUSH1 0x19 DUP2 LT PUSH2 0x2425 JUMPI PUSH2 0x2425 PUSH2 0x5654 JUMP JUMPDEST PUSH1 0x20 MUL ADD DUP7 PUSH2 0x2435 DUP6 PUSH1 0x2 PUSH2 0x562A JUMP JUMPDEST PUSH2 0x2440 SWAP1 PUSH1 0x1 PUSH2 0x5641 JUMP JUMPDEST PUSH1 0x19 DUP2 LT PUSH2 0x2450 JUMPI PUSH2 0x2450 PUSH2 0x5654 JUMP JUMPDEST PUSH1 0x20 MUL ADD SWAP2 SWAP1 SWAP2 MSTORE MSTORE PUSH1 0x1 ADD PUSH2 0x23D5 JUMP JUMPDEST POP PUSH2 0x2478 DUP3 PUSH1 0x40 MLOAD PUSH1 0x20 ADD PUSH2 0x21FD SWAP2 DUP2 MSTORE PUSH1 0x20 ADD SWAP1 JUMP JUMPDEST SWAP2 POP PUSH1 0x0 PUSH2 0x2485 DUP4 PUSH2 0x3264 JUMP JUMPDEST DUP6 PUSH2 0x2492 PUSH1 0x1 PUSH1 0x19 PUSH2 0x566A JUMP JUMPDEST PUSH1 0x19 DUP2 LT PUSH2 0x24A2 JUMPI PUSH2 0x24A2 PUSH2 0x5654 JUMP JUMPDEST PUSH1 0x20 MUL ADD SWAP2 SWAP1 SWAP2 MSTORE POP POP POP SWAP3 POP SWAP3 SWAP1 POP JUMP JUMPDEST PUSH2 0x24BC PUSH2 0x537E JUMP JUMPDEST PUSH1 0x0 DUP1 JUMPDEST PUSH1 0x1C DUP2 LT ISZERO PUSH2 0x2510 JUMPI PUSH2 0x24DF DUP5 PUSH1 0x40 MLOAD PUSH1 0x20 ADD PUSH2 0x21FD SWAP2 DUP2 MSTORE PUSH1 0x20 ADD SWAP1 JUMP JUMPDEST SWAP4 POP PUSH1 0x0 PUSH2 0x24EC DUP6 PUSH2 0x3264 JUMP JUMPDEST DUP6 DUP5 PUSH1 0x1C DUP2 LT PUSH2 0x24FE JUMPI PUSH2 0x24FE PUSH2 0x5654 JUMP JUMPDEST PUSH1 0x20 MUL ADD SWAP2 SWAP1 SWAP2 MSTORE POP POP PUSH1 0x1 ADD PUSH2 0x24C0 JUMP JUMPDEST POP SWAP1 SWAP3 SWAP1 POP JUMP JUMPDEST PUSH2 0x251F PUSH2 0x537E JUMP JUMPDEST PUSH1 0x0 DUP1 JUMPDEST PUSH1 0x1C DUP2 LT ISZERO PUSH2 0x25E5 JUMPI PUSH2 0x2534 PUSH2 0x535F JUMP JUMPDEST DUP5 DUP2 MSTORE PUSH1 0x0 JUMPDEST PUSH1 0x8 DUP2 LT ISZERO PUSH2 0x259E JUMPI DUP7 PUSH2 0x160 ADD MLOAD DUP4 PUSH1 0x1C DUP2 LT PUSH2 0x255A JUMPI PUSH2 0x255A PUSH2 0x5654 JUMP JUMPDEST PUSH1 0x20 MUL ADD MLOAD DUP2 PUSH1 0x8 DUP2 LT PUSH2 0x2570 JUMPI PUSH2 0x2570 PUSH2 0x5654 JUMP JUMPDEST PUSH1 0x20 MUL ADD MLOAD DUP3 PUSH2 0x2581 DUP4 PUSH1 0x1 PUSH2 0x5641 JUMP JUMPDEST PUSH1 0x9 DUP2 LT PUSH2 0x2591 JUMPI PUSH2 0x2591 PUSH2 0x5654 JUMP JUMPDEST PUSH1 0x20 MUL ADD MSTORE PUSH1 0x1 ADD PUSH2 0x253A JUMP JUMPDEST POP PUSH2 0x25B3 DUP2 PUSH1 0x40 MLOAD PUSH1 0x20 ADD PUSH2 0x21FD SWAP2 SWAP1 PUSH2 0x5741 JUMP JUMPDEST SWAP5 POP PUSH1 0x0 PUSH2 0x25C0 DUP7 PUSH2 0x3264 JUMP JUMPDEST DUP7 DUP6 PUSH1 0x1C DUP2 LT PUSH2 0x25D2 JUMPI PUSH2 0x25D2 PUSH2 0x5654 JUMP JUMPDEST PUSH1 0x20 MUL ADD SWAP2 SWAP1 SWAP2 MSTORE POP POP POP PUSH1 0x1 ADD PUSH2 0x2523 JUMP JUMPDEST POP SWAP1 SWAP4 SWAP2 SWAP3 POP POP JUMP JUMPDEST PUSH1 0x0 DUP1 PUSH2 0x25F9 PUSH2 0x539D JUMP JUMPDEST DUP4 DUP2 MSTORE PUSH1 0x0 JUMPDEST PUSH1 0x2C DUP2 LT ISZERO PUSH2 0x264D JUMPI DUP6 PUSH2 0x180 ADD MLOAD DUP2 PUSH1 0x2C DUP2 LT PUSH2 0x261F JUMPI PUSH2 0x261F PUSH2 0x5654 JUMP JUMPDEST PUSH1 0x20 MUL ADD MLOAD DUP3 PUSH2 0x2630 DUP4 PUSH1 0x1 PUSH2 0x5641 JUMP JUMPDEST PUSH1 0x2D DUP2 LT PUSH2 0x2640 JUMPI PUSH2 0x2640 PUSH2 0x5654 JUMP JUMPDEST PUSH1 0x20 MUL ADD MSTORE PUSH1 0x1 ADD PUSH2 0x25FF JUMP JUMPDEST POP PUSH2 0x2662 DUP2 PUSH1 0x40 MLOAD PUSH1 0x20 ADD PUSH2 0x21FD SWAP2 SWAP1 PUSH2 0x578A JUMP JUMPDEST SWAP2 POP PUSH1 0x0 PUSH2 0x266F DUP4 PUSH2 0x3264 JUMP JUMPDEST POP SWAP7 SWAP3 SWAP6 POP SWAP2 SWAP4 POP POP POP POP JUMP JUMPDEST PUSH1 0x0 DUP1 PUSH2 0x2687 PUSH2 0x53BC JUMP JUMPDEST DUP4 DUP2 MSTORE PUSH1 0x0 JUMPDEST PUSH2 0x2699 PUSH1 0x1 PUSH1 0x1C PUSH2 0x566A JUMP JUMPDEST DUP2 LT ISZERO PUSH2 0x27D7 JUMPI DUP6 PUSH2 0x1A0 ADD MLOAD DUP2 PUSH1 0x1B DUP2 LT PUSH2 0x26B7 JUMPI PUSH2 0x26B7 PUSH2 0x5654 JUMP JUMPDEST PUSH1 0x20 MUL ADD MLOAD MLOAD DUP3 PUSH2 0x26C9 DUP4 PUSH1 0x4 PUSH2 0x562A JUMP JUMPDEST PUSH2 0x26D4 SWAP1 PUSH1 0x1 PUSH2 0x5641 JUMP JUMPDEST PUSH1 0x6D DUP2 LT PUSH2 0x26E4 JUMPI PUSH2 0x26E4 PUSH2 0x5654 JUMP JUMPDEST PUSH1 0x20 MUL ADD MSTORE PUSH2 0x1A0 DUP7 ADD MLOAD DUP2 PUSH1 0x1B DUP2 LT PUSH2 0x2700 JUMPI PUSH2 0x2700 PUSH2 0x5654 JUMP JUMPDEST PUSH1 0x20 MUL ADD MLOAD PUSH1 0x20 ADD MLOAD DUP3 DUP3 PUSH1 0x4 PUSH2 0x2717 SWAP2 SWAP1 PUSH2 0x562A JUMP JUMPDEST PUSH2 0x2722 SWAP1 PUSH1 0x2 PUSH2 0x5641 JUMP JUMPDEST PUSH1 0x6D DUP2 LT PUSH2 0x2732 JUMPI PUSH2 0x2732 PUSH2 0x5654 JUMP JUMPDEST PUSH1 0x20 MUL ADD MSTORE PUSH2 0x1A0 DUP7 ADD MLOAD DUP2 PUSH1 0x1B DUP2 LT PUSH2 0x274E JUMPI PUSH2 0x274E PUSH2 0x5654 JUMP JUMPDEST PUSH1 0x20 MUL ADD MLOAD PUSH1 0x40 ADD MLOAD DUP3 PUSH2 0x2763 DUP4 PUSH1 0x4 PUSH2 0x562A JUMP JUMPDEST PUSH2 0x276E SWAP1 PUSH1 0x3 PUSH2 0x5641 JUMP JUMPDEST PUSH1 0x6D DUP2 LT PUSH2 0x277E JUMPI PUSH2 0x277E PUSH2 0x5654 JUMP JUMPDEST PUSH1 0x20 MUL ADD MSTORE PUSH2 0x1A0 DUP7 ADD MLOAD DUP2 PUSH1 0x1B DUP2 LT PUSH2 0x279A JUMPI PUSH2 0x279A PUSH2 0x5654 JUMP JUMPDEST PUSH1 0x20 MUL ADD MLOAD PUSH1 0x60 ADD MLOAD DUP3 PUSH2 0x27AF DUP4 PUSH1 0x4 PUSH2 0x562A JUMP JUMPDEST PUSH2 0x27BA SWAP1 PUSH1 0x4 PUSH2 0x5641 JUMP JUMPDEST PUSH1 0x6D DUP2 LT PUSH2 0x27CA JUMPI PUSH2 0x27CA PUSH2 0x5654 JUMP JUMPDEST PUSH1 0x20 MUL ADD MSTORE PUSH1 0x1 ADD PUSH2 0x268D JUMP JUMPDEST POP PUSH2 0x2662 DUP2 PUSH1 0x40 MLOAD PUSH1 0x20 ADD PUSH2 0x21FD SWAP2 SWAP1 PUSH2 0x57BF JUMP JUMPDEST PUSH1 0x0 DUP1 PUSH2 0x27F7 PUSH2 0x53DB JUMP JUMPDEST DUP4 DUP2 MSTORE PUSH1 0x0 JUMPDEST PUSH1 0x1C DUP2 LT ISZERO PUSH2 0x284B JUMPI DUP6 PUSH2 0x1C0 ADD MLOAD DUP2 PUSH1 0x1C DUP2 LT PUSH2 0x281D JUMPI PUSH2 0x281D PUSH2 0x5654 JUMP JUMPDEST PUSH1 0x20 MUL ADD MLOAD DUP3 PUSH2 0x282E DUP4 PUSH1 0x1 PUSH2 0x5641 JUMP JUMPDEST PUSH1 0x1D DUP2 LT PUSH2 0x283E JUMPI PUSH2 0x283E PUSH2 0x5654 JUMP JUMPDEST PUSH1 0x20 MUL ADD MSTORE PUSH1 0x1 ADD PUSH2 0x27FD JUMP JUMPDEST POP PUSH2 0x2662 DUP2 PUSH1 0x40 MLOAD PUSH1 0x20 ADD PUSH2 0x21FD SWAP2 SWAP1 PUSH2 0x57F4 JUMP JUMPDEST PUSH1 0x0 DUP1 PUSH2 0x286B PUSH2 0x53FA JUMP JUMPDEST DUP4 DUP2 MSTORE PUSH2 0x1E0 DUP6 ADD DUP1 MLOAD MLOAD PUSH1 0x20 DUP1 DUP5 ADD SWAP2 SWAP1 SWAP2 MSTORE DUP2 MLOAD DUP2 ADD MLOAD PUSH1 0x40 DUP1 DUP6 ADD SWAP2 SWAP1 SWAP2 MSTORE DUP3 MLOAD DUP2 ADD MLOAD PUSH1 0x60 DUP1 DUP7 ADD SWAP2 SWAP1 SWAP2 MSTORE SWAP3 MLOAD SWAP1 SWAP3 ADD MLOAD PUSH1 0x80 DUP5 ADD MSTORE SWAP1 MLOAD PUSH2 0x2662 SWAP2 PUSH2 0x21FD SWAP2 DUP5 SWAP2 ADD PUSH2 0x5829 JUMP JUMPDEST PUSH1 0x0 PUSH1 0x0 DUP1 MLOAD PUSH1 0x20 PUSH2 0x58DC DUP4 CODECOPY DUP2 MLOAD SWAP2 MSTORE DUP3 DUP5 MULMOD SWAP4 SWAP3 POP POP POP JUMP JUMPDEST PUSH1 0x0 PUSH1 0x0 DUP1 MLOAD PUSH1 0x20 PUSH2 0x58DC DUP4 CODECOPY DUP2 MLOAD SWAP2 MSTORE DUP3 DUP5 ADDMOD SWAP4 SWAP3 POP POP POP JUMP JUMPDEST PUSH1 0x0 PUSH1 0x0 DUP1 MLOAD PUSH1 0x20 PUSH2 0x58DC DUP4 CODECOPY DUP2 MLOAD SWAP2 MSTORE PUSH2 0x2917 DUP4 PUSH1 0x0 DUP1 MLOAD PUSH1 0x20 PUSH2 0x58DC DUP4 CODECOPY DUP2 MLOAD SWAP2 MSTORE PUSH2 0x566A JUMP JUMPDEST DUP5 ADDMOD SWAP4 SWAP3 POP POP POP JUMP JUMPDEST PUSH1 0x0 PUSH2 0x292F DUP4 PUSH2 0xC1D DUP5 PUSH2 0x2D2B JUMP JUMPDEST SWAP4 SWAP3 POP POP POP JUMP JUMPDEST DUP2 MLOAD PUSH1 0x0 SWAP1 DUP2 SWAP1 PUSH2 0x294F SWAP1 DUP6 PUSH1 0x1 JUMPDEST PUSH1 0x20 MUL ADD MLOAD PUSH2 0x28D3 JUMP JUMPDEST SWAP3 SWAP1 SWAP3 EQ SWAP4 SWAP3 POP POP POP JUMP JUMPDEST PUSH1 0x0 DUP1 PUSH1 0x40 MLOAD DUP1 PUSH2 0x100 ADD PUSH1 0x40 MSTORE DUP1 PUSH32 0x30644E72E131A029B85045B68181585D2833E84879B9709143E1F593EFFFEC51 DUP2 MSTORE PUSH1 0x20 ADD PUSH2 0x2D0 DUP2 MSTORE PUSH1 0x20 ADD PUSH32 0x30644E72E131A029B85045B68181585D2833E84879B9709143E1F593EFFFFF11 DUP2 MSTORE PUSH1 0x20 ADD PUSH1 0x90 DUP2 MSTORE PUSH1 0x20 ADD PUSH32 0x30644E72E131A029B85045B68181585D2833E84879B9709143E1F593EFFFFF71 DUP2 MSTORE PUSH1 0x20 ADD PUSH1 0xF0 DUP2 MSTORE PUSH1 0x20 ADD PUSH32 0x30644E72E131A029B85045B68181585D2833E84879B9709143E1F593EFFFFD31 DUP2 MSTORE PUSH1 0x20 ADD PUSH2 0x13B0 DUP2 MSTORE POP SWAP1 POP PUSH1 0x0 PUSH1 0x40 MLOAD DUP1 PUSH2 0x100 ADD PUSH1 0x40 MSTORE DUP1 PUSH1 0x0 DUP2 MSTORE PUSH1 0x20 ADD PUSH1 0x1 DUP2 MSTORE PUSH1 0x20 ADD PUSH1 0x2 DUP2 MSTORE PUSH1 0x20 ADD PUSH1 0x3 DUP2 MSTORE PUSH1 0x20 ADD PUSH1 0x4 DUP2 MSTORE PUSH1 0x20 ADD PUSH1 0x5 DUP2 MSTORE PUSH1 0x20 ADD PUSH1 0x6 DUP2 MSTORE PUSH1 0x20 ADD PUSH1 0x7 DUP2 MSTORE POP SWAP1 POP PUSH1 0x0 PUSH1 0x1 SWAP1 POP PUSH1 0x0 JUMPDEST PUSH1 0x8 DUP2 LT ISZERO PUSH2 0x2A8F JUMPI PUSH2 0x2A85 DUP3 PUSH2 0xC1D DUP9 DUP5 PUSH2 0x28EE JUMP JUMPDEST SWAP2 POP PUSH1 0x1 ADD PUSH2 0x2A6E JUMP JUMPDEST POP PUSH2 0x2A98 PUSH2 0x5418 JUMP JUMPDEST PUSH1 0x0 JUMPDEST PUSH1 0x8 DUP2 LT ISZERO PUSH2 0x2B11 JUMPI PUSH1 0x0 DUP6 DUP3 PUSH1 0x8 DUP2 LT PUSH2 0x2AB8 JUMPI PUSH2 0x2AB8 PUSH2 0x5654 JUMP JUMPDEST PUSH1 0x20 MUL ADD MLOAD SWAP1 POP PUSH2 0x2AE3 DUP2 PUSH2 0xC1D DUP11 DUP9 DUP7 PUSH1 0x8 DUP2 LT PUSH2 0x2AD9 JUMPI PUSH2 0x2AD9 PUSH2 0x5654 JUMP JUMPDEST PUSH1 0x20 MUL ADD MLOAD PUSH2 0x28EE JUMP JUMPDEST SWAP1 POP PUSH2 0x2AEE DUP2 PUSH2 0x2D2B JUMP JUMPDEST SWAP1 POP DUP1 DUP4 DUP4 PUSH1 0x8 DUP2 LT PUSH2 0x2B03 JUMPI PUSH2 0x2B03 PUSH2 0x5654 JUMP JUMPDEST PUSH1 0x20 MUL ADD MSTORE POP PUSH1 0x1 ADD PUSH2 0x2A9B JUMP JUMPDEST POP PUSH1 0x0 JUMPDEST PUSH1 0x8 DUP2 LT ISZERO PUSH2 0x2B66 JUMPI PUSH1 0x0 DUP9 DUP3 PUSH1 0x8 DUP2 LT PUSH2 0x2B32 JUMPI PUSH2 0x2B32 PUSH2 0x5654 JUMP JUMPDEST PUSH1 0x20 MUL ADD MLOAD SWAP1 POP PUSH2 0x2B4F DUP2 DUP5 DUP5 PUSH1 0x8 DUP2 LT PUSH2 0xE00 JUMPI PUSH2 0xE00 PUSH2 0x5654 JUMP JUMPDEST SWAP1 POP PUSH2 0x2B5B DUP8 DUP3 PUSH2 0x28D3 JUMP JUMPDEST SWAP7 POP POP PUSH1 0x1 ADD PUSH2 0x2B15 JUMP JUMPDEST POP PUSH2 0x2B71 DUP6 DUP4 PUSH2 0x28B8 JUMP JUMPDEST SWAP8 SWAP7 POP POP POP POP POP POP POP JUMP JUMPDEST PUSH1 0x0 DUP1 PUSH2 0x2BAD PUSH1 0x1 PUSH2 0xC22 DUP7 PUSH2 0xC1D DUP11 PUSH1 0xC0 ADD MLOAD DUP9 PUSH1 0x1C DUP2 LT PUSH2 0x2BA1 JUMPI PUSH2 0x2BA1 PUSH2 0x5654 JUMP JUMPDEST PUSH1 0x20 MUL ADD MLOAD PUSH1 0x1 PUSH2 0x28EE JUMP JUMPDEST SWAP1 POP PUSH2 0xD7D DUP6 DUP3 PUSH2 0x28B8 JUMP JUMPDEST PUSH2 0x180 DUP4 ADD MLOAD PUSH1 0x0 SWAP1 PUSH2 0x2BCA PUSH2 0x5437 JUMP JUMPDEST PUSH2 0x2BD5 DUP3 DUP3 DUP7 PUSH2 0x329E JUMP JUMPDEST PUSH2 0x2BE1 DUP3 DUP7 DUP4 DUP8 PUSH2 0x344F JUMP JUMPDEST PUSH2 0x2BED DUP3 DUP7 DUP4 DUP8 PUSH2 0x363D JUMP JUMPDEST PUSH2 0x2BF8 DUP3 DUP3 DUP7 PUSH2 0x3844 JUMP JUMPDEST PUSH2 0x2C03 DUP3 DUP3 DUP7 PUSH2 0x3A36 JUMP JUMPDEST PUSH2 0x2C0F DUP3 DUP7 DUP4 DUP8 PUSH2 0x3D95 JUMP JUMPDEST PUSH2 0x2C1A DUP3 DUP3 DUP7 PUSH2 0x4650 JUMP JUMPDEST PUSH2 0x2C25 DUP3 DUP3 DUP7 PUSH2 0x4A2C JUMP JUMPDEST PUSH2 0xD7D DUP2 DUP7 PUSH1 0xA0 ADD MLOAD PUSH2 0x4D2E JUMP JUMPDEST PUSH2 0x2C3B PUSH2 0x537E JUMP JUMPDEST DUP2 DUP2 MSTORE PUSH1 0x1 JUMPDEST PUSH1 0x1C DUP2 LT ISZERO PUSH2 0x2C92 JUMPI PUSH2 0x2C73 DUP3 PUSH2 0x2C59 PUSH1 0x1 DUP5 PUSH2 0x566A JUMP JUMPDEST PUSH1 0x1C DUP2 LT PUSH2 0x2C69 JUMPI PUSH2 0x2C69 PUSH2 0x5654 JUMP JUMPDEST PUSH1 0x20 MUL ADD MLOAD PUSH2 0x2E01 JUMP JUMPDEST DUP3 DUP3 PUSH1 0x1C DUP2 LT PUSH2 0x2C85 JUMPI PUSH2 0x2C85 PUSH2 0x5654 JUMP JUMPDEST PUSH1 0x20 MUL ADD MSTORE PUSH1 0x1 ADD PUSH2 0x2C41 JUMP JUMPDEST POP SWAP2 SWAP1 POP JUMP JUMPDEST PUSH2 0x2CA0 PUSH2 0x53DB JUMP JUMPDEST PUSH2 0x160 DUP4 ADD MLOAD PUSH2 0x2CBA PUSH2 0x2CB5 DUP3 DUP6 PUSH1 0x0 PUSH2 0x2AD9 JUMP JUMPDEST PUSH2 0x2D2B JUMP JUMPDEST DUP3 MSTORE PUSH1 0x0 JUMPDEST PUSH1 0x1C DUP2 LT ISZERO PUSH2 0x2D23 JUMPI PUSH1 0x0 PUSH2 0x2CD6 PUSH1 0x12 PUSH1 0x1 PUSH2 0x5641 JUMP JUMPDEST DUP3 GT PUSH2 0x2CF8 JUMPI PUSH2 0x2CF5 PUSH2 0x2CB5 DUP5 DUP8 DUP6 PUSH1 0x1C DUP2 LT PUSH2 0x2945 JUMPI PUSH2 0x2945 PUSH2 0x5654 JUMP JUMPDEST SWAP1 POP JUMPDEST DUP1 DUP5 PUSH2 0x2D05 DUP5 PUSH1 0x1 PUSH2 0x5641 JUMP JUMPDEST PUSH1 0x1D DUP2 LT PUSH2 0x2D15 JUMPI PUSH2 0x2D15 PUSH2 0x5654 JUMP JUMPDEST PUSH1 0x20 MUL ADD MSTORE POP PUSH1 0x1 ADD PUSH2 0x2CBF JUMP JUMPDEST POP POP SWAP3 SWAP2 POP POP JUMP JUMPDEST PUSH1 0x0 DUP1 DUP3 SWAP1 POP PUSH1 0x0 PUSH1 0x40 MLOAD PUSH1 0x20 DUP2 MSTORE PUSH1 0x20 DUP1 DUP3 ADD MSTORE PUSH1 0x20 PUSH1 0x40 DUP3 ADD MSTORE DUP3 PUSH1 0x60 DUP3 ADD MSTORE PUSH1 0x2 PUSH1 0x0 DUP1 MLOAD PUSH1 0x20 PUSH2 0x58DC DUP4 CODECOPY DUP2 MLOAD SWAP2 MSTORE SUB PUSH1 0x80 DUP3 ADD MSTORE PUSH1 0x0 DUP1 MLOAD PUSH1 0x20 PUSH2 0x58DC DUP4 CODECOPY DUP2 MLOAD SWAP2 MSTORE PUSH1 0xA0 DUP3 ADD MSTORE PUSH1 0x20 PUSH1 0x0 PUSH1 0xC0 DUP4 PUSH1 0x5 GAS STATICCALL SWAP1 POP DUP1 PUSH2 0x2D8F JUMPI PUSH1 0x0 DUP1 REVERT JUMPDEST POP POP PUSH1 0x0 MLOAD SWAP4 SWAP3 POP POP POP JUMP JUMPDEST PUSH1 0x40 DUP1 MLOAD DUP1 DUP3 ADD SWAP1 SWAP2 MSTORE PUSH1 0x0 DUP1 DUP3 MSTORE PUSH1 0x20 DUP3 ADD MSTORE PUSH1 0x40 MLOAD DUP1 PUSH1 0x40 ADD PUSH1 0x40 MSTORE DUP1 PUSH1 0x88 DUP5 PUSH1 0x20 ADD MLOAD SWAP1 SHL DUP5 PUSH1 0x0 ADD MLOAD OR DUP2 MSTORE PUSH1 0x20 ADD PUSH1 0x88 DUP5 PUSH1 0x60 ADD MLOAD SWAP1 SHL DUP5 PUSH1 0x40 ADD MLOAD OR DUP2 MSTORE POP SWAP1 POP SWAP2 SWAP1 POP JUMP JUMPDEST PUSH1 0x0 PUSH2 0xB21 DUP3 PUSH1 0x0 DUP1 MLOAD PUSH1 0x20 PUSH2 0x58DC DUP4 CODECOPY DUP2 MLOAD SWAP2 MSTORE PUSH2 0x566A JUMP JUMPDEST PUSH1 0x0 PUSH2 0xB21 DUP3 DUP4 PUSH2 0x28B8 JUMP JUMPDEST PUSH1 0x0 PUSH1 0x1C JUMPDEST DUP1 ISZERO PUSH2 0x2F08 JUMPI PUSH1 0x0 DUP4 PUSH2 0x2E26 PUSH1 0x1 DUP5 PUSH2 0x566A JUMP JUMPDEST PUSH1 0x1C DUP2 LT PUSH2 0x2E36 JUMPI PUSH2 0x2E36 PUSH2 0x5654 JUMP JUMPDEST PUSH1 0x20 MUL ADD MLOAD SWAP1 POP PUSH1 0x0 DUP8 PUSH1 0xE0 ADD MLOAD PUSH1 0x1 DUP5 PUSH2 0x2E51 SWAP2 SWAP1 PUSH2 0x566A JUMP JUMPDEST PUSH1 0x1C DUP2 LT PUSH2 0x2E61 JUMPI PUSH2 0x2E61 PUSH2 0x5654 JUMP JUMPDEST PUSH1 0x20 MUL ADD MLOAD SWAP1 POP PUSH1 0x0 DUP7 PUSH2 0x2E76 PUSH1 0x1 DUP7 PUSH2 0x566A JUMP JUMPDEST PUSH1 0x1C DUP2 LT PUSH2 0x2E86 JUMPI PUSH2 0x2E86 PUSH2 0x5654 JUMP JUMPDEST PUSH1 0x20 MUL ADD MLOAD SWAP1 POP PUSH1 0x0 PUSH2 0x2EC2 PUSH2 0x2EA6 PUSH2 0x2E9F DUP7 DUP13 PUSH2 0x28B8 JUMP JUMPDEST PUSH1 0x2 PUSH2 0x28B8 JUMP JUMPDEST PUSH2 0xC41 DUP5 PUSH2 0xC1D PUSH2 0x2EBC DUP10 PUSH2 0xC1D PUSH1 0x1 DUP12 PUSH2 0x28EE JUMP JUMPDEST DUP9 PUSH2 0x28EE JUMP JUMPDEST SWAP1 POP PUSH2 0x2EE3 DUP2 PUSH2 0xC1D PUSH2 0x2CB5 PUSH2 0x2EDD DUP9 PUSH2 0xC1D PUSH1 0x1 DUP11 PUSH2 0x28EE JUMP JUMPDEST DUP8 PUSH2 0x28D3 JUMP JUMPDEST SWAP1 POP PUSH1 0x12 DUP6 GT DUP1 PUSH2 0x2EF2 JUMPI DUP2 SWAP10 POP JUMPDEST POP POP POP POP POP DUP1 PUSH2 0x2F01 SWAP1 PUSH2 0x585D JUMP JUMPDEST SWAP1 POP PUSH2 0x2E12 JUMP JUMPDEST POP SWAP3 SWAP5 SWAP4 POP POP POP POP JUMP JUMPDEST PUSH1 0x40 DUP1 MLOAD DUP1 DUP3 ADD SWAP1 SWAP2 MSTORE PUSH1 0x0 DUP1 DUP3 MSTORE PUSH1 0x20 DUP3 ADD MSTORE PUSH1 0x0 PUSH2 0x2F34 PUSH1 0x1C PUSH1 0x2C PUSH2 0x5641 JUMP JUMPDEST PUSH2 0x2F3F SWAP1 PUSH1 0x2 PUSH2 0x5641 JUMP JUMPDEST SWAP1 POP PUSH1 0x1 PUSH1 0x40 MLOAD DUP6 MLOAD MLOAD PUSH1 0x40 DUP3 ADD MSTORE DUP6 MLOAD PUSH1 0x20 ADD MLOAD PUSH1 0x60 DUP3 ADD MSTORE DUP5 MLOAD PUSH1 0x80 DUP3 ADD MSTORE PUSH1 0x40 DUP2 PUSH1 0x60 PUSH1 0x40 DUP5 ADD PUSH1 0x7 GAS STATICCALL DUP3 AND SWAP2 POP PUSH1 0x1 JUMPDEST DUP4 DUP2 LT ISZERO PUSH2 0x2FCD JUMPI PUSH1 0x20 DUP2 MUL DUP8 ADD PUSH1 0x20 DUP3 MUL DUP8 ADD DUP2 MLOAD MLOAD PUSH1 0x40 DUP6 ADD MSTORE DUP2 MLOAD PUSH1 0x20 ADD MLOAD PUSH1 0x60 DUP6 ADD MSTORE DUP1 MLOAD PUSH1 0x80 DUP6 ADD MSTORE POP POP PUSH1 0x40 DUP1 DUP4 ADD PUSH1 0x60 PUSH1 0x40 DUP6 ADD PUSH1 0x7 GAS STATICCALL DUP4 AND SWAP3 POP PUSH1 0x40 DUP3 PUSH1 0x80 DUP5 PUSH1 0x6 GAS STATICCALL SWAP1 SWAP3 AND SWAP2 PUSH1 0x1 ADD PUSH2 0x2F74 JUMP JUMPDEST POP DUP1 MLOAD DUP5 MSTORE PUSH1 0x20 DUP2 ADD MLOAD PUSH1 0x20 DUP6 ADD MSTORE POP POP POP SWAP3 SWAP2 POP POP JUMP JUMPDEST PUSH1 0x40 DUP1 MLOAD DUP1 DUP3 ADD SWAP1 SWAP2 MSTORE PUSH1 0x0 DUP1 DUP3 MSTORE PUSH1 0x20 DUP3 ADD MSTORE PUSH32 0x30644E72E131A029B85045B68181585D97816A916871CA8D3C208C16D87CFD47 DUP3 PUSH1 0x20 ADD MLOAD PUSH32 0x30644E72E131A029B85045B68181585D97816A916871CA8D3C208C16D87CFD47 PUSH2 0x304A SWAP2 SWAP1 PUSH2 0x566A JUMP JUMPDEST PUSH2 0x3054 SWAP2 SWAP1 PUSH2 0x56AC JUMP JUMPDEST PUSH1 0x20 DUP4 ADD MSTORE POP SWAP1 JUMP JUMPDEST DUP2 MLOAD PUSH1 0x20 DUP1 DUP5 ADD MLOAD DUP4 MLOAD DUP5 DUP4 ADD MLOAD PUSH1 0x40 DUP1 MLOAD SWAP5 DUP6 ADD SWAP6 SWAP1 SWAP6 MSTORE SWAP4 DUP4 ADD SWAP2 SWAP1 SWAP2 MSTORE PUSH32 0x198E9393920D483A7260BFB731FB5D25F1AA493335A9E71297E485B7AEF312C2 PUSH1 0x60 DUP4 ADD MSTORE PUSH32 0x1800DEEF121F1E76426A00665E5C4479674322D4F75EDADD46DEBD5CD992F6ED PUSH1 0x80 DUP4 ADD MSTORE PUSH32 0x90689D0585FF075EC9E99AD690C3395BC4B313370B38EF355ACDADCD122975B PUSH1 0xA0 DUP4 ADD MSTORE PUSH32 0x12C85EA5DB8C6DEB4AAB71808DCB408FE3D1E7690C43D37B4CE6CC0166FA7DAA PUSH1 0xC0 DUP4 ADD MSTORE PUSH1 0xE0 DUP3 ADD MSTORE PUSH2 0x100 DUP2 ADD SWAP2 SWAP1 SWAP2 MSTORE PUSH32 0x260E01B251F6F1C7E7FF4E580791DEE8EA51D87A358E038B4EFE30FAC09383C1 PUSH2 0x120 DUP3 ADD MSTORE PUSH32 0x118C4D5B837BCC2BC89B5B398B5974E9F5944073B32078B7E231FEC938883B0 PUSH2 0x140 DUP3 ADD MSTORE PUSH32 0x4FC6369F7110FE3D25156C1BB9A72859CF2A04641F99BA4EE413C80DA6A5FE4 PUSH2 0x160 DUP3 ADD MSTORE PUSH32 0x22FEBDA3C0C0632A56475B4214E5615E11E6DD3F96E6CEA2854A87D4DACC5E55 PUSH2 0x180 DUP3 ADD MSTORE PUSH1 0x0 SWAP1 DUP2 SWAP1 PUSH2 0x1A0 ADD PUSH1 0x40 MLOAD PUSH1 0x20 DUP2 DUP4 SUB SUB DUP2 MSTORE SWAP1 PUSH1 0x40 MSTORE SWAP1 POP PUSH1 0x0 DUP1 PUSH1 0x8 PUSH1 0x1 PUSH1 0x1 PUSH1 0xA0 SHL SUB AND DUP4 PUSH1 0x40 MLOAD PUSH2 0x31F5 SWAP2 SWAP1 PUSH2 0x5874 JUMP JUMPDEST PUSH1 0x0 PUSH1 0x40 MLOAD DUP1 DUP4 SUB DUP2 DUP6 GAS STATICCALL SWAP2 POP POP RETURNDATASIZE DUP1 PUSH1 0x0 DUP2 EQ PUSH2 0x3230 JUMPI PUSH1 0x40 MLOAD SWAP2 POP PUSH1 0x1F NOT PUSH1 0x3F RETURNDATASIZE ADD AND DUP3 ADD PUSH1 0x40 MSTORE RETURNDATASIZE DUP3 MSTORE RETURNDATASIZE PUSH1 0x0 PUSH1 0x20 DUP5 ADD RETURNDATACOPY PUSH2 0x3235 JUMP JUMPDEST PUSH1 0x60 SWAP2 POP JUMPDEST POP SWAP2 POP SWAP2 POP PUSH1 0x0 DUP2 DUP1 PUSH1 0x20 ADD SWAP1 MLOAD DUP2 ADD SWAP1 PUSH2 0x3250 SWAP2 SWAP1 PUSH2 0x58A3 JUMP JUMPDEST SWAP1 POP DUP3 DUP1 ISZERO PUSH2 0x2B71 JUMPI POP SWAP7 SWAP6 POP POP POP POP POP POP JUMP JUMPDEST PUSH1 0x0 DUP1 DUP3 PUSH16 0xFFFFFFFFFFFFFFFFFFFFFFFFFFFFFFFF DUP2 AND PUSH1 0x80 DUP3 SWAP1 SHR PUSH2 0x3289 DUP3 PUSH2 0x1DEE JUMP JUMPDEST SWAP5 POP PUSH2 0x3294 DUP2 PUSH2 0x1DEE JUMP JUMPDEST SWAP4 POP POP POP POP SWAP2 POP SWAP2 JUMP JUMPDEST PUSH1 0x0 PUSH2 0x32AB DUP5 PUSH1 0x6 PUSH2 0x4D94 JUMP JUMPDEST SWAP1 POP PUSH32 0x183227397098D014DC2822DB40C0AC2E9419F4243CDCB848A1F0FAC9F8000000 PUSH1 0x0 PUSH2 0x330E PUSH2 0x3308 PUSH2 0x32E1 DUP6 PUSH1 0x3 PUSH2 0x28EE JUMP JUMPDEST PUSH2 0xC1D PUSH2 0x32FD PUSH2 0x32F2 DUP12 PUSH1 0x0 PUSH2 0x4D94 JUMP JUMPDEST PUSH2 0xC1D DUP13 PUSH1 0x1C PUSH2 0x4D94 JUMP JUMPDEST PUSH2 0xC1D DUP12 PUSH1 0x1B PUSH2 0x4D94 JUMP JUMPDEST DUP4 PUSH2 0x28B8 JUMP JUMPDEST SWAP1 POP PUSH2 0x338F PUSH2 0x3384 PUSH2 0x336B PUSH2 0x3352 PUSH2 0x3339 DUP6 PUSH2 0xC22 PUSH2 0x332E DUP14 PUSH1 0x2 PUSH2 0x4D94 JUMP JUMPDEST PUSH2 0xC1D DUP15 PUSH1 0x1B PUSH2 0x4D94 JUMP JUMPDEST PUSH2 0xC22 PUSH2 0x3347 DUP13 PUSH1 0x3 PUSH2 0x4D94 JUMP JUMPDEST PUSH2 0xC1D DUP14 PUSH1 0x1C PUSH2 0x4D94 JUMP JUMPDEST PUSH2 0xC22 PUSH2 0x3360 DUP12 PUSH1 0x4 PUSH2 0x4D94 JUMP JUMPDEST PUSH2 0xC1D DUP13 PUSH1 0x1D PUSH2 0x4D94 JUMP JUMPDEST PUSH2 0xC22 PUSH2 0x3379 DUP11 PUSH1 0x5 PUSH2 0x4D94 JUMP JUMPDEST PUSH2 0xC1D DUP12 PUSH1 0x1E PUSH2 0x4D94 JUMP JUMPDEST PUSH2 0xC22 DUP9 PUSH1 0x1 PUSH2 0x4D94 JUMP JUMPDEST SWAP1 POP PUSH2 0x33AE DUP2 PUSH2 0xC22 PUSH2 0x33A3 DUP7 PUSH1 0x1 PUSH2 0x28EE JUMP JUMPDEST PUSH2 0xC1D DUP11 PUSH1 0x2A PUSH2 0x4D94 JUMP JUMPDEST SWAP1 POP PUSH2 0x33BA DUP2 DUP5 PUSH2 0x28B8 JUMP JUMPDEST SWAP1 POP PUSH2 0x33C6 DUP2 DUP6 PUSH2 0x28B8 JUMP JUMPDEST DUP6 MSTORE POP PUSH1 0x0 SWAP1 POP PUSH2 0x3402 PUSH2 0x33F7 PUSH2 0x33EC PUSH2 0x33E1 DUP9 PUSH1 0x1B PUSH2 0x4D94 JUMP JUMPDEST PUSH2 0xC22 DUP10 PUSH1 0x1E PUSH2 0x4D94 JUMP JUMPDEST PUSH2 0xC41 DUP9 PUSH1 0x27 PUSH2 0x4D94 JUMP JUMPDEST PUSH2 0xC22 DUP8 PUSH1 0x0 PUSH2 0x4D94 JUMP JUMPDEST SWAP1 POP PUSH2 0x3413 DUP2 PUSH2 0xC1D DUP5 PUSH1 0x2 PUSH2 0x28EE JUMP JUMPDEST SWAP1 POP PUSH2 0x3424 DUP2 PUSH2 0xC1D DUP5 PUSH1 0x1 PUSH2 0x28EE JUMP JUMPDEST SWAP1 POP PUSH2 0x3430 DUP2 DUP4 PUSH2 0x28B8 JUMP JUMPDEST SWAP1 POP PUSH2 0x343C DUP2 DUP5 PUSH2 0x28B8 JUMP JUMPDEST SWAP1 POP DUP1 DUP5 PUSH1 0x1 JUMPDEST PUSH1 0x20 MUL ADD MSTORE POP POP POP POP POP JUMP JUMPDEST PUSH1 0x0 DUP1 PUSH1 0x0 PUSH2 0x3487 PUSH2 0x347D PUSH2 0x3465 DUP10 PUSH1 0x1B PUSH2 0x4D94 JUMP JUMPDEST PUSH2 0xC22 PUSH2 0x3473 DUP12 PUSH1 0x11 PUSH2 0x4D94 JUMP JUMPDEST DUP11 PUSH1 0x60 ADD MLOAD PUSH2 0x28B8 JUMP JUMPDEST DUP8 PUSH1 0x80 ADD MLOAD PUSH2 0x28D3 JUMP JUMPDEST SWAP1 POP PUSH2 0x34C0 DUP2 PUSH2 0xC1D PUSH2 0x34B6 PUSH2 0x349E DUP12 PUSH1 0x1C PUSH2 0x4D94 JUMP JUMPDEST PUSH2 0xC22 PUSH2 0x34AC DUP14 PUSH1 0x12 PUSH2 0x4D94 JUMP JUMPDEST DUP13 PUSH1 0x60 ADD MLOAD PUSH2 0x28B8 JUMP JUMPDEST DUP10 PUSH1 0x80 ADD MLOAD PUSH2 0x28D3 JUMP JUMPDEST SWAP1 POP PUSH2 0x34E5 DUP2 PUSH2 0xC1D PUSH2 0x34B6 PUSH2 0x34D7 DUP12 PUSH1 0x1D PUSH2 0x4D94 JUMP JUMPDEST PUSH2 0xC22 PUSH2 0x34AC DUP14 PUSH1 0x13 PUSH2 0x4D94 JUMP JUMPDEST SWAP1 POP PUSH2 0x350A DUP2 PUSH2 0xC1D PUSH2 0x34B6 PUSH2 0x34FC DUP12 PUSH1 0x1E PUSH2 0x4D94 JUMP JUMPDEST PUSH2 0xC22 PUSH2 0x34AC DUP14 PUSH1 0x14 PUSH2 0x4D94 JUMP JUMPDEST SWAP3 POP PUSH1 0x0 SWAP1 POP PUSH2 0x352F PUSH2 0x347D PUSH2 0x3521 DUP10 PUSH1 0x1B PUSH2 0x4D94 JUMP JUMPDEST PUSH2 0xC22 PUSH2 0x3473 DUP12 PUSH1 0xD PUSH2 0x4D94 JUMP JUMPDEST SWAP1 POP PUSH2 0x3554 DUP2 PUSH2 0xC1D PUSH2 0x34B6 PUSH2 0x3546 DUP12 PUSH1 0x1C PUSH2 0x4D94 JUMP JUMPDEST PUSH2 0xC22 PUSH2 0x34AC DUP14 PUSH1 0xE PUSH2 0x4D94 JUMP JUMPDEST SWAP1 POP PUSH2 0x3579 DUP2 PUSH2 0xC1D PUSH2 0x34B6 PUSH2 0x356B DUP12 PUSH1 0x1D PUSH2 0x4D94 JUMP JUMPDEST PUSH2 0xC22 PUSH2 0x34AC DUP14 PUSH1 0xF PUSH2 0x4D94 JUMP JUMPDEST SWAP1 POP PUSH2 0x359E DUP2 PUSH2 0xC1D PUSH2 0x34B6 PUSH2 0x3590 DUP12 PUSH1 0x1E PUSH2 0x4D94 JUMP JUMPDEST PUSH2 0xC22 PUSH2 0x34AC DUP14 PUSH1 0x10 PUSH2 0x4D94 JUMP JUMPDEST SWAP2 POP PUSH1 0x0 SWAP1 POP PUSH2 0x35C6 PUSH2 0x35C0 PUSH2 0x35B5 DUP10 PUSH1 0x1F PUSH2 0x4D94 JUMP JUMPDEST PUSH2 0xC22 DUP11 PUSH1 0x19 PUSH2 0x4D94 JUMP JUMPDEST DUP5 PUSH2 0x28B8 JUMP JUMPDEST SWAP1 POP PUSH2 0x35FC DUP2 PUSH2 0xC41 PUSH2 0x35F6 PUSH2 0x35DD DUP12 PUSH1 0x2B PUSH2 0x4D94 JUMP JUMPDEST PUSH2 0xC22 PUSH2 0x35EB DUP14 PUSH1 0x1A PUSH2 0x4D94 JUMP JUMPDEST DUP13 PUSH2 0x180 ADD MLOAD PUSH2 0x28B8 JUMP JUMPDEST DUP6 PUSH2 0x28B8 JUMP JUMPDEST SWAP1 POP PUSH2 0x3608 DUP2 DUP6 PUSH2 0x28B8 JUMP JUMPDEST PUSH1 0x40 DUP7 ADD MSTORE POP PUSH1 0x0 PUSH2 0x362C PUSH2 0x35F6 PUSH2 0x3621 DUP10 PUSH1 0x1A PUSH2 0x4D94 JUMP JUMPDEST PUSH2 0xC1D DUP11 PUSH1 0x2B PUSH2 0x4D94 JUMP JUMPDEST PUSH1 0x60 SWAP1 SWAP6 ADD SWAP5 SWAP1 SWAP5 MSTORE POP POP POP POP POP POP JUMP JUMPDEST PUSH1 0x0 DUP1 PUSH2 0x369C PUSH2 0x3684 PUSH2 0x366C PUSH2 0x3657 PUSH2 0x34B6 DUP11 PUSH1 0x15 PUSH2 0x4D94 JUMP JUMPDEST PUSH2 0xC22 PUSH2 0x3665 DUP12 PUSH1 0x16 PUSH2 0x4D94 JUMP JUMPDEST DUP11 MLOAD PUSH2 0x28B8 JUMP JUMPDEST PUSH2 0xC22 PUSH2 0x367A DUP11 PUSH1 0x17 PUSH2 0x4D94 JUMP JUMPDEST DUP10 PUSH1 0x20 ADD MLOAD PUSH2 0x28B8 JUMP JUMPDEST PUSH2 0xC22 PUSH2 0x3692 DUP10 PUSH1 0x18 PUSH2 0x4D94 JUMP JUMPDEST DUP9 PUSH1 0x40 ADD MLOAD PUSH2 0x28B8 JUMP JUMPDEST SWAP2 POP PUSH1 0x0 PUSH2 0x36D4 PUSH2 0x36BB PUSH2 0x36B1 DUP10 PUSH1 0x1B PUSH2 0x4D94 JUMP JUMPDEST DUP9 PUSH1 0x80 ADD MLOAD PUSH2 0x28D3 JUMP JUMPDEST PUSH2 0xC22 PUSH2 0x36C9 DUP11 PUSH1 0x3 PUSH2 0x4D94 JUMP JUMPDEST PUSH2 0xC1D DUP12 PUSH1 0x27 PUSH2 0x4D94 JUMP JUMPDEST SWAP1 POP PUSH1 0x0 PUSH2 0x36FF PUSH2 0x36E6 DUP10 PUSH1 0x1C PUSH2 0x4D94 JUMP JUMPDEST PUSH2 0xC22 PUSH2 0x36F4 DUP12 PUSH1 0x0 PUSH2 0x4D94 JUMP JUMPDEST PUSH2 0xC1D DUP13 PUSH1 0x28 PUSH2 0x4D94 JUMP JUMPDEST SWAP1 POP PUSH1 0x0 PUSH2 0x372A PUSH2 0x3711 DUP11 PUSH1 0x1D PUSH2 0x4D94 JUMP JUMPDEST PUSH2 0xC22 PUSH2 0x371F DUP13 PUSH1 0x1 PUSH2 0x4D94 JUMP JUMPDEST PUSH2 0xC1D DUP14 PUSH1 0x29 PUSH2 0x4D94 JUMP JUMPDEST SWAP1 POP PUSH2 0x376A PUSH2 0x3752 PUSH2 0x3744 DUP6 PUSH2 0xC22 DUP7 DUP14 PUSH1 0x0 ADD MLOAD PUSH2 0x28B8 JUMP JUMPDEST PUSH2 0xC22 DUP5 DUP13 PUSH1 0x20 ADD MLOAD PUSH2 0x28B8 JUMP JUMPDEST PUSH2 0xC22 PUSH2 0x3760 DUP13 PUSH1 0x4 PUSH2 0x4D94 JUMP JUMPDEST DUP12 PUSH1 0x40 ADD MLOAD PUSH2 0x28B8 JUMP JUMPDEST SWAP4 POP POP POP POP PUSH1 0x0 PUSH2 0x377F PUSH2 0x35C0 DUP9 PUSH1 0x20 PUSH2 0x4D94 JUMP JUMPDEST SWAP1 POP PUSH1 0x0 PUSH2 0x3791 PUSH2 0x35C0 DUP10 PUSH1 0x20 PUSH2 0x4D94 JUMP JUMPDEST SWAP1 POP PUSH1 0x0 PUSH2 0x37CA PUSH2 0x37B1 PUSH2 0x37A6 DUP12 PUSH1 0x22 PUSH2 0x4D94 JUMP JUMPDEST PUSH2 0xC22 DUP13 PUSH1 0xA PUSH2 0x4D94 JUMP JUMPDEST PUSH2 0xC41 PUSH2 0x37BF DUP13 PUSH1 0x22 PUSH2 0x4D94 JUMP JUMPDEST PUSH2 0xC1D DUP14 PUSH1 0xA PUSH2 0x4D94 JUMP JUMPDEST SWAP1 POP PUSH1 0x0 PUSH2 0x37EF PUSH2 0x37E9 PUSH2 0x37DE DUP8 DUP10 PUSH2 0x28B8 JUMP JUMPDEST PUSH2 0xC1D DUP14 PUSH1 0x20 PUSH2 0x4D94 JUMP JUMPDEST DUP4 PUSH2 0x28EE JUMP JUMPDEST SWAP1 POP PUSH2 0x37FB DUP2 DUP9 PUSH2 0x28B8 JUMP JUMPDEST SWAP1 POP PUSH1 0x0 PUSH2 0x3824 PUSH2 0x3816 PUSH2 0x3810 DUP14 PUSH1 0xA PUSH2 0x4D94 JUMP JUMPDEST DUP8 PUSH2 0x28B8 JUMP JUMPDEST PUSH2 0xC41 PUSH2 0x3810 DUP15 PUSH1 0x21 PUSH2 0x4D94 JUMP JUMPDEST PUSH1 0x80 DUP11 ADD DUP4 SWAP1 MSTORE SWAP1 POP DUP1 DUP10 PUSH1 0x5 JUMPDEST PUSH1 0x20 MUL ADD MSTORE POP POP POP POP POP POP POP POP POP POP POP JUMP JUMPDEST PUSH1 0x0 PUSH2 0x3852 PUSH1 0x0 PUSH1 0x1 PUSH2 0x28EE JUMP JUMPDEST SWAP1 POP PUSH1 0x0 PUSH2 0x3862 PUSH1 0x0 PUSH1 0x2 PUSH2 0x28EE JUMP JUMPDEST SWAP1 POP PUSH1 0x0 PUSH2 0x3872 PUSH1 0x0 PUSH1 0x3 PUSH2 0x28EE JUMP JUMPDEST SWAP1 POP PUSH1 0x0 PUSH2 0x388F PUSH2 0x3884 DUP9 PUSH1 0x1C PUSH2 0x4D94 JUMP JUMPDEST PUSH2 0xC41 DUP10 PUSH1 0x1B PUSH2 0x4D94 JUMP JUMPDEST SWAP1 POP PUSH1 0x0 PUSH2 0x38AC PUSH2 0x38A1 DUP10 PUSH1 0x1D PUSH2 0x4D94 JUMP JUMPDEST PUSH2 0xC41 DUP11 PUSH1 0x1C PUSH2 0x4D94 JUMP JUMPDEST SWAP1 POP PUSH1 0x0 PUSH2 0x38C9 PUSH2 0x38BE DUP11 PUSH1 0x1E PUSH2 0x4D94 JUMP JUMPDEST PUSH2 0xC41 DUP12 PUSH1 0x1D PUSH2 0x4D94 JUMP JUMPDEST SWAP1 POP PUSH1 0x0 PUSH2 0x38E6 PUSH2 0x38DB DUP12 PUSH1 0x27 PUSH2 0x4D94 JUMP JUMPDEST PUSH2 0xC41 DUP13 PUSH1 0x1E PUSH2 0x4D94 JUMP JUMPDEST SWAP1 POP DUP4 PUSH2 0x38F7 DUP2 PUSH2 0xC1D DUP2 DUP12 PUSH2 0x28D3 JUMP JUMPDEST SWAP1 POP PUSH2 0x3907 DUP2 PUSH2 0xC1D DUP8 DUP11 PUSH2 0x28D3 JUMP JUMPDEST SWAP1 POP PUSH2 0x3917 DUP2 PUSH2 0xC1D DUP8 DUP10 PUSH2 0x28D3 JUMP JUMPDEST SWAP1 POP PUSH2 0x3928 DUP2 PUSH2 0xC1D DUP14 PUSH1 0x7 PUSH2 0x4D94 JUMP JUMPDEST SWAP1 POP PUSH2 0x3934 DUP2 DUP11 PUSH2 0x28B8 JUMP JUMPDEST PUSH1 0xC0 DUP12 ADD MSTORE POP DUP3 PUSH2 0x3949 DUP2 PUSH2 0xC1D DUP2 DUP12 PUSH2 0x28D3 JUMP JUMPDEST SWAP1 POP PUSH2 0x3959 DUP2 PUSH2 0xC1D DUP7 DUP11 PUSH2 0x28D3 JUMP JUMPDEST SWAP1 POP PUSH2 0x3969 DUP2 PUSH2 0xC1D DUP7 DUP10 PUSH2 0x28D3 JUMP JUMPDEST SWAP1 POP PUSH2 0x397A DUP2 PUSH2 0xC1D DUP14 PUSH1 0x7 PUSH2 0x4D94 JUMP JUMPDEST SWAP1 POP PUSH2 0x3986 DUP2 DUP11 PUSH2 0x28B8 JUMP JUMPDEST PUSH1 0xE0 DUP12 ADD MSTORE POP DUP2 PUSH2 0x399B DUP2 PUSH2 0xC1D DUP2 DUP12 PUSH2 0x28D3 JUMP JUMPDEST SWAP1 POP PUSH2 0x39AB DUP2 PUSH2 0xC1D DUP6 DUP11 PUSH2 0x28D3 JUMP JUMPDEST SWAP1 POP PUSH2 0x39BB DUP2 PUSH2 0xC1D DUP6 DUP10 PUSH2 0x28D3 JUMP JUMPDEST SWAP1 POP PUSH2 0x39CC DUP2 PUSH2 0xC1D DUP14 PUSH1 0x7 PUSH2 0x4D94 JUMP JUMPDEST SWAP1 POP PUSH2 0x39D8 DUP2 DUP11 PUSH2 0x28B8 JUMP JUMPDEST PUSH2 0x100 DUP12 ADD MSTORE POP DUP1 PUSH2 0x39EE DUP2 PUSH2 0xC1D DUP2 DUP12 PUSH2 0x28D3 JUMP JUMPDEST SWAP1 POP PUSH2 0x39FE DUP2 PUSH2 0xC1D DUP5 DUP11 PUSH2 0x28D3 JUMP JUMPDEST SWAP1 POP PUSH2 0x3A0E DUP2 PUSH2 0xC1D DUP5 DUP10 PUSH2 0x28D3 JUMP JUMPDEST SWAP1 POP PUSH2 0x3A1F DUP2 PUSH2 0xC1D DUP14 PUSH1 0x7 PUSH2 0x4D94 JUMP JUMPDEST SWAP1 POP PUSH2 0x3A2B DUP2 DUP11 PUSH2 0x28B8 JUMP JUMPDEST SWAP1 POP DUP1 DUP11 PUSH1 0x9 PUSH2 0x3832 JUMP JUMPDEST PUSH2 0x3A76 PUSH1 0x40 MLOAD DUP1 PUSH1 0xE0 ADD PUSH1 0x40 MSTORE DUP1 PUSH1 0x0 DUP2 MSTORE PUSH1 0x20 ADD PUSH1 0x0 DUP2 MSTORE PUSH1 0x20 ADD PUSH1 0x0 DUP2 MSTORE PUSH1 0x20 ADD PUSH1 0x0 DUP2 MSTORE PUSH1 0x20 ADD PUSH1 0x0 DUP2 MSTORE PUSH1 0x20 ADD PUSH1 0x0 DUP2 MSTORE PUSH1 0x20 ADD PUSH1 0x0 DUP2 MSTORE POP SWAP1 JUMP JUMPDEST PUSH2 0x3A81 DUP5 PUSH1 0x1C PUSH2 0x4D94 JUMP JUMPDEST DUP2 MSTORE PUSH2 0x3A8E DUP5 PUSH1 0x1D PUSH2 0x4D94 JUMP JUMPDEST PUSH1 0x20 DUP3 ADD MSTORE PUSH2 0x3A9E DUP5 PUSH1 0x27 PUSH2 0x4D94 JUMP JUMPDEST PUSH1 0x40 DUP3 ADD MSTORE PUSH2 0x3AAE DUP5 PUSH1 0x2A PUSH2 0x4D94 JUMP JUMPDEST PUSH1 0x60 DUP3 ADD MSTORE PUSH2 0x3ABE DUP5 PUSH1 0x29 PUSH2 0x4D94 JUMP JUMPDEST PUSH1 0x80 DUP3 ADD MSTORE PUSH2 0x3ACE DUP5 PUSH1 0x28 PUSH2 0x4D94 JUMP JUMPDEST PUSH1 0xA0 DUP3 ADD MSTORE PUSH1 0x0 PUSH2 0x3AE0 DUP6 PUSH1 0x2 PUSH2 0x4D94 JUMP JUMPDEST SWAP1 POP PUSH1 0x0 PUSH2 0x3AEF DUP7 PUSH1 0x0 PUSH2 0x4D94 JUMP JUMPDEST SWAP1 POP PUSH1 0x0 PUSH2 0x3B05 DUP5 PUSH1 0x40 ADD MLOAD DUP6 PUSH1 0x0 ADD MLOAD PUSH2 0x28EE JUMP JUMPDEST SWAP1 POP PUSH1 0x0 PUSH2 0x3B1B DUP6 PUSH1 0x20 ADD MLOAD DUP7 PUSH1 0x20 ADD MLOAD PUSH2 0x28B8 JUMP JUMPDEST PUSH1 0x60 DUP7 ADD MLOAD SWAP1 SWAP2 POP DUP7 SWAP1 PUSH1 0x0 SWAP1 PUSH2 0x3B32 SWAP1 DUP1 PUSH2 0x28B8 JUMP JUMPDEST SWAP1 POP PUSH1 0x0 PUSH2 0x3B51 PUSH2 0x3B4B DUP10 PUSH1 0x20 ADD MLOAD DUP11 PUSH1 0x60 ADD MLOAD PUSH2 0x28B8 JUMP JUMPDEST DUP9 PUSH2 0x28B8 JUMP JUMPDEST SWAP1 POP PUSH1 0x0 PUSH2 0x3B71 PUSH2 0x3B6A DUP11 PUSH1 0xA0 ADD MLOAD DUP12 PUSH1 0x40 ADD MLOAD PUSH2 0x28D3 JUMP JUMPDEST DUP11 MLOAD PUSH2 0x28D3 JUMP JUMPDEST SWAP1 POP PUSH2 0x3B80 PUSH2 0x3810 DUP3 DUP9 PUSH2 0x28B8 JUMP JUMPDEST SWAP1 POP PUSH2 0x3BA1 PUSH2 0x3B9B PUSH2 0x3B95 PUSH2 0x2EBC DUP5 DUP8 PUSH2 0x28EE JUMP JUMPDEST DUP5 PUSH2 0x28D3 JUMP JUMPDEST DUP4 PUSH2 0x28D3 JUMP JUMPDEST SWAP1 POP PUSH2 0x3BC9 PUSH2 0x3BBE PUSH2 0x3BB3 DUP4 DUP8 PUSH2 0x28B8 JUMP JUMPDEST PUSH2 0xC1D DUP16 PUSH1 0x8 PUSH2 0x4D94 JUMP JUMPDEST PUSH2 0xC1D PUSH1 0x1 DUP11 PUSH2 0x28EE JUMP JUMPDEST PUSH2 0x140 DUP13 ADD MSTORE POP POP POP POP PUSH1 0x20 DUP6 ADD MLOAD PUSH1 0x80 DUP7 ADD MLOAD PUSH1 0x0 SWAP2 PUSH2 0x3BE9 SWAP2 PUSH2 0x28D3 JUMP JUMPDEST SWAP1 POP PUSH1 0x0 PUSH2 0x3C08 PUSH2 0x3BFE DUP9 PUSH1 0x60 ADD MLOAD DUP9 PUSH2 0x28B8 JUMP JUMPDEST DUP9 PUSH1 0x20 ADD MLOAD PUSH2 0x28EE JUMP JUMPDEST SWAP1 POP PUSH1 0x0 PUSH2 0x3C2E PUSH2 0x3C19 DUP5 DUP8 PUSH2 0x28B8 JUMP JUMPDEST PUSH2 0xC22 PUSH2 0x35F6 DUP12 PUSH1 0xA0 ADD MLOAD DUP13 PUSH1 0x0 ADD MLOAD PUSH2 0x28EE JUMP JUMPDEST SWAP1 POP PUSH2 0x3C56 PUSH2 0x3C4B PUSH2 0x3C40 DUP4 DUP13 PUSH2 0x28B8 JUMP JUMPDEST PUSH2 0xC1D DUP15 PUSH1 0x8 PUSH2 0x4D94 JUMP JUMPDEST PUSH2 0xC1D PUSH1 0x1 DUP10 PUSH2 0x28EE JUMP JUMPDEST PUSH2 0x160 DUP12 ADD MSTORE POP PUSH1 0x0 SWAP2 POP PUSH2 0x3C78 SWAP1 POP PUSH2 0x3C71 DUP4 PUSH1 0x11 PUSH2 0x28D3 JUMP JUMPDEST DUP8 MLOAD PUSH2 0x28B8 JUMP JUMPDEST SWAP1 POP PUSH1 0x0 PUSH2 0x3C86 DUP4 DUP5 PUSH2 0x28D3 JUMP JUMPDEST SWAP1 POP PUSH2 0x3C92 DUP2 DUP3 PUSH2 0x28D3 JUMP JUMPDEST SWAP1 POP PUSH1 0x0 PUSH2 0x3CA1 DUP4 PUSH1 0x9 PUSH2 0x28B8 JUMP JUMPDEST SWAP1 POP PUSH2 0x3CCB PUSH2 0x3CC5 PUSH2 0x35C0 PUSH2 0x3CBE DUP12 PUSH1 0xA0 ADD MLOAD DUP13 PUSH1 0x0 ADD MLOAD PUSH2 0x28D3 JUMP JUMPDEST DUP12 MLOAD PUSH2 0x28D3 JUMP JUMPDEST DUP3 PUSH2 0x28EE JUMP JUMPDEST PUSH1 0xC0 DUP10 ADD DUP2 SWAP1 MSTORE PUSH1 0x0 SWAP1 PUSH2 0x3CE7 SWAP1 PUSH2 0x3B4B SWAP1 PUSH2 0x3BB3 SWAP1 DUP14 PUSH2 0x28B8 JUMP JUMPDEST SWAP1 POP PUSH2 0x3CFA DUP12 PUSH1 0xA PUSH1 0x20 MUL ADD MLOAD DUP3 PUSH2 0x28D3 JUMP JUMPDEST PUSH2 0x140 DUP13 ADD MSTORE POP POP DUP7 MLOAD PUSH1 0x0 SWAP3 POP PUSH2 0x3D22 SWAP2 POP PUSH2 0x3C71 SWAP1 PUSH2 0x3D1B SWAP1 DUP1 PUSH2 0x28D3 JUMP JUMPDEST DUP9 MLOAD PUSH2 0x28D3 JUMP JUMPDEST SWAP1 POP PUSH1 0x0 PUSH2 0x3D64 PUSH2 0x3D3F DUP4 PUSH2 0xC1D DUP11 PUSH1 0x0 ADD MLOAD DUP12 PUSH1 0xA0 ADD MLOAD PUSH2 0x28EE JUMP JUMPDEST PUSH1 0x20 DUP10 ADD MLOAD PUSH2 0xC41 SWAP1 PUSH2 0x3D52 SWAP1 DUP1 PUSH2 0x28D3 JUMP JUMPDEST PUSH2 0xC1D DUP12 PUSH1 0x20 ADD MLOAD DUP13 PUSH1 0x80 ADD MLOAD PUSH2 0x28D3 JUMP JUMPDEST SWAP1 POP PUSH2 0x3D81 DUP10 PUSH1 0xB PUSH1 0x20 MUL ADD MLOAD PUSH2 0xC22 PUSH2 0x3B4B PUSH2 0x3BB3 DUP6 DUP14 PUSH2 0x28B8 JUMP JUMPDEST DUP10 PUSH1 0xB PUSH1 0x20 MUL ADD MSTORE POP POP POP POP POP POP POP POP POP POP JUMP JUMPDEST PUSH2 0x3E3F PUSH1 0x40 MLOAD DUP1 PUSH2 0x2C0 ADD PUSH1 0x40 MSTORE DUP1 PUSH1 0x0 DUP2 MSTORE PUSH1 0x20 ADD PUSH1 0x0 DUP2 MSTORE PUSH1 0x20 ADD PUSH1 0x0 DUP2 MSTORE PUSH1 0x20 ADD PUSH1 0x0 DUP2 MSTORE PUSH1 0x20 ADD PUSH1 0x0 DUP2 MSTORE PUSH1 0x20 ADD PUSH1 0x0 DUP2 MSTORE PUSH1 0x20 ADD PUSH1 0x0 DUP2 MSTORE PUSH1 0x20 ADD PUSH1 0x0 DUP2 MSTORE PUSH1 0x20 ADD PUSH1 0x0 DUP2 MSTORE PUSH1 0x20 ADD PUSH1 0x0 DUP2 MSTORE PUSH1 0x20 ADD PUSH1 0x0 DUP2 MSTORE PUSH1 0x20 ADD PUSH1 0x0 DUP2 MSTORE PUSH1 0x20 ADD PUSH1 0x0 DUP2 MSTORE PUSH1 0x20 ADD PUSH1 0x0 DUP2 MSTORE PUSH1 0x20 ADD PUSH1 0x0 DUP2 MSTORE PUSH1 0x20 ADD PUSH1 0x0 DUP2 MSTORE PUSH1 0x20 ADD PUSH1 0x0 DUP2 MSTORE PUSH1 0x20 ADD PUSH1 0x0 DUP2 MSTORE PUSH1 0x20 ADD PUSH1 0x0 DUP2 MSTORE PUSH1 0x20 ADD PUSH1 0x0 DUP2 MSTORE PUSH1 0x20 ADD PUSH1 0x0 DUP2 MSTORE PUSH1 0x20 ADD PUSH1 0x0 DUP2 MSTORE POP SWAP1 JUMP JUMPDEST PUSH2 0x3E74 PUSH2 0x3E5B PUSH2 0x3E50 DUP8 PUSH1 0x1B PUSH2 0x4D94 JUMP JUMPDEST PUSH2 0xC1D DUP9 PUSH1 0x28 PUSH2 0x4D94 JUMP JUMPDEST PUSH2 0xC22 PUSH2 0x3E69 DUP9 PUSH1 0x27 PUSH2 0x4D94 JUMP JUMPDEST PUSH2 0xC1D DUP10 PUSH1 0x1C PUSH2 0x4D94 JUMP JUMPDEST DUP2 MSTORE PUSH2 0x3EB9 PUSH2 0x3EAE PUSH2 0x3E95 PUSH2 0x3E8A DUP9 PUSH1 0x1B PUSH2 0x4D94 JUMP JUMPDEST PUSH2 0xC1D DUP10 PUSH1 0x1E PUSH2 0x4D94 JUMP JUMPDEST PUSH2 0xC22 PUSH2 0x3EA3 DUP10 PUSH1 0x1C PUSH2 0x4D94 JUMP JUMPDEST PUSH2 0xC1D DUP11 PUSH1 0x1D PUSH2 0x4D94 JUMP JUMPDEST PUSH2 0xC41 DUP8 PUSH1 0x29 PUSH2 0x4D94 JUMP JUMPDEST PUSH1 0x40 DUP3 ADD DUP2 SWAP1 MSTORE PUSH2 0x3ECE SWAP1 PUSH1 0x1 PUSH1 0x44 SHL PUSH2 0x28B8 JUMP JUMPDEST PUSH1 0x40 DUP3 ADD DUP2 SWAP1 MSTORE PUSH2 0x3EE4 SWAP1 PUSH2 0xC41 DUP8 PUSH1 0x2A PUSH2 0x4D94 JUMP JUMPDEST PUSH1 0x40 DUP3 ADD DUP2 SWAP1 MSTORE DUP2 MLOAD PUSH2 0x3EF7 SWAP2 SWAP1 PUSH2 0x28D3 JUMP JUMPDEST PUSH1 0x40 DUP3 ADD DUP2 SWAP1 MSTORE PUSH2 0x3F0D SWAP1 PUSH2 0xC1D DUP8 PUSH1 0x5 PUSH2 0x4D94 JUMP JUMPDEST PUSH1 0x40 DUP3 ADD MSTORE DUP1 MLOAD PUSH2 0x3F22 SWAP1 PUSH1 0x1 PUSH1 0x44 SHL PUSH2 0x28B8 JUMP JUMPDEST DUP1 DUP3 MSTORE PUSH2 0x3F42 SWAP1 PUSH2 0xC22 PUSH2 0x3F37 DUP9 PUSH1 0x27 PUSH2 0x4D94 JUMP JUMPDEST PUSH2 0xC1D DUP10 PUSH1 0x28 PUSH2 0x4D94 JUMP JUMPDEST DUP1 DUP3 MSTORE PUSH1 0x20 DUP3 ADD DUP2 SWAP1 MSTORE PUSH2 0x3F5E SWAP1 PUSH2 0xC41 PUSH2 0x33E1 DUP9 PUSH1 0x1D PUSH2 0x4D94 JUMP JUMPDEST PUSH1 0x20 DUP3 ADD DUP2 SWAP1 MSTORE PUSH2 0x3F74 SWAP1 PUSH2 0xC1D DUP8 PUSH1 0x4 PUSH2 0x4D94 JUMP JUMPDEST PUSH1 0x20 DUP3 ADD MSTORE DUP1 MLOAD PUSH1 0x60 DUP3 ADD DUP2 SWAP1 MSTORE PUSH2 0x3F91 SWAP1 PUSH2 0xC22 DUP8 PUSH1 0x1E PUSH2 0x4D94 JUMP JUMPDEST PUSH1 0x60 DUP3 ADD DUP2 SWAP1 MSTORE PUSH2 0x3FB5 SWAP1 PUSH2 0xC41 PUSH2 0x3FAA DUP9 PUSH1 0x29 PUSH2 0x4D94 JUMP JUMPDEST PUSH2 0xC22 DUP10 PUSH1 0x2A PUSH2 0x4D94 JUMP JUMPDEST PUSH1 0x60 DUP3 ADD DUP2 SWAP1 MSTORE PUSH2 0x3FCB SWAP1 PUSH2 0xC1D DUP8 PUSH1 0x0 PUSH2 0x4D94 JUMP JUMPDEST DUP2 PUSH1 0x60 ADD DUP2 DUP2 MSTORE POP POP PUSH1 0x0 PUSH2 0x3FF5 PUSH2 0x3FEB DUP4 PUSH1 0x20 ADD MLOAD DUP5 PUSH1 0x40 ADD MLOAD PUSH2 0x28D3 JUMP JUMPDEST DUP4 PUSH1 0x60 ADD MLOAD PUSH2 0x28D3 JUMP JUMPDEST SWAP1 POP PUSH2 0x4006 DUP2 PUSH2 0xC1D DUP9 PUSH1 0x3 PUSH2 0x4D94 JUMP JUMPDEST SWAP1 POP PUSH2 0x401E PUSH2 0x4016 DUP8 PUSH1 0x28 PUSH2 0x4D94 JUMP JUMPDEST PUSH2 0x4000 PUSH2 0x28B8 JUMP JUMPDEST PUSH1 0x80 DUP4 ADD DUP2 SWAP1 MSTORE PUSH2 0x4034 SWAP1 PUSH2 0xC22 DUP9 PUSH1 0x27 PUSH2 0x4D94 JUMP JUMPDEST PUSH1 0x80 DUP4 ADD DUP2 SWAP1 MSTORE PUSH2 0x4047 SWAP1 PUSH2 0x4000 PUSH2 0x28B8 JUMP JUMPDEST PUSH1 0x80 DUP4 ADD DUP2 SWAP1 MSTORE PUSH2 0x405D SWAP1 PUSH2 0xC22 DUP9 PUSH1 0x1D PUSH2 0x4D94 JUMP JUMPDEST PUSH1 0x80 DUP4 ADD DUP2 SWAP1 MSTORE PUSH2 0x4070 SWAP1 PUSH2 0x4000 PUSH2 0x28B8 JUMP JUMPDEST PUSH1 0x80 DUP4 ADD DUP2 SWAP1 MSTORE PUSH2 0x4086 SWAP1 PUSH2 0xC22 DUP9 PUSH1 0x1C PUSH2 0x4D94 JUMP JUMPDEST PUSH1 0x80 DUP4 ADD DUP2 SWAP1 MSTORE PUSH2 0x4099 SWAP1 PUSH2 0x4000 PUSH2 0x28B8 JUMP JUMPDEST PUSH1 0x80 DUP4 ADD DUP2 SWAP1 MSTORE PUSH2 0x40AF SWAP1 PUSH2 0xC22 DUP9 PUSH1 0x1B PUSH2 0x4D94 JUMP JUMPDEST PUSH1 0x80 DUP4 ADD DUP2 SWAP1 MSTORE PUSH2 0x40C5 SWAP1 PUSH2 0xC41 DUP9 PUSH1 0x1E PUSH2 0x4D94 JUMP JUMPDEST PUSH1 0x80 DUP4 ADD DUP2 SWAP1 MSTORE PUSH2 0x40DB SWAP1 PUSH2 0xC1D DUP9 PUSH1 0x5 PUSH2 0x4D94 JUMP JUMPDEST PUSH1 0x80 DUP4 ADD MSTORE PUSH2 0x40EE PUSH2 0x4016 DUP8 PUSH1 0x29 PUSH2 0x4D94 JUMP JUMPDEST PUSH1 0xA0 DUP4 ADD DUP2 SWAP1 MSTORE PUSH2 0x4104 SWAP1 PUSH2 0xC22 DUP9 PUSH1 0x28 PUSH2 0x4D94 JUMP JUMPDEST PUSH1 0xA0 DUP4 ADD DUP2 SWAP1 MSTORE PUSH2 0x4117 SWAP1 PUSH2 0x4000 PUSH2 0x28B8 JUMP JUMPDEST PUSH1 0xA0 DUP4 ADD DUP2 SWAP1 MSTORE PUSH2 0x412D SWAP1 PUSH2 0xC22 DUP9 PUSH1 0x27 PUSH2 0x4D94 JUMP JUMPDEST PUSH1 0xA0 DUP4 ADD DUP2 SWAP1 MSTORE PUSH2 0x4140 SWAP1 PUSH2 0x4000 PUSH2 0x28B8 JUMP JUMPDEST PUSH1 0xA0 DUP4 ADD DUP2 SWAP1 MSTORE PUSH2 0x4156 SWAP1 PUSH2 0xC22 DUP9 PUSH1 0x1E PUSH2 0x4D94 JUMP JUMPDEST PUSH1 0xA0 DUP4 ADD DUP2 SWAP1 MSTORE PUSH2 0x4169 SWAP1 PUSH2 0x4000 PUSH2 0x28B8 JUMP JUMPDEST PUSH1 0xA0 DUP4 ADD DUP2 SWAP1 MSTORE PUSH2 0x417F SWAP1 PUSH2 0xC22 DUP9 PUSH1 0x1D PUSH2 0x4D94 JUMP JUMPDEST PUSH1 0xA0 DUP4 ADD DUP2 SWAP1 MSTORE PUSH2 0x4195 SWAP1 PUSH2 0xC41 DUP9 PUSH1 0x2A PUSH2 0x4D94 JUMP JUMPDEST PUSH1 0xA0 DUP4 ADD DUP2 SWAP1 MSTORE PUSH2 0x41AB SWAP1 PUSH2 0xC1D DUP9 PUSH1 0x0 PUSH2 0x4D94 JUMP JUMPDEST PUSH1 0xA0 DUP4 ADD DUP2 SWAP1 MSTORE PUSH1 0x80 DUP4 ADD MLOAD PUSH1 0x0 SWAP2 PUSH2 0x41C4 SWAP2 SWAP1 PUSH2 0x28D3 JUMP JUMPDEST SWAP1 POP PUSH2 0x41D5 DUP2 PUSH2 0xC1D DUP10 PUSH1 0x4 PUSH2 0x4D94 JUMP JUMPDEST SWAP1 POP PUSH2 0x41EF PUSH2 0x41E5 DUP9 PUSH1 0x1D PUSH2 0x4D94 JUMP JUMPDEST DUP8 PUSH1 0x40 ADD MLOAD PUSH2 0x28B8 JUMP JUMPDEST PUSH1 0xC0 DUP5 ADD DUP2 SWAP1 MSTORE PUSH2 0x4208 SWAP1 PUSH2 0xC22 PUSH2 0x367A DUP11 PUSH1 0x1C PUSH2 0x4D94 JUMP JUMPDEST PUSH1 0xC0 DUP5 ADD DUP2 SWAP1 MSTORE PUSH2 0x4228 SWAP1 PUSH2 0xC22 PUSH2 0x4221 DUP11 PUSH1 0x1B PUSH2 0x4D94 JUMP JUMPDEST DUP10 MLOAD PUSH2 0x28B8 JUMP JUMPDEST PUSH1 0xC0 DUP5 ADD DUP2 SWAP1 MSTORE PUSH2 0x423E SWAP1 PUSH2 0xC22 DUP10 PUSH1 0x1 PUSH2 0x4D94 JUMP JUMPDEST PUSH1 0xC0 DUP5 ADD DUP2 SWAP1 MSTORE PUSH1 0xE0 DUP5 ADD DUP2 SWAP1 MSTORE PUSH2 0x425B SWAP1 PUSH2 0xC41 DUP10 PUSH1 0x1E PUSH2 0x4D94 JUMP JUMPDEST PUSH1 0xC0 DUP5 ADD MSTORE PUSH2 0x426E PUSH2 0x3884 DUP9 PUSH1 0x27 PUSH2 0x4D94 JUMP JUMPDEST PUSH2 0x140 DUP5 ADD MSTORE PUSH2 0x428D PUSH2 0x4282 DUP9 PUSH1 0x2A PUSH2 0x4D94 JUMP JUMPDEST PUSH2 0xC41 DUP10 PUSH1 0x1E PUSH2 0x4D94 JUMP JUMPDEST PUSH2 0x120 DUP5 ADD MSTORE PUSH2 0x140 DUP4 ADD MLOAD PUSH2 0x42B2 SWAP1 PUSH2 0x42A7 SWAP1 DUP1 PUSH2 0x28B8 JUMP JUMPDEST DUP5 PUSH2 0x140 ADD MLOAD PUSH2 0x28EE JUMP JUMPDEST PUSH2 0x280 DUP5 ADD MSTORE PUSH2 0x140 DUP4 ADD MLOAD PUSH2 0x42F5 SWAP1 PUSH2 0x42EA SWAP1 PUSH2 0x42E3 SWAP1 PUSH2 0xC1D PUSH1 0x1 PUSH1 0x0 DUP1 MLOAD PUSH1 0x20 PUSH2 0x58DC DUP4 CODECOPY DUP2 MLOAD SWAP2 MSTORE PUSH2 0x566A JUMP JUMPDEST PUSH1 0x1 PUSH2 0x28D3 JUMP JUMPDEST DUP5 PUSH2 0x120 ADD MLOAD PUSH2 0x28B8 JUMP JUMPDEST PUSH2 0x160 DUP5 ADD DUP2 SWAP1 MSTORE PUSH2 0x432C SWAP1 PUSH2 0x431E SWAP1 PUSH2 0xC1D PUSH2 0x4313 DUP12 PUSH1 0x2 PUSH2 0x4D94 JUMP JUMPDEST PUSH2 0xC1D DUP13 PUSH1 0x3 PUSH2 0x4D94 JUMP JUMPDEST PUSH2 0xC1D PUSH2 0x3810 DUP11 PUSH1 0x9 PUSH2 0x4D94 JUMP JUMPDEST PUSH2 0x1A0 DUP7 ADD MSTORE PUSH2 0x280 DUP4 ADD MLOAD PUSH2 0x434E SWAP1 PUSH2 0x431E SWAP1 PUSH2 0xC1D PUSH2 0x4313 DUP12 PUSH1 0x2 PUSH2 0x4D94 JUMP JUMPDEST PUSH2 0x1C0 DUP7 ADD MSTORE PUSH1 0xC0 DUP4 ADD MLOAD PUSH2 0x4376 SWAP1 PUSH2 0xC1D PUSH2 0x436B DUP11 PUSH1 0x2 PUSH2 0x4D94 JUMP JUMPDEST PUSH2 0xC1D DUP12 PUSH1 0x3 PUSH2 0x4D94 JUMP JUMPDEST PUSH2 0x1E0 DUP5 ADD MSTORE PUSH1 0x0 PUSH2 0x4396 PUSH2 0x438C DUP10 PUSH1 0x1E PUSH2 0x4D94 JUMP JUMPDEST DUP6 PUSH1 0xE0 ADD MLOAD PUSH2 0x28EE JUMP JUMPDEST SWAP1 POP PUSH2 0x43A5 PUSH2 0x3CC5 DUP3 DUP4 PUSH2 0x28B8 JUMP JUMPDEST PUSH2 0x1A0 DUP6 ADD MSTORE PUSH2 0x43B9 PUSH2 0x3692 DUP10 PUSH1 0x29 PUSH2 0x4D94 JUMP JUMPDEST PUSH2 0x100 DUP6 ADD DUP2 SWAP1 MSTORE PUSH2 0x43DD SWAP1 PUSH2 0xC22 PUSH2 0x43D3 DUP12 PUSH1 0x28 PUSH2 0x4D94 JUMP JUMPDEST DUP11 PUSH1 0x20 ADD MLOAD PUSH2 0x28B8 JUMP JUMPDEST PUSH2 0x100 DUP6 ADD DUP2 SWAP1 MSTORE PUSH2 0x43F7 SWAP1 PUSH2 0xC22 PUSH2 0x3665 DUP12 PUSH1 0x27 PUSH2 0x4D94 JUMP JUMPDEST PUSH2 0x100 DUP6 ADD MSTORE PUSH2 0x4416 PUSH2 0x440B DUP10 PUSH1 0x2A PUSH2 0x4D94 JUMP JUMPDEST DUP6 PUSH2 0x100 ADD MLOAD PUSH2 0x28EE JUMP JUMPDEST PUSH2 0x100 DUP6 ADD MSTORE PUSH1 0x0 PUSH2 0x442C PUSH2 0x38BE DUP11 PUSH1 0x29 PUSH2 0x4D94 JUMP JUMPDEST SWAP1 POP PUSH2 0x4482 PUSH2 0x445B PUSH2 0x3308 PUSH2 0x42E3 DUP9 PUSH2 0x140 ADD MLOAD PUSH1 0x1 PUSH1 0x0 DUP1 MLOAD PUSH1 0x20 PUSH2 0x58DC DUP4 CODECOPY DUP2 MLOAD SWAP2 MSTORE PUSH2 0xC1D SWAP2 SWAP1 PUSH2 0x566A JUMP JUMPDEST PUSH2 0xC1D PUSH2 0x42E3 DUP9 PUSH2 0x100 ADD MLOAD PUSH1 0x1 PUSH1 0x0 DUP1 MLOAD PUSH1 0x20 PUSH2 0x58DC DUP4 CODECOPY DUP2 MLOAD SWAP2 MSTORE PUSH2 0xC1D SWAP2 SWAP1 PUSH2 0x566A JUMP JUMPDEST PUSH2 0x180 DUP7 ADD MSTORE PUSH2 0x100 DUP6 ADD MLOAD PUSH2 0x44A7 SWAP1 PUSH2 0x449C SWAP1 DUP1 PUSH2 0x28B8 JUMP JUMPDEST DUP7 PUSH2 0x100 ADD MLOAD PUSH2 0x28EE JUMP JUMPDEST PUSH2 0x1C0 DUP7 ADD MSTORE PUSH2 0x180 DUP6 ADD MLOAD PUSH2 0x44DA SWAP1 PUSH2 0x44C6 SWAP1 PUSH2 0xC1D DUP13 PUSH1 0x6 PUSH2 0x4D94 JUMP JUMPDEST PUSH2 0xC1D PUSH2 0x44D4 DUP13 PUSH1 0x9 PUSH2 0x4D94 JUMP JUMPDEST DUP10 PUSH2 0x28B8 JUMP JUMPDEST PUSH2 0x1E0 DUP9 ADD MSTORE PUSH2 0x280 DUP6 ADD MLOAD PUSH2 0x44F9 SWAP1 PUSH2 0x44C6 SWAP1 PUSH2 0xC1D DUP13 PUSH1 0x6 PUSH2 0x4D94 JUMP JUMPDEST PUSH2 0x200 DUP9 ADD MSTORE PUSH2 0x1C0 DUP6 ADD MLOAD PUSH2 0x4518 SWAP1 PUSH2 0x44C6 SWAP1 PUSH2 0xC1D DUP13 PUSH1 0x6 PUSH2 0x4D94 JUMP JUMPDEST PUSH2 0x220 DUP9 ADD MSTORE PUSH2 0x1A0 DUP6 ADD MLOAD PUSH2 0x4533 SWAP1 PUSH2 0xC1D DUP12 PUSH1 0x6 PUSH2 0x4D94 JUMP JUMPDEST PUSH2 0x200 DUP7 ADD MSTORE PUSH2 0x4552 PUSH2 0x4547 DUP11 PUSH1 0x28 PUSH2 0x4D94 JUMP JUMPDEST PUSH2 0xC41 DUP12 PUSH1 0x1C PUSH2 0x4D94 JUMP JUMPDEST PUSH2 0x220 DUP7 ADD MSTORE PUSH2 0x140 DUP6 ADD MLOAD PUSH2 0x4592 SWAP1 PUSH2 0x38BE SWAP1 PUSH2 0x4587 SWAP1 PUSH2 0x42E3 SWAP1 PUSH2 0xC1D PUSH1 0x1 PUSH1 0x0 DUP1 MLOAD PUSH1 0x20 PUSH2 0x58DC DUP4 CODECOPY DUP2 MLOAD SWAP2 MSTORE PUSH2 0x566A JUMP JUMPDEST DUP8 PUSH2 0x220 ADD MLOAD PUSH2 0x28B8 JUMP JUMPDEST PUSH2 0x240 DUP7 ADD DUP2 SWAP1 MSTORE PUSH2 0x1E0 DUP7 ADD MLOAD PUSH2 0x260 DUP8 ADD DUP2 SWAP1 MSTORE PUSH2 0x45C9 SWAP2 PUSH2 0xC22 SWAP1 PUSH2 0xC1D PUSH2 0x45BE DUP15 PUSH1 0x5 PUSH2 0x4D94 JUMP JUMPDEST PUSH2 0xC1D DUP16 PUSH1 0x2 PUSH2 0x4D94 JUMP JUMPDEST PUSH2 0x260 DUP7 ADD DUP2 SWAP1 MSTORE PUSH1 0xC0 DUP7 ADD MLOAD PUSH2 0x45ED SWAP2 SWAP1 PUSH2 0xC22 SWAP1 PUSH2 0xC1D PUSH2 0x45BE DUP15 PUSH1 0x0 PUSH2 0x4D94 JUMP JUMPDEST PUSH2 0x260 DUP7 ADD DUP2 SWAP1 MSTORE PUSH2 0x200 DUP7 ADD MLOAD PUSH2 0x4605 SWAP2 SWAP1 PUSH2 0x28D3 JUMP JUMPDEST PUSH2 0x260 DUP7 ADD DUP2 SWAP1 MSTORE PUSH2 0x461B SWAP1 PUSH2 0x3B95 SWAP1 DUP7 PUSH2 0x28D3 JUMP JUMPDEST PUSH2 0x2A0 DUP7 ADD DUP2 SWAP1 MSTORE PUSH2 0x4635 SWAP1 PUSH2 0xC1D PUSH2 0x44D4 DUP13 PUSH1 0x9 PUSH2 0x4D94 JUMP JUMPDEST PUSH2 0x2A0 DUP7 ADD DUP2 SWAP1 MSTORE DUP8 PUSH1 0xC PUSH1 0x20 MUL ADD MSTORE POP POP POP POP POP POP POP POP POP JUMP JUMPDEST PUSH2 0x46D7 PUSH1 0x40 MLOAD DUP1 PUSH2 0x220 ADD PUSH1 0x40 MSTORE DUP1 PUSH1 0x0 DUP2 MSTORE PUSH1 0x20 ADD PUSH1 0x0 DUP2 MSTORE PUSH1 0x20 ADD PUSH1 0x0 DUP2 MSTORE PUSH1 0x20 ADD PUSH1 0x0 DUP2 MSTORE PUSH1 0x20 ADD PUSH1 0x0 DUP2 MSTORE PUSH1 0x20 ADD PUSH1 0x0 DUP2 MSTORE PUSH1 0x20 ADD PUSH1 0x0 DUP2 MSTORE PUSH1 0x20 ADD PUSH1 0x0 DUP2 MSTORE PUSH1 0x20 ADD PUSH1 0x0 DUP2 MSTORE PUSH1 0x20 ADD PUSH1 0x0 DUP2 MSTORE PUSH1 0x20 ADD PUSH1 0x0 DUP2 MSTORE PUSH1 0x20 ADD PUSH1 0x0 DUP2 MSTORE PUSH1 0x20 ADD PUSH1 0x0 DUP2 MSTORE PUSH1 0x20 ADD PUSH1 0x0 DUP2 MSTORE PUSH1 0x20 ADD PUSH1 0x0 DUP2 MSTORE PUSH1 0x20 ADD PUSH1 0x0 DUP2 MSTORE PUSH1 0x20 ADD PUSH1 0x0 DUP2 MSTORE POP SWAP1 JUMP JUMPDEST PUSH2 0x46F0 PUSH2 0x46E5 DUP6 PUSH1 0x1B PUSH2 0x4D94 JUMP JUMPDEST PUSH2 0xC22 DUP7 PUSH1 0x2 PUSH2 0x4D94 JUMP JUMPDEST DUP2 MSTORE PUSH2 0x470B PUSH2 0x4700 DUP6 PUSH1 0x1C PUSH2 0x4D94 JUMP JUMPDEST PUSH2 0xC22 DUP7 PUSH1 0x3 PUSH2 0x4D94 JUMP JUMPDEST PUSH1 0x20 DUP3 ADD MSTORE PUSH2 0x4729 PUSH2 0x471E DUP6 PUSH1 0x1D PUSH2 0x4D94 JUMP JUMPDEST PUSH2 0xC22 DUP7 PUSH1 0x4 PUSH2 0x4D94 JUMP JUMPDEST PUSH1 0x40 DUP3 ADD MSTORE PUSH2 0x4747 PUSH2 0x473C DUP6 PUSH1 0x1E PUSH2 0x4D94 JUMP JUMPDEST PUSH2 0xC22 DUP7 PUSH1 0x5 PUSH2 0x4D94 JUMP JUMPDEST PUSH1 0x60 DUP3 ADD MSTORE DUP1 MLOAD PUSH2 0x4779 SWAP1 PUSH2 0x4772 SWAP1 PUSH2 0x476B SWAP1 PUSH2 0x4764 SWAP1 DUP1 PUSH2 0x28B8 JUMP JUMPDEST DUP5 MLOAD PUSH2 0x28B8 JUMP JUMPDEST DUP4 MLOAD PUSH2 0x28B8 JUMP JUMPDEST DUP3 MLOAD PUSH2 0x28B8 JUMP JUMPDEST PUSH1 0x80 DUP3 ADD MSTORE PUSH1 0x20 DUP2 ADD MLOAD PUSH2 0x47B7 SWAP1 PUSH2 0x47AD SWAP1 PUSH2 0x47A3 SWAP1 PUSH2 0x4799 SWAP1 DUP1 PUSH2 0x28B8 JUMP JUMPDEST DUP5 PUSH1 0x20 ADD MLOAD PUSH2 0x28B8 JUMP JUMPDEST DUP4 PUSH1 0x20 ADD MLOAD PUSH2 0x28B8 JUMP JUMPDEST DUP3 PUSH1 0x20 ADD MLOAD PUSH2 0x28B8 JUMP JUMPDEST PUSH1 0xA0 DUP3 ADD MSTORE PUSH1 0x40 DUP2 ADD MLOAD PUSH2 0x47F5 SWAP1 PUSH2 0x47EB SWAP1 PUSH2 0x47E1 SWAP1 PUSH2 0x47D7 SWAP1 DUP1 PUSH2 0x28B8 JUMP JUMPDEST DUP5 PUSH1 0x40 ADD MLOAD PUSH2 0x28B8 JUMP JUMPDEST DUP4 PUSH1 0x40 ADD MLOAD PUSH2 0x28B8 JUMP JUMPDEST DUP3 PUSH1 0x40 ADD MLOAD PUSH2 0x28B8 JUMP JUMPDEST PUSH1 0xC0 DUP3 ADD MSTORE PUSH1 0x60 DUP2 ADD MLOAD PUSH2 0x4833 SWAP1 PUSH2 0x4829 SWAP1 PUSH2 0x481F SWAP1 PUSH2 0x4815 SWAP1 DUP1 PUSH2 0x28B8 JUMP JUMPDEST DUP5 PUSH1 0x60 ADD MLOAD PUSH2 0x28B8 JUMP JUMPDEST DUP4 PUSH1 0x60 ADD MLOAD PUSH2 0x28B8 JUMP JUMPDEST DUP3 PUSH1 0x60 ADD MLOAD PUSH2 0x28B8 JUMP JUMPDEST PUSH1 0xE0 DUP3 ADD MSTORE PUSH1 0x80 DUP2 ADD MLOAD PUSH1 0xA0 DUP3 ADD MLOAD PUSH2 0x484C SWAP2 SWAP1 PUSH2 0x28D3 JUMP JUMPDEST PUSH2 0x100 DUP3 ADD MSTORE PUSH1 0xC0 DUP2 ADD MLOAD PUSH1 0xE0 DUP3 ADD MLOAD PUSH2 0x4866 SWAP2 SWAP1 PUSH2 0x28D3 JUMP JUMPDEST PUSH2 0x120 DUP3 ADD MSTORE PUSH1 0xA0 DUP2 ADD MLOAD PUSH2 0x488A SWAP1 PUSH2 0x487F SWAP1 DUP1 PUSH2 0x28D3 JUMP JUMPDEST DUP3 PUSH2 0x120 ADD MLOAD PUSH2 0x28D3 JUMP JUMPDEST PUSH2 0x140 DUP3 ADD MSTORE PUSH1 0xE0 DUP2 ADD MLOAD PUSH2 0x48AE SWAP1 PUSH2 0x48A3 SWAP1 DUP1 PUSH2 0x28D3 JUMP JUMPDEST DUP3 PUSH2 0x100 ADD MLOAD PUSH2 0x28D3 JUMP JUMPDEST PUSH2 0x160 DUP3 ADD MSTORE PUSH2 0x120 DUP2 ADD MLOAD PUSH2 0x48C4 SWAP1 DUP1 PUSH2 0x28D3 JUMP JUMPDEST PUSH2 0x1E0 DUP3 ADD DUP2 SWAP1 MSTORE PUSH2 0x48E5 SWAP1 PUSH2 0x48DA SWAP1 DUP1 PUSH2 0x28D3 JUMP JUMPDEST DUP3 PUSH2 0x160 ADD MLOAD PUSH2 0x28D3 JUMP JUMPDEST PUSH2 0x1E0 DUP3 ADD MSTORE PUSH2 0x100 DUP2 ADD MLOAD PUSH2 0x48FB SWAP1 DUP1 PUSH2 0x28D3 JUMP JUMPDEST PUSH2 0x1A0 DUP3 ADD DUP2 SWAP1 MSTORE PUSH2 0x491C SWAP1 PUSH2 0x4911 SWAP1 DUP1 PUSH2 0x28D3 JUMP JUMPDEST DUP3 PUSH2 0x140 ADD MLOAD PUSH2 0x28D3 JUMP JUMPDEST PUSH2 0x1A0 DUP3 ADD DUP2 SWAP1 MSTORE PUSH2 0x160 DUP3 ADD MLOAD PUSH2 0x4933 SWAP2 PUSH2 0x28D3 JUMP JUMPDEST PUSH2 0x180 DUP3 ADD MSTORE PUSH2 0x140 DUP2 ADD MLOAD PUSH2 0x1E0 DUP3 ADD MLOAD PUSH2 0x494F SWAP2 SWAP1 PUSH2 0x28D3 JUMP JUMPDEST PUSH2 0x1C0 DUP3 ADD MSTORE PUSH2 0x4963 PUSH2 0x3308 DUP6 PUSH1 0xB PUSH2 0x4D94 JUMP JUMPDEST PUSH2 0x200 DUP3 ADD DUP2 SWAP1 MSTORE PUSH2 0x240 DUP5 ADD MLOAD PUSH2 0x180 DUP4 ADD MLOAD PUSH2 0x498E SWAP3 PUSH2 0xC22 SWAP2 PUSH2 0xC1D SWAP1 PUSH2 0xC41 DUP11 PUSH1 0x27 PUSH2 0x4D94 JUMP JUMPDEST DUP4 PUSH1 0x12 PUSH1 0x20 MUL ADD MSTORE PUSH2 0x49BE DUP4 PUSH1 0x13 PUSH1 0x20 MUL ADD MLOAD PUSH2 0xC22 DUP4 PUSH2 0x200 ADD MLOAD PUSH2 0xC1D DUP6 PUSH2 0x1A0 ADD MLOAD PUSH2 0xC41 DUP11 PUSH1 0x28 PUSH2 0x4D94 JUMP JUMPDEST DUP4 PUSH1 0x13 PUSH1 0x20 MUL ADD MSTORE PUSH2 0x49EE DUP4 PUSH1 0x14 PUSH1 0x20 MUL ADD MLOAD PUSH2 0xC22 DUP4 PUSH2 0x200 ADD MLOAD PUSH2 0xC1D DUP6 PUSH2 0x1C0 ADD MLOAD PUSH2 0xC41 DUP11 PUSH1 0x29 PUSH2 0x4D94 JUMP JUMPDEST DUP4 PUSH1 0x14 PUSH1 0x20 MUL ADD MSTORE PUSH2 0x4A1E DUP4 PUSH1 0x15 PUSH1 0x20 MUL ADD MLOAD PUSH2 0xC22 DUP4 PUSH2 0x200 ADD MLOAD PUSH2 0xC1D DUP6 PUSH2 0x1E0 ADD MLOAD PUSH2 0xC41 DUP11 PUSH1 0x2A PUSH2 0x4D94 JUMP JUMPDEST DUP4 PUSH1 0x15 PUSH1 0x20 MUL ADD MSTORE POP POP POP POP JUMP JUMPDEST PUSH2 0x4A89 PUSH1 0x40 MLOAD DUP1 PUSH2 0x160 ADD PUSH1 0x40 MSTORE DUP1 PUSH1 0x0 DUP2 MSTORE PUSH1 0x20 ADD PUSH1 0x0 DUP2 MSTORE PUSH1 0x20 ADD PUSH1 0x0 DUP2 MSTORE PUSH1 0x20 ADD PUSH1 0x0 DUP2 MSTORE PUSH1 0x20 ADD PUSH1 0x0 DUP2 MSTORE PUSH1 0x20 ADD PUSH1 0x0 DUP2 MSTORE PUSH1 0x20 ADD PUSH1 0x0 DUP2 MSTORE PUSH1 0x20 ADD PUSH1 0x0 DUP2 MSTORE PUSH1 0x20 ADD PUSH1 0x0 DUP2 MSTORE PUSH1 0x20 ADD PUSH1 0x0 DUP2 MSTORE PUSH1 0x20 ADD PUSH1 0x0 DUP2 MSTORE POP SWAP1 JUMP JUMPDEST PUSH1 0x0 PUSH1 0x40 MLOAD DUP1 PUSH1 0x80 ADD PUSH1 0x40 MSTORE DUP1 PUSH2 0x4ABF PUSH32 0x10DC6E9C006EA38B04B1E03B4BD9490C0D03F98929CA1D7FB56821FD19D3B6E7 PUSH2 0x1DEE JUMP JUMPDEST DUP2 MSTORE PUSH1 0x20 ADD PUSH2 0x4AED PUSH32 0xC28145B6A44DF3E0149B3D0A30B3BB599DF9756D4DD9B84A86B38CFB45A740B PUSH2 0x1DEE JUMP JUMPDEST DUP2 MSTORE PUSH1 0x20 ADD PUSH2 0x4B1A PUSH31 0x544B8338791518B2C7645A50392798B21F75BB60E3596170067D00141CAC15 PUSH2 0x1DEE JUMP JUMPDEST DUP2 MSTORE PUSH1 0x20 ADD PUSH2 0x4B48 PUSH32 0x222C01175718386F2E2E82EB122789E352E105A3B8FA852613BC534433EE428B PUSH2 0x1DEE JUMP JUMPDEST SWAP1 MSTORE SWAP1 POP PUSH2 0x4B65 PUSH2 0x4B5A DUP7 PUSH1 0x1B PUSH2 0x4D94 JUMP JUMPDEST PUSH2 0xC22 DUP8 PUSH1 0x2 PUSH2 0x4D94 JUMP JUMPDEST PUSH2 0x120 DUP4 ADD DUP2 SWAP1 MSTORE PUSH2 0x4B99 SWAP1 PUSH2 0x4B8E SWAP1 PUSH2 0x42EA SWAP1 PUSH2 0x4B83 SWAP1 DUP1 PUSH2 0x28B8 JUMP JUMPDEST DUP6 PUSH2 0x120 ADD MLOAD PUSH2 0x28B8 JUMP JUMPDEST DUP4 PUSH2 0x120 ADD MLOAD PUSH2 0x28B8 JUMP JUMPDEST DUP3 MSTORE PUSH2 0x4BA6 DUP6 PUSH1 0x1C PUSH2 0x4D94 JUMP JUMPDEST PUSH1 0x20 DUP4 ADD MSTORE PUSH2 0x4BB6 DUP6 PUSH1 0x1D PUSH2 0x4D94 JUMP JUMPDEST PUSH1 0x40 DUP4 ADD MSTORE PUSH2 0x4BC6 DUP6 PUSH1 0x1E PUSH2 0x4D94 JUMP JUMPDEST PUSH1 0x60 DUP4 ADD MSTORE DUP2 MLOAD PUSH1 0x20 DUP4 ADD MLOAD PUSH2 0x4BEE SWAP2 PUSH2 0x3FEB SWAP2 PUSH2 0x4BE4 SWAP2 SWAP1 PUSH2 0x28D3 JUMP JUMPDEST DUP5 PUSH1 0x40 ADD MLOAD PUSH2 0x28D3 JUMP JUMPDEST PUSH1 0x80 DUP4 ADD MSTORE PUSH2 0x4C01 PUSH2 0x35C0 DUP7 PUSH1 0xC PUSH2 0x4D94 JUMP JUMPDEST PUSH2 0x140 DUP4 ADD MSTORE DUP2 MLOAD PUSH2 0x4C23 SWAP1 PUSH2 0x4C19 SWAP1 DUP4 PUSH1 0x0 PUSH2 0xE00 JUMP JUMPDEST DUP4 PUSH1 0x80 ADD MLOAD PUSH2 0x28D3 JUMP JUMPDEST PUSH1 0xA0 DUP4 ADD MSTORE PUSH2 0x4C4F DUP5 PUSH1 0x16 PUSH1 0x20 MUL ADD MLOAD PUSH2 0xC22 DUP5 PUSH2 0x140 ADD MLOAD PUSH2 0xC1D DUP7 PUSH1 0xA0 ADD MLOAD PUSH2 0xC41 DUP12 PUSH1 0x27 PUSH2 0x4D94 JUMP JUMPDEST PUSH2 0x2C0 DUP6 ADD MSTORE PUSH1 0x20 DUP3 ADD MLOAD PUSH2 0x4C6A SWAP1 PUSH2 0x4C19 SWAP1 DUP4 PUSH1 0x1 PUSH2 0xE00 JUMP JUMPDEST PUSH1 0xC0 DUP4 ADD MSTORE PUSH2 0x4C96 DUP5 PUSH1 0x17 PUSH1 0x20 MUL ADD MLOAD PUSH2 0xC22 DUP5 PUSH2 0x140 ADD MLOAD PUSH2 0xC1D DUP7 PUSH1 0xC0 ADD MLOAD PUSH2 0xC41 DUP12 PUSH1 0x28 PUSH2 0x4D94 JUMP JUMPDEST PUSH2 0x2E0 DUP6 ADD MSTORE PUSH1 0x40 DUP3 ADD MLOAD PUSH2 0x4CB1 SWAP1 PUSH2 0x4C19 SWAP1 DUP4 PUSH1 0x2 PUSH2 0xE00 JUMP JUMPDEST PUSH1 0xE0 DUP4 ADD MSTORE PUSH2 0x4CDD DUP5 PUSH1 0x18 PUSH1 0x20 MUL ADD MLOAD PUSH2 0xC22 DUP5 PUSH2 0x140 ADD MLOAD PUSH2 0xC1D DUP7 PUSH1 0xE0 ADD MLOAD PUSH2 0xC41 DUP12 PUSH1 0x29 PUSH2 0x4D94 JUMP JUMPDEST PUSH2 0x300 DUP6 ADD MSTORE PUSH1 0x60 DUP3 ADD MLOAD PUSH2 0x4CF8 SWAP1 PUSH2 0x4C19 SWAP1 DUP4 PUSH1 0x3 PUSH2 0xE00 JUMP JUMPDEST PUSH2 0x100 DUP4 ADD MSTORE PUSH2 0x4D26 DUP5 PUSH1 0x19 PUSH1 0x20 MUL ADD MLOAD PUSH2 0xC22 DUP5 PUSH2 0x140 ADD MLOAD PUSH2 0xC1D DUP7 PUSH2 0x100 ADD MLOAD PUSH2 0xC41 DUP12 PUSH1 0x2A PUSH2 0x4D94 JUMP JUMPDEST DUP5 PUSH1 0x19 PUSH2 0x3443 JUMP JUMPDEST PUSH1 0x0 PUSH2 0x4D3B DUP2 DUP5 DUP2 PUSH2 0x2945 JUMP JUMPDEST SWAP1 POP PUSH1 0x1 JUMPDEST PUSH1 0x1A DUP2 LT ISZERO PUSH2 0x4D8D JUMPI PUSH2 0x4D83 DUP3 PUSH2 0xC22 DUP7 DUP5 PUSH1 0x1A DUP2 LT PUSH2 0x4D62 JUMPI PUSH2 0x4D62 PUSH2 0x5654 JUMP JUMPDEST PUSH1 0x20 MUL ADD MLOAD DUP7 PUSH2 0x4D73 PUSH1 0x1 DUP8 PUSH2 0x566A JUMP JUMPDEST PUSH1 0x19 DUP2 LT PUSH2 0xE00 JUMPI PUSH2 0xE00 PUSH2 0x5654 JUMP JUMPDEST SWAP2 POP PUSH1 0x1 ADD PUSH2 0x4D40 JUMP JUMPDEST POP SWAP3 SWAP2 POP POP JUMP JUMPDEST PUSH1 0x0 DUP3 DUP3 PUSH1 0x2B DUP2 GT ISZERO PUSH2 0x4DA9 JUMPI PUSH2 0x4DA9 PUSH2 0x58C5 JUMP JUMPDEST PUSH1 0x2C DUP2 LT PUSH2 0x4DB9 JUMPI PUSH2 0x4DB9 PUSH2 0x5654 JUMP JUMPDEST PUSH1 0x20 MUL ADD MLOAD SWAP4 SWAP3 POP POP POP JUMP JUMPDEST PUSH1 0x40 MLOAD DUP1 PUSH2 0x3C0 ADD PUSH1 0x40 MSTORE DUP1 PUSH1 0x0 DUP2 MSTORE PUSH1 0x20 ADD PUSH1 0x0 DUP2 MSTORE PUSH1 0x20 ADD PUSH1 0x0 DUP2 MSTORE PUSH1 0x20 ADD PUSH2 0x4E03 PUSH1 0x40 MLOAD DUP1 PUSH1 0x40 ADD PUSH1 0x40 MSTORE DUP1 PUSH1 0x0 DUP2 MSTORE PUSH1 0x20 ADD PUSH1 0x0 DUP2 MSTORE POP SWAP1 JUMP JUMPDEST DUP2 MSTORE PUSH1 0x20 ADD PUSH2 0x4E25 PUSH1 0x40 MLOAD DUP1 PUSH1 0x40 ADD PUSH1 0x40 MSTORE DUP1 PUSH1 0x0 DUP2 MSTORE PUSH1 0x20 ADD PUSH1 0x0 DUP2 MSTORE POP SWAP1 JUMP JUMPDEST DUP2 MSTORE PUSH1 0x20 ADD PUSH2 0x4E47 PUSH1 0x40 MLOAD DUP1 PUSH1 0x40 ADD PUSH1 0x40 MSTORE DUP1 PUSH1 0x0 DUP2 MSTORE PUSH1 0x20 ADD PUSH1 0x0 DUP2 MSTORE POP SWAP1 JUMP JUMPDEST DUP2 MSTORE PUSH1 0x20 ADD PUSH2 0x4E69 PUSH1 0x40 MLOAD DUP1 PUSH1 0x40 ADD PUSH1 0x40 MSTORE DUP1 PUSH1 0x0 DUP2 MSTORE PUSH1 0x20 ADD PUSH1 0x0 DUP2 MSTORE POP SWAP1 JUMP JUMPDEST DUP2 MSTORE PUSH1 0x20 ADD PUSH2 0x4E8B PUSH1 0x40 MLOAD DUP1 PUSH1 0x40 ADD PUSH1 0x40 MSTORE DUP1 PUSH1 0x0 DUP2 MSTORE PUSH1 0x20 ADD PUSH1 0x0 DUP2 MSTORE POP SWAP1 JUMP JUMPDEST DUP2 MSTORE PUSH1 0x20 ADD PUSH2 0x4EAD PUSH1 0x40 MLOAD DUP1 PUSH1 0x40 ADD PUSH1 0x40 MSTORE DUP1 PUSH1 0x0 DUP2 MSTORE PUSH1 0x20 ADD PUSH1 0x0 DUP2 MSTORE POP SWAP1 JUMP JUMPDEST DUP2 MSTORE PUSH1 0x20 ADD PUSH2 0x4ECF PUSH1 0x40 MLOAD DUP1 PUSH1 0x40 ADD PUSH1 0x40 MSTORE DUP1 PUSH1 0x0 DUP2 MSTORE PUSH1 0x20 ADD PUSH1 0x0 DUP2 MSTORE POP SWAP1 JUMP JUMPDEST DUP2 MSTORE PUSH1 0x20 ADD PUSH2 0x4EF1 PUSH1 0x40 MLOAD DUP1 PUSH1 0x40 ADD PUSH1 0x40 MSTORE DUP1 PUSH1 0x0 DUP2 MSTORE PUSH1 0x20 ADD PUSH1 0x0 DUP2 MSTORE POP SWAP1 JUMP JUMPDEST DUP2 MSTORE PUSH1 0x20 ADD PUSH2 0x4F13 PUSH1 0x40 MLOAD DUP1 PUSH1 0x40 ADD PUSH1 0x40 MSTORE DUP1 PUSH1 0x0 DUP2 MSTORE PUSH1 0x20 ADD PUSH1 0x0 DUP2 MSTORE POP SWAP1 JUMP JUMPDEST DUP2 MSTORE PUSH1 0x20 ADD PUSH2 0x4F35 PUSH1 0x40 MLOAD DUP1 PUSH1 0x40 ADD PUSH1 0x40 MSTORE DUP1 PUSH1 0x0 DUP2 MSTORE PUSH1 0x20 ADD PUSH1 0x0 DUP2 MSTORE POP SWAP1 JUMP JUMPDEST DUP2 MSTORE PUSH1 0x20 ADD PUSH2 0x4F57 PUSH1 0x40 MLOAD DUP1 PUSH1 0x40 ADD PUSH1 0x40 MSTORE DUP1 PUSH1 0x0 DUP2 MSTORE PUSH1 0x20 ADD PUSH1 0x0 DUP2 MSTORE POP SWAP1 JUMP JUMPDEST DUP2 MSTORE PUSH1 0x20 ADD PUSH2 0x4F79 PUSH1 0x40 MLOAD DUP1 PUSH1 0x40 ADD PUSH1 0x40 MSTORE DUP1 PUSH1 0x0 DUP2 MSTORE PUSH1 0x20 ADD PUSH1 0x0 DUP2 MSTORE POP SWAP1 JUMP JUMPDEST DUP2 MSTORE PUSH1 0x20 ADD PUSH2 0x4F9B PUSH1 0x40 MLOAD DUP1 PUSH1 0x40 ADD PUSH1 0x40 MSTORE DUP1 PUSH1 0x0 DUP2 MSTORE PUSH1 0x20 ADD PUSH1 0x0 DUP2 MSTORE POP SWAP1 JUMP JUMPDEST DUP2 MSTORE PUSH1 0x20 ADD PUSH2 0x4FBD PUSH1 0x40 MLOAD DUP1 PUSH1 0x40 ADD PUSH1 0x40 MSTORE DUP1 PUSH1 0x0 DUP2 MSTORE PUSH1 0x20 ADD PUSH1 0x0 DUP2 MSTORE POP SWAP1 JUMP JUMPDEST DUP2 MSTORE PUSH1 0x20 ADD PUSH2 0x4FDF PUSH1 0x40 MLOAD DUP1 PUSH1 0x40 ADD PUSH1 0x40 MSTORE DUP1 PUSH1 0x0 DUP2 MSTORE PUSH1 0x20 ADD PUSH1 0x0 DUP2 MSTORE POP SWAP1 JUMP JUMPDEST DUP2 MSTORE PUSH1 0x20 ADD PUSH2 0x5001 PUSH1 0x40 MLOAD DUP1 PUSH1 0x40 ADD PUSH1 0x40 MSTORE DUP1 PUSH1 0x0 DUP2 MSTORE PUSH1 0x20 ADD PUSH1 0x0 DUP2 MSTORE POP SWAP1 JUMP JUMPDEST DUP2 MSTORE PUSH1 0x20 ADD PUSH2 0x5023 PUSH1 0x40 MLOAD DUP1 PUSH1 0x40 ADD PUSH1 0x40 MSTORE DUP1 PUSH1 0x0 DUP2 MSTORE PUSH1 0x20 ADD PUSH1 0x0 DUP2 MSTORE POP SWAP1 JUMP JUMPDEST DUP2 MSTORE PUSH1 0x20 ADD PUSH2 0x5045 PUSH1 0x40 MLOAD DUP1 PUSH1 0x40 ADD PUSH1 0x40 MSTORE DUP1 PUSH1 0x0 DUP2 MSTORE PUSH1 0x20 ADD PUSH1 0x0 DUP2 MSTORE POP SWAP1 JUMP JUMPDEST DUP2 MSTORE PUSH1 0x20 ADD PUSH2 0x5067 PUSH1 0x40 MLOAD DUP1 PUSH1 0x40 ADD PUSH1 0x40 MSTORE DUP1 PUSH1 0x0 DUP2 MSTORE PUSH1 0x20 ADD PUSH1 0x0 DUP2 MSTORE POP SWAP1 JUMP JUMPDEST DUP2 MSTORE PUSH1 0x20 ADD PUSH2 0x5089 PUSH1 0x40 MLOAD DUP1 PUSH1 0x40 ADD PUSH1 0x40 MSTORE DUP1 PUSH1 0x0 DUP2 MSTORE PUSH1 0x20 ADD PUSH1 0x0 DUP2 MSTORE POP SWAP1 JUMP JUMPDEST DUP2 MSTORE PUSH1 0x20 ADD PUSH2 0x50AB PUSH1 0x40 MLOAD DUP1 PUSH1 0x40 ADD PUSH1 0x40 MSTORE DUP1 PUSH1 0x0 DUP2 MSTORE PUSH1 0x20 ADD PUSH1 0x0 DUP2 MSTORE POP SWAP1 JUMP JUMPDEST DUP2 MSTORE PUSH1 0x20 ADD PUSH2 0x50CD PUSH1 0x40 MLOAD DUP1 PUSH1 0x40 ADD PUSH1 0x40 MSTORE DUP1 PUSH1 0x0 DUP2 MSTORE PUSH1 0x20 ADD PUSH1 0x0 DUP2 MSTORE POP SWAP1 JUMP JUMPDEST DUP2 MSTORE PUSH1 0x20 ADD PUSH2 0x50EF PUSH1 0x40 MLOAD DUP1 PUSH1 0x40 ADD PUSH1 0x40 MSTORE DUP1 PUSH1 0x0 DUP2 MSTORE PUSH1 0x20 ADD PUSH1 0x0 DUP2 MSTORE POP SWAP1 JUMP JUMPDEST DUP2 MSTORE PUSH1 0x20 ADD PUSH2 0x5111 PUSH1 0x40 MLOAD DUP1 PUSH1 0x40 ADD PUSH1 0x40 MSTORE DUP1 PUSH1 0x0 DUP2 MSTORE PUSH1 0x20 ADD PUSH1 0x0 DUP2 MSTORE POP SWAP1 JUMP JUMPDEST DUP2 MSTORE PUSH1 0x20 ADD PUSH2 0x5133 PUSH1 0x40 MLOAD DUP1 PUSH1 0x40 ADD PUSH1 0x40 MSTORE DUP1 PUSH1 0x0 DUP2 MSTORE PUSH1 0x20 ADD PUSH1 0x0 DUP2 MSTORE POP SWAP1 JUMP JUMPDEST DUP2 MSTORE PUSH1 0x20 ADD PUSH2 0x5155 PUSH1 0x40 MLOAD DUP1 PUSH1 0x40 ADD PUSH1 0x40 MSTORE DUP1 PUSH1 0x0 DUP2 MSTORE PUSH1 0x20 ADD PUSH1 0x0 DUP2 MSTORE POP SWAP1 JUMP JUMPDEST DUP2 MSTORE PUSH1 0x20 ADD PUSH2 0x5177 PUSH1 0x40 MLOAD DUP1 PUSH1 0x40 ADD PUSH1 0x40 MSTORE DUP1 PUSH1 0x0 DUP2 MSTORE PUSH1 0x20 ADD PUSH1 0x0 DUP2 MSTORE POP SWAP1 JUMP JUMPDEST SWAP1 MSTORE SWAP1 JUMP JUMPDEST PUSH1 0x40 MLOAD DUP1 PUSH2 0x220 ADD PUSH1 0x40 MSTORE DUP1 PUSH1 0x0 DUP2 MSTORE PUSH1 0x20 ADD PUSH1 0x0 DUP2 MSTORE PUSH1 0x20 ADD PUSH1 0x0 DUP2 MSTORE PUSH1 0x20 ADD PUSH2 0x51A5 PUSH2 0x5456 JUMP JUMPDEST DUP2 MSTORE PUSH1 0x20 ADD PUSH2 0x51B2 PUSH2 0x5456 JUMP JUMPDEST DUP2 MSTORE PUSH1 0x20 ADD PUSH2 0x51BF PUSH2 0x5456 JUMP JUMPDEST DUP2 MSTORE PUSH1 0x20 ADD PUSH2 0x51CC PUSH2 0x5456 JUMP JUMPDEST DUP2 MSTORE PUSH1 0x20 ADD PUSH2 0x51D9 PUSH2 0x5456 JUMP JUMPDEST DUP2 MSTORE PUSH1 0x20 ADD PUSH2 0x51E6 PUSH2 0x5456 JUMP JUMPDEST DUP2 MSTORE PUSH1 0x20 ADD PUSH2 0x51F3 PUSH2 0x5456 JUMP JUMPDEST DUP2 MSTORE PUSH1 0x20 ADD PUSH2 0x5200 PUSH2 0x5456 JUMP JUMPDEST DUP2 MSTORE PUSH1 0x20 ADD PUSH2 0x520D PUSH2 0x547E JUMP JUMPDEST DUP2 MSTORE PUSH1 0x20 ADD PUSH2 0x521A PUSH2 0x54AC JUMP JUMPDEST DUP2 MSTORE PUSH1 0x20 ADD PUSH2 0x5227 PUSH2 0x54CB JUMP JUMPDEST DUP2 MSTORE PUSH1 0x20 ADD PUSH2 0x5234 PUSH2 0x537E JUMP JUMPDEST DUP2 MSTORE PUSH1 0x20 ADD PUSH2 0x5241 PUSH2 0x5456 JUMP JUMPDEST DUP2 MSTORE PUSH1 0x20 ADD PUSH2 0x5177 PUSH2 0x5456 JUMP JUMPDEST PUSH1 0x40 MLOAD DUP1 PUSH2 0x1A0 ADD PUSH1 0x40 MSTORE DUP1 PUSH1 0x0 DUP2 MSTORE PUSH1 0x20 ADD PUSH1 0x0 DUP2 MSTORE PUSH1 0x20 ADD PUSH1 0x0 DUP2 MSTORE PUSH1 0x20 ADD PUSH1 0x0 DUP2 MSTORE PUSH1 0x20 ADD PUSH1 0x0 DUP2 MSTORE PUSH1 0x20 ADD PUSH2 0x5285 PUSH2 0x5340 JUMP JUMPDEST DUP2 MSTORE PUSH1 0x20 ADD PUSH2 0x5292 PUSH2 0x537E JUMP JUMPDEST DUP2 MSTORE PUSH1 0x20 ADD PUSH2 0x529F PUSH2 0x537E JUMP JUMPDEST DUP2 MSTORE PUSH1 0x20 ADD PUSH1 0x0 DUP2 MSTORE PUSH1 0x20 ADD PUSH1 0x0 DUP2 MSTORE PUSH1 0x20 ADD PUSH1 0x0 DUP2 MSTORE PUSH1 0x20 ADD PUSH1 0x0 DUP2 MSTORE PUSH1 0x20 ADD PUSH1 0x0 DUP2 MSTORE POP SWAP1 JUMP JUMPDEST PUSH1 0x40 MLOAD DUP1 PUSH2 0x940 ADD PUSH1 0x40 MSTORE DUP1 PUSH1 0x4A SWAP1 PUSH1 0x20 DUP3 MUL DUP1 CALLDATASIZE DUP4 CALLDATACOPY POP SWAP2 SWAP3 SWAP2 POP POP JUMP JUMPDEST PUSH1 0x40 MLOAD DUP1 PUSH2 0x940 ADD PUSH1 0x40 MSTORE DUP1 PUSH1 0x4A SWAP1 JUMPDEST PUSH1 0x40 DUP1 MLOAD DUP1 DUP3 ADD SWAP1 SWAP2 MSTORE PUSH1 0x0 DUP1 DUP3 MSTORE PUSH1 0x20 DUP3 ADD MSTORE DUP2 MSTORE PUSH1 0x20 ADD SWAP1 PUSH1 0x1 SWAP1 SUB SWAP1 DUP2 PUSH2 0x52F7 JUMPI SWAP1 POP POP SWAP1 JUMP JUMPDEST PUSH1 0x40 MLOAD DUP1 PUSH2 0x1A0 ADD PUSH1 0x40 MSTORE DUP1 PUSH1 0xD SWAP1 PUSH1 0x20 DUP3 MUL DUP1 CALLDATASIZE DUP4 CALLDATACOPY POP SWAP2 SWAP3 SWAP2 POP POP JUMP JUMPDEST PUSH1 0x40 MLOAD DUP1 PUSH2 0x320 ADD PUSH1 0x40 MSTORE DUP1 PUSH1 0x19 SWAP1 PUSH1 0x20 DUP3 MUL DUP1 CALLDATASIZE DUP4 CALLDATACOPY POP SWAP2 SWAP3 SWAP2 POP POP JUMP JUMPDEST PUSH1 0x40 MLOAD DUP1 PUSH2 0x120 ADD PUSH1 0x40 MSTORE DUP1 PUSH1 0x9 SWAP1 PUSH1 0x20 DUP3 MUL DUP1 CALLDATASIZE DUP4 CALLDATACOPY POP SWAP2 SWAP3 SWAP2 POP POP JUMP JUMPDEST PUSH1 0x40 MLOAD DUP1 PUSH2 0x380 ADD PUSH1 0x40 MSTORE DUP1 PUSH1 0x1C SWAP1 PUSH1 0x20 DUP3 MUL DUP1 CALLDATASIZE DUP4 CALLDATACOPY POP SWAP2 SWAP3 SWAP2 POP POP JUMP JUMPDEST PUSH1 0x40 MLOAD DUP1 PUSH2 0x5A0 ADD PUSH1 0x40 MSTORE DUP1 PUSH1 0x2D SWAP1 PUSH1 0x20 DUP3 MUL DUP1 CALLDATASIZE DUP4 CALLDATACOPY POP SWAP2 SWAP3 SWAP2 POP POP JUMP JUMPDEST PUSH1 0x40 MLOAD DUP1 PUSH2 0xDA0 ADD PUSH1 0x40 MSTORE DUP1 PUSH1 0x6D SWAP1 PUSH1 0x20 DUP3 MUL DUP1 CALLDATASIZE DUP4 CALLDATACOPY POP SWAP2 SWAP3 SWAP2 POP POP JUMP JUMPDEST PUSH1 0x40 MLOAD DUP1 PUSH2 0x3A0 ADD PUSH1 0x40 MSTORE DUP1 PUSH1 0x1D SWAP1 PUSH1 0x20 DUP3 MUL DUP1 CALLDATASIZE DUP4 CALLDATACOPY POP SWAP2 SWAP3 SWAP2 POP POP JUMP JUMPDEST PUSH1 0x40 MLOAD DUP1 PUSH1 0xA0 ADD PUSH1 0x40 MSTORE DUP1 PUSH1 0x5 SWAP1 PUSH1 0x20 DUP3 MUL DUP1 CALLDATASIZE DUP4 CALLDATACOPY POP SWAP2 SWAP3 SWAP2 POP POP JUMP JUMPDEST PUSH1 0x40 MLOAD DUP1 PUSH2 0x100 ADD PUSH1 0x40 MSTORE DUP1 PUSH1 0x8 SWAP1 PUSH1 0x20 DUP3 MUL DUP1 CALLDATASIZE DUP4 CALLDATACOPY POP SWAP2 SWAP3 SWAP2 POP POP JUMP JUMPDEST PUSH1 0x40 MLOAD DUP1 PUSH2 0x340 ADD PUSH1 0x40 MSTORE DUP1 PUSH1 0x1A SWAP1 PUSH1 0x20 DUP3 MUL DUP1 CALLDATASIZE DUP4 CALLDATACOPY POP SWAP2 SWAP3 SWAP2 POP POP JUMP JUMPDEST PUSH1 0x40 MLOAD DUP1 PUSH1 0x80 ADD PUSH1 0x40 MSTORE DUP1 PUSH1 0x0 DUP2 MSTORE PUSH1 0x20 ADD PUSH1 0x0 DUP2 MSTORE PUSH1 0x20 ADD PUSH1 0x0 DUP2 MSTORE PUSH1 0x20 ADD PUSH1 0x0 DUP2 MSTORE POP SWAP1 JUMP JUMPDEST PUSH1 0x40 MLOAD DUP1 PUSH2 0x380 ADD PUSH1 0x40 MSTORE DUP1 PUSH1 0x1C SWAP1 JUMPDEST PUSH2 0x5496 PUSH2 0x5418 JUMP JUMPDEST DUP2 MSTORE PUSH1 0x20 ADD SWAP1 PUSH1 0x1 SWAP1 SUB SWAP1 DUP2 PUSH2 0x548E JUMPI SWAP1 POP POP SWAP1 JUMP JUMPDEST PUSH1 0x40 MLOAD DUP1 PUSH2 0x580 ADD PUSH1 0x40 MSTORE DUP1 PUSH1 0x2C SWAP1 PUSH1 0x20 DUP3 MUL DUP1 CALLDATASIZE DUP4 CALLDATACOPY POP SWAP2 SWAP3 SWAP2 POP POP JUMP JUMPDEST PUSH1 0x40 MLOAD DUP1 PUSH2 0x360 ADD PUSH1 0x40 MSTORE DUP1 PUSH1 0x1B SWAP1 JUMPDEST PUSH2 0x54E3 PUSH2 0x5456 JUMP JUMPDEST DUP2 MSTORE PUSH1 0x20 ADD SWAP1 PUSH1 0x1 SWAP1 SUB SWAP1 DUP2 PUSH2 0x54DB JUMPI SWAP1 POP POP SWAP1 JUMP JUMPDEST PUSH1 0x0 DUP1 PUSH1 0x0 DUP1 PUSH1 0x40 DUP6 DUP8 SUB SLT ISZERO PUSH2 0x550F JUMPI PUSH1 0x0 DUP1 REVERT JUMPDEST DUP5 CALLDATALOAD PUSH8 0xFFFFFFFFFFFFFFFF DUP2 GT ISZERO PUSH2 0x5526 JUMPI PUSH1 0x0 DUP1 REVERT JUMPDEST DUP6 ADD PUSH1 0x1F DUP2 ADD DUP8 SGT PUSH2 0x5537 JUMPI PUSH1 0x0 DUP1 REVERT JUMPDEST DUP1 CALLDATALOAD PUSH8 0xFFFFFFFFFFFFFFFF DUP2 GT ISZERO PUSH2 0x554E JUMPI PUSH1 0x0 DUP1 REVERT JUMPDEST DUP8 PUSH1 0x20 DUP3 DUP5 ADD ADD GT ISZERO PUSH2 0x5560 JUMPI PUSH1 0x0 DUP1 REVERT JUMPDEST PUSH1 0x20 SWAP2 DUP3 ADD SWAP6 POP SWAP4 POP DUP6 ADD CALLDATALOAD PUSH8 0xFFFFFFFFFFFFFFFF DUP2 GT ISZERO PUSH2 0x5581 JUMPI PUSH1 0x0 DUP1 REVERT JUMPDEST DUP6 ADD PUSH1 0x1F DUP2 ADD DUP8 SGT PUSH2 0x5592 JUMPI PUSH1 0x0 DUP1 REVERT JUMPDEST DUP1 CALLDATALOAD PUSH8 0xFFFFFFFFFFFFFFFF DUP2 GT ISZERO PUSH2 0x55A9 JUMPI PUSH1 0x0 DUP1 REVERT JUMPDEST DUP8 PUSH1 0x20 DUP3 PUSH1 0x5 SHL DUP5 ADD ADD GT ISZERO PUSH2 0x55BE JUMPI PUSH1 0x0 DUP1 REVERT JUMPDEST SWAP5 SWAP8 SWAP4 SWAP7 POP PUSH1 0x20 ADD SWAP5 POP POP POP JUMP JUMPDEST PUSH1 0x0 DUP1 DUP6 DUP6 GT ISZERO PUSH2 0x55DC JUMPI PUSH1 0x0 DUP1 REVERT JUMPDEST DUP4 DUP7 GT ISZERO PUSH2 0x55E9 JUMPI PUSH1 0x0 DUP1 REVERT JUMPDEST POP POP DUP3 ADD SWAP4 SWAP2 SWAP1 SWAP3 SUB SWAP2 POP JUMP JUMPDEST DUP1 CALLDATALOAD PUSH1 0x20 DUP4 LT ISZERO PUSH2 0xB21 JUMPI PUSH1 0x0 NOT PUSH1 0x20 DUP5 SWAP1 SUB PUSH1 0x3 SHL SHL AND SWAP3 SWAP2 POP POP JUMP JUMPDEST PUSH4 0x4E487B71 PUSH1 0xE0 SHL PUSH1 0x0 MSTORE PUSH1 0x11 PUSH1 0x4 MSTORE PUSH1 0x24 PUSH1 0x0 REVERT JUMPDEST DUP1 DUP3 MUL DUP2 ISZERO DUP3 DUP3 DIV DUP5 EQ OR PUSH2 0xB21 JUMPI PUSH2 0xB21 PUSH2 0x5614 JUMP JUMPDEST DUP1 DUP3 ADD DUP1 DUP3 GT ISZERO PUSH2 0xB21 JUMPI PUSH2 0xB21 PUSH2 0x5614 JUMP JUMPDEST PUSH4 0x4E487B71 PUSH1 0xE0 SHL PUSH1 0x0 MSTORE PUSH1 0x32 PUSH1 0x4 MSTORE PUSH1 0x24 PUSH1 0x0 REVERT JUMPDEST DUP2 DUP2 SUB DUP2 DUP2 GT ISZERO PUSH2 0xB21 JUMPI PUSH2 0xB21 PUSH2 0x5614 JUMP JUMPDEST PUSH1 0x0 PUSH1 0x1 DUP3 ADD PUSH2 0x568F JUMPI PUSH2 0x568F PUSH2 0x5614 JUMP JUMPDEST POP PUSH1 0x1 ADD SWAP1 JUMP JUMPDEST PUSH4 0x4E487B71 PUSH1 0xE0 SHL PUSH1 0x0 MSTORE PUSH1 0x12 PUSH1 0x4 MSTORE PUSH1 0x24 PUSH1 0x0 REVERT JUMPDEST PUSH1 0x0 DUP3 PUSH2 0x56BB JUMPI PUSH2 0x56BB PUSH2 0x5696 JUMP JUMPDEST POP MOD SWAP1 JUMP JUMPDEST PUSH4 0x4E487B71 PUSH1 0xE0 SHL PUSH1 0x0 MSTORE PUSH1 0x41 PUSH1 0x4 MSTORE PUSH1 0x24 PUSH1 0x0 REVERT JUMPDEST DUP2 MLOAD PUSH1 0x0 SWAP1 DUP3 SWAP1 PUSH1 0x20 DUP6 ADD DUP4 JUMPDEST DUP3 DUP2 LT ISZERO PUSH2 0x5701 JUMPI DUP2 MLOAD DUP5 MSTORE PUSH1 0x20 SWAP4 DUP5 ADD SWAP4 SWAP1 SWAP2 ADD SWAP1 PUSH1 0x1 ADD PUSH2 0x56E3 JUMP JUMPDEST POP SWAP2 SWAP6 SWAP5 POP POP POP POP POP JUMP JUMPDEST PUSH1 0x0 DUP2 DUP4 DUP3 JUMPDEST PUSH1 0xD DUP2 LT ISZERO PUSH2 0x5731 JUMPI DUP2 MLOAD DUP4 MSTORE PUSH1 0x20 SWAP3 DUP4 ADD SWAP3 SWAP1 SWAP2 ADD SWAP1 PUSH1 0x1 ADD PUSH2 0x5712 JUMP JUMPDEST POP POP POP PUSH2 0x1A0 DUP3 ADD SWAP1 POP SWAP3 SWAP2 POP POP JUMP JUMPDEST PUSH1 0x0 DUP2 DUP4 DUP3 JUMPDEST PUSH1 0x9 DUP2 LT ISZERO PUSH2 0x5766 JUMPI DUP2 MLOAD DUP4 MSTORE PUSH1 0x20 SWAP3 DUP4 ADD SWAP3 SWAP1 SWAP2 ADD SWAP1 PUSH1 0x1 ADD PUSH2 0x5747 JUMP JUMPDEST POP POP POP PUSH2 0x120 DUP3 ADD SWAP1 POP SWAP3 SWAP2 POP POP JUMP JUMPDEST PUSH1 0x0 DUP3 PUSH2 0x5785 JUMPI PUSH2 0x5785 PUSH2 0x5696 JUMP JUMPDEST POP DIV SWAP1 JUMP JUMPDEST PUSH1 0x0 DUP2 DUP4 DUP3 JUMPDEST PUSH1 0x2D DUP2 LT ISZERO PUSH2 0x57AF JUMPI DUP2 MLOAD DUP4 MSTORE PUSH1 0x20 SWAP3 DUP4 ADD SWAP3 SWAP1 SWAP2 ADD SWAP1 PUSH1 0x1 ADD PUSH2 0x5790 JUMP JUMPDEST POP POP POP PUSH2 0x5A0 DUP3 ADD SWAP1 POP SWAP3 SWAP2 POP POP JUMP JUMPDEST PUSH1 0x0 DUP2 DUP4 DUP3 JUMPDEST PUSH1 0x6D DUP2 LT ISZERO PUSH2 0x57E4 JUMPI DUP2 MLOAD DUP4 MSTORE PUSH1 0x20 SWAP3 DUP4 ADD SWAP3 SWAP1 SWAP2 ADD SWAP1 PUSH1 0x1 ADD PUSH2 0x57C5 JUMP JUMPDEST POP POP POP PUSH2 0xDA0 DUP3 ADD SWAP1 POP SWAP3 SWAP2 POP POP JUMP JUMPDEST PUSH1 0x0 DUP2 DUP4 DUP3 JUMPDEST PUSH1 0x1D DUP2 LT ISZERO PUSH2 0x5819 JUMPI DUP2 MLOAD DUP4 MSTORE PUSH1 0x20 SWAP3 DUP4 ADD SWAP3 SWAP1 SWAP2 ADD SWAP1 PUSH1 0x1 ADD PUSH2 0x57FA JUMP JUMPDEST POP POP POP PUSH2 0x3A0 DUP3 ADD SWAP1 POP SWAP3 SWAP2 POP POP JUMP JUMPDEST PUSH1 0x0 DUP2 DUP4 DUP3 JUMPDEST PUSH1 0x5 DUP2 LT ISZERO PUSH2 0x584E JUMPI DUP2 MLOAD DUP4 MSTORE PUSH1 0x20 SWAP3 DUP4 ADD SWAP3 SWAP1 SWAP2 ADD SWAP1 PUSH1 0x1 ADD PUSH2 0x582F JUMP JUMPDEST POP POP POP PUSH1 0xA0 DUP3 ADD SWAP1 POP SWAP3 SWAP2 POP POP JUMP JUMPDEST PUSH1 0x0 DUP2 PUSH2 0x586C JUMPI PUSH2 0x586C PUSH2 0x5614 JUMP JUMPDEST POP PUSH1 0x0 NOT ADD SWAP1 JUMP JUMPDEST PUSH1 0x0 DUP3 MLOAD PUSH1 0x0 JUMPDEST DUP2 DUP2 LT ISZERO PUSH2 0x5895 JUMPI PUSH1 0x20 DUP2 DUP7 ADD DUP2 ADD MLOAD DUP6 DUP4 ADD MSTORE ADD PUSH2 0x587B JUMP JUMPDEST POP PUSH1 0x0 SWAP3 ADD SWAP2 DUP3 MSTORE POP SWAP2 SWAP1 POP JUMP JUMPDEST PUSH1 0x0 PUSH1 0x20 DUP3 DUP5 SUB SLT ISZERO PUSH2 0x58B5 JUMPI PUSH1 0x0 DUP1 REVERT JUMPDEST DUP2 MLOAD DUP1 ISZERO ISZERO DUP2 EQ PUSH2 0x292F JUMPI PUSH1 0x0 DUP1 REVERT JUMPDEST PUSH4 0x4E487B71 PUSH1 0xE0 SHL PUSH1 0x0 MSTORE PUSH1 0x21 PUSH1 0x4 MSTORE PUSH1 0x24 PUSH1 0x0 REVERT INVALID ADDRESS PUSH5 0x4E72E131A0 0x29 0xB8 POP GASLIMIT 0xB6 DUP2 DUP2 PC TSTORE 0x28 CALLER 0xE8 BASEFEE PUSH26 0xB9709143E1F593F0000001A2646970667358221220FBD8E0019A 0xE3 0xE2 TLOAD DUP4 0xDF 0xCC 0xC8 0xAF SAR XOR BYTE ORIGIN 0xF6 PUSH4 0xB82DBFB0 0xBE PUSH15 0x678E3E52F252AB64736F6C63430008 SHL STOP CALLER "},"methodIdentifiers":{"aavePool()":"a03e4bc3","deposit(uint256,uint256)":"e2bbb158","escrowData(address)":"72236b82","paymentToken()":"3013ce29","verifier()":"2b7ac3f3","verifyTest(bytes,bytes32[])":"b12a2c54","withdraw(bytes,uint256,uint256,address)":"4c674934"}}}}}