{"contracts/Escrow.sol":{"OBEscrow":{"abi":[{"inputs":[{"internalType":"address","name":"_paymentToken","type":"address"}],"stateMutability":"nonpayable","type":"constructor"},{"inputs":[{"internalType":"uint256","name":"_amount","type":"uint256"},{"internalType":"uint256","name":"_commitment","type":"uint256"}],"name":"deposit","outputs":[],"stateMutability":"nonpayable","type":"function"},{"inputs":[{"internalType":"address","name":"","type":"address"}],"name":"escrowData","outputs":[{"internalType":"uint256","name":"amount","type":"uint256"},{"internalType":"uint256","name":"commitment","type":"uint256"}],"stateMutability":"view","type":"function"},{"inputs":[],"name":"paymentToken","outputs":[{"internalType":"address","name":"","type":"address"}],"stateMutability":"view","type":"function"},{"inputs":[],"name":"verifier","outputs":[{"internalType":"contract HonkVerifier","name":"","type":"address"}],"stateMutability":"view","type":"function"},{"inputs":[{"internalType":"bytes","name":"_proof","type":"bytes"},{"internalType":"bytes32[]","name":"_publicInputs","type":"bytes32[]"}],"name":"verifyTest","outputs":[{"internalType":"bool","name":"","type":"bool"}],"stateMutability":"view","type":"function"},{"inputs":[{"internalType":"bytes","name":"_proof","type":"bytes"},{"internalType":"uint256","name":"_amount","type":"uint256"},{"internalType":"uint256","name":"_commitment","type":"uint256"},{"internalType":"address","name":"_from","type":"address"}],"name":"withdraw","outputs":[],"stateMutability":"nonpayable","type":"function"}],"evm":{"bytecode":{"linkReferences":{},"object":"6080604052604051610010906100e1565b604051809103906000f08015801561002c573d6000803e3d6000fd5b506000806101000a81548173ffffffffffffffffffffffffffffffffffffffff021916908373ffffffffffffffffffffffffffffffffffffffff16021790555034801561007857600080fd5b506040516190ac3803806190ac833981810160405281019061009a9190610151565b80600160006101000a81548173ffffffffffffffffffffffffffffffffffffffff021916908373ffffffffffffffffffffffffffffffffffffffff1602179055505061017e565b617d9a8061131283390190565b600080fd5b600073ffffffffffffffffffffffffffffffffffffffff82169050919050565b600061011e826100f3565b9050919050565b61012e81610113565b811461013957600080fd5b50565b60008151905061014b81610125565b92915050565b600060208284031215610167576101666100ee565b5b60006101758482850161013c565b91505092915050565b6111858061018d6000396000f3fe608060405234801561001057600080fd5b50600436106100625760003560e01c80632b7ac3f3146100675780633013ce29146100855780634c674934146100a357806372236b82146100bf578063b12a2c54146100f0578063e2bbb15814610120575b600080fd5b61006f61013c565b60405161007c91906107cc565b60405180910390f35b61008d610160565b60405161009a9190610808565b60405180910390f35b6100bd60048036038101906100b891906108f4565b610186565b005b6100d960048036038101906100d4919061097c565b6104df565b6040516100e79291906109b8565b60405180910390f35b61010a60048036038101906101059190610a37565b610503565b6040516101179190610ad3565b60405180910390f35b61013a60048036038101906101359190610aee565b6105b0565b005b60008054906101000a900473ffffffffffffffffffffffffffffffffffffffff1681565b600160009054906101000a900473ffffffffffffffffffffffffffffffffffffffff1681565b6000600267ffffffffffffffff8111156101a3576101a2610b2e565b5b6040519080825280602002602001820160405280156101d15781602001602082028036833780820191505090505b5090508260001b816000815181106101ec576101eb610b5d565b5b6020026020010181815250508360001b816001815181106102105761020f610b5d565b5b60200260200101818152505060008054906101000a900473ffffffffffffffffffffffffffffffffffffffff1673ffffffffffffffffffffffffffffffffffffffff1663ea50d0e48787846040518463ffffffff1660e01b815260040161027993929190610cb2565b602060405180830381865afa158015610296573d6000803e3d6000fd5b505050506040513d601f19601f820116820180604052508101906102ba9190610d17565b6102f9576040517f08c379a00000000000000000000000000000000000000000000000000000000081526004016102f090610da1565b60405180910390fd5b64e8d4a510008461030a9190610df0565b93506000600260008473ffffffffffffffffffffffffffffffffffffffff1673ffffffffffffffffffffffffffffffffffffffff16815260200190815260200160002090508481600001541015610396576040517f08c379a000000000000000000000000000000000000000000000000000000000815260040161038d90610e7e565b60405180910390fd5b838160010154146103dc576040517f08c379a00000000000000000000000000000000000000000000000000000000081526004016103d390610eea565b60405180910390fd5b848160000160008282546103f09190610f0a565b92505081905550600160009054906101000a900473ffffffffffffffffffffffffffffffffffffffff1673ffffffffffffffffffffffffffffffffffffffff1663a9059cbb33876040518363ffffffff1660e01b8152600401610454929190610f3e565b6020604051808303816000875af1158015610473573d6000803e3d6000fd5b505050506040513d601f19601f820116820180604052508101906104979190610d17565b6104d6576040517f08c379a00000000000000000000000000000000000000000000000000000000081526004016104cd90610fb3565b60405180910390fd5b50505050505050565b60026020528060005260406000206000915090508060000154908060010154905082565b60008060009054906101000a900473ffffffffffffffffffffffffffffffffffffffff1673ffffffffffffffffffffffffffffffffffffffff1663ea50d0e4868686866040518563ffffffff1660e01b8152600401610565949392919061103d565b602060405180830381865afa158015610582573d6000803e3d6000fd5b505050506040513d601f19601f820116820180604052508101906105a69190610d17565b9050949350505050565b600082116105f3576040517f08c379a00000000000000000000000000000000000000000000000000000000081526004016105ea906110c4565b60405180910390fd5b600160009054906101000a900473ffffffffffffffffffffffffffffffffffffffff1673ffffffffffffffffffffffffffffffffffffffff166323b872dd3330856040518463ffffffff1660e01b8152600401610652939291906110e4565b6020604051808303816000875af1158015610671573d6000803e3d6000fd5b505050506040513d601f19601f820116820180604052508101906106959190610d17565b6106d4576040517f08c379a00000000000000000000000000000000000000000000000000000000081526004016106cb90610fb3565b60405180910390fd5b6000600260003373ffffffffffffffffffffffffffffffffffffffff1673ffffffffffffffffffffffffffffffffffffffff1681526020019081526020016000209050600081600101540361072d578181600101819055505b82816000016000828254610741919061111b565b92505081905550505050565b600073ffffffffffffffffffffffffffffffffffffffff82169050919050565b6000819050919050565b600061079261078d6107888461074d565b61076d565b61074d565b9050919050565b60006107a482610777565b9050919050565b60006107b682610799565b9050919050565b6107c6816107ab565b82525050565b60006020820190506107e160008301846107bd565b92915050565b60006107f28261074d565b9050919050565b610802816107e7565b82525050565b600060208201905061081d60008301846107f9565b92915050565b600080fd5b600080fd5b600080fd5b600080fd5b600080fd5b60008083601f8401126108525761085161082d565b5b8235905067ffffffffffffffff81111561086f5761086e610832565b5b60208301915083600182028301111561088b5761088a610837565b5b9250929050565b6000819050919050565b6108a581610892565b81146108b057600080fd5b50565b6000813590506108c28161089c565b92915050565b6108d1816107e7565b81146108dc57600080fd5b50565b6000813590506108ee816108c8565b92915050565b6000806000806000608086880312156109105761090f610823565b5b600086013567ffffffffffffffff81111561092e5761092d610828565b5b61093a8882890161083c565b9550955050602061094d888289016108b3565b935050604061095e888289016108b3565b925050606061096f888289016108df565b9150509295509295909350565b60006020828403121561099257610991610823565b5b60006109a0848285016108df565b91505092915050565b6109b281610892565b82525050565b60006040820190506109cd60008301856109a9565b6109da60208301846109a9565b9392505050565b60008083601f8401126109f7576109f661082d565b5b8235905067ffffffffffffffff811115610a1457610a13610832565b5b602083019150836020820283011115610a3057610a2f610837565b5b9250929050565b60008060008060408587031215610a5157610a50610823565b5b600085013567ffffffffffffffff811115610a6f57610a6e610828565b5b610a7b8782880161083c565b9450945050602085013567ffffffffffffffff811115610a9e57610a9d610828565b5b610aaa878288016109e1565b925092505092959194509250565b60008115159050919050565b610acd81610ab8565b82525050565b6000602082019050610ae86000830184610ac4565b92915050565b60008060408385031215610b0557610b04610823565b5b6000610b13858286016108b3565b9250506020610b24858286016108b3565b9150509250929050565b7f4e487b7100000000000000000000000000000000000000000000000000000000600052604160045260246000fd5b7f4e487b7100000000000000000000000000000000000000000000000000000000600052603260045260246000fd5b600082825260208201905092915050565b82818337600083830152505050565b6000601f19601f8301169050919050565b6000610bc98385610b8c565b9350610bd6838584610b9d565b610bdf83610bac565b840190509392505050565b600081519050919050565b600082825260208201905092915050565b6000819050602082019050919050565b6000819050919050565b610c2981610c16565b82525050565b6000610c3b8383610c20565b60208301905092915050565b6000602082019050919050565b6000610c5f82610bea565b610c698185610bf5565b9350610c7483610c06565b8060005b83811015610ca5578151610c8c8882610c2f565b9750610c9783610c47565b925050600181019050610c78565b5085935050505092915050565b60006040820190508181036000830152610ccd818587610bbd565b90508181036020830152610ce18184610c54565b9050949350505050565b610cf481610ab8565b8114610cff57600080fd5b50565b600081519050610d1181610ceb565b92915050565b600060208284031215610d2d57610d2c610823565b5b6000610d3b84828501610d02565b91505092915050565b600082825260208201905092915050565b7f496e76616c69642070726f6f6600000000000000000000000000000000000000600082015250565b6000610d8b600d83610d44565b9150610d9682610d55565b602082019050919050565b60006020820190508181036000830152610dba81610d7e565b9050919050565b7f4e487b7100000000000000000000000000000000000000000000000000000000600052601160045260246000fd5b6000610dfb82610892565b9150610e0683610892565b9250828202610e1481610892565b91508282048414831517610e2b57610e2a610dc1565b5b5092915050565b7f496e73756666696369656e742062616c616e6365000000000000000000000000600082015250565b6000610e68601483610d44565b9150610e7382610e32565b602082019050919050565b60006020820190508181036000830152610e9781610e5b565b9050919050565b7f496e76616c696420726563697069656e7420636f6d6d69746d656e7400000000600082015250565b6000610ed4601c83610d44565b9150610edf82610e9e565b602082019050919050565b60006020820190508181036000830152610f0381610ec7565b9050919050565b6000610f1582610892565b9150610f2083610892565b9250828203905081811115610f3857610f37610dc1565b5b92915050565b6000604082019050610f5360008301856107f9565b610f6060208301846109a9565b9392505050565b7f546f6b656e207472616e73666572206661696c65640000000000000000000000600082015250565b6000610f9d601583610d44565b9150610fa882610f67565b602082019050919050565b60006020820190508181036000830152610fcc81610f90565b9050919050565b600080fd5b82818337505050565b6000610fed8385610bf5565b93507f07ffffffffffffffffffffffffffffffffffffffffffffffffffffffffffffff8311156110205761101f610fd3565b5b602083029250611031838584610fd8565b82840190509392505050565b60006040820190508181036000830152611058818688610bbd565b9050818103602083015261106d818486610fe1565b905095945050505050565b7f416d6f756e74206d7573742062652067726561746572207468616e207a65726f600082015250565b60006110ae602083610d44565b91506110b982611078565b602082019050919050565b600060208201905081810360008301526110dd816110a1565b9050919050565b60006060820190506110f960008301866107f9565b61110660208301856107f9565b61111360408301846109a9565b949350505050565b600061112682610892565b915061113183610892565b925082820190508082111561114957611148610dc1565b5b9291505056fea26469706673582212202b2da0146b8ccd3602a36b7e85ee292f5bdf82a0c0cb2e865303a6c6c73e7cd064736f6c634300081c00336080604052348015600f57600080fd5b50617d7b8061001f6000396000f3fe608060405234801561001057600080fd5b506004361061002b5760003560e01c8063ea50d0e414610030575b600080fd5b61004a600480360381019061004591906171c6565b610060565b6040516100579190617262565b60405180910390f35b60008061006b6101db565b9050600061007987876101f0565b9050816040015185859050146100bb576040517ffa06659300000000000000000000000000000000000000000000000000000000815260040160405180910390fd5b60006100cd8287878660400151610e1d565b905061012d868680806020026020016040519081016040528093929190818152602001838360200280828437600081840152601f19601f820116905080830192505050505050508260600151836080015186600001518660400151610f1c565b816101800181815250506000610143838361101b565b90508061017c576040517f9fc3a21800000000000000000000000000000000000000000000000000000000815260040160405180910390fd5b6000610189848685611103565b9050806101c2576040517fa5d82e8a00000000000000000000000000000000000000000000000000000000815260040160405180910390fd5b8180156101cc5750805b95505050505050949350505050565b6101e3616988565b6101eb611d7a565b905090565b6101f8616b09565b610200616b09565b838360009060209261021493929190617287565b9061021f91906172e4565b60001c816000018181525050838360209060409261023f93929190617287565b9061024a91906172e4565b60001c816020018181525050838360409060609261026a93929190617287565b9061027591906172e4565b60001c816040018181525050604051806080016040528085856060906080926102a093929190617287565b906102ab91906172e4565b60001c8152602001858560809060a0926102c793929190617287565b906102d291906172e4565b60001c8152602001858560a09060c0926102ee93929190617287565b906102f991906172e4565b60001c8152602001858560c09060e09261031593929190617287565b9061032091906172e4565b60001c81525081606001819052506040518060800160405280858560e0906101009261034e93929190617287565b9061035991906172e4565b60001c81526020018585610100906101209261037793929190617287565b9061038291906172e4565b60001c8152602001858561012090610140926103a093929190617287565b906103ab91906172e4565b60001c8152602001858561014090610160926103c993929190617287565b906103d491906172e4565b60001c815250816080018190525060405180608001604052808585610160906101809261040393929190617287565b9061040e91906172e4565b60001c81526020018585610180906101a09261042c93929190617287565b9061043791906172e4565b60001c815260200185856101a0906101c09261045593929190617287565b9061046091906172e4565b60001c815260200185856101c0906101e09261047e93929190617287565b9061048991906172e4565b60001c8152508160a00181905250604051806080016040528085856101e090610200926104b893929190617287565b906104c391906172e4565b60001c8152602001858561020090610220926104e193929190617287565b906104ec91906172e4565b60001c81526020018585610220906102409261050a93929190617287565b9061051591906172e4565b60001c81526020018585610240906102609261053393929190617287565b9061053e91906172e4565b60001c81525081610100018190525060405180608001604052808585610260906102809261056e93929190617287565b9061057991906172e4565b60001c81526020018585610280906102a09261059793929190617287565b906105a291906172e4565b60001c815260200185856102a0906102c0926105c093929190617287565b906105cb91906172e4565b60001c815260200185856102c0906102e0926105e993929190617287565b906105f491906172e4565b60001c815250816101200181905250604051806080016040528085856102e0906103009261062493929190617287565b9061062f91906172e4565b60001c81526020018585610300906103209261064d93929190617287565b9061065891906172e4565b60001c81526020018585610320906103409261067693929190617287565b9061068191906172e4565b60001c81526020018585610340906103609261069f93929190617287565b906106aa91906172e4565b60001c8152508160c001819052506040518060800160405280858561036090610380926106d993929190617287565b906106e491906172e4565b60001c81526020018585610380906103a09261070293929190617287565b9061070d91906172e4565b60001c815260200185856103a0906103c09261072b93929190617287565b9061073691906172e4565b60001c815260200185856103c0906103e09261075493929190617287565b9061075f91906172e4565b60001c815250816101400181905250604051806080016040528085856103e0906104009261078f93929190617287565b9061079a91906172e4565b60001c8152602001858561040090610420926107b893929190617287565b906107c391906172e4565b60001c8152602001858561042090610440926107e193929190617287565b906107ec91906172e4565b60001c81526020018585610440906104609261080a93929190617287565b9061081591906172e4565b60001c8152508160e001819052506000610460905060005b601c8110156109125760006008602083610847919061737c565b610851919061737c565b8361085c91906173be565b905060005b6008811015610903576000602082610879919061737c565b8361088491906173be565b9050600060208261089591906173be565b90506108bc8a8a849084926108ac93929190617287565b906108b791906172e4565b6126ec565b87610160015186601c81106108d4576108d36173f2565b5b602002015184600881106108eb576108ea6173f2565b5b60200201818152505050508080600101915050610861565b5050808060010191505061082d565b5060206008601c610923919061737c565b61092d919061737c565b8161093891906173be565b905060005b602c8110156109c8576000602082610955919061737c565b8361096091906173be565b9050600060208261097191906173be565b905061099888888490849261098893929190617287565b9061099391906172e4565b6126ec565b85610180015184602c81106109b0576109af6173f2565b5b6020020181815250505050808060010191505061093d565b506020602c6109d7919061737c565b816109e291906173be565b905060005b6001601c6109f59190617421565b811015610b3d576000608082610a0b919061737c565b83610a1691906173be565b90506000602082610a2791906173be565b905060008190506000602082610a3d91906173be565b905060008190506000602082610a5391906173be565b905060008190506000602082610a6991906173be565b905060405180608001604052808f8f8b908b92610a8893929190617287565b90610a9391906172e4565b60001c81526020018f8f89908992610aad93929190617287565b90610ab891906172e4565b60001c81526020018f8f87908792610ad293929190617287565b90610add91906172e4565b60001c81526020018f8f85908592610af793929190617287565b90610b0291906172e4565b60001c8152508b6101a001518a601b8110610b2057610b1f6173f2565b5b6020020181905250505050505050505080806001019150506109e7565b5060806001601c610b4e9190617421565b610b58919061737c565b81610b6391906173be565b905060005b601c811015610bf3576000602082610b80919061737c565b83610b8b91906173be565b90506000602082610b9c91906173be565b9050610bc3888884908492610bb393929190617287565b90610bbe91906172e4565b6126ec565b856101c0015184601c8110610bdb57610bda6173f2565b5b60200201818152505050508080600101915050610b68565b506020601c610c02919061737c565b81610c0d91906173be565b9050604051806080016040528086868490602086610c2b91906173be565b92610c3893929190617287565b90610c4391906172e4565b60001c81526020018686602085610c5a91906173be565b90604086610c6891906173be565b92610c7593929190617287565b90610c8091906172e4565b60001c81526020018686604085610c9791906173be565b90606086610ca591906173be565b92610cb293929190617287565b90610cbd91906172e4565b60001c81526020018686606085610cd491906173be565b90608086610ce291906173be565b92610cef93929190617287565b90610cfa91906172e4565b60001c815250826101e00181905250608081610d1691906173be565b9050604051806080016040528086868490602086610d3491906173be565b92610d4193929190617287565b90610d4c91906172e4565b60001c81526020018686602085610d6391906173be565b90604086610d7191906173be565b92610d7e93929190617287565b90610d8991906172e4565b60001c81526020018686604085610da091906173be565b90606086610dae91906173be565b92610dbb93929190617287565b90610dc691906172e4565b60001c81526020018686606085610ddd91906173be565b90608086610deb91906173be565b92610df893929190617287565b90610e0391906172e4565b60001c815250826102000181905250819250505092915050565b610e25616be1565b6000610e3386868686612724565b85600001866020018760400183975084815250848152508481525050505050610e5c8187612c10565b84606001856080018295508381525083815250505050610e7c8187612e81565b8360a0018193508290525050610e91816131a5565b8360c0018193508290525050610ea78682613231565b8360e0018193508290525050610ebd868261335c565b8361010001819350828152505050610ed58682613431565b8361012001819350828152505050610eed8682613621565b8361014001819350828152505050610f0586826136f6565b836101600181935082815250505050949350505050565b600080600190506000600190506000610f5187610f4c8a610f47898b610f4291906173be565b613808565b61383d565b613879565b90506000610f7c88610f778b610f7260018b610f6d91906173be565b613808565b61383d565b6138b5565b905060005b6002811015611001576000610faf8c8381518110610fa257610fa16173f2565b5b60200260200101516126ec565b9050610fc486610fbf8684613879565b61383d565b9550610fd985610fd48584613879565b61383d565b9450610fe5848c613879565b9350610ff1838c6138b5565b9250508080600101915050610f81565b5061100c848461391c565b94505050505095945050505050565b60008060006001905060005b60128110156110de57600086610160015182601c811061104a576110496173f2565b5b60200201519050600061105d8286613938565b905080611096576040517f9fc3a21800000000000000000000000000000000000000000000000000000000815260040160405180910390fd5b60008760e0015184601c81106110af576110ae6173f2565b5b602002015190506110c0838261398a565b95506110ce88868387613bd3565b9450505050806001019050611027565b5060006110ec868684613c26565b90506110f88184613cad565b935050505092915050565b600061110d616c5b565b600061111d846101200151613cba565b9050611127616c8a565b61112f616cad565b600061113b8785613d49565b9050611185816000601d8110611154576111536173f2565b5b6020020151611180896101400151846001601d8110611176576111756173f2565b5b602002015161383d565b613879565b8560000181815250506111ec61119f886101200151613e2d565b6111e7836000601d81106111b6576111b56173f2565b5b60200201516111e28b6101400151866001601d81106111d8576111d76173f2565b5b602002015161383d565b6138b5565b61383d565b8560200181815250506001836000604a811061120b5761120a6173f2565b5b602002018181525050611222896101e00151613ec4565b826000604a8110611236576112356173f2565b5b6020020181905250600185606001818152505060008560800181815250506000600190505b602381116113125761127d6112738760000151613f04565b876060015161383d565b8482604a81106112905761128f6173f2565b5b6020020181815250506112dc86608001516112d78c61018001516001856112b79190617421565b602c81106112c8576112c76173f2565b5b6020020151896060015161383d565b613879565b8660800181815250506112f8866060015189610100015161383d565b8660600181815250508061130b90617455565b905061125b565b5060006001602361132391906173be565b90505b602c81116113dd5761134861133e8760200151613f04565b876060015161383d565b8482604a811061135b5761135a6173f2565b5b6020020181815250506113a786608001516113a28c61018001516001856113829190617421565b602c8110611393576113926173f2565b5b6020020151896060015161383d565b613879565b8660800181815250506113c3866060015189610100015161383d565b866060018181525050806113d690617455565b9050611326565b508760600151826001604a81106113f7576113f66173f2565b5b60200201819052508760800151826002604a8110611418576114176173f2565b5b60200201819052508760a00151826003604a8110611439576114386173f2565b5b60200201819052508760c00151826004604a811061145a576114596173f2565b5b60200201819052508760e00151826005604a811061147b5761147a6173f2565b5b6020020181905250876101000151826006604a811061149d5761149c6173f2565b5b6020020181905250876101200151826007604a81106114bf576114be6173f2565b5b6020020181905250876101400151826008604a81106114e1576114e06173f2565b5b6020020181905250876101800151826009604a8110611503576115026173f2565b5b602002018190525087610160015182600a604a8110611525576115246173f2565b5b6020020181905250876101a0015182600b604a8110611547576115466173f2565b5b6020020181905250876101c0015182600c604a8110611569576115686173f2565b5b6020020181905250876101e0015182600d604a811061158b5761158a6173f2565b5b602002018190525087610200015182600e604a81106115ad576115ac6173f2565b5b602002018190525087610220015182600f604a81106115cf576115ce6173f2565b5b6020020181905250876102400151826010604a81106115f1576115f06173f2565b5b6020020181905250876102600151826011604a8110611613576116126173f2565b5b6020020181905250876102800151826012604a8110611635576116346173f2565b5b6020020181905250876102a00151826013604a8110611657576116566173f2565b5b6020020181905250876102c00151826014604a8110611679576116786173f2565b5b6020020181905250876102e00151826015604a811061169b5761169a6173f2565b5b6020020181905250876103000151826016604a81106116bd576116bc6173f2565b5b6020020181905250876103200151826017604a81106116df576116de6173f2565b5b6020020181905250876103400151826018604a8110611701576117006173f2565b5b6020020181905250876103600151826019604a8110611723576117226173f2565b5b602002018190525087610380015182601a604a8110611745576117446173f2565b5b6020020181905250876103a0015182601b604a8110611767576117666173f2565b5b602002018190525061177c8960600151613ec4565b82601c604a81106117905761178f6173f2565b5b60200201819052506117a58960800151613ec4565b82601d604a81106117b9576117b86173f2565b5b60200201819052506117ce8960a00151613ec4565b82601e604a81106117e2576117e16173f2565b5b60200201819052506117f78960c00151613ec4565b82601f604a811061180b5761180a6173f2565b5b60200201819052506118208960e00151613ec4565b826020604a8110611834576118336173f2565b5b602002018190525061184a896101400151613ec4565b826021604a811061185e5761185d6173f2565b5b6020020181905250611874896101000151613ec4565b826022604a8110611888576118876173f2565b5b602002018190525061189e896101200151613ec4565b826023604a81106118b2576118b16173f2565b5b6020020181905250876103000151826024604a81106118d4576118d36173f2565b5b6020020181905250876103200151826025604a81106118f6576118f56173f2565b5b6020020181905250876103400151826026604a8110611918576119176173f2565b5b6020020181905250876103600151826027604a811061193a576119396173f2565b5b602002018190525061194f8960600151613ec4565b826028604a8110611963576119626173f2565b5b60200201819052506119788960800151613ec4565b826029604a811061198c5761198b6173f2565b5b60200201819052506119a18960a00151613ec4565b82602a604a81106119b5576119b46173f2565b5b60200201819052506119ca8960c00151613ec4565b82602b604a81106119de576119dd6173f2565b5b60200201819052506119f38960e00151613ec4565b82602c604a8110611a0757611a066173f2565b5b60200201819052506000856040018181525050611a28876101400151613f39565b85606001818152505060005b6001601c611a429190617421565b811015611b9f57600060016012611a599190617421565b8210159050600081611ad657611a96886060015185600286611a7b91906173be565b601d8110611a8c57611a8b6173f2565b5b602002015161383d565b9050611aa181613f04565b86846001602c611ab191906173be565b611abb91906173be565b604a8110611acc57611acb6173f2565b5b6020020181815250505b611b158860400151611b10838f6101c00151600188611af591906173be565b601c8110611b0657611b056173f2565b5b602002015161383d565b613879565b886040018181525050611b3188606001518b610140015161383d565b886060018181525050611b5f8c6101a0015184601b8110611b5557611b546173f2565b5b6020020151613ec4565b85846001602c611b6f91906173be565b611b7991906173be565b604a8110611b8a57611b896173f2565b5b60200201819052505050806001019050611a34565b506000611bb78887608001518c6101c0015188613f4c565b9050611be88660400151611be383856000601d8110611bd957611bd86173f2565b5b602002015161383d565b613879565b866040018181525050611c4b8660400151611c46611c288d6101c001516000601c8110611c1857611c176173f2565b5b60200201518c610140015161383d565b856001601d8110611c3c57611c3b6173f2565b5b602002015161383d565b613879565b866040018181525050604051806040016040528060018152602001600281525083601c602c611c7a91906173be565b604a8110611c8b57611c8a6173f2565b5b6020020181905250856040015184601c602c611ca791906173be565b604a8110611cb857611cb76173f2565b5b6020020181815250506000611cd18b6102000151613ec4565b905080846001601c602c611ce591906173be565b611cef91906173be565b604a8110611d0057611cff6173f2565b5b6020020181905250886101600151856001601c602c611d1f91906173be565b611d2991906173be565b604a8110611d3a57611d396173f2565b5b6020020181815250506000611d4f8587614082565b90506000611d5c8361414f565b9050611d6882826141c3565b99505050505050505050509392505050565b611d82616988565b6000604051806103c00160405280620400008152602001601281526020016002815260200160405180604001604052807e9891ba98b16a931022d562afcf3bbe33264f39480d40e1a756bb2b67a67c3281526020017f1f2b153cb5f99110d4d3e706e908c763bb046a623f2ab7141ebaef42c4702cd7815250815260200160405180604001604052807f2cd3883078bdbf32147af0a597ad2794c942902909c774dffc649ea23e7ca7d381526020017f236962843ceb03d83fb13b188c162d3f009ff2476b3ac9f9323655c7d1f65577815250815260200160405180604001604052807f19354e8afecb9c7bb0990af24ed3f8bf666b01956747f187dc6c88b09c136dab81526020017f24d034b6de2ffd8811ecbf337b78dff4cb60b04efb17141be573fd0ea8b62160815250815260200160405180604001604052807f152a6bc982907bae246e25c05917d90ab95e13358346f966224b5f86d57f38bb81526020017f0b5f115aa2adbcdb4918ed59691ba16586fec9e3ec4d9ad3bb41a7e1c7a0c36b815250815260200160405180604001604052807f0ce2c38cc43f912abfad7230e874bd6d9b367d20c25e46883d876d136eaca82381526020017f26947a0ceb77dc4ee0ec74c1b046f0b74bf7029ce4a35deba46e62d782e3c452815250815260200160405180604001604052807f139452394e1bf9785ea784a186bd3c2c3ae681a7eb3f66d9b2da0cabae900bf881526020017f22b8343f3616fd16193c6d319659dc90dfabed3cccab07aa69adcef66593d7e4815250815260200160405180604001604052807f1abe4043da8b3ee96553bd2214aab5eb8ddb4e5163e7d7f15e763b8b6468ce0381526020017f12ee2d46f2f1befca3ef3aae4ac0e395519eb8724e9aab0ea7cd7e3692c91853815250815260200160405180604001604052807f08f50e0450748457163a377b91034f2495d83db1a99874869bbdf1cef9f743cd81526020017f12652fe45b72e3e3da4978ed90a68cf709c9121ef5d919d058ecd0a54271db5d815250815260200160405180604001604052807f28ac89faa27c9bf4c14416a3bcc0298e30a6756095071d934b6b623e85619a2d81526020017f1ae2880acc89c552509f7d51581667c3851e960caa2e9ad718d4444a37f4f320815250815260200160405180604001604052807f234efe99a75d4d4da5c228231e94309eea78df6418610081ed3b2ebfe698bc5d81526020017f1545a5518153176a0e8ba76eb2ec25b50e9cac35907327a5305afe8c91ed4726815250815260200160405180604001604052807f19206cec1de2f224b62ec64f224337782063ea1ccccb3e29f2bf984f6098b08581526020017f1bf7a269c608647b698a7c4a853ee32edd7459432d302ca4336db37e17a31b45815250815260200160405180604001604052807f20afb3f14e5a49829b3b25cca610906480c2ebca92c3c7db32104c3c552edf0d81526020017ed84bd324fed9e043bb1c53bf9d76b47df6dc9a846e8755cf41ca77933bedf7815250815260200160405180604001604052807f11cbf57f0aef4c2a2c595962b8bc590c979434e96cd9d62b343f3336138a037c81526020017f25e79bd15f15dffe2527f5022f6201dc9191210c0c869a858094d71dc8d3f00e815250815260200160405180604001604052807f230560882c1a908c1e22ea51be8fb5e44ce39c8aff7d36813c314942e12dbe7281526020017f28eb7f5274af203347bcce94b85b38c19eaed9e40ce422ec9bb55f0b3a645c57815250815260200160405180604001604052807f3004389f432db0e653e32b585d865b85e548881c3cdbb8341c8d5aeba7815c4181526020017f0f912db3be8fd6af2931eca6398de9722542ae7f0207f0268a5748655fff8cb0815250815260200160405180604001604052807f1fa5207d195f23d48846a8b8bc71305cae0dbf9c2a36df8b34feea7e9dfd41cd81526020017f2f277ab2afdb3ea9ccde04098f09650f3210c0ee76130d01c657399495e505e5815250815260200160405180604001604052807f0fa50ee7e676b181b00ef3a7d183bb6cc93decd7e5d6c957b848c8ddff4d44cb81526020017f23d22588653be0bf1838c78164deeb6d17b0567e79fe41e40290638a3460019a815250815260200160405180604001604052807f05984689f2a9ed585db12c41495a826877bdadab07f8f5f98845b7e4668603a681526020017f0cbcf6d16144be82a8bcf101f71b335b8df2fcf3eb9addaf308759c6035d7250815250815260200160405180604001604052807f1db8e12863abeec2e112af5095c79920eb93eb1f1a77e6516d9a24199ee1b53281526020017f0a4b611b3cbeb944b6a1cc0f1611e6fa7c1f4e37a7447c4f45798158c4bb50e0815250815260200160405180604001604052807f1cc7424b73547f19146955565c614f96b5ced8c8c9505e763501c383283299a081526020017f057864d247fda9db25bea79b8be2253bcb9d4a91ab6ab8f9399457ae05f28dbc815250815260200160405180604001604052807f139849fb0a25647a2134233a6d4b6e6136e9c1981c75681041b6639d30d71aef81526020017f1914111000b51b59b2eaa20c8dcb0e40eca2ccbe16d04aa19124b8cb5f5e9132815250815260200160405180604001604052807f151ed523cfcec4952f91caf594be159dd1cd9f7a36129c6820e8cdada90808ed81526020017f2d50eec18dcc7819ab7dba531573c8fba9a5e21aaf06e6c6d637aaae72f02e3a815250815260200160405180604001604052807f2894e1eedd54e60f3981a1496e0b314b46071ba34a724776d6f71c6a19c2e65481526020017f172b9354d30fc85e03cc7c359fef280d5186b117182cbaca082ec8f5cca20ab9815250815260200160405180604001604052807f0ff23139f423bc5504d843f69fa7563935a81a0dbe3c08de6675a27c6df99a3881526020017f0a48dff44f8af0e150dce9731196a9b981fc2c81064109561567007200606e9d815250815260200160405180604001604052807f1ea2387f72e46131b26cddc9fb3f94da435bb9d49b91aa41f6ed398cd2f704a581526020017f067787a509a9d2fc45e9e30075da18e28f58079c5e35842a4207b434cb8bfb6881525081526020016040518060400160405280600181526020016002815250815260200160405180604001604052807f1d42c8673a4c598e70de9c7a5c97c794f6c21cbf1fabb67e8b88617f9188ab3d81526020017f229429a4e555d548e7ff728368bfba0408b96c9a2fb82c728b45d9b3c24af93b81525081525090508091505090565b60007f30644e72e131a029b85045b68181585d2833e84879b9709143e1f593f00000018260001c61271d91906174cc565b9050919050565b6000806000806000600c86600361273b91906173be565b61274591906173be565b67ffffffffffffffff81111561275e5761275d6174fd565b5b60405190808252806020026020018201604052801561278c5781602001602082028036833780820191505090505b509050886000015160001b816000815181106127ab576127aa6173f2565b5b602002602001018181525050886020015160001b816001815181106127d3576127d26173f2565b5b602002602001018181525050886040015160001b816002815181106127fb576127fa6173f2565b5b60200260200101818152505060005b8681101561286457888882818110612825576128246173f2565b5b905060200201358282600361283a91906173be565b8151811061284b5761284a6173f2565b5b602002602001018181525050808060010191505061280a565b5088606001516000015160001b8187600361287f91906173be565b815181106128905761288f6173f2565b5b60200260200101818152505088606001516020015160001b8160018860036128b891906173be565b6128c291906173be565b815181106128d3576128d26173f2565b5b60200260200101818152505088606001516040015160001b8160028860036128fb91906173be565b61290591906173be565b81518110612916576129156173f2565b5b60200260200101818152505088606001516060015160001b81600388600361293e91906173be565b61294891906173be565b81518110612959576129586173f2565b5b60200260200101818152505088608001516000015160001b81600488600361298191906173be565b61298b91906173be565b8151811061299c5761299b6173f2565b5b60200260200101818152505088608001516020015160001b8160058860036129c491906173be565b6129ce91906173be565b815181106129df576129de6173f2565b5b60200260200101818152505088608001516040015160001b816006886003612a0791906173be565b612a1191906173be565b81518110612a2257612a216173f2565b5b60200260200101818152505088608001516060015160001b816007886003612a4a91906173be565b612a5491906173be565b81518110612a6557612a646173f2565b5b6020026020010181815250508860a001516000015160001b816008886003612a8d91906173be565b612a9791906173be565b81518110612aa857612aa76173f2565b5b6020026020010181815250508860a001516020015160001b816009886003612ad091906173be565b612ada91906173be565b81518110612aeb57612aea6173f2565b5b6020026020010181815250508860a001516040015160001b81600a886003612b1391906173be565b612b1d91906173be565b81518110612b2e57612b2d6173f2565b5b6020026020010181815250508860a001516060015160001b81600b886003612b5691906173be565b612b6091906173be565b81518110612b7157612b706173f2565b5b602002602001018181525050612bac81604051602001612b9191906175e4565b604051602081830303815290604052805190602001206126ec565b9150612bb7826143aa565b8095508196505050612bee82604051602001612bd3919061761c565b604051602081830303815290604052805190602001206126ec565b91506000612bfb836143aa565b80925081955050505050945094509450949050565b6000806000612c1d616cdb565b612c26866143f6565b816000600d8110612c3a57612c396173f2565b5b6020020181815250508461010001516000015160001b816001600d8110612c6457612c636173f2565b5b6020020181815250508461010001516020015160001b816002600d8110612c8e57612c8d6173f2565b5b6020020181815250508461010001516040015160001b816003600d8110612cb857612cb76173f2565b5b6020020181815250508461010001516060015160001b816004600d8110612ce257612ce16173f2565b5b6020020181815250508461012001516000015160001b816005600d8110612d0c57612d0b6173f2565b5b6020020181815250508461012001516020015160001b816006600d8110612d3657612d356173f2565b5b6020020181815250508461012001516040015160001b816007600d8110612d6057612d5f6173f2565b5b6020020181815250508461012001516060015160001b816008600d8110612d8a57612d896173f2565b5b6020020181815250508460c001516000015160001b816009600d8110612db357612db26173f2565b5b6020020181815250508460c001516020015160001b81600a600d8110612ddc57612ddb6173f2565b5b6020020181815250508460c001516040015160001b81600b600d8110612e0557612e046173f2565b5b6020020181815250508460c001516060015160001b81600c600d8110612e2e57612e2d6173f2565b5b602002018181525050612e6681604051602001612e4b91906176bb565b604051602081830303815290604052805190602001206126ec565b9150612e71826143aa565b8094508195505050509250925092565b612e89616cfe565b6000612e93616d21565b8481600060098110612ea857612ea76173f2565b5b6020020181815250508361014001516000015181600160098110612ecf57612ece6173f2565b5b6020020181815250508361014001516020015181600260098110612ef657612ef56173f2565b5b6020020181815250508361014001516040015181600360098110612f1d57612f1c6173f2565b5b6020020181815250508361014001516060015181600460098110612f4457612f436173f2565b5b6020020181815250508360e001516000015181600560098110612f6a57612f696173f2565b5b6020020181815250508360e001516020015181600660098110612f9057612f8f6173f2565b5b6020020181815250508360e001516040015181600760098110612fb657612fb56173f2565b5b6020020181815250508360e001516060015181600860098110612fdc57612fdb6173f2565b5b60200201818152505061301481604051602001612ff99190617782565b604051602081830303815290604052805190602001206126ec565b915061301f826143aa565b84600060198110613033576130326173f2565b5b602002018560016019811061304b5761304a6173f2565b5b60200201828152508281525050506000600190505b6002601961306e919061779e565b811015613118576130a483604051602001613089919061761c565b604051602081830303815290604052805190602001206126ec565b92506130af836143aa565b858360026130bd919061737c565b601981106130ce576130cd6173f2565b5b602002018660018560026130e2919061737c565b6130ec91906173be565b601981106130fd576130fc6173f2565b5b60200201828152508281525050508080600101915050613060565b5060018060191614801561312d575060026019115b1561319d5761316182604051602001613146919061761c565b604051602081830303815290604052805190602001206126ec565b9150600061316e836143aa565b856001601961317d9190617421565b6019811061318e5761318d6173f2565b5b60200201819350828152505050505b509250929050565b6131ad616d44565b600080600090505b601c811015613228576131ed846040516020016131d2919061761c565b604051602081830303815290604052805190602001206126ec565b935060006131fa856143aa565b8584601c811061320d5761320c6173f2565b5b602002018193508281525050505080806001019150506131b5565b50829050915091565b613239616d44565b600080600090505b601c81101561335157613252616d67565b8481600060098110613267576132666173f2565b5b60200201818152505060005b60088110156132e55786610160015183601c8110613294576132936173f2565b5b602002015181600881106132ab576132aa6173f2565b5b6020020151826001836132be91906173be565b600981106132cf576132ce6173f2565b5b6020020181815250508080600101915050613273565b50613315816040516020016132fa919061789b565b604051602081830303815290604052805190602001206126ec565b94506000613322866143aa565b8685601c8110613335576133346173f2565b5b6020020181935082815250505050508080600101915050613241565b508290509250929050565b600080613367616d8a565b83816000602d811061337c5761337b6173f2565b5b60200201818152505060005b602c8110156133e35785610180015181602c81106133a9576133a86173f2565b5b6020020151826001836133bc91906173be565b602d81106133cd576133cc6173f2565b5b6020020181815250508080600101915050613388565b50613413816040516020016133f8919061793b565b604051602081830303815290604052805190602001206126ec565b91506000613420836143aa565b809250819550505050509250929050565b60008061343c616dad565b83816000606d8110613451576134506173f2565b5b60200201818152505060005b6001601c61346b9190617421565b8110156135d357856101a0015181601b811061348a576134896173f2565b5b602002015160000151826004836134a1919061737c565b60016134ad91906173be565b606d81106134be576134bd6173f2565b5b602002018181525050856101a0015181601b81106134df576134de6173f2565b5b602002015160200151826004836134f6919061737c565b600261350291906173be565b606d8110613513576135126173f2565b5b602002018181525050856101a0015181601b8110613534576135336173f2565b5b6020020151604001518260048361354b919061737c565b600361355791906173be565b606d8110613568576135676173f2565b5b602002018181525050856101a0015181601b8110613589576135886173f2565b5b602002015160600151826004836135a0919061737c565b60046135ac91906173be565b606d81106135bd576135bc6173f2565b5b602002018181525050808060010191505061345d565b50613603816040516020016135e891906179db565b604051602081830303815290604052805190602001206126ec565b91506000613610836143aa565b809250819550505050509250929050565b60008061362c616dd0565b83816000601d8110613641576136406173f2565b5b60200201818152505060005b601c8110156136a857856101c0015181601c811061366e5761366d6173f2565b5b60200201518260018361368191906173be565b601d8110613692576136916173f2565b5b602002018181525050808060010191505061364d565b506136d8816040516020016136bd9190617a7b565b604051602081830303815290604052805190602001206126ec565b915060006136e5836143aa565b809250819550505050509250929050565b600080613701616df3565b8381600060058110613716576137156173f2565b5b602002018181525050846101e00151600001518160016005811061373d5761373c6173f2565b5b602002018181525050846101e001516020015181600260058110613764576137636173f2565b5b602002018181525050846101e00151604001518160036005811061378b5761378a6173f2565b5b602002018181525050846101e0015160600151816004600581106137b2576137b16173f2565b5b6020020181815250506137ea816040516020016137cf9190617b1b565b604051602081830303815290604052805190602001206126ec565b915060006137f7836143aa565b809250819550505050509250929050565b60007f30644e72e131a029b85045b68181585d2833e84879b9709143e1f593f00000018261383691906174cc565b9050919050565b60007f30644e72e131a029b85045b68181585d2833e84879b9709143e1f593f00000018061386e5761386d61749d565b5b828409905092915050565b60007f30644e72e131a029b85045b68181585d2833e84879b9709143e1f593f0000001806138aa576138a961749d565b5b828408905092915050565b60007f30644e72e131a029b85045b68181585d2833e84879b9709143e1f593f0000001806138e6576138e561749d565b5b827f30644e72e131a029b85045b68181585d2833e84879b9709143e1f593f00000016139129190617421565b8408905092915050565b60006139308361392b84613e2d565b61383d565b905092915050565b60008061397584600060088110613952576139516173f2565b5b60200201518560016008811061396b5761396a6173f2565b5b6020020151613879565b90506139818184613cad565b91505092915050565b6000806040518061010001604052807f30644e72e131a029b85045b68181585d2833e84879b9709143e1f593efffec5181526020016102d081526020017f30644e72e131a029b85045b68181585d2833e84879b9709143e1f593efffff118152602001609081526020017f30644e72e131a029b85045b68181585d2833e84879b9709143e1f593efffff71815260200160f081526020017f30644e72e131a029b85045b68181585d2833e84879b9709143e1f593effffd3181526020016113b081525090506000604051806101000160405280600081526020016001815260200160028152602001600381526020016004815260200160058152602001600681526020016007815250905060006001905060005b6008811015613ac757613aba82613ab588846138b5565b61383d565b9150806001019050613a9e565b50613ad0616e15565b60005b6008811015613b58576000858260088110613af157613af06173f2565b5b60200201519050613b2281613b1d8a888660088110613b1357613b126173f2565b5b60200201516138b5565b61383d565b9050613b2d81613e2d565b905080838360088110613b4357613b426173f2565b5b60200201818152505050806001019050613ad3565b5060005b6008811015613bbc576000888260088110613b7a57613b796173f2565b5b60200201519050613ba281848460088110613b9857613b976173f2565b5b602002015161383d565b9050613bae8782613879565b965050806001019050613b5c565b50613bc7858361383d565b94505050505092915050565b600080613c0f6001613c0a86613c058a60c0015188601c8110613bf957613bf86173f2565b5b602002015160016138b5565b61383d565b613879565b9050613c1b858261383d565b915050949350505050565b6000808461018001519050613c39616e38565b613c44828286614403565b613c5082868387614648565b613c5c82868387614945565b613c67828286614beb565b613c72828286614ec3565b613c7e82868387615310565b613c89828286615faa565b613c9482828661646a565b613ca2818660a001516168bd565b925050509392505050565b6000818314905092915050565b613cc2616d44565b81816000601c8110613cd757613cd66173f2565b5b6020020181815250506000600190505b601c811015613d4357613d1c82600183613d019190617421565b601c8110613d1257613d116173f2565b5b6020020151613f39565b8282601c8110613d2f57613d2e6173f2565b5b602002018181525050806001019050613ce7565b50919050565b613d51616e5b565b60008361016001519050613d85613d8082856000601c8110613d7657613d756173f2565b5b60200201516138b5565b613e2d565b826000601d8110613d9957613d986173f2565b5b60200201818152505060005b601c811015613e2557600060016012613dbe91906173be565b8211613df057613ded613de8848785601c8110613dde57613ddd6173f2565b5b6020020151613879565b613e2d565b90505b8084600184613dff91906173be565b601d8110613e1057613e0f6173f2565b5b60200201818152505050806001019050613da5565b505092915050565b6000808290506000604051602081526020808201526020604082015282606082015260027f30644e72e131a029b85045b68181585d2833e84879b9709143e1f593f00000010360808201527f30644e72e131a029b85045b68181585d2833e84879b9709143e1f593f000000160a08201526020600060c08360055afa80613eb357600080fd5b600051925050508092505050919050565b613ecc616e7e565b604051806040016040528060888460200151901b846000015117815260200160888460600151901b8460400151178152509050919050565b6000817f30644e72e131a029b85045b68181585d2833e84879b9709143e1f593f0000001613f329190617421565b9050919050565b6000613f45828361383d565b9050919050565b600080601c90505b600081111561407657600083600183613f6d9190617421565b601c8110613f7e57613f7d6173f2565b5b6020020151905060008760e00151600184613f999190617421565b601c8110613faa57613fa96173f2565b5b60200201519050600086600185613fc19190617421565b601c8110613fd257613fd16173f2565b5b60200201519050600061401d613ff2613feb868c61383d565b600261383d565b6140188461401361400d8961400860018b6138b5565b61383d565b886138b5565b61383d565b6138b5565b905061404d8161404861404361403d8861403860018a6138b5565b61383d565b87613879565b613e2d565b61383d565b9050600060128611905080614060578199505b50505050508061406f90617b36565b9050613f54565b50839050949350505050565b61408a616e7e565b60006002601c602c61409c91906173be565b6140a691906173be565b90506001604051855151604082015285516020015160608201528451608082015260408160606040840160075afa8216915060015b83811015614137576020810287016020820287018151516040850152815160200151606085015280516080850152604080850160606040870160075afa8516945060408460808660065afa8516945050506001810190506140db565b81518552602082015160208601525050505092915050565b614157616e7e565b7f30644e72e131a029b85045b68181585d97816a916871ca8d3c208c16d87cfd4782602001517f30644e72e131a029b85045b68181585d97816a916871ca8d3c208c16d87cfd476141a89190617421565b6141b291906174cc565b826020018181525050819050919050565b600080836000015184602001517f198e9393920d483a7260bfb731fb5d25f1aa493335a9e71297e485b7aef312c27f1800deef121f1e76426a00665e5c4479674322d4f75edadd46debd5cd992f6ed7f090689d0585ff075ec9e99ad690c3395bc4b313370b38ef355acdadcd122975b7f12c85ea5db8c6deb4aab71808dcb408fe3d1e7690c43d37b4ce6cc0166fa7daa886000015189602001517f260e01b251f6f1c7e7ff4e580791dee8ea51d87a358e038b4efe30fac09383c17f0118c4d5b837bcc2bc89b5b398b5974e9f5944073b32078b7e231fec938883b07f04fc6369f7110fe3d25156c1bb9a72859cf2a04641f99ba4ee413c80da6a5fe47f22febda3c0c0632a56475b4214e5615e11e6dd3f96e6cea2854a87d4dacc5e556040516020016142fd9c9b9a99989796959493929190617b5f565b6040516020818303038152906040529050600080600873ffffffffffffffffffffffffffffffffffffffff16836040516143379190617ca6565b600060405180830381855afa9150503d8060008114614372576040519150601f19603f3d011682016040523d82523d6000602084013e614377565b606091505b50915091506000818060200190518101906143929190617ce9565b905082801561439e5750805b94505050505092915050565b600080600083905060006fffffffffffffffffffffffffffffffff821690506000608083901c90506143de8260001b6126ec565b94506143ec8160001b6126ec565b9350505050915091565b60008160001b9050919050565b6000614410846006616954565b905060007f183227397098d014dc2822db40c0ac2e9419f4243cdcb848a1f0fac9f80000009050600061448661448061444a8560036138b5565b61447b61446b61445b8b6000616954565b6144668c601c616954565b61383d565b6144768b601b616954565b61383d565b61383d565b8361383d565b90506145346145246145016144de6144bb856144b66144a68d6002616954565b6144b18e601b616954565b61383d565b613879565b6144d96144c98c6003616954565b6144d48d601c616954565b61383d565b613879565b6144fc6144ec8b6004616954565b6144f78c601d616954565b61383d565b613879565b61451f61450f8a6005616954565b61451a8b601e616954565b61383d565b613879565b61452f886001616954565b613879565b905061455d816145586145488660016138b5565b6145538a602a616954565b61383d565b613879565b9050614569818461383d565b9050614575818561383d565b905080856000601a811061458c5761458b6173f2565b5b602002018181525050505060006145dd6145cd6145bd6145ad88601b616954565b6145b889601e616954565b613879565b6145c8886027616954565b6138b5565b6145d8876000616954565b613879565b90506145f3816145ee8460026138b5565b61383d565b9050614609816146048460016138b5565b61383d565b9050614615818361383d565b9050614621818461383d565b905080846001601a8110614638576146376173f2565b5b6020020181815250505050505050565b600080600061468561467b61465e89601b616954565b61467661466c8b6011616954565b8a6060015161383d565b613879565b8760800151613879565b90506146c8816146c36146b961469c8b601c616954565b6146b46146aa8d6012616954565b8c6060015161383d565b613879565b8960800151613879565b61383d565b905061470b816147066146fc6146df8b601d616954565b6146f76146ed8d6013616954565b8c6060015161383d565b613879565b8960800151613879565b61383d565b905061474e8161474961473f6147228b601e616954565b61473a6147308d6014616954565b8c6060015161383d565b613879565b8960800151613879565b61383d565b905080925050600061478e61478461476789601b616954565b61477f6147758b600d616954565b8a6060015161383d565b613879565b8760800151613879565b90506147d1816147cc6147c26147a58b601c616954565b6147bd6147b38d600e616954565b8c6060015161383d565b613879565b8960800151613879565b61383d565b90506148148161480f6148056147e88b601d616954565b6148006147f68d600f616954565b8c6060015161383d565b613879565b8960800151613879565b61383d565b90506148578161485261484861482b8b601e616954565b6148436148398d6010616954565b8c6060015161383d565b613879565b8960800151613879565b61383d565b905080915050600061488661488061487089601f616954565b61487b8a6019616954565b613879565b8461383d565b90506148c6816148c16148bb61489d8b602b616954565b6148b66148ab8d601a616954565b8c610180015161383d565b613879565b8561383d565b6138b5565b90506148d2818561383d565b905080856002601a81106148e9576148e86173f2565b5b60200201818152505050600061491c61491661490689601a616954565b6149118a602b616954565b61383d565b8561383d565b905080856003601a8110614933576149326173f2565b5b60200201818152505050505050505050565b6000806149c06149a361498661496961495f8a6015616954565b8960800151613879565b6149816149778b6016616954565b8a6000015161383d565b613879565b61499e6149948a6017616954565b896020015161383d565b613879565b6149bb6149b1896018616954565b886040015161383d565b613879565b91506000614a026149df6149d589601b616954565b8860800151613879565b6149fd6149ed8a6003616954565b6149f88b6027616954565b61383d565b613879565b90506000614a37614a1489601c616954565b614a32614a228b6000616954565b614a2d8c6028616954565b61383d565b613879565b90506000614a6c614a498a601d616954565b614a67614a578c6001616954565b614a628d6029616954565b61383d565b613879565b9050614abb614a9e614a8b85614a86868d6000015161383d565b613879565b614a99848c6020015161383d565b613879565b614ab6614aac8c6004616954565b8b6040015161383d565b613879565b93505050506000614ad6614ad0886020616954565b8461383d565b90506000614aee614ae8896020616954565b8461383d565b90506000614b36614b13614b038b6022616954565b614b0e8c600a616954565b613879565b614b31614b218c6022616954565b614b2c8d600a616954565b61383d565b6138b5565b90506000614b60614b5a614b4a878961383d565b614b558d6020616954565b61383d565b836138b5565b9050614b6c818861383d565b90506000614ba0614b87614b818d600a616954565b8761383d565b614b9b614b958e6021616954565b8761383d565b6138b5565b905081896004601a8110614bb757614bb66173f2565b5b60200201818152505080896005601a8110614bd557614bd46173f2565b5b6020020181815250505050505050505050505050565b6000614bf9600060016138b5565b90506000614c09600060026138b5565b90506000614c19600060036138b5565b90506000614c3b614c2b88601c616954565b614c3689601b616954565b6138b5565b90506000614c5d614c4d89601d616954565b614c588a601c616954565b6138b5565b90506000614c7f614c6f8a601e616954565b614c7a8b601d616954565b6138b5565b90506000614ca1614c918b6027616954565b614c9c8c601e616954565b6138b5565b90506000849050614cbb81614cb6878b613879565b61383d565b9050614cd081614ccb878a613879565b61383d565b9050614ce581614ce08789613879565b61383d565b9050614cfb81614cf68d6007616954565b61383d565b9050614d07818a61383d565b9050808a6006601a8110614d1e57614d1d6173f2565b5b602002018181525050506000839050614d4081614d3b868b613879565b61383d565b9050614d5581614d50868a613879565b61383d565b9050614d6a81614d658689613879565b61383d565b9050614d8081614d7b8d6007616954565b61383d565b9050614d8c818a61383d565b9050808a6007601a8110614da357614da26173f2565b5b602002018181525050506000829050614dc581614dc0858b613879565b61383d565b9050614dda81614dd5858a613879565b61383d565b9050614def81614dea8589613879565b61383d565b9050614e0581614e008d6007616954565b61383d565b9050614e11818a61383d565b9050808a6008601a8110614e2857614e276173f2565b5b602002018181525050506000819050614e4a81614e45848b613879565b61383d565b9050614e5f81614e5a848a613879565b61383d565b9050614e7481614e6f8489613879565b61383d565b9050614e8a81614e858d6007616954565b61383d565b9050614e96818a61383d565b9050808a6009601a8110614ead57614eac6173f2565b5b6020020181815250505050505050505050505050565b614ecb616e98565b614ed684601c616954565b816000018181525050614eea84601d616954565b816020018181525050614efe846027616954565b816040018181525050614f1284602a616954565b816060018181525050614f26846029616954565b816080018181525050614f3a846028616954565b8160a00181815250506000614f50856002616954565b90506000614f5f866000616954565b90506000614f75846040015185600001516138b5565b90506000614f8b8560200151866020015161383d565b905060008690506000614fa68760600151886060015161383d565b90506000614fc5614fbf89602001518a6060015161383d565b8861383d565b90506000614fe8614fde8a60a001518b60400151613879565b8a60000151613879565b9050614ffd614ff7828861383d565b8761383d565b905061502461501e61501861501284876138b5565b886138b5565b84613879565b83613879565b9050615056615046615036838761383d565b6150418f6008616954565b61383d565b61505160018a6138b5565b61383d565b8b600a601a811061506a576150696173f2565b5b60200201818152505050505050600061508b86602001518760800151613879565b905060006150aa6150a088606001518861383d565b88602001516138b5565b905060006150db6150bb848761383d565b6150d66150d08b60a001518c600001516138b5565b8561383d565b613879565b905061510d6150fd6150ed838c61383d565b6150f88e6008616954565b61383d565b6151086001896138b5565b61383d565b8a600b601a8110615121576151206173f2565b5b602002018181525050505050600061514761513d836011613879565b876000015161383d565b905060006151558384613879565b90506151618182613879565b9050600061517083600961383d565b90506151a361519d61519761518d8b60a001518c60000151613879565b8b60000151613879565b8461383d565b826138b5565b8860c001818152505060006151d86151d26151c28b60c001518d61383d565b6151cd8f6008616954565b61383d565b8861383d565b90506151fc8b600a601a81106151f1576151f06173f2565b5b602002015182613879565b8b600a601a81106152105761520f6173f2565b5b60200201818152505050505050600061524b61524161523788600001518960000151613879565b8860000151613879565b876000015161383d565b9050600061529e61526d836152688a600001518b60a001516138b5565b61383d565b6152996152828a602001518b60200151613879565b6152948b602001518c60800151613879565b61383d565b6138b5565b90506152e789600b601a81106152b7576152b66173f2565b5b60200201516152e26152dc6152cc858d61383d565b6152d78f6008616954565b61383d565b8861383d565b613879565b89600b601a81106152fb576152fa6173f2565b5b60200201818152505050505050505050505050565b615318616ed5565b61535c61533961532987601b616954565b615334886028616954565b61383d565b615357615347886027616954565b61535289601c616954565b61383d565b613879565b8160000181815250506153bc6153ac61538961537988601b616954565b61538489601e616954565b61383d565b6153a761539789601c616954565b6153a28a601d616954565b61383d565b613879565b6153b7876029616954565b6138b5565b8160400181815250506153d8816040015160446001901b61383d565b8160400181815250506153f981604001516153f487602a616954565b6138b5565b81604001818152505061541481604001518260000151613879565b8160400181815250506154358160400151615430876005616954565b61383d565b816040018181525050615451816000015160446001901b61383d565b8160000181815250506154858160000151615480615470886027616954565b61547b896028616954565b61383d565b613879565b81600001818152505080600001518160200181815250506154c781602001516154c26154b288601d616954565b6154bd89601e616954565b613879565b6138b5565b8160200181815250506154e881602001516154e3876004616954565b61383d565b8160200181815250508060000151816060018181525050615517816060015161551287601e616954565b613879565b81606001818152505061554b8160600151615546615536886029616954565b61554189602a616954565b613879565b6138b5565b81606001818152505061556c8160600151615567876000616954565b61383d565b816060018181525050600061559661558c83602001518460400151613879565b8360600151613879565b90506155ac816155a7886003616954565b61383d565b90506155c76155bc876028616954565b600e6001901b61383d565b8260800181815250506155e882608001516155e3886027616954565b613879565b8260800181815250506156048260800151600e6001901b61383d565b826080018181525050615625826080015161562088601d616954565b613879565b8260800181815250506156418260800151600e6001901b61383d565b826080018181525050615662826080015161565d88601c616954565b613879565b82608001818152505061567e8260800151600e6001901b61383d565b82608001818152505061569f826080015161569a88601b616954565b613879565b8260800181815250506156c082608001516156bb88601e616954565b6138b5565b8260800181815250506156e182608001516156dc886005616954565b61383d565b8260800181815250506157036156f8876029616954565b600e6001901b61383d565b8260a00181815250506157248260a0015161571f886028616954565b613879565b8260a00181815250506157408260a00151600e6001901b61383d565b8260a00181815250506157618260a0015161575c886027616954565b613879565b8260a001818152505061577d8260a00151600e6001901b61383d565b8260a001818152505061579e8260a0015161579988601e616954565b613879565b8260a00181815250506157ba8260a00151600e6001901b61383d565b8260a00181815250506157db8260a001516157d688601d616954565b613879565b8260a00181815250506157fc8260a001516157f788602a616954565b6138b5565b8260a001818152505061581d8260a00151615818886000616954565b61383d565b8260a0018181525050600061583a83608001518460a00151613879565b90506158508161584b896004616954565b61383d565b905061586a61586088601d616954565b876040015161383d565b8360c00181815250506158988360c001516158936158898a601c616954565b896020015161383d565b613879565b8360c00181815250506158c68360c001516158c16158b78a601b616954565b896000015161383d565b613879565b8360c00181815250506158e78360c001516158e2896001616954565b613879565b8360c00181815250508260c001518360e00181815250506159168360c0015161591189601e616954565b6138b5565b8360c001818152505061593d61592d886027616954565b61593889601b616954565b6138b5565b8361014001818152505061596561595588602a616954565b61596089601e616954565b6138b5565b8361012001818152505061599161598684610140015185610140015161383d565b8461014001516138b5565b836102800181815250506159ee6159e36159dc85610140015160017f30644e72e131a029b85045b68181585d2833e84879b9709143e1f593f00000016159d79190617421565b61383d565b6001613879565b84610120015161383d565b83610160018181525050615a40615a27846101600151615a22615a128b6002616954565b615a1d8c6003616954565b61383d565b61383d565b615a3b615a358a6009616954565b8761383d565b61383d565b85600d601a8110615a5457615a536173f2565b5b602002018181525050615aa5615a8c846102800151615a87615a778b6002616954565b615a828c6003616954565b61383d565b61383d565b615aa0615a9a8a6009616954565b8761383d565b61383d565b85600e601a8110615ab957615ab86173f2565b5b602002018181525050615aed8360c00151615ae8615ad88a6002616954565b615ae38b6003616954565b61383d565b61383d565b836101e00181815250506000615b11615b0789601e616954565b8560e001516138b5565b9050615b26615b20828361383d565b826138b5565b846101a0018181525050615b48615b3e896029616954565b886040015161383d565b84610100018181525050615b78846101000151615b73615b698b6028616954565b8a6020015161383d565b613879565b84610100018181525050615ba8846101000151615ba3615b998b6027616954565b8a6000015161383d565b613879565b84610100018181525050615bcb615bc089602a616954565b8561010001516138b5565b846101000181815250506000615bf5615be58a6029616954565b615bf08b601d616954565b6138b5565b9050615c92615c48615c42615c3b88610140015160017f30644e72e131a029b85045b68181585d2833e84879b9709143e1f593f0000001615c369190617421565b61383d565b6001613879565b8361383d565b615c8d615c8688610100015160017f30644e72e131a029b85045b68181585d2833e84879b9709143e1f593f0000001615c819190617421565b61383d565b6001613879565b61383d565b85610180018181525050615cbe615cb386610100015187610100015161383d565b8661010001516138b5565b856101c0018181525050615cfd615ce4866101800151615cdf8c6006616954565b61383d565b615cf8615cf28c6009616954565b8961383d565b61383d565b87600f601a8110615d1157615d106173f2565b5b602002018181525050615d4f615d36866102800151615d318c6006616954565b61383d565b615d4a615d448c6009616954565b8961383d565b61383d565b876010601a8110615d6357615d626173f2565b5b602002018181525050615da1615d88866101c00151615d838c6006616954565b61383d565b615d9c615d968c6009616954565b8961383d565b61383d565b876011601a8110615db557615db46173f2565b5b602002018181525050615dd7856101a00151615dd28b6006616954565b61383d565b85610200018181525050615dff615def8a6028616954565b615dfa8b601c616954565b6138b5565b85610220018181525050615e6f615e5f615e54615e4d88610140015160017f30644e72e131a029b85045b68181585d2833e84879b9709143e1f593f0000001615e489190617421565b61383d565b6001613879565b87610220015161383d565b615e6a8b601d616954565b6138b5565b85610240018181525050846101e0015185610260018181525050615ec3856102600151615ebe876102400151615eb9615ea98e6005616954565b615eb48f6002616954565b61383d565b61383d565b613879565b85610260018181525050615f06856102600151615f018760c00151615efc615eec8e6000616954565b615ef78f6002616954565b61383d565b61383d565b613879565b85610260018181525050615f24856102600151866102000151613879565b85610260018181525050615f46615f4086610260015186613879565b84613879565b856102a0018181525050615f72856102a00151615f6d615f678c6009616954565b8961383d565b61383d565b856102a0018181525050846102a0015187600c601a8110615f9657615f956173f2565b5b602002018181525050505050505050505050565b615fb2616f7c565b615fd0615fc085601b616954565b615fcb866002616954565b613879565b816000018181525050615ff7615fe785601c616954565b615ff2866003616954565b613879565b81602001818152505061601e61600e85601d616954565b616019866004616954565b613879565b81604001818152505061604561603585601e616954565b616040866005616954565b613879565b81606001818152505061608761607d6160736160698460000151856000015161383d565b846000015161383d565b836000015161383d565b826000015161383d565b8160800181815250506160c96160bf6160b56160ab8460200151856020015161383d565b846020015161383d565b836020015161383d565b826020015161383d565b8160a001818152505061610b6161016160f76160ed8460400151856040015161383d565b846040015161383d565b836040015161383d565b826040015161383d565b8160c001818152505061614d61614361613961612f8460600151856060015161383d565b846060015161383d565b836060015161383d565b826060015161383d565b8160e001818152505061616881608001518260a00151613879565b816101000181815250506161848160c001518260e00151613879565b816101200181815250506161ae6161a38260a001518360a00151613879565b826101200151613879565b816101400181815250506161d86161cd8260e001518360e00151613879565b826101000151613879565b816101600181815250506161f6816101200151826101200151613879565b816101e0018181525050616222616217826101e00151836101e00151613879565b826101600151613879565b816101e0018181525050616240816101000151826101000151613879565b816101a001818152505061626c616261826101a00151836101a00151613879565b826101400151613879565b816101a001818152505061628a816101600151826101a00151613879565b816101800181815250506162a8816101400151826101e00151613879565b816101c00181815250506162c66162c085600b616954565b8361383d565b81610200018181525050616318836012601a81106162e7576162e66173f2565b5b602002015161631383610200015161630e8561018001516163098a6027616954565b6138b5565b61383d565b613879565b836012601a811061632c5761632b6173f2565b5b60200201818152505061637d836013601a811061634c5761634b6173f2565b5b6020020151616378836102000151616373856101a0015161636e8a6028616954565b6138b5565b61383d565b613879565b836013601a8110616391576163906173f2565b5b6020020181815250506163e2836014601a81106163b1576163b06173f2565b5b60200201516163dd8361020001516163d8856101c001516163d38a6029616954565b6138b5565b61383d565b613879565b836014601a81106163f6576163f56173f2565b5b602002018181525050616447836015601a8110616416576164156173f2565b5b602002015161644283610200015161643d856101e001516164388a602a616954565b6138b5565b61383d565b613879565b836015601a811061645b5761645a6173f2565b5b60200201818152505050505050565b616472617000565b600060405180608001604052806164a87f10dc6e9c006ea38b04b1e03b4bd9490c0d03f98929ca1d7fb56821fd19d3b6e7613808565b81526020016164d67f0c28145b6a44df3e0149b3d0a30b3bb599df9756d4dd9b84a86b38cfb45a740b613808565b81526020016165037e544b8338791518b2c7645a50392798b21f75bb60e3596170067d00141cac15613808565b81526020016165317f222c01175718386f2e2e82eb122789e352e105a3b8fa852613bc534433ee428b613808565b815250905061655461654486601b616954565b61654f876002616954565b613879565b8261012001818152505061659c61659161658661657b85610120015186610120015161383d565b85610120015161383d565b84610120015161383d565b83610120015161383d565b8260000181815250506165b085601c616954565b8260200181815250506165c485601d616954565b8260400181815250506165d885601e616954565b82606001818152505061660d6166036165f984600001518560200151613879565b8460400151613879565b8360600151613879565b82608001818152505061662a61662486600c616954565b8461383d565b8261014001818152505061666761665d836000015183600060048110616653576166526173f2565b5b602002015161383d565b8360800151613879565b8260a00181815250506166b7846016601a8110616687576166866173f2565b5b60200201516166b28461014001516166ad8660a001516166a88b6027616954565b6138b5565b61383d565b613879565b846016601a81106166cb576166ca6173f2565b5b6020020181815250506167076166fd8360200151836001600481106166f3576166f26173f2565b5b602002015161383d565b8360800151613879565b8260c0018181525050616757846017601a8110616727576167266173f2565b5b602002015161675284610140015161674d8660c001516167488b6028616954565b6138b5565b61383d565b613879565b846017601a811061676b5761676a6173f2565b5b6020020181815250506167a761679d836040015183600260048110616793576167926173f2565b5b602002015161383d565b8360800151613879565b8260e00181815250506167f7846018601a81106167c7576167c66173f2565b5b60200201516167f28461014001516167ed8660e001516167e88b6029616954565b6138b5565b61383d565b613879565b846018601a811061680b5761680a6173f2565b5b60200201818152505061684761683d836060015183600360048110616833576168326173f2565b5b602002015161383d565b8360800151613879565b82610100018181525050616899846019601a8110616868576168676173f2565b5b602002015161689484610140015161688f86610100015161688a8b602a616954565b6138b5565b61383d565b613879565b846019601a81106168ad576168ac6173f2565b5b6020020181815250505050505050565b60006168e181846000601a81106168d7576168d66173f2565b5b6020020151613879565b90506000600190505b601a81101561694d576169408261693b8684601a811061690d5761690c6173f2565b5b6020020151866001866169209190617421565b60198110616931576169306173f2565b5b602002015161383d565b613879565b91508060010190506168ea565b5092915050565b60008282602b81111561696a57616969617d16565b5b602c811061697b5761697a6173f2565b5b6020020151905092915050565b604051806103c001604052806000815260200160008152602001600081526020016169b1616e7e565b81526020016169be616e7e565b81526020016169cb616e7e565b81526020016169d8616e7e565b81526020016169e5616e7e565b81526020016169f2616e7e565b81526020016169ff616e7e565b8152602001616a0c616e7e565b8152602001616a19616e7e565b8152602001616a26616e7e565b8152602001616a33616e7e565b8152602001616a40616e7e565b8152602001616a4d616e7e565b8152602001616a5a616e7e565b8152602001616a67616e7e565b8152602001616a74616e7e565b8152602001616a81616e7e565b8152602001616a8e616e7e565b8152602001616a9b616e7e565b8152602001616aa8616e7e565b8152602001616ab5616e7e565b8152602001616ac2616e7e565b8152602001616acf616e7e565b8152602001616adc616e7e565b8152602001616ae9616e7e565b8152602001616af6616e7e565b8152602001616b03616e7e565b81525090565b604051806102200160405280600081526020016000815260200160008152602001616b3261705a565b8152602001616b3f61705a565b8152602001616b4c61705a565b8152602001616b5961705a565b8152602001616b6661705a565b8152602001616b7361705a565b8152602001616b8061705a565b8152602001616b8d61705a565b8152602001616b9a617082565b8152602001616ba76170b0565b8152602001616bb46170d3565b8152602001616bc1616d44565b8152602001616bce61705a565b8152602001616bdb61705a565b81525090565b604051806101a001604052806000815260200160008152602001600081526020016000815260200160008152602001616c18616cfe565b8152602001616c25616d44565b8152602001616c32616d44565b815260200160008152602001600081526020016000815260200160008152602001600081525090565b6040518060a0016040528060008152602001600081526020016000815260200160008152602001600081525090565b604051806109400160405280604a90602082028036833780820191505090505090565b604051806109400160405280604a905b616cc5616e7e565b815260200190600190039081616cbd5790505090565b604051806101a00160405280600d90602082028036833780820191505090505090565b604051806103200160405280601990602082028036833780820191505090505090565b604051806101200160405280600990602082028036833780820191505090505090565b604051806103800160405280601c90602082028036833780820191505090505090565b604051806101200160405280600990602082028036833780820191505090505090565b604051806105a00160405280602d90602082028036833780820191505090505090565b60405180610da00160405280606d90602082028036833780820191505090505090565b604051806103a00160405280601d90602082028036833780820191505090505090565b6040518060a00160405280600590602082028036833780820191505090505090565b604051806101000160405280600890602082028036833780820191505090505090565b604051806103400160405280601a90602082028036833780820191505090505090565b604051806103a00160405280601d90602082028036833780820191505090505090565b604051806040016040528060008152602001600081525090565b6040518060e00160405280600081526020016000815260200160008152602001600081526020016000815260200160008152602001600081525090565b604051806102c00160405280600081526020016000815260200160008152602001600081526020016000815260200160008152602001600081526020016000815260200160008152602001600081526020016000815260200160008152602001600081526020016000815260200160008152602001600081526020016000815260200160008152602001600081526020016000815260200160008152602001600081525090565b60405180610220016040528060008152602001600081526020016000815260200160008152602001600081526020016000815260200160008152602001600081526020016000815260200160008152602001600081526020016000815260200160008152602001600081526020016000815260200160008152602001600081525090565b60405180610160016040528060008152602001600081526020016000815260200160008152602001600081526020016000815260200160008152602001600081526020016000815260200160008152602001600081525090565b6040518060800160405280600081526020016000815260200160008152602001600081525090565b604051806103800160405280601c905b61709a616e15565b8152602001906001900390816170925790505090565b604051806105800160405280602c90602082028036833780820191505090505090565b604051806103600160405280601b905b6170eb61705a565b8152602001906001900390816170e35790505090565b600080fd5b600080fd5b600080fd5b600080fd5b600080fd5b60008083601f8401126171305761712f61710b565b5b8235905067ffffffffffffffff81111561714d5761714c617110565b5b60208301915083600182028301111561716957617168617115565b5b9250929050565b60008083601f8401126171865761718561710b565b5b8235905067ffffffffffffffff8111156171a3576171a2617110565b5b6020830191508360208202830111156171bf576171be617115565b5b9250929050565b600080600080604085870312156171e0576171df617101565b5b600085013567ffffffffffffffff8111156171fe576171fd617106565b5b61720a8782880161711a565b9450945050602085013567ffffffffffffffff81111561722d5761722c617106565b5b61723987828801617170565b925092505092959194509250565b60008115159050919050565b61725c81617247565b82525050565b60006020820190506172776000830184617253565b92915050565b600080fd5b600080fd5b6000808585111561729b5761729a61727d565b5b838611156172ac576172ab617282565b5b6001850283019150848603905094509492505050565b600082905092915050565b6000819050919050565b600082821b905092915050565b60006172f083836172c2565b826172fb81356172cd565b9250602082101561733b576173367fffffffffffffffffffffffffffffffffffffffffffffffffffffffffffffffff836020036008026172d7565b831692505b505092915050565b6000819050919050565b7f4e487b7100000000000000000000000000000000000000000000000000000000600052601160045260246000fd5b600061738782617343565b915061739283617343565b92508282026173a081617343565b915082820484148315176173b7576173b661734d565b5b5092915050565b60006173c982617343565b91506173d483617343565b92508282019050808211156173ec576173eb61734d565b5b92915050565b7f4e487b7100000000000000000000000000000000000000000000000000000000600052603260045260246000fd5b600061742c82617343565b915061743783617343565b925082820390508181111561744f5761744e61734d565b5b92915050565b600061746082617343565b91507fffffffffffffffffffffffffffffffffffffffffffffffffffffffffffffffff82036174925761749161734d565b5b600182019050919050565b7f4e487b7100000000000000000000000000000000000000000000000000000000600052601260045260246000fd5b60006174d782617343565b91506174e283617343565b9250826174f2576174f161749d565b5b828206905092915050565b7f4e487b7100000000000000000000000000000000000000000000000000000000600052604160045260246000fd5b600081519050919050565b600081905092915050565b6000819050602082019050919050565b61755b816172cd565b82525050565b600061756d8383617552565b60208301905092915050565b6000602082019050919050565b60006175918261752c565b61759b8185617537565b93506175a683617542565b8060005b838110156175d75781516175be8882617561565b97506175c983617579565b9250506001810190506175aa565b5085935050505092915050565b60006175f08284617586565b915081905092915050565b6000819050919050565b61761661761182617343565b6175fb565b82525050565b60006176288284617605565b60208201915081905092915050565b6000600d9050919050565b600081905092915050565b6000819050919050565b6000602082019050919050565b61766d81617637565b6176778184617642565b92506176828261764d565b8060005b838110156176b357815161769a8782617561565b96506176a583617657565b925050600181019050617686565b505050505050565b60006176c78284617664565b6101a08201915081905092915050565b600060099050919050565b600081905092915050565b6000819050919050565b61770081617343565b82525050565b600061771283836176f7565b60208301905092915050565b6000602082019050919050565b617734816176d7565b61773e81846176e2565b9250617749826176ed565b8060005b8381101561777a5781516177618782617706565b965061776c8361771e565b92505060018101905061774d565b505050505050565b600061778e828461772b565b6101208201915081905092915050565b60006177a982617343565b91506177b483617343565b9250826177c4576177c361749d565b5b828204905092915050565b600060099050919050565b6000819050919050565b6000819050919050565b60006178096178046177ff84617343565b6177e4565b617343565b9050919050565b617819816177ee565b82525050565b600061782b8383617810565b60208301905092915050565b6000602082019050919050565b61784d816177cf565b61785781846176e2565b9250617862826177da565b8060005b8381101561789357815161787a878261781f565b965061788583617837565b925050600181019050617866565b505050505050565b60006178a78284617844565b6101208201915081905092915050565b6000602d9050919050565b600081905092915050565b6000819050919050565b6000602082019050919050565b6178ed816178b7565b6178f781846178c2565b9250617902826178cd565b8060005b8381101561793357815161791a878261781f565b9650617925836178d7565b925050600181019050617906565b505050505050565b600061794782846178e4565b6105a08201915081905092915050565b6000606d9050919050565b600081905092915050565b6000819050919050565b6000602082019050919050565b61798d81617957565b6179978184617962565b92506179a28261796d565b8060005b838110156179d35781516179ba8782617706565b96506179c583617977565b9250506001810190506179a6565b505050505050565b60006179e78284617984565b610da08201915081905092915050565b6000601d9050919050565b600081905092915050565b6000819050919050565b6000602082019050919050565b617a2d816179f7565b617a378184617a02565b9250617a4282617a0d565b8060005b83811015617a73578151617a5a8782617706565b9650617a6583617a17565b925050600181019050617a46565b505050505050565b6000617a878284617a24565b6103a08201915081905092915050565b600060059050919050565b600081905092915050565b6000819050919050565b6000602082019050919050565b617acd81617a97565b617ad78184617aa2565b9250617ae282617aad565b8060005b83811015617b13578151617afa8782617706565b9650617b0583617ab7565b925050600181019050617ae6565b505050505050565b6000617b278284617ac4565b60a08201915081905092915050565b6000617b4182617343565b915060008203617b5457617b5361734d565b5b600182039050919050565b6000617b6b828f617605565b602082019150617b7b828e617605565b602082019150617b8b828d617605565b602082019150617b9b828c617605565b602082019150617bab828b617605565b602082019150617bbb828a617605565b602082019150617bcb8289617605565b602082019150617bdb8288617605565b602082019150617beb8287617605565b602082019150617bfb8286617605565b602082019150617c0b8285617605565b602082019150617c1b8284617605565b6020820191508190509d9c50505050505050505050505050565b600081519050919050565b600081905092915050565b60005b83811015617c69578082015181840152602081019050617c4e565b60008484015250505050565b6000617c8082617c35565b617c8a8185617c40565b9350617c9a818560208601617c4b565b80840191505092915050565b6000617cb28284617c75565b915081905092915050565b617cc681617247565b8114617cd157600080fd5b50565b600081519050617ce381617cbd565b92915050565b600060208284031215617cff57617cfe617101565b5b6000617d0d84828501617cd4565b91505092915050565b7f4e487b7100000000000000000000000000000000000000000000000000000000600052602160045260246000fdfea264697066735822122023c19afa9647d32f0514c0d2824dfbb921b92f5ece5c4bf3d6e744c1bd16a0cc64736f6c634300081c0033","opcodes":"PUSH1 0x80 PUSH1 0x40 MSTORE PUSH1 0x40 MLOAD PUSH2 0x10 SWAP1 PUSH2 0xE1 JUMP JUMPDEST PUSH1 0x40 MLOAD DUP1 SWAP2 SUB SWAP1 PUSH1 0x0 CREATE DUP1 ISZERO DUP1 ISZERO PUSH2 0x2C JUMPI RETURNDATASIZE PUSH1 0x0 DUP1 RETURNDATACOPY RETURNDATASIZE PUSH1 0x0 REVERT JUMPDEST POP PUSH1 0x0 DUP1 PUSH2 0x100 EXP DUP2 SLOAD DUP2 PUSH20 0xFFFFFFFFFFFFFFFFFFFFFFFFFFFFFFFFFFFFFFFF MUL NOT AND SWAP1 DUP4 PUSH20 0xFFFFFFFFFFFFFFFFFFFFFFFFFFFFFFFFFFFFFFFF AND MUL OR SWAP1 SSTORE POP CALLVALUE DUP1 ISZERO PUSH2 0x78 JUMPI PUSH1 0x0 DUP1 REVERT JUMPDEST POP PUSH1 0x40 MLOAD PUSH2 0x90AC CODESIZE SUB DUP1 PUSH2 0x90AC DUP4 CODECOPY DUP2 DUP2 ADD PUSH1 0x40 MSTORE DUP2 ADD SWAP1 PUSH2 0x9A SWAP2 SWAP1 PUSH2 0x151 JUMP JUMPDEST DUP1 PUSH1 0x1 PUSH1 0x0 PUSH2 0x100 EXP DUP2 SLOAD DUP2 PUSH20 0xFFFFFFFFFFFFFFFFFFFFFFFFFFFFFFFFFFFFFFFF MUL NOT AND SWAP1 DUP4 PUSH20 0xFFFFFFFFFFFFFFFFFFFFFFFFFFFFFFFFFFFFFFFF AND MUL OR SWAP1 SSTORE POP POP PUSH2 0x17E JUMP JUMPDEST PUSH2 0x7D9A DUP1 PUSH2 0x1312 DUP4 CODECOPY ADD SWAP1 JUMP JUMPDEST PUSH1 0x0 DUP1 REVERT JUMPDEST PUSH1 0x0 PUSH20 0xFFFFFFFFFFFFFFFFFFFFFFFFFFFFFFFFFFFFFFFF DUP3 AND SWAP1 POP SWAP2 SWAP1 POP JUMP JUMPDEST PUSH1 0x0 PUSH2 0x11E DUP3 PUSH2 0xF3 JUMP JUMPDEST SWAP1 POP SWAP2 SWAP1 POP JUMP JUMPDEST PUSH2 0x12E DUP2 PUSH2 0x113 JUMP JUMPDEST DUP2 EQ PUSH2 0x139 JUMPI PUSH1 0x0 DUP1 REVERT JUMPDEST POP JUMP JUMPDEST PUSH1 0x0 DUP2 MLOAD SWAP1 POP PUSH2 0x14B DUP2 PUSH2 0x125 JUMP JUMPDEST SWAP3 SWAP2 POP POP JUMP JUMPDEST PUSH1 0x0 PUSH1 0x20 DUP3 DUP5 SUB SLT ISZERO PUSH2 0x167 JUMPI PUSH2 0x166 PUSH2 0xEE JUMP JUMPDEST JUMPDEST PUSH1 0x0 PUSH2 0x175 DUP5 DUP3 DUP6 ADD PUSH2 0x13C JUMP JUMPDEST SWAP2 POP POP SWAP3 SWAP2 POP POP JUMP JUMPDEST PUSH2 0x1185 DUP1 PUSH2 0x18D PUSH1 0x0 CODECOPY PUSH1 0x0 RETURN INVALID PUSH1 0x80 PUSH1 0x40 MSTORE CALLVALUE DUP1 ISZERO PUSH2 0x10 JUMPI PUSH1 0x0 DUP1 REVERT JUMPDEST POP PUSH1 0x4 CALLDATASIZE LT PUSH2 0x62 JUMPI PUSH1 0x0 CALLDATALOAD PUSH1 0xE0 SHR DUP1 PUSH4 0x2B7AC3F3 EQ PUSH2 0x67 JUMPI DUP1 PUSH4 0x3013CE29 EQ PUSH2 0x85 JUMPI DUP1 PUSH4 0x4C674934 EQ PUSH2 0xA3 JUMPI DUP1 PUSH4 0x72236B82 EQ PUSH2 0xBF JUMPI DUP1 PUSH4 0xB12A2C54 EQ PUSH2 0xF0 JUMPI DUP1 PUSH4 0xE2BBB158 EQ PUSH2 0x120 JUMPI JUMPDEST PUSH1 0x0 DUP1 REVERT JUMPDEST PUSH2 0x6F PUSH2 0x13C JUMP JUMPDEST PUSH1 0x40 MLOAD PUSH2 0x7C SWAP2 SWAP1 PUSH2 0x7CC JUMP JUMPDEST PUSH1 0x40 MLOAD DUP1 SWAP2 SUB SWAP1 RETURN JUMPDEST PUSH2 0x8D PUSH2 0x160 JUMP JUMPDEST PUSH1 0x40 MLOAD PUSH2 0x9A SWAP2 SWAP1 PUSH2 0x808 JUMP JUMPDEST PUSH1 0x40 MLOAD DUP1 SWAP2 SUB SWAP1 RETURN JUMPDEST PUSH2 0xBD PUSH1 0x4 DUP1 CALLDATASIZE SUB DUP2 ADD SWAP1 PUSH2 0xB8 SWAP2 SWAP1 PUSH2 0x8F4 JUMP JUMPDEST PUSH2 0x186 JUMP JUMPDEST STOP JUMPDEST PUSH2 0xD9 PUSH1 0x4 DUP1 CALLDATASIZE SUB DUP2 ADD SWAP1 PUSH2 0xD4 SWAP2 SWAP1 PUSH2 0x97C JUMP JUMPDEST PUSH2 0x4DF JUMP JUMPDEST PUSH1 0x40 MLOAD PUSH2 0xE7 SWAP3 SWAP2 SWAP1 PUSH2 0x9B8 JUMP JUMPDEST PUSH1 0x40 MLOAD DUP1 SWAP2 SUB SWAP1 RETURN JUMPDEST PUSH2 0x10A PUSH1 0x4 DUP1 CALLDATASIZE SUB DUP2 ADD SWAP1 PUSH2 0x105 SWAP2 SWAP1 PUSH2 0xA37 JUMP JUMPDEST PUSH2 0x503 JUMP JUMPDEST PUSH1 0x40 MLOAD PUSH2 0x117 SWAP2 SWAP1 PUSH2 0xAD3 JUMP JUMPDEST PUSH1 0x40 MLOAD DUP1 SWAP2 SUB SWAP1 RETURN JUMPDEST PUSH2 0x13A PUSH1 0x4 DUP1 CALLDATASIZE SUB DUP2 ADD SWAP1 PUSH2 0x135 SWAP2 SWAP1 PUSH2 0xAEE JUMP JUMPDEST PUSH2 0x5B0 JUMP JUMPDEST STOP JUMPDEST PUSH1 0x0 DUP1 SLOAD SWAP1 PUSH2 0x100 EXP SWAP1 DIV PUSH20 0xFFFFFFFFFFFFFFFFFFFFFFFFFFFFFFFFFFFFFFFF AND DUP2 JUMP JUMPDEST PUSH1 0x1 PUSH1 0x0 SWAP1 SLOAD SWAP1 PUSH2 0x100 EXP SWAP1 DIV PUSH20 0xFFFFFFFFFFFFFFFFFFFFFFFFFFFFFFFFFFFFFFFF AND DUP2 JUMP JUMPDEST PUSH1 0x0 PUSH1 0x2 PUSH8 0xFFFFFFFFFFFFFFFF DUP2 GT ISZERO PUSH2 0x1A3 JUMPI PUSH2 0x1A2 PUSH2 0xB2E JUMP JUMPDEST JUMPDEST PUSH1 0x40 MLOAD SWAP1 DUP1 DUP3 MSTORE DUP1 PUSH1 0x20 MUL PUSH1 0x20 ADD DUP3 ADD PUSH1 0x40 MSTORE DUP1 ISZERO PUSH2 0x1D1 JUMPI DUP2 PUSH1 0x20 ADD PUSH1 0x20 DUP3 MUL DUP1 CALLDATASIZE DUP4 CALLDATACOPY DUP1 DUP3 ADD SWAP2 POP POP SWAP1 POP JUMPDEST POP SWAP1 POP DUP3 PUSH1 0x0 SHL DUP2 PUSH1 0x0 DUP2 MLOAD DUP2 LT PUSH2 0x1EC JUMPI PUSH2 0x1EB PUSH2 0xB5D JUMP JUMPDEST JUMPDEST PUSH1 0x20 MUL PUSH1 0x20 ADD ADD DUP2 DUP2 MSTORE POP POP DUP4 PUSH1 0x0 SHL DUP2 PUSH1 0x1 DUP2 MLOAD DUP2 LT PUSH2 0x210 JUMPI PUSH2 0x20F PUSH2 0xB5D JUMP JUMPDEST JUMPDEST PUSH1 0x20 MUL PUSH1 0x20 ADD ADD DUP2 DUP2 MSTORE POP POP PUSH1 0x0 DUP1 SLOAD SWAP1 PUSH2 0x100 EXP SWAP1 DIV PUSH20 0xFFFFFFFFFFFFFFFFFFFFFFFFFFFFFFFFFFFFFFFF AND PUSH20 0xFFFFFFFFFFFFFFFFFFFFFFFFFFFFFFFFFFFFFFFF AND PUSH4 0xEA50D0E4 DUP8 DUP8 DUP5 PUSH1 0x40 MLOAD DUP5 PUSH4 0xFFFFFFFF AND PUSH1 0xE0 SHL DUP2 MSTORE PUSH1 0x4 ADD PUSH2 0x279 SWAP4 SWAP3 SWAP2 SWAP1 PUSH2 0xCB2 JUMP JUMPDEST PUSH1 0x20 PUSH1 0x40 MLOAD DUP1 DUP4 SUB DUP2 DUP7 GAS STATICCALL ISZERO DUP1 ISZERO PUSH2 0x296 JUMPI RETURNDATASIZE PUSH1 0x0 DUP1 RETURNDATACOPY RETURNDATASIZE PUSH1 0x0 REVERT JUMPDEST POP POP POP POP PUSH1 0x40 MLOAD RETURNDATASIZE PUSH1 0x1F NOT PUSH1 0x1F DUP3 ADD AND DUP3 ADD DUP1 PUSH1 0x40 MSTORE POP DUP2 ADD SWAP1 PUSH2 0x2BA SWAP2 SWAP1 PUSH2 0xD17 JUMP JUMPDEST PUSH2 0x2F9 JUMPI PUSH1 0x40 MLOAD PUSH32 0x8C379A000000000000000000000000000000000000000000000000000000000 DUP2 MSTORE PUSH1 0x4 ADD PUSH2 0x2F0 SWAP1 PUSH2 0xDA1 JUMP JUMPDEST PUSH1 0x40 MLOAD DUP1 SWAP2 SUB SWAP1 REVERT JUMPDEST PUSH5 0xE8D4A51000 DUP5 PUSH2 0x30A SWAP2 SWAP1 PUSH2 0xDF0 JUMP JUMPDEST SWAP4 POP PUSH1 0x0 PUSH1 0x2 PUSH1 0x0 DUP5 PUSH20 0xFFFFFFFFFFFFFFFFFFFFFFFFFFFFFFFFFFFFFFFF AND PUSH20 0xFFFFFFFFFFFFFFFFFFFFFFFFFFFFFFFFFFFFFFFF AND DUP2 MSTORE PUSH1 0x20 ADD SWAP1 DUP2 MSTORE PUSH1 0x20 ADD PUSH1 0x0 KECCAK256 SWAP1 POP DUP5 DUP2 PUSH1 0x0 ADD SLOAD LT ISZERO PUSH2 0x396 JUMPI PUSH1 0x40 MLOAD PUSH32 0x8C379A000000000000000000000000000000000000000000000000000000000 DUP2 MSTORE PUSH1 0x4 ADD PUSH2 0x38D SWAP1 PUSH2 0xE7E JUMP JUMPDEST PUSH1 0x40 MLOAD DUP1 SWAP2 SUB SWAP1 REVERT JUMPDEST DUP4 DUP2 PUSH1 0x1 ADD SLOAD EQ PUSH2 0x3DC JUMPI PUSH1 0x40 MLOAD PUSH32 0x8C379A000000000000000000000000000000000000000000000000000000000 DUP2 MSTORE PUSH1 0x4 ADD PUSH2 0x3D3 SWAP1 PUSH2 0xEEA JUMP JUMPDEST PUSH1 0x40 MLOAD DUP1 SWAP2 SUB SWAP1 REVERT JUMPDEST DUP5 DUP2 PUSH1 0x0 ADD PUSH1 0x0 DUP3 DUP3 SLOAD PUSH2 0x3F0 SWAP2 SWAP1 PUSH2 0xF0A JUMP JUMPDEST SWAP3 POP POP DUP2 SWAP1 SSTORE POP PUSH1 0x1 PUSH1 0x0 SWAP1 SLOAD SWAP1 PUSH2 0x100 EXP SWAP1 DIV PUSH20 0xFFFFFFFFFFFFFFFFFFFFFFFFFFFFFFFFFFFFFFFF AND PUSH20 0xFFFFFFFFFFFFFFFFFFFFFFFFFFFFFFFFFFFFFFFF AND PUSH4 0xA9059CBB CALLER DUP8 PUSH1 0x40 MLOAD DUP4 PUSH4 0xFFFFFFFF AND PUSH1 0xE0 SHL DUP2 MSTORE PUSH1 0x4 ADD PUSH2 0x454 SWAP3 SWAP2 SWAP1 PUSH2 0xF3E JUMP JUMPDEST PUSH1 0x20 PUSH1 0x40 MLOAD DUP1 DUP4 SUB DUP2 PUSH1 0x0 DUP8 GAS CALL ISZERO DUP1 ISZERO PUSH2 0x473 JUMPI RETURNDATASIZE PUSH1 0x0 DUP1 RETURNDATACOPY RETURNDATASIZE PUSH1 0x0 REVERT JUMPDEST POP POP POP POP PUSH1 0x40 MLOAD RETURNDATASIZE PUSH1 0x1F NOT PUSH1 0x1F DUP3 ADD AND DUP3 ADD DUP1 PUSH1 0x40 MSTORE POP DUP2 ADD SWAP1 PUSH2 0x497 SWAP2 SWAP1 PUSH2 0xD17 JUMP JUMPDEST PUSH2 0x4D6 JUMPI PUSH1 0x40 MLOAD PUSH32 0x8C379A000000000000000000000000000000000000000000000000000000000 DUP2 MSTORE PUSH1 0x4 ADD PUSH2 0x4CD SWAP1 PUSH2 0xFB3 JUMP JUMPDEST PUSH1 0x40 MLOAD DUP1 SWAP2 SUB SWAP1 REVERT JUMPDEST POP POP POP POP POP POP POP JUMP JUMPDEST PUSH1 0x2 PUSH1 0x20 MSTORE DUP1 PUSH1 0x0 MSTORE PUSH1 0x40 PUSH1 0x0 KECCAK256 PUSH1 0x0 SWAP2 POP SWAP1 POP DUP1 PUSH1 0x0 ADD SLOAD SWAP1 DUP1 PUSH1 0x1 ADD SLOAD SWAP1 POP DUP3 JUMP JUMPDEST PUSH1 0x0 DUP1 PUSH1 0x0 SWAP1 SLOAD SWAP1 PUSH2 0x100 EXP SWAP1 DIV PUSH20 0xFFFFFFFFFFFFFFFFFFFFFFFFFFFFFFFFFFFFFFFF AND PUSH20 0xFFFFFFFFFFFFFFFFFFFFFFFFFFFFFFFFFFFFFFFF AND PUSH4 0xEA50D0E4 DUP7 DUP7 DUP7 DUP7 PUSH1 0x40 MLOAD DUP6 PUSH4 0xFFFFFFFF AND PUSH1 0xE0 SHL DUP2 MSTORE PUSH1 0x4 ADD PUSH2 0x565 SWAP5 SWAP4 SWAP3 SWAP2 SWAP1 PUSH2 0x103D JUMP JUMPDEST PUSH1 0x20 PUSH1 0x40 MLOAD DUP1 DUP4 SUB DUP2 DUP7 GAS STATICCALL ISZERO DUP1 ISZERO PUSH2 0x582 JUMPI RETURNDATASIZE PUSH1 0x0 DUP1 RETURNDATACOPY RETURNDATASIZE PUSH1 0x0 REVERT JUMPDEST POP POP POP POP PUSH1 0x40 MLOAD RETURNDATASIZE PUSH1 0x1F NOT PUSH1 0x1F DUP3 ADD AND DUP3 ADD DUP1 PUSH1 0x40 MSTORE POP DUP2 ADD SWAP1 PUSH2 0x5A6 SWAP2 SWAP1 PUSH2 0xD17 JUMP JUMPDEST SWAP1 POP SWAP5 SWAP4 POP POP POP POP JUMP JUMPDEST PUSH1 0x0 DUP3 GT PUSH2 0x5F3 JUMPI PUSH1 0x40 MLOAD PUSH32 0x8C379A000000000000000000000000000000000000000000000000000000000 DUP2 MSTORE PUSH1 0x4 ADD PUSH2 0x5EA SWAP1 PUSH2 0x10C4 JUMP JUMPDEST PUSH1 0x40 MLOAD DUP1 SWAP2 SUB SWAP1 REVERT JUMPDEST PUSH1 0x1 PUSH1 0x0 SWAP1 SLOAD SWAP1 PUSH2 0x100 EXP SWAP1 DIV PUSH20 0xFFFFFFFFFFFFFFFFFFFFFFFFFFFFFFFFFFFFFFFF AND PUSH20 0xFFFFFFFFFFFFFFFFFFFFFFFFFFFFFFFFFFFFFFFF AND PUSH4 0x23B872DD CALLER ADDRESS DUP6 PUSH1 0x40 MLOAD DUP5 PUSH4 0xFFFFFFFF AND PUSH1 0xE0 SHL DUP2 MSTORE PUSH1 0x4 ADD PUSH2 0x652 SWAP4 SWAP3 SWAP2 SWAP1 PUSH2 0x10E4 JUMP JUMPDEST PUSH1 0x20 PUSH1 0x40 MLOAD DUP1 DUP4 SUB DUP2 PUSH1 0x0 DUP8 GAS CALL ISZERO DUP1 ISZERO PUSH2 0x671 JUMPI RETURNDATASIZE PUSH1 0x0 DUP1 RETURNDATACOPY RETURNDATASIZE PUSH1 0x0 REVERT JUMPDEST POP POP POP POP PUSH1 0x40 MLOAD RETURNDATASIZE PUSH1 0x1F NOT PUSH1 0x1F DUP3 ADD AND DUP3 ADD DUP1 PUSH1 0x40 MSTORE POP DUP2 ADD SWAP1 PUSH2 0x695 SWAP2 SWAP1 PUSH2 0xD17 JUMP JUMPDEST PUSH2 0x6D4 JUMPI PUSH1 0x40 MLOAD PUSH32 0x8C379A000000000000000000000000000000000000000000000000000000000 DUP2 MSTORE PUSH1 0x4 ADD PUSH2 0x6CB SWAP1 PUSH2 0xFB3 JUMP JUMPDEST PUSH1 0x40 MLOAD DUP1 SWAP2 SUB SWAP1 REVERT JUMPDEST PUSH1 0x0 PUSH1 0x2 PUSH1 0x0 CALLER PUSH20 0xFFFFFFFFFFFFFFFFFFFFFFFFFFFFFFFFFFFFFFFF AND PUSH20 0xFFFFFFFFFFFFFFFFFFFFFFFFFFFFFFFFFFFFFFFF AND DUP2 MSTORE PUSH1 0x20 ADD SWAP1 DUP2 MSTORE PUSH1 0x20 ADD PUSH1 0x0 KECCAK256 SWAP1 POP PUSH1 0x0 DUP2 PUSH1 0x1 ADD SLOAD SUB PUSH2 0x72D JUMPI DUP2 DUP2 PUSH1 0x1 ADD DUP2 SWAP1 SSTORE POP JUMPDEST DUP3 DUP2 PUSH1 0x0 ADD PUSH1 0x0 DUP3 DUP3 SLOAD PUSH2 0x741 SWAP2 SWAP1 PUSH2 0x111B JUMP JUMPDEST SWAP3 POP POP DUP2 SWAP1 SSTORE POP POP POP POP JUMP JUMPDEST PUSH1 0x0 PUSH20 0xFFFFFFFFFFFFFFFFFFFFFFFFFFFFFFFFFFFFFFFF DUP3 AND SWAP1 POP SWAP2 SWAP1 POP JUMP JUMPDEST PUSH1 0x0 DUP2 SWAP1 POP SWAP2 SWAP1 POP JUMP JUMPDEST PUSH1 0x0 PUSH2 0x792 PUSH2 0x78D PUSH2 0x788 DUP5 PUSH2 0x74D JUMP JUMPDEST PUSH2 0x76D JUMP JUMPDEST PUSH2 0x74D JUMP JUMPDEST SWAP1 POP SWAP2 SWAP1 POP JUMP JUMPDEST PUSH1 0x0 PUSH2 0x7A4 DUP3 PUSH2 0x777 JUMP JUMPDEST SWAP1 POP SWAP2 SWAP1 POP JUMP JUMPDEST PUSH1 0x0 PUSH2 0x7B6 DUP3 PUSH2 0x799 JUMP JUMPDEST SWAP1 POP SWAP2 SWAP1 POP JUMP JUMPDEST PUSH2 0x7C6 DUP2 PUSH2 0x7AB JUMP JUMPDEST DUP3 MSTORE POP POP JUMP JUMPDEST PUSH1 0x0 PUSH1 0x20 DUP3 ADD SWAP1 POP PUSH2 0x7E1 PUSH1 0x0 DUP4 ADD DUP5 PUSH2 0x7BD JUMP JUMPDEST SWAP3 SWAP2 POP POP JUMP JUMPDEST PUSH1 0x0 PUSH2 0x7F2 DUP3 PUSH2 0x74D JUMP JUMPDEST SWAP1 POP SWAP2 SWAP1 POP JUMP JUMPDEST PUSH2 0x802 DUP2 PUSH2 0x7E7 JUMP JUMPDEST DUP3 MSTORE POP POP JUMP JUMPDEST PUSH1 0x0 PUSH1 0x20 DUP3 ADD SWAP1 POP PUSH2 0x81D PUSH1 0x0 DUP4 ADD DUP5 PUSH2 0x7F9 JUMP JUMPDEST SWAP3 SWAP2 POP POP JUMP JUMPDEST PUSH1 0x0 DUP1 REVERT JUMPDEST PUSH1 0x0 DUP1 REVERT JUMPDEST PUSH1 0x0 DUP1 REVERT JUMPDEST PUSH1 0x0 DUP1 REVERT JUMPDEST PUSH1 0x0 DUP1 REVERT JUMPDEST PUSH1 0x0 DUP1 DUP4 PUSH1 0x1F DUP5 ADD SLT PUSH2 0x852 JUMPI PUSH2 0x851 PUSH2 0x82D JUMP JUMPDEST JUMPDEST DUP3 CALLDATALOAD SWAP1 POP PUSH8 0xFFFFFFFFFFFFFFFF DUP2 GT ISZERO PUSH2 0x86F JUMPI PUSH2 0x86E PUSH2 0x832 JUMP JUMPDEST JUMPDEST PUSH1 0x20 DUP4 ADD SWAP2 POP DUP4 PUSH1 0x1 DUP3 MUL DUP4 ADD GT ISZERO PUSH2 0x88B JUMPI PUSH2 0x88A PUSH2 0x837 JUMP JUMPDEST JUMPDEST SWAP3 POP SWAP3 SWAP1 POP JUMP JUMPDEST PUSH1 0x0 DUP2 SWAP1 POP SWAP2 SWAP1 POP JUMP JUMPDEST PUSH2 0x8A5 DUP2 PUSH2 0x892 JUMP JUMPDEST DUP2 EQ PUSH2 0x8B0 JUMPI PUSH1 0x0 DUP1 REVERT JUMPDEST POP JUMP JUMPDEST PUSH1 0x0 DUP2 CALLDATALOAD SWAP1 POP PUSH2 0x8C2 DUP2 PUSH2 0x89C JUMP JUMPDEST SWAP3 SWAP2 POP POP JUMP JUMPDEST PUSH2 0x8D1 DUP2 PUSH2 0x7E7 JUMP JUMPDEST DUP2 EQ PUSH2 0x8DC JUMPI PUSH1 0x0 DUP1 REVERT JUMPDEST POP JUMP JUMPDEST PUSH1 0x0 DUP2 CALLDATALOAD SWAP1 POP PUSH2 0x8EE DUP2 PUSH2 0x8C8 JUMP JUMPDEST SWAP3 SWAP2 POP POP JUMP JUMPDEST PUSH1 0x0 DUP1 PUSH1 0x0 DUP1 PUSH1 0x0 PUSH1 0x80 DUP7 DUP9 SUB SLT ISZERO PUSH2 0x910 JUMPI PUSH2 0x90F PUSH2 0x823 JUMP JUMPDEST JUMPDEST PUSH1 0x0 DUP7 ADD CALLDATALOAD PUSH8 0xFFFFFFFFFFFFFFFF DUP2 GT ISZERO PUSH2 0x92E JUMPI PUSH2 0x92D PUSH2 0x828 JUMP JUMPDEST JUMPDEST PUSH2 0x93A DUP9 DUP3 DUP10 ADD PUSH2 0x83C JUMP JUMPDEST SWAP6 POP SWAP6 POP POP PUSH1 0x20 PUSH2 0x94D DUP9 DUP3 DUP10 ADD PUSH2 0x8B3 JUMP JUMPDEST SWAP4 POP POP PUSH1 0x40 PUSH2 0x95E DUP9 DUP3 DUP10 ADD PUSH2 0x8B3 JUMP JUMPDEST SWAP3 POP POP PUSH1 0x60 PUSH2 0x96F DUP9 DUP3 DUP10 ADD PUSH2 0x8DF JUMP JUMPDEST SWAP2 POP POP SWAP3 SWAP6 POP SWAP3 SWAP6 SWAP1 SWAP4 POP JUMP JUMPDEST PUSH1 0x0 PUSH1 0x20 DUP3 DUP5 SUB SLT ISZERO PUSH2 0x992 JUMPI PUSH2 0x991 PUSH2 0x823 JUMP JUMPDEST JUMPDEST PUSH1 0x0 PUSH2 0x9A0 DUP5 DUP3 DUP6 ADD PUSH2 0x8DF JUMP JUMPDEST SWAP2 POP POP SWAP3 SWAP2 POP POP JUMP JUMPDEST PUSH2 0x9B2 DUP2 PUSH2 0x892 JUMP JUMPDEST DUP3 MSTORE POP POP JUMP JUMPDEST PUSH1 0x0 PUSH1 0x40 DUP3 ADD SWAP1 POP PUSH2 0x9CD PUSH1 0x0 DUP4 ADD DUP6 PUSH2 0x9A9 JUMP JUMPDEST PUSH2 0x9DA PUSH1 0x20 DUP4 ADD DUP5 PUSH2 0x9A9 JUMP JUMPDEST SWAP4 SWAP3 POP POP POP JUMP JUMPDEST PUSH1 0x0 DUP1 DUP4 PUSH1 0x1F DUP5 ADD SLT PUSH2 0x9F7 JUMPI PUSH2 0x9F6 PUSH2 0x82D JUMP JUMPDEST JUMPDEST DUP3 CALLDATALOAD SWAP1 POP PUSH8 0xFFFFFFFFFFFFFFFF DUP2 GT ISZERO PUSH2 0xA14 JUMPI PUSH2 0xA13 PUSH2 0x832 JUMP JUMPDEST JUMPDEST PUSH1 0x20 DUP4 ADD SWAP2 POP DUP4 PUSH1 0x20 DUP3 MUL DUP4 ADD GT ISZERO PUSH2 0xA30 JUMPI PUSH2 0xA2F PUSH2 0x837 JUMP JUMPDEST JUMPDEST SWAP3 POP SWAP3 SWAP1 POP JUMP JUMPDEST PUSH1 0x0 DUP1 PUSH1 0x0 DUP1 PUSH1 0x40 DUP6 DUP8 SUB SLT ISZERO PUSH2 0xA51 JUMPI PUSH2 0xA50 PUSH2 0x823 JUMP JUMPDEST JUMPDEST PUSH1 0x0 DUP6 ADD CALLDATALOAD PUSH8 0xFFFFFFFFFFFFFFFF DUP2 GT ISZERO PUSH2 0xA6F JUMPI PUSH2 0xA6E PUSH2 0x828 JUMP JUMPDEST JUMPDEST PUSH2 0xA7B DUP8 DUP3 DUP9 ADD PUSH2 0x83C JUMP JUMPDEST SWAP5 POP SWAP5 POP POP PUSH1 0x20 DUP6 ADD CALLDATALOAD PUSH8 0xFFFFFFFFFFFFFFFF DUP2 GT ISZERO PUSH2 0xA9E JUMPI PUSH2 0xA9D PUSH2 0x828 JUMP JUMPDEST JUMPDEST PUSH2 0xAAA DUP8 DUP3 DUP9 ADD PUSH2 0x9E1 JUMP JUMPDEST SWAP3 POP SWAP3 POP POP SWAP3 SWAP6 SWAP2 SWAP5 POP SWAP3 POP JUMP JUMPDEST PUSH1 0x0 DUP2 ISZERO ISZERO SWAP1 POP SWAP2 SWAP1 POP JUMP JUMPDEST PUSH2 0xACD DUP2 PUSH2 0xAB8 JUMP JUMPDEST DUP3 MSTORE POP POP JUMP JUMPDEST PUSH1 0x0 PUSH1 0x20 DUP3 ADD SWAP1 POP PUSH2 0xAE8 PUSH1 0x0 DUP4 ADD DUP5 PUSH2 0xAC4 JUMP JUMPDEST SWAP3 SWAP2 POP POP JUMP JUMPDEST PUSH1 0x0 DUP1 PUSH1 0x40 DUP4 DUP6 SUB SLT ISZERO PUSH2 0xB05 JUMPI PUSH2 0xB04 PUSH2 0x823 JUMP JUMPDEST JUMPDEST PUSH1 0x0 PUSH2 0xB13 DUP6 DUP3 DUP7 ADD PUSH2 0x8B3 JUMP JUMPDEST SWAP3 POP POP PUSH1 0x20 PUSH2 0xB24 DUP6 DUP3 DUP7 ADD PUSH2 0x8B3 JUMP JUMPDEST SWAP2 POP POP SWAP3 POP SWAP3 SWAP1 POP JUMP JUMPDEST PUSH32 0x4E487B7100000000000000000000000000000000000000000000000000000000 PUSH1 0x0 MSTORE PUSH1 0x41 PUSH1 0x4 MSTORE PUSH1 0x24 PUSH1 0x0 REVERT JUMPDEST PUSH32 0x4E487B7100000000000000000000000000000000000000000000000000000000 PUSH1 0x0 MSTORE PUSH1 0x32 PUSH1 0x4 MSTORE PUSH1 0x24 PUSH1 0x0 REVERT JUMPDEST PUSH1 0x0 DUP3 DUP3 MSTORE PUSH1 0x20 DUP3 ADD SWAP1 POP SWAP3 SWAP2 POP POP JUMP JUMPDEST DUP3 DUP2 DUP4 CALLDATACOPY PUSH1 0x0 DUP4 DUP4 ADD MSTORE POP POP POP JUMP JUMPDEST PUSH1 0x0 PUSH1 0x1F NOT PUSH1 0x1F DUP4 ADD AND SWAP1 POP SWAP2 SWAP1 POP JUMP JUMPDEST PUSH1 0x0 PUSH2 0xBC9 DUP4 DUP6 PUSH2 0xB8C JUMP JUMPDEST SWAP4 POP PUSH2 0xBD6 DUP4 DUP6 DUP5 PUSH2 0xB9D JUMP JUMPDEST PUSH2 0xBDF DUP4 PUSH2 0xBAC JUMP JUMPDEST DUP5 ADD SWAP1 POP SWAP4 SWAP3 POP POP POP JUMP JUMPDEST PUSH1 0x0 DUP2 MLOAD SWAP1 POP SWAP2 SWAP1 POP JUMP JUMPDEST PUSH1 0x0 DUP3 DUP3 MSTORE PUSH1 0x20 DUP3 ADD SWAP1 POP SWAP3 SWAP2 POP POP JUMP JUMPDEST PUSH1 0x0 DUP2 SWAP1 POP PUSH1 0x20 DUP3 ADD SWAP1 POP SWAP2 SWAP1 POP JUMP JUMPDEST PUSH1 0x0 DUP2 SWAP1 POP SWAP2 SWAP1 POP JUMP JUMPDEST PUSH2 0xC29 DUP2 PUSH2 0xC16 JUMP JUMPDEST DUP3 MSTORE POP POP JUMP JUMPDEST PUSH1 0x0 PUSH2 0xC3B DUP4 DUP4 PUSH2 0xC20 JUMP JUMPDEST PUSH1 0x20 DUP4 ADD SWAP1 POP SWAP3 SWAP2 POP POP JUMP JUMPDEST PUSH1 0x0 PUSH1 0x20 DUP3 ADD SWAP1 POP SWAP2 SWAP1 POP JUMP JUMPDEST PUSH1 0x0 PUSH2 0xC5F DUP3 PUSH2 0xBEA JUMP JUMPDEST PUSH2 0xC69 DUP2 DUP6 PUSH2 0xBF5 JUMP JUMPDEST SWAP4 POP PUSH2 0xC74 DUP4 PUSH2 0xC06 JUMP JUMPDEST DUP1 PUSH1 0x0 JUMPDEST DUP4 DUP2 LT ISZERO PUSH2 0xCA5 JUMPI DUP2 MLOAD PUSH2 0xC8C DUP9 DUP3 PUSH2 0xC2F JUMP JUMPDEST SWAP8 POP PUSH2 0xC97 DUP4 PUSH2 0xC47 JUMP JUMPDEST SWAP3 POP POP PUSH1 0x1 DUP2 ADD SWAP1 POP PUSH2 0xC78 JUMP JUMPDEST POP DUP6 SWAP4 POP POP POP POP SWAP3 SWAP2 POP POP JUMP JUMPDEST PUSH1 0x0 PUSH1 0x40 DUP3 ADD SWAP1 POP DUP2 DUP2 SUB PUSH1 0x0 DUP4 ADD MSTORE PUSH2 0xCCD DUP2 DUP6 DUP8 PUSH2 0xBBD JUMP JUMPDEST SWAP1 POP DUP2 DUP2 SUB PUSH1 0x20 DUP4 ADD MSTORE PUSH2 0xCE1 DUP2 DUP5 PUSH2 0xC54 JUMP JUMPDEST SWAP1 POP SWAP5 SWAP4 POP POP POP POP JUMP JUMPDEST PUSH2 0xCF4 DUP2 PUSH2 0xAB8 JUMP JUMPDEST DUP2 EQ PUSH2 0xCFF JUMPI PUSH1 0x0 DUP1 REVERT JUMPDEST POP JUMP JUMPDEST PUSH1 0x0 DUP2 MLOAD SWAP1 POP PUSH2 0xD11 DUP2 PUSH2 0xCEB JUMP JUMPDEST SWAP3 SWAP2 POP POP JUMP JUMPDEST PUSH1 0x0 PUSH1 0x20 DUP3 DUP5 SUB SLT ISZERO PUSH2 0xD2D JUMPI PUSH2 0xD2C PUSH2 0x823 JUMP JUMPDEST JUMPDEST PUSH1 0x0 PUSH2 0xD3B DUP5 DUP3 DUP6 ADD PUSH2 0xD02 JUMP JUMPDEST SWAP2 POP POP SWAP3 SWAP2 POP POP JUMP JUMPDEST PUSH1 0x0 DUP3 DUP3 MSTORE PUSH1 0x20 DUP3 ADD SWAP1 POP SWAP3 SWAP2 POP POP JUMP JUMPDEST PUSH32 0x496E76616C69642070726F6F6600000000000000000000000000000000000000 PUSH1 0x0 DUP3 ADD MSTORE POP JUMP JUMPDEST PUSH1 0x0 PUSH2 0xD8B PUSH1 0xD DUP4 PUSH2 0xD44 JUMP JUMPDEST SWAP2 POP PUSH2 0xD96 DUP3 PUSH2 0xD55 JUMP JUMPDEST PUSH1 0x20 DUP3 ADD SWAP1 POP SWAP2 SWAP1 POP JUMP JUMPDEST PUSH1 0x0 PUSH1 0x20 DUP3 ADD SWAP1 POP DUP2 DUP2 SUB PUSH1 0x0 DUP4 ADD MSTORE PUSH2 0xDBA DUP2 PUSH2 0xD7E JUMP JUMPDEST SWAP1 POP SWAP2 SWAP1 POP JUMP JUMPDEST PUSH32 0x4E487B7100000000000000000000000000000000000000000000000000000000 PUSH1 0x0 MSTORE PUSH1 0x11 PUSH1 0x4 MSTORE PUSH1 0x24 PUSH1 0x0 REVERT JUMPDEST PUSH1 0x0 PUSH2 0xDFB DUP3 PUSH2 0x892 JUMP JUMPDEST SWAP2 POP PUSH2 0xE06 DUP4 PUSH2 0x892 JUMP JUMPDEST SWAP3 POP DUP3 DUP3 MUL PUSH2 0xE14 DUP2 PUSH2 0x892 JUMP JUMPDEST SWAP2 POP DUP3 DUP3 DIV DUP5 EQ DUP4 ISZERO OR PUSH2 0xE2B JUMPI PUSH2 0xE2A PUSH2 0xDC1 JUMP JUMPDEST JUMPDEST POP SWAP3 SWAP2 POP POP JUMP JUMPDEST PUSH32 0x496E73756666696369656E742062616C616E6365000000000000000000000000 PUSH1 0x0 DUP3 ADD MSTORE POP JUMP JUMPDEST PUSH1 0x0 PUSH2 0xE68 PUSH1 0x14 DUP4 PUSH2 0xD44 JUMP JUMPDEST SWAP2 POP PUSH2 0xE73 DUP3 PUSH2 0xE32 JUMP JUMPDEST PUSH1 0x20 DUP3 ADD SWAP1 POP SWAP2 SWAP1 POP JUMP JUMPDEST PUSH1 0x0 PUSH1 0x20 DUP3 ADD SWAP1 POP DUP2 DUP2 SUB PUSH1 0x0 DUP4 ADD MSTORE PUSH2 0xE97 DUP2 PUSH2 0xE5B JUMP JUMPDEST SWAP1 POP SWAP2 SWAP1 POP JUMP JUMPDEST PUSH32 0x496E76616C696420726563697069656E7420636F6D6D69746D656E7400000000 PUSH1 0x0 DUP3 ADD MSTORE POP JUMP JUMPDEST PUSH1 0x0 PUSH2 0xED4 PUSH1 0x1C DUP4 PUSH2 0xD44 JUMP JUMPDEST SWAP2 POP PUSH2 0xEDF DUP3 PUSH2 0xE9E JUMP JUMPDEST PUSH1 0x20 DUP3 ADD SWAP1 POP SWAP2 SWAP1 POP JUMP JUMPDEST PUSH1 0x0 PUSH1 0x20 DUP3 ADD SWAP1 POP DUP2 DUP2 SUB PUSH1 0x0 DUP4 ADD MSTORE PUSH2 0xF03 DUP2 PUSH2 0xEC7 JUMP JUMPDEST SWAP1 POP SWAP2 SWAP1 POP JUMP JUMPDEST PUSH1 0x0 PUSH2 0xF15 DUP3 PUSH2 0x892 JUMP JUMPDEST SWAP2 POP PUSH2 0xF20 DUP4 PUSH2 0x892 JUMP JUMPDEST SWAP3 POP DUP3 DUP3 SUB SWAP1 POP DUP2 DUP2 GT ISZERO PUSH2 0xF38 JUMPI PUSH2 0xF37 PUSH2 0xDC1 JUMP JUMPDEST JUMPDEST SWAP3 SWAP2 POP POP JUMP JUMPDEST PUSH1 0x0 PUSH1 0x40 DUP3 ADD SWAP1 POP PUSH2 0xF53 PUSH1 0x0 DUP4 ADD DUP6 PUSH2 0x7F9 JUMP JUMPDEST PUSH2 0xF60 PUSH1 0x20 DUP4 ADD DUP5 PUSH2 0x9A9 JUMP JUMPDEST SWAP4 SWAP3 POP POP POP JUMP JUMPDEST PUSH32 0x546F6B656E207472616E73666572206661696C65640000000000000000000000 PUSH1 0x0 DUP3 ADD MSTORE POP JUMP JUMPDEST PUSH1 0x0 PUSH2 0xF9D PUSH1 0x15 DUP4 PUSH2 0xD44 JUMP JUMPDEST SWAP2 POP PUSH2 0xFA8 DUP3 PUSH2 0xF67 JUMP JUMPDEST PUSH1 0x20 DUP3 ADD SWAP1 POP SWAP2 SWAP1 POP JUMP JUMPDEST PUSH1 0x0 PUSH1 0x20 DUP3 ADD SWAP1 POP DUP2 DUP2 SUB PUSH1 0x0 DUP4 ADD MSTORE PUSH2 0xFCC DUP2 PUSH2 0xF90 JUMP JUMPDEST SWAP1 POP SWAP2 SWAP1 POP JUMP JUMPDEST PUSH1 0x0 DUP1 REVERT JUMPDEST DUP3 DUP2 DUP4 CALLDATACOPY POP POP POP JUMP JUMPDEST PUSH1 0x0 PUSH2 0xFED DUP4 DUP6 PUSH2 0xBF5 JUMP JUMPDEST SWAP4 POP PUSH32 0x7FFFFFFFFFFFFFFFFFFFFFFFFFFFFFFFFFFFFFFFFFFFFFFFFFFFFFFFFFFFFFF DUP4 GT ISZERO PUSH2 0x1020 JUMPI PUSH2 0x101F PUSH2 0xFD3 JUMP JUMPDEST JUMPDEST PUSH1 0x20 DUP4 MUL SWAP3 POP PUSH2 0x1031 DUP4 DUP6 DUP5 PUSH2 0xFD8 JUMP JUMPDEST DUP3 DUP5 ADD SWAP1 POP SWAP4 SWAP3 POP POP POP JUMP JUMPDEST PUSH1 0x0 PUSH1 0x40 DUP3 ADD SWAP1 POP DUP2 DUP2 SUB PUSH1 0x0 DUP4 ADD MSTORE PUSH2 0x1058 DUP2 DUP7 DUP9 PUSH2 0xBBD JUMP JUMPDEST SWAP1 POP DUP2 DUP2 SUB PUSH1 0x20 DUP4 ADD MSTORE PUSH2 0x106D DUP2 DUP5 DUP7 PUSH2 0xFE1 JUMP JUMPDEST SWAP1 POP SWAP6 SWAP5 POP POP POP POP POP JUMP JUMPDEST PUSH32 0x416D6F756E74206D7573742062652067726561746572207468616E207A65726F PUSH1 0x0 DUP3 ADD MSTORE POP JUMP JUMPDEST PUSH1 0x0 PUSH2 0x10AE PUSH1 0x20 DUP4 PUSH2 0xD44 JUMP JUMPDEST SWAP2 POP PUSH2 0x10B9 DUP3 PUSH2 0x1078 JUMP JUMPDEST PUSH1 0x20 DUP3 ADD SWAP1 POP SWAP2 SWAP1 POP JUMP JUMPDEST PUSH1 0x0 PUSH1 0x20 DUP3 ADD SWAP1 POP DUP2 DUP2 SUB PUSH1 0x0 DUP4 ADD MSTORE PUSH2 0x10DD DUP2 PUSH2 0x10A1 JUMP JUMPDEST SWAP1 POP SWAP2 SWAP1 POP JUMP JUMPDEST PUSH1 0x0 PUSH1 0x60 DUP3 ADD SWAP1 POP PUSH2 0x10F9 PUSH1 0x0 DUP4 ADD DUP7 PUSH2 0x7F9 JUMP JUMPDEST PUSH2 0x1106 PUSH1 0x20 DUP4 ADD DUP6 PUSH2 0x7F9 JUMP JUMPDEST PUSH2 0x1113 PUSH1 0x40 DUP4 ADD DUP5 PUSH2 0x9A9 JUMP JUMPDEST SWAP5 SWAP4 POP POP POP POP JUMP JUMPDEST PUSH1 0x0 PUSH2 0x1126 DUP3 PUSH2 0x892 JUMP JUMPDEST SWAP2 POP PUSH2 0x1131 DUP4 PUSH2 0x892 JUMP JUMPDEST SWAP3 POP DUP3 DUP3 ADD SWAP1 POP DUP1 DUP3 GT ISZERO PUSH2 0x1149 JUMPI PUSH2 0x1148 PUSH2 0xDC1 JUMP JUMPDEST JUMPDEST SWAP3 SWAP2 POP POP JUMP INVALID LOG2 PUSH5 0x6970667358 0x22 SLT KECCAK256 0x2B 0x2D LOG0 EQ PUSH12 0x8CCD3602A36B7E85EE292F5B 0xDF DUP3 LOG0 0xC0 0xCB 0x2E DUP7 MSTORE8 SUB 0xA6 0xC6 0xC7 RETURNDATACOPY PUSH29 0xD064736F6C634300081C00336080604052348015600F57600080FD5B50 PUSH2 0x7D7B DUP1 PUSH2 0x1F PUSH1 0x0 CODECOPY PUSH1 0x0 RETURN INVALID PUSH1 0x80 PUSH1 0x40 MSTORE CALLVALUE DUP1 ISZERO PUSH2 0x10 JUMPI PUSH1 0x0 DUP1 REVERT JUMPDEST POP PUSH1 0x4 CALLDATASIZE LT PUSH2 0x2B JUMPI PUSH1 0x0 CALLDATALOAD PUSH1 0xE0 SHR DUP1 PUSH4 0xEA50D0E4 EQ PUSH2 0x30 JUMPI JUMPDEST PUSH1 0x0 DUP1 REVERT JUMPDEST PUSH2 0x4A PUSH1 0x4 DUP1 CALLDATASIZE SUB DUP2 ADD SWAP1 PUSH2 0x45 SWAP2 SWAP1 PUSH2 0x71C6 JUMP JUMPDEST PUSH2 0x60 JUMP JUMPDEST PUSH1 0x40 MLOAD PUSH2 0x57 SWAP2 SWAP1 PUSH2 0x7262 JUMP JUMPDEST PUSH1 0x40 MLOAD DUP1 SWAP2 SUB SWAP1 RETURN JUMPDEST PUSH1 0x0 DUP1 PUSH2 0x6B PUSH2 0x1DB JUMP JUMPDEST SWAP1 POP PUSH1 0x0 PUSH2 0x79 DUP8 DUP8 PUSH2 0x1F0 JUMP JUMPDEST SWAP1 POP DUP2 PUSH1 0x40 ADD MLOAD DUP6 DUP6 SWAP1 POP EQ PUSH2 0xBB JUMPI PUSH1 0x40 MLOAD PUSH32 0xFA06659300000000000000000000000000000000000000000000000000000000 DUP2 MSTORE PUSH1 0x4 ADD PUSH1 0x40 MLOAD DUP1 SWAP2 SUB SWAP1 REVERT JUMPDEST PUSH1 0x0 PUSH2 0xCD DUP3 DUP8 DUP8 DUP7 PUSH1 0x40 ADD MLOAD PUSH2 0xE1D JUMP JUMPDEST SWAP1 POP PUSH2 0x12D DUP7 DUP7 DUP1 DUP1 PUSH1 0x20 MUL PUSH1 0x20 ADD PUSH1 0x40 MLOAD SWAP1 DUP2 ADD PUSH1 0x40 MSTORE DUP1 SWAP4 SWAP3 SWAP2 SWAP1 DUP2 DUP2 MSTORE PUSH1 0x20 ADD DUP4 DUP4 PUSH1 0x20 MUL DUP1 DUP3 DUP5 CALLDATACOPY PUSH1 0x0 DUP2 DUP5 ADD MSTORE PUSH1 0x1F NOT PUSH1 0x1F DUP3 ADD AND SWAP1 POP DUP1 DUP4 ADD SWAP3 POP POP POP POP POP POP POP DUP3 PUSH1 0x60 ADD MLOAD DUP4 PUSH1 0x80 ADD MLOAD DUP7 PUSH1 0x0 ADD MLOAD DUP7 PUSH1 0x40 ADD MLOAD PUSH2 0xF1C JUMP JUMPDEST DUP2 PUSH2 0x180 ADD DUP2 DUP2 MSTORE POP POP PUSH1 0x0 PUSH2 0x143 DUP4 DUP4 PUSH2 0x101B JUMP JUMPDEST SWAP1 POP DUP1 PUSH2 0x17C JUMPI PUSH1 0x40 MLOAD PUSH32 0x9FC3A21800000000000000000000000000000000000000000000000000000000 DUP2 MSTORE PUSH1 0x4 ADD PUSH1 0x40 MLOAD DUP1 SWAP2 SUB SWAP1 REVERT JUMPDEST PUSH1 0x0 PUSH2 0x189 DUP5 DUP7 DUP6 PUSH2 0x1103 JUMP JUMPDEST SWAP1 POP DUP1 PUSH2 0x1C2 JUMPI PUSH1 0x40 MLOAD PUSH32 0xA5D82E8A00000000000000000000000000000000000000000000000000000000 DUP2 MSTORE PUSH1 0x4 ADD PUSH1 0x40 MLOAD DUP1 SWAP2 SUB SWAP1 REVERT JUMPDEST DUP2 DUP1 ISZERO PUSH2 0x1CC JUMPI POP DUP1 JUMPDEST SWAP6 POP POP POP POP POP POP SWAP5 SWAP4 POP POP POP POP JUMP JUMPDEST PUSH2 0x1E3 PUSH2 0x6988 JUMP JUMPDEST PUSH2 0x1EB PUSH2 0x1D7A JUMP JUMPDEST SWAP1 POP SWAP1 JUMP JUMPDEST PUSH2 0x1F8 PUSH2 0x6B09 JUMP JUMPDEST PUSH2 0x200 PUSH2 0x6B09 JUMP JUMPDEST DUP4 DUP4 PUSH1 0x0 SWAP1 PUSH1 0x20 SWAP3 PUSH2 0x214 SWAP4 SWAP3 SWAP2 SWAP1 PUSH2 0x7287 JUMP JUMPDEST SWAP1 PUSH2 0x21F SWAP2 SWAP1 PUSH2 0x72E4 JUMP JUMPDEST PUSH1 0x0 SHR DUP2 PUSH1 0x0 ADD DUP2 DUP2 MSTORE POP POP DUP4 DUP4 PUSH1 0x20 SWAP1 PUSH1 0x40 SWAP3 PUSH2 0x23F SWAP4 SWAP3 SWAP2 SWAP1 PUSH2 0x7287 JUMP JUMPDEST SWAP1 PUSH2 0x24A SWAP2 SWAP1 PUSH2 0x72E4 JUMP JUMPDEST PUSH1 0x0 SHR DUP2 PUSH1 0x20 ADD DUP2 DUP2 MSTORE POP POP DUP4 DUP4 PUSH1 0x40 SWAP1 PUSH1 0x60 SWAP3 PUSH2 0x26A SWAP4 SWAP3 SWAP2 SWAP1 PUSH2 0x7287 JUMP JUMPDEST SWAP1 PUSH2 0x275 SWAP2 SWAP1 PUSH2 0x72E4 JUMP JUMPDEST PUSH1 0x0 SHR DUP2 PUSH1 0x40 ADD DUP2 DUP2 MSTORE POP POP PUSH1 0x40 MLOAD DUP1 PUSH1 0x80 ADD PUSH1 0x40 MSTORE DUP1 DUP6 DUP6 PUSH1 0x60 SWAP1 PUSH1 0x80 SWAP3 PUSH2 0x2A0 SWAP4 SWAP3 SWAP2 SWAP1 PUSH2 0x7287 JUMP JUMPDEST SWAP1 PUSH2 0x2AB SWAP2 SWAP1 PUSH2 0x72E4 JUMP JUMPDEST PUSH1 0x0 SHR DUP2 MSTORE PUSH1 0x20 ADD DUP6 DUP6 PUSH1 0x80 SWAP1 PUSH1 0xA0 SWAP3 PUSH2 0x2C7 SWAP4 SWAP3 SWAP2 SWAP1 PUSH2 0x7287 JUMP JUMPDEST SWAP1 PUSH2 0x2D2 SWAP2 SWAP1 PUSH2 0x72E4 JUMP JUMPDEST PUSH1 0x0 SHR DUP2 MSTORE PUSH1 0x20 ADD DUP6 DUP6 PUSH1 0xA0 SWAP1 PUSH1 0xC0 SWAP3 PUSH2 0x2EE SWAP4 SWAP3 SWAP2 SWAP1 PUSH2 0x7287 JUMP JUMPDEST SWAP1 PUSH2 0x2F9 SWAP2 SWAP1 PUSH2 0x72E4 JUMP JUMPDEST PUSH1 0x0 SHR DUP2 MSTORE PUSH1 0x20 ADD DUP6 DUP6 PUSH1 0xC0 SWAP1 PUSH1 0xE0 SWAP3 PUSH2 0x315 SWAP4 SWAP3 SWAP2 SWAP1 PUSH2 0x7287 JUMP JUMPDEST SWAP1 PUSH2 0x320 SWAP2 SWAP1 PUSH2 0x72E4 JUMP JUMPDEST PUSH1 0x0 SHR DUP2 MSTORE POP DUP2 PUSH1 0x60 ADD DUP2 SWAP1 MSTORE POP PUSH1 0x40 MLOAD DUP1 PUSH1 0x80 ADD PUSH1 0x40 MSTORE DUP1 DUP6 DUP6 PUSH1 0xE0 SWAP1 PUSH2 0x100 SWAP3 PUSH2 0x34E SWAP4 SWAP3 SWAP2 SWAP1 PUSH2 0x7287 JUMP JUMPDEST SWAP1 PUSH2 0x359 SWAP2 SWAP1 PUSH2 0x72E4 JUMP JUMPDEST PUSH1 0x0 SHR DUP2 MSTORE PUSH1 0x20 ADD DUP6 DUP6 PUSH2 0x100 SWAP1 PUSH2 0x120 SWAP3 PUSH2 0x377 SWAP4 SWAP3 SWAP2 SWAP1 PUSH2 0x7287 JUMP JUMPDEST SWAP1 PUSH2 0x382 SWAP2 SWAP1 PUSH2 0x72E4 JUMP JUMPDEST PUSH1 0x0 SHR DUP2 MSTORE PUSH1 0x20 ADD DUP6 DUP6 PUSH2 0x120 SWAP1 PUSH2 0x140 SWAP3 PUSH2 0x3A0 SWAP4 SWAP3 SWAP2 SWAP1 PUSH2 0x7287 JUMP JUMPDEST SWAP1 PUSH2 0x3AB SWAP2 SWAP1 PUSH2 0x72E4 JUMP JUMPDEST PUSH1 0x0 SHR DUP2 MSTORE PUSH1 0x20 ADD DUP6 DUP6 PUSH2 0x140 SWAP1 PUSH2 0x160 SWAP3 PUSH2 0x3C9 SWAP4 SWAP3 SWAP2 SWAP1 PUSH2 0x7287 JUMP JUMPDEST SWAP1 PUSH2 0x3D4 SWAP2 SWAP1 PUSH2 0x72E4 JUMP JUMPDEST PUSH1 0x0 SHR DUP2 MSTORE POP DUP2 PUSH1 0x80 ADD DUP2 SWAP1 MSTORE POP PUSH1 0x40 MLOAD DUP1 PUSH1 0x80 ADD PUSH1 0x40 MSTORE DUP1 DUP6 DUP6 PUSH2 0x160 SWAP1 PUSH2 0x180 SWAP3 PUSH2 0x403 SWAP4 SWAP3 SWAP2 SWAP1 PUSH2 0x7287 JUMP JUMPDEST SWAP1 PUSH2 0x40E SWAP2 SWAP1 PUSH2 0x72E4 JUMP JUMPDEST PUSH1 0x0 SHR DUP2 MSTORE PUSH1 0x20 ADD DUP6 DUP6 PUSH2 0x180 SWAP1 PUSH2 0x1A0 SWAP3 PUSH2 0x42C SWAP4 SWAP3 SWAP2 SWAP1 PUSH2 0x7287 JUMP JUMPDEST SWAP1 PUSH2 0x437 SWAP2 SWAP1 PUSH2 0x72E4 JUMP JUMPDEST PUSH1 0x0 SHR DUP2 MSTORE PUSH1 0x20 ADD DUP6 DUP6 PUSH2 0x1A0 SWAP1 PUSH2 0x1C0 SWAP3 PUSH2 0x455 SWAP4 SWAP3 SWAP2 SWAP1 PUSH2 0x7287 JUMP JUMPDEST SWAP1 PUSH2 0x460 SWAP2 SWAP1 PUSH2 0x72E4 JUMP JUMPDEST PUSH1 0x0 SHR DUP2 MSTORE PUSH1 0x20 ADD DUP6 DUP6 PUSH2 0x1C0 SWAP1 PUSH2 0x1E0 SWAP3 PUSH2 0x47E SWAP4 SWAP3 SWAP2 SWAP1 PUSH2 0x7287 JUMP JUMPDEST SWAP1 PUSH2 0x489 SWAP2 SWAP1 PUSH2 0x72E4 JUMP JUMPDEST PUSH1 0x0 SHR DUP2 MSTORE POP DUP2 PUSH1 0xA0 ADD DUP2 SWAP1 MSTORE POP PUSH1 0x40 MLOAD DUP1 PUSH1 0x80 ADD PUSH1 0x40 MSTORE DUP1 DUP6 DUP6 PUSH2 0x1E0 SWAP1 PUSH2 0x200 SWAP3 PUSH2 0x4B8 SWAP4 SWAP3 SWAP2 SWAP1 PUSH2 0x7287 JUMP JUMPDEST SWAP1 PUSH2 0x4C3 SWAP2 SWAP1 PUSH2 0x72E4 JUMP JUMPDEST PUSH1 0x0 SHR DUP2 MSTORE PUSH1 0x20 ADD DUP6 DUP6 PUSH2 0x200 SWAP1 PUSH2 0x220 SWAP3 PUSH2 0x4E1 SWAP4 SWAP3 SWAP2 SWAP1 PUSH2 0x7287 JUMP JUMPDEST SWAP1 PUSH2 0x4EC SWAP2 SWAP1 PUSH2 0x72E4 JUMP JUMPDEST PUSH1 0x0 SHR DUP2 MSTORE PUSH1 0x20 ADD DUP6 DUP6 PUSH2 0x220 SWAP1 PUSH2 0x240 SWAP3 PUSH2 0x50A SWAP4 SWAP3 SWAP2 SWAP1 PUSH2 0x7287 JUMP JUMPDEST SWAP1 PUSH2 0x515 SWAP2 SWAP1 PUSH2 0x72E4 JUMP JUMPDEST PUSH1 0x0 SHR DUP2 MSTORE PUSH1 0x20 ADD DUP6 DUP6 PUSH2 0x240 SWAP1 PUSH2 0x260 SWAP3 PUSH2 0x533 SWAP4 SWAP3 SWAP2 SWAP1 PUSH2 0x7287 JUMP JUMPDEST SWAP1 PUSH2 0x53E SWAP2 SWAP1 PUSH2 0x72E4 JUMP JUMPDEST PUSH1 0x0 SHR DUP2 MSTORE POP DUP2 PUSH2 0x100 ADD DUP2 SWAP1 MSTORE POP PUSH1 0x40 MLOAD DUP1 PUSH1 0x80 ADD PUSH1 0x40 MSTORE DUP1 DUP6 DUP6 PUSH2 0x260 SWAP1 PUSH2 0x280 SWAP3 PUSH2 0x56E SWAP4 SWAP3 SWAP2 SWAP1 PUSH2 0x7287 JUMP JUMPDEST SWAP1 PUSH2 0x579 SWAP2 SWAP1 PUSH2 0x72E4 JUMP JUMPDEST PUSH1 0x0 SHR DUP2 MSTORE PUSH1 0x20 ADD DUP6 DUP6 PUSH2 0x280 SWAP1 PUSH2 0x2A0 SWAP3 PUSH2 0x597 SWAP4 SWAP3 SWAP2 SWAP1 PUSH2 0x7287 JUMP JUMPDEST SWAP1 PUSH2 0x5A2 SWAP2 SWAP1 PUSH2 0x72E4 JUMP JUMPDEST PUSH1 0x0 SHR DUP2 MSTORE PUSH1 0x20 ADD DUP6 DUP6 PUSH2 0x2A0 SWAP1 PUSH2 0x2C0 SWAP3 PUSH2 0x5C0 SWAP4 SWAP3 SWAP2 SWAP1 PUSH2 0x7287 JUMP JUMPDEST SWAP1 PUSH2 0x5CB SWAP2 SWAP1 PUSH2 0x72E4 JUMP JUMPDEST PUSH1 0x0 SHR DUP2 MSTORE PUSH1 0x20 ADD DUP6 DUP6 PUSH2 0x2C0 SWAP1 PUSH2 0x2E0 SWAP3 PUSH2 0x5E9 SWAP4 SWAP3 SWAP2 SWAP1 PUSH2 0x7287 JUMP JUMPDEST SWAP1 PUSH2 0x5F4 SWAP2 SWAP1 PUSH2 0x72E4 JUMP JUMPDEST PUSH1 0x0 SHR DUP2 MSTORE POP DUP2 PUSH2 0x120 ADD DUP2 SWAP1 MSTORE POP PUSH1 0x40 MLOAD DUP1 PUSH1 0x80 ADD PUSH1 0x40 MSTORE DUP1 DUP6 DUP6 PUSH2 0x2E0 SWAP1 PUSH2 0x300 SWAP3 PUSH2 0x624 SWAP4 SWAP3 SWAP2 SWAP1 PUSH2 0x7287 JUMP JUMPDEST SWAP1 PUSH2 0x62F SWAP2 SWAP1 PUSH2 0x72E4 JUMP JUMPDEST PUSH1 0x0 SHR DUP2 MSTORE PUSH1 0x20 ADD DUP6 DUP6 PUSH2 0x300 SWAP1 PUSH2 0x320 SWAP3 PUSH2 0x64D SWAP4 SWAP3 SWAP2 SWAP1 PUSH2 0x7287 JUMP JUMPDEST SWAP1 PUSH2 0x658 SWAP2 SWAP1 PUSH2 0x72E4 JUMP JUMPDEST PUSH1 0x0 SHR DUP2 MSTORE PUSH1 0x20 ADD DUP6 DUP6 PUSH2 0x320 SWAP1 PUSH2 0x340 SWAP3 PUSH2 0x676 SWAP4 SWAP3 SWAP2 SWAP1 PUSH2 0x7287 JUMP JUMPDEST SWAP1 PUSH2 0x681 SWAP2 SWAP1 PUSH2 0x72E4 JUMP JUMPDEST PUSH1 0x0 SHR DUP2 MSTORE PUSH1 0x20 ADD DUP6 DUP6 PUSH2 0x340 SWAP1 PUSH2 0x360 SWAP3 PUSH2 0x69F SWAP4 SWAP3 SWAP2 SWAP1 PUSH2 0x7287 JUMP JUMPDEST SWAP1 PUSH2 0x6AA SWAP2 SWAP1 PUSH2 0x72E4 JUMP JUMPDEST PUSH1 0x0 SHR DUP2 MSTORE POP DUP2 PUSH1 0xC0 ADD DUP2 SWAP1 MSTORE POP PUSH1 0x40 MLOAD DUP1 PUSH1 0x80 ADD PUSH1 0x40 MSTORE DUP1 DUP6 DUP6 PUSH2 0x360 SWAP1 PUSH2 0x380 SWAP3 PUSH2 0x6D9 SWAP4 SWAP3 SWAP2 SWAP1 PUSH2 0x7287 JUMP JUMPDEST SWAP1 PUSH2 0x6E4 SWAP2 SWAP1 PUSH2 0x72E4 JUMP JUMPDEST PUSH1 0x0 SHR DUP2 MSTORE PUSH1 0x20 ADD DUP6 DUP6 PUSH2 0x380 SWAP1 PUSH2 0x3A0 SWAP3 PUSH2 0x702 SWAP4 SWAP3 SWAP2 SWAP1 PUSH2 0x7287 JUMP JUMPDEST SWAP1 PUSH2 0x70D SWAP2 SWAP1 PUSH2 0x72E4 JUMP JUMPDEST PUSH1 0x0 SHR DUP2 MSTORE PUSH1 0x20 ADD DUP6 DUP6 PUSH2 0x3A0 SWAP1 PUSH2 0x3C0 SWAP3 PUSH2 0x72B SWAP4 SWAP3 SWAP2 SWAP1 PUSH2 0x7287 JUMP JUMPDEST SWAP1 PUSH2 0x736 SWAP2 SWAP1 PUSH2 0x72E4 JUMP JUMPDEST PUSH1 0x0 SHR DUP2 MSTORE PUSH1 0x20 ADD DUP6 DUP6 PUSH2 0x3C0 SWAP1 PUSH2 0x3E0 SWAP3 PUSH2 0x754 SWAP4 SWAP3 SWAP2 SWAP1 PUSH2 0x7287 JUMP JUMPDEST SWAP1 PUSH2 0x75F SWAP2 SWAP1 PUSH2 0x72E4 JUMP JUMPDEST PUSH1 0x0 SHR DUP2 MSTORE POP DUP2 PUSH2 0x140 ADD DUP2 SWAP1 MSTORE POP PUSH1 0x40 MLOAD DUP1 PUSH1 0x80 ADD PUSH1 0x40 MSTORE DUP1 DUP6 DUP6 PUSH2 0x3E0 SWAP1 PUSH2 0x400 SWAP3 PUSH2 0x78F SWAP4 SWAP3 SWAP2 SWAP1 PUSH2 0x7287 JUMP JUMPDEST SWAP1 PUSH2 0x79A SWAP2 SWAP1 PUSH2 0x72E4 JUMP JUMPDEST PUSH1 0x0 SHR DUP2 MSTORE PUSH1 0x20 ADD DUP6 DUP6 PUSH2 0x400 SWAP1 PUSH2 0x420 SWAP3 PUSH2 0x7B8 SWAP4 SWAP3 SWAP2 SWAP1 PUSH2 0x7287 JUMP JUMPDEST SWAP1 PUSH2 0x7C3 SWAP2 SWAP1 PUSH2 0x72E4 JUMP JUMPDEST PUSH1 0x0 SHR DUP2 MSTORE PUSH1 0x20 ADD DUP6 DUP6 PUSH2 0x420 SWAP1 PUSH2 0x440 SWAP3 PUSH2 0x7E1 SWAP4 SWAP3 SWAP2 SWAP1 PUSH2 0x7287 JUMP JUMPDEST SWAP1 PUSH2 0x7EC SWAP2 SWAP1 PUSH2 0x72E4 JUMP JUMPDEST PUSH1 0x0 SHR DUP2 MSTORE PUSH1 0x20 ADD DUP6 DUP6 PUSH2 0x440 SWAP1 PUSH2 0x460 SWAP3 PUSH2 0x80A SWAP4 SWAP3 SWAP2 SWAP1 PUSH2 0x7287 JUMP JUMPDEST SWAP1 PUSH2 0x815 SWAP2 SWAP1 PUSH2 0x72E4 JUMP JUMPDEST PUSH1 0x0 SHR DUP2 MSTORE POP DUP2 PUSH1 0xE0 ADD DUP2 SWAP1 MSTORE POP PUSH1 0x0 PUSH2 0x460 SWAP1 POP PUSH1 0x0 JUMPDEST PUSH1 0x1C DUP2 LT ISZERO PUSH2 0x912 JUMPI PUSH1 0x0 PUSH1 0x8 PUSH1 0x20 DUP4 PUSH2 0x847 SWAP2 SWAP1 PUSH2 0x737C JUMP JUMPDEST PUSH2 0x851 SWAP2 SWAP1 PUSH2 0x737C JUMP JUMPDEST DUP4 PUSH2 0x85C SWAP2 SWAP1 PUSH2 0x73BE JUMP JUMPDEST SWAP1 POP PUSH1 0x0 JUMPDEST PUSH1 0x8 DUP2 LT ISZERO PUSH2 0x903 JUMPI PUSH1 0x0 PUSH1 0x20 DUP3 PUSH2 0x879 SWAP2 SWAP1 PUSH2 0x737C JUMP JUMPDEST DUP4 PUSH2 0x884 SWAP2 SWAP1 PUSH2 0x73BE JUMP JUMPDEST SWAP1 POP PUSH1 0x0 PUSH1 0x20 DUP3 PUSH2 0x895 SWAP2 SWAP1 PUSH2 0x73BE JUMP JUMPDEST SWAP1 POP PUSH2 0x8BC DUP11 DUP11 DUP5 SWAP1 DUP5 SWAP3 PUSH2 0x8AC SWAP4 SWAP3 SWAP2 SWAP1 PUSH2 0x7287 JUMP JUMPDEST SWAP1 PUSH2 0x8B7 SWAP2 SWAP1 PUSH2 0x72E4 JUMP JUMPDEST PUSH2 0x26EC JUMP JUMPDEST DUP8 PUSH2 0x160 ADD MLOAD DUP7 PUSH1 0x1C DUP2 LT PUSH2 0x8D4 JUMPI PUSH2 0x8D3 PUSH2 0x73F2 JUMP JUMPDEST JUMPDEST PUSH1 0x20 MUL ADD MLOAD DUP5 PUSH1 0x8 DUP2 LT PUSH2 0x8EB JUMPI PUSH2 0x8EA PUSH2 0x73F2 JUMP JUMPDEST JUMPDEST PUSH1 0x20 MUL ADD DUP2 DUP2 MSTORE POP POP POP POP DUP1 DUP1 PUSH1 0x1 ADD SWAP2 POP POP PUSH2 0x861 JUMP JUMPDEST POP POP DUP1 DUP1 PUSH1 0x1 ADD SWAP2 POP POP PUSH2 0x82D JUMP JUMPDEST POP PUSH1 0x20 PUSH1 0x8 PUSH1 0x1C PUSH2 0x923 SWAP2 SWAP1 PUSH2 0x737C JUMP JUMPDEST PUSH2 0x92D SWAP2 SWAP1 PUSH2 0x737C JUMP JUMPDEST DUP2 PUSH2 0x938 SWAP2 SWAP1 PUSH2 0x73BE JUMP JUMPDEST SWAP1 POP PUSH1 0x0 JUMPDEST PUSH1 0x2C DUP2 LT ISZERO PUSH2 0x9C8 JUMPI PUSH1 0x0 PUSH1 0x20 DUP3 PUSH2 0x955 SWAP2 SWAP1 PUSH2 0x737C JUMP JUMPDEST DUP4 PUSH2 0x960 SWAP2 SWAP1 PUSH2 0x73BE JUMP JUMPDEST SWAP1 POP PUSH1 0x0 PUSH1 0x20 DUP3 PUSH2 0x971 SWAP2 SWAP1 PUSH2 0x73BE JUMP JUMPDEST SWAP1 POP PUSH2 0x998 DUP9 DUP9 DUP5 SWAP1 DUP5 SWAP3 PUSH2 0x988 SWAP4 SWAP3 SWAP2 SWAP1 PUSH2 0x7287 JUMP JUMPDEST SWAP1 PUSH2 0x993 SWAP2 SWAP1 PUSH2 0x72E4 JUMP JUMPDEST PUSH2 0x26EC JUMP JUMPDEST DUP6 PUSH2 0x180 ADD MLOAD DUP5 PUSH1 0x2C DUP2 LT PUSH2 0x9B0 JUMPI PUSH2 0x9AF PUSH2 0x73F2 JUMP JUMPDEST JUMPDEST PUSH1 0x20 MUL ADD DUP2 DUP2 MSTORE POP POP POP POP DUP1 DUP1 PUSH1 0x1 ADD SWAP2 POP POP PUSH2 0x93D JUMP JUMPDEST POP PUSH1 0x20 PUSH1 0x2C PUSH2 0x9D7 SWAP2 SWAP1 PUSH2 0x737C JUMP JUMPDEST DUP2 PUSH2 0x9E2 SWAP2 SWAP1 PUSH2 0x73BE JUMP JUMPDEST SWAP1 POP PUSH1 0x0 JUMPDEST PUSH1 0x1 PUSH1 0x1C PUSH2 0x9F5 SWAP2 SWAP1 PUSH2 0x7421 JUMP JUMPDEST DUP2 LT ISZERO PUSH2 0xB3D JUMPI PUSH1 0x0 PUSH1 0x80 DUP3 PUSH2 0xA0B SWAP2 SWAP1 PUSH2 0x737C JUMP JUMPDEST DUP4 PUSH2 0xA16 SWAP2 SWAP1 PUSH2 0x73BE JUMP JUMPDEST SWAP1 POP PUSH1 0x0 PUSH1 0x20 DUP3 PUSH2 0xA27 SWAP2 SWAP1 PUSH2 0x73BE JUMP JUMPDEST SWAP1 POP PUSH1 0x0 DUP2 SWAP1 POP PUSH1 0x0 PUSH1 0x20 DUP3 PUSH2 0xA3D SWAP2 SWAP1 PUSH2 0x73BE JUMP JUMPDEST SWAP1 POP PUSH1 0x0 DUP2 SWAP1 POP PUSH1 0x0 PUSH1 0x20 DUP3 PUSH2 0xA53 SWAP2 SWAP1 PUSH2 0x73BE JUMP JUMPDEST SWAP1 POP PUSH1 0x0 DUP2 SWAP1 POP PUSH1 0x0 PUSH1 0x20 DUP3 PUSH2 0xA69 SWAP2 SWAP1 PUSH2 0x73BE JUMP JUMPDEST SWAP1 POP PUSH1 0x40 MLOAD DUP1 PUSH1 0x80 ADD PUSH1 0x40 MSTORE DUP1 DUP16 DUP16 DUP12 SWAP1 DUP12 SWAP3 PUSH2 0xA88 SWAP4 SWAP3 SWAP2 SWAP1 PUSH2 0x7287 JUMP JUMPDEST SWAP1 PUSH2 0xA93 SWAP2 SWAP1 PUSH2 0x72E4 JUMP JUMPDEST PUSH1 0x0 SHR DUP2 MSTORE PUSH1 0x20 ADD DUP16 DUP16 DUP10 SWAP1 DUP10 SWAP3 PUSH2 0xAAD SWAP4 SWAP3 SWAP2 SWAP1 PUSH2 0x7287 JUMP JUMPDEST SWAP1 PUSH2 0xAB8 SWAP2 SWAP1 PUSH2 0x72E4 JUMP JUMPDEST PUSH1 0x0 SHR DUP2 MSTORE PUSH1 0x20 ADD DUP16 DUP16 DUP8 SWAP1 DUP8 SWAP3 PUSH2 0xAD2 SWAP4 SWAP3 SWAP2 SWAP1 PUSH2 0x7287 JUMP JUMPDEST SWAP1 PUSH2 0xADD SWAP2 SWAP1 PUSH2 0x72E4 JUMP JUMPDEST PUSH1 0x0 SHR DUP2 MSTORE PUSH1 0x20 ADD DUP16 DUP16 DUP6 SWAP1 DUP6 SWAP3 PUSH2 0xAF7 SWAP4 SWAP3 SWAP2 SWAP1 PUSH2 0x7287 JUMP JUMPDEST SWAP1 PUSH2 0xB02 SWAP2 SWAP1 PUSH2 0x72E4 JUMP JUMPDEST PUSH1 0x0 SHR DUP2 MSTORE POP DUP12 PUSH2 0x1A0 ADD MLOAD DUP11 PUSH1 0x1B DUP2 LT PUSH2 0xB20 JUMPI PUSH2 0xB1F PUSH2 0x73F2 JUMP JUMPDEST JUMPDEST PUSH1 0x20 MUL ADD DUP2 SWAP1 MSTORE POP POP POP POP POP POP POP POP POP DUP1 DUP1 PUSH1 0x1 ADD SWAP2 POP POP PUSH2 0x9E7 JUMP JUMPDEST POP PUSH1 0x80 PUSH1 0x1 PUSH1 0x1C PUSH2 0xB4E SWAP2 SWAP1 PUSH2 0x7421 JUMP JUMPDEST PUSH2 0xB58 SWAP2 SWAP1 PUSH2 0x737C JUMP JUMPDEST DUP2 PUSH2 0xB63 SWAP2 SWAP1 PUSH2 0x73BE JUMP JUMPDEST SWAP1 POP PUSH1 0x0 JUMPDEST PUSH1 0x1C DUP2 LT ISZERO PUSH2 0xBF3 JUMPI PUSH1 0x0 PUSH1 0x20 DUP3 PUSH2 0xB80 SWAP2 SWAP1 PUSH2 0x737C JUMP JUMPDEST DUP4 PUSH2 0xB8B SWAP2 SWAP1 PUSH2 0x73BE JUMP JUMPDEST SWAP1 POP PUSH1 0x0 PUSH1 0x20 DUP3 PUSH2 0xB9C SWAP2 SWAP1 PUSH2 0x73BE JUMP JUMPDEST SWAP1 POP PUSH2 0xBC3 DUP9 DUP9 DUP5 SWAP1 DUP5 SWAP3 PUSH2 0xBB3 SWAP4 SWAP3 SWAP2 SWAP1 PUSH2 0x7287 JUMP JUMPDEST SWAP1 PUSH2 0xBBE SWAP2 SWAP1 PUSH2 0x72E4 JUMP JUMPDEST PUSH2 0x26EC JUMP JUMPDEST DUP6 PUSH2 0x1C0 ADD MLOAD DUP5 PUSH1 0x1C DUP2 LT PUSH2 0xBDB JUMPI PUSH2 0xBDA PUSH2 0x73F2 JUMP JUMPDEST JUMPDEST PUSH1 0x20 MUL ADD DUP2 DUP2 MSTORE POP POP POP POP DUP1 DUP1 PUSH1 0x1 ADD SWAP2 POP POP PUSH2 0xB68 JUMP JUMPDEST POP PUSH1 0x20 PUSH1 0x1C PUSH2 0xC02 SWAP2 SWAP1 PUSH2 0x737C JUMP JUMPDEST DUP2 PUSH2 0xC0D SWAP2 SWAP1 PUSH2 0x73BE JUMP JUMPDEST SWAP1 POP PUSH1 0x40 MLOAD DUP1 PUSH1 0x80 ADD PUSH1 0x40 MSTORE DUP1 DUP7 DUP7 DUP5 SWAP1 PUSH1 0x20 DUP7 PUSH2 0xC2B SWAP2 SWAP1 PUSH2 0x73BE JUMP JUMPDEST SWAP3 PUSH2 0xC38 SWAP4 SWAP3 SWAP2 SWAP1 PUSH2 0x7287 JUMP JUMPDEST SWAP1 PUSH2 0xC43 SWAP2 SWAP1 PUSH2 0x72E4 JUMP JUMPDEST PUSH1 0x0 SHR DUP2 MSTORE PUSH1 0x20 ADD DUP7 DUP7 PUSH1 0x20 DUP6 PUSH2 0xC5A SWAP2 SWAP1 PUSH2 0x73BE JUMP JUMPDEST SWAP1 PUSH1 0x40 DUP7 PUSH2 0xC68 SWAP2 SWAP1 PUSH2 0x73BE JUMP JUMPDEST SWAP3 PUSH2 0xC75 SWAP4 SWAP3 SWAP2 SWAP1 PUSH2 0x7287 JUMP JUMPDEST SWAP1 PUSH2 0xC80 SWAP2 SWAP1 PUSH2 0x72E4 JUMP JUMPDEST PUSH1 0x0 SHR DUP2 MSTORE PUSH1 0x20 ADD DUP7 DUP7 PUSH1 0x40 DUP6 PUSH2 0xC97 SWAP2 SWAP1 PUSH2 0x73BE JUMP JUMPDEST SWAP1 PUSH1 0x60 DUP7 PUSH2 0xCA5 SWAP2 SWAP1 PUSH2 0x73BE JUMP JUMPDEST SWAP3 PUSH2 0xCB2 SWAP4 SWAP3 SWAP2 SWAP1 PUSH2 0x7287 JUMP JUMPDEST SWAP1 PUSH2 0xCBD SWAP2 SWAP1 PUSH2 0x72E4 JUMP JUMPDEST PUSH1 0x0 SHR DUP2 MSTORE PUSH1 0x20 ADD DUP7 DUP7 PUSH1 0x60 DUP6 PUSH2 0xCD4 SWAP2 SWAP1 PUSH2 0x73BE JUMP JUMPDEST SWAP1 PUSH1 0x80 DUP7 PUSH2 0xCE2 SWAP2 SWAP1 PUSH2 0x73BE JUMP JUMPDEST SWAP3 PUSH2 0xCEF SWAP4 SWAP3 SWAP2 SWAP1 PUSH2 0x7287 JUMP JUMPDEST SWAP1 PUSH2 0xCFA SWAP2 SWAP1 PUSH2 0x72E4 JUMP JUMPDEST PUSH1 0x0 SHR DUP2 MSTORE POP DUP3 PUSH2 0x1E0 ADD DUP2 SWAP1 MSTORE POP PUSH1 0x80 DUP2 PUSH2 0xD16 SWAP2 SWAP1 PUSH2 0x73BE JUMP JUMPDEST SWAP1 POP PUSH1 0x40 MLOAD DUP1 PUSH1 0x80 ADD PUSH1 0x40 MSTORE DUP1 DUP7 DUP7 DUP5 SWAP1 PUSH1 0x20 DUP7 PUSH2 0xD34 SWAP2 SWAP1 PUSH2 0x73BE JUMP JUMPDEST SWAP3 PUSH2 0xD41 SWAP4 SWAP3 SWAP2 SWAP1 PUSH2 0x7287 JUMP JUMPDEST SWAP1 PUSH2 0xD4C SWAP2 SWAP1 PUSH2 0x72E4 JUMP JUMPDEST PUSH1 0x0 SHR DUP2 MSTORE PUSH1 0x20 ADD DUP7 DUP7 PUSH1 0x20 DUP6 PUSH2 0xD63 SWAP2 SWAP1 PUSH2 0x73BE JUMP JUMPDEST SWAP1 PUSH1 0x40 DUP7 PUSH2 0xD71 SWAP2 SWAP1 PUSH2 0x73BE JUMP JUMPDEST SWAP3 PUSH2 0xD7E SWAP4 SWAP3 SWAP2 SWAP1 PUSH2 0x7287 JUMP JUMPDEST SWAP1 PUSH2 0xD89 SWAP2 SWAP1 PUSH2 0x72E4 JUMP JUMPDEST PUSH1 0x0 SHR DUP2 MSTORE PUSH1 0x20 ADD DUP7 DUP7 PUSH1 0x40 DUP6 PUSH2 0xDA0 SWAP2 SWAP1 PUSH2 0x73BE JUMP JUMPDEST SWAP1 PUSH1 0x60 DUP7 PUSH2 0xDAE SWAP2 SWAP1 PUSH2 0x73BE JUMP JUMPDEST SWAP3 PUSH2 0xDBB SWAP4 SWAP3 SWAP2 SWAP1 PUSH2 0x7287 JUMP JUMPDEST SWAP1 PUSH2 0xDC6 SWAP2 SWAP1 PUSH2 0x72E4 JUMP JUMPDEST PUSH1 0x0 SHR DUP2 MSTORE PUSH1 0x20 ADD DUP7 DUP7 PUSH1 0x60 DUP6 PUSH2 0xDDD SWAP2 SWAP1 PUSH2 0x73BE JUMP JUMPDEST SWAP1 PUSH1 0x80 DUP7 PUSH2 0xDEB SWAP2 SWAP1 PUSH2 0x73BE JUMP JUMPDEST SWAP3 PUSH2 0xDF8 SWAP4 SWAP3 SWAP2 SWAP1 PUSH2 0x7287 JUMP JUMPDEST SWAP1 PUSH2 0xE03 SWAP2 SWAP1 PUSH2 0x72E4 JUMP JUMPDEST PUSH1 0x0 SHR DUP2 MSTORE POP DUP3 PUSH2 0x200 ADD DUP2 SWAP1 MSTORE POP DUP2 SWAP3 POP POP POP SWAP3 SWAP2 POP POP JUMP JUMPDEST PUSH2 0xE25 PUSH2 0x6BE1 JUMP JUMPDEST PUSH1 0x0 PUSH2 0xE33 DUP7 DUP7 DUP7 DUP7 PUSH2 0x2724 JUMP JUMPDEST DUP6 PUSH1 0x0 ADD DUP7 PUSH1 0x20 ADD DUP8 PUSH1 0x40 ADD DUP4 SWAP8 POP DUP5 DUP2 MSTORE POP DUP5 DUP2 MSTORE POP DUP5 DUP2 MSTORE POP POP POP POP POP PUSH2 0xE5C DUP2 DUP8 PUSH2 0x2C10 JUMP JUMPDEST DUP5 PUSH1 0x60 ADD DUP6 PUSH1 0x80 ADD DUP3 SWAP6 POP DUP4 DUP2 MSTORE POP DUP4 DUP2 MSTORE POP POP POP POP PUSH2 0xE7C DUP2 DUP8 PUSH2 0x2E81 JUMP JUMPDEST DUP4 PUSH1 0xA0 ADD DUP2 SWAP4 POP DUP3 SWAP1 MSTORE POP POP PUSH2 0xE91 DUP2 PUSH2 0x31A5 JUMP JUMPDEST DUP4 PUSH1 0xC0 ADD DUP2 SWAP4 POP DUP3 SWAP1 MSTORE POP POP PUSH2 0xEA7 DUP7 DUP3 PUSH2 0x3231 JUMP JUMPDEST DUP4 PUSH1 0xE0 ADD DUP2 SWAP4 POP DUP3 SWAP1 MSTORE POP POP PUSH2 0xEBD DUP7 DUP3 PUSH2 0x335C JUMP JUMPDEST DUP4 PUSH2 0x100 ADD DUP2 SWAP4 POP DUP3 DUP2 MSTORE POP POP POP PUSH2 0xED5 DUP7 DUP3 PUSH2 0x3431 JUMP JUMPDEST DUP4 PUSH2 0x120 ADD DUP2 SWAP4 POP DUP3 DUP2 MSTORE POP POP POP PUSH2 0xEED DUP7 DUP3 PUSH2 0x3621 JUMP JUMPDEST DUP4 PUSH2 0x140 ADD DUP2 SWAP4 POP DUP3 DUP2 MSTORE POP POP POP PUSH2 0xF05 DUP7 DUP3 PUSH2 0x36F6 JUMP JUMPDEST DUP4 PUSH2 0x160 ADD DUP2 SWAP4 POP DUP3 DUP2 MSTORE POP POP POP POP SWAP5 SWAP4 POP POP POP POP JUMP JUMPDEST PUSH1 0x0 DUP1 PUSH1 0x1 SWAP1 POP PUSH1 0x0 PUSH1 0x1 SWAP1 POP PUSH1 0x0 PUSH2 0xF51 DUP8 PUSH2 0xF4C DUP11 PUSH2 0xF47 DUP10 DUP12 PUSH2 0xF42 SWAP2 SWAP1 PUSH2 0x73BE JUMP JUMPDEST PUSH2 0x3808 JUMP JUMPDEST PUSH2 0x383D JUMP JUMPDEST PUSH2 0x3879 JUMP JUMPDEST SWAP1 POP PUSH1 0x0 PUSH2 0xF7C DUP9 PUSH2 0xF77 DUP12 PUSH2 0xF72 PUSH1 0x1 DUP12 PUSH2 0xF6D SWAP2 SWAP1 PUSH2 0x73BE JUMP JUMPDEST PUSH2 0x3808 JUMP JUMPDEST PUSH2 0x383D JUMP JUMPDEST PUSH2 0x38B5 JUMP JUMPDEST SWAP1 POP PUSH1 0x0 JUMPDEST PUSH1 0x2 DUP2 LT ISZERO PUSH2 0x1001 JUMPI PUSH1 0x0 PUSH2 0xFAF DUP13 DUP4 DUP2 MLOAD DUP2 LT PUSH2 0xFA2 JUMPI PUSH2 0xFA1 PUSH2 0x73F2 JUMP JUMPDEST JUMPDEST PUSH1 0x20 MUL PUSH1 0x20 ADD ADD MLOAD PUSH2 0x26EC JUMP JUMPDEST SWAP1 POP PUSH2 0xFC4 DUP7 PUSH2 0xFBF DUP7 DUP5 PUSH2 0x3879 JUMP JUMPDEST PUSH2 0x383D JUMP JUMPDEST SWAP6 POP PUSH2 0xFD9 DUP6 PUSH2 0xFD4 DUP6 DUP5 PUSH2 0x3879 JUMP JUMPDEST PUSH2 0x383D JUMP JUMPDEST SWAP5 POP PUSH2 0xFE5 DUP5 DUP13 PUSH2 0x3879 JUMP JUMPDEST SWAP4 POP PUSH2 0xFF1 DUP4 DUP13 PUSH2 0x38B5 JUMP JUMPDEST SWAP3 POP POP DUP1 DUP1 PUSH1 0x1 ADD SWAP2 POP POP PUSH2 0xF81 JUMP JUMPDEST POP PUSH2 0x100C DUP5 DUP5 PUSH2 0x391C JUMP JUMPDEST SWAP5 POP POP POP POP POP SWAP6 SWAP5 POP POP POP POP POP JUMP JUMPDEST PUSH1 0x0 DUP1 PUSH1 0x0 PUSH1 0x1 SWAP1 POP PUSH1 0x0 JUMPDEST PUSH1 0x12 DUP2 LT ISZERO PUSH2 0x10DE JUMPI PUSH1 0x0 DUP7 PUSH2 0x160 ADD MLOAD DUP3 PUSH1 0x1C DUP2 LT PUSH2 0x104A JUMPI PUSH2 0x1049 PUSH2 0x73F2 JUMP JUMPDEST JUMPDEST PUSH1 0x20 MUL ADD MLOAD SWAP1 POP PUSH1 0x0 PUSH2 0x105D DUP3 DUP7 PUSH2 0x3938 JUMP JUMPDEST SWAP1 POP DUP1 PUSH2 0x1096 JUMPI PUSH1 0x40 MLOAD PUSH32 0x9FC3A21800000000000000000000000000000000000000000000000000000000 DUP2 MSTORE PUSH1 0x4 ADD PUSH1 0x40 MLOAD DUP1 SWAP2 SUB SWAP1 REVERT JUMPDEST PUSH1 0x0 DUP8 PUSH1 0xE0 ADD MLOAD DUP5 PUSH1 0x1C DUP2 LT PUSH2 0x10AF JUMPI PUSH2 0x10AE PUSH2 0x73F2 JUMP JUMPDEST JUMPDEST PUSH1 0x20 MUL ADD MLOAD SWAP1 POP PUSH2 0x10C0 DUP4 DUP3 PUSH2 0x398A JUMP JUMPDEST SWAP6 POP PUSH2 0x10CE DUP9 DUP7 DUP4 DUP8 PUSH2 0x3BD3 JUMP JUMPDEST SWAP5 POP POP POP POP DUP1 PUSH1 0x1 ADD SWAP1 POP PUSH2 0x1027 JUMP JUMPDEST POP PUSH1 0x0 PUSH2 0x10EC DUP7 DUP7 DUP5 PUSH2 0x3C26 JUMP JUMPDEST SWAP1 POP PUSH2 0x10F8 DUP2 DUP5 PUSH2 0x3CAD JUMP JUMPDEST SWAP4 POP POP POP POP SWAP3 SWAP2 POP POP JUMP JUMPDEST PUSH1 0x0 PUSH2 0x110D PUSH2 0x6C5B JUMP JUMPDEST PUSH1 0x0 PUSH2 0x111D DUP5 PUSH2 0x120 ADD MLOAD PUSH2 0x3CBA JUMP JUMPDEST SWAP1 POP PUSH2 0x1127 PUSH2 0x6C8A JUMP JUMPDEST PUSH2 0x112F PUSH2 0x6CAD JUMP JUMPDEST PUSH1 0x0 PUSH2 0x113B DUP8 DUP6 PUSH2 0x3D49 JUMP JUMPDEST SWAP1 POP PUSH2 0x1185 DUP2 PUSH1 0x0 PUSH1 0x1D DUP2 LT PUSH2 0x1154 JUMPI PUSH2 0x1153 PUSH2 0x73F2 JUMP JUMPDEST JUMPDEST PUSH1 0x20 MUL ADD MLOAD PUSH2 0x1180 DUP10 PUSH2 0x140 ADD MLOAD DUP5 PUSH1 0x1 PUSH1 0x1D DUP2 LT PUSH2 0x1176 JUMPI PUSH2 0x1175 PUSH2 0x73F2 JUMP JUMPDEST JUMPDEST PUSH1 0x20 MUL ADD MLOAD PUSH2 0x383D JUMP JUMPDEST PUSH2 0x3879 JUMP JUMPDEST DUP6 PUSH1 0x0 ADD DUP2 DUP2 MSTORE POP POP PUSH2 0x11EC PUSH2 0x119F DUP9 PUSH2 0x120 ADD MLOAD PUSH2 0x3E2D JUMP JUMPDEST PUSH2 0x11E7 DUP4 PUSH1 0x0 PUSH1 0x1D DUP2 LT PUSH2 0x11B6 JUMPI PUSH2 0x11B5 PUSH2 0x73F2 JUMP JUMPDEST JUMPDEST PUSH1 0x20 MUL ADD MLOAD PUSH2 0x11E2 DUP12 PUSH2 0x140 ADD MLOAD DUP7 PUSH1 0x1 PUSH1 0x1D DUP2 LT PUSH2 0x11D8 JUMPI PUSH2 0x11D7 PUSH2 0x73F2 JUMP JUMPDEST JUMPDEST PUSH1 0x20 MUL ADD MLOAD PUSH2 0x383D JUMP JUMPDEST PUSH2 0x38B5 JUMP JUMPDEST PUSH2 0x383D JUMP JUMPDEST DUP6 PUSH1 0x20 ADD DUP2 DUP2 MSTORE POP POP PUSH1 0x1 DUP4 PUSH1 0x0 PUSH1 0x4A DUP2 LT PUSH2 0x120B JUMPI PUSH2 0x120A PUSH2 0x73F2 JUMP JUMPDEST JUMPDEST PUSH1 0x20 MUL ADD DUP2 DUP2 MSTORE POP POP PUSH2 0x1222 DUP10 PUSH2 0x1E0 ADD MLOAD PUSH2 0x3EC4 JUMP JUMPDEST DUP3 PUSH1 0x0 PUSH1 0x4A DUP2 LT PUSH2 0x1236 JUMPI PUSH2 0x1235 PUSH2 0x73F2 JUMP JUMPDEST JUMPDEST PUSH1 0x20 MUL ADD DUP2 SWAP1 MSTORE POP PUSH1 0x1 DUP6 PUSH1 0x60 ADD DUP2 DUP2 MSTORE POP POP PUSH1 0x0 DUP6 PUSH1 0x80 ADD DUP2 DUP2 MSTORE POP POP PUSH1 0x0 PUSH1 0x1 SWAP1 POP JUMPDEST PUSH1 0x23 DUP2 GT PUSH2 0x1312 JUMPI PUSH2 0x127D PUSH2 0x1273 DUP8 PUSH1 0x0 ADD MLOAD PUSH2 0x3F04 JUMP JUMPDEST DUP8 PUSH1 0x60 ADD MLOAD PUSH2 0x383D JUMP JUMPDEST DUP5 DUP3 PUSH1 0x4A DUP2 LT PUSH2 0x1290 JUMPI PUSH2 0x128F PUSH2 0x73F2 JUMP JUMPDEST JUMPDEST PUSH1 0x20 MUL ADD DUP2 DUP2 MSTORE POP POP PUSH2 0x12DC DUP7 PUSH1 0x80 ADD MLOAD PUSH2 0x12D7 DUP13 PUSH2 0x180 ADD MLOAD PUSH1 0x1 DUP6 PUSH2 0x12B7 SWAP2 SWAP1 PUSH2 0x7421 JUMP JUMPDEST PUSH1 0x2C DUP2 LT PUSH2 0x12C8 JUMPI PUSH2 0x12C7 PUSH2 0x73F2 JUMP JUMPDEST JUMPDEST PUSH1 0x20 MUL ADD MLOAD DUP10 PUSH1 0x60 ADD MLOAD PUSH2 0x383D JUMP JUMPDEST PUSH2 0x3879 JUMP JUMPDEST DUP7 PUSH1 0x80 ADD DUP2 DUP2 MSTORE POP POP PUSH2 0x12F8 DUP7 PUSH1 0x60 ADD MLOAD DUP10 PUSH2 0x100 ADD MLOAD PUSH2 0x383D JUMP JUMPDEST DUP7 PUSH1 0x60 ADD DUP2 DUP2 MSTORE POP POP DUP1 PUSH2 0x130B SWAP1 PUSH2 0x7455 JUMP JUMPDEST SWAP1 POP PUSH2 0x125B JUMP JUMPDEST POP PUSH1 0x0 PUSH1 0x1 PUSH1 0x23 PUSH2 0x1323 SWAP2 SWAP1 PUSH2 0x73BE JUMP JUMPDEST SWAP1 POP JUMPDEST PUSH1 0x2C DUP2 GT PUSH2 0x13DD JUMPI PUSH2 0x1348 PUSH2 0x133E DUP8 PUSH1 0x20 ADD MLOAD PUSH2 0x3F04 JUMP JUMPDEST DUP8 PUSH1 0x60 ADD MLOAD PUSH2 0x383D JUMP JUMPDEST DUP5 DUP3 PUSH1 0x4A DUP2 LT PUSH2 0x135B JUMPI PUSH2 0x135A PUSH2 0x73F2 JUMP JUMPDEST JUMPDEST PUSH1 0x20 MUL ADD DUP2 DUP2 MSTORE POP POP PUSH2 0x13A7 DUP7 PUSH1 0x80 ADD MLOAD PUSH2 0x13A2 DUP13 PUSH2 0x180 ADD MLOAD PUSH1 0x1 DUP6 PUSH2 0x1382 SWAP2 SWAP1 PUSH2 0x7421 JUMP JUMPDEST PUSH1 0x2C DUP2 LT PUSH2 0x1393 JUMPI PUSH2 0x1392 PUSH2 0x73F2 JUMP JUMPDEST JUMPDEST PUSH1 0x20 MUL ADD MLOAD DUP10 PUSH1 0x60 ADD MLOAD PUSH2 0x383D JUMP JUMPDEST PUSH2 0x3879 JUMP JUMPDEST DUP7 PUSH1 0x80 ADD DUP2 DUP2 MSTORE POP POP PUSH2 0x13C3 DUP7 PUSH1 0x60 ADD MLOAD DUP10 PUSH2 0x100 ADD MLOAD PUSH2 0x383D JUMP JUMPDEST DUP7 PUSH1 0x60 ADD DUP2 DUP2 MSTORE POP POP DUP1 PUSH2 0x13D6 SWAP1 PUSH2 0x7455 JUMP JUMPDEST SWAP1 POP PUSH2 0x1326 JUMP JUMPDEST POP DUP8 PUSH1 0x60 ADD MLOAD DUP3 PUSH1 0x1 PUSH1 0x4A DUP2 LT PUSH2 0x13F7 JUMPI PUSH2 0x13F6 PUSH2 0x73F2 JUMP JUMPDEST JUMPDEST PUSH1 0x20 MUL ADD DUP2 SWAP1 MSTORE POP DUP8 PUSH1 0x80 ADD MLOAD DUP3 PUSH1 0x2 PUSH1 0x4A DUP2 LT PUSH2 0x1418 JUMPI PUSH2 0x1417 PUSH2 0x73F2 JUMP JUMPDEST JUMPDEST PUSH1 0x20 MUL ADD DUP2 SWAP1 MSTORE POP DUP8 PUSH1 0xA0 ADD MLOAD DUP3 PUSH1 0x3 PUSH1 0x4A DUP2 LT PUSH2 0x1439 JUMPI PUSH2 0x1438 PUSH2 0x73F2 JUMP JUMPDEST JUMPDEST PUSH1 0x20 MUL ADD DUP2 SWAP1 MSTORE POP DUP8 PUSH1 0xC0 ADD MLOAD DUP3 PUSH1 0x4 PUSH1 0x4A DUP2 LT PUSH2 0x145A JUMPI PUSH2 0x1459 PUSH2 0x73F2 JUMP JUMPDEST JUMPDEST PUSH1 0x20 MUL ADD DUP2 SWAP1 MSTORE POP DUP8 PUSH1 0xE0 ADD MLOAD DUP3 PUSH1 0x5 PUSH1 0x4A DUP2 LT PUSH2 0x147B JUMPI PUSH2 0x147A PUSH2 0x73F2 JUMP JUMPDEST JUMPDEST PUSH1 0x20 MUL ADD DUP2 SWAP1 MSTORE POP DUP8 PUSH2 0x100 ADD MLOAD DUP3 PUSH1 0x6 PUSH1 0x4A DUP2 LT PUSH2 0x149D JUMPI PUSH2 0x149C PUSH2 0x73F2 JUMP JUMPDEST JUMPDEST PUSH1 0x20 MUL ADD DUP2 SWAP1 MSTORE POP DUP8 PUSH2 0x120 ADD MLOAD DUP3 PUSH1 0x7 PUSH1 0x4A DUP2 LT PUSH2 0x14BF JUMPI PUSH2 0x14BE PUSH2 0x73F2 JUMP JUMPDEST JUMPDEST PUSH1 0x20 MUL ADD DUP2 SWAP1 MSTORE POP DUP8 PUSH2 0x140 ADD MLOAD DUP3 PUSH1 0x8 PUSH1 0x4A DUP2 LT PUSH2 0x14E1 JUMPI PUSH2 0x14E0 PUSH2 0x73F2 JUMP JUMPDEST JUMPDEST PUSH1 0x20 MUL ADD DUP2 SWAP1 MSTORE POP DUP8 PUSH2 0x180 ADD MLOAD DUP3 PUSH1 0x9 PUSH1 0x4A DUP2 LT PUSH2 0x1503 JUMPI PUSH2 0x1502 PUSH2 0x73F2 JUMP JUMPDEST JUMPDEST PUSH1 0x20 MUL ADD DUP2 SWAP1 MSTORE POP DUP8 PUSH2 0x160 ADD MLOAD DUP3 PUSH1 0xA PUSH1 0x4A DUP2 LT PUSH2 0x1525 JUMPI PUSH2 0x1524 PUSH2 0x73F2 JUMP JUMPDEST JUMPDEST PUSH1 0x20 MUL ADD DUP2 SWAP1 MSTORE POP DUP8 PUSH2 0x1A0 ADD MLOAD DUP3 PUSH1 0xB PUSH1 0x4A DUP2 LT PUSH2 0x1547 JUMPI PUSH2 0x1546 PUSH2 0x73F2 JUMP JUMPDEST JUMPDEST PUSH1 0x20 MUL ADD DUP2 SWAP1 MSTORE POP DUP8 PUSH2 0x1C0 ADD MLOAD DUP3 PUSH1 0xC PUSH1 0x4A DUP2 LT PUSH2 0x1569 JUMPI PUSH2 0x1568 PUSH2 0x73F2 JUMP JUMPDEST JUMPDEST PUSH1 0x20 MUL ADD DUP2 SWAP1 MSTORE POP DUP8 PUSH2 0x1E0 ADD MLOAD DUP3 PUSH1 0xD PUSH1 0x4A DUP2 LT PUSH2 0x158B JUMPI PUSH2 0x158A PUSH2 0x73F2 JUMP JUMPDEST JUMPDEST PUSH1 0x20 MUL ADD DUP2 SWAP1 MSTORE POP DUP8 PUSH2 0x200 ADD MLOAD DUP3 PUSH1 0xE PUSH1 0x4A DUP2 LT PUSH2 0x15AD JUMPI PUSH2 0x15AC PUSH2 0x73F2 JUMP JUMPDEST JUMPDEST PUSH1 0x20 MUL ADD DUP2 SWAP1 MSTORE POP DUP8 PUSH2 0x220 ADD MLOAD DUP3 PUSH1 0xF PUSH1 0x4A DUP2 LT PUSH2 0x15CF JUMPI PUSH2 0x15CE PUSH2 0x73F2 JUMP JUMPDEST JUMPDEST PUSH1 0x20 MUL ADD DUP2 SWAP1 MSTORE POP DUP8 PUSH2 0x240 ADD MLOAD DUP3 PUSH1 0x10 PUSH1 0x4A DUP2 LT PUSH2 0x15F1 JUMPI PUSH2 0x15F0 PUSH2 0x73F2 JUMP JUMPDEST JUMPDEST PUSH1 0x20 MUL ADD DUP2 SWAP1 MSTORE POP DUP8 PUSH2 0x260 ADD MLOAD DUP3 PUSH1 0x11 PUSH1 0x4A DUP2 LT PUSH2 0x1613 JUMPI PUSH2 0x1612 PUSH2 0x73F2 JUMP JUMPDEST JUMPDEST PUSH1 0x20 MUL ADD DUP2 SWAP1 MSTORE POP DUP8 PUSH2 0x280 ADD MLOAD DUP3 PUSH1 0x12 PUSH1 0x4A DUP2 LT PUSH2 0x1635 JUMPI PUSH2 0x1634 PUSH2 0x73F2 JUMP JUMPDEST JUMPDEST PUSH1 0x20 MUL ADD DUP2 SWAP1 MSTORE POP DUP8 PUSH2 0x2A0 ADD MLOAD DUP3 PUSH1 0x13 PUSH1 0x4A DUP2 LT PUSH2 0x1657 JUMPI PUSH2 0x1656 PUSH2 0x73F2 JUMP JUMPDEST JUMPDEST PUSH1 0x20 MUL ADD DUP2 SWAP1 MSTORE POP DUP8 PUSH2 0x2C0 ADD MLOAD DUP3 PUSH1 0x14 PUSH1 0x4A DUP2 LT PUSH2 0x1679 JUMPI PUSH2 0x1678 PUSH2 0x73F2 JUMP JUMPDEST JUMPDEST PUSH1 0x20 MUL ADD DUP2 SWAP1 MSTORE POP DUP8 PUSH2 0x2E0 ADD MLOAD DUP3 PUSH1 0x15 PUSH1 0x4A DUP2 LT PUSH2 0x169B JUMPI PUSH2 0x169A PUSH2 0x73F2 JUMP JUMPDEST JUMPDEST PUSH1 0x20 MUL ADD DUP2 SWAP1 MSTORE POP DUP8 PUSH2 0x300 ADD MLOAD DUP3 PUSH1 0x16 PUSH1 0x4A DUP2 LT PUSH2 0x16BD JUMPI PUSH2 0x16BC PUSH2 0x73F2 JUMP JUMPDEST JUMPDEST PUSH1 0x20 MUL ADD DUP2 SWAP1 MSTORE POP DUP8 PUSH2 0x320 ADD MLOAD DUP3 PUSH1 0x17 PUSH1 0x4A DUP2 LT PUSH2 0x16DF JUMPI PUSH2 0x16DE PUSH2 0x73F2 JUMP JUMPDEST JUMPDEST PUSH1 0x20 MUL ADD DUP2 SWAP1 MSTORE POP DUP8 PUSH2 0x340 ADD MLOAD DUP3 PUSH1 0x18 PUSH1 0x4A DUP2 LT PUSH2 0x1701 JUMPI PUSH2 0x1700 PUSH2 0x73F2 JUMP JUMPDEST JUMPDEST PUSH1 0x20 MUL ADD DUP2 SWAP1 MSTORE POP DUP8 PUSH2 0x360 ADD MLOAD DUP3 PUSH1 0x19 PUSH1 0x4A DUP2 LT PUSH2 0x1723 JUMPI PUSH2 0x1722 PUSH2 0x73F2 JUMP JUMPDEST JUMPDEST PUSH1 0x20 MUL ADD DUP2 SWAP1 MSTORE POP DUP8 PUSH2 0x380 ADD MLOAD DUP3 PUSH1 0x1A PUSH1 0x4A DUP2 LT PUSH2 0x1745 JUMPI PUSH2 0x1744 PUSH2 0x73F2 JUMP JUMPDEST JUMPDEST PUSH1 0x20 MUL ADD DUP2 SWAP1 MSTORE POP DUP8 PUSH2 0x3A0 ADD MLOAD DUP3 PUSH1 0x1B PUSH1 0x4A DUP2 LT PUSH2 0x1767 JUMPI PUSH2 0x1766 PUSH2 0x73F2 JUMP JUMPDEST JUMPDEST PUSH1 0x20 MUL ADD DUP2 SWAP1 MSTORE POP PUSH2 0x177C DUP10 PUSH1 0x60 ADD MLOAD PUSH2 0x3EC4 JUMP JUMPDEST DUP3 PUSH1 0x1C PUSH1 0x4A DUP2 LT PUSH2 0x1790 JUMPI PUSH2 0x178F PUSH2 0x73F2 JUMP JUMPDEST JUMPDEST PUSH1 0x20 MUL ADD DUP2 SWAP1 MSTORE POP PUSH2 0x17A5 DUP10 PUSH1 0x80 ADD MLOAD PUSH2 0x3EC4 JUMP JUMPDEST DUP3 PUSH1 0x1D PUSH1 0x4A DUP2 LT PUSH2 0x17B9 JUMPI PUSH2 0x17B8 PUSH2 0x73F2 JUMP JUMPDEST JUMPDEST PUSH1 0x20 MUL ADD DUP2 SWAP1 MSTORE POP PUSH2 0x17CE DUP10 PUSH1 0xA0 ADD MLOAD PUSH2 0x3EC4 JUMP JUMPDEST DUP3 PUSH1 0x1E PUSH1 0x4A DUP2 LT PUSH2 0x17E2 JUMPI PUSH2 0x17E1 PUSH2 0x73F2 JUMP JUMPDEST JUMPDEST PUSH1 0x20 MUL ADD DUP2 SWAP1 MSTORE POP PUSH2 0x17F7 DUP10 PUSH1 0xC0 ADD MLOAD PUSH2 0x3EC4 JUMP JUMPDEST DUP3 PUSH1 0x1F PUSH1 0x4A DUP2 LT PUSH2 0x180B JUMPI PUSH2 0x180A PUSH2 0x73F2 JUMP JUMPDEST JUMPDEST PUSH1 0x20 MUL ADD DUP2 SWAP1 MSTORE POP PUSH2 0x1820 DUP10 PUSH1 0xE0 ADD MLOAD PUSH2 0x3EC4 JUMP JUMPDEST DUP3 PUSH1 0x20 PUSH1 0x4A DUP2 LT PUSH2 0x1834 JUMPI PUSH2 0x1833 PUSH2 0x73F2 JUMP JUMPDEST JUMPDEST PUSH1 0x20 MUL ADD DUP2 SWAP1 MSTORE POP PUSH2 0x184A DUP10 PUSH2 0x140 ADD MLOAD PUSH2 0x3EC4 JUMP JUMPDEST DUP3 PUSH1 0x21 PUSH1 0x4A DUP2 LT PUSH2 0x185E JUMPI PUSH2 0x185D PUSH2 0x73F2 JUMP JUMPDEST JUMPDEST PUSH1 0x20 MUL ADD DUP2 SWAP1 MSTORE POP PUSH2 0x1874 DUP10 PUSH2 0x100 ADD MLOAD PUSH2 0x3EC4 JUMP JUMPDEST DUP3 PUSH1 0x22 PUSH1 0x4A DUP2 LT PUSH2 0x1888 JUMPI PUSH2 0x1887 PUSH2 0x73F2 JUMP JUMPDEST JUMPDEST PUSH1 0x20 MUL ADD DUP2 SWAP1 MSTORE POP PUSH2 0x189E DUP10 PUSH2 0x120 ADD MLOAD PUSH2 0x3EC4 JUMP JUMPDEST DUP3 PUSH1 0x23 PUSH1 0x4A DUP2 LT PUSH2 0x18B2 JUMPI PUSH2 0x18B1 PUSH2 0x73F2 JUMP JUMPDEST JUMPDEST PUSH1 0x20 MUL ADD DUP2 SWAP1 MSTORE POP DUP8 PUSH2 0x300 ADD MLOAD DUP3 PUSH1 0x24 PUSH1 0x4A DUP2 LT PUSH2 0x18D4 JUMPI PUSH2 0x18D3 PUSH2 0x73F2 JUMP JUMPDEST JUMPDEST PUSH1 0x20 MUL ADD DUP2 SWAP1 MSTORE POP DUP8 PUSH2 0x320 ADD MLOAD DUP3 PUSH1 0x25 PUSH1 0x4A DUP2 LT PUSH2 0x18F6 JUMPI PUSH2 0x18F5 PUSH2 0x73F2 JUMP JUMPDEST JUMPDEST PUSH1 0x20 MUL ADD DUP2 SWAP1 MSTORE POP DUP8 PUSH2 0x340 ADD MLOAD DUP3 PUSH1 0x26 PUSH1 0x4A DUP2 LT PUSH2 0x1918 JUMPI PUSH2 0x1917 PUSH2 0x73F2 JUMP JUMPDEST JUMPDEST PUSH1 0x20 MUL ADD DUP2 SWAP1 MSTORE POP DUP8 PUSH2 0x360 ADD MLOAD DUP3 PUSH1 0x27 PUSH1 0x4A DUP2 LT PUSH2 0x193A JUMPI PUSH2 0x1939 PUSH2 0x73F2 JUMP JUMPDEST JUMPDEST PUSH1 0x20 MUL ADD DUP2 SWAP1 MSTORE POP PUSH2 0x194F DUP10 PUSH1 0x60 ADD MLOAD PUSH2 0x3EC4 JUMP JUMPDEST DUP3 PUSH1 0x28 PUSH1 0x4A DUP2 LT PUSH2 0x1963 JUMPI PUSH2 0x1962 PUSH2 0x73F2 JUMP JUMPDEST JUMPDEST PUSH1 0x20 MUL ADD DUP2 SWAP1 MSTORE POP PUSH2 0x1978 DUP10 PUSH1 0x80 ADD MLOAD PUSH2 0x3EC4 JUMP JUMPDEST DUP3 PUSH1 0x29 PUSH1 0x4A DUP2 LT PUSH2 0x198C JUMPI PUSH2 0x198B PUSH2 0x73F2 JUMP JUMPDEST JUMPDEST PUSH1 0x20 MUL ADD DUP2 SWAP1 MSTORE POP PUSH2 0x19A1 DUP10 PUSH1 0xA0 ADD MLOAD PUSH2 0x3EC4 JUMP JUMPDEST DUP3 PUSH1 0x2A PUSH1 0x4A DUP2 LT PUSH2 0x19B5 JUMPI PUSH2 0x19B4 PUSH2 0x73F2 JUMP JUMPDEST JUMPDEST PUSH1 0x20 MUL ADD DUP2 SWAP1 MSTORE POP PUSH2 0x19CA DUP10 PUSH1 0xC0 ADD MLOAD PUSH2 0x3EC4 JUMP JUMPDEST DUP3 PUSH1 0x2B PUSH1 0x4A DUP2 LT PUSH2 0x19DE JUMPI PUSH2 0x19DD PUSH2 0x73F2 JUMP JUMPDEST JUMPDEST PUSH1 0x20 MUL ADD DUP2 SWAP1 MSTORE POP PUSH2 0x19F3 DUP10 PUSH1 0xE0 ADD MLOAD PUSH2 0x3EC4 JUMP JUMPDEST DUP3 PUSH1 0x2C PUSH1 0x4A DUP2 LT PUSH2 0x1A07 JUMPI PUSH2 0x1A06 PUSH2 0x73F2 JUMP JUMPDEST JUMPDEST PUSH1 0x20 MUL ADD DUP2 SWAP1 MSTORE POP PUSH1 0x0 DUP6 PUSH1 0x40 ADD DUP2 DUP2 MSTORE POP POP PUSH2 0x1A28 DUP8 PUSH2 0x140 ADD MLOAD PUSH2 0x3F39 JUMP JUMPDEST DUP6 PUSH1 0x60 ADD DUP2 DUP2 MSTORE POP POP PUSH1 0x0 JUMPDEST PUSH1 0x1 PUSH1 0x1C PUSH2 0x1A42 SWAP2 SWAP1 PUSH2 0x7421 JUMP JUMPDEST DUP2 LT ISZERO PUSH2 0x1B9F JUMPI PUSH1 0x0 PUSH1 0x1 PUSH1 0x12 PUSH2 0x1A59 SWAP2 SWAP1 PUSH2 0x7421 JUMP JUMPDEST DUP3 LT ISZERO SWAP1 POP PUSH1 0x0 DUP2 PUSH2 0x1AD6 JUMPI PUSH2 0x1A96 DUP9 PUSH1 0x60 ADD MLOAD DUP6 PUSH1 0x2 DUP7 PUSH2 0x1A7B SWAP2 SWAP1 PUSH2 0x73BE JUMP JUMPDEST PUSH1 0x1D DUP2 LT PUSH2 0x1A8C JUMPI PUSH2 0x1A8B PUSH2 0x73F2 JUMP JUMPDEST JUMPDEST PUSH1 0x20 MUL ADD MLOAD PUSH2 0x383D JUMP JUMPDEST SWAP1 POP PUSH2 0x1AA1 DUP2 PUSH2 0x3F04 JUMP JUMPDEST DUP7 DUP5 PUSH1 0x1 PUSH1 0x2C PUSH2 0x1AB1 SWAP2 SWAP1 PUSH2 0x73BE JUMP JUMPDEST PUSH2 0x1ABB SWAP2 SWAP1 PUSH2 0x73BE JUMP JUMPDEST PUSH1 0x4A DUP2 LT PUSH2 0x1ACC JUMPI PUSH2 0x1ACB PUSH2 0x73F2 JUMP JUMPDEST JUMPDEST PUSH1 0x20 MUL ADD DUP2 DUP2 MSTORE POP POP JUMPDEST PUSH2 0x1B15 DUP9 PUSH1 0x40 ADD MLOAD PUSH2 0x1B10 DUP4 DUP16 PUSH2 0x1C0 ADD MLOAD PUSH1 0x1 DUP9 PUSH2 0x1AF5 SWAP2 SWAP1 PUSH2 0x73BE JUMP JUMPDEST PUSH1 0x1C DUP2 LT PUSH2 0x1B06 JUMPI PUSH2 0x1B05 PUSH2 0x73F2 JUMP JUMPDEST JUMPDEST PUSH1 0x20 MUL ADD MLOAD PUSH2 0x383D JUMP JUMPDEST PUSH2 0x3879 JUMP JUMPDEST DUP9 PUSH1 0x40 ADD DUP2 DUP2 MSTORE POP POP PUSH2 0x1B31 DUP9 PUSH1 0x60 ADD MLOAD DUP12 PUSH2 0x140 ADD MLOAD PUSH2 0x383D JUMP JUMPDEST DUP9 PUSH1 0x60 ADD DUP2 DUP2 MSTORE POP POP PUSH2 0x1B5F DUP13 PUSH2 0x1A0 ADD MLOAD DUP5 PUSH1 0x1B DUP2 LT PUSH2 0x1B55 JUMPI PUSH2 0x1B54 PUSH2 0x73F2 JUMP JUMPDEST JUMPDEST PUSH1 0x20 MUL ADD MLOAD PUSH2 0x3EC4 JUMP JUMPDEST DUP6 DUP5 PUSH1 0x1 PUSH1 0x2C PUSH2 0x1B6F SWAP2 SWAP1 PUSH2 0x73BE JUMP JUMPDEST PUSH2 0x1B79 SWAP2 SWAP1 PUSH2 0x73BE JUMP JUMPDEST PUSH1 0x4A DUP2 LT PUSH2 0x1B8A JUMPI PUSH2 0x1B89 PUSH2 0x73F2 JUMP JUMPDEST JUMPDEST PUSH1 0x20 MUL ADD DUP2 SWAP1 MSTORE POP POP POP DUP1 PUSH1 0x1 ADD SWAP1 POP PUSH2 0x1A34 JUMP JUMPDEST POP PUSH1 0x0 PUSH2 0x1BB7 DUP9 DUP8 PUSH1 0x80 ADD MLOAD DUP13 PUSH2 0x1C0 ADD MLOAD DUP9 PUSH2 0x3F4C JUMP JUMPDEST SWAP1 POP PUSH2 0x1BE8 DUP7 PUSH1 0x40 ADD MLOAD PUSH2 0x1BE3 DUP4 DUP6 PUSH1 0x0 PUSH1 0x1D DUP2 LT PUSH2 0x1BD9 JUMPI PUSH2 0x1BD8 PUSH2 0x73F2 JUMP JUMPDEST JUMPDEST PUSH1 0x20 MUL ADD MLOAD PUSH2 0x383D JUMP JUMPDEST PUSH2 0x3879 JUMP JUMPDEST DUP7 PUSH1 0x40 ADD DUP2 DUP2 MSTORE POP POP PUSH2 0x1C4B DUP7 PUSH1 0x40 ADD MLOAD PUSH2 0x1C46 PUSH2 0x1C28 DUP14 PUSH2 0x1C0 ADD MLOAD PUSH1 0x0 PUSH1 0x1C DUP2 LT PUSH2 0x1C18 JUMPI PUSH2 0x1C17 PUSH2 0x73F2 JUMP JUMPDEST JUMPDEST PUSH1 0x20 MUL ADD MLOAD DUP13 PUSH2 0x140 ADD MLOAD PUSH2 0x383D JUMP JUMPDEST DUP6 PUSH1 0x1 PUSH1 0x1D DUP2 LT PUSH2 0x1C3C JUMPI PUSH2 0x1C3B PUSH2 0x73F2 JUMP JUMPDEST JUMPDEST PUSH1 0x20 MUL ADD MLOAD PUSH2 0x383D JUMP JUMPDEST PUSH2 0x3879 JUMP JUMPDEST DUP7 PUSH1 0x40 ADD DUP2 DUP2 MSTORE POP POP PUSH1 0x40 MLOAD DUP1 PUSH1 0x40 ADD PUSH1 0x40 MSTORE DUP1 PUSH1 0x1 DUP2 MSTORE PUSH1 0x20 ADD PUSH1 0x2 DUP2 MSTORE POP DUP4 PUSH1 0x1C PUSH1 0x2C PUSH2 0x1C7A SWAP2 SWAP1 PUSH2 0x73BE JUMP JUMPDEST PUSH1 0x4A DUP2 LT PUSH2 0x1C8B JUMPI PUSH2 0x1C8A PUSH2 0x73F2 JUMP JUMPDEST JUMPDEST PUSH1 0x20 MUL ADD DUP2 SWAP1 MSTORE POP DUP6 PUSH1 0x40 ADD MLOAD DUP5 PUSH1 0x1C PUSH1 0x2C PUSH2 0x1CA7 SWAP2 SWAP1 PUSH2 0x73BE JUMP JUMPDEST PUSH1 0x4A DUP2 LT PUSH2 0x1CB8 JUMPI PUSH2 0x1CB7 PUSH2 0x73F2 JUMP JUMPDEST JUMPDEST PUSH1 0x20 MUL ADD DUP2 DUP2 MSTORE POP POP PUSH1 0x0 PUSH2 0x1CD1 DUP12 PUSH2 0x200 ADD MLOAD PUSH2 0x3EC4 JUMP JUMPDEST SWAP1 POP DUP1 DUP5 PUSH1 0x1 PUSH1 0x1C PUSH1 0x2C PUSH2 0x1CE5 SWAP2 SWAP1 PUSH2 0x73BE JUMP JUMPDEST PUSH2 0x1CEF SWAP2 SWAP1 PUSH2 0x73BE JUMP JUMPDEST PUSH1 0x4A DUP2 LT PUSH2 0x1D00 JUMPI PUSH2 0x1CFF PUSH2 0x73F2 JUMP JUMPDEST JUMPDEST PUSH1 0x20 MUL ADD DUP2 SWAP1 MSTORE POP DUP9 PUSH2 0x160 ADD MLOAD DUP6 PUSH1 0x1 PUSH1 0x1C PUSH1 0x2C PUSH2 0x1D1F SWAP2 SWAP1 PUSH2 0x73BE JUMP JUMPDEST PUSH2 0x1D29 SWAP2 SWAP1 PUSH2 0x73BE JUMP JUMPDEST PUSH1 0x4A DUP2 LT PUSH2 0x1D3A JUMPI PUSH2 0x1D39 PUSH2 0x73F2 JUMP JUMPDEST JUMPDEST PUSH1 0x20 MUL ADD DUP2 DUP2 MSTORE POP POP PUSH1 0x0 PUSH2 0x1D4F DUP6 DUP8 PUSH2 0x4082 JUMP JUMPDEST SWAP1 POP PUSH1 0x0 PUSH2 0x1D5C DUP4 PUSH2 0x414F JUMP JUMPDEST SWAP1 POP PUSH2 0x1D68 DUP3 DUP3 PUSH2 0x41C3 JUMP JUMPDEST SWAP10 POP POP POP POP POP POP POP POP POP POP SWAP4 SWAP3 POP POP POP JUMP JUMPDEST PUSH2 0x1D82 PUSH2 0x6988 JUMP JUMPDEST PUSH1 0x0 PUSH1 0x40 MLOAD DUP1 PUSH2 0x3C0 ADD PUSH1 0x40 MSTORE DUP1 PUSH3 0x40000 DUP2 MSTORE PUSH1 0x20 ADD PUSH1 0x12 DUP2 MSTORE PUSH1 0x20 ADD PUSH1 0x2 DUP2 MSTORE PUSH1 0x20 ADD PUSH1 0x40 MLOAD DUP1 PUSH1 0x40 ADD PUSH1 0x40 MSTORE DUP1 PUSH31 0x9891BA98B16A931022D562AFCF3BBE33264F39480D40E1A756BB2B67A67C32 DUP2 MSTORE PUSH1 0x20 ADD PUSH32 0x1F2B153CB5F99110D4D3E706E908C763BB046A623F2AB7141EBAEF42C4702CD7 DUP2 MSTORE POP DUP2 MSTORE PUSH1 0x20 ADD PUSH1 0x40 MLOAD DUP1 PUSH1 0x40 ADD PUSH1 0x40 MSTORE DUP1 PUSH32 0x2CD3883078BDBF32147AF0A597AD2794C942902909C774DFFC649EA23E7CA7D3 DUP2 MSTORE PUSH1 0x20 ADD PUSH32 0x236962843CEB03D83FB13B188C162D3F009FF2476B3AC9F9323655C7D1F65577 DUP2 MSTORE POP DUP2 MSTORE PUSH1 0x20 ADD PUSH1 0x40 MLOAD DUP1 PUSH1 0x40 ADD PUSH1 0x40 MSTORE DUP1 PUSH32 0x19354E8AFECB9C7BB0990AF24ED3F8BF666B01956747F187DC6C88B09C136DAB DUP2 MSTORE PUSH1 0x20 ADD PUSH32 0x24D034B6DE2FFD8811ECBF337B78DFF4CB60B04EFB17141BE573FD0EA8B62160 DUP2 MSTORE POP DUP2 MSTORE PUSH1 0x20 ADD PUSH1 0x40 MLOAD DUP1 PUSH1 0x40 ADD PUSH1 0x40 MSTORE DUP1 PUSH32 0x152A6BC982907BAE246E25C05917D90AB95E13358346F966224B5F86D57F38BB DUP2 MSTORE PUSH1 0x20 ADD PUSH32 0xB5F115AA2ADBCDB4918ED59691BA16586FEC9E3EC4D9AD3BB41A7E1C7A0C36B DUP2 MSTORE POP DUP2 MSTORE PUSH1 0x20 ADD PUSH1 0x40 MLOAD DUP1 PUSH1 0x40 ADD PUSH1 0x40 MSTORE DUP1 PUSH32 0xCE2C38CC43F912ABFAD7230E874BD6D9B367D20C25E46883D876D136EACA823 DUP2 MSTORE PUSH1 0x20 ADD PUSH32 0x26947A0CEB77DC4EE0EC74C1B046F0B74BF7029CE4A35DEBA46E62D782E3C452 DUP2 MSTORE POP DUP2 MSTORE PUSH1 0x20 ADD PUSH1 0x40 MLOAD DUP1 PUSH1 0x40 ADD PUSH1 0x40 MSTORE DUP1 PUSH32 0x139452394E1BF9785EA784A186BD3C2C3AE681A7EB3F66D9B2DA0CABAE900BF8 DUP2 MSTORE PUSH1 0x20 ADD PUSH32 0x22B8343F3616FD16193C6D319659DC90DFABED3CCCAB07AA69ADCEF66593D7E4 DUP2 MSTORE POP DUP2 MSTORE PUSH1 0x20 ADD PUSH1 0x40 MLOAD DUP1 PUSH1 0x40 ADD PUSH1 0x40 MSTORE DUP1 PUSH32 0x1ABE4043DA8B3EE96553BD2214AAB5EB8DDB4E5163E7D7F15E763B8B6468CE03 DUP2 MSTORE PUSH1 0x20 ADD PUSH32 0x12EE2D46F2F1BEFCA3EF3AAE4AC0E395519EB8724E9AAB0EA7CD7E3692C91853 DUP2 MSTORE POP DUP2 MSTORE PUSH1 0x20 ADD PUSH1 0x40 MLOAD DUP1 PUSH1 0x40 ADD PUSH1 0x40 MSTORE DUP1 PUSH32 0x8F50E0450748457163A377B91034F2495D83DB1A99874869BBDF1CEF9F743CD DUP2 MSTORE PUSH1 0x20 ADD PUSH32 0x12652FE45B72E3E3DA4978ED90A68CF709C9121EF5D919D058ECD0A54271DB5D DUP2 MSTORE POP DUP2 MSTORE PUSH1 0x20 ADD PUSH1 0x40 MLOAD DUP1 PUSH1 0x40 ADD PUSH1 0x40 MSTORE DUP1 PUSH32 0x28AC89FAA27C9BF4C14416A3BCC0298E30A6756095071D934B6B623E85619A2D DUP2 MSTORE PUSH1 0x20 ADD PUSH32 0x1AE2880ACC89C552509F7D51581667C3851E960CAA2E9AD718D4444A37F4F320 DUP2 MSTORE POP DUP2 MSTORE PUSH1 0x20 ADD PUSH1 0x40 MLOAD DUP1 PUSH1 0x40 ADD PUSH1 0x40 MSTORE DUP1 PUSH32 0x234EFE99A75D4D4DA5C228231E94309EEA78DF6418610081ED3B2EBFE698BC5D DUP2 MSTORE PUSH1 0x20 ADD PUSH32 0x1545A5518153176A0E8BA76EB2EC25B50E9CAC35907327A5305AFE8C91ED4726 DUP2 MSTORE POP DUP2 MSTORE PUSH1 0x20 ADD PUSH1 0x40 MLOAD DUP1 PUSH1 0x40 ADD PUSH1 0x40 MSTORE DUP1 PUSH32 0x19206CEC1DE2F224B62EC64F224337782063EA1CCCCB3E29F2BF984F6098B085 DUP2 MSTORE PUSH1 0x20 ADD PUSH32 0x1BF7A269C608647B698A7C4A853EE32EDD7459432D302CA4336DB37E17A31B45 DUP2 MSTORE POP DUP2 MSTORE PUSH1 0x20 ADD PUSH1 0x40 MLOAD DUP1 PUSH1 0x40 ADD PUSH1 0x40 MSTORE DUP1 PUSH32 0x20AFB3F14E5A49829B3B25CCA610906480C2EBCA92C3C7DB32104C3C552EDF0D DUP2 MSTORE PUSH1 0x20 ADD PUSH31 0xD84BD324FED9E043BB1C53BF9D76B47DF6DC9A846E8755CF41CA77933BEDF7 DUP2 MSTORE POP DUP2 MSTORE PUSH1 0x20 ADD PUSH1 0x40 MLOAD DUP1 PUSH1 0x40 ADD PUSH1 0x40 MSTORE DUP1 PUSH32 0x11CBF57F0AEF4C2A2C595962B8BC590C979434E96CD9D62B343F3336138A037C DUP2 MSTORE PUSH1 0x20 ADD PUSH32 0x25E79BD15F15DFFE2527F5022F6201DC9191210C0C869A858094D71DC8D3F00E DUP2 MSTORE POP DUP2 MSTORE PUSH1 0x20 ADD PUSH1 0x40 MLOAD DUP1 PUSH1 0x40 ADD PUSH1 0x40 MSTORE DUP1 PUSH32 0x230560882C1A908C1E22EA51BE8FB5E44CE39C8AFF7D36813C314942E12DBE72 DUP2 MSTORE PUSH1 0x20 ADD PUSH32 0x28EB7F5274AF203347BCCE94B85B38C19EAED9E40CE422EC9BB55F0B3A645C57 DUP2 MSTORE POP DUP2 MSTORE PUSH1 0x20 ADD PUSH1 0x40 MLOAD DUP1 PUSH1 0x40 ADD PUSH1 0x40 MSTORE DUP1 PUSH32 0x3004389F432DB0E653E32B585D865B85E548881C3CDBB8341C8D5AEBA7815C41 DUP2 MSTORE PUSH1 0x20 ADD PUSH32 0xF912DB3BE8FD6AF2931ECA6398DE9722542AE7F0207F0268A5748655FFF8CB0 DUP2 MSTORE POP DUP2 MSTORE PUSH1 0x20 ADD PUSH1 0x40 MLOAD DUP1 PUSH1 0x40 ADD PUSH1 0x40 MSTORE DUP1 PUSH32 0x1FA5207D195F23D48846A8B8BC71305CAE0DBF9C2A36DF8B34FEEA7E9DFD41CD DUP2 MSTORE PUSH1 0x20 ADD PUSH32 0x2F277AB2AFDB3EA9CCDE04098F09650F3210C0EE76130D01C657399495E505E5 DUP2 MSTORE POP DUP2 MSTORE PUSH1 0x20 ADD PUSH1 0x40 MLOAD DUP1 PUSH1 0x40 ADD PUSH1 0x40 MSTORE DUP1 PUSH32 0xFA50EE7E676B181B00EF3A7D183BB6CC93DECD7E5D6C957B848C8DDFF4D44CB DUP2 MSTORE PUSH1 0x20 ADD PUSH32 0x23D22588653BE0BF1838C78164DEEB6D17B0567E79FE41E40290638A3460019A DUP2 MSTORE POP DUP2 MSTORE PUSH1 0x20 ADD PUSH1 0x40 MLOAD DUP1 PUSH1 0x40 ADD PUSH1 0x40 MSTORE DUP1 PUSH32 0x5984689F2A9ED585DB12C41495A826877BDADAB07F8F5F98845B7E4668603A6 DUP2 MSTORE PUSH1 0x20 ADD PUSH32 0xCBCF6D16144BE82A8BCF101F71B335B8DF2FCF3EB9ADDAF308759C6035D7250 DUP2 MSTORE POP DUP2 MSTORE PUSH1 0x20 ADD PUSH1 0x40 MLOAD DUP1 PUSH1 0x40 ADD PUSH1 0x40 MSTORE DUP1 PUSH32 0x1DB8E12863ABEEC2E112AF5095C79920EB93EB1F1A77E6516D9A24199EE1B532 DUP2 MSTORE PUSH1 0x20 ADD PUSH32 0xA4B611B3CBEB944B6A1CC0F1611E6FA7C1F4E37A7447C4F45798158C4BB50E0 DUP2 MSTORE POP DUP2 MSTORE PUSH1 0x20 ADD PUSH1 0x40 MLOAD DUP1 PUSH1 0x40 ADD PUSH1 0x40 MSTORE DUP1 PUSH32 0x1CC7424B73547F19146955565C614F96B5CED8C8C9505E763501C383283299A0 DUP2 MSTORE PUSH1 0x20 ADD PUSH32 0x57864D247FDA9DB25BEA79B8BE2253BCB9D4A91AB6AB8F9399457AE05F28DBC DUP2 MSTORE POP DUP2 MSTORE PUSH1 0x20 ADD PUSH1 0x40 MLOAD DUP1 PUSH1 0x40 ADD PUSH1 0x40 MSTORE DUP1 PUSH32 0x139849FB0A25647A2134233A6D4B6E6136E9C1981C75681041B6639D30D71AEF DUP2 MSTORE PUSH1 0x20 ADD PUSH32 0x1914111000B51B59B2EAA20C8DCB0E40ECA2CCBE16D04AA19124B8CB5F5E9132 DUP2 MSTORE POP DUP2 MSTORE PUSH1 0x20 ADD PUSH1 0x40 MLOAD DUP1 PUSH1 0x40 ADD PUSH1 0x40 MSTORE DUP1 PUSH32 0x151ED523CFCEC4952F91CAF594BE159DD1CD9F7A36129C6820E8CDADA90808ED DUP2 MSTORE PUSH1 0x20 ADD PUSH32 0x2D50EEC18DCC7819AB7DBA531573C8FBA9A5E21AAF06E6C6D637AAAE72F02E3A DUP2 MSTORE POP DUP2 MSTORE PUSH1 0x20 ADD PUSH1 0x40 MLOAD DUP1 PUSH1 0x40 ADD PUSH1 0x40 MSTORE DUP1 PUSH32 0x2894E1EEDD54E60F3981A1496E0B314B46071BA34A724776D6F71C6A19C2E654 DUP2 MSTORE PUSH1 0x20 ADD PUSH32 0x172B9354D30FC85E03CC7C359FEF280D5186B117182CBACA082EC8F5CCA20AB9 DUP2 MSTORE POP DUP2 MSTORE PUSH1 0x20 ADD PUSH1 0x40 MLOAD DUP1 PUSH1 0x40 ADD PUSH1 0x40 MSTORE DUP1 PUSH32 0xFF23139F423BC5504D843F69FA7563935A81A0DBE3C08DE6675A27C6DF99A38 DUP2 MSTORE PUSH1 0x20 ADD PUSH32 0xA48DFF44F8AF0E150DCE9731196A9B981FC2C81064109561567007200606E9D DUP2 MSTORE POP DUP2 MSTORE PUSH1 0x20 ADD PUSH1 0x40 MLOAD DUP1 PUSH1 0x40 ADD PUSH1 0x40 MSTORE DUP1 PUSH32 0x1EA2387F72E46131B26CDDC9FB3F94DA435BB9D49B91AA41F6ED398CD2F704A5 DUP2 MSTORE PUSH1 0x20 ADD PUSH32 0x67787A509A9D2FC45E9E30075DA18E28F58079C5E35842A4207B434CB8BFB68 DUP2 MSTORE POP DUP2 MSTORE PUSH1 0x20 ADD PUSH1 0x40 MLOAD DUP1 PUSH1 0x40 ADD PUSH1 0x40 MSTORE DUP1 PUSH1 0x1 DUP2 MSTORE PUSH1 0x20 ADD PUSH1 0x2 DUP2 MSTORE POP DUP2 MSTORE PUSH1 0x20 ADD PUSH1 0x40 MLOAD DUP1 PUSH1 0x40 ADD PUSH1 0x40 MSTORE DUP1 PUSH32 0x1D42C8673A4C598E70DE9C7A5C97C794F6C21CBF1FABB67E8B88617F9188AB3D DUP2 MSTORE PUSH1 0x20 ADD PUSH32 0x229429A4E555D548E7FF728368BFBA0408B96C9A2FB82C728B45D9B3C24AF93B DUP2 MSTORE POP DUP2 MSTORE POP SWAP1 POP DUP1 SWAP2 POP POP SWAP1 JUMP JUMPDEST PUSH1 0x0 PUSH32 0x30644E72E131A029B85045B68181585D2833E84879B9709143E1F593F0000001 DUP3 PUSH1 0x0 SHR PUSH2 0x271D SWAP2 SWAP1 PUSH2 0x74CC JUMP JUMPDEST SWAP1 POP SWAP2 SWAP1 POP JUMP JUMPDEST PUSH1 0x0 DUP1 PUSH1 0x0 DUP1 PUSH1 0x0 PUSH1 0xC DUP7 PUSH1 0x3 PUSH2 0x273B SWAP2 SWAP1 PUSH2 0x73BE JUMP JUMPDEST PUSH2 0x2745 SWAP2 SWAP1 PUSH2 0x73BE JUMP JUMPDEST PUSH8 0xFFFFFFFFFFFFFFFF DUP2 GT ISZERO PUSH2 0x275E JUMPI PUSH2 0x275D PUSH2 0x74FD JUMP JUMPDEST JUMPDEST PUSH1 0x40 MLOAD SWAP1 DUP1 DUP3 MSTORE DUP1 PUSH1 0x20 MUL PUSH1 0x20 ADD DUP3 ADD PUSH1 0x40 MSTORE DUP1 ISZERO PUSH2 0x278C JUMPI DUP2 PUSH1 0x20 ADD PUSH1 0x20 DUP3 MUL DUP1 CALLDATASIZE DUP4 CALLDATACOPY DUP1 DUP3 ADD SWAP2 POP POP SWAP1 POP JUMPDEST POP SWAP1 POP DUP9 PUSH1 0x0 ADD MLOAD PUSH1 0x0 SHL DUP2 PUSH1 0x0 DUP2 MLOAD DUP2 LT PUSH2 0x27AB JUMPI PUSH2 0x27AA PUSH2 0x73F2 JUMP JUMPDEST JUMPDEST PUSH1 0x20 MUL PUSH1 0x20 ADD ADD DUP2 DUP2 MSTORE POP POP DUP9 PUSH1 0x20 ADD MLOAD PUSH1 0x0 SHL DUP2 PUSH1 0x1 DUP2 MLOAD DUP2 LT PUSH2 0x27D3 JUMPI PUSH2 0x27D2 PUSH2 0x73F2 JUMP JUMPDEST JUMPDEST PUSH1 0x20 MUL PUSH1 0x20 ADD ADD DUP2 DUP2 MSTORE POP POP DUP9 PUSH1 0x40 ADD MLOAD PUSH1 0x0 SHL DUP2 PUSH1 0x2 DUP2 MLOAD DUP2 LT PUSH2 0x27FB JUMPI PUSH2 0x27FA PUSH2 0x73F2 JUMP JUMPDEST JUMPDEST PUSH1 0x20 MUL PUSH1 0x20 ADD ADD DUP2 DUP2 MSTORE POP POP PUSH1 0x0 JUMPDEST DUP7 DUP2 LT ISZERO PUSH2 0x2864 JUMPI DUP9 DUP9 DUP3 DUP2 DUP2 LT PUSH2 0x2825 JUMPI PUSH2 0x2824 PUSH2 0x73F2 JUMP JUMPDEST JUMPDEST SWAP1 POP PUSH1 0x20 MUL ADD CALLDATALOAD DUP3 DUP3 PUSH1 0x3 PUSH2 0x283A SWAP2 SWAP1 PUSH2 0x73BE JUMP JUMPDEST DUP2 MLOAD DUP2 LT PUSH2 0x284B JUMPI PUSH2 0x284A PUSH2 0x73F2 JUMP JUMPDEST JUMPDEST PUSH1 0x20 MUL PUSH1 0x20 ADD ADD DUP2 DUP2 MSTORE POP POP DUP1 DUP1 PUSH1 0x1 ADD SWAP2 POP POP PUSH2 0x280A JUMP JUMPDEST POP DUP9 PUSH1 0x60 ADD MLOAD PUSH1 0x0 ADD MLOAD PUSH1 0x0 SHL DUP2 DUP8 PUSH1 0x3 PUSH2 0x287F SWAP2 SWAP1 PUSH2 0x73BE JUMP JUMPDEST DUP2 MLOAD DUP2 LT PUSH2 0x2890 JUMPI PUSH2 0x288F PUSH2 0x73F2 JUMP JUMPDEST JUMPDEST PUSH1 0x20 MUL PUSH1 0x20 ADD ADD DUP2 DUP2 MSTORE POP POP DUP9 PUSH1 0x60 ADD MLOAD PUSH1 0x20 ADD MLOAD PUSH1 0x0 SHL DUP2 PUSH1 0x1 DUP9 PUSH1 0x3 PUSH2 0x28B8 SWAP2 SWAP1 PUSH2 0x73BE JUMP JUMPDEST PUSH2 0x28C2 SWAP2 SWAP1 PUSH2 0x73BE JUMP JUMPDEST DUP2 MLOAD DUP2 LT PUSH2 0x28D3 JUMPI PUSH2 0x28D2 PUSH2 0x73F2 JUMP JUMPDEST JUMPDEST PUSH1 0x20 MUL PUSH1 0x20 ADD ADD DUP2 DUP2 MSTORE POP POP DUP9 PUSH1 0x60 ADD MLOAD PUSH1 0x40 ADD MLOAD PUSH1 0x0 SHL DUP2 PUSH1 0x2 DUP9 PUSH1 0x3 PUSH2 0x28FB SWAP2 SWAP1 PUSH2 0x73BE JUMP JUMPDEST PUSH2 0x2905 SWAP2 SWAP1 PUSH2 0x73BE JUMP JUMPDEST DUP2 MLOAD DUP2 LT PUSH2 0x2916 JUMPI PUSH2 0x2915 PUSH2 0x73F2 JUMP JUMPDEST JUMPDEST PUSH1 0x20 MUL PUSH1 0x20 ADD ADD DUP2 DUP2 MSTORE POP POP DUP9 PUSH1 0x60 ADD MLOAD PUSH1 0x60 ADD MLOAD PUSH1 0x0 SHL DUP2 PUSH1 0x3 DUP9 PUSH1 0x3 PUSH2 0x293E SWAP2 SWAP1 PUSH2 0x73BE JUMP JUMPDEST PUSH2 0x2948 SWAP2 SWAP1 PUSH2 0x73BE JUMP JUMPDEST DUP2 MLOAD DUP2 LT PUSH2 0x2959 JUMPI PUSH2 0x2958 PUSH2 0x73F2 JUMP JUMPDEST JUMPDEST PUSH1 0x20 MUL PUSH1 0x20 ADD ADD DUP2 DUP2 MSTORE POP POP DUP9 PUSH1 0x80 ADD MLOAD PUSH1 0x0 ADD MLOAD PUSH1 0x0 SHL DUP2 PUSH1 0x4 DUP9 PUSH1 0x3 PUSH2 0x2981 SWAP2 SWAP1 PUSH2 0x73BE JUMP JUMPDEST PUSH2 0x298B SWAP2 SWAP1 PUSH2 0x73BE JUMP JUMPDEST DUP2 MLOAD DUP2 LT PUSH2 0x299C JUMPI PUSH2 0x299B PUSH2 0x73F2 JUMP JUMPDEST JUMPDEST PUSH1 0x20 MUL PUSH1 0x20 ADD ADD DUP2 DUP2 MSTORE POP POP DUP9 PUSH1 0x80 ADD MLOAD PUSH1 0x20 ADD MLOAD PUSH1 0x0 SHL DUP2 PUSH1 0x5 DUP9 PUSH1 0x3 PUSH2 0x29C4 SWAP2 SWAP1 PUSH2 0x73BE JUMP JUMPDEST PUSH2 0x29CE SWAP2 SWAP1 PUSH2 0x73BE JUMP JUMPDEST DUP2 MLOAD DUP2 LT PUSH2 0x29DF JUMPI PUSH2 0x29DE PUSH2 0x73F2 JUMP JUMPDEST JUMPDEST PUSH1 0x20 MUL PUSH1 0x20 ADD ADD DUP2 DUP2 MSTORE POP POP DUP9 PUSH1 0x80 ADD MLOAD PUSH1 0x40 ADD MLOAD PUSH1 0x0 SHL DUP2 PUSH1 0x6 DUP9 PUSH1 0x3 PUSH2 0x2A07 SWAP2 SWAP1 PUSH2 0x73BE JUMP JUMPDEST PUSH2 0x2A11 SWAP2 SWAP1 PUSH2 0x73BE JUMP JUMPDEST DUP2 MLOAD DUP2 LT PUSH2 0x2A22 JUMPI PUSH2 0x2A21 PUSH2 0x73F2 JUMP JUMPDEST JUMPDEST PUSH1 0x20 MUL PUSH1 0x20 ADD ADD DUP2 DUP2 MSTORE POP POP DUP9 PUSH1 0x80 ADD MLOAD PUSH1 0x60 ADD MLOAD PUSH1 0x0 SHL DUP2 PUSH1 0x7 DUP9 PUSH1 0x3 PUSH2 0x2A4A SWAP2 SWAP1 PUSH2 0x73BE JUMP JUMPDEST PUSH2 0x2A54 SWAP2 SWAP1 PUSH2 0x73BE JUMP JUMPDEST DUP2 MLOAD DUP2 LT PUSH2 0x2A65 JUMPI PUSH2 0x2A64 PUSH2 0x73F2 JUMP JUMPDEST JUMPDEST PUSH1 0x20 MUL PUSH1 0x20 ADD ADD DUP2 DUP2 MSTORE POP POP DUP9 PUSH1 0xA0 ADD MLOAD PUSH1 0x0 ADD MLOAD PUSH1 0x0 SHL DUP2 PUSH1 0x8 DUP9 PUSH1 0x3 PUSH2 0x2A8D SWAP2 SWAP1 PUSH2 0x73BE JUMP JUMPDEST PUSH2 0x2A97 SWAP2 SWAP1 PUSH2 0x73BE JUMP JUMPDEST DUP2 MLOAD DUP2 LT PUSH2 0x2AA8 JUMPI PUSH2 0x2AA7 PUSH2 0x73F2 JUMP JUMPDEST JUMPDEST PUSH1 0x20 MUL PUSH1 0x20 ADD ADD DUP2 DUP2 MSTORE POP POP DUP9 PUSH1 0xA0 ADD MLOAD PUSH1 0x20 ADD MLOAD PUSH1 0x0 SHL DUP2 PUSH1 0x9 DUP9 PUSH1 0x3 PUSH2 0x2AD0 SWAP2 SWAP1 PUSH2 0x73BE JUMP JUMPDEST PUSH2 0x2ADA SWAP2 SWAP1 PUSH2 0x73BE JUMP JUMPDEST DUP2 MLOAD DUP2 LT PUSH2 0x2AEB JUMPI PUSH2 0x2AEA PUSH2 0x73F2 JUMP JUMPDEST JUMPDEST PUSH1 0x20 MUL PUSH1 0x20 ADD ADD DUP2 DUP2 MSTORE POP POP DUP9 PUSH1 0xA0 ADD MLOAD PUSH1 0x40 ADD MLOAD PUSH1 0x0 SHL DUP2 PUSH1 0xA DUP9 PUSH1 0x3 PUSH2 0x2B13 SWAP2 SWAP1 PUSH2 0x73BE JUMP JUMPDEST PUSH2 0x2B1D SWAP2 SWAP1 PUSH2 0x73BE JUMP JUMPDEST DUP2 MLOAD DUP2 LT PUSH2 0x2B2E JUMPI PUSH2 0x2B2D PUSH2 0x73F2 JUMP JUMPDEST JUMPDEST PUSH1 0x20 MUL PUSH1 0x20 ADD ADD DUP2 DUP2 MSTORE POP POP DUP9 PUSH1 0xA0 ADD MLOAD PUSH1 0x60 ADD MLOAD PUSH1 0x0 SHL DUP2 PUSH1 0xB DUP9 PUSH1 0x3 PUSH2 0x2B56 SWAP2 SWAP1 PUSH2 0x73BE JUMP JUMPDEST PUSH2 0x2B60 SWAP2 SWAP1 PUSH2 0x73BE JUMP JUMPDEST DUP2 MLOAD DUP2 LT PUSH2 0x2B71 JUMPI PUSH2 0x2B70 PUSH2 0x73F2 JUMP JUMPDEST JUMPDEST PUSH1 0x20 MUL PUSH1 0x20 ADD ADD DUP2 DUP2 MSTORE POP POP PUSH2 0x2BAC DUP2 PUSH1 0x40 MLOAD PUSH1 0x20 ADD PUSH2 0x2B91 SWAP2 SWAP1 PUSH2 0x75E4 JUMP JUMPDEST PUSH1 0x40 MLOAD PUSH1 0x20 DUP2 DUP4 SUB SUB DUP2 MSTORE SWAP1 PUSH1 0x40 MSTORE DUP1 MLOAD SWAP1 PUSH1 0x20 ADD KECCAK256 PUSH2 0x26EC JUMP JUMPDEST SWAP2 POP PUSH2 0x2BB7 DUP3 PUSH2 0x43AA JUMP JUMPDEST DUP1 SWAP6 POP DUP2 SWAP7 POP POP POP PUSH2 0x2BEE DUP3 PUSH1 0x40 MLOAD PUSH1 0x20 ADD PUSH2 0x2BD3 SWAP2 SWAP1 PUSH2 0x761C JUMP JUMPDEST PUSH1 0x40 MLOAD PUSH1 0x20 DUP2 DUP4 SUB SUB DUP2 MSTORE SWAP1 PUSH1 0x40 MSTORE DUP1 MLOAD SWAP1 PUSH1 0x20 ADD KECCAK256 PUSH2 0x26EC JUMP JUMPDEST SWAP2 POP PUSH1 0x0 PUSH2 0x2BFB DUP4 PUSH2 0x43AA JUMP JUMPDEST DUP1 SWAP3 POP DUP2 SWAP6 POP POP POP POP POP SWAP5 POP SWAP5 POP SWAP5 POP SWAP5 SWAP1 POP JUMP JUMPDEST PUSH1 0x0 DUP1 PUSH1 0x0 PUSH2 0x2C1D PUSH2 0x6CDB JUMP JUMPDEST PUSH2 0x2C26 DUP7 PUSH2 0x43F6 JUMP JUMPDEST DUP2 PUSH1 0x0 PUSH1 0xD DUP2 LT PUSH2 0x2C3A JUMPI PUSH2 0x2C39 PUSH2 0x73F2 JUMP JUMPDEST JUMPDEST PUSH1 0x20 MUL ADD DUP2 DUP2 MSTORE POP POP DUP5 PUSH2 0x100 ADD MLOAD PUSH1 0x0 ADD MLOAD PUSH1 0x0 SHL DUP2 PUSH1 0x1 PUSH1 0xD DUP2 LT PUSH2 0x2C64 JUMPI PUSH2 0x2C63 PUSH2 0x73F2 JUMP JUMPDEST JUMPDEST PUSH1 0x20 MUL ADD DUP2 DUP2 MSTORE POP POP DUP5 PUSH2 0x100 ADD MLOAD PUSH1 0x20 ADD MLOAD PUSH1 0x0 SHL DUP2 PUSH1 0x2 PUSH1 0xD DUP2 LT PUSH2 0x2C8E JUMPI PUSH2 0x2C8D PUSH2 0x73F2 JUMP JUMPDEST JUMPDEST PUSH1 0x20 MUL ADD DUP2 DUP2 MSTORE POP POP DUP5 PUSH2 0x100 ADD MLOAD PUSH1 0x40 ADD MLOAD PUSH1 0x0 SHL DUP2 PUSH1 0x3 PUSH1 0xD DUP2 LT PUSH2 0x2CB8 JUMPI PUSH2 0x2CB7 PUSH2 0x73F2 JUMP JUMPDEST JUMPDEST PUSH1 0x20 MUL ADD DUP2 DUP2 MSTORE POP POP DUP5 PUSH2 0x100 ADD MLOAD PUSH1 0x60 ADD MLOAD PUSH1 0x0 SHL DUP2 PUSH1 0x4 PUSH1 0xD DUP2 LT PUSH2 0x2CE2 JUMPI PUSH2 0x2CE1 PUSH2 0x73F2 JUMP JUMPDEST JUMPDEST PUSH1 0x20 MUL ADD DUP2 DUP2 MSTORE POP POP DUP5 PUSH2 0x120 ADD MLOAD PUSH1 0x0 ADD MLOAD PUSH1 0x0 SHL DUP2 PUSH1 0x5 PUSH1 0xD DUP2 LT PUSH2 0x2D0C JUMPI PUSH2 0x2D0B PUSH2 0x73F2 JUMP JUMPDEST JUMPDEST PUSH1 0x20 MUL ADD DUP2 DUP2 MSTORE POP POP DUP5 PUSH2 0x120 ADD MLOAD PUSH1 0x20 ADD MLOAD PUSH1 0x0 SHL DUP2 PUSH1 0x6 PUSH1 0xD DUP2 LT PUSH2 0x2D36 JUMPI PUSH2 0x2D35 PUSH2 0x73F2 JUMP JUMPDEST JUMPDEST PUSH1 0x20 MUL ADD DUP2 DUP2 MSTORE POP POP DUP5 PUSH2 0x120 ADD MLOAD PUSH1 0x40 ADD MLOAD PUSH1 0x0 SHL DUP2 PUSH1 0x7 PUSH1 0xD DUP2 LT PUSH2 0x2D60 JUMPI PUSH2 0x2D5F PUSH2 0x73F2 JUMP JUMPDEST JUMPDEST PUSH1 0x20 MUL ADD DUP2 DUP2 MSTORE POP POP DUP5 PUSH2 0x120 ADD MLOAD PUSH1 0x60 ADD MLOAD PUSH1 0x0 SHL DUP2 PUSH1 0x8 PUSH1 0xD DUP2 LT PUSH2 0x2D8A JUMPI PUSH2 0x2D89 PUSH2 0x73F2 JUMP JUMPDEST JUMPDEST PUSH1 0x20 MUL ADD DUP2 DUP2 MSTORE POP POP DUP5 PUSH1 0xC0 ADD MLOAD PUSH1 0x0 ADD MLOAD PUSH1 0x0 SHL DUP2 PUSH1 0x9 PUSH1 0xD DUP2 LT PUSH2 0x2DB3 JUMPI PUSH2 0x2DB2 PUSH2 0x73F2 JUMP JUMPDEST JUMPDEST PUSH1 0x20 MUL ADD DUP2 DUP2 MSTORE POP POP DUP5 PUSH1 0xC0 ADD MLOAD PUSH1 0x20 ADD MLOAD PUSH1 0x0 SHL DUP2 PUSH1 0xA PUSH1 0xD DUP2 LT PUSH2 0x2DDC JUMPI PUSH2 0x2DDB PUSH2 0x73F2 JUMP JUMPDEST JUMPDEST PUSH1 0x20 MUL ADD DUP2 DUP2 MSTORE POP POP DUP5 PUSH1 0xC0 ADD MLOAD PUSH1 0x40 ADD MLOAD PUSH1 0x0 SHL DUP2 PUSH1 0xB PUSH1 0xD DUP2 LT PUSH2 0x2E05 JUMPI PUSH2 0x2E04 PUSH2 0x73F2 JUMP JUMPDEST JUMPDEST PUSH1 0x20 MUL ADD DUP2 DUP2 MSTORE POP POP DUP5 PUSH1 0xC0 ADD MLOAD PUSH1 0x60 ADD MLOAD PUSH1 0x0 SHL DUP2 PUSH1 0xC PUSH1 0xD DUP2 LT PUSH2 0x2E2E JUMPI PUSH2 0x2E2D PUSH2 0x73F2 JUMP JUMPDEST JUMPDEST PUSH1 0x20 MUL ADD DUP2 DUP2 MSTORE POP POP PUSH2 0x2E66 DUP2 PUSH1 0x40 MLOAD PUSH1 0x20 ADD PUSH2 0x2E4B SWAP2 SWAP1 PUSH2 0x76BB JUMP JUMPDEST PUSH1 0x40 MLOAD PUSH1 0x20 DUP2 DUP4 SUB SUB DUP2 MSTORE SWAP1 PUSH1 0x40 MSTORE DUP1 MLOAD SWAP1 PUSH1 0x20 ADD KECCAK256 PUSH2 0x26EC JUMP JUMPDEST SWAP2 POP PUSH2 0x2E71 DUP3 PUSH2 0x43AA JUMP JUMPDEST DUP1 SWAP5 POP DUP2 SWAP6 POP POP POP POP SWAP3 POP SWAP3 POP SWAP3 JUMP JUMPDEST PUSH2 0x2E89 PUSH2 0x6CFE JUMP JUMPDEST PUSH1 0x0 PUSH2 0x2E93 PUSH2 0x6D21 JUMP JUMPDEST DUP5 DUP2 PUSH1 0x0 PUSH1 0x9 DUP2 LT PUSH2 0x2EA8 JUMPI PUSH2 0x2EA7 PUSH2 0x73F2 JUMP JUMPDEST JUMPDEST PUSH1 0x20 MUL ADD DUP2 DUP2 MSTORE POP POP DUP4 PUSH2 0x140 ADD MLOAD PUSH1 0x0 ADD MLOAD DUP2 PUSH1 0x1 PUSH1 0x9 DUP2 LT PUSH2 0x2ECF JUMPI PUSH2 0x2ECE PUSH2 0x73F2 JUMP JUMPDEST JUMPDEST PUSH1 0x20 MUL ADD DUP2 DUP2 MSTORE POP POP DUP4 PUSH2 0x140 ADD MLOAD PUSH1 0x20 ADD MLOAD DUP2 PUSH1 0x2 PUSH1 0x9 DUP2 LT PUSH2 0x2EF6 JUMPI PUSH2 0x2EF5 PUSH2 0x73F2 JUMP JUMPDEST JUMPDEST PUSH1 0x20 MUL ADD DUP2 DUP2 MSTORE POP POP DUP4 PUSH2 0x140 ADD MLOAD PUSH1 0x40 ADD MLOAD DUP2 PUSH1 0x3 PUSH1 0x9 DUP2 LT PUSH2 0x2F1D JUMPI PUSH2 0x2F1C PUSH2 0x73F2 JUMP JUMPDEST JUMPDEST PUSH1 0x20 MUL ADD DUP2 DUP2 MSTORE POP POP DUP4 PUSH2 0x140 ADD MLOAD PUSH1 0x60 ADD MLOAD DUP2 PUSH1 0x4 PUSH1 0x9 DUP2 LT PUSH2 0x2F44 JUMPI PUSH2 0x2F43 PUSH2 0x73F2 JUMP JUMPDEST JUMPDEST PUSH1 0x20 MUL ADD DUP2 DUP2 MSTORE POP POP DUP4 PUSH1 0xE0 ADD MLOAD PUSH1 0x0 ADD MLOAD DUP2 PUSH1 0x5 PUSH1 0x9 DUP2 LT PUSH2 0x2F6A JUMPI PUSH2 0x2F69 PUSH2 0x73F2 JUMP JUMPDEST JUMPDEST PUSH1 0x20 MUL ADD DUP2 DUP2 MSTORE POP POP DUP4 PUSH1 0xE0 ADD MLOAD PUSH1 0x20 ADD MLOAD DUP2 PUSH1 0x6 PUSH1 0x9 DUP2 LT PUSH2 0x2F90 JUMPI PUSH2 0x2F8F PUSH2 0x73F2 JUMP JUMPDEST JUMPDEST PUSH1 0x20 MUL ADD DUP2 DUP2 MSTORE POP POP DUP4 PUSH1 0xE0 ADD MLOAD PUSH1 0x40 ADD MLOAD DUP2 PUSH1 0x7 PUSH1 0x9 DUP2 LT PUSH2 0x2FB6 JUMPI PUSH2 0x2FB5 PUSH2 0x73F2 JUMP JUMPDEST JUMPDEST PUSH1 0x20 MUL ADD DUP2 DUP2 MSTORE POP POP DUP4 PUSH1 0xE0 ADD MLOAD PUSH1 0x60 ADD MLOAD DUP2 PUSH1 0x8 PUSH1 0x9 DUP2 LT PUSH2 0x2FDC JUMPI PUSH2 0x2FDB PUSH2 0x73F2 JUMP JUMPDEST JUMPDEST PUSH1 0x20 MUL ADD DUP2 DUP2 MSTORE POP POP PUSH2 0x3014 DUP2 PUSH1 0x40 MLOAD PUSH1 0x20 ADD PUSH2 0x2FF9 SWAP2 SWAP1 PUSH2 0x7782 JUMP JUMPDEST PUSH1 0x40 MLOAD PUSH1 0x20 DUP2 DUP4 SUB SUB DUP2 MSTORE SWAP1 PUSH1 0x40 MSTORE DUP1 MLOAD SWAP1 PUSH1 0x20 ADD KECCAK256 PUSH2 0x26EC JUMP JUMPDEST SWAP2 POP PUSH2 0x301F DUP3 PUSH2 0x43AA JUMP JUMPDEST DUP5 PUSH1 0x0 PUSH1 0x19 DUP2 LT PUSH2 0x3033 JUMPI PUSH2 0x3032 PUSH2 0x73F2 JUMP JUMPDEST JUMPDEST PUSH1 0x20 MUL ADD DUP6 PUSH1 0x1 PUSH1 0x19 DUP2 LT PUSH2 0x304B JUMPI PUSH2 0x304A PUSH2 0x73F2 JUMP JUMPDEST JUMPDEST PUSH1 0x20 MUL ADD DUP3 DUP2 MSTORE POP DUP3 DUP2 MSTORE POP POP POP PUSH1 0x0 PUSH1 0x1 SWAP1 POP JUMPDEST PUSH1 0x2 PUSH1 0x19 PUSH2 0x306E SWAP2 SWAP1 PUSH2 0x779E JUMP JUMPDEST DUP2 LT ISZERO PUSH2 0x3118 JUMPI PUSH2 0x30A4 DUP4 PUSH1 0x40 MLOAD PUSH1 0x20 ADD PUSH2 0x3089 SWAP2 SWAP1 PUSH2 0x761C JUMP JUMPDEST PUSH1 0x40 MLOAD PUSH1 0x20 DUP2 DUP4 SUB SUB DUP2 MSTORE SWAP1 PUSH1 0x40 MSTORE DUP1 MLOAD SWAP1 PUSH1 0x20 ADD KECCAK256 PUSH2 0x26EC JUMP JUMPDEST SWAP3 POP PUSH2 0x30AF DUP4 PUSH2 0x43AA JUMP JUMPDEST DUP6 DUP4 PUSH1 0x2 PUSH2 0x30BD SWAP2 SWAP1 PUSH2 0x737C JUMP JUMPDEST PUSH1 0x19 DUP2 LT PUSH2 0x30CE JUMPI PUSH2 0x30CD PUSH2 0x73F2 JUMP JUMPDEST JUMPDEST PUSH1 0x20 MUL ADD DUP7 PUSH1 0x1 DUP6 PUSH1 0x2 PUSH2 0x30E2 SWAP2 SWAP1 PUSH2 0x737C JUMP JUMPDEST PUSH2 0x30EC SWAP2 SWAP1 PUSH2 0x73BE JUMP JUMPDEST PUSH1 0x19 DUP2 LT PUSH2 0x30FD JUMPI PUSH2 0x30FC PUSH2 0x73F2 JUMP JUMPDEST JUMPDEST PUSH1 0x20 MUL ADD DUP3 DUP2 MSTORE POP DUP3 DUP2 MSTORE POP POP POP DUP1 DUP1 PUSH1 0x1 ADD SWAP2 POP POP PUSH2 0x3060 JUMP JUMPDEST POP PUSH1 0x1 DUP1 PUSH1 0x19 AND EQ DUP1 ISZERO PUSH2 0x312D JUMPI POP PUSH1 0x2 PUSH1 0x19 GT JUMPDEST ISZERO PUSH2 0x319D JUMPI PUSH2 0x3161 DUP3 PUSH1 0x40 MLOAD PUSH1 0x20 ADD PUSH2 0x3146 SWAP2 SWAP1 PUSH2 0x761C JUMP JUMPDEST PUSH1 0x40 MLOAD PUSH1 0x20 DUP2 DUP4 SUB SUB DUP2 MSTORE SWAP1 PUSH1 0x40 MSTORE DUP1 MLOAD SWAP1 PUSH1 0x20 ADD KECCAK256 PUSH2 0x26EC JUMP JUMPDEST SWAP2 POP PUSH1 0x0 PUSH2 0x316E DUP4 PUSH2 0x43AA JUMP JUMPDEST DUP6 PUSH1 0x1 PUSH1 0x19 PUSH2 0x317D SWAP2 SWAP1 PUSH2 0x7421 JUMP JUMPDEST PUSH1 0x19 DUP2 LT PUSH2 0x318E JUMPI PUSH2 0x318D PUSH2 0x73F2 JUMP JUMPDEST JUMPDEST PUSH1 0x20 MUL ADD DUP2 SWAP4 POP DUP3 DUP2 MSTORE POP POP POP POP JUMPDEST POP SWAP3 POP SWAP3 SWAP1 POP JUMP JUMPDEST PUSH2 0x31AD PUSH2 0x6D44 JUMP JUMPDEST PUSH1 0x0 DUP1 PUSH1 0x0 SWAP1 POP JUMPDEST PUSH1 0x1C DUP2 LT ISZERO PUSH2 0x3228 JUMPI PUSH2 0x31ED DUP5 PUSH1 0x40 MLOAD PUSH1 0x20 ADD PUSH2 0x31D2 SWAP2 SWAP1 PUSH2 0x761C JUMP JUMPDEST PUSH1 0x40 MLOAD PUSH1 0x20 DUP2 DUP4 SUB SUB DUP2 MSTORE SWAP1 PUSH1 0x40 MSTORE DUP1 MLOAD SWAP1 PUSH1 0x20 ADD KECCAK256 PUSH2 0x26EC JUMP JUMPDEST SWAP4 POP PUSH1 0x0 PUSH2 0x31FA DUP6 PUSH2 0x43AA JUMP JUMPDEST DUP6 DUP5 PUSH1 0x1C DUP2 LT PUSH2 0x320D JUMPI PUSH2 0x320C PUSH2 0x73F2 JUMP JUMPDEST JUMPDEST PUSH1 0x20 MUL ADD DUP2 SWAP4 POP DUP3 DUP2 MSTORE POP POP POP POP DUP1 DUP1 PUSH1 0x1 ADD SWAP2 POP POP PUSH2 0x31B5 JUMP JUMPDEST POP DUP3 SWAP1 POP SWAP2 POP SWAP2 JUMP JUMPDEST PUSH2 0x3239 PUSH2 0x6D44 JUMP JUMPDEST PUSH1 0x0 DUP1 PUSH1 0x0 SWAP1 POP JUMPDEST PUSH1 0x1C DUP2 LT ISZERO PUSH2 0x3351 JUMPI PUSH2 0x3252 PUSH2 0x6D67 JUMP JUMPDEST DUP5 DUP2 PUSH1 0x0 PUSH1 0x9 DUP2 LT PUSH2 0x3267 JUMPI PUSH2 0x3266 PUSH2 0x73F2 JUMP JUMPDEST JUMPDEST PUSH1 0x20 MUL ADD DUP2 DUP2 MSTORE POP POP PUSH1 0x0 JUMPDEST PUSH1 0x8 DUP2 LT ISZERO PUSH2 0x32E5 JUMPI DUP7 PUSH2 0x160 ADD MLOAD DUP4 PUSH1 0x1C DUP2 LT PUSH2 0x3294 JUMPI PUSH2 0x3293 PUSH2 0x73F2 JUMP JUMPDEST JUMPDEST PUSH1 0x20 MUL ADD MLOAD DUP2 PUSH1 0x8 DUP2 LT PUSH2 0x32AB JUMPI PUSH2 0x32AA PUSH2 0x73F2 JUMP JUMPDEST JUMPDEST PUSH1 0x20 MUL ADD MLOAD DUP3 PUSH1 0x1 DUP4 PUSH2 0x32BE SWAP2 SWAP1 PUSH2 0x73BE JUMP JUMPDEST PUSH1 0x9 DUP2 LT PUSH2 0x32CF JUMPI PUSH2 0x32CE PUSH2 0x73F2 JUMP JUMPDEST JUMPDEST PUSH1 0x20 MUL ADD DUP2 DUP2 MSTORE POP POP DUP1 DUP1 PUSH1 0x1 ADD SWAP2 POP POP PUSH2 0x3273 JUMP JUMPDEST POP PUSH2 0x3315 DUP2 PUSH1 0x40 MLOAD PUSH1 0x20 ADD PUSH2 0x32FA SWAP2 SWAP1 PUSH2 0x789B JUMP JUMPDEST PUSH1 0x40 MLOAD PUSH1 0x20 DUP2 DUP4 SUB SUB DUP2 MSTORE SWAP1 PUSH1 0x40 MSTORE DUP1 MLOAD SWAP1 PUSH1 0x20 ADD KECCAK256 PUSH2 0x26EC JUMP JUMPDEST SWAP5 POP PUSH1 0x0 PUSH2 0x3322 DUP7 PUSH2 0x43AA JUMP JUMPDEST DUP7 DUP6 PUSH1 0x1C DUP2 LT PUSH2 0x3335 JUMPI PUSH2 0x3334 PUSH2 0x73F2 JUMP JUMPDEST JUMPDEST PUSH1 0x20 MUL ADD DUP2 SWAP4 POP DUP3 DUP2 MSTORE POP POP POP POP POP DUP1 DUP1 PUSH1 0x1 ADD SWAP2 POP POP PUSH2 0x3241 JUMP JUMPDEST POP DUP3 SWAP1 POP SWAP3 POP SWAP3 SWAP1 POP JUMP JUMPDEST PUSH1 0x0 DUP1 PUSH2 0x3367 PUSH2 0x6D8A JUMP JUMPDEST DUP4 DUP2 PUSH1 0x0 PUSH1 0x2D DUP2 LT PUSH2 0x337C JUMPI PUSH2 0x337B PUSH2 0x73F2 JUMP JUMPDEST JUMPDEST PUSH1 0x20 MUL ADD DUP2 DUP2 MSTORE POP POP PUSH1 0x0 JUMPDEST PUSH1 0x2C DUP2 LT ISZERO PUSH2 0x33E3 JUMPI DUP6 PUSH2 0x180 ADD MLOAD DUP2 PUSH1 0x2C DUP2 LT PUSH2 0x33A9 JUMPI PUSH2 0x33A8 PUSH2 0x73F2 JUMP JUMPDEST JUMPDEST PUSH1 0x20 MUL ADD MLOAD DUP3 PUSH1 0x1 DUP4 PUSH2 0x33BC SWAP2 SWAP1 PUSH2 0x73BE JUMP JUMPDEST PUSH1 0x2D DUP2 LT PUSH2 0x33CD JUMPI PUSH2 0x33CC PUSH2 0x73F2 JUMP JUMPDEST JUMPDEST PUSH1 0x20 MUL ADD DUP2 DUP2 MSTORE POP POP DUP1 DUP1 PUSH1 0x1 ADD SWAP2 POP POP PUSH2 0x3388 JUMP JUMPDEST POP PUSH2 0x3413 DUP2 PUSH1 0x40 MLOAD PUSH1 0x20 ADD PUSH2 0x33F8 SWAP2 SWAP1 PUSH2 0x793B JUMP JUMPDEST PUSH1 0x40 MLOAD PUSH1 0x20 DUP2 DUP4 SUB SUB DUP2 MSTORE SWAP1 PUSH1 0x40 MSTORE DUP1 MLOAD SWAP1 PUSH1 0x20 ADD KECCAK256 PUSH2 0x26EC JUMP JUMPDEST SWAP2 POP PUSH1 0x0 PUSH2 0x3420 DUP4 PUSH2 0x43AA JUMP JUMPDEST DUP1 SWAP3 POP DUP2 SWAP6 POP POP POP POP POP SWAP3 POP SWAP3 SWAP1 POP JUMP JUMPDEST PUSH1 0x0 DUP1 PUSH2 0x343C PUSH2 0x6DAD JUMP JUMPDEST DUP4 DUP2 PUSH1 0x0 PUSH1 0x6D DUP2 LT PUSH2 0x3451 JUMPI PUSH2 0x3450 PUSH2 0x73F2 JUMP JUMPDEST JUMPDEST PUSH1 0x20 MUL ADD DUP2 DUP2 MSTORE POP POP PUSH1 0x0 JUMPDEST PUSH1 0x1 PUSH1 0x1C PUSH2 0x346B SWAP2 SWAP1 PUSH2 0x7421 JUMP JUMPDEST DUP2 LT ISZERO PUSH2 0x35D3 JUMPI DUP6 PUSH2 0x1A0 ADD MLOAD DUP2 PUSH1 0x1B DUP2 LT PUSH2 0x348A JUMPI PUSH2 0x3489 PUSH2 0x73F2 JUMP JUMPDEST JUMPDEST PUSH1 0x20 MUL ADD MLOAD PUSH1 0x0 ADD MLOAD DUP3 PUSH1 0x4 DUP4 PUSH2 0x34A1 SWAP2 SWAP1 PUSH2 0x737C JUMP JUMPDEST PUSH1 0x1 PUSH2 0x34AD SWAP2 SWAP1 PUSH2 0x73BE JUMP JUMPDEST PUSH1 0x6D DUP2 LT PUSH2 0x34BE JUMPI PUSH2 0x34BD PUSH2 0x73F2 JUMP JUMPDEST JUMPDEST PUSH1 0x20 MUL ADD DUP2 DUP2 MSTORE POP POP DUP6 PUSH2 0x1A0 ADD MLOAD DUP2 PUSH1 0x1B DUP2 LT PUSH2 0x34DF JUMPI PUSH2 0x34DE PUSH2 0x73F2 JUMP JUMPDEST JUMPDEST PUSH1 0x20 MUL ADD MLOAD PUSH1 0x20 ADD MLOAD DUP3 PUSH1 0x4 DUP4 PUSH2 0x34F6 SWAP2 SWAP1 PUSH2 0x737C JUMP JUMPDEST PUSH1 0x2 PUSH2 0x3502 SWAP2 SWAP1 PUSH2 0x73BE JUMP JUMPDEST PUSH1 0x6D DUP2 LT PUSH2 0x3513 JUMPI PUSH2 0x3512 PUSH2 0x73F2 JUMP JUMPDEST JUMPDEST PUSH1 0x20 MUL ADD DUP2 DUP2 MSTORE POP POP DUP6 PUSH2 0x1A0 ADD MLOAD DUP2 PUSH1 0x1B DUP2 LT PUSH2 0x3534 JUMPI PUSH2 0x3533 PUSH2 0x73F2 JUMP JUMPDEST JUMPDEST PUSH1 0x20 MUL ADD MLOAD PUSH1 0x40 ADD MLOAD DUP3 PUSH1 0x4 DUP4 PUSH2 0x354B SWAP2 SWAP1 PUSH2 0x737C JUMP JUMPDEST PUSH1 0x3 PUSH2 0x3557 SWAP2 SWAP1 PUSH2 0x73BE JUMP JUMPDEST PUSH1 0x6D DUP2 LT PUSH2 0x3568 JUMPI PUSH2 0x3567 PUSH2 0x73F2 JUMP JUMPDEST JUMPDEST PUSH1 0x20 MUL ADD DUP2 DUP2 MSTORE POP POP DUP6 PUSH2 0x1A0 ADD MLOAD DUP2 PUSH1 0x1B DUP2 LT PUSH2 0x3589 JUMPI PUSH2 0x3588 PUSH2 0x73F2 JUMP JUMPDEST JUMPDEST PUSH1 0x20 MUL ADD MLOAD PUSH1 0x60 ADD MLOAD DUP3 PUSH1 0x4 DUP4 PUSH2 0x35A0 SWAP2 SWAP1 PUSH2 0x737C JUMP JUMPDEST PUSH1 0x4 PUSH2 0x35AC SWAP2 SWAP1 PUSH2 0x73BE JUMP JUMPDEST PUSH1 0x6D DUP2 LT PUSH2 0x35BD JUMPI PUSH2 0x35BC PUSH2 0x73F2 JUMP JUMPDEST JUMPDEST PUSH1 0x20 MUL ADD DUP2 DUP2 MSTORE POP POP DUP1 DUP1 PUSH1 0x1 ADD SWAP2 POP POP PUSH2 0x345D JUMP JUMPDEST POP PUSH2 0x3603 DUP2 PUSH1 0x40 MLOAD PUSH1 0x20 ADD PUSH2 0x35E8 SWAP2 SWAP1 PUSH2 0x79DB JUMP JUMPDEST PUSH1 0x40 MLOAD PUSH1 0x20 DUP2 DUP4 SUB SUB DUP2 MSTORE SWAP1 PUSH1 0x40 MSTORE DUP1 MLOAD SWAP1 PUSH1 0x20 ADD KECCAK256 PUSH2 0x26EC JUMP JUMPDEST SWAP2 POP PUSH1 0x0 PUSH2 0x3610 DUP4 PUSH2 0x43AA JUMP JUMPDEST DUP1 SWAP3 POP DUP2 SWAP6 POP POP POP POP POP SWAP3 POP SWAP3 SWAP1 POP JUMP JUMPDEST PUSH1 0x0 DUP1 PUSH2 0x362C PUSH2 0x6DD0 JUMP JUMPDEST DUP4 DUP2 PUSH1 0x0 PUSH1 0x1D DUP2 LT PUSH2 0x3641 JUMPI PUSH2 0x3640 PUSH2 0x73F2 JUMP JUMPDEST JUMPDEST PUSH1 0x20 MUL ADD DUP2 DUP2 MSTORE POP POP PUSH1 0x0 JUMPDEST PUSH1 0x1C DUP2 LT ISZERO PUSH2 0x36A8 JUMPI DUP6 PUSH2 0x1C0 ADD MLOAD DUP2 PUSH1 0x1C DUP2 LT PUSH2 0x366E JUMPI PUSH2 0x366D PUSH2 0x73F2 JUMP JUMPDEST JUMPDEST PUSH1 0x20 MUL ADD MLOAD DUP3 PUSH1 0x1 DUP4 PUSH2 0x3681 SWAP2 SWAP1 PUSH2 0x73BE JUMP JUMPDEST PUSH1 0x1D DUP2 LT PUSH2 0x3692 JUMPI PUSH2 0x3691 PUSH2 0x73F2 JUMP JUMPDEST JUMPDEST PUSH1 0x20 MUL ADD DUP2 DUP2 MSTORE POP POP DUP1 DUP1 PUSH1 0x1 ADD SWAP2 POP POP PUSH2 0x364D JUMP JUMPDEST POP PUSH2 0x36D8 DUP2 PUSH1 0x40 MLOAD PUSH1 0x20 ADD PUSH2 0x36BD SWAP2 SWAP1 PUSH2 0x7A7B JUMP JUMPDEST PUSH1 0x40 MLOAD PUSH1 0x20 DUP2 DUP4 SUB SUB DUP2 MSTORE SWAP1 PUSH1 0x40 MSTORE DUP1 MLOAD SWAP1 PUSH1 0x20 ADD KECCAK256 PUSH2 0x26EC JUMP JUMPDEST SWAP2 POP PUSH1 0x0 PUSH2 0x36E5 DUP4 PUSH2 0x43AA JUMP JUMPDEST DUP1 SWAP3 POP DUP2 SWAP6 POP POP POP POP POP SWAP3 POP SWAP3 SWAP1 POP JUMP JUMPDEST PUSH1 0x0 DUP1 PUSH2 0x3701 PUSH2 0x6DF3 JUMP JUMPDEST DUP4 DUP2 PUSH1 0x0 PUSH1 0x5 DUP2 LT PUSH2 0x3716 JUMPI PUSH2 0x3715 PUSH2 0x73F2 JUMP JUMPDEST JUMPDEST PUSH1 0x20 MUL ADD DUP2 DUP2 MSTORE POP POP DUP5 PUSH2 0x1E0 ADD MLOAD PUSH1 0x0 ADD MLOAD DUP2 PUSH1 0x1 PUSH1 0x5 DUP2 LT PUSH2 0x373D JUMPI PUSH2 0x373C PUSH2 0x73F2 JUMP JUMPDEST JUMPDEST PUSH1 0x20 MUL ADD DUP2 DUP2 MSTORE POP POP DUP5 PUSH2 0x1E0 ADD MLOAD PUSH1 0x20 ADD MLOAD DUP2 PUSH1 0x2 PUSH1 0x5 DUP2 LT PUSH2 0x3764 JUMPI PUSH2 0x3763 PUSH2 0x73F2 JUMP JUMPDEST JUMPDEST PUSH1 0x20 MUL ADD DUP2 DUP2 MSTORE POP POP DUP5 PUSH2 0x1E0 ADD MLOAD PUSH1 0x40 ADD MLOAD DUP2 PUSH1 0x3 PUSH1 0x5 DUP2 LT PUSH2 0x378B JUMPI PUSH2 0x378A PUSH2 0x73F2 JUMP JUMPDEST JUMPDEST PUSH1 0x20 MUL ADD DUP2 DUP2 MSTORE POP POP DUP5 PUSH2 0x1E0 ADD MLOAD PUSH1 0x60 ADD MLOAD DUP2 PUSH1 0x4 PUSH1 0x5 DUP2 LT PUSH2 0x37B2 JUMPI PUSH2 0x37B1 PUSH2 0x73F2 JUMP JUMPDEST JUMPDEST PUSH1 0x20 MUL ADD DUP2 DUP2 MSTORE POP POP PUSH2 0x37EA DUP2 PUSH1 0x40 MLOAD PUSH1 0x20 ADD PUSH2 0x37CF SWAP2 SWAP1 PUSH2 0x7B1B JUMP JUMPDEST PUSH1 0x40 MLOAD PUSH1 0x20 DUP2 DUP4 SUB SUB DUP2 MSTORE SWAP1 PUSH1 0x40 MSTORE DUP1 MLOAD SWAP1 PUSH1 0x20 ADD KECCAK256 PUSH2 0x26EC JUMP JUMPDEST SWAP2 POP PUSH1 0x0 PUSH2 0x37F7 DUP4 PUSH2 0x43AA JUMP JUMPDEST DUP1 SWAP3 POP DUP2 SWAP6 POP POP POP POP POP SWAP3 POP SWAP3 SWAP1 POP JUMP JUMPDEST PUSH1 0x0 PUSH32 0x30644E72E131A029B85045B68181585D2833E84879B9709143E1F593F0000001 DUP3 PUSH2 0x3836 SWAP2 SWAP1 PUSH2 0x74CC JUMP JUMPDEST SWAP1 POP SWAP2 SWAP1 POP JUMP JUMPDEST PUSH1 0x0 PUSH32 0x30644E72E131A029B85045B68181585D2833E84879B9709143E1F593F0000001 DUP1 PUSH2 0x386E JUMPI PUSH2 0x386D PUSH2 0x749D JUMP JUMPDEST JUMPDEST DUP3 DUP5 MULMOD SWAP1 POP SWAP3 SWAP2 POP POP JUMP JUMPDEST PUSH1 0x0 PUSH32 0x30644E72E131A029B85045B68181585D2833E84879B9709143E1F593F0000001 DUP1 PUSH2 0x38AA JUMPI PUSH2 0x38A9 PUSH2 0x749D JUMP JUMPDEST JUMPDEST DUP3 DUP5 ADDMOD SWAP1 POP SWAP3 SWAP2 POP POP JUMP JUMPDEST PUSH1 0x0 PUSH32 0x30644E72E131A029B85045B68181585D2833E84879B9709143E1F593F0000001 DUP1 PUSH2 0x38E6 JUMPI PUSH2 0x38E5 PUSH2 0x749D JUMP JUMPDEST JUMPDEST DUP3 PUSH32 0x30644E72E131A029B85045B68181585D2833E84879B9709143E1F593F0000001 PUSH2 0x3912 SWAP2 SWAP1 PUSH2 0x7421 JUMP JUMPDEST DUP5 ADDMOD SWAP1 POP SWAP3 SWAP2 POP POP JUMP JUMPDEST PUSH1 0x0 PUSH2 0x3930 DUP4 PUSH2 0x392B DUP5 PUSH2 0x3E2D JUMP JUMPDEST PUSH2 0x383D JUMP JUMPDEST SWAP1 POP SWAP3 SWAP2 POP POP JUMP JUMPDEST PUSH1 0x0 DUP1 PUSH2 0x3975 DUP5 PUSH1 0x0 PUSH1 0x8 DUP2 LT PUSH2 0x3952 JUMPI PUSH2 0x3951 PUSH2 0x73F2 JUMP JUMPDEST JUMPDEST PUSH1 0x20 MUL ADD MLOAD DUP6 PUSH1 0x1 PUSH1 0x8 DUP2 LT PUSH2 0x396B JUMPI PUSH2 0x396A PUSH2 0x73F2 JUMP JUMPDEST JUMPDEST PUSH1 0x20 MUL ADD MLOAD PUSH2 0x3879 JUMP JUMPDEST SWAP1 POP PUSH2 0x3981 DUP2 DUP5 PUSH2 0x3CAD JUMP JUMPDEST SWAP2 POP POP SWAP3 SWAP2 POP POP JUMP JUMPDEST PUSH1 0x0 DUP1 PUSH1 0x40 MLOAD DUP1 PUSH2 0x100 ADD PUSH1 0x40 MSTORE DUP1 PUSH32 0x30644E72E131A029B85045B68181585D2833E84879B9709143E1F593EFFFEC51 DUP2 MSTORE PUSH1 0x20 ADD PUSH2 0x2D0 DUP2 MSTORE PUSH1 0x20 ADD PUSH32 0x30644E72E131A029B85045B68181585D2833E84879B9709143E1F593EFFFFF11 DUP2 MSTORE PUSH1 0x20 ADD PUSH1 0x90 DUP2 MSTORE PUSH1 0x20 ADD PUSH32 0x30644E72E131A029B85045B68181585D2833E84879B9709143E1F593EFFFFF71 DUP2 MSTORE PUSH1 0x20 ADD PUSH1 0xF0 DUP2 MSTORE PUSH1 0x20 ADD PUSH32 0x30644E72E131A029B85045B68181585D2833E84879B9709143E1F593EFFFFD31 DUP2 MSTORE PUSH1 0x20 ADD PUSH2 0x13B0 DUP2 MSTORE POP SWAP1 POP PUSH1 0x0 PUSH1 0x40 MLOAD DUP1 PUSH2 0x100 ADD PUSH1 0x40 MSTORE DUP1 PUSH1 0x0 DUP2 MSTORE PUSH1 0x20 ADD PUSH1 0x1 DUP2 MSTORE PUSH1 0x20 ADD PUSH1 0x2 DUP2 MSTORE PUSH1 0x20 ADD PUSH1 0x3 DUP2 MSTORE PUSH1 0x20 ADD PUSH1 0x4 DUP2 MSTORE PUSH1 0x20 ADD PUSH1 0x5 DUP2 MSTORE PUSH1 0x20 ADD PUSH1 0x6 DUP2 MSTORE PUSH1 0x20 ADD PUSH1 0x7 DUP2 MSTORE POP SWAP1 POP PUSH1 0x0 PUSH1 0x1 SWAP1 POP PUSH1 0x0 JUMPDEST PUSH1 0x8 DUP2 LT ISZERO PUSH2 0x3AC7 JUMPI PUSH2 0x3ABA DUP3 PUSH2 0x3AB5 DUP9 DUP5 PUSH2 0x38B5 JUMP JUMPDEST PUSH2 0x383D JUMP JUMPDEST SWAP2 POP DUP1 PUSH1 0x1 ADD SWAP1 POP PUSH2 0x3A9E JUMP JUMPDEST POP PUSH2 0x3AD0 PUSH2 0x6E15 JUMP JUMPDEST PUSH1 0x0 JUMPDEST PUSH1 0x8 DUP2 LT ISZERO PUSH2 0x3B58 JUMPI PUSH1 0x0 DUP6 DUP3 PUSH1 0x8 DUP2 LT PUSH2 0x3AF1 JUMPI PUSH2 0x3AF0 PUSH2 0x73F2 JUMP JUMPDEST JUMPDEST PUSH1 0x20 MUL ADD MLOAD SWAP1 POP PUSH2 0x3B22 DUP2 PUSH2 0x3B1D DUP11 DUP9 DUP7 PUSH1 0x8 DUP2 LT PUSH2 0x3B13 JUMPI PUSH2 0x3B12 PUSH2 0x73F2 JUMP JUMPDEST JUMPDEST PUSH1 0x20 MUL ADD MLOAD PUSH2 0x38B5 JUMP JUMPDEST PUSH2 0x383D JUMP JUMPDEST SWAP1 POP PUSH2 0x3B2D DUP2 PUSH2 0x3E2D JUMP JUMPDEST SWAP1 POP DUP1 DUP4 DUP4 PUSH1 0x8 DUP2 LT PUSH2 0x3B43 JUMPI PUSH2 0x3B42 PUSH2 0x73F2 JUMP JUMPDEST JUMPDEST PUSH1 0x20 MUL ADD DUP2 DUP2 MSTORE POP POP POP DUP1 PUSH1 0x1 ADD SWAP1 POP PUSH2 0x3AD3 JUMP JUMPDEST POP PUSH1 0x0 JUMPDEST PUSH1 0x8 DUP2 LT ISZERO PUSH2 0x3BBC JUMPI PUSH1 0x0 DUP9 DUP3 PUSH1 0x8 DUP2 LT PUSH2 0x3B7A JUMPI PUSH2 0x3B79 PUSH2 0x73F2 JUMP JUMPDEST JUMPDEST PUSH1 0x20 MUL ADD MLOAD SWAP1 POP PUSH2 0x3BA2 DUP2 DUP5 DUP5 PUSH1 0x8 DUP2 LT PUSH2 0x3B98 JUMPI PUSH2 0x3B97 PUSH2 0x73F2 JUMP JUMPDEST JUMPDEST PUSH1 0x20 MUL ADD MLOAD PUSH2 0x383D JUMP JUMPDEST SWAP1 POP PUSH2 0x3BAE DUP8 DUP3 PUSH2 0x3879 JUMP JUMPDEST SWAP7 POP POP DUP1 PUSH1 0x1 ADD SWAP1 POP PUSH2 0x3B5C JUMP JUMPDEST POP PUSH2 0x3BC7 DUP6 DUP4 PUSH2 0x383D JUMP JUMPDEST SWAP5 POP POP POP POP POP SWAP3 SWAP2 POP POP JUMP JUMPDEST PUSH1 0x0 DUP1 PUSH2 0x3C0F PUSH1 0x1 PUSH2 0x3C0A DUP7 PUSH2 0x3C05 DUP11 PUSH1 0xC0 ADD MLOAD DUP9 PUSH1 0x1C DUP2 LT PUSH2 0x3BF9 JUMPI PUSH2 0x3BF8 PUSH2 0x73F2 JUMP JUMPDEST JUMPDEST PUSH1 0x20 MUL ADD MLOAD PUSH1 0x1 PUSH2 0x38B5 JUMP JUMPDEST PUSH2 0x383D JUMP JUMPDEST PUSH2 0x3879 JUMP JUMPDEST SWAP1 POP PUSH2 0x3C1B DUP6 DUP3 PUSH2 0x383D JUMP JUMPDEST SWAP2 POP POP SWAP5 SWAP4 POP POP POP POP JUMP JUMPDEST PUSH1 0x0 DUP1 DUP5 PUSH2 0x180 ADD MLOAD SWAP1 POP PUSH2 0x3C39 PUSH2 0x6E38 JUMP JUMPDEST PUSH2 0x3C44 DUP3 DUP3 DUP7 PUSH2 0x4403 JUMP JUMPDEST PUSH2 0x3C50 DUP3 DUP7 DUP4 DUP8 PUSH2 0x4648 JUMP JUMPDEST PUSH2 0x3C5C DUP3 DUP7 DUP4 DUP8 PUSH2 0x4945 JUMP JUMPDEST PUSH2 0x3C67 DUP3 DUP3 DUP7 PUSH2 0x4BEB JUMP JUMPDEST PUSH2 0x3C72 DUP3 DUP3 DUP7 PUSH2 0x4EC3 JUMP JUMPDEST PUSH2 0x3C7E DUP3 DUP7 DUP4 DUP8 PUSH2 0x5310 JUMP JUMPDEST PUSH2 0x3C89 DUP3 DUP3 DUP7 PUSH2 0x5FAA JUMP JUMPDEST PUSH2 0x3C94 DUP3 DUP3 DUP7 PUSH2 0x646A JUMP JUMPDEST PUSH2 0x3CA2 DUP2 DUP7 PUSH1 0xA0 ADD MLOAD PUSH2 0x68BD JUMP JUMPDEST SWAP3 POP POP POP SWAP4 SWAP3 POP POP POP JUMP JUMPDEST PUSH1 0x0 DUP2 DUP4 EQ SWAP1 POP SWAP3 SWAP2 POP POP JUMP JUMPDEST PUSH2 0x3CC2 PUSH2 0x6D44 JUMP JUMPDEST DUP2 DUP2 PUSH1 0x0 PUSH1 0x1C DUP2 LT PUSH2 0x3CD7 JUMPI PUSH2 0x3CD6 PUSH2 0x73F2 JUMP JUMPDEST JUMPDEST PUSH1 0x20 MUL ADD DUP2 DUP2 MSTORE POP POP PUSH1 0x0 PUSH1 0x1 SWAP1 POP JUMPDEST PUSH1 0x1C DUP2 LT ISZERO PUSH2 0x3D43 JUMPI PUSH2 0x3D1C DUP3 PUSH1 0x1 DUP4 PUSH2 0x3D01 SWAP2 SWAP1 PUSH2 0x7421 JUMP JUMPDEST PUSH1 0x1C DUP2 LT PUSH2 0x3D12 JUMPI PUSH2 0x3D11 PUSH2 0x73F2 JUMP JUMPDEST JUMPDEST PUSH1 0x20 MUL ADD MLOAD PUSH2 0x3F39 JUMP JUMPDEST DUP3 DUP3 PUSH1 0x1C DUP2 LT PUSH2 0x3D2F JUMPI PUSH2 0x3D2E PUSH2 0x73F2 JUMP JUMPDEST JUMPDEST PUSH1 0x20 MUL ADD DUP2 DUP2 MSTORE POP POP DUP1 PUSH1 0x1 ADD SWAP1 POP PUSH2 0x3CE7 JUMP JUMPDEST POP SWAP2 SWAP1 POP JUMP JUMPDEST PUSH2 0x3D51 PUSH2 0x6E5B JUMP JUMPDEST PUSH1 0x0 DUP4 PUSH2 0x160 ADD MLOAD SWAP1 POP PUSH2 0x3D85 PUSH2 0x3D80 DUP3 DUP6 PUSH1 0x0 PUSH1 0x1C DUP2 LT PUSH2 0x3D76 JUMPI PUSH2 0x3D75 PUSH2 0x73F2 JUMP JUMPDEST JUMPDEST PUSH1 0x20 MUL ADD MLOAD PUSH2 0x38B5 JUMP JUMPDEST PUSH2 0x3E2D JUMP JUMPDEST DUP3 PUSH1 0x0 PUSH1 0x1D DUP2 LT PUSH2 0x3D99 JUMPI PUSH2 0x3D98 PUSH2 0x73F2 JUMP JUMPDEST JUMPDEST PUSH1 0x20 MUL ADD DUP2 DUP2 MSTORE POP POP PUSH1 0x0 JUMPDEST PUSH1 0x1C DUP2 LT ISZERO PUSH2 0x3E25 JUMPI PUSH1 0x0 PUSH1 0x1 PUSH1 0x12 PUSH2 0x3DBE SWAP2 SWAP1 PUSH2 0x73BE JUMP JUMPDEST DUP3 GT PUSH2 0x3DF0 JUMPI PUSH2 0x3DED PUSH2 0x3DE8 DUP5 DUP8 DUP6 PUSH1 0x1C DUP2 LT PUSH2 0x3DDE JUMPI PUSH2 0x3DDD PUSH2 0x73F2 JUMP JUMPDEST JUMPDEST PUSH1 0x20 MUL ADD MLOAD PUSH2 0x3879 JUMP JUMPDEST PUSH2 0x3E2D JUMP JUMPDEST SWAP1 POP JUMPDEST DUP1 DUP5 PUSH1 0x1 DUP5 PUSH2 0x3DFF SWAP2 SWAP1 PUSH2 0x73BE JUMP JUMPDEST PUSH1 0x1D DUP2 LT PUSH2 0x3E10 JUMPI PUSH2 0x3E0F PUSH2 0x73F2 JUMP JUMPDEST JUMPDEST PUSH1 0x20 MUL ADD DUP2 DUP2 MSTORE POP POP POP DUP1 PUSH1 0x1 ADD SWAP1 POP PUSH2 0x3DA5 JUMP JUMPDEST POP POP SWAP3 SWAP2 POP POP JUMP JUMPDEST PUSH1 0x0 DUP1 DUP3 SWAP1 POP PUSH1 0x0 PUSH1 0x40 MLOAD PUSH1 0x20 DUP2 MSTORE PUSH1 0x20 DUP1 DUP3 ADD MSTORE PUSH1 0x20 PUSH1 0x40 DUP3 ADD MSTORE DUP3 PUSH1 0x60 DUP3 ADD MSTORE PUSH1 0x2 PUSH32 0x30644E72E131A029B85045B68181585D2833E84879B9709143E1F593F0000001 SUB PUSH1 0x80 DUP3 ADD MSTORE PUSH32 0x30644E72E131A029B85045B68181585D2833E84879B9709143E1F593F0000001 PUSH1 0xA0 DUP3 ADD MSTORE PUSH1 0x20 PUSH1 0x0 PUSH1 0xC0 DUP4 PUSH1 0x5 GAS STATICCALL DUP1 PUSH2 0x3EB3 JUMPI PUSH1 0x0 DUP1 REVERT JUMPDEST PUSH1 0x0 MLOAD SWAP3 POP POP POP DUP1 SWAP3 POP POP POP SWAP2 SWAP1 POP JUMP JUMPDEST PUSH2 0x3ECC PUSH2 0x6E7E JUMP JUMPDEST PUSH1 0x40 MLOAD DUP1 PUSH1 0x40 ADD PUSH1 0x40 MSTORE DUP1 PUSH1 0x88 DUP5 PUSH1 0x20 ADD MLOAD SWAP1 SHL DUP5 PUSH1 0x0 ADD MLOAD OR DUP2 MSTORE PUSH1 0x20 ADD PUSH1 0x88 DUP5 PUSH1 0x60 ADD MLOAD SWAP1 SHL DUP5 PUSH1 0x40 ADD MLOAD OR DUP2 MSTORE POP SWAP1 POP SWAP2 SWAP1 POP JUMP JUMPDEST PUSH1 0x0 DUP2 PUSH32 0x30644E72E131A029B85045B68181585D2833E84879B9709143E1F593F0000001 PUSH2 0x3F32 SWAP2 SWAP1 PUSH2 0x7421 JUMP JUMPDEST SWAP1 POP SWAP2 SWAP1 POP JUMP JUMPDEST PUSH1 0x0 PUSH2 0x3F45 DUP3 DUP4 PUSH2 0x383D JUMP JUMPDEST SWAP1 POP SWAP2 SWAP1 POP JUMP JUMPDEST PUSH1 0x0 DUP1 PUSH1 0x1C SWAP1 POP JUMPDEST PUSH1 0x0 DUP2 GT ISZERO PUSH2 0x4076 JUMPI PUSH1 0x0 DUP4 PUSH1 0x1 DUP4 PUSH2 0x3F6D SWAP2 SWAP1 PUSH2 0x7421 JUMP JUMPDEST PUSH1 0x1C DUP2 LT PUSH2 0x3F7E JUMPI PUSH2 0x3F7D PUSH2 0x73F2 JUMP JUMPDEST JUMPDEST PUSH1 0x20 MUL ADD MLOAD SWAP1 POP PUSH1 0x0 DUP8 PUSH1 0xE0 ADD MLOAD PUSH1 0x1 DUP5 PUSH2 0x3F99 SWAP2 SWAP1 PUSH2 0x7421 JUMP JUMPDEST PUSH1 0x1C DUP2 LT PUSH2 0x3FAA JUMPI PUSH2 0x3FA9 PUSH2 0x73F2 JUMP JUMPDEST JUMPDEST PUSH1 0x20 MUL ADD MLOAD SWAP1 POP PUSH1 0x0 DUP7 PUSH1 0x1 DUP6 PUSH2 0x3FC1 SWAP2 SWAP1 PUSH2 0x7421 JUMP JUMPDEST PUSH1 0x1C DUP2 LT PUSH2 0x3FD2 JUMPI PUSH2 0x3FD1 PUSH2 0x73F2 JUMP JUMPDEST JUMPDEST PUSH1 0x20 MUL ADD MLOAD SWAP1 POP PUSH1 0x0 PUSH2 0x401D PUSH2 0x3FF2 PUSH2 0x3FEB DUP7 DUP13 PUSH2 0x383D JUMP JUMPDEST PUSH1 0x2 PUSH2 0x383D JUMP JUMPDEST PUSH2 0x4018 DUP5 PUSH2 0x4013 PUSH2 0x400D DUP10 PUSH2 0x4008 PUSH1 0x1 DUP12 PUSH2 0x38B5 JUMP JUMPDEST PUSH2 0x383D JUMP JUMPDEST DUP9 PUSH2 0x38B5 JUMP JUMPDEST PUSH2 0x383D JUMP JUMPDEST PUSH2 0x38B5 JUMP JUMPDEST SWAP1 POP PUSH2 0x404D DUP2 PUSH2 0x4048 PUSH2 0x4043 PUSH2 0x403D DUP9 PUSH2 0x4038 PUSH1 0x1 DUP11 PUSH2 0x38B5 JUMP JUMPDEST PUSH2 0x383D JUMP JUMPDEST DUP8 PUSH2 0x3879 JUMP JUMPDEST PUSH2 0x3E2D JUMP JUMPDEST PUSH2 0x383D JUMP JUMPDEST SWAP1 POP PUSH1 0x0 PUSH1 0x12 DUP7 GT SWAP1 POP DUP1 PUSH2 0x4060 JUMPI DUP2 SWAP10 POP JUMPDEST POP POP POP POP POP DUP1 PUSH2 0x406F SWAP1 PUSH2 0x7B36 JUMP JUMPDEST SWAP1 POP PUSH2 0x3F54 JUMP JUMPDEST POP DUP4 SWAP1 POP SWAP5 SWAP4 POP POP POP POP JUMP JUMPDEST PUSH2 0x408A PUSH2 0x6E7E JUMP JUMPDEST PUSH1 0x0 PUSH1 0x2 PUSH1 0x1C PUSH1 0x2C PUSH2 0x409C SWAP2 SWAP1 PUSH2 0x73BE JUMP JUMPDEST PUSH2 0x40A6 SWAP2 SWAP1 PUSH2 0x73BE JUMP JUMPDEST SWAP1 POP PUSH1 0x1 PUSH1 0x40 MLOAD DUP6 MLOAD MLOAD PUSH1 0x40 DUP3 ADD MSTORE DUP6 MLOAD PUSH1 0x20 ADD MLOAD PUSH1 0x60 DUP3 ADD MSTORE DUP5 MLOAD PUSH1 0x80 DUP3 ADD MSTORE PUSH1 0x40 DUP2 PUSH1 0x60 PUSH1 0x40 DUP5 ADD PUSH1 0x7 GAS STATICCALL DUP3 AND SWAP2 POP PUSH1 0x1 JUMPDEST DUP4 DUP2 LT ISZERO PUSH2 0x4137 JUMPI PUSH1 0x20 DUP2 MUL DUP8 ADD PUSH1 0x20 DUP3 MUL DUP8 ADD DUP2 MLOAD MLOAD PUSH1 0x40 DUP6 ADD MSTORE DUP2 MLOAD PUSH1 0x20 ADD MLOAD PUSH1 0x60 DUP6 ADD MSTORE DUP1 MLOAD PUSH1 0x80 DUP6 ADD MSTORE PUSH1 0x40 DUP1 DUP6 ADD PUSH1 0x60 PUSH1 0x40 DUP8 ADD PUSH1 0x7 GAS STATICCALL DUP6 AND SWAP5 POP PUSH1 0x40 DUP5 PUSH1 0x80 DUP7 PUSH1 0x6 GAS STATICCALL DUP6 AND SWAP5 POP POP POP PUSH1 0x1 DUP2 ADD SWAP1 POP PUSH2 0x40DB JUMP JUMPDEST DUP2 MLOAD DUP6 MSTORE PUSH1 0x20 DUP3 ADD MLOAD PUSH1 0x20 DUP7 ADD MSTORE POP POP POP POP SWAP3 SWAP2 POP POP JUMP JUMPDEST PUSH2 0x4157 PUSH2 0x6E7E JUMP JUMPDEST PUSH32 0x30644E72E131A029B85045B68181585D97816A916871CA8D3C208C16D87CFD47 DUP3 PUSH1 0x20 ADD MLOAD PUSH32 0x30644E72E131A029B85045B68181585D97816A916871CA8D3C208C16D87CFD47 PUSH2 0x41A8 SWAP2 SWAP1 PUSH2 0x7421 JUMP JUMPDEST PUSH2 0x41B2 SWAP2 SWAP1 PUSH2 0x74CC JUMP JUMPDEST DUP3 PUSH1 0x20 ADD DUP2 DUP2 MSTORE POP POP DUP2 SWAP1 POP SWAP2 SWAP1 POP JUMP JUMPDEST PUSH1 0x0 DUP1 DUP4 PUSH1 0x0 ADD MLOAD DUP5 PUSH1 0x20 ADD MLOAD PUSH32 0x198E9393920D483A7260BFB731FB5D25F1AA493335A9E71297E485B7AEF312C2 PUSH32 0x1800DEEF121F1E76426A00665E5C4479674322D4F75EDADD46DEBD5CD992F6ED PUSH32 0x90689D0585FF075EC9E99AD690C3395BC4B313370B38EF355ACDADCD122975B PUSH32 0x12C85EA5DB8C6DEB4AAB71808DCB408FE3D1E7690C43D37B4CE6CC0166FA7DAA DUP9 PUSH1 0x0 ADD MLOAD DUP10 PUSH1 0x20 ADD MLOAD PUSH32 0x260E01B251F6F1C7E7FF4E580791DEE8EA51D87A358E038B4EFE30FAC09383C1 PUSH32 0x118C4D5B837BCC2BC89B5B398B5974E9F5944073B32078B7E231FEC938883B0 PUSH32 0x4FC6369F7110FE3D25156C1BB9A72859CF2A04641F99BA4EE413C80DA6A5FE4 PUSH32 0x22FEBDA3C0C0632A56475B4214E5615E11E6DD3F96E6CEA2854A87D4DACC5E55 PUSH1 0x40 MLOAD PUSH1 0x20 ADD PUSH2 0x42FD SWAP13 SWAP12 SWAP11 SWAP10 SWAP9 SWAP8 SWAP7 SWAP6 SWAP5 SWAP4 SWAP3 SWAP2 SWAP1 PUSH2 0x7B5F JUMP JUMPDEST PUSH1 0x40 MLOAD PUSH1 0x20 DUP2 DUP4 SUB SUB DUP2 MSTORE SWAP1 PUSH1 0x40 MSTORE SWAP1 POP PUSH1 0x0 DUP1 PUSH1 0x8 PUSH20 0xFFFFFFFFFFFFFFFFFFFFFFFFFFFFFFFFFFFFFFFF AND DUP4 PUSH1 0x40 MLOAD PUSH2 0x4337 SWAP2 SWAP1 PUSH2 0x7CA6 JUMP JUMPDEST PUSH1 0x0 PUSH1 0x40 MLOAD DUP1 DUP4 SUB DUP2 DUP6 GAS STATICCALL SWAP2 POP POP RETURNDATASIZE DUP1 PUSH1 0x0 DUP2 EQ PUSH2 0x4372 JUMPI PUSH1 0x40 MLOAD SWAP2 POP PUSH1 0x1F NOT PUSH1 0x3F RETURNDATASIZE ADD AND DUP3 ADD PUSH1 0x40 MSTORE RETURNDATASIZE DUP3 MSTORE RETURNDATASIZE PUSH1 0x0 PUSH1 0x20 DUP5 ADD RETURNDATACOPY PUSH2 0x4377 JUMP JUMPDEST PUSH1 0x60 SWAP2 POP JUMPDEST POP SWAP2 POP SWAP2 POP PUSH1 0x0 DUP2 DUP1 PUSH1 0x20 ADD SWAP1 MLOAD DUP2 ADD SWAP1 PUSH2 0x4392 SWAP2 SWAP1 PUSH2 0x7CE9 JUMP JUMPDEST SWAP1 POP DUP3 DUP1 ISZERO PUSH2 0x439E JUMPI POP DUP1 JUMPDEST SWAP5 POP POP POP POP POP SWAP3 SWAP2 POP POP JUMP JUMPDEST PUSH1 0x0 DUP1 PUSH1 0x0 DUP4 SWAP1 POP PUSH1 0x0 PUSH16 0xFFFFFFFFFFFFFFFFFFFFFFFFFFFFFFFF DUP3 AND SWAP1 POP PUSH1 0x0 PUSH1 0x80 DUP4 SWAP1 SHR SWAP1 POP PUSH2 0x43DE DUP3 PUSH1 0x0 SHL PUSH2 0x26EC JUMP JUMPDEST SWAP5 POP PUSH2 0x43EC DUP2 PUSH1 0x0 SHL PUSH2 0x26EC JUMP JUMPDEST SWAP4 POP POP POP POP SWAP2 POP SWAP2 JUMP JUMPDEST PUSH1 0x0 DUP2 PUSH1 0x0 SHL SWAP1 POP SWAP2 SWAP1 POP JUMP JUMPDEST PUSH1 0x0 PUSH2 0x4410 DUP5 PUSH1 0x6 PUSH2 0x6954 JUMP JUMPDEST SWAP1 POP PUSH1 0x0 PUSH32 0x183227397098D014DC2822DB40C0AC2E9419F4243CDCB848A1F0FAC9F8000000 SWAP1 POP PUSH1 0x0 PUSH2 0x4486 PUSH2 0x4480 PUSH2 0x444A DUP6 PUSH1 0x3 PUSH2 0x38B5 JUMP JUMPDEST PUSH2 0x447B PUSH2 0x446B PUSH2 0x445B DUP12 PUSH1 0x0 PUSH2 0x6954 JUMP JUMPDEST PUSH2 0x4466 DUP13 PUSH1 0x1C PUSH2 0x6954 JUMP JUMPDEST PUSH2 0x383D JUMP JUMPDEST PUSH2 0x4476 DUP12 PUSH1 0x1B PUSH2 0x6954 JUMP JUMPDEST PUSH2 0x383D JUMP JUMPDEST PUSH2 0x383D JUMP JUMPDEST DUP4 PUSH2 0x383D JUMP JUMPDEST SWAP1 POP PUSH2 0x4534 PUSH2 0x4524 PUSH2 0x4501 PUSH2 0x44DE PUSH2 0x44BB DUP6 PUSH2 0x44B6 PUSH2 0x44A6 DUP14 PUSH1 0x2 PUSH2 0x6954 JUMP JUMPDEST PUSH2 0x44B1 DUP15 PUSH1 0x1B PUSH2 0x6954 JUMP JUMPDEST PUSH2 0x383D JUMP JUMPDEST PUSH2 0x3879 JUMP JUMPDEST PUSH2 0x44D9 PUSH2 0x44C9 DUP13 PUSH1 0x3 PUSH2 0x6954 JUMP JUMPDEST PUSH2 0x44D4 DUP14 PUSH1 0x1C PUSH2 0x6954 JUMP JUMPDEST PUSH2 0x383D JUMP JUMPDEST PUSH2 0x3879 JUMP JUMPDEST PUSH2 0x44FC PUSH2 0x44EC DUP12 PUSH1 0x4 PUSH2 0x6954 JUMP JUMPDEST PUSH2 0x44F7 DUP13 PUSH1 0x1D PUSH2 0x6954 JUMP JUMPDEST PUSH2 0x383D JUMP JUMPDEST PUSH2 0x3879 JUMP JUMPDEST PUSH2 0x451F PUSH2 0x450F DUP11 PUSH1 0x5 PUSH2 0x6954 JUMP JUMPDEST PUSH2 0x451A DUP12 PUSH1 0x1E PUSH2 0x6954 JUMP JUMPDEST PUSH2 0x383D JUMP JUMPDEST PUSH2 0x3879 JUMP JUMPDEST PUSH2 0x452F DUP9 PUSH1 0x1 PUSH2 0x6954 JUMP JUMPDEST PUSH2 0x3879 JUMP JUMPDEST SWAP1 POP PUSH2 0x455D DUP2 PUSH2 0x4558 PUSH2 0x4548 DUP7 PUSH1 0x1 PUSH2 0x38B5 JUMP JUMPDEST PUSH2 0x4553 DUP11 PUSH1 0x2A PUSH2 0x6954 JUMP JUMPDEST PUSH2 0x383D JUMP JUMPDEST PUSH2 0x3879 JUMP JUMPDEST SWAP1 POP PUSH2 0x4569 DUP2 DUP5 PUSH2 0x383D JUMP JUMPDEST SWAP1 POP PUSH2 0x4575 DUP2 DUP6 PUSH2 0x383D JUMP JUMPDEST SWAP1 POP DUP1 DUP6 PUSH1 0x0 PUSH1 0x1A DUP2 LT PUSH2 0x458C JUMPI PUSH2 0x458B PUSH2 0x73F2 JUMP JUMPDEST JUMPDEST PUSH1 0x20 MUL ADD DUP2 DUP2 MSTORE POP POP POP POP PUSH1 0x0 PUSH2 0x45DD PUSH2 0x45CD PUSH2 0x45BD PUSH2 0x45AD DUP9 PUSH1 0x1B PUSH2 0x6954 JUMP JUMPDEST PUSH2 0x45B8 DUP10 PUSH1 0x1E PUSH2 0x6954 JUMP JUMPDEST PUSH2 0x3879 JUMP JUMPDEST PUSH2 0x45C8 DUP9 PUSH1 0x27 PUSH2 0x6954 JUMP JUMPDEST PUSH2 0x38B5 JUMP JUMPDEST PUSH2 0x45D8 DUP8 PUSH1 0x0 PUSH2 0x6954 JUMP JUMPDEST PUSH2 0x3879 JUMP JUMPDEST SWAP1 POP PUSH2 0x45F3 DUP2 PUSH2 0x45EE DUP5 PUSH1 0x2 PUSH2 0x38B5 JUMP JUMPDEST PUSH2 0x383D JUMP JUMPDEST SWAP1 POP PUSH2 0x4609 DUP2 PUSH2 0x4604 DUP5 PUSH1 0x1 PUSH2 0x38B5 JUMP JUMPDEST PUSH2 0x383D JUMP JUMPDEST SWAP1 POP PUSH2 0x4615 DUP2 DUP4 PUSH2 0x383D JUMP JUMPDEST SWAP1 POP PUSH2 0x4621 DUP2 DUP5 PUSH2 0x383D JUMP JUMPDEST SWAP1 POP DUP1 DUP5 PUSH1 0x1 PUSH1 0x1A DUP2 LT PUSH2 0x4638 JUMPI PUSH2 0x4637 PUSH2 0x73F2 JUMP JUMPDEST JUMPDEST PUSH1 0x20 MUL ADD DUP2 DUP2 MSTORE POP POP POP POP POP POP POP JUMP JUMPDEST PUSH1 0x0 DUP1 PUSH1 0x0 PUSH2 0x4685 PUSH2 0x467B PUSH2 0x465E DUP10 PUSH1 0x1B PUSH2 0x6954 JUMP JUMPDEST PUSH2 0x4676 PUSH2 0x466C DUP12 PUSH1 0x11 PUSH2 0x6954 JUMP JUMPDEST DUP11 PUSH1 0x60 ADD MLOAD PUSH2 0x383D JUMP JUMPDEST PUSH2 0x3879 JUMP JUMPDEST DUP8 PUSH1 0x80 ADD MLOAD PUSH2 0x3879 JUMP JUMPDEST SWAP1 POP PUSH2 0x46C8 DUP2 PUSH2 0x46C3 PUSH2 0x46B9 PUSH2 0x469C DUP12 PUSH1 0x1C PUSH2 0x6954 JUMP JUMPDEST PUSH2 0x46B4 PUSH2 0x46AA DUP14 PUSH1 0x12 PUSH2 0x6954 JUMP JUMPDEST DUP13 PUSH1 0x60 ADD MLOAD PUSH2 0x383D JUMP JUMPDEST PUSH2 0x3879 JUMP JUMPDEST DUP10 PUSH1 0x80 ADD MLOAD PUSH2 0x3879 JUMP JUMPDEST PUSH2 0x383D JUMP JUMPDEST SWAP1 POP PUSH2 0x470B DUP2 PUSH2 0x4706 PUSH2 0x46FC PUSH2 0x46DF DUP12 PUSH1 0x1D PUSH2 0x6954 JUMP JUMPDEST PUSH2 0x46F7 PUSH2 0x46ED DUP14 PUSH1 0x13 PUSH2 0x6954 JUMP JUMPDEST DUP13 PUSH1 0x60 ADD MLOAD PUSH2 0x383D JUMP JUMPDEST PUSH2 0x3879 JUMP JUMPDEST DUP10 PUSH1 0x80 ADD MLOAD PUSH2 0x3879 JUMP JUMPDEST PUSH2 0x383D JUMP JUMPDEST SWAP1 POP PUSH2 0x474E DUP2 PUSH2 0x4749 PUSH2 0x473F PUSH2 0x4722 DUP12 PUSH1 0x1E PUSH2 0x6954 JUMP JUMPDEST PUSH2 0x473A PUSH2 0x4730 DUP14 PUSH1 0x14 PUSH2 0x6954 JUMP JUMPDEST DUP13 PUSH1 0x60 ADD MLOAD PUSH2 0x383D JUMP JUMPDEST PUSH2 0x3879 JUMP JUMPDEST DUP10 PUSH1 0x80 ADD MLOAD PUSH2 0x3879 JUMP JUMPDEST PUSH2 0x383D JUMP JUMPDEST SWAP1 POP DUP1 SWAP3 POP POP PUSH1 0x0 PUSH2 0x478E PUSH2 0x4784 PUSH2 0x4767 DUP10 PUSH1 0x1B PUSH2 0x6954 JUMP JUMPDEST PUSH2 0x477F PUSH2 0x4775 DUP12 PUSH1 0xD PUSH2 0x6954 JUMP JUMPDEST DUP11 PUSH1 0x60 ADD MLOAD PUSH2 0x383D JUMP JUMPDEST PUSH2 0x3879 JUMP JUMPDEST DUP8 PUSH1 0x80 ADD MLOAD PUSH2 0x3879 JUMP JUMPDEST SWAP1 POP PUSH2 0x47D1 DUP2 PUSH2 0x47CC PUSH2 0x47C2 PUSH2 0x47A5 DUP12 PUSH1 0x1C PUSH2 0x6954 JUMP JUMPDEST PUSH2 0x47BD PUSH2 0x47B3 DUP14 PUSH1 0xE PUSH2 0x6954 JUMP JUMPDEST DUP13 PUSH1 0x60 ADD MLOAD PUSH2 0x383D JUMP JUMPDEST PUSH2 0x3879 JUMP JUMPDEST DUP10 PUSH1 0x80 ADD MLOAD PUSH2 0x3879 JUMP JUMPDEST PUSH2 0x383D JUMP JUMPDEST SWAP1 POP PUSH2 0x4814 DUP2 PUSH2 0x480F PUSH2 0x4805 PUSH2 0x47E8 DUP12 PUSH1 0x1D PUSH2 0x6954 JUMP JUMPDEST PUSH2 0x4800 PUSH2 0x47F6 DUP14 PUSH1 0xF PUSH2 0x6954 JUMP JUMPDEST DUP13 PUSH1 0x60 ADD MLOAD PUSH2 0x383D JUMP JUMPDEST PUSH2 0x3879 JUMP JUMPDEST DUP10 PUSH1 0x80 ADD MLOAD PUSH2 0x3879 JUMP JUMPDEST PUSH2 0x383D JUMP JUMPDEST SWAP1 POP PUSH2 0x4857 DUP2 PUSH2 0x4852 PUSH2 0x4848 PUSH2 0x482B DUP12 PUSH1 0x1E PUSH2 0x6954 JUMP JUMPDEST PUSH2 0x4843 PUSH2 0x4839 DUP14 PUSH1 0x10 PUSH2 0x6954 JUMP JUMPDEST DUP13 PUSH1 0x60 ADD MLOAD PUSH2 0x383D JUMP JUMPDEST PUSH2 0x3879 JUMP JUMPDEST DUP10 PUSH1 0x80 ADD MLOAD PUSH2 0x3879 JUMP JUMPDEST PUSH2 0x383D JUMP JUMPDEST SWAP1 POP DUP1 SWAP2 POP POP PUSH1 0x0 PUSH2 0x4886 PUSH2 0x4880 PUSH2 0x4870 DUP10 PUSH1 0x1F PUSH2 0x6954 JUMP JUMPDEST PUSH2 0x487B DUP11 PUSH1 0x19 PUSH2 0x6954 JUMP JUMPDEST PUSH2 0x3879 JUMP JUMPDEST DUP5 PUSH2 0x383D JUMP JUMPDEST SWAP1 POP PUSH2 0x48C6 DUP2 PUSH2 0x48C1 PUSH2 0x48BB PUSH2 0x489D DUP12 PUSH1 0x2B PUSH2 0x6954 JUMP JUMPDEST PUSH2 0x48B6 PUSH2 0x48AB DUP14 PUSH1 0x1A PUSH2 0x6954 JUMP JUMPDEST DUP13 PUSH2 0x180 ADD MLOAD PUSH2 0x383D JUMP JUMPDEST PUSH2 0x3879 JUMP JUMPDEST DUP6 PUSH2 0x383D JUMP JUMPDEST PUSH2 0x38B5 JUMP JUMPDEST SWAP1 POP PUSH2 0x48D2 DUP2 DUP6 PUSH2 0x383D JUMP JUMPDEST SWAP1 POP DUP1 DUP6 PUSH1 0x2 PUSH1 0x1A DUP2 LT PUSH2 0x48E9 JUMPI PUSH2 0x48E8 PUSH2 0x73F2 JUMP JUMPDEST JUMPDEST PUSH1 0x20 MUL ADD DUP2 DUP2 MSTORE POP POP POP PUSH1 0x0 PUSH2 0x491C PUSH2 0x4916 PUSH2 0x4906 DUP10 PUSH1 0x1A PUSH2 0x6954 JUMP JUMPDEST PUSH2 0x4911 DUP11 PUSH1 0x2B PUSH2 0x6954 JUMP JUMPDEST PUSH2 0x383D JUMP JUMPDEST DUP6 PUSH2 0x383D JUMP JUMPDEST SWAP1 POP DUP1 DUP6 PUSH1 0x3 PUSH1 0x1A DUP2 LT PUSH2 0x4933 JUMPI PUSH2 0x4932 PUSH2 0x73F2 JUMP JUMPDEST JUMPDEST PUSH1 0x20 MUL ADD DUP2 DUP2 MSTORE POP POP POP POP POP POP POP POP POP JUMP JUMPDEST PUSH1 0x0 DUP1 PUSH2 0x49C0 PUSH2 0x49A3 PUSH2 0x4986 PUSH2 0x4969 PUSH2 0x495F DUP11 PUSH1 0x15 PUSH2 0x6954 JUMP JUMPDEST DUP10 PUSH1 0x80 ADD MLOAD PUSH2 0x3879 JUMP JUMPDEST PUSH2 0x4981 PUSH2 0x4977 DUP12 PUSH1 0x16 PUSH2 0x6954 JUMP JUMPDEST DUP11 PUSH1 0x0 ADD MLOAD PUSH2 0x383D JUMP JUMPDEST PUSH2 0x3879 JUMP JUMPDEST PUSH2 0x499E PUSH2 0x4994 DUP11 PUSH1 0x17 PUSH2 0x6954 JUMP JUMPDEST DUP10 PUSH1 0x20 ADD MLOAD PUSH2 0x383D JUMP JUMPDEST PUSH2 0x3879 JUMP JUMPDEST PUSH2 0x49BB PUSH2 0x49B1 DUP10 PUSH1 0x18 PUSH2 0x6954 JUMP JUMPDEST DUP9 PUSH1 0x40 ADD MLOAD PUSH2 0x383D JUMP JUMPDEST PUSH2 0x3879 JUMP JUMPDEST SWAP2 POP PUSH1 0x0 PUSH2 0x4A02 PUSH2 0x49DF PUSH2 0x49D5 DUP10 PUSH1 0x1B PUSH2 0x6954 JUMP JUMPDEST DUP9 PUSH1 0x80 ADD MLOAD PUSH2 0x3879 JUMP JUMPDEST PUSH2 0x49FD PUSH2 0x49ED DUP11 PUSH1 0x3 PUSH2 0x6954 JUMP JUMPDEST PUSH2 0x49F8 DUP12 PUSH1 0x27 PUSH2 0x6954 JUMP JUMPDEST PUSH2 0x383D JUMP JUMPDEST PUSH2 0x3879 JUMP JUMPDEST SWAP1 POP PUSH1 0x0 PUSH2 0x4A37 PUSH2 0x4A14 DUP10 PUSH1 0x1C PUSH2 0x6954 JUMP JUMPDEST PUSH2 0x4A32 PUSH2 0x4A22 DUP12 PUSH1 0x0 PUSH2 0x6954 JUMP JUMPDEST PUSH2 0x4A2D DUP13 PUSH1 0x28 PUSH2 0x6954 JUMP JUMPDEST PUSH2 0x383D JUMP JUMPDEST PUSH2 0x3879 JUMP JUMPDEST SWAP1 POP PUSH1 0x0 PUSH2 0x4A6C PUSH2 0x4A49 DUP11 PUSH1 0x1D PUSH2 0x6954 JUMP JUMPDEST PUSH2 0x4A67 PUSH2 0x4A57 DUP13 PUSH1 0x1 PUSH2 0x6954 JUMP JUMPDEST PUSH2 0x4A62 DUP14 PUSH1 0x29 PUSH2 0x6954 JUMP JUMPDEST PUSH2 0x383D JUMP JUMPDEST PUSH2 0x3879 JUMP JUMPDEST SWAP1 POP PUSH2 0x4ABB PUSH2 0x4A9E PUSH2 0x4A8B DUP6 PUSH2 0x4A86 DUP7 DUP14 PUSH1 0x0 ADD MLOAD PUSH2 0x383D JUMP JUMPDEST PUSH2 0x3879 JUMP JUMPDEST PUSH2 0x4A99 DUP5 DUP13 PUSH1 0x20 ADD MLOAD PUSH2 0x383D JUMP JUMPDEST PUSH2 0x3879 JUMP JUMPDEST PUSH2 0x4AB6 PUSH2 0x4AAC DUP13 PUSH1 0x4 PUSH2 0x6954 JUMP JUMPDEST DUP12 PUSH1 0x40 ADD MLOAD PUSH2 0x383D JUMP JUMPDEST PUSH2 0x3879 JUMP JUMPDEST SWAP4 POP POP POP POP PUSH1 0x0 PUSH2 0x4AD6 PUSH2 0x4AD0 DUP9 PUSH1 0x20 PUSH2 0x6954 JUMP JUMPDEST DUP5 PUSH2 0x383D JUMP JUMPDEST SWAP1 POP PUSH1 0x0 PUSH2 0x4AEE PUSH2 0x4AE8 DUP10 PUSH1 0x20 PUSH2 0x6954 JUMP JUMPDEST DUP5 PUSH2 0x383D JUMP JUMPDEST SWAP1 POP PUSH1 0x0 PUSH2 0x4B36 PUSH2 0x4B13 PUSH2 0x4B03 DUP12 PUSH1 0x22 PUSH2 0x6954 JUMP JUMPDEST PUSH2 0x4B0E DUP13 PUSH1 0xA PUSH2 0x6954 JUMP JUMPDEST PUSH2 0x3879 JUMP JUMPDEST PUSH2 0x4B31 PUSH2 0x4B21 DUP13 PUSH1 0x22 PUSH2 0x6954 JUMP JUMPDEST PUSH2 0x4B2C DUP14 PUSH1 0xA PUSH2 0x6954 JUMP JUMPDEST PUSH2 0x383D JUMP JUMPDEST PUSH2 0x38B5 JUMP JUMPDEST SWAP1 POP PUSH1 0x0 PUSH2 0x4B60 PUSH2 0x4B5A PUSH2 0x4B4A DUP8 DUP10 PUSH2 0x383D JUMP JUMPDEST PUSH2 0x4B55 DUP14 PUSH1 0x20 PUSH2 0x6954 JUMP JUMPDEST PUSH2 0x383D JUMP JUMPDEST DUP4 PUSH2 0x38B5 JUMP JUMPDEST SWAP1 POP PUSH2 0x4B6C DUP2 DUP9 PUSH2 0x383D JUMP JUMPDEST SWAP1 POP PUSH1 0x0 PUSH2 0x4BA0 PUSH2 0x4B87 PUSH2 0x4B81 DUP14 PUSH1 0xA PUSH2 0x6954 JUMP JUMPDEST DUP8 PUSH2 0x383D JUMP JUMPDEST PUSH2 0x4B9B PUSH2 0x4B95 DUP15 PUSH1 0x21 PUSH2 0x6954 JUMP JUMPDEST DUP8 PUSH2 0x383D JUMP JUMPDEST PUSH2 0x38B5 JUMP JUMPDEST SWAP1 POP DUP2 DUP10 PUSH1 0x4 PUSH1 0x1A DUP2 LT PUSH2 0x4BB7 JUMPI PUSH2 0x4BB6 PUSH2 0x73F2 JUMP JUMPDEST JUMPDEST PUSH1 0x20 MUL ADD DUP2 DUP2 MSTORE POP POP DUP1 DUP10 PUSH1 0x5 PUSH1 0x1A DUP2 LT PUSH2 0x4BD5 JUMPI PUSH2 0x4BD4 PUSH2 0x73F2 JUMP JUMPDEST JUMPDEST PUSH1 0x20 MUL ADD DUP2 DUP2 MSTORE POP POP POP POP POP POP POP POP POP POP POP POP POP JUMP JUMPDEST PUSH1 0x0 PUSH2 0x4BF9 PUSH1 0x0 PUSH1 0x1 PUSH2 0x38B5 JUMP JUMPDEST SWAP1 POP PUSH1 0x0 PUSH2 0x4C09 PUSH1 0x0 PUSH1 0x2 PUSH2 0x38B5 JUMP JUMPDEST SWAP1 POP PUSH1 0x0 PUSH2 0x4C19 PUSH1 0x0 PUSH1 0x3 PUSH2 0x38B5 JUMP JUMPDEST SWAP1 POP PUSH1 0x0 PUSH2 0x4C3B PUSH2 0x4C2B DUP9 PUSH1 0x1C PUSH2 0x6954 JUMP JUMPDEST PUSH2 0x4C36 DUP10 PUSH1 0x1B PUSH2 0x6954 JUMP JUMPDEST PUSH2 0x38B5 JUMP JUMPDEST SWAP1 POP PUSH1 0x0 PUSH2 0x4C5D PUSH2 0x4C4D DUP10 PUSH1 0x1D PUSH2 0x6954 JUMP JUMPDEST PUSH2 0x4C58 DUP11 PUSH1 0x1C PUSH2 0x6954 JUMP JUMPDEST PUSH2 0x38B5 JUMP JUMPDEST SWAP1 POP PUSH1 0x0 PUSH2 0x4C7F PUSH2 0x4C6F DUP11 PUSH1 0x1E PUSH2 0x6954 JUMP JUMPDEST PUSH2 0x4C7A DUP12 PUSH1 0x1D PUSH2 0x6954 JUMP JUMPDEST PUSH2 0x38B5 JUMP JUMPDEST SWAP1 POP PUSH1 0x0 PUSH2 0x4CA1 PUSH2 0x4C91 DUP12 PUSH1 0x27 PUSH2 0x6954 JUMP JUMPDEST PUSH2 0x4C9C DUP13 PUSH1 0x1E PUSH2 0x6954 JUMP JUMPDEST PUSH2 0x38B5 JUMP JUMPDEST SWAP1 POP PUSH1 0x0 DUP5 SWAP1 POP PUSH2 0x4CBB DUP2 PUSH2 0x4CB6 DUP8 DUP12 PUSH2 0x3879 JUMP JUMPDEST PUSH2 0x383D JUMP JUMPDEST SWAP1 POP PUSH2 0x4CD0 DUP2 PUSH2 0x4CCB DUP8 DUP11 PUSH2 0x3879 JUMP JUMPDEST PUSH2 0x383D JUMP JUMPDEST SWAP1 POP PUSH2 0x4CE5 DUP2 PUSH2 0x4CE0 DUP8 DUP10 PUSH2 0x3879 JUMP JUMPDEST PUSH2 0x383D JUMP JUMPDEST SWAP1 POP PUSH2 0x4CFB DUP2 PUSH2 0x4CF6 DUP14 PUSH1 0x7 PUSH2 0x6954 JUMP JUMPDEST PUSH2 0x383D JUMP JUMPDEST SWAP1 POP PUSH2 0x4D07 DUP2 DUP11 PUSH2 0x383D JUMP JUMPDEST SWAP1 POP DUP1 DUP11 PUSH1 0x6 PUSH1 0x1A DUP2 LT PUSH2 0x4D1E JUMPI PUSH2 0x4D1D PUSH2 0x73F2 JUMP JUMPDEST JUMPDEST PUSH1 0x20 MUL ADD DUP2 DUP2 MSTORE POP POP POP PUSH1 0x0 DUP4 SWAP1 POP PUSH2 0x4D40 DUP2 PUSH2 0x4D3B DUP7 DUP12 PUSH2 0x3879 JUMP JUMPDEST PUSH2 0x383D JUMP JUMPDEST SWAP1 POP PUSH2 0x4D55 DUP2 PUSH2 0x4D50 DUP7 DUP11 PUSH2 0x3879 JUMP JUMPDEST PUSH2 0x383D JUMP JUMPDEST SWAP1 POP PUSH2 0x4D6A DUP2 PUSH2 0x4D65 DUP7 DUP10 PUSH2 0x3879 JUMP JUMPDEST PUSH2 0x383D JUMP JUMPDEST SWAP1 POP PUSH2 0x4D80 DUP2 PUSH2 0x4D7B DUP14 PUSH1 0x7 PUSH2 0x6954 JUMP JUMPDEST PUSH2 0x383D JUMP JUMPDEST SWAP1 POP PUSH2 0x4D8C DUP2 DUP11 PUSH2 0x383D JUMP JUMPDEST SWAP1 POP DUP1 DUP11 PUSH1 0x7 PUSH1 0x1A DUP2 LT PUSH2 0x4DA3 JUMPI PUSH2 0x4DA2 PUSH2 0x73F2 JUMP JUMPDEST JUMPDEST PUSH1 0x20 MUL ADD DUP2 DUP2 MSTORE POP POP POP PUSH1 0x0 DUP3 SWAP1 POP PUSH2 0x4DC5 DUP2 PUSH2 0x4DC0 DUP6 DUP12 PUSH2 0x3879 JUMP JUMPDEST PUSH2 0x383D JUMP JUMPDEST SWAP1 POP PUSH2 0x4DDA DUP2 PUSH2 0x4DD5 DUP6 DUP11 PUSH2 0x3879 JUMP JUMPDEST PUSH2 0x383D JUMP JUMPDEST SWAP1 POP PUSH2 0x4DEF DUP2 PUSH2 0x4DEA DUP6 DUP10 PUSH2 0x3879 JUMP JUMPDEST PUSH2 0x383D JUMP JUMPDEST SWAP1 POP PUSH2 0x4E05 DUP2 PUSH2 0x4E00 DUP14 PUSH1 0x7 PUSH2 0x6954 JUMP JUMPDEST PUSH2 0x383D JUMP JUMPDEST SWAP1 POP PUSH2 0x4E11 DUP2 DUP11 PUSH2 0x383D JUMP JUMPDEST SWAP1 POP DUP1 DUP11 PUSH1 0x8 PUSH1 0x1A DUP2 LT PUSH2 0x4E28 JUMPI PUSH2 0x4E27 PUSH2 0x73F2 JUMP JUMPDEST JUMPDEST PUSH1 0x20 MUL ADD DUP2 DUP2 MSTORE POP POP POP PUSH1 0x0 DUP2 SWAP1 POP PUSH2 0x4E4A DUP2 PUSH2 0x4E45 DUP5 DUP12 PUSH2 0x3879 JUMP JUMPDEST PUSH2 0x383D JUMP JUMPDEST SWAP1 POP PUSH2 0x4E5F DUP2 PUSH2 0x4E5A DUP5 DUP11 PUSH2 0x3879 JUMP JUMPDEST PUSH2 0x383D JUMP JUMPDEST SWAP1 POP PUSH2 0x4E74 DUP2 PUSH2 0x4E6F DUP5 DUP10 PUSH2 0x3879 JUMP JUMPDEST PUSH2 0x383D JUMP JUMPDEST SWAP1 POP PUSH2 0x4E8A DUP2 PUSH2 0x4E85 DUP14 PUSH1 0x7 PUSH2 0x6954 JUMP JUMPDEST PUSH2 0x383D JUMP JUMPDEST SWAP1 POP PUSH2 0x4E96 DUP2 DUP11 PUSH2 0x383D JUMP JUMPDEST SWAP1 POP DUP1 DUP11 PUSH1 0x9 PUSH1 0x1A DUP2 LT PUSH2 0x4EAD JUMPI PUSH2 0x4EAC PUSH2 0x73F2 JUMP JUMPDEST JUMPDEST PUSH1 0x20 MUL ADD DUP2 DUP2 MSTORE POP POP POP POP POP POP POP POP POP POP POP POP POP JUMP JUMPDEST PUSH2 0x4ECB PUSH2 0x6E98 JUMP JUMPDEST PUSH2 0x4ED6 DUP5 PUSH1 0x1C PUSH2 0x6954 JUMP JUMPDEST DUP2 PUSH1 0x0 ADD DUP2 DUP2 MSTORE POP POP PUSH2 0x4EEA DUP5 PUSH1 0x1D PUSH2 0x6954 JUMP JUMPDEST DUP2 PUSH1 0x20 ADD DUP2 DUP2 MSTORE POP POP PUSH2 0x4EFE DUP5 PUSH1 0x27 PUSH2 0x6954 JUMP JUMPDEST DUP2 PUSH1 0x40 ADD DUP2 DUP2 MSTORE POP POP PUSH2 0x4F12 DUP5 PUSH1 0x2A PUSH2 0x6954 JUMP JUMPDEST DUP2 PUSH1 0x60 ADD DUP2 DUP2 MSTORE POP POP PUSH2 0x4F26 DUP5 PUSH1 0x29 PUSH2 0x6954 JUMP JUMPDEST DUP2 PUSH1 0x80 ADD DUP2 DUP2 MSTORE POP POP PUSH2 0x4F3A DUP5 PUSH1 0x28 PUSH2 0x6954 JUMP JUMPDEST DUP2 PUSH1 0xA0 ADD DUP2 DUP2 MSTORE POP POP PUSH1 0x0 PUSH2 0x4F50 DUP6 PUSH1 0x2 PUSH2 0x6954 JUMP JUMPDEST SWAP1 POP PUSH1 0x0 PUSH2 0x4F5F DUP7 PUSH1 0x0 PUSH2 0x6954 JUMP JUMPDEST SWAP1 POP PUSH1 0x0 PUSH2 0x4F75 DUP5 PUSH1 0x40 ADD MLOAD DUP6 PUSH1 0x0 ADD MLOAD PUSH2 0x38B5 JUMP JUMPDEST SWAP1 POP PUSH1 0x0 PUSH2 0x4F8B DUP6 PUSH1 0x20 ADD MLOAD DUP7 PUSH1 0x20 ADD MLOAD PUSH2 0x383D JUMP JUMPDEST SWAP1 POP PUSH1 0x0 DUP7 SWAP1 POP PUSH1 0x0 PUSH2 0x4FA6 DUP8 PUSH1 0x60 ADD MLOAD DUP9 PUSH1 0x60 ADD MLOAD PUSH2 0x383D JUMP JUMPDEST SWAP1 POP PUSH1 0x0 PUSH2 0x4FC5 PUSH2 0x4FBF DUP10 PUSH1 0x20 ADD MLOAD DUP11 PUSH1 0x60 ADD MLOAD PUSH2 0x383D JUMP JUMPDEST DUP9 PUSH2 0x383D JUMP JUMPDEST SWAP1 POP PUSH1 0x0 PUSH2 0x4FE8 PUSH2 0x4FDE DUP11 PUSH1 0xA0 ADD MLOAD DUP12 PUSH1 0x40 ADD MLOAD PUSH2 0x3879 JUMP JUMPDEST DUP11 PUSH1 0x0 ADD MLOAD PUSH2 0x3879 JUMP JUMPDEST SWAP1 POP PUSH2 0x4FFD PUSH2 0x4FF7 DUP3 DUP9 PUSH2 0x383D JUMP JUMPDEST DUP8 PUSH2 0x383D JUMP JUMPDEST SWAP1 POP PUSH2 0x5024 PUSH2 0x501E PUSH2 0x5018 PUSH2 0x5012 DUP5 DUP8 PUSH2 0x38B5 JUMP JUMPDEST DUP9 PUSH2 0x38B5 JUMP JUMPDEST DUP5 PUSH2 0x3879 JUMP JUMPDEST DUP4 PUSH2 0x3879 JUMP JUMPDEST SWAP1 POP PUSH2 0x5056 PUSH2 0x5046 PUSH2 0x5036 DUP4 DUP8 PUSH2 0x383D JUMP JUMPDEST PUSH2 0x5041 DUP16 PUSH1 0x8 PUSH2 0x6954 JUMP JUMPDEST PUSH2 0x383D JUMP JUMPDEST PUSH2 0x5051 PUSH1 0x1 DUP11 PUSH2 0x38B5 JUMP JUMPDEST PUSH2 0x383D JUMP JUMPDEST DUP12 PUSH1 0xA PUSH1 0x1A DUP2 LT PUSH2 0x506A JUMPI PUSH2 0x5069 PUSH2 0x73F2 JUMP JUMPDEST JUMPDEST PUSH1 0x20 MUL ADD DUP2 DUP2 MSTORE POP POP POP POP POP POP PUSH1 0x0 PUSH2 0x508B DUP7 PUSH1 0x20 ADD MLOAD DUP8 PUSH1 0x80 ADD MLOAD PUSH2 0x3879 JUMP JUMPDEST SWAP1 POP PUSH1 0x0 PUSH2 0x50AA PUSH2 0x50A0 DUP9 PUSH1 0x60 ADD MLOAD DUP9 PUSH2 0x383D JUMP JUMPDEST DUP9 PUSH1 0x20 ADD MLOAD PUSH2 0x38B5 JUMP JUMPDEST SWAP1 POP PUSH1 0x0 PUSH2 0x50DB PUSH2 0x50BB DUP5 DUP8 PUSH2 0x383D JUMP JUMPDEST PUSH2 0x50D6 PUSH2 0x50D0 DUP12 PUSH1 0xA0 ADD MLOAD DUP13 PUSH1 0x0 ADD MLOAD PUSH2 0x38B5 JUMP JUMPDEST DUP6 PUSH2 0x383D JUMP JUMPDEST PUSH2 0x3879 JUMP JUMPDEST SWAP1 POP PUSH2 0x510D PUSH2 0x50FD PUSH2 0x50ED DUP4 DUP13 PUSH2 0x383D JUMP JUMPDEST PUSH2 0x50F8 DUP15 PUSH1 0x8 PUSH2 0x6954 JUMP JUMPDEST PUSH2 0x383D JUMP JUMPDEST PUSH2 0x5108 PUSH1 0x1 DUP10 PUSH2 0x38B5 JUMP JUMPDEST PUSH2 0x383D JUMP JUMPDEST DUP11 PUSH1 0xB PUSH1 0x1A DUP2 LT PUSH2 0x5121 JUMPI PUSH2 0x5120 PUSH2 0x73F2 JUMP JUMPDEST JUMPDEST PUSH1 0x20 MUL ADD DUP2 DUP2 MSTORE POP POP POP POP POP PUSH1 0x0 PUSH2 0x5147 PUSH2 0x513D DUP4 PUSH1 0x11 PUSH2 0x3879 JUMP JUMPDEST DUP8 PUSH1 0x0 ADD MLOAD PUSH2 0x383D JUMP JUMPDEST SWAP1 POP PUSH1 0x0 PUSH2 0x5155 DUP4 DUP5 PUSH2 0x3879 JUMP JUMPDEST SWAP1 POP PUSH2 0x5161 DUP2 DUP3 PUSH2 0x3879 JUMP JUMPDEST SWAP1 POP PUSH1 0x0 PUSH2 0x5170 DUP4 PUSH1 0x9 PUSH2 0x383D JUMP JUMPDEST SWAP1 POP PUSH2 0x51A3 PUSH2 0x519D PUSH2 0x5197 PUSH2 0x518D DUP12 PUSH1 0xA0 ADD MLOAD DUP13 PUSH1 0x0 ADD MLOAD PUSH2 0x3879 JUMP JUMPDEST DUP12 PUSH1 0x0 ADD MLOAD PUSH2 0x3879 JUMP JUMPDEST DUP5 PUSH2 0x383D JUMP JUMPDEST DUP3 PUSH2 0x38B5 JUMP JUMPDEST DUP9 PUSH1 0xC0 ADD DUP2 DUP2 MSTORE POP POP PUSH1 0x0 PUSH2 0x51D8 PUSH2 0x51D2 PUSH2 0x51C2 DUP12 PUSH1 0xC0 ADD MLOAD DUP14 PUSH2 0x383D JUMP JUMPDEST PUSH2 0x51CD DUP16 PUSH1 0x8 PUSH2 0x6954 JUMP JUMPDEST PUSH2 0x383D JUMP JUMPDEST DUP9 PUSH2 0x383D JUMP JUMPDEST SWAP1 POP PUSH2 0x51FC DUP12 PUSH1 0xA PUSH1 0x1A DUP2 LT PUSH2 0x51F1 JUMPI PUSH2 0x51F0 PUSH2 0x73F2 JUMP JUMPDEST JUMPDEST PUSH1 0x20 MUL ADD MLOAD DUP3 PUSH2 0x3879 JUMP JUMPDEST DUP12 PUSH1 0xA PUSH1 0x1A DUP2 LT PUSH2 0x5210 JUMPI PUSH2 0x520F PUSH2 0x73F2 JUMP JUMPDEST JUMPDEST PUSH1 0x20 MUL ADD DUP2 DUP2 MSTORE POP POP POP POP POP POP PUSH1 0x0 PUSH2 0x524B PUSH2 0x5241 PUSH2 0x5237 DUP9 PUSH1 0x0 ADD MLOAD DUP10 PUSH1 0x0 ADD MLOAD PUSH2 0x3879 JUMP JUMPDEST DUP9 PUSH1 0x0 ADD MLOAD PUSH2 0x3879 JUMP JUMPDEST DUP8 PUSH1 0x0 ADD MLOAD PUSH2 0x383D JUMP JUMPDEST SWAP1 POP PUSH1 0x0 PUSH2 0x529E PUSH2 0x526D DUP4 PUSH2 0x5268 DUP11 PUSH1 0x0 ADD MLOAD DUP12 PUSH1 0xA0 ADD MLOAD PUSH2 0x38B5 JUMP JUMPDEST PUSH2 0x383D JUMP JUMPDEST PUSH2 0x5299 PUSH2 0x5282 DUP11 PUSH1 0x20 ADD MLOAD DUP12 PUSH1 0x20 ADD MLOAD PUSH2 0x3879 JUMP JUMPDEST PUSH2 0x5294 DUP12 PUSH1 0x20 ADD MLOAD DUP13 PUSH1 0x80 ADD MLOAD PUSH2 0x3879 JUMP JUMPDEST PUSH2 0x383D JUMP JUMPDEST PUSH2 0x38B5 JUMP JUMPDEST SWAP1 POP PUSH2 0x52E7 DUP10 PUSH1 0xB PUSH1 0x1A DUP2 LT PUSH2 0x52B7 JUMPI PUSH2 0x52B6 PUSH2 0x73F2 JUMP JUMPDEST JUMPDEST PUSH1 0x20 MUL ADD MLOAD PUSH2 0x52E2 PUSH2 0x52DC PUSH2 0x52CC DUP6 DUP14 PUSH2 0x383D JUMP JUMPDEST PUSH2 0x52D7 DUP16 PUSH1 0x8 PUSH2 0x6954 JUMP JUMPDEST PUSH2 0x383D JUMP JUMPDEST DUP9 PUSH2 0x383D JUMP JUMPDEST PUSH2 0x3879 JUMP JUMPDEST DUP10 PUSH1 0xB PUSH1 0x1A DUP2 LT PUSH2 0x52FB JUMPI PUSH2 0x52FA PUSH2 0x73F2 JUMP JUMPDEST JUMPDEST PUSH1 0x20 MUL ADD DUP2 DUP2 MSTORE POP POP POP POP POP POP POP POP POP POP POP POP JUMP JUMPDEST PUSH2 0x5318 PUSH2 0x6ED5 JUMP JUMPDEST PUSH2 0x535C PUSH2 0x5339 PUSH2 0x5329 DUP8 PUSH1 0x1B PUSH2 0x6954 JUMP JUMPDEST PUSH2 0x5334 DUP9 PUSH1 0x28 PUSH2 0x6954 JUMP JUMPDEST PUSH2 0x383D JUMP JUMPDEST PUSH2 0x5357 PUSH2 0x5347 DUP9 PUSH1 0x27 PUSH2 0x6954 JUMP JUMPDEST PUSH2 0x5352 DUP10 PUSH1 0x1C PUSH2 0x6954 JUMP JUMPDEST PUSH2 0x383D JUMP JUMPDEST PUSH2 0x3879 JUMP JUMPDEST DUP2 PUSH1 0x0 ADD DUP2 DUP2 MSTORE POP POP PUSH2 0x53BC PUSH2 0x53AC PUSH2 0x5389 PUSH2 0x5379 DUP9 PUSH1 0x1B PUSH2 0x6954 JUMP JUMPDEST PUSH2 0x5384 DUP10 PUSH1 0x1E PUSH2 0x6954 JUMP JUMPDEST PUSH2 0x383D JUMP JUMPDEST PUSH2 0x53A7 PUSH2 0x5397 DUP10 PUSH1 0x1C PUSH2 0x6954 JUMP JUMPDEST PUSH2 0x53A2 DUP11 PUSH1 0x1D PUSH2 0x6954 JUMP JUMPDEST PUSH2 0x383D JUMP JUMPDEST PUSH2 0x3879 JUMP JUMPDEST PUSH2 0x53B7 DUP8 PUSH1 0x29 PUSH2 0x6954 JUMP JUMPDEST PUSH2 0x38B5 JUMP JUMPDEST DUP2 PUSH1 0x40 ADD DUP2 DUP2 MSTORE POP POP PUSH2 0x53D8 DUP2 PUSH1 0x40 ADD MLOAD PUSH1 0x44 PUSH1 0x1 SWAP1 SHL PUSH2 0x383D JUMP JUMPDEST DUP2 PUSH1 0x40 ADD DUP2 DUP2 MSTORE POP POP PUSH2 0x53F9 DUP2 PUSH1 0x40 ADD MLOAD PUSH2 0x53F4 DUP8 PUSH1 0x2A PUSH2 0x6954 JUMP JUMPDEST PUSH2 0x38B5 JUMP JUMPDEST DUP2 PUSH1 0x40 ADD DUP2 DUP2 MSTORE POP POP PUSH2 0x5414 DUP2 PUSH1 0x40 ADD MLOAD DUP3 PUSH1 0x0 ADD MLOAD PUSH2 0x3879 JUMP JUMPDEST DUP2 PUSH1 0x40 ADD DUP2 DUP2 MSTORE POP POP PUSH2 0x5435 DUP2 PUSH1 0x40 ADD MLOAD PUSH2 0x5430 DUP8 PUSH1 0x5 PUSH2 0x6954 JUMP JUMPDEST PUSH2 0x383D JUMP JUMPDEST DUP2 PUSH1 0x40 ADD DUP2 DUP2 MSTORE POP POP PUSH2 0x5451 DUP2 PUSH1 0x0 ADD MLOAD PUSH1 0x44 PUSH1 0x1 SWAP1 SHL PUSH2 0x383D JUMP JUMPDEST DUP2 PUSH1 0x0 ADD DUP2 DUP2 MSTORE POP POP PUSH2 0x5485 DUP2 PUSH1 0x0 ADD MLOAD PUSH2 0x5480 PUSH2 0x5470 DUP9 PUSH1 0x27 PUSH2 0x6954 JUMP JUMPDEST PUSH2 0x547B DUP10 PUSH1 0x28 PUSH2 0x6954 JUMP JUMPDEST PUSH2 0x383D JUMP JUMPDEST PUSH2 0x3879 JUMP JUMPDEST DUP2 PUSH1 0x0 ADD DUP2 DUP2 MSTORE POP POP DUP1 PUSH1 0x0 ADD MLOAD DUP2 PUSH1 0x20 ADD DUP2 DUP2 MSTORE POP POP PUSH2 0x54C7 DUP2 PUSH1 0x20 ADD MLOAD PUSH2 0x54C2 PUSH2 0x54B2 DUP9 PUSH1 0x1D PUSH2 0x6954 JUMP JUMPDEST PUSH2 0x54BD DUP10 PUSH1 0x1E PUSH2 0x6954 JUMP JUMPDEST PUSH2 0x3879 JUMP JUMPDEST PUSH2 0x38B5 JUMP JUMPDEST DUP2 PUSH1 0x20 ADD DUP2 DUP2 MSTORE POP POP PUSH2 0x54E8 DUP2 PUSH1 0x20 ADD MLOAD PUSH2 0x54E3 DUP8 PUSH1 0x4 PUSH2 0x6954 JUMP JUMPDEST PUSH2 0x383D JUMP JUMPDEST DUP2 PUSH1 0x20 ADD DUP2 DUP2 MSTORE POP POP DUP1 PUSH1 0x0 ADD MLOAD DUP2 PUSH1 0x60 ADD DUP2 DUP2 MSTORE POP POP PUSH2 0x5517 DUP2 PUSH1 0x60 ADD MLOAD PUSH2 0x5512 DUP8 PUSH1 0x1E PUSH2 0x6954 JUMP JUMPDEST PUSH2 0x3879 JUMP JUMPDEST DUP2 PUSH1 0x60 ADD DUP2 DUP2 MSTORE POP POP PUSH2 0x554B DUP2 PUSH1 0x60 ADD MLOAD PUSH2 0x5546 PUSH2 0x5536 DUP9 PUSH1 0x29 PUSH2 0x6954 JUMP JUMPDEST PUSH2 0x5541 DUP10 PUSH1 0x2A PUSH2 0x6954 JUMP JUMPDEST PUSH2 0x3879 JUMP JUMPDEST PUSH2 0x38B5 JUMP JUMPDEST DUP2 PUSH1 0x60 ADD DUP2 DUP2 MSTORE POP POP PUSH2 0x556C DUP2 PUSH1 0x60 ADD MLOAD PUSH2 0x5567 DUP8 PUSH1 0x0 PUSH2 0x6954 JUMP JUMPDEST PUSH2 0x383D JUMP JUMPDEST DUP2 PUSH1 0x60 ADD DUP2 DUP2 MSTORE POP POP PUSH1 0x0 PUSH2 0x5596 PUSH2 0x558C DUP4 PUSH1 0x20 ADD MLOAD DUP5 PUSH1 0x40 ADD MLOAD PUSH2 0x3879 JUMP JUMPDEST DUP4 PUSH1 0x60 ADD MLOAD PUSH2 0x3879 JUMP JUMPDEST SWAP1 POP PUSH2 0x55AC DUP2 PUSH2 0x55A7 DUP9 PUSH1 0x3 PUSH2 0x6954 JUMP JUMPDEST PUSH2 0x383D JUMP JUMPDEST SWAP1 POP PUSH2 0x55C7 PUSH2 0x55BC DUP8 PUSH1 0x28 PUSH2 0x6954 JUMP JUMPDEST PUSH1 0xE PUSH1 0x1 SWAP1 SHL PUSH2 0x383D JUMP JUMPDEST DUP3 PUSH1 0x80 ADD DUP2 DUP2 MSTORE POP POP PUSH2 0x55E8 DUP3 PUSH1 0x80 ADD MLOAD PUSH2 0x55E3 DUP9 PUSH1 0x27 PUSH2 0x6954 JUMP JUMPDEST PUSH2 0x3879 JUMP JUMPDEST DUP3 PUSH1 0x80 ADD DUP2 DUP2 MSTORE POP POP PUSH2 0x5604 DUP3 PUSH1 0x80 ADD MLOAD PUSH1 0xE PUSH1 0x1 SWAP1 SHL PUSH2 0x383D JUMP JUMPDEST DUP3 PUSH1 0x80 ADD DUP2 DUP2 MSTORE POP POP PUSH2 0x5625 DUP3 PUSH1 0x80 ADD MLOAD PUSH2 0x5620 DUP9 PUSH1 0x1D PUSH2 0x6954 JUMP JUMPDEST PUSH2 0x3879 JUMP JUMPDEST DUP3 PUSH1 0x80 ADD DUP2 DUP2 MSTORE POP POP PUSH2 0x5641 DUP3 PUSH1 0x80 ADD MLOAD PUSH1 0xE PUSH1 0x1 SWAP1 SHL PUSH2 0x383D JUMP JUMPDEST DUP3 PUSH1 0x80 ADD DUP2 DUP2 MSTORE POP POP PUSH2 0x5662 DUP3 PUSH1 0x80 ADD MLOAD PUSH2 0x565D DUP9 PUSH1 0x1C PUSH2 0x6954 JUMP JUMPDEST PUSH2 0x3879 JUMP JUMPDEST DUP3 PUSH1 0x80 ADD DUP2 DUP2 MSTORE POP POP PUSH2 0x567E DUP3 PUSH1 0x80 ADD MLOAD PUSH1 0xE PUSH1 0x1 SWAP1 SHL PUSH2 0x383D JUMP JUMPDEST DUP3 PUSH1 0x80 ADD DUP2 DUP2 MSTORE POP POP PUSH2 0x569F DUP3 PUSH1 0x80 ADD MLOAD PUSH2 0x569A DUP9 PUSH1 0x1B PUSH2 0x6954 JUMP JUMPDEST PUSH2 0x3879 JUMP JUMPDEST DUP3 PUSH1 0x80 ADD DUP2 DUP2 MSTORE POP POP PUSH2 0x56C0 DUP3 PUSH1 0x80 ADD MLOAD PUSH2 0x56BB DUP9 PUSH1 0x1E PUSH2 0x6954 JUMP JUMPDEST PUSH2 0x38B5 JUMP JUMPDEST DUP3 PUSH1 0x80 ADD DUP2 DUP2 MSTORE POP POP PUSH2 0x56E1 DUP3 PUSH1 0x80 ADD MLOAD PUSH2 0x56DC DUP9 PUSH1 0x5 PUSH2 0x6954 JUMP JUMPDEST PUSH2 0x383D JUMP JUMPDEST DUP3 PUSH1 0x80 ADD DUP2 DUP2 MSTORE POP POP PUSH2 0x5703 PUSH2 0x56F8 DUP8 PUSH1 0x29 PUSH2 0x6954 JUMP JUMPDEST PUSH1 0xE PUSH1 0x1 SWAP1 SHL PUSH2 0x383D JUMP JUMPDEST DUP3 PUSH1 0xA0 ADD DUP2 DUP2 MSTORE POP POP PUSH2 0x5724 DUP3 PUSH1 0xA0 ADD MLOAD PUSH2 0x571F DUP9 PUSH1 0x28 PUSH2 0x6954 JUMP JUMPDEST PUSH2 0x3879 JUMP JUMPDEST DUP3 PUSH1 0xA0 ADD DUP2 DUP2 MSTORE POP POP PUSH2 0x5740 DUP3 PUSH1 0xA0 ADD MLOAD PUSH1 0xE PUSH1 0x1 SWAP1 SHL PUSH2 0x383D JUMP JUMPDEST DUP3 PUSH1 0xA0 ADD DUP2 DUP2 MSTORE POP POP PUSH2 0x5761 DUP3 PUSH1 0xA0 ADD MLOAD PUSH2 0x575C DUP9 PUSH1 0x27 PUSH2 0x6954 JUMP JUMPDEST PUSH2 0x3879 JUMP JUMPDEST DUP3 PUSH1 0xA0 ADD DUP2 DUP2 MSTORE POP POP PUSH2 0x577D DUP3 PUSH1 0xA0 ADD MLOAD PUSH1 0xE PUSH1 0x1 SWAP1 SHL PUSH2 0x383D JUMP JUMPDEST DUP3 PUSH1 0xA0 ADD DUP2 DUP2 MSTORE POP POP PUSH2 0x579E DUP3 PUSH1 0xA0 ADD MLOAD PUSH2 0x5799 DUP9 PUSH1 0x1E PUSH2 0x6954 JUMP JUMPDEST PUSH2 0x3879 JUMP JUMPDEST DUP3 PUSH1 0xA0 ADD DUP2 DUP2 MSTORE POP POP PUSH2 0x57BA DUP3 PUSH1 0xA0 ADD MLOAD PUSH1 0xE PUSH1 0x1 SWAP1 SHL PUSH2 0x383D JUMP JUMPDEST DUP3 PUSH1 0xA0 ADD DUP2 DUP2 MSTORE POP POP PUSH2 0x57DB DUP3 PUSH1 0xA0 ADD MLOAD PUSH2 0x57D6 DUP9 PUSH1 0x1D PUSH2 0x6954 JUMP JUMPDEST PUSH2 0x3879 JUMP JUMPDEST DUP3 PUSH1 0xA0 ADD DUP2 DUP2 MSTORE POP POP PUSH2 0x57FC DUP3 PUSH1 0xA0 ADD MLOAD PUSH2 0x57F7 DUP9 PUSH1 0x2A PUSH2 0x6954 JUMP JUMPDEST PUSH2 0x38B5 JUMP JUMPDEST DUP3 PUSH1 0xA0 ADD DUP2 DUP2 MSTORE POP POP PUSH2 0x581D DUP3 PUSH1 0xA0 ADD MLOAD PUSH2 0x5818 DUP9 PUSH1 0x0 PUSH2 0x6954 JUMP JUMPDEST PUSH2 0x383D JUMP JUMPDEST DUP3 PUSH1 0xA0 ADD DUP2 DUP2 MSTORE POP POP PUSH1 0x0 PUSH2 0x583A DUP4 PUSH1 0x80 ADD MLOAD DUP5 PUSH1 0xA0 ADD MLOAD PUSH2 0x3879 JUMP JUMPDEST SWAP1 POP PUSH2 0x5850 DUP2 PUSH2 0x584B DUP10 PUSH1 0x4 PUSH2 0x6954 JUMP JUMPDEST PUSH2 0x383D JUMP JUMPDEST SWAP1 POP PUSH2 0x586A PUSH2 0x5860 DUP9 PUSH1 0x1D PUSH2 0x6954 JUMP JUMPDEST DUP8 PUSH1 0x40 ADD MLOAD PUSH2 0x383D JUMP JUMPDEST DUP4 PUSH1 0xC0 ADD DUP2 DUP2 MSTORE POP POP PUSH2 0x5898 DUP4 PUSH1 0xC0 ADD MLOAD PUSH2 0x5893 PUSH2 0x5889 DUP11 PUSH1 0x1C PUSH2 0x6954 JUMP JUMPDEST DUP10 PUSH1 0x20 ADD MLOAD PUSH2 0x383D JUMP JUMPDEST PUSH2 0x3879 JUMP JUMPDEST DUP4 PUSH1 0xC0 ADD DUP2 DUP2 MSTORE POP POP PUSH2 0x58C6 DUP4 PUSH1 0xC0 ADD MLOAD PUSH2 0x58C1 PUSH2 0x58B7 DUP11 PUSH1 0x1B PUSH2 0x6954 JUMP JUMPDEST DUP10 PUSH1 0x0 ADD MLOAD PUSH2 0x383D JUMP JUMPDEST PUSH2 0x3879 JUMP JUMPDEST DUP4 PUSH1 0xC0 ADD DUP2 DUP2 MSTORE POP POP PUSH2 0x58E7 DUP4 PUSH1 0xC0 ADD MLOAD PUSH2 0x58E2 DUP10 PUSH1 0x1 PUSH2 0x6954 JUMP JUMPDEST PUSH2 0x3879 JUMP JUMPDEST DUP4 PUSH1 0xC0 ADD DUP2 DUP2 MSTORE POP POP DUP3 PUSH1 0xC0 ADD MLOAD DUP4 PUSH1 0xE0 ADD DUP2 DUP2 MSTORE POP POP PUSH2 0x5916 DUP4 PUSH1 0xC0 ADD MLOAD PUSH2 0x5911 DUP10 PUSH1 0x1E PUSH2 0x6954 JUMP JUMPDEST PUSH2 0x38B5 JUMP JUMPDEST DUP4 PUSH1 0xC0 ADD DUP2 DUP2 MSTORE POP POP PUSH2 0x593D PUSH2 0x592D DUP9 PUSH1 0x27 PUSH2 0x6954 JUMP JUMPDEST PUSH2 0x5938 DUP10 PUSH1 0x1B PUSH2 0x6954 JUMP JUMPDEST PUSH2 0x38B5 JUMP JUMPDEST DUP4 PUSH2 0x140 ADD DUP2 DUP2 MSTORE POP POP PUSH2 0x5965 PUSH2 0x5955 DUP9 PUSH1 0x2A PUSH2 0x6954 JUMP JUMPDEST PUSH2 0x5960 DUP10 PUSH1 0x1E PUSH2 0x6954 JUMP JUMPDEST PUSH2 0x38B5 JUMP JUMPDEST DUP4 PUSH2 0x120 ADD DUP2 DUP2 MSTORE POP POP PUSH2 0x5991 PUSH2 0x5986 DUP5 PUSH2 0x140 ADD MLOAD DUP6 PUSH2 0x140 ADD MLOAD PUSH2 0x383D JUMP JUMPDEST DUP5 PUSH2 0x140 ADD MLOAD PUSH2 0x38B5 JUMP JUMPDEST DUP4 PUSH2 0x280 ADD DUP2 DUP2 MSTORE POP POP PUSH2 0x59EE PUSH2 0x59E3 PUSH2 0x59DC DUP6 PUSH2 0x140 ADD MLOAD PUSH1 0x1 PUSH32 0x30644E72E131A029B85045B68181585D2833E84879B9709143E1F593F0000001 PUSH2 0x59D7 SWAP2 SWAP1 PUSH2 0x7421 JUMP JUMPDEST PUSH2 0x383D JUMP JUMPDEST PUSH1 0x1 PUSH2 0x3879 JUMP JUMPDEST DUP5 PUSH2 0x120 ADD MLOAD PUSH2 0x383D JUMP JUMPDEST DUP4 PUSH2 0x160 ADD DUP2 DUP2 MSTORE POP POP PUSH2 0x5A40 PUSH2 0x5A27 DUP5 PUSH2 0x160 ADD MLOAD PUSH2 0x5A22 PUSH2 0x5A12 DUP12 PUSH1 0x2 PUSH2 0x6954 JUMP JUMPDEST PUSH2 0x5A1D DUP13 PUSH1 0x3 PUSH2 0x6954 JUMP JUMPDEST PUSH2 0x383D JUMP JUMPDEST PUSH2 0x383D JUMP JUMPDEST PUSH2 0x5A3B PUSH2 0x5A35 DUP11 PUSH1 0x9 PUSH2 0x6954 JUMP JUMPDEST DUP8 PUSH2 0x383D JUMP JUMPDEST PUSH2 0x383D JUMP JUMPDEST DUP6 PUSH1 0xD PUSH1 0x1A DUP2 LT PUSH2 0x5A54 JUMPI PUSH2 0x5A53 PUSH2 0x73F2 JUMP JUMPDEST JUMPDEST PUSH1 0x20 MUL ADD DUP2 DUP2 MSTORE POP POP PUSH2 0x5AA5 PUSH2 0x5A8C DUP5 PUSH2 0x280 ADD MLOAD PUSH2 0x5A87 PUSH2 0x5A77 DUP12 PUSH1 0x2 PUSH2 0x6954 JUMP JUMPDEST PUSH2 0x5A82 DUP13 PUSH1 0x3 PUSH2 0x6954 JUMP JUMPDEST PUSH2 0x383D JUMP JUMPDEST PUSH2 0x383D JUMP JUMPDEST PUSH2 0x5AA0 PUSH2 0x5A9A DUP11 PUSH1 0x9 PUSH2 0x6954 JUMP JUMPDEST DUP8 PUSH2 0x383D JUMP JUMPDEST PUSH2 0x383D JUMP JUMPDEST DUP6 PUSH1 0xE PUSH1 0x1A DUP2 LT PUSH2 0x5AB9 JUMPI PUSH2 0x5AB8 PUSH2 0x73F2 JUMP JUMPDEST JUMPDEST PUSH1 0x20 MUL ADD DUP2 DUP2 MSTORE POP POP PUSH2 0x5AED DUP4 PUSH1 0xC0 ADD MLOAD PUSH2 0x5AE8 PUSH2 0x5AD8 DUP11 PUSH1 0x2 PUSH2 0x6954 JUMP JUMPDEST PUSH2 0x5AE3 DUP12 PUSH1 0x3 PUSH2 0x6954 JUMP JUMPDEST PUSH2 0x383D JUMP JUMPDEST PUSH2 0x383D JUMP JUMPDEST DUP4 PUSH2 0x1E0 ADD DUP2 DUP2 MSTORE POP POP PUSH1 0x0 PUSH2 0x5B11 PUSH2 0x5B07 DUP10 PUSH1 0x1E PUSH2 0x6954 JUMP JUMPDEST DUP6 PUSH1 0xE0 ADD MLOAD PUSH2 0x38B5 JUMP JUMPDEST SWAP1 POP PUSH2 0x5B26 PUSH2 0x5B20 DUP3 DUP4 PUSH2 0x383D JUMP JUMPDEST DUP3 PUSH2 0x38B5 JUMP JUMPDEST DUP5 PUSH2 0x1A0 ADD DUP2 DUP2 MSTORE POP POP PUSH2 0x5B48 PUSH2 0x5B3E DUP10 PUSH1 0x29 PUSH2 0x6954 JUMP JUMPDEST DUP9 PUSH1 0x40 ADD MLOAD PUSH2 0x383D JUMP JUMPDEST DUP5 PUSH2 0x100 ADD DUP2 DUP2 MSTORE POP POP PUSH2 0x5B78 DUP5 PUSH2 0x100 ADD MLOAD PUSH2 0x5B73 PUSH2 0x5B69 DUP12 PUSH1 0x28 PUSH2 0x6954 JUMP JUMPDEST DUP11 PUSH1 0x20 ADD MLOAD PUSH2 0x383D JUMP JUMPDEST PUSH2 0x3879 JUMP JUMPDEST DUP5 PUSH2 0x100 ADD DUP2 DUP2 MSTORE POP POP PUSH2 0x5BA8 DUP5 PUSH2 0x100 ADD MLOAD PUSH2 0x5BA3 PUSH2 0x5B99 DUP12 PUSH1 0x27 PUSH2 0x6954 JUMP JUMPDEST DUP11 PUSH1 0x0 ADD MLOAD PUSH2 0x383D JUMP JUMPDEST PUSH2 0x3879 JUMP JUMPDEST DUP5 PUSH2 0x100 ADD DUP2 DUP2 MSTORE POP POP PUSH2 0x5BCB PUSH2 0x5BC0 DUP10 PUSH1 0x2A PUSH2 0x6954 JUMP JUMPDEST DUP6 PUSH2 0x100 ADD MLOAD PUSH2 0x38B5 JUMP JUMPDEST DUP5 PUSH2 0x100 ADD DUP2 DUP2 MSTORE POP POP PUSH1 0x0 PUSH2 0x5BF5 PUSH2 0x5BE5 DUP11 PUSH1 0x29 PUSH2 0x6954 JUMP JUMPDEST PUSH2 0x5BF0 DUP12 PUSH1 0x1D PUSH2 0x6954 JUMP JUMPDEST PUSH2 0x38B5 JUMP JUMPDEST SWAP1 POP PUSH2 0x5C92 PUSH2 0x5C48 PUSH2 0x5C42 PUSH2 0x5C3B DUP9 PUSH2 0x140 ADD MLOAD PUSH1 0x1 PUSH32 0x30644E72E131A029B85045B68181585D2833E84879B9709143E1F593F0000001 PUSH2 0x5C36 SWAP2 SWAP1 PUSH2 0x7421 JUMP JUMPDEST PUSH2 0x383D JUMP JUMPDEST PUSH1 0x1 PUSH2 0x3879 JUMP JUMPDEST DUP4 PUSH2 0x383D JUMP JUMPDEST PUSH2 0x5C8D PUSH2 0x5C86 DUP9 PUSH2 0x100 ADD MLOAD PUSH1 0x1 PUSH32 0x30644E72E131A029B85045B68181585D2833E84879B9709143E1F593F0000001 PUSH2 0x5C81 SWAP2 SWAP1 PUSH2 0x7421 JUMP JUMPDEST PUSH2 0x383D JUMP JUMPDEST PUSH1 0x1 PUSH2 0x3879 JUMP JUMPDEST PUSH2 0x383D JUMP JUMPDEST DUP6 PUSH2 0x180 ADD DUP2 DUP2 MSTORE POP POP PUSH2 0x5CBE PUSH2 0x5CB3 DUP7 PUSH2 0x100 ADD MLOAD DUP8 PUSH2 0x100 ADD MLOAD PUSH2 0x383D JUMP JUMPDEST DUP7 PUSH2 0x100 ADD MLOAD PUSH2 0x38B5 JUMP JUMPDEST DUP6 PUSH2 0x1C0 ADD DUP2 DUP2 MSTORE POP POP PUSH2 0x5CFD PUSH2 0x5CE4 DUP7 PUSH2 0x180 ADD MLOAD PUSH2 0x5CDF DUP13 PUSH1 0x6 PUSH2 0x6954 JUMP JUMPDEST PUSH2 0x383D JUMP JUMPDEST PUSH2 0x5CF8 PUSH2 0x5CF2 DUP13 PUSH1 0x9 PUSH2 0x6954 JUMP JUMPDEST DUP10 PUSH2 0x383D JUMP JUMPDEST PUSH2 0x383D JUMP JUMPDEST DUP8 PUSH1 0xF PUSH1 0x1A DUP2 LT PUSH2 0x5D11 JUMPI PUSH2 0x5D10 PUSH2 0x73F2 JUMP JUMPDEST JUMPDEST PUSH1 0x20 MUL ADD DUP2 DUP2 MSTORE POP POP PUSH2 0x5D4F PUSH2 0x5D36 DUP7 PUSH2 0x280 ADD MLOAD PUSH2 0x5D31 DUP13 PUSH1 0x6 PUSH2 0x6954 JUMP JUMPDEST PUSH2 0x383D JUMP JUMPDEST PUSH2 0x5D4A PUSH2 0x5D44 DUP13 PUSH1 0x9 PUSH2 0x6954 JUMP JUMPDEST DUP10 PUSH2 0x383D JUMP JUMPDEST PUSH2 0x383D JUMP JUMPDEST DUP8 PUSH1 0x10 PUSH1 0x1A DUP2 LT PUSH2 0x5D63 JUMPI PUSH2 0x5D62 PUSH2 0x73F2 JUMP JUMPDEST JUMPDEST PUSH1 0x20 MUL ADD DUP2 DUP2 MSTORE POP POP PUSH2 0x5DA1 PUSH2 0x5D88 DUP7 PUSH2 0x1C0 ADD MLOAD PUSH2 0x5D83 DUP13 PUSH1 0x6 PUSH2 0x6954 JUMP JUMPDEST PUSH2 0x383D JUMP JUMPDEST PUSH2 0x5D9C PUSH2 0x5D96 DUP13 PUSH1 0x9 PUSH2 0x6954 JUMP JUMPDEST DUP10 PUSH2 0x383D JUMP JUMPDEST PUSH2 0x383D JUMP JUMPDEST DUP8 PUSH1 0x11 PUSH1 0x1A DUP2 LT PUSH2 0x5DB5 JUMPI PUSH2 0x5DB4 PUSH2 0x73F2 JUMP JUMPDEST JUMPDEST PUSH1 0x20 MUL ADD DUP2 DUP2 MSTORE POP POP PUSH2 0x5DD7 DUP6 PUSH2 0x1A0 ADD MLOAD PUSH2 0x5DD2 DUP12 PUSH1 0x6 PUSH2 0x6954 JUMP JUMPDEST PUSH2 0x383D JUMP JUMPDEST DUP6 PUSH2 0x200 ADD DUP2 DUP2 MSTORE POP POP PUSH2 0x5DFF PUSH2 0x5DEF DUP11 PUSH1 0x28 PUSH2 0x6954 JUMP JUMPDEST PUSH2 0x5DFA DUP12 PUSH1 0x1C PUSH2 0x6954 JUMP JUMPDEST PUSH2 0x38B5 JUMP JUMPDEST DUP6 PUSH2 0x220 ADD DUP2 DUP2 MSTORE POP POP PUSH2 0x5E6F PUSH2 0x5E5F PUSH2 0x5E54 PUSH2 0x5E4D DUP9 PUSH2 0x140 ADD MLOAD PUSH1 0x1 PUSH32 0x30644E72E131A029B85045B68181585D2833E84879B9709143E1F593F0000001 PUSH2 0x5E48 SWAP2 SWAP1 PUSH2 0x7421 JUMP JUMPDEST PUSH2 0x383D JUMP JUMPDEST PUSH1 0x1 PUSH2 0x3879 JUMP JUMPDEST DUP8 PUSH2 0x220 ADD MLOAD PUSH2 0x383D JUMP JUMPDEST PUSH2 0x5E6A DUP12 PUSH1 0x1D PUSH2 0x6954 JUMP JUMPDEST PUSH2 0x38B5 JUMP JUMPDEST DUP6 PUSH2 0x240 ADD DUP2 DUP2 MSTORE POP POP DUP5 PUSH2 0x1E0 ADD MLOAD DUP6 PUSH2 0x260 ADD DUP2 DUP2 MSTORE POP POP PUSH2 0x5EC3 DUP6 PUSH2 0x260 ADD MLOAD PUSH2 0x5EBE DUP8 PUSH2 0x240 ADD MLOAD PUSH2 0x5EB9 PUSH2 0x5EA9 DUP15 PUSH1 0x5 PUSH2 0x6954 JUMP JUMPDEST PUSH2 0x5EB4 DUP16 PUSH1 0x2 PUSH2 0x6954 JUMP JUMPDEST PUSH2 0x383D JUMP JUMPDEST PUSH2 0x383D JUMP JUMPDEST PUSH2 0x3879 JUMP JUMPDEST DUP6 PUSH2 0x260 ADD DUP2 DUP2 MSTORE POP POP PUSH2 0x5F06 DUP6 PUSH2 0x260 ADD MLOAD PUSH2 0x5F01 DUP8 PUSH1 0xC0 ADD MLOAD PUSH2 0x5EFC PUSH2 0x5EEC DUP15 PUSH1 0x0 PUSH2 0x6954 JUMP JUMPDEST PUSH2 0x5EF7 DUP16 PUSH1 0x2 PUSH2 0x6954 JUMP JUMPDEST PUSH2 0x383D JUMP JUMPDEST PUSH2 0x383D JUMP JUMPDEST PUSH2 0x3879 JUMP JUMPDEST DUP6 PUSH2 0x260 ADD DUP2 DUP2 MSTORE POP POP PUSH2 0x5F24 DUP6 PUSH2 0x260 ADD MLOAD DUP7 PUSH2 0x200 ADD MLOAD PUSH2 0x3879 JUMP JUMPDEST DUP6 PUSH2 0x260 ADD DUP2 DUP2 MSTORE POP POP PUSH2 0x5F46 PUSH2 0x5F40 DUP7 PUSH2 0x260 ADD MLOAD DUP7 PUSH2 0x3879 JUMP JUMPDEST DUP5 PUSH2 0x3879 JUMP JUMPDEST DUP6 PUSH2 0x2A0 ADD DUP2 DUP2 MSTORE POP POP PUSH2 0x5F72 DUP6 PUSH2 0x2A0 ADD MLOAD PUSH2 0x5F6D PUSH2 0x5F67 DUP13 PUSH1 0x9 PUSH2 0x6954 JUMP JUMPDEST DUP10 PUSH2 0x383D JUMP JUMPDEST PUSH2 0x383D JUMP JUMPDEST DUP6 PUSH2 0x2A0 ADD DUP2 DUP2 MSTORE POP POP DUP5 PUSH2 0x2A0 ADD MLOAD DUP8 PUSH1 0xC PUSH1 0x1A DUP2 LT PUSH2 0x5F96 JUMPI PUSH2 0x5F95 PUSH2 0x73F2 JUMP JUMPDEST JUMPDEST PUSH1 0x20 MUL ADD DUP2 DUP2 MSTORE POP POP POP POP POP POP POP POP POP POP POP JUMP JUMPDEST PUSH2 0x5FB2 PUSH2 0x6F7C JUMP JUMPDEST PUSH2 0x5FD0 PUSH2 0x5FC0 DUP6 PUSH1 0x1B PUSH2 0x6954 JUMP JUMPDEST PUSH2 0x5FCB DUP7 PUSH1 0x2 PUSH2 0x6954 JUMP JUMPDEST PUSH2 0x3879 JUMP JUMPDEST DUP2 PUSH1 0x0 ADD DUP2 DUP2 MSTORE POP POP PUSH2 0x5FF7 PUSH2 0x5FE7 DUP6 PUSH1 0x1C PUSH2 0x6954 JUMP JUMPDEST PUSH2 0x5FF2 DUP7 PUSH1 0x3 PUSH2 0x6954 JUMP JUMPDEST PUSH2 0x3879 JUMP JUMPDEST DUP2 PUSH1 0x20 ADD DUP2 DUP2 MSTORE POP POP PUSH2 0x601E PUSH2 0x600E DUP6 PUSH1 0x1D PUSH2 0x6954 JUMP JUMPDEST PUSH2 0x6019 DUP7 PUSH1 0x4 PUSH2 0x6954 JUMP JUMPDEST PUSH2 0x3879 JUMP JUMPDEST DUP2 PUSH1 0x40 ADD DUP2 DUP2 MSTORE POP POP PUSH2 0x6045 PUSH2 0x6035 DUP6 PUSH1 0x1E PUSH2 0x6954 JUMP JUMPDEST PUSH2 0x6040 DUP7 PUSH1 0x5 PUSH2 0x6954 JUMP JUMPDEST PUSH2 0x3879 JUMP JUMPDEST DUP2 PUSH1 0x60 ADD DUP2 DUP2 MSTORE POP POP PUSH2 0x6087 PUSH2 0x607D PUSH2 0x6073 PUSH2 0x6069 DUP5 PUSH1 0x0 ADD MLOAD DUP6 PUSH1 0x0 ADD MLOAD PUSH2 0x383D JUMP JUMPDEST DUP5 PUSH1 0x0 ADD MLOAD PUSH2 0x383D JUMP JUMPDEST DUP4 PUSH1 0x0 ADD MLOAD PUSH2 0x383D JUMP JUMPDEST DUP3 PUSH1 0x0 ADD MLOAD PUSH2 0x383D JUMP JUMPDEST DUP2 PUSH1 0x80 ADD DUP2 DUP2 MSTORE POP POP PUSH2 0x60C9 PUSH2 0x60BF PUSH2 0x60B5 PUSH2 0x60AB DUP5 PUSH1 0x20 ADD MLOAD DUP6 PUSH1 0x20 ADD MLOAD PUSH2 0x383D JUMP JUMPDEST DUP5 PUSH1 0x20 ADD MLOAD PUSH2 0x383D JUMP JUMPDEST DUP4 PUSH1 0x20 ADD MLOAD PUSH2 0x383D JUMP JUMPDEST DUP3 PUSH1 0x20 ADD MLOAD PUSH2 0x383D JUMP JUMPDEST DUP2 PUSH1 0xA0 ADD DUP2 DUP2 MSTORE POP POP PUSH2 0x610B PUSH2 0x6101 PUSH2 0x60F7 PUSH2 0x60ED DUP5 PUSH1 0x40 ADD MLOAD DUP6 PUSH1 0x40 ADD MLOAD PUSH2 0x383D JUMP JUMPDEST DUP5 PUSH1 0x40 ADD MLOAD PUSH2 0x383D JUMP JUMPDEST DUP4 PUSH1 0x40 ADD MLOAD PUSH2 0x383D JUMP JUMPDEST DUP3 PUSH1 0x40 ADD MLOAD PUSH2 0x383D JUMP JUMPDEST DUP2 PUSH1 0xC0 ADD DUP2 DUP2 MSTORE POP POP PUSH2 0x614D PUSH2 0x6143 PUSH2 0x6139 PUSH2 0x612F DUP5 PUSH1 0x60 ADD MLOAD DUP6 PUSH1 0x60 ADD MLOAD PUSH2 0x383D JUMP JUMPDEST DUP5 PUSH1 0x60 ADD MLOAD PUSH2 0x383D JUMP JUMPDEST DUP4 PUSH1 0x60 ADD MLOAD PUSH2 0x383D JUMP JUMPDEST DUP3 PUSH1 0x60 ADD MLOAD PUSH2 0x383D JUMP JUMPDEST DUP2 PUSH1 0xE0 ADD DUP2 DUP2 MSTORE POP POP PUSH2 0x6168 DUP2 PUSH1 0x80 ADD MLOAD DUP3 PUSH1 0xA0 ADD MLOAD PUSH2 0x3879 JUMP JUMPDEST DUP2 PUSH2 0x100 ADD DUP2 DUP2 MSTORE POP POP PUSH2 0x6184 DUP2 PUSH1 0xC0 ADD MLOAD DUP3 PUSH1 0xE0 ADD MLOAD PUSH2 0x3879 JUMP JUMPDEST DUP2 PUSH2 0x120 ADD DUP2 DUP2 MSTORE POP POP PUSH2 0x61AE PUSH2 0x61A3 DUP3 PUSH1 0xA0 ADD MLOAD DUP4 PUSH1 0xA0 ADD MLOAD PUSH2 0x3879 JUMP JUMPDEST DUP3 PUSH2 0x120 ADD MLOAD PUSH2 0x3879 JUMP JUMPDEST DUP2 PUSH2 0x140 ADD DUP2 DUP2 MSTORE POP POP PUSH2 0x61D8 PUSH2 0x61CD DUP3 PUSH1 0xE0 ADD MLOAD DUP4 PUSH1 0xE0 ADD MLOAD PUSH2 0x3879 JUMP JUMPDEST DUP3 PUSH2 0x100 ADD MLOAD PUSH2 0x3879 JUMP JUMPDEST DUP2 PUSH2 0x160 ADD DUP2 DUP2 MSTORE POP POP PUSH2 0x61F6 DUP2 PUSH2 0x120 ADD MLOAD DUP3 PUSH2 0x120 ADD MLOAD PUSH2 0x3879 JUMP JUMPDEST DUP2 PUSH2 0x1E0 ADD DUP2 DUP2 MSTORE POP POP PUSH2 0x6222 PUSH2 0x6217 DUP3 PUSH2 0x1E0 ADD MLOAD DUP4 PUSH2 0x1E0 ADD MLOAD PUSH2 0x3879 JUMP JUMPDEST DUP3 PUSH2 0x160 ADD MLOAD PUSH2 0x3879 JUMP JUMPDEST DUP2 PUSH2 0x1E0 ADD DUP2 DUP2 MSTORE POP POP PUSH2 0x6240 DUP2 PUSH2 0x100 ADD MLOAD DUP3 PUSH2 0x100 ADD MLOAD PUSH2 0x3879 JUMP JUMPDEST DUP2 PUSH2 0x1A0 ADD DUP2 DUP2 MSTORE POP POP PUSH2 0x626C PUSH2 0x6261 DUP3 PUSH2 0x1A0 ADD MLOAD DUP4 PUSH2 0x1A0 ADD MLOAD PUSH2 0x3879 JUMP JUMPDEST DUP3 PUSH2 0x140 ADD MLOAD PUSH2 0x3879 JUMP JUMPDEST DUP2 PUSH2 0x1A0 ADD DUP2 DUP2 MSTORE POP POP PUSH2 0x628A DUP2 PUSH2 0x160 ADD MLOAD DUP3 PUSH2 0x1A0 ADD MLOAD PUSH2 0x3879 JUMP JUMPDEST DUP2 PUSH2 0x180 ADD DUP2 DUP2 MSTORE POP POP PUSH2 0x62A8 DUP2 PUSH2 0x140 ADD MLOAD DUP3 PUSH2 0x1E0 ADD MLOAD PUSH2 0x3879 JUMP JUMPDEST DUP2 PUSH2 0x1C0 ADD DUP2 DUP2 MSTORE POP POP PUSH2 0x62C6 PUSH2 0x62C0 DUP6 PUSH1 0xB PUSH2 0x6954 JUMP JUMPDEST DUP4 PUSH2 0x383D JUMP JUMPDEST DUP2 PUSH2 0x200 ADD DUP2 DUP2 MSTORE POP POP PUSH2 0x6318 DUP4 PUSH1 0x12 PUSH1 0x1A DUP2 LT PUSH2 0x62E7 JUMPI PUSH2 0x62E6 PUSH2 0x73F2 JUMP JUMPDEST JUMPDEST PUSH1 0x20 MUL ADD MLOAD PUSH2 0x6313 DUP4 PUSH2 0x200 ADD MLOAD PUSH2 0x630E DUP6 PUSH2 0x180 ADD MLOAD PUSH2 0x6309 DUP11 PUSH1 0x27 PUSH2 0x6954 JUMP JUMPDEST PUSH2 0x38B5 JUMP JUMPDEST PUSH2 0x383D JUMP JUMPDEST PUSH2 0x3879 JUMP JUMPDEST DUP4 PUSH1 0x12 PUSH1 0x1A DUP2 LT PUSH2 0x632C JUMPI PUSH2 0x632B PUSH2 0x73F2 JUMP JUMPDEST JUMPDEST PUSH1 0x20 MUL ADD DUP2 DUP2 MSTORE POP POP PUSH2 0x637D DUP4 PUSH1 0x13 PUSH1 0x1A DUP2 LT PUSH2 0x634C JUMPI PUSH2 0x634B PUSH2 0x73F2 JUMP JUMPDEST JUMPDEST PUSH1 0x20 MUL ADD MLOAD PUSH2 0x6378 DUP4 PUSH2 0x200 ADD MLOAD PUSH2 0x6373 DUP6 PUSH2 0x1A0 ADD MLOAD PUSH2 0x636E DUP11 PUSH1 0x28 PUSH2 0x6954 JUMP JUMPDEST PUSH2 0x38B5 JUMP JUMPDEST PUSH2 0x383D JUMP JUMPDEST PUSH2 0x3879 JUMP JUMPDEST DUP4 PUSH1 0x13 PUSH1 0x1A DUP2 LT PUSH2 0x6391 JUMPI PUSH2 0x6390 PUSH2 0x73F2 JUMP JUMPDEST JUMPDEST PUSH1 0x20 MUL ADD DUP2 DUP2 MSTORE POP POP PUSH2 0x63E2 DUP4 PUSH1 0x14 PUSH1 0x1A DUP2 LT PUSH2 0x63B1 JUMPI PUSH2 0x63B0 PUSH2 0x73F2 JUMP JUMPDEST JUMPDEST PUSH1 0x20 MUL ADD MLOAD PUSH2 0x63DD DUP4 PUSH2 0x200 ADD MLOAD PUSH2 0x63D8 DUP6 PUSH2 0x1C0 ADD MLOAD PUSH2 0x63D3 DUP11 PUSH1 0x29 PUSH2 0x6954 JUMP JUMPDEST PUSH2 0x38B5 JUMP JUMPDEST PUSH2 0x383D JUMP JUMPDEST PUSH2 0x3879 JUMP JUMPDEST DUP4 PUSH1 0x14 PUSH1 0x1A DUP2 LT PUSH2 0x63F6 JUMPI PUSH2 0x63F5 PUSH2 0x73F2 JUMP JUMPDEST JUMPDEST PUSH1 0x20 MUL ADD DUP2 DUP2 MSTORE POP POP PUSH2 0x6447 DUP4 PUSH1 0x15 PUSH1 0x1A DUP2 LT PUSH2 0x6416 JUMPI PUSH2 0x6415 PUSH2 0x73F2 JUMP JUMPDEST JUMPDEST PUSH1 0x20 MUL ADD MLOAD PUSH2 0x6442 DUP4 PUSH2 0x200 ADD MLOAD PUSH2 0x643D DUP6 PUSH2 0x1E0 ADD MLOAD PUSH2 0x6438 DUP11 PUSH1 0x2A PUSH2 0x6954 JUMP JUMPDEST PUSH2 0x38B5 JUMP JUMPDEST PUSH2 0x383D JUMP JUMPDEST PUSH2 0x3879 JUMP JUMPDEST DUP4 PUSH1 0x15 PUSH1 0x1A DUP2 LT PUSH2 0x645B JUMPI PUSH2 0x645A PUSH2 0x73F2 JUMP JUMPDEST JUMPDEST PUSH1 0x20 MUL ADD DUP2 DUP2 MSTORE POP POP POP POP POP POP JUMP JUMPDEST PUSH2 0x6472 PUSH2 0x7000 JUMP JUMPDEST PUSH1 0x0 PUSH1 0x40 MLOAD DUP1 PUSH1 0x80 ADD PUSH1 0x40 MSTORE DUP1 PUSH2 0x64A8 PUSH32 0x10DC6E9C006EA38B04B1E03B4BD9490C0D03F98929CA1D7FB56821FD19D3B6E7 PUSH2 0x3808 JUMP JUMPDEST DUP2 MSTORE PUSH1 0x20 ADD PUSH2 0x64D6 PUSH32 0xC28145B6A44DF3E0149B3D0A30B3BB599DF9756D4DD9B84A86B38CFB45A740B PUSH2 0x3808 JUMP JUMPDEST DUP2 MSTORE PUSH1 0x20 ADD PUSH2 0x6503 PUSH31 0x544B8338791518B2C7645A50392798B21F75BB60E3596170067D00141CAC15 PUSH2 0x3808 JUMP JUMPDEST DUP2 MSTORE PUSH1 0x20 ADD PUSH2 0x6531 PUSH32 0x222C01175718386F2E2E82EB122789E352E105A3B8FA852613BC534433EE428B PUSH2 0x3808 JUMP JUMPDEST DUP2 MSTORE POP SWAP1 POP PUSH2 0x6554 PUSH2 0x6544 DUP7 PUSH1 0x1B PUSH2 0x6954 JUMP JUMPDEST PUSH2 0x654F DUP8 PUSH1 0x2 PUSH2 0x6954 JUMP JUMPDEST PUSH2 0x3879 JUMP JUMPDEST DUP3 PUSH2 0x120 ADD DUP2 DUP2 MSTORE POP POP PUSH2 0x659C PUSH2 0x6591 PUSH2 0x6586 PUSH2 0x657B DUP6 PUSH2 0x120 ADD MLOAD DUP7 PUSH2 0x120 ADD MLOAD PUSH2 0x383D JUMP JUMPDEST DUP6 PUSH2 0x120 ADD MLOAD PUSH2 0x383D JUMP JUMPDEST DUP5 PUSH2 0x120 ADD MLOAD PUSH2 0x383D JUMP JUMPDEST DUP4 PUSH2 0x120 ADD MLOAD PUSH2 0x383D JUMP JUMPDEST DUP3 PUSH1 0x0 ADD DUP2 DUP2 MSTORE POP POP PUSH2 0x65B0 DUP6 PUSH1 0x1C PUSH2 0x6954 JUMP JUMPDEST DUP3 PUSH1 0x20 ADD DUP2 DUP2 MSTORE POP POP PUSH2 0x65C4 DUP6 PUSH1 0x1D PUSH2 0x6954 JUMP JUMPDEST DUP3 PUSH1 0x40 ADD DUP2 DUP2 MSTORE POP POP PUSH2 0x65D8 DUP6 PUSH1 0x1E PUSH2 0x6954 JUMP JUMPDEST DUP3 PUSH1 0x60 ADD DUP2 DUP2 MSTORE POP POP PUSH2 0x660D PUSH2 0x6603 PUSH2 0x65F9 DUP5 PUSH1 0x0 ADD MLOAD DUP6 PUSH1 0x20 ADD MLOAD PUSH2 0x3879 JUMP JUMPDEST DUP5 PUSH1 0x40 ADD MLOAD PUSH2 0x3879 JUMP JUMPDEST DUP4 PUSH1 0x60 ADD MLOAD PUSH2 0x3879 JUMP JUMPDEST DUP3 PUSH1 0x80 ADD DUP2 DUP2 MSTORE POP POP PUSH2 0x662A PUSH2 0x6624 DUP7 PUSH1 0xC PUSH2 0x6954 JUMP JUMPDEST DUP5 PUSH2 0x383D JUMP JUMPDEST DUP3 PUSH2 0x140 ADD DUP2 DUP2 MSTORE POP POP PUSH2 0x6667 PUSH2 0x665D DUP4 PUSH1 0x0 ADD MLOAD DUP4 PUSH1 0x0 PUSH1 0x4 DUP2 LT PUSH2 0x6653 JUMPI PUSH2 0x6652 PUSH2 0x73F2 JUMP JUMPDEST JUMPDEST PUSH1 0x20 MUL ADD MLOAD PUSH2 0x383D JUMP JUMPDEST DUP4 PUSH1 0x80 ADD MLOAD PUSH2 0x3879 JUMP JUMPDEST DUP3 PUSH1 0xA0 ADD DUP2 DUP2 MSTORE POP POP PUSH2 0x66B7 DUP5 PUSH1 0x16 PUSH1 0x1A DUP2 LT PUSH2 0x6687 JUMPI PUSH2 0x6686 PUSH2 0x73F2 JUMP JUMPDEST JUMPDEST PUSH1 0x20 MUL ADD MLOAD PUSH2 0x66B2 DUP5 PUSH2 0x140 ADD MLOAD PUSH2 0x66AD DUP7 PUSH1 0xA0 ADD MLOAD PUSH2 0x66A8 DUP12 PUSH1 0x27 PUSH2 0x6954 JUMP JUMPDEST PUSH2 0x38B5 JUMP JUMPDEST PUSH2 0x383D JUMP JUMPDEST PUSH2 0x3879 JUMP JUMPDEST DUP5 PUSH1 0x16 PUSH1 0x1A DUP2 LT PUSH2 0x66CB JUMPI PUSH2 0x66CA PUSH2 0x73F2 JUMP JUMPDEST JUMPDEST PUSH1 0x20 MUL ADD DUP2 DUP2 MSTORE POP POP PUSH2 0x6707 PUSH2 0x66FD DUP4 PUSH1 0x20 ADD MLOAD DUP4 PUSH1 0x1 PUSH1 0x4 DUP2 LT PUSH2 0x66F3 JUMPI PUSH2 0x66F2 PUSH2 0x73F2 JUMP JUMPDEST JUMPDEST PUSH1 0x20 MUL ADD MLOAD PUSH2 0x383D JUMP JUMPDEST DUP4 PUSH1 0x80 ADD MLOAD PUSH2 0x3879 JUMP JUMPDEST DUP3 PUSH1 0xC0 ADD DUP2 DUP2 MSTORE POP POP PUSH2 0x6757 DUP5 PUSH1 0x17 PUSH1 0x1A DUP2 LT PUSH2 0x6727 JUMPI PUSH2 0x6726 PUSH2 0x73F2 JUMP JUMPDEST JUMPDEST PUSH1 0x20 MUL ADD MLOAD PUSH2 0x6752 DUP5 PUSH2 0x140 ADD MLOAD PUSH2 0x674D DUP7 PUSH1 0xC0 ADD MLOAD PUSH2 0x6748 DUP12 PUSH1 0x28 PUSH2 0x6954 JUMP JUMPDEST PUSH2 0x38B5 JUMP JUMPDEST PUSH2 0x383D JUMP JUMPDEST PUSH2 0x3879 JUMP JUMPDEST DUP5 PUSH1 0x17 PUSH1 0x1A DUP2 LT PUSH2 0x676B JUMPI PUSH2 0x676A PUSH2 0x73F2 JUMP JUMPDEST JUMPDEST PUSH1 0x20 MUL ADD DUP2 DUP2 MSTORE POP POP PUSH2 0x67A7 PUSH2 0x679D DUP4 PUSH1 0x40 ADD MLOAD DUP4 PUSH1 0x2 PUSH1 0x4 DUP2 LT PUSH2 0x6793 JUMPI PUSH2 0x6792 PUSH2 0x73F2 JUMP JUMPDEST JUMPDEST PUSH1 0x20 MUL ADD MLOAD PUSH2 0x383D JUMP JUMPDEST DUP4 PUSH1 0x80 ADD MLOAD PUSH2 0x3879 JUMP JUMPDEST DUP3 PUSH1 0xE0 ADD DUP2 DUP2 MSTORE POP POP PUSH2 0x67F7 DUP5 PUSH1 0x18 PUSH1 0x1A DUP2 LT PUSH2 0x67C7 JUMPI PUSH2 0x67C6 PUSH2 0x73F2 JUMP JUMPDEST JUMPDEST PUSH1 0x20 MUL ADD MLOAD PUSH2 0x67F2 DUP5 PUSH2 0x140 ADD MLOAD PUSH2 0x67ED DUP7 PUSH1 0xE0 ADD MLOAD PUSH2 0x67E8 DUP12 PUSH1 0x29 PUSH2 0x6954 JUMP JUMPDEST PUSH2 0x38B5 JUMP JUMPDEST PUSH2 0x383D JUMP JUMPDEST PUSH2 0x3879 JUMP JUMPDEST DUP5 PUSH1 0x18 PUSH1 0x1A DUP2 LT PUSH2 0x680B JUMPI PUSH2 0x680A PUSH2 0x73F2 JUMP JUMPDEST JUMPDEST PUSH1 0x20 MUL ADD DUP2 DUP2 MSTORE POP POP PUSH2 0x6847 PUSH2 0x683D DUP4 PUSH1 0x60 ADD MLOAD DUP4 PUSH1 0x3 PUSH1 0x4 DUP2 LT PUSH2 0x6833 JUMPI PUSH2 0x6832 PUSH2 0x73F2 JUMP JUMPDEST JUMPDEST PUSH1 0x20 MUL ADD MLOAD PUSH2 0x383D JUMP JUMPDEST DUP4 PUSH1 0x80 ADD MLOAD PUSH2 0x3879 JUMP JUMPDEST DUP3 PUSH2 0x100 ADD DUP2 DUP2 MSTORE POP POP PUSH2 0x6899 DUP5 PUSH1 0x19 PUSH1 0x1A DUP2 LT PUSH2 0x6868 JUMPI PUSH2 0x6867 PUSH2 0x73F2 JUMP JUMPDEST JUMPDEST PUSH1 0x20 MUL ADD MLOAD PUSH2 0x6894 DUP5 PUSH2 0x140 ADD MLOAD PUSH2 0x688F DUP7 PUSH2 0x100 ADD MLOAD PUSH2 0x688A DUP12 PUSH1 0x2A PUSH2 0x6954 JUMP JUMPDEST PUSH2 0x38B5 JUMP JUMPDEST PUSH2 0x383D JUMP JUMPDEST PUSH2 0x3879 JUMP JUMPDEST DUP5 PUSH1 0x19 PUSH1 0x1A DUP2 LT PUSH2 0x68AD JUMPI PUSH2 0x68AC PUSH2 0x73F2 JUMP JUMPDEST JUMPDEST PUSH1 0x20 MUL ADD DUP2 DUP2 MSTORE POP POP POP POP POP POP POP JUMP JUMPDEST PUSH1 0x0 PUSH2 0x68E1 DUP2 DUP5 PUSH1 0x0 PUSH1 0x1A DUP2 LT PUSH2 0x68D7 JUMPI PUSH2 0x68D6 PUSH2 0x73F2 JUMP JUMPDEST JUMPDEST PUSH1 0x20 MUL ADD MLOAD PUSH2 0x3879 JUMP JUMPDEST SWAP1 POP PUSH1 0x0 PUSH1 0x1 SWAP1 POP JUMPDEST PUSH1 0x1A DUP2 LT ISZERO PUSH2 0x694D JUMPI PUSH2 0x6940 DUP3 PUSH2 0x693B DUP7 DUP5 PUSH1 0x1A DUP2 LT PUSH2 0x690D JUMPI PUSH2 0x690C PUSH2 0x73F2 JUMP JUMPDEST JUMPDEST PUSH1 0x20 MUL ADD MLOAD DUP7 PUSH1 0x1 DUP7 PUSH2 0x6920 SWAP2 SWAP1 PUSH2 0x7421 JUMP JUMPDEST PUSH1 0x19 DUP2 LT PUSH2 0x6931 JUMPI PUSH2 0x6930 PUSH2 0x73F2 JUMP JUMPDEST JUMPDEST PUSH1 0x20 MUL ADD MLOAD PUSH2 0x383D JUMP JUMPDEST PUSH2 0x3879 JUMP JUMPDEST SWAP2 POP DUP1 PUSH1 0x1 ADD SWAP1 POP PUSH2 0x68EA JUMP JUMPDEST POP SWAP3 SWAP2 POP POP JUMP JUMPDEST PUSH1 0x0 DUP3 DUP3 PUSH1 0x2B DUP2 GT ISZERO PUSH2 0x696A JUMPI PUSH2 0x6969 PUSH2 0x7D16 JUMP JUMPDEST JUMPDEST PUSH1 0x2C DUP2 LT PUSH2 0x697B JUMPI PUSH2 0x697A PUSH2 0x73F2 JUMP JUMPDEST JUMPDEST PUSH1 0x20 MUL ADD MLOAD SWAP1 POP SWAP3 SWAP2 POP POP JUMP JUMPDEST PUSH1 0x40 MLOAD DUP1 PUSH2 0x3C0 ADD PUSH1 0x40 MSTORE DUP1 PUSH1 0x0 DUP2 MSTORE PUSH1 0x20 ADD PUSH1 0x0 DUP2 MSTORE PUSH1 0x20 ADD PUSH1 0x0 DUP2 MSTORE PUSH1 0x20 ADD PUSH2 0x69B1 PUSH2 0x6E7E JUMP JUMPDEST DUP2 MSTORE PUSH1 0x20 ADD PUSH2 0x69BE PUSH2 0x6E7E JUMP JUMPDEST DUP2 MSTORE PUSH1 0x20 ADD PUSH2 0x69CB PUSH2 0x6E7E JUMP JUMPDEST DUP2 MSTORE PUSH1 0x20 ADD PUSH2 0x69D8 PUSH2 0x6E7E JUMP JUMPDEST DUP2 MSTORE PUSH1 0x20 ADD PUSH2 0x69E5 PUSH2 0x6E7E JUMP JUMPDEST DUP2 MSTORE PUSH1 0x20 ADD PUSH2 0x69F2 PUSH2 0x6E7E JUMP JUMPDEST DUP2 MSTORE PUSH1 0x20 ADD PUSH2 0x69FF PUSH2 0x6E7E JUMP JUMPDEST DUP2 MSTORE PUSH1 0x20 ADD PUSH2 0x6A0C PUSH2 0x6E7E JUMP JUMPDEST DUP2 MSTORE PUSH1 0x20 ADD PUSH2 0x6A19 PUSH2 0x6E7E JUMP JUMPDEST DUP2 MSTORE PUSH1 0x20 ADD PUSH2 0x6A26 PUSH2 0x6E7E JUMP JUMPDEST DUP2 MSTORE PUSH1 0x20 ADD PUSH2 0x6A33 PUSH2 0x6E7E JUMP JUMPDEST DUP2 MSTORE PUSH1 0x20 ADD PUSH2 0x6A40 PUSH2 0x6E7E JUMP JUMPDEST DUP2 MSTORE PUSH1 0x20 ADD PUSH2 0x6A4D PUSH2 0x6E7E JUMP JUMPDEST DUP2 MSTORE PUSH1 0x20 ADD PUSH2 0x6A5A PUSH2 0x6E7E JUMP JUMPDEST DUP2 MSTORE PUSH1 0x20 ADD PUSH2 0x6A67 PUSH2 0x6E7E JUMP JUMPDEST DUP2 MSTORE PUSH1 0x20 ADD PUSH2 0x6A74 PUSH2 0x6E7E JUMP JUMPDEST DUP2 MSTORE PUSH1 0x20 ADD PUSH2 0x6A81 PUSH2 0x6E7E JUMP JUMPDEST DUP2 MSTORE PUSH1 0x20 ADD PUSH2 0x6A8E PUSH2 0x6E7E JUMP JUMPDEST DUP2 MSTORE PUSH1 0x20 ADD PUSH2 0x6A9B PUSH2 0x6E7E JUMP JUMPDEST DUP2 MSTORE PUSH1 0x20 ADD PUSH2 0x6AA8 PUSH2 0x6E7E JUMP JUMPDEST DUP2 MSTORE PUSH1 0x20 ADD PUSH2 0x6AB5 PUSH2 0x6E7E JUMP JUMPDEST DUP2 MSTORE PUSH1 0x20 ADD PUSH2 0x6AC2 PUSH2 0x6E7E JUMP JUMPDEST DUP2 MSTORE PUSH1 0x20 ADD PUSH2 0x6ACF PUSH2 0x6E7E JUMP JUMPDEST DUP2 MSTORE PUSH1 0x20 ADD PUSH2 0x6ADC PUSH2 0x6E7E JUMP JUMPDEST DUP2 MSTORE PUSH1 0x20 ADD PUSH2 0x6AE9 PUSH2 0x6E7E JUMP JUMPDEST DUP2 MSTORE PUSH1 0x20 ADD PUSH2 0x6AF6 PUSH2 0x6E7E JUMP JUMPDEST DUP2 MSTORE PUSH1 0x20 ADD PUSH2 0x6B03 PUSH2 0x6E7E JUMP JUMPDEST DUP2 MSTORE POP SWAP1 JUMP JUMPDEST PUSH1 0x40 MLOAD DUP1 PUSH2 0x220 ADD PUSH1 0x40 MSTORE DUP1 PUSH1 0x0 DUP2 MSTORE PUSH1 0x20 ADD PUSH1 0x0 DUP2 MSTORE PUSH1 0x20 ADD PUSH1 0x0 DUP2 MSTORE PUSH1 0x20 ADD PUSH2 0x6B32 PUSH2 0x705A JUMP JUMPDEST DUP2 MSTORE PUSH1 0x20 ADD PUSH2 0x6B3F PUSH2 0x705A JUMP JUMPDEST DUP2 MSTORE PUSH1 0x20 ADD PUSH2 0x6B4C PUSH2 0x705A JUMP JUMPDEST DUP2 MSTORE PUSH1 0x20 ADD PUSH2 0x6B59 PUSH2 0x705A JUMP JUMPDEST DUP2 MSTORE PUSH1 0x20 ADD PUSH2 0x6B66 PUSH2 0x705A JUMP JUMPDEST DUP2 MSTORE PUSH1 0x20 ADD PUSH2 0x6B73 PUSH2 0x705A JUMP JUMPDEST DUP2 MSTORE PUSH1 0x20 ADD PUSH2 0x6B80 PUSH2 0x705A JUMP JUMPDEST DUP2 MSTORE PUSH1 0x20 ADD PUSH2 0x6B8D PUSH2 0x705A JUMP JUMPDEST DUP2 MSTORE PUSH1 0x20 ADD PUSH2 0x6B9A PUSH2 0x7082 JUMP JUMPDEST DUP2 MSTORE PUSH1 0x20 ADD PUSH2 0x6BA7 PUSH2 0x70B0 JUMP JUMPDEST DUP2 MSTORE PUSH1 0x20 ADD PUSH2 0x6BB4 PUSH2 0x70D3 JUMP JUMPDEST DUP2 MSTORE PUSH1 0x20 ADD PUSH2 0x6BC1 PUSH2 0x6D44 JUMP JUMPDEST DUP2 MSTORE PUSH1 0x20 ADD PUSH2 0x6BCE PUSH2 0x705A JUMP JUMPDEST DUP2 MSTORE PUSH1 0x20 ADD PUSH2 0x6BDB PUSH2 0x705A JUMP JUMPDEST DUP2 MSTORE POP SWAP1 JUMP JUMPDEST PUSH1 0x40 MLOAD DUP1 PUSH2 0x1A0 ADD PUSH1 0x40 MSTORE DUP1 PUSH1 0x0 DUP2 MSTORE PUSH1 0x20 ADD PUSH1 0x0 DUP2 MSTORE PUSH1 0x20 ADD PUSH1 0x0 DUP2 MSTORE PUSH1 0x20 ADD PUSH1 0x0 DUP2 MSTORE PUSH1 0x20 ADD PUSH1 0x0 DUP2 MSTORE PUSH1 0x20 ADD PUSH2 0x6C18 PUSH2 0x6CFE JUMP JUMPDEST DUP2 MSTORE PUSH1 0x20 ADD PUSH2 0x6C25 PUSH2 0x6D44 JUMP JUMPDEST DUP2 MSTORE PUSH1 0x20 ADD PUSH2 0x6C32 PUSH2 0x6D44 JUMP JUMPDEST DUP2 MSTORE PUSH1 0x20 ADD PUSH1 0x0 DUP2 MSTORE PUSH1 0x20 ADD PUSH1 0x0 DUP2 MSTORE PUSH1 0x20 ADD PUSH1 0x0 DUP2 MSTORE PUSH1 0x20 ADD PUSH1 0x0 DUP2 MSTORE PUSH1 0x20 ADD PUSH1 0x0 DUP2 MSTORE POP SWAP1 JUMP JUMPDEST PUSH1 0x40 MLOAD DUP1 PUSH1 0xA0 ADD PUSH1 0x40 MSTORE DUP1 PUSH1 0x0 DUP2 MSTORE PUSH1 0x20 ADD PUSH1 0x0 DUP2 MSTORE PUSH1 0x20 ADD PUSH1 0x0 DUP2 MSTORE PUSH1 0x20 ADD PUSH1 0x0 DUP2 MSTORE PUSH1 0x20 ADD PUSH1 0x0 DUP2 MSTORE POP SWAP1 JUMP JUMPDEST PUSH1 0x40 MLOAD DUP1 PUSH2 0x940 ADD PUSH1 0x40 MSTORE DUP1 PUSH1 0x4A SWAP1 PUSH1 0x20 DUP3 MUL DUP1 CALLDATASIZE DUP4 CALLDATACOPY DUP1 DUP3 ADD SWAP2 POP POP SWAP1 POP POP SWAP1 JUMP JUMPDEST PUSH1 0x40 MLOAD DUP1 PUSH2 0x940 ADD PUSH1 0x40 MSTORE DUP1 PUSH1 0x4A SWAP1 JUMPDEST PUSH2 0x6CC5 PUSH2 0x6E7E JUMP JUMPDEST DUP2 MSTORE PUSH1 0x20 ADD SWAP1 PUSH1 0x1 SWAP1 SUB SWAP1 DUP2 PUSH2 0x6CBD JUMPI SWAP1 POP POP SWAP1 JUMP JUMPDEST PUSH1 0x40 MLOAD DUP1 PUSH2 0x1A0 ADD PUSH1 0x40 MSTORE DUP1 PUSH1 0xD SWAP1 PUSH1 0x20 DUP3 MUL DUP1 CALLDATASIZE DUP4 CALLDATACOPY DUP1 DUP3 ADD SWAP2 POP POP SWAP1 POP POP SWAP1 JUMP JUMPDEST PUSH1 0x40 MLOAD DUP1 PUSH2 0x320 ADD PUSH1 0x40 MSTORE DUP1 PUSH1 0x19 SWAP1 PUSH1 0x20 DUP3 MUL DUP1 CALLDATASIZE DUP4 CALLDATACOPY DUP1 DUP3 ADD SWAP2 POP POP SWAP1 POP POP SWAP1 JUMP JUMPDEST PUSH1 0x40 MLOAD DUP1 PUSH2 0x120 ADD PUSH1 0x40 MSTORE DUP1 PUSH1 0x9 SWAP1 PUSH1 0x20 DUP3 MUL DUP1 CALLDATASIZE DUP4 CALLDATACOPY DUP1 DUP3 ADD SWAP2 POP POP SWAP1 POP POP SWAP1 JUMP JUMPDEST PUSH1 0x40 MLOAD DUP1 PUSH2 0x380 ADD PUSH1 0x40 MSTORE DUP1 PUSH1 0x1C SWAP1 PUSH1 0x20 DUP3 MUL DUP1 CALLDATASIZE DUP4 CALLDATACOPY DUP1 DUP3 ADD SWAP2 POP POP SWAP1 POP POP SWAP1 JUMP JUMPDEST PUSH1 0x40 MLOAD DUP1 PUSH2 0x120 ADD PUSH1 0x40 MSTORE DUP1 PUSH1 0x9 SWAP1 PUSH1 0x20 DUP3 MUL DUP1 CALLDATASIZE DUP4 CALLDATACOPY DUP1 DUP3 ADD SWAP2 POP POP SWAP1 POP POP SWAP1 JUMP JUMPDEST PUSH1 0x40 MLOAD DUP1 PUSH2 0x5A0 ADD PUSH1 0x40 MSTORE DUP1 PUSH1 0x2D SWAP1 PUSH1 0x20 DUP3 MUL DUP1 CALLDATASIZE DUP4 CALLDATACOPY DUP1 DUP3 ADD SWAP2 POP POP SWAP1 POP POP SWAP1 JUMP JUMPDEST PUSH1 0x40 MLOAD DUP1 PUSH2 0xDA0 ADD PUSH1 0x40 MSTORE DUP1 PUSH1 0x6D SWAP1 PUSH1 0x20 DUP3 MUL DUP1 CALLDATASIZE DUP4 CALLDATACOPY DUP1 DUP3 ADD SWAP2 POP POP SWAP1 POP POP SWAP1 JUMP JUMPDEST PUSH1 0x40 MLOAD DUP1 PUSH2 0x3A0 ADD PUSH1 0x40 MSTORE DUP1 PUSH1 0x1D SWAP1 PUSH1 0x20 DUP3 MUL DUP1 CALLDATASIZE DUP4 CALLDATACOPY DUP1 DUP3 ADD SWAP2 POP POP SWAP1 POP POP SWAP1 JUMP JUMPDEST PUSH1 0x40 MLOAD DUP1 PUSH1 0xA0 ADD PUSH1 0x40 MSTORE DUP1 PUSH1 0x5 SWAP1 PUSH1 0x20 DUP3 MUL DUP1 CALLDATASIZE DUP4 CALLDATACOPY DUP1 DUP3 ADD SWAP2 POP POP SWAP1 POP POP SWAP1 JUMP JUMPDEST PUSH1 0x40 MLOAD DUP1 PUSH2 0x100 ADD PUSH1 0x40 MSTORE DUP1 PUSH1 0x8 SWAP1 PUSH1 0x20 DUP3 MUL DUP1 CALLDATASIZE DUP4 CALLDATACOPY DUP1 DUP3 ADD SWAP2 POP POP SWAP1 POP POP SWAP1 JUMP JUMPDEST PUSH1 0x40 MLOAD DUP1 PUSH2 0x340 ADD PUSH1 0x40 MSTORE DUP1 PUSH1 0x1A SWAP1 PUSH1 0x20 DUP3 MUL DUP1 CALLDATASIZE DUP4 CALLDATACOPY DUP1 DUP3 ADD SWAP2 POP POP SWAP1 POP POP SWAP1 JUMP JUMPDEST PUSH1 0x40 MLOAD DUP1 PUSH2 0x3A0 ADD PUSH1 0x40 MSTORE DUP1 PUSH1 0x1D SWAP1 PUSH1 0x20 DUP3 MUL DUP1 CALLDATASIZE DUP4 CALLDATACOPY DUP1 DUP3 ADD SWAP2 POP POP SWAP1 POP POP SWAP1 JUMP JUMPDEST PUSH1 0x40 MLOAD DUP1 PUSH1 0x40 ADD PUSH1 0x40 MSTORE DUP1 PUSH1 0x0 DUP2 MSTORE PUSH1 0x20 ADD PUSH1 0x0 DUP2 MSTORE POP SWAP1 JUMP JUMPDEST PUSH1 0x40 MLOAD DUP1 PUSH1 0xE0 ADD PUSH1 0x40 MSTORE DUP1 PUSH1 0x0 DUP2 MSTORE PUSH1 0x20 ADD PUSH1 0x0 DUP2 MSTORE PUSH1 0x20 ADD PUSH1 0x0 DUP2 MSTORE PUSH1 0x20 ADD PUSH1 0x0 DUP2 MSTORE PUSH1 0x20 ADD PUSH1 0x0 DUP2 MSTORE PUSH1 0x20 ADD PUSH1 0x0 DUP2 MSTORE PUSH1 0x20 ADD PUSH1 0x0 DUP2 MSTORE POP SWAP1 JUMP JUMPDEST PUSH1 0x40 MLOAD DUP1 PUSH2 0x2C0 ADD PUSH1 0x40 MSTORE DUP1 PUSH1 0x0 DUP2 MSTORE PUSH1 0x20 ADD PUSH1 0x0 DUP2 MSTORE PUSH1 0x20 ADD PUSH1 0x0 DUP2 MSTORE PUSH1 0x20 ADD PUSH1 0x0 DUP2 MSTORE PUSH1 0x20 ADD PUSH1 0x0 DUP2 MSTORE PUSH1 0x20 ADD PUSH1 0x0 DUP2 MSTORE PUSH1 0x20 ADD PUSH1 0x0 DUP2 MSTORE PUSH1 0x20 ADD PUSH1 0x0 DUP2 MSTORE PUSH1 0x20 ADD PUSH1 0x0 DUP2 MSTORE PUSH1 0x20 ADD PUSH1 0x0 DUP2 MSTORE PUSH1 0x20 ADD PUSH1 0x0 DUP2 MSTORE PUSH1 0x20 ADD PUSH1 0x0 DUP2 MSTORE PUSH1 0x20 ADD PUSH1 0x0 DUP2 MSTORE PUSH1 0x20 ADD PUSH1 0x0 DUP2 MSTORE PUSH1 0x20 ADD PUSH1 0x0 DUP2 MSTORE PUSH1 0x20 ADD PUSH1 0x0 DUP2 MSTORE PUSH1 0x20 ADD PUSH1 0x0 DUP2 MSTORE PUSH1 0x20 ADD PUSH1 0x0 DUP2 MSTORE PUSH1 0x20 ADD PUSH1 0x0 DUP2 MSTORE PUSH1 0x20 ADD PUSH1 0x0 DUP2 MSTORE PUSH1 0x20 ADD PUSH1 0x0 DUP2 MSTORE PUSH1 0x20 ADD PUSH1 0x0 DUP2 MSTORE POP SWAP1 JUMP JUMPDEST PUSH1 0x40 MLOAD DUP1 PUSH2 0x220 ADD PUSH1 0x40 MSTORE DUP1 PUSH1 0x0 DUP2 MSTORE PUSH1 0x20 ADD PUSH1 0x0 DUP2 MSTORE PUSH1 0x20 ADD PUSH1 0x0 DUP2 MSTORE PUSH1 0x20 ADD PUSH1 0x0 DUP2 MSTORE PUSH1 0x20 ADD PUSH1 0x0 DUP2 MSTORE PUSH1 0x20 ADD PUSH1 0x0 DUP2 MSTORE PUSH1 0x20 ADD PUSH1 0x0 DUP2 MSTORE PUSH1 0x20 ADD PUSH1 0x0 DUP2 MSTORE PUSH1 0x20 ADD PUSH1 0x0 DUP2 MSTORE PUSH1 0x20 ADD PUSH1 0x0 DUP2 MSTORE PUSH1 0x20 ADD PUSH1 0x0 DUP2 MSTORE PUSH1 0x20 ADD PUSH1 0x0 DUP2 MSTORE PUSH1 0x20 ADD PUSH1 0x0 DUP2 MSTORE PUSH1 0x20 ADD PUSH1 0x0 DUP2 MSTORE PUSH1 0x20 ADD PUSH1 0x0 DUP2 MSTORE PUSH1 0x20 ADD PUSH1 0x0 DUP2 MSTORE PUSH1 0x20 ADD PUSH1 0x0 DUP2 MSTORE POP SWAP1 JUMP JUMPDEST PUSH1 0x40 MLOAD DUP1 PUSH2 0x160 ADD PUSH1 0x40 MSTORE DUP1 PUSH1 0x0 DUP2 MSTORE PUSH1 0x20 ADD PUSH1 0x0 DUP2 MSTORE PUSH1 0x20 ADD PUSH1 0x0 DUP2 MSTORE PUSH1 0x20 ADD PUSH1 0x0 DUP2 MSTORE PUSH1 0x20 ADD PUSH1 0x0 DUP2 MSTORE PUSH1 0x20 ADD PUSH1 0x0 DUP2 MSTORE PUSH1 0x20 ADD PUSH1 0x0 DUP2 MSTORE PUSH1 0x20 ADD PUSH1 0x0 DUP2 MSTORE PUSH1 0x20 ADD PUSH1 0x0 DUP2 MSTORE PUSH1 0x20 ADD PUSH1 0x0 DUP2 MSTORE PUSH1 0x20 ADD PUSH1 0x0 DUP2 MSTORE POP SWAP1 JUMP JUMPDEST PUSH1 0x40 MLOAD DUP1 PUSH1 0x80 ADD PUSH1 0x40 MSTORE DUP1 PUSH1 0x0 DUP2 MSTORE PUSH1 0x20 ADD PUSH1 0x0 DUP2 MSTORE PUSH1 0x20 ADD PUSH1 0x0 DUP2 MSTORE PUSH1 0x20 ADD PUSH1 0x0 DUP2 MSTORE POP SWAP1 JUMP JUMPDEST PUSH1 0x40 MLOAD DUP1 PUSH2 0x380 ADD PUSH1 0x40 MSTORE DUP1 PUSH1 0x1C SWAP1 JUMPDEST PUSH2 0x709A PUSH2 0x6E15 JUMP JUMPDEST DUP2 MSTORE PUSH1 0x20 ADD SWAP1 PUSH1 0x1 SWAP1 SUB SWAP1 DUP2 PUSH2 0x7092 JUMPI SWAP1 POP POP SWAP1 JUMP JUMPDEST PUSH1 0x40 MLOAD DUP1 PUSH2 0x580 ADD PUSH1 0x40 MSTORE DUP1 PUSH1 0x2C SWAP1 PUSH1 0x20 DUP3 MUL DUP1 CALLDATASIZE DUP4 CALLDATACOPY DUP1 DUP3 ADD SWAP2 POP POP SWAP1 POP POP SWAP1 JUMP JUMPDEST PUSH1 0x40 MLOAD DUP1 PUSH2 0x360 ADD PUSH1 0x40 MSTORE DUP1 PUSH1 0x1B SWAP1 JUMPDEST PUSH2 0x70EB PUSH2 0x705A JUMP JUMPDEST DUP2 MSTORE PUSH1 0x20 ADD SWAP1 PUSH1 0x1 SWAP1 SUB SWAP1 DUP2 PUSH2 0x70E3 JUMPI SWAP1 POP POP SWAP1 JUMP JUMPDEST PUSH1 0x0 DUP1 REVERT JUMPDEST PUSH1 0x0 DUP1 REVERT JUMPDEST PUSH1 0x0 DUP1 REVERT JUMPDEST PUSH1 0x0 DUP1 REVERT JUMPDEST PUSH1 0x0 DUP1 REVERT JUMPDEST PUSH1 0x0 DUP1 DUP4 PUSH1 0x1F DUP5 ADD SLT PUSH2 0x7130 JUMPI PUSH2 0x712F PUSH2 0x710B JUMP JUMPDEST JUMPDEST DUP3 CALLDATALOAD SWAP1 POP PUSH8 0xFFFFFFFFFFFFFFFF DUP2 GT ISZERO PUSH2 0x714D JUMPI PUSH2 0x714C PUSH2 0x7110 JUMP JUMPDEST JUMPDEST PUSH1 0x20 DUP4 ADD SWAP2 POP DUP4 PUSH1 0x1 DUP3 MUL DUP4 ADD GT ISZERO PUSH2 0x7169 JUMPI PUSH2 0x7168 PUSH2 0x7115 JUMP JUMPDEST JUMPDEST SWAP3 POP SWAP3 SWAP1 POP JUMP JUMPDEST PUSH1 0x0 DUP1 DUP4 PUSH1 0x1F DUP5 ADD SLT PUSH2 0x7186 JUMPI PUSH2 0x7185 PUSH2 0x710B JUMP JUMPDEST JUMPDEST DUP3 CALLDATALOAD SWAP1 POP PUSH8 0xFFFFFFFFFFFFFFFF DUP2 GT ISZERO PUSH2 0x71A3 JUMPI PUSH2 0x71A2 PUSH2 0x7110 JUMP JUMPDEST JUMPDEST PUSH1 0x20 DUP4 ADD SWAP2 POP DUP4 PUSH1 0x20 DUP3 MUL DUP4 ADD GT ISZERO PUSH2 0x71BF JUMPI PUSH2 0x71BE PUSH2 0x7115 JUMP JUMPDEST JUMPDEST SWAP3 POP SWAP3 SWAP1 POP JUMP JUMPDEST PUSH1 0x0 DUP1 PUSH1 0x0 DUP1 PUSH1 0x40 DUP6 DUP8 SUB SLT ISZERO PUSH2 0x71E0 JUMPI PUSH2 0x71DF PUSH2 0x7101 JUMP JUMPDEST JUMPDEST PUSH1 0x0 DUP6 ADD CALLDATALOAD PUSH8 0xFFFFFFFFFFFFFFFF DUP2 GT ISZERO PUSH2 0x71FE JUMPI PUSH2 0x71FD PUSH2 0x7106 JUMP JUMPDEST JUMPDEST PUSH2 0x720A DUP8 DUP3 DUP9 ADD PUSH2 0x711A JUMP JUMPDEST SWAP5 POP SWAP5 POP POP PUSH1 0x20 DUP6 ADD CALLDATALOAD PUSH8 0xFFFFFFFFFFFFFFFF DUP2 GT ISZERO PUSH2 0x722D JUMPI PUSH2 0x722C PUSH2 0x7106 JUMP JUMPDEST JUMPDEST PUSH2 0x7239 DUP8 DUP3 DUP9 ADD PUSH2 0x7170 JUMP JUMPDEST SWAP3 POP SWAP3 POP POP SWAP3 SWAP6 SWAP2 SWAP5 POP SWAP3 POP JUMP JUMPDEST PUSH1 0x0 DUP2 ISZERO ISZERO SWAP1 POP SWAP2 SWAP1 POP JUMP JUMPDEST PUSH2 0x725C DUP2 PUSH2 0x7247 JUMP JUMPDEST DUP3 MSTORE POP POP JUMP JUMPDEST PUSH1 0x0 PUSH1 0x20 DUP3 ADD SWAP1 POP PUSH2 0x7277 PUSH1 0x0 DUP4 ADD DUP5 PUSH2 0x7253 JUMP JUMPDEST SWAP3 SWAP2 POP POP JUMP JUMPDEST PUSH1 0x0 DUP1 REVERT JUMPDEST PUSH1 0x0 DUP1 REVERT JUMPDEST PUSH1 0x0 DUP1 DUP6 DUP6 GT ISZERO PUSH2 0x729B JUMPI PUSH2 0x729A PUSH2 0x727D JUMP JUMPDEST JUMPDEST DUP4 DUP7 GT ISZERO PUSH2 0x72AC JUMPI PUSH2 0x72AB PUSH2 0x7282 JUMP JUMPDEST JUMPDEST PUSH1 0x1 DUP6 MUL DUP4 ADD SWAP2 POP DUP5 DUP7 SUB SWAP1 POP SWAP5 POP SWAP5 SWAP3 POP POP POP JUMP JUMPDEST PUSH1 0x0 DUP3 SWAP1 POP SWAP3 SWAP2 POP POP JUMP JUMPDEST PUSH1 0x0 DUP2 SWAP1 POP SWAP2 SWAP1 POP JUMP JUMPDEST PUSH1 0x0 DUP3 DUP3 SHL SWAP1 POP SWAP3 SWAP2 POP POP JUMP JUMPDEST PUSH1 0x0 PUSH2 0x72F0 DUP4 DUP4 PUSH2 0x72C2 JUMP JUMPDEST DUP3 PUSH2 0x72FB DUP2 CALLDATALOAD PUSH2 0x72CD JUMP JUMPDEST SWAP3 POP PUSH1 0x20 DUP3 LT ISZERO PUSH2 0x733B JUMPI PUSH2 0x7336 PUSH32 0xFFFFFFFFFFFFFFFFFFFFFFFFFFFFFFFFFFFFFFFFFFFFFFFFFFFFFFFFFFFFFFFF DUP4 PUSH1 0x20 SUB PUSH1 0x8 MUL PUSH2 0x72D7 JUMP JUMPDEST DUP4 AND SWAP3 POP JUMPDEST POP POP SWAP3 SWAP2 POP POP JUMP JUMPDEST PUSH1 0x0 DUP2 SWAP1 POP SWAP2 SWAP1 POP JUMP JUMPDEST PUSH32 0x4E487B7100000000000000000000000000000000000000000000000000000000 PUSH1 0x0 MSTORE PUSH1 0x11 PUSH1 0x4 MSTORE PUSH1 0x24 PUSH1 0x0 REVERT JUMPDEST PUSH1 0x0 PUSH2 0x7387 DUP3 PUSH2 0x7343 JUMP JUMPDEST SWAP2 POP PUSH2 0x7392 DUP4 PUSH2 0x7343 JUMP JUMPDEST SWAP3 POP DUP3 DUP3 MUL PUSH2 0x73A0 DUP2 PUSH2 0x7343 JUMP JUMPDEST SWAP2 POP DUP3 DUP3 DIV DUP5 EQ DUP4 ISZERO OR PUSH2 0x73B7 JUMPI PUSH2 0x73B6 PUSH2 0x734D JUMP JUMPDEST JUMPDEST POP SWAP3 SWAP2 POP POP JUMP JUMPDEST PUSH1 0x0 PUSH2 0x73C9 DUP3 PUSH2 0x7343 JUMP JUMPDEST SWAP2 POP PUSH2 0x73D4 DUP4 PUSH2 0x7343 JUMP JUMPDEST SWAP3 POP DUP3 DUP3 ADD SWAP1 POP DUP1 DUP3 GT ISZERO PUSH2 0x73EC JUMPI PUSH2 0x73EB PUSH2 0x734D JUMP JUMPDEST JUMPDEST SWAP3 SWAP2 POP POP JUMP JUMPDEST PUSH32 0x4E487B7100000000000000000000000000000000000000000000000000000000 PUSH1 0x0 MSTORE PUSH1 0x32 PUSH1 0x4 MSTORE PUSH1 0x24 PUSH1 0x0 REVERT JUMPDEST PUSH1 0x0 PUSH2 0x742C DUP3 PUSH2 0x7343 JUMP JUMPDEST SWAP2 POP PUSH2 0x7437 DUP4 PUSH2 0x7343 JUMP JUMPDEST SWAP3 POP DUP3 DUP3 SUB SWAP1 POP DUP2 DUP2 GT ISZERO PUSH2 0x744F JUMPI PUSH2 0x744E PUSH2 0x734D JUMP JUMPDEST JUMPDEST SWAP3 SWAP2 POP POP JUMP JUMPDEST PUSH1 0x0 PUSH2 0x7460 DUP3 PUSH2 0x7343 JUMP JUMPDEST SWAP2 POP PUSH32 0xFFFFFFFFFFFFFFFFFFFFFFFFFFFFFFFFFFFFFFFFFFFFFFFFFFFFFFFFFFFFFFFF DUP3 SUB PUSH2 0x7492 JUMPI PUSH2 0x7491 PUSH2 0x734D JUMP JUMPDEST JUMPDEST PUSH1 0x1 DUP3 ADD SWAP1 POP SWAP2 SWAP1 POP JUMP JUMPDEST PUSH32 0x4E487B7100000000000000000000000000000000000000000000000000000000 PUSH1 0x0 MSTORE PUSH1 0x12 PUSH1 0x4 MSTORE PUSH1 0x24 PUSH1 0x0 REVERT JUMPDEST PUSH1 0x0 PUSH2 0x74D7 DUP3 PUSH2 0x7343 JUMP JUMPDEST SWAP2 POP PUSH2 0x74E2 DUP4 PUSH2 0x7343 JUMP JUMPDEST SWAP3 POP DUP3 PUSH2 0x74F2 JUMPI PUSH2 0x74F1 PUSH2 0x749D JUMP JUMPDEST JUMPDEST DUP3 DUP3 MOD SWAP1 POP SWAP3 SWAP2 POP POP JUMP JUMPDEST PUSH32 0x4E487B7100000000000000000000000000000000000000000000000000000000 PUSH1 0x0 MSTORE PUSH1 0x41 PUSH1 0x4 MSTORE PUSH1 0x24 PUSH1 0x0 REVERT JUMPDEST PUSH1 0x0 DUP2 MLOAD SWAP1 POP SWAP2 SWAP1 POP JUMP JUMPDEST PUSH1 0x0 DUP2 SWAP1 POP SWAP3 SWAP2 POP POP JUMP JUMPDEST PUSH1 0x0 DUP2 SWAP1 POP PUSH1 0x20 DUP3 ADD SWAP1 POP SWAP2 SWAP1 POP JUMP JUMPDEST PUSH2 0x755B DUP2 PUSH2 0x72CD JUMP JUMPDEST DUP3 MSTORE POP POP JUMP JUMPDEST PUSH1 0x0 PUSH2 0x756D DUP4 DUP4 PUSH2 0x7552 JUMP JUMPDEST PUSH1 0x20 DUP4 ADD SWAP1 POP SWAP3 SWAP2 POP POP JUMP JUMPDEST PUSH1 0x0 PUSH1 0x20 DUP3 ADD SWAP1 POP SWAP2 SWAP1 POP JUMP JUMPDEST PUSH1 0x0 PUSH2 0x7591 DUP3 PUSH2 0x752C JUMP JUMPDEST PUSH2 0x759B DUP2 DUP6 PUSH2 0x7537 JUMP JUMPDEST SWAP4 POP PUSH2 0x75A6 DUP4 PUSH2 0x7542 JUMP JUMPDEST DUP1 PUSH1 0x0 JUMPDEST DUP4 DUP2 LT ISZERO PUSH2 0x75D7 JUMPI DUP2 MLOAD PUSH2 0x75BE DUP9 DUP3 PUSH2 0x7561 JUMP JUMPDEST SWAP8 POP PUSH2 0x75C9 DUP4 PUSH2 0x7579 JUMP JUMPDEST SWAP3 POP POP PUSH1 0x1 DUP2 ADD SWAP1 POP PUSH2 0x75AA JUMP JUMPDEST POP DUP6 SWAP4 POP POP POP POP SWAP3 SWAP2 POP POP JUMP JUMPDEST PUSH1 0x0 PUSH2 0x75F0 DUP3 DUP5 PUSH2 0x7586 JUMP JUMPDEST SWAP2 POP DUP2 SWAP1 POP SWAP3 SWAP2 POP POP JUMP JUMPDEST PUSH1 0x0 DUP2 SWAP1 POP SWAP2 SWAP1 POP JUMP JUMPDEST PUSH2 0x7616 PUSH2 0x7611 DUP3 PUSH2 0x7343 JUMP JUMPDEST PUSH2 0x75FB JUMP JUMPDEST DUP3 MSTORE POP POP JUMP JUMPDEST PUSH1 0x0 PUSH2 0x7628 DUP3 DUP5 PUSH2 0x7605 JUMP JUMPDEST PUSH1 0x20 DUP3 ADD SWAP2 POP DUP2 SWAP1 POP SWAP3 SWAP2 POP POP JUMP JUMPDEST PUSH1 0x0 PUSH1 0xD SWAP1 POP SWAP2 SWAP1 POP JUMP JUMPDEST PUSH1 0x0 DUP2 SWAP1 POP SWAP3 SWAP2 POP POP JUMP JUMPDEST PUSH1 0x0 DUP2 SWAP1 POP SWAP2 SWAP1 POP JUMP JUMPDEST PUSH1 0x0 PUSH1 0x20 DUP3 ADD SWAP1 POP SWAP2 SWAP1 POP JUMP JUMPDEST PUSH2 0x766D DUP2 PUSH2 0x7637 JUMP JUMPDEST PUSH2 0x7677 DUP2 DUP5 PUSH2 0x7642 JUMP JUMPDEST SWAP3 POP PUSH2 0x7682 DUP3 PUSH2 0x764D JUMP JUMPDEST DUP1 PUSH1 0x0 JUMPDEST DUP4 DUP2 LT ISZERO PUSH2 0x76B3 JUMPI DUP2 MLOAD PUSH2 0x769A DUP8 DUP3 PUSH2 0x7561 JUMP JUMPDEST SWAP7 POP PUSH2 0x76A5 DUP4 PUSH2 0x7657 JUMP JUMPDEST SWAP3 POP POP PUSH1 0x1 DUP2 ADD SWAP1 POP PUSH2 0x7686 JUMP JUMPDEST POP POP POP POP POP POP JUMP JUMPDEST PUSH1 0x0 PUSH2 0x76C7 DUP3 DUP5 PUSH2 0x7664 JUMP JUMPDEST PUSH2 0x1A0 DUP3 ADD SWAP2 POP DUP2 SWAP1 POP SWAP3 SWAP2 POP POP JUMP JUMPDEST PUSH1 0x0 PUSH1 0x9 SWAP1 POP SWAP2 SWAP1 POP JUMP JUMPDEST PUSH1 0x0 DUP2 SWAP1 POP SWAP3 SWAP2 POP POP JUMP JUMPDEST PUSH1 0x0 DUP2 SWAP1 POP SWAP2 SWAP1 POP JUMP JUMPDEST PUSH2 0x7700 DUP2 PUSH2 0x7343 JUMP JUMPDEST DUP3 MSTORE POP POP JUMP JUMPDEST PUSH1 0x0 PUSH2 0x7712 DUP4 DUP4 PUSH2 0x76F7 JUMP JUMPDEST PUSH1 0x20 DUP4 ADD SWAP1 POP SWAP3 SWAP2 POP POP JUMP JUMPDEST PUSH1 0x0 PUSH1 0x20 DUP3 ADD SWAP1 POP SWAP2 SWAP1 POP JUMP JUMPDEST PUSH2 0x7734 DUP2 PUSH2 0x76D7 JUMP JUMPDEST PUSH2 0x773E DUP2 DUP5 PUSH2 0x76E2 JUMP JUMPDEST SWAP3 POP PUSH2 0x7749 DUP3 PUSH2 0x76ED JUMP JUMPDEST DUP1 PUSH1 0x0 JUMPDEST DUP4 DUP2 LT ISZERO PUSH2 0x777A JUMPI DUP2 MLOAD PUSH2 0x7761 DUP8 DUP3 PUSH2 0x7706 JUMP JUMPDEST SWAP7 POP PUSH2 0x776C DUP4 PUSH2 0x771E JUMP JUMPDEST SWAP3 POP POP PUSH1 0x1 DUP2 ADD SWAP1 POP PUSH2 0x774D JUMP JUMPDEST POP POP POP POP POP POP JUMP JUMPDEST PUSH1 0x0 PUSH2 0x778E DUP3 DUP5 PUSH2 0x772B JUMP JUMPDEST PUSH2 0x120 DUP3 ADD SWAP2 POP DUP2 SWAP1 POP SWAP3 SWAP2 POP POP JUMP JUMPDEST PUSH1 0x0 PUSH2 0x77A9 DUP3 PUSH2 0x7343 JUMP JUMPDEST SWAP2 POP PUSH2 0x77B4 DUP4 PUSH2 0x7343 JUMP JUMPDEST SWAP3 POP DUP3 PUSH2 0x77C4 JUMPI PUSH2 0x77C3 PUSH2 0x749D JUMP JUMPDEST JUMPDEST DUP3 DUP3 DIV SWAP1 POP SWAP3 SWAP2 POP POP JUMP JUMPDEST PUSH1 0x0 PUSH1 0x9 SWAP1 POP SWAP2 SWAP1 POP JUMP JUMPDEST PUSH1 0x0 DUP2 SWAP1 POP SWAP2 SWAP1 POP JUMP JUMPDEST PUSH1 0x0 DUP2 SWAP1 POP SWAP2 SWAP1 POP JUMP JUMPDEST PUSH1 0x0 PUSH2 0x7809 PUSH2 0x7804 PUSH2 0x77FF DUP5 PUSH2 0x7343 JUMP JUMPDEST PUSH2 0x77E4 JUMP JUMPDEST PUSH2 0x7343 JUMP JUMPDEST SWAP1 POP SWAP2 SWAP1 POP JUMP JUMPDEST PUSH2 0x7819 DUP2 PUSH2 0x77EE JUMP JUMPDEST DUP3 MSTORE POP POP JUMP JUMPDEST PUSH1 0x0 PUSH2 0x782B DUP4 DUP4 PUSH2 0x7810 JUMP JUMPDEST PUSH1 0x20 DUP4 ADD SWAP1 POP SWAP3 SWAP2 POP POP JUMP JUMPDEST PUSH1 0x0 PUSH1 0x20 DUP3 ADD SWAP1 POP SWAP2 SWAP1 POP JUMP JUMPDEST PUSH2 0x784D DUP2 PUSH2 0x77CF JUMP JUMPDEST PUSH2 0x7857 DUP2 DUP5 PUSH2 0x76E2 JUMP JUMPDEST SWAP3 POP PUSH2 0x7862 DUP3 PUSH2 0x77DA JUMP JUMPDEST DUP1 PUSH1 0x0 JUMPDEST DUP4 DUP2 LT ISZERO PUSH2 0x7893 JUMPI DUP2 MLOAD PUSH2 0x787A DUP8 DUP3 PUSH2 0x781F JUMP JUMPDEST SWAP7 POP PUSH2 0x7885 DUP4 PUSH2 0x7837 JUMP JUMPDEST SWAP3 POP POP PUSH1 0x1 DUP2 ADD SWAP1 POP PUSH2 0x7866 JUMP JUMPDEST POP POP POP POP POP POP JUMP JUMPDEST PUSH1 0x0 PUSH2 0x78A7 DUP3 DUP5 PUSH2 0x7844 JUMP JUMPDEST PUSH2 0x120 DUP3 ADD SWAP2 POP DUP2 SWAP1 POP SWAP3 SWAP2 POP POP JUMP JUMPDEST PUSH1 0x0 PUSH1 0x2D SWAP1 POP SWAP2 SWAP1 POP JUMP JUMPDEST PUSH1 0x0 DUP2 SWAP1 POP SWAP3 SWAP2 POP POP JUMP JUMPDEST PUSH1 0x0 DUP2 SWAP1 POP SWAP2 SWAP1 POP JUMP JUMPDEST PUSH1 0x0 PUSH1 0x20 DUP3 ADD SWAP1 POP SWAP2 SWAP1 POP JUMP JUMPDEST PUSH2 0x78ED DUP2 PUSH2 0x78B7 JUMP JUMPDEST PUSH2 0x78F7 DUP2 DUP5 PUSH2 0x78C2 JUMP JUMPDEST SWAP3 POP PUSH2 0x7902 DUP3 PUSH2 0x78CD JUMP JUMPDEST DUP1 PUSH1 0x0 JUMPDEST DUP4 DUP2 LT ISZERO PUSH2 0x7933 JUMPI DUP2 MLOAD PUSH2 0x791A DUP8 DUP3 PUSH2 0x781F JUMP JUMPDEST SWAP7 POP PUSH2 0x7925 DUP4 PUSH2 0x78D7 JUMP JUMPDEST SWAP3 POP POP PUSH1 0x1 DUP2 ADD SWAP1 POP PUSH2 0x7906 JUMP JUMPDEST POP POP POP POP POP POP JUMP JUMPDEST PUSH1 0x0 PUSH2 0x7947 DUP3 DUP5 PUSH2 0x78E4 JUMP JUMPDEST PUSH2 0x5A0 DUP3 ADD SWAP2 POP DUP2 SWAP1 POP SWAP3 SWAP2 POP POP JUMP JUMPDEST PUSH1 0x0 PUSH1 0x6D SWAP1 POP SWAP2 SWAP1 POP JUMP JUMPDEST PUSH1 0x0 DUP2 SWAP1 POP SWAP3 SWAP2 POP POP JUMP JUMPDEST PUSH1 0x0 DUP2 SWAP1 POP SWAP2 SWAP1 POP JUMP JUMPDEST PUSH1 0x0 PUSH1 0x20 DUP3 ADD SWAP1 POP SWAP2 SWAP1 POP JUMP JUMPDEST PUSH2 0x798D DUP2 PUSH2 0x7957 JUMP JUMPDEST PUSH2 0x7997 DUP2 DUP5 PUSH2 0x7962 JUMP JUMPDEST SWAP3 POP PUSH2 0x79A2 DUP3 PUSH2 0x796D JUMP JUMPDEST DUP1 PUSH1 0x0 JUMPDEST DUP4 DUP2 LT ISZERO PUSH2 0x79D3 JUMPI DUP2 MLOAD PUSH2 0x79BA DUP8 DUP3 PUSH2 0x7706 JUMP JUMPDEST SWAP7 POP PUSH2 0x79C5 DUP4 PUSH2 0x7977 JUMP JUMPDEST SWAP3 POP POP PUSH1 0x1 DUP2 ADD SWAP1 POP PUSH2 0x79A6 JUMP JUMPDEST POP POP POP POP POP POP JUMP JUMPDEST PUSH1 0x0 PUSH2 0x79E7 DUP3 DUP5 PUSH2 0x7984 JUMP JUMPDEST PUSH2 0xDA0 DUP3 ADD SWAP2 POP DUP2 SWAP1 POP SWAP3 SWAP2 POP POP JUMP JUMPDEST PUSH1 0x0 PUSH1 0x1D SWAP1 POP SWAP2 SWAP1 POP JUMP JUMPDEST PUSH1 0x0 DUP2 SWAP1 POP SWAP3 SWAP2 POP POP JUMP JUMPDEST PUSH1 0x0 DUP2 SWAP1 POP SWAP2 SWAP1 POP JUMP JUMPDEST PUSH1 0x0 PUSH1 0x20 DUP3 ADD SWAP1 POP SWAP2 SWAP1 POP JUMP JUMPDEST PUSH2 0x7A2D DUP2 PUSH2 0x79F7 JUMP JUMPDEST PUSH2 0x7A37 DUP2 DUP5 PUSH2 0x7A02 JUMP JUMPDEST SWAP3 POP PUSH2 0x7A42 DUP3 PUSH2 0x7A0D JUMP JUMPDEST DUP1 PUSH1 0x0 JUMPDEST DUP4 DUP2 LT ISZERO PUSH2 0x7A73 JUMPI DUP2 MLOAD PUSH2 0x7A5A DUP8 DUP3 PUSH2 0x7706 JUMP JUMPDEST SWAP7 POP PUSH2 0x7A65 DUP4 PUSH2 0x7A17 JUMP JUMPDEST SWAP3 POP POP PUSH1 0x1 DUP2 ADD SWAP1 POP PUSH2 0x7A46 JUMP JUMPDEST POP POP POP POP POP POP JUMP JUMPDEST PUSH1 0x0 PUSH2 0x7A87 DUP3 DUP5 PUSH2 0x7A24 JUMP JUMPDEST PUSH2 0x3A0 DUP3 ADD SWAP2 POP DUP2 SWAP1 POP SWAP3 SWAP2 POP POP JUMP JUMPDEST PUSH1 0x0 PUSH1 0x5 SWAP1 POP SWAP2 SWAP1 POP JUMP JUMPDEST PUSH1 0x0 DUP2 SWAP1 POP SWAP3 SWAP2 POP POP JUMP JUMPDEST PUSH1 0x0 DUP2 SWAP1 POP SWAP2 SWAP1 POP JUMP JUMPDEST PUSH1 0x0 PUSH1 0x20 DUP3 ADD SWAP1 POP SWAP2 SWAP1 POP JUMP JUMPDEST PUSH2 0x7ACD DUP2 PUSH2 0x7A97 JUMP JUMPDEST PUSH2 0x7AD7 DUP2 DUP5 PUSH2 0x7AA2 JUMP JUMPDEST SWAP3 POP PUSH2 0x7AE2 DUP3 PUSH2 0x7AAD JUMP JUMPDEST DUP1 PUSH1 0x0 JUMPDEST DUP4 DUP2 LT ISZERO PUSH2 0x7B13 JUMPI DUP2 MLOAD PUSH2 0x7AFA DUP8 DUP3 PUSH2 0x7706 JUMP JUMPDEST SWAP7 POP PUSH2 0x7B05 DUP4 PUSH2 0x7AB7 JUMP JUMPDEST SWAP3 POP POP PUSH1 0x1 DUP2 ADD SWAP1 POP PUSH2 0x7AE6 JUMP JUMPDEST POP POP POP POP POP POP JUMP JUMPDEST PUSH1 0x0 PUSH2 0x7B27 DUP3 DUP5 PUSH2 0x7AC4 JUMP JUMPDEST PUSH1 0xA0 DUP3 ADD SWAP2 POP DUP2 SWAP1 POP SWAP3 SWAP2 POP POP JUMP JUMPDEST PUSH1 0x0 PUSH2 0x7B41 DUP3 PUSH2 0x7343 JUMP JUMPDEST SWAP2 POP PUSH1 0x0 DUP3 SUB PUSH2 0x7B54 JUMPI PUSH2 0x7B53 PUSH2 0x734D JUMP JUMPDEST JUMPDEST PUSH1 0x1 DUP3 SUB SWAP1 POP SWAP2 SWAP1 POP JUMP JUMPDEST PUSH1 0x0 PUSH2 0x7B6B DUP3 DUP16 PUSH2 0x7605 JUMP JUMPDEST PUSH1 0x20 DUP3 ADD SWAP2 POP PUSH2 0x7B7B DUP3 DUP15 PUSH2 0x7605 JUMP JUMPDEST PUSH1 0x20 DUP3 ADD SWAP2 POP PUSH2 0x7B8B DUP3 DUP14 PUSH2 0x7605 JUMP JUMPDEST PUSH1 0x20 DUP3 ADD SWAP2 POP PUSH2 0x7B9B DUP3 DUP13 PUSH2 0x7605 JUMP JUMPDEST PUSH1 0x20 DUP3 ADD SWAP2 POP PUSH2 0x7BAB DUP3 DUP12 PUSH2 0x7605 JUMP JUMPDEST PUSH1 0x20 DUP3 ADD SWAP2 POP PUSH2 0x7BBB DUP3 DUP11 PUSH2 0x7605 JUMP JUMPDEST PUSH1 0x20 DUP3 ADD SWAP2 POP PUSH2 0x7BCB DUP3 DUP10 PUSH2 0x7605 JUMP JUMPDEST PUSH1 0x20 DUP3 ADD SWAP2 POP PUSH2 0x7BDB DUP3 DUP9 PUSH2 0x7605 JUMP JUMPDEST PUSH1 0x20 DUP3 ADD SWAP2 POP PUSH2 0x7BEB DUP3 DUP8 PUSH2 0x7605 JUMP JUMPDEST PUSH1 0x20 DUP3 ADD SWAP2 POP PUSH2 0x7BFB DUP3 DUP7 PUSH2 0x7605 JUMP JUMPDEST PUSH1 0x20 DUP3 ADD SWAP2 POP PUSH2 0x7C0B DUP3 DUP6 PUSH2 0x7605 JUMP JUMPDEST PUSH1 0x20 DUP3 ADD SWAP2 POP PUSH2 0x7C1B DUP3 DUP5 PUSH2 0x7605 JUMP JUMPDEST PUSH1 0x20 DUP3 ADD SWAP2 POP DUP2 SWAP1 POP SWAP14 SWAP13 POP POP POP POP POP POP POP POP POP POP POP POP POP JUMP JUMPDEST PUSH1 0x0 DUP2 MLOAD SWAP1 POP SWAP2 SWAP1 POP JUMP JUMPDEST PUSH1 0x0 DUP2 SWAP1 POP SWAP3 SWAP2 POP POP JUMP JUMPDEST PUSH1 0x0 JUMPDEST DUP4 DUP2 LT ISZERO PUSH2 0x7C69 JUMPI DUP1 DUP3 ADD MLOAD DUP2 DUP5 ADD MSTORE PUSH1 0x20 DUP2 ADD SWAP1 POP PUSH2 0x7C4E JUMP JUMPDEST PUSH1 0x0 DUP5 DUP5 ADD MSTORE POP POP POP POP JUMP JUMPDEST PUSH1 0x0 PUSH2 0x7C80 DUP3 PUSH2 0x7C35 JUMP JUMPDEST PUSH2 0x7C8A DUP2 DUP6 PUSH2 0x7C40 JUMP JUMPDEST SWAP4 POP PUSH2 0x7C9A DUP2 DUP6 PUSH1 0x20 DUP7 ADD PUSH2 0x7C4B JUMP JUMPDEST DUP1 DUP5 ADD SWAP2 POP POP SWAP3 SWAP2 POP POP JUMP JUMPDEST PUSH1 0x0 PUSH2 0x7CB2 DUP3 DUP5 PUSH2 0x7C75 JUMP JUMPDEST SWAP2 POP DUP2 SWAP1 POP SWAP3 SWAP2 POP POP JUMP JUMPDEST PUSH2 0x7CC6 DUP2 PUSH2 0x7247 JUMP JUMPDEST DUP2 EQ PUSH2 0x7CD1 JUMPI PUSH1 0x0 DUP1 REVERT JUMPDEST POP JUMP JUMPDEST PUSH1 0x0 DUP2 MLOAD SWAP1 POP PUSH2 0x7CE3 DUP2 PUSH2 0x7CBD JUMP JUMPDEST SWAP3 SWAP2 POP POP JUMP JUMPDEST PUSH1 0x0 PUSH1 0x20 DUP3 DUP5 SUB SLT ISZERO PUSH2 0x7CFF JUMPI PUSH2 0x7CFE PUSH2 0x7101 JUMP JUMPDEST JUMPDEST PUSH1 0x0 PUSH2 0x7D0D DUP5 DUP3 DUP6 ADD PUSH2 0x7CD4 JUMP JUMPDEST SWAP2 POP POP SWAP3 SWAP2 POP POP JUMP JUMPDEST PUSH32 0x4E487B7100000000000000000000000000000000000000000000000000000000 PUSH1 0x0 MSTORE PUSH1 0x21 PUSH1 0x4 MSTORE PUSH1 0x24 PUSH1 0x0 REVERT INVALID LOG2 PUSH5 0x6970667358 0x22 SLT KECCAK256 0x23 0xC1 SWAP11 STATICCALL SWAP7 SELFBALANCE 0xD3 0x2F SDIV EQ 0xC0 0xD2 DUP3 0x4D 0xFB 0xB9 0x21 0xB9 0x2F MCOPY 0xCE TLOAD 0x4B RETURN 0xD6 0xE7 PREVRANDAO 0xC1 0xBD AND LOG0 0xCC PUSH5 0x736F6C6343 STOP ADDMOD SHR STOP CALLER "},"methodIdentifiers":{"deposit(uint256,uint256)":"e2bbb158","escrowData(address)":"72236b82","paymentToken()":"3013ce29","verifier()":"2b7ac3f3","verifyTest(bytes,bytes32[])":"b12a2c54","withdraw(bytes,uint256,uint256,address)":"4c674934"}}}}}