{"contracts/Escrow.sol":{"OBEscrow":{"abi":[{"inputs":[{"internalType":"address","name":"_paymentToken","type":"address"}],"stateMutability":"nonpayable","type":"constructor"},{"inputs":[{"internalType":"uint256","name":"_amount","type":"uint256"},{"internalType":"uint256","name":"_commitment","type":"uint256"}],"name":"deposit","outputs":[],"stateMutability":"nonpayable","type":"function"},{"inputs":[{"internalType":"address","name":"","type":"address"}],"name":"escrowData","outputs":[{"internalType":"uint256","name":"amount","type":"uint256"},{"internalType":"uint256","name":"commitment","type":"uint256"}],"stateMutability":"view","type":"function"},{"inputs":[],"name":"paymentToken","outputs":[{"internalType":"address","name":"","type":"address"}],"stateMutability":"view","type":"function"},{"inputs":[],"name":"verifier","outputs":[{"internalType":"contract HonkVerifier","name":"","type":"address"}],"stateMutability":"view","type":"function"},{"inputs":[{"internalType":"bytes","name":"_proof","type":"bytes"},{"internalType":"uint256","name":"_amount","type":"uint256"},{"internalType":"uint256","name":"_commitment","type":"uint256"},{"internalType":"address","name":"_from","type":"address"}],"name":"withdraw","outputs":[],"stateMutability":"nonpayable","type":"function"}],"evm":{"bytecode":{"linkReferences":{},"object":"6080604052604051610010906100e1565b604051809103906000f08015801561002c573d6000803e3d6000fd5b506000806101000a81548173ffffffffffffffffffffffffffffffffffffffff021916908373ffffffffffffffffffffffffffffffffffffffff16021790555034801561007857600080fd5b50604051618853380380618853833981810160405281019061009a9190610151565b80600160006101000a81548173ffffffffffffffffffffffffffffffffffffffff021916908373ffffffffffffffffffffffffffffffffffffffff1602179055505061017e565b6178248061102f83390190565b600080fd5b600073ffffffffffffffffffffffffffffffffffffffff82169050919050565b600061011e826100f3565b9050919050565b61012e81610113565b811461013957600080fd5b50565b60008151905061014b81610125565b92915050565b600060208284031215610167576101666100ee565b5b60006101758482850161013c565b91505092915050565b610ea28061018d6000396000f3fe608060405234801561001057600080fd5b50600436106100575760003560e01c80632b7ac3f31461005c5780633013ce291461007a5780634c6749341461009857806372236b82146100b4578063e2bbb158146100e5575b600080fd5b610064610101565b60405161007191906106d1565b60405180910390f35b610082610125565b60405161008f919061070d565b60405180910390f35b6100b260048036038101906100ad91906107f9565b61014b565b005b6100ce60048036038101906100c99190610881565b610491565b6040516100dc9291906108bd565b60405180910390f35b6100ff60048036038101906100fa91906108e6565b6104b5565b005b60008054906101000a900473ffffffffffffffffffffffffffffffffffffffff1681565b600160009054906101000a900473ffffffffffffffffffffffffffffffffffffffff1681565b6000600267ffffffffffffffff81111561016857610167610926565b5b6040519080825280602002602001820160405280156101965781602001602082028036833780820191505090505b5090508260001b816000815181106101b1576101b0610955565b5b6020026020010181815250508360001b816001815181106101d5576101d4610955565b5b60200260200101818152505060008054906101000a900473ffffffffffffffffffffffffffffffffffffffff1673ffffffffffffffffffffffffffffffffffffffff1663ea50d0e48787846040518463ffffffff1660e01b815260040161023e93929190610aaa565b602060405180830381865afa15801561025b573d6000803e3d6000fd5b505050506040513d601f19601f8201168201806040525081019061027f9190610b1b565b6102be576040517f08c379a00000000000000000000000000000000000000000000000000000000081526004016102b590610ba5565b60405180910390fd5b6000600260008473ffffffffffffffffffffffffffffffffffffffff1673ffffffffffffffffffffffffffffffffffffffff16815260200190815260200160002090508481600001541015610348576040517f08c379a000000000000000000000000000000000000000000000000000000000815260040161033f90610c11565b60405180910390fd5b8381600101541461038e576040517f08c379a000000000000000000000000000000000000000000000000000000000815260040161038590610c7d565b60405180910390fd5b848160000160008282546103a29190610ccc565b92505081905550600160009054906101000a900473ffffffffffffffffffffffffffffffffffffffff1673ffffffffffffffffffffffffffffffffffffffff1663a9059cbb33876040518363ffffffff1660e01b8152600401610406929190610d00565b6020604051808303816000875af1158015610425573d6000803e3d6000fd5b505050506040513d601f19601f820116820180604052508101906104499190610b1b565b610488576040517f08c379a000000000000000000000000000000000000000000000000000000000815260040161047f90610d75565b60405180910390fd5b50505050505050565b60026020528060005260406000206000915090508060000154908060010154905082565b600082116104f8576040517f08c379a00000000000000000000000000000000000000000000000000000000081526004016104ef90610de1565b60405180910390fd5b600160009054906101000a900473ffffffffffffffffffffffffffffffffffffffff1673ffffffffffffffffffffffffffffffffffffffff166323b872dd3330856040518463ffffffff1660e01b815260040161055793929190610e01565b6020604051808303816000875af1158015610576573d6000803e3d6000fd5b505050506040513d601f19601f8201168201806040525081019061059a9190610b1b565b6105d9576040517f08c379a00000000000000000000000000000000000000000000000000000000081526004016105d090610d75565b60405180910390fd5b6000600260003373ffffffffffffffffffffffffffffffffffffffff1673ffffffffffffffffffffffffffffffffffffffff16815260200190815260200160002090506000816001015403610632578181600101819055505b828160000160008282546106469190610e38565b92505081905550505050565b600073ffffffffffffffffffffffffffffffffffffffff82169050919050565b6000819050919050565b600061069761069261068d84610652565b610672565b610652565b9050919050565b60006106a98261067c565b9050919050565b60006106bb8261069e565b9050919050565b6106cb816106b0565b82525050565b60006020820190506106e660008301846106c2565b92915050565b60006106f782610652565b9050919050565b610707816106ec565b82525050565b600060208201905061072260008301846106fe565b92915050565b600080fd5b600080fd5b600080fd5b600080fd5b600080fd5b60008083601f84011261075757610756610732565b5b8235905067ffffffffffffffff81111561077457610773610737565b5b6020830191508360018202830111156107905761078f61073c565b5b9250929050565b6000819050919050565b6107aa81610797565b81146107b557600080fd5b50565b6000813590506107c7816107a1565b92915050565b6107d6816106ec565b81146107e157600080fd5b50565b6000813590506107f3816107cd565b92915050565b60008060008060006080868803121561081557610814610728565b5b600086013567ffffffffffffffff8111156108335761083261072d565b5b61083f88828901610741565b95509550506020610852888289016107b8565b9350506040610863888289016107b8565b9250506060610874888289016107e4565b9150509295509295909350565b60006020828403121561089757610896610728565b5b60006108a5848285016107e4565b91505092915050565b6108b781610797565b82525050565b60006040820190506108d260008301856108ae565b6108df60208301846108ae565b9392505050565b600080604083850312156108fd576108fc610728565b5b600061090b858286016107b8565b925050602061091c858286016107b8565b9150509250929050565b7f4e487b7100000000000000000000000000000000000000000000000000000000600052604160045260246000fd5b7f4e487b7100000000000000000000000000000000000000000000000000000000600052603260045260246000fd5b600082825260208201905092915050565b82818337600083830152505050565b6000601f19601f8301169050919050565b60006109c18385610984565b93506109ce838584610995565b6109d7836109a4565b840190509392505050565b600081519050919050565b600082825260208201905092915050565b6000819050602082019050919050565b6000819050919050565b610a2181610a0e565b82525050565b6000610a338383610a18565b60208301905092915050565b6000602082019050919050565b6000610a57826109e2565b610a6181856109ed565b9350610a6c836109fe565b8060005b83811015610a9d578151610a848882610a27565b9750610a8f83610a3f565b925050600181019050610a70565b5085935050505092915050565b60006040820190508181036000830152610ac58185876109b5565b90508181036020830152610ad98184610a4c565b9050949350505050565b60008115159050919050565b610af881610ae3565b8114610b0357600080fd5b50565b600081519050610b1581610aef565b92915050565b600060208284031215610b3157610b30610728565b5b6000610b3f84828501610b06565b91505092915050565b600082825260208201905092915050565b7f496e76616c69642070726f6f6600000000000000000000000000000000000000600082015250565b6000610b8f600d83610b48565b9150610b9a82610b59565b602082019050919050565b60006020820190508181036000830152610bbe81610b82565b9050919050565b7f496e73756666696369656e742062616c616e6365000000000000000000000000600082015250565b6000610bfb601483610b48565b9150610c0682610bc5565b602082019050919050565b60006020820190508181036000830152610c2a81610bee565b9050919050565b7f496e76616c696420726563697069656e7420636f6d6d69746d656e7400000000600082015250565b6000610c67601c83610b48565b9150610c7282610c31565b602082019050919050565b60006020820190508181036000830152610c9681610c5a565b9050919050565b7f4e487b7100000000000000000000000000000000000000000000000000000000600052601160045260246000fd5b6000610cd782610797565b9150610ce283610797565b9250828203905081811115610cfa57610cf9610c9d565b5b92915050565b6000604082019050610d1560008301856106fe565b610d2260208301846108ae565b9392505050565b7f546f6b656e207472616e73666572206661696c65640000000000000000000000600082015250565b6000610d5f601583610b48565b9150610d6a82610d29565b602082019050919050565b60006020820190508181036000830152610d8e81610d52565b9050919050565b7f416d6f756e74206d7573742062652067726561746572207468616e207a65726f600082015250565b6000610dcb602083610b48565b9150610dd682610d95565b602082019050919050565b60006020820190508181036000830152610dfa81610dbe565b9050919050565b6000606082019050610e1660008301866106fe565b610e2360208301856106fe565b610e3060408301846108ae565b949350505050565b6000610e4382610797565b9150610e4e83610797565b9250828201905080821115610e6657610e65610c9d565b5b9291505056fea2646970667358221220b33e5edcdca514f0809f969436bec8b693b947df68c3ed21ea26089a84ccdec064736f6c634300081c003360e060405234801561001057600080fd5b50620400006012600282608081815250508160a081815250508060c0818152505050505060805160a05160c0516177b36100716000396000610745015260008181610809015281816111cd01526112a4015260006106db01526177b36000f3fe608060405234801561001057600080fd5b506004361061002b5760003560e01c8063ea50d0e414610030575b600080fd5b61004a60048036038101906100459190616b15565b610060565b6040516100579190616bb1565b60405180910390f35b600060206101b86100719190616c05565b85859050146100ac576040517fed74ac0a00000000000000000000000000000000000000000000000000000000815260040160405180910390fd5b60006100b6610230565b905060006100c48787610245565b905081604001518585905014610106576040517ffa06659300000000000000000000000000000000000000000000000000000000815260040160405180910390fd5b600061011f8287878660000151876040015160016105f1565b905061017f868680806020026020016040519081016040528093929190818152602001838360200280828437600081840152601f19601f8201169050808301925050505050505082600001516060015183600001516080015160016106be565b816000015160a0018181525050600061019883836107fb565b9050806101d1576040517f9fc3a21800000000000000000000000000000000000000000000000000000000815260040160405180910390fd5b60006101de84868561092a565b905080610217576040517fa5d82e8a00000000000000000000000000000000000000000000000000000000815260040160405180910390fd5b8180156102215750805b95505050505050949350505050565b6102386162d9565b610240611637565b905090565b61024d61645a565b610269838360009060809261026493929190616c51565b611fdf565b816000018190525061028e83836080906101009261028993929190616c51565b611fdf565b81602001819052506102b4838361010090610180926102af93929190616c51565b611fdf565b81604001819052506102da838361018090610200926102d593929190616c51565b611fdf565b8160a00181905250610300838361020090610280926102fb93929190616c51565b611fdf565b8160c001819052506103268383610280906103009261032193929190616c51565b611fdf565b816060018190525061034c8383610300906103809261034793929190616c51565b611fdf565b8160e001819052506103728383610380906104009261036d93929190616c51565b611fdf565b81608001819052506000610400905060005b601c8110156104215760005b6008811015610413576103bf868685906020876103ad9190616c8c565b926103ba93929190616c51565b6120da565b84610100015183601c81106103d7576103d6616cc0565b5b602002015182600881106103ee576103ed616cc0565b5b6020020181815250506020836104049190616c8c565b92508080600101915050610390565b508080600101915050610384565b5060005b602881101561049157610454858584906020866104429190616c8c565b9261044f93929190616c51565b6120da565b836101200151826028811061046c5761046b616cc0565b5b6020020181815250506020826104829190616c8c565b91508080600101915050610425565b5060005b6001601c6104a39190616cef565b81101561050c576104d0858584906080866104be9190616c8c565b926104cb93929190616c51565b611fdf565b83610140015182601b81106104e8576104e7616cc0565b5b60200201819052506080826104fd9190616c8c565b91508080600101915050610495565b5060005b601c81101561057c5761053f8585849060208661052d9190616c8c565b9261053a93929190616c51565b6120da565b83610160015182601c811061055757610556616cc0565b5b60200201818152505060208261056d9190616c8c565b91508080600101915050610510565b506105a3848483906080856105919190616c8c565b9261059e93929190616c51565b611fdf565b8261018001819052506080816105b99190616c8c565b90506105e1848483906080856105cf9190616c8c565b926105dc93929190616c51565b611fdf565b826101a001819052505092915050565b6105f961651d565b600061060a8888888888888761213f565b83600001819350829052505061062081896121a2565b836020018193508290525050610635816124c2565b83604001819350829052505061064b888261254e565b8360600181935082905250506106618882612679565b83608001819350828152505050610678888261274e565b8360a00181935082815250505061068f888261293e565b8360c0018193508281525050506106a68882612a13565b8360e001819350828152505050509695505050505050565b6000806001905060006001905060006107138661070e89610709897f00000000000000000000000000000000000000000000000000000000000000006107049190616c8c565b612b25565b612b5a565b612b96565b9050600061073e876107398a61073460018b61072f9190616c8c565b612b25565b612b5a565b612bd2565b905060005b7f00000000000000000000000000000000000000000000000000000000000000008110156107e25760006107908b838151811061078357610782616cc0565b5b6020026020010151612c39565b90506107a5866107a08684612b96565b612b5a565b95506107ba856107b58584612b96565b612b5a565b94506107c6848b612b96565b93506107d2838b612bd2565b9250508080600101915050610743565b506107ed8484612c71565b945050505050949350505050565b60008060006001905060005b7f00000000000000000000000000000000000000000000000000000000000000008110156108f757600086610100015182601c811061084957610848616cc0565b5b60200201519050600061085c8286612c8d565b905080610895576040517f9fc3a21800000000000000000000000000000000000000000000000000000000815260040160405180910390fd5b6000876060015184601c81106108ae576108ad616cc0565b5b602002015190506108bf8382612cdf565b95506108e7886040015185601c81106108db576108da616cc0565b5b60200201518683612eca565b9450505050806001019050610807565b5060006109138661012001518660000151876020015185612f01565b905061091f8184612f7b565b935050505092915050565b600061093461657a565b60006109438460a00151612f88565b905061094d6165c6565b6109556165e9565b61098361097e8760e00151856000601c811061097457610973616cc0565b5b6020020151612bd2565b613017565b8460a00181815250506109ba6109b58760e00151856000601c81106109ab576109aa616cc0565b5b6020020151612b96565b613017565b8460c00181815250506109e28460a001516109dd8860c001518760c00151612b5a565b612b96565b846000018181525050610a1f6109fb8760a00151613017565b610a1a8660a00151610a158a60c001518960c00151612b5a565b612bd2565b612b5a565b846020018181525050600182600060468110610a3e57610a3d616cc0565b5b602002018181525050610a558861018001516130ae565b81600060468110610a6957610a68616cc0565b5b6020020181905250600184606001818152505060008460800181815250506000600190505b60238111610b4457610ab0610aa686600001516130ee565b8660600151612b5a565b838260468110610ac357610ac2616cc0565b5b602002018181525050610b0f8560800151610b0a8b6101200151600185610aea9190616cef565b60288110610afb57610afa616cc0565b5b60200201518860600151612b5a565b612b96565b856080018181525050610b2a85606001518860800151612b5a565b85606001818152505080610b3d90616d23565b9050610a8e565b50600060016023610b559190616c8c565b90505b60288111610c0e57610b7a610b7086602001516130ee565b8660600151612b5a565b838260468110610b8d57610b8c616cc0565b5b602002018181525050610bd98560800151610bd48b6101200151600185610bb49190616cef565b60288110610bc557610bc4616cc0565b5b60200201518860600151612b5a565b612b96565b856080018181525050610bf485606001518860800151612b5a565b85606001818152505080610c0790616d23565b9050610b58565b50866060015181600160468110610c2857610c27616cc0565b5b6020020181905250866080015181600260468110610c4957610c48616cc0565b5b60200201819052508660a0015181600360468110610c6a57610c69616cc0565b5b60200201819052508660c0015181600460468110610c8b57610c8a616cc0565b5b60200201819052508660e0015181600560468110610cac57610cab616cc0565b5b602002018190525086610100015181600660468110610cce57610ccd616cc0565b5b602002018190525086610120015181600760468110610cf057610cef616cc0565b5b602002018190525086610140015181600860468110610d1257610d11616cc0565b5b602002018190525086610160015181600960468110610d3457610d33616cc0565b5b6020020181905250866101a0015181600a60468110610d5657610d55616cc0565b5b602002018190525086610180015181600b60468110610d7857610d77616cc0565b5b6020020181905250866101c0015181600c60468110610d9a57610d99616cc0565b5b6020020181905250866101e0015181600d60468110610dbc57610dbb616cc0565b5b602002018190525086610200015181600e60468110610dde57610ddd616cc0565b5b602002018190525086610220015181600f60468110610e0057610dff616cc0565b5b602002018190525086610240015181601060468110610e2257610e21616cc0565b5b602002018190525086610260015181601160468110610e4457610e43616cc0565b5b602002018190525086610280015181601260468110610e6657610e65616cc0565b5b6020020181905250866102a0015181601360468110610e8857610e87616cc0565b5b6020020181905250866102c0015181601460468110610eaa57610ea9616cc0565b5b6020020181905250866102e0015181601560468110610ecc57610ecb616cc0565b5b602002018190525086610300015181601660468110610eee57610eed616cc0565b5b602002018190525086610320015181601760468110610f1057610f0f616cc0565b5b602002018190525086610340015181601860468110610f3257610f31616cc0565b5b602002018190525086610360015181601960468110610f5457610f53616cc0565b5b602002018190525086610380015181601a60468110610f7657610f75616cc0565b5b6020020181905250866103a0015181601b60468110610f9857610f97616cc0565b5b6020020181905250610fad88600001516130ae565b81601c60468110610fc157610fc0616cc0565b5b6020020181905250610fd688602001516130ae565b81601d60468110610fea57610fe9616cc0565b5b6020020181905250610fff88604001516130ae565b81601e6046811061101357611012616cc0565b5b602002018190525061102888606001516130ae565b81601f6046811061103c5761103b616cc0565b5b602002018190525061105188608001516130ae565b8160206046811061106557611064616cc0565b5b602002018190525061107a8860e001516130ae565b8160216046811061108e5761108d616cc0565b5b60200201819052506110a38860a001516130ae565b816022604681106110b7576110b6616cc0565b5b60200201819052506110cc8860c001516130ae565b816023604681106110e0576110df616cc0565b5b60200201819052506110f588600001516130ae565b8160246046811061110957611108616cc0565b5b602002018190525061111e88602001516130ae565b8160256046811061113257611131616cc0565b5b602002018190525061114788604001516130ae565b8160266046811061115b5761115a616cc0565b5b602002018190525061117088606001516130ae565b8160276046811061118457611183616cc0565b5b602002018190525061119988608001516130ae565b816028604681106111ad576111ac616cc0565b5b602002018190525060006111f1876060015186608001518b6101600151877f0000000000000000000000000000000000000000000000000000000000000000613123565b9050611219816000601c811061120a57611209616cc0565b5b60200201518660a00151612b5a565b85604001818152505061126785604001516112626112588c61016001516000601c811061124957611248616cc0565b5b60200201518b60c00151612b5a565b8860c00151612b5a565b612b96565b85604001818152505061127d8760c00151613276565b85606001818152505060005b6001601c6112979190616cef565b81101561151257600060017f00000000000000000000000000000000000000000000000000000000000000006112cd9190616cef565b8210159050806114ae5761131061130b8a60e00151886001866112f09190616c8c565b601c811061130157611300616cc0565b5b6020020151612bd2565b613017565b8760a001818152505061135261134d8a60e00151886001866113329190616c8c565b601c811061134357611342616cc0565b5b6020020151612b96565b613017565b8760c001818152505061136d87606001518860a00151612b5a565b8760e001818152505061139561138b88606001518b60c00151612b5a565b8860c00151612b5a565b876101000181815250506113c26113b08861010001516130ee565b6113bd8960e001516130ee565b612b96565b8583600160286113d29190616c8c565b6113dc9190616c8c565b604681106113ed576113ec616cc0565b5b602002018181525050600061142f8861010001518d61016001516001866114149190616c8c565b601c811061142557611424616cc0565b5b6020020151612b5a565b905061146b816114668a60e001518760018861144b9190616c8c565b601c811061145c5761145b616cc0565b5b6020020151612b5a565b612b96565b905061147b886040015182612b96565b8860400181815250506114a361149989606001518c60c00151612b5a565b8b60c00151612b5a565b886060018181525050505b6114d38b610140015183601b81106114c9576114c8616cc0565b5b60200201516130ae565b8483600160286114e39190616c8c565b6114ed9190616c8c565b604681106114fe576114fd616cc0565b5b602002018190525050806001019050611289565b50604051806040016040528060018152602001600281525082601c60286115399190616c8c565b6046811061154a57611549616cc0565b5b6020020181905250846040015183601c60286115669190616c8c565b6046811061157757611576616cc0565b5b60200201818152505060006115908a6101a001516130ae565b905080836001601c60286115a49190616c8c565b6115ae9190616c8c565b604681106115bf576115be616cc0565b5b60200201819052508760e00151846001601c60286115dd9190616c8c565b6115e79190616c8c565b604681106115f8576115f7616cc0565b5b602002018181525050600061160d8486613289565b9050600061161a83613356565b905061162682826133ca565b985050505050505050509392505050565b61163f6162d9565b6000604051806103c00160405280620400008152602001601281526020016002815260200160405180604001604052807ee3e17c7000007fcd3846e16e00000000e3e6172400007fcde3e04d3c00000081526020017604bf9a5000007ffee40b722800007fcde41ed5a000007f815250815260200160405180604001604052807f0b84fcbbd1ff6bcad9880bb39dc7e804217bc750682994e68d3369896c65f5f481526020017f02e0de120112ac2336cf5fd7e67b34b5aa0733bf11914c634f385cba580bb025815250815260200160405180604001604052807f2c076f3fc0973f46712a08502424f2acf58ca1837d7c4d22531a7d37b6960a2981526020017f23e1628f732c99c12445ab4a004259e73f3ca9bb37705fb551be3a83be795706815250815260200160405180604001604052807f02ae160c39d2ac738c03c0e2568ae914ddba2a65347ccb36ee8452a90e7a300381526020017f0e7b0132c9c67e70075fc108f229eb00984fc79bc39e70255ddb77f7f45e80c5815250815260200160405180604001604052807f04c86b5d44fb8b09ba8ca9794ca1c57755e80bfc28af23daaccbbc0d9f27bf0481526020017f07e3fb28f8c4a3c4ddf5d339b7f9babd161b20ed836dcb82351f9937fc6f3a9e815250815260200160405180604001604052807f2a1ec8f1ec3c797db654de7f49e2d50a0ec3db32cc6c7151dd525e219577a1cd81526020017f0b130591d3eb963157025f812add1d054afc9aba7a6cac2c3749e14eaf71c4f1815250815260200160405180604001604052807f21dc62f1d89eecc2389b3d7688ee423e1461b86e1313b685580e973500a1a65d81526020017f0a9f8725055384afd52dbc4f942f12f03e6b01999b5257e19092beb6ce861c75815250815260200160405180604001604052807f28ed32739a371ff86e76b50b12bb11f475507e332d40a46b643a46b34d9bc41f81526020017f0bdee86af78912d2c95ecd8a5d35f953a4e93a4857297163e4a18597e1f0220c815250815260200160405180604001604052807f2d946d03d2628b5cbd916a6f0a16d3ca741e2238aadd9e67fd597718968d648881526020017f1b56523aeaa9fc75b6bc16dca4d798740afdaca8d0bfd81f27e2458834d23b0d815250815260200160405180604001604052807f26f7114b3a1cadb14f2a9591f79a59871d0de5402f5d4cca616186d6c36bacf881526020017f114ac03ee0f9dc60117581e6f4b9371ab2e01d3aae36b125ab172e167a7afd17815250815260200160405180604001604052807f0144e5937e0ea0599ef00bd4b16a09db19caf74ace8a114ae27e241b012b65c581526020017f2aad0e4f0c9f7b36d2c1328510c8d1de10078ad62640328f8f8be1a44c1a3990815250815260200160405180604001604052807f292d36a280e0afe139947a72e33540fa7683af7d3c01839f873b190e1338694381526020017f139e96ef979a9d683b2103e7b8b644c98d59cd7119e3296af2f650438c1819aa815250815260200160405180604001604052807f2ec128185be779c06cfc1f7d385b6618f46b11fa41bc01afe737d422caf7499f81526020017f18e47f4031eb5422c4e440e2fe3c1a5fb8eff193a7d2f2e704ae92b765439795815250815260200160405180604001604052807f0b02c661a1e22ca234b4e5501b7d51b252b856a7b53f0d2f27caeeb097f651e181526020017f0b46f3757e831f1ea2674a561432305aa938ce4f8878d06b55b7560d314b7324815250815260200160405180604001604052807f072ad35c4f142a41045ca6393183b05cce13cfcf6fbaef8a42ddc341cba7809c81526020017f29b77a067f3d9dcc3acb5f6a7f3c6ba2a93e1d4354202eaea9162609a1f1e74b815250815260200160405180604001604052807f271fa99a8b0a2a5792ff70a0482b7c0a122c9e75e65ecb7423d68fd2dfde4e5b81526020017f263e4096c34386bd7379e766a37d811e44d2c055fab98678c3f7cf31f10e2146815250815260200160405180604001604052807f09992819934204932cc49e67cff10f90ac320fdc88be691ea008921e60d5812081526020017f06c64281b9b231cbd813857a15c801fa02f85e5aef171cbd5941f4fcfc4923f0815250815260200160405180604001604052807f071396b02813c8319631eecd9798d6d974d5c2e9f54e405fe1eb4d2be21e349481526020017f0b01b3fcfa64394b3f9f516dc7348f3dbf5e4bbf2b94abbb5bf8e1e7dc53b32f815250815260200160405180604001604052807f239981731452de519d49338d61841caf16c8f180a4b61027f1c17863717b708781526020017f270d770549eb8b5425fccc8fe306191b45550e90723ee98311bd6c6a1ae793d9815250815260200160405180604001604052807f0749626812fd75117335746a2d8a0aeeab686c26e0fd137f85ff8ff48ebe1fdf81526020017f0405d496b14aa96146cb4cf73bc39371b553cd7b6c785fd0a73dbb5b7a5be4e4815250815260200160405180604001604052807f0c7b84aea3f412324064723bf4c9c03d965f6d9bf17a399962d40a009d5e4be681526020017f0a243c95d3df3b02c445d9a504f0bff0ce811e6b7cfe6dcb6695396618a4c352815250815260200160405180604001604052807f2a45764d9f06457964e4c6711369289c89a43c11683f81b148e8b328e4c22c7d81526020017f22f581c3c68b3c206143e97690fb5ac27c46f0ee46a17ab731f27700702b281c815250815260200160405180604001604052807f2c8cd3d61f5a6c13997098c83919f769ef00a728b7462dadf61e3b0b84d546f281526020017f0c0b38e698724fc90935b8a9f4064a1d38bcf5f21a8d31407cc0c8f10591d637815250815260200160405180604001604052807f22bcc14fc05a041db1f726228c25a10b0106fec796bdd388a844061c49b5b77981526020017f01ffbde35e089f0ca23daf9afb0ef1b06f5d23a9301609ab2aceb3c313ebb0ba815250815260200160405180604001604052807f0fb1df728484dc24bfbdf422e7c56dcfe3045e87347be1e6a4cb045b2b91b90981526020017f1efc1252647c0b54202356df5ce8ac3913893c63c275b66a0e8fd91f30879406815250815260200160405180604001604052807f2ebaf079711e4cb519de30a21c58b8c97c4d6e3394e173dc511bedd586ac194081526020017f18804efa23a06d9217d2ed683d343ced6beffe071ed2812604112ceda07a1078815250815260200160405180604001604052807f2b37631a3d9cbfac8f5f7492fcfd4f44d0fd2add2f1c6ae587bee7d24f06057281526020017f010000000000000000000000000000000000000000000000000000000000000081525081525090508091505090565b611fe7616617565b6080838390501461202d576040517f08c379a000000000000000000000000000000000000000000000000000000000815260040161202490616dc8565b60405180910390fd5b6040518060800160405280848460009060209261204c93929190616c51565b906120579190616e0a565b60001c8152602001848460209060409261207393929190616c51565b9061207e9190616e0a565b60001c8152602001848460409060609261209a93929190616c51565b906120a59190616e0a565b60001c815260200184846060906080926120c193929190616c51565b906120cc9190616e0a565b60001c815250905092915050565b600060208383905014612122576040517f08c379a000000000000000000000000000000000000000000000000000000000815260040161211990616eb5565b60405180910390fd5b6121378383906121329190616e0a565b612c39565b905092915050565b61214761663f565b60006121578989898989896135b1565b85600001866020018760400183995084815250848152508481525050505050612180838a613a93565b8460600185608001829550838152508381525050505097509795505050505050565b6121aa616675565b60006121b4616698565b84816000600981106121c9576121c8616cc0565b5b6020020181815250508360e0015160000151816001600981106121ef576121ee616cc0565b5b6020020181815250508360e00151602001518160026009811061221557612214616cc0565b5b6020020181815250508360e00151604001518160036009811061223b5761223a616cc0565b5b6020020181815250508360e00151606001518160046009811061226157612260616cc0565b5b6020020181815250508360800151600001518160056009811061228757612286616cc0565b5b602002018181525050836080015160200151816006600981106122ad576122ac616cc0565b5b602002018181525050836080015160400151816007600981106122d3576122d2616cc0565b5b602002018181525050836080015160600151816008600981106122f9576122f8616cc0565b5b602002018181525050612331816040516020016123169190616f80565b60405160208183030381529060405280519060200120612c39565b915061233c82613cfc565b846000601981106123505761234f616cc0565b5b602002018560016019811061236857612367616cc0565b5b60200201828152508281525050506000600190505b6002601961238b9190616fcb565b811015612435576123c1836040516020016123a6919061701d565b60405160208183030381529060405280519060200120612c39565b92506123cc83613cfc565b858360026123da9190616c05565b601981106123eb576123ea616cc0565b5b602002018660018560026123ff9190616c05565b6124099190616c8c565b6019811061241a57612419616cc0565b5b6020020182815250828152505050808060010191505061237d565b5060018060191614801561244a575060026019115b156124ba5761247e82604051602001612463919061701d565b60405160208183030381529060405280519060200120612c39565b9150600061248b83613cfc565b856001601961249a9190616cef565b601981106124ab576124aa616cc0565b5b60200201819350828152505050505b509250929050565b6124ca6166bb565b600080600090505b601c8110156125455761250a846040516020016124ef919061701d565b60405160208183030381529060405280519060200120612c39565b9350600061251785613cfc565b8584601c811061252a57612529616cc0565b5b602002018193508281525050505080806001019150506124d2565b50829050915091565b6125566166bb565b600080600090505b601c81101561266e5761256f6166de565b848160006009811061258457612583616cc0565b5b60200201818152505060005b60088110156126025786610100015183601c81106125b1576125b0616cc0565b5b602002015181600881106125c8576125c7616cc0565b5b6020020151826001836125db9190616c8c565b600981106125ec576125eb616cc0565b5b6020020181815250508080600101915050612590565b50612632816040516020016126179190617104565b60405160208183030381529060405280519060200120612c39565b9450600061263f86613cfc565b8685601c811061265257612651616cc0565b5b602002018193508281525050505050808060010191505061255e565b508290509250929050565b600080612684616701565b838160006029811061269957612698616cc0565b5b60200201818152505060005b60288110156127005785610120015181602881106126c6576126c5616cc0565b5b6020020151826001836126d99190616c8c565b602981106126ea576126e9616cc0565b5b60200201818152505080806001019150506126a5565b506127308160405160200161271591906171a4565b60405160208183030381529060405280519060200120612c39565b9150600061273d83613cfc565b809250819550505050509250929050565b600080612759616724565b83816000606d811061276e5761276d616cc0565b5b60200201818152505060005b6001601c6127889190616cef565b8110156128f05785610140015181601b81106127a7576127a6616cc0565b5b602002015160000151826004836127be9190616c05565b60016127ca9190616c8c565b606d81106127db576127da616cc0565b5b60200201818152505085610140015181601b81106127fc576127fb616cc0565b5b602002015160200151826004836128139190616c05565b600261281f9190616c8c565b606d81106128305761282f616cc0565b5b60200201818152505085610140015181601b811061285157612850616cc0565b5b602002015160400151826004836128689190616c05565b60036128749190616c8c565b606d811061288557612884616cc0565b5b60200201818152505085610140015181601b81106128a6576128a5616cc0565b5b602002015160600151826004836128bd9190616c05565b60046128c99190616c8c565b606d81106128da576128d9616cc0565b5b602002018181525050808060010191505061277a565b50612920816040516020016129059190617244565b60405160208183030381529060405280519060200120612c39565b9150600061292d83613cfc565b809250819550505050509250929050565b600080612949616747565b83816000601d811061295e5761295d616cc0565b5b60200201818152505060005b601c8110156129c55785610160015181601c811061298b5761298a616cc0565b5b60200201518260018361299e9190616c8c565b601d81106129af576129ae616cc0565b5b602002018181525050808060010191505061296a565b506129f5816040516020016129da91906172e4565b60405160208183030381529060405280519060200120612c39565b91506000612a0283613cfc565b809250819550505050509250929050565b600080612a1e61676a565b8381600060058110612a3357612a32616cc0565b5b6020020181815250508461018001516000015181600160058110612a5a57612a59616cc0565b5b6020020181815250508461018001516020015181600260058110612a8157612a80616cc0565b5b6020020181815250508461018001516040015181600360058110612aa857612aa7616cc0565b5b6020020181815250508461018001516060015181600460058110612acf57612ace616cc0565b5b602002018181525050612b0781604051602001612aec9190617384565b60405160208183030381529060405280519060200120612c39565b91506000612b1483613cfc565b809250819550505050509250929050565b60007f30644e72e131a029b85045b68181585d2833e84879b9709143e1f593f000000182612b53919061739f565b9050919050565b60007f30644e72e131a029b85045b68181585d2833e84879b9709143e1f593f000000180612b8b57612b8a616f9c565b5b828409905092915050565b60007f30644e72e131a029b85045b68181585d2833e84879b9709143e1f593f000000180612bc757612bc6616f9c565b5b828408905092915050565b60007f30644e72e131a029b85045b68181585d2833e84879b9709143e1f593f000000180612c0357612c02616f9c565b5b827f30644e72e131a029b85045b68181585d2833e84879b9709143e1f593f0000001612c2f9190616cef565b8408905092915050565b60007f30644e72e131a029b85045b68181585d2833e84879b9709143e1f593f00000018260001c612c6a919061739f565b9050919050565b6000612c8583612c8084613017565b612b5a565b905092915050565b600080612cca84600060088110612ca757612ca6616cc0565b5b602002015185600160088110612cc057612cbf616cc0565b5b6020020151612b96565b9050612cd68184612f7b565b91505092915050565b6000806040518061010001604052807f30644e72e131a029b85045b68181585d2833e84879b9709143e1f593efffec5181526020016102d081526020017f30644e72e131a029b85045b68181585d2833e84879b9709143e1f593efffff118152602001609081526020017f30644e72e131a029b85045b68181585d2833e84879b9709143e1f593efffff71815260200160f081526020017f30644e72e131a029b85045b68181585d2833e84879b9709143e1f593effffd3181526020016113b0815250905060006001905060005b6008811015612dd657612dc982612dc48784612bd2565b612b5a565b9150806001019050612dad565b50612ddf61678c565b60005b6008811015612e50576000848260088110612e0057612dff616cc0565b5b60200201519050612e1a81612e158985612bd2565b612b5a565b9050612e2581613017565b905080838360088110612e3b57612e3a616cc0565b5b60200201818152505050806001019050612de2565b5060005b6008811015612eb4576000878260088110612e7257612e71616cc0565b5b60200201519050612e9a81848460088110612e9057612e8f616cc0565b5b6020020151612b5a565b9050612ea68682612b96565b955050806001019050612e54565b50612ebf8483612b5a565b935050505092915050565b600080612eeb6001612ee685612ee1896001612bd2565b612b5a565b612b96565b9050612ef78482612b5a565b9150509392505050565b6000612f0b6167af565b612f16868285613d48565b612f2286868386613f8d565b612f2e86868386614289565b612f3986828561452f565b612f44868285614807565b612f5086868386614c54565b612f5b8682856158ee565b612f66868285615dae565b612f708185616201565b915050949350505050565b6000818314905092915050565b612f906166bb565b81816000601c8110612fa557612fa4616cc0565b5b6020020181815250506000600190505b601c81101561301157612fea82600183612fcf9190616cef565b601c8110612fe057612fdf616cc0565b5b6020020151613276565b8282601c8110612ffd57612ffc616cc0565b5b602002018181525050806001019050612fb5565b50919050565b6000808290506000604051602081526020808201526020604082015282606082015260027f30644e72e131a029b85045b68181585d2833e84879b9709143e1f593f00000010360808201527f30644e72e131a029b85045b68181585d2833e84879b9709143e1f593f000000160a08201526020600060c08360055afa8061309d57600080fd5b600051925050508092505050919050565b6130b66167d2565b604051806040016040528060888460200151901b846000015117815260200160888460600151901b8460400151178152509050919050565b6000817f30644e72e131a029b85045b68181585d2833e84879b9709143e1f593f000000161311c9190616cef565b9050919050565b61312b6166bb565b6000601c90505b600081111561326c5760008460018361314b9190616cef565b601c811061315c5761315b616cc0565b5b602002015190506000886001846131739190616cef565b601c811061318457613183616cc0565b5b6020020151905060006131f26131a461319d858c612b5a565b6002612b5a565b6131ed8a6001886131b59190616cef565b601c81106131c6576131c5616cc0565b5b60200201516131e86131e2886131dd60018a612bd2565b612b5a565b87612bd2565b612b5a565b612bd2565b90506132228161321d6132186132128761320d600189612bd2565b612b5a565b86612b96565b613017565b612b5a565b905085841161325857809850808560018661323d9190616cef565b601c811061324e5761324d616cc0565b5b6020020181815250505b50505080613265906173d0565b9050613132565b5095945050505050565b60006132828283612b5a565b9050919050565b6132916167d2565b60006002601c60286132a39190616c8c565b6132ad9190616c8c565b90506001604051855151604082015285516020015160608201528451608082015260408160606040840160075afa8216915060015b8381101561333e576020810287016020820287018151516040850152815160200151606085015280516080850152604080850160606040870160075afa8516945060408460808660065afa8516945050506001810190506132e2565b81518552602082015160208601525050505092915050565b61335e6167d2565b7f30644e72e131a029b85045b68181585d97816a916871ca8d3c208c16d87cfd4782602001517f30644e72e131a029b85045b68181585d97816a916871ca8d3c208c16d87cfd476133af9190616cef565b6133b9919061739f565b826020018181525050819050919050565b600080836000015184602001517f198e9393920d483a7260bfb731fb5d25f1aa493335a9e71297e485b7aef312c27f1800deef121f1e76426a00665e5c4479674322d4f75edadd46debd5cd992f6ed7f090689d0585ff075ec9e99ad690c3395bc4b313370b38ef355acdadcd122975b7f12c85ea5db8c6deb4aab71808dcb408fe3d1e7690c43d37b4ce6cc0166fa7daa886000015189602001517f260e01b251f6f1c7e7ff4e580791dee8ea51d87a358e038b4efe30fac09383c17f0118c4d5b837bcc2bc89b5b398b5974e9f5944073b32078b7e231fec938883b07f04fc6369f7110fe3d25156c1bb9a72859cf2a04641f99ba4ee413c80da6a5fe47f22febda3c0c0632a56475b4214e5615e11e6dd3f96e6cea2854a87d4dacc5e556040516020016135049c9b9a999897969594939291906173f9565b6040516020818303038152906040529050600080600873ffffffffffffffffffffffffffffffffffffffff168360405161353e9190617540565b600060405180830381855afa9150503d8060008114613579576040519150601f19603f3d011682016040523d82523d6000602084013e61357e565b606091505b50915091506000818060200190518101906135999190617583565b90508280156135a55750805b94505050505092915050565b6000806000806000600c8760036135c89190616c8c565b6135d29190616c8c565b67ffffffffffffffff8111156135eb576135ea6175b0565b5b6040519080825280602002602001820160405280156136195781602001602082028036833780820191505090505b5090508760001b8160008151811061363457613633616cc0565b5b6020026020010181815250508660001b8160018151811061365857613657616cc0565b5b6020026020010181815250508560001b8160028151811061367c5761367b616cc0565b5b60200260200101818152505060005b878110156136e5578a8a828181106136a6576136a5616cc0565b5b90506020020135828260036136bb9190616c8c565b815181106136cc576136cb616cc0565b5b602002602001018181525050808060010191505061368b565b508a600001516000015160001b818860036137009190616c8c565b8151811061371157613710616cc0565b5b6020026020010181815250508a600001516020015160001b8160018960036137399190616c8c565b6137439190616c8c565b8151811061375457613753616cc0565b5b6020026020010181815250508a600001516040015160001b81600289600361377c9190616c8c565b6137869190616c8c565b8151811061379757613796616cc0565b5b6020026020010181815250508a600001516060015160001b8160038960036137bf9190616c8c565b6137c99190616c8c565b815181106137da576137d9616cc0565b5b6020026020010181815250508a602001516000015160001b8160048960036138029190616c8c565b61380c9190616c8c565b8151811061381d5761381c616cc0565b5b6020026020010181815250508a602001516020015160001b8160058960036138459190616c8c565b61384f9190616c8c565b815181106138605761385f616cc0565b5b6020026020010181815250508a602001516040015160001b8160068960036138889190616c8c565b6138929190616c8c565b815181106138a3576138a2616cc0565b5b6020026020010181815250508a602001516060015160001b8160078960036138cb9190616c8c565b6138d59190616c8c565b815181106138e6576138e5616cc0565b5b6020026020010181815250508a604001516000015160001b81600889600361390e9190616c8c565b6139189190616c8c565b8151811061392957613928616cc0565b5b6020026020010181815250508a604001516020015160001b8160098960036139519190616c8c565b61395b9190616c8c565b8151811061396c5761396b616cc0565b5b6020026020010181815250508a604001516040015160001b81600a8960036139949190616c8c565b61399e9190616c8c565b815181106139af576139ae616cc0565b5b6020026020010181815250508a604001516060015160001b81600b8960036139d79190616c8c565b6139e19190616c8c565b815181106139f2576139f1616cc0565b5b602002602001018181525050613a2d81604051602001613a129190617697565b60405160208183030381529060405280519060200120612c39565b9150613a3882613cfc565b8095508196505050613a6f82604051602001613a54919061701d565b60405160208183030381529060405280519060200120612c39565b91506000613a7c83613cfc565b809250819550505050509650965096509692505050565b6000806000613aa06167ec565b613aa986616298565b816000600d8110613abd57613abc616cc0565b5b6020020181815250508460a001516000015160001b816001600d8110613ae657613ae5616cc0565b5b6020020181815250508460a001516020015160001b816002600d8110613b0f57613b0e616cc0565b5b6020020181815250508460a001516040015160001b816003600d8110613b3857613b37616cc0565b5b6020020181815250508460a001516060015160001b816004600d8110613b6157613b60616cc0565b5b6020020181815250508460c001516000015160001b816005600d8110613b8a57613b89616cc0565b5b6020020181815250508460c001516020015160001b816006600d8110613bb357613bb2616cc0565b5b6020020181815250508460c001516040015160001b816007600d8110613bdc57613bdb616cc0565b5b6020020181815250508460c001516060015160001b816008600d8110613c0557613c04616cc0565b5b60200201818152505084606001516000015160001b816009600d8110613c2e57613c2d616cc0565b5b60200201818152505084606001516020015160001b81600a600d8110613c5757613c56616cc0565b5b60200201818152505084606001516040015160001b81600b600d8110613c8057613c7f616cc0565b5b60200201818152505084606001516060015160001b81600c600d8110613ca957613ca8616cc0565b5b602002018181525050613ce181604051602001613cc69190617732565b60405160208183030381529060405280519060200120612c39565b9150613cec82613cfc565b8094508195505050509250925092565b600080600083905060006fffffffffffffffffffffffffffffffff821690506000608083901c9050613d308260001b612c39565b9450613d3e8160001b612c39565b9350505050915091565b6000613d558460076162a5565b905060007f183227397098d014dc2822db40c0ac2e9419f4243cdcb848a1f0fac9f800000090506000613dcb613dc5613d8f856003612bd2565b613dc0613db0613da08b60006162a5565b613dab8c601c6162a5565b612b5a565b613dbb8b601b6162a5565b612b5a565b612b5a565b83612b5a565b9050613e79613e69613e46613e23613e0085613dfb613deb8d60026162a5565b613df68e601b6162a5565b612b5a565b612b96565b613e1e613e0e8c60036162a5565b613e198d601c6162a5565b612b5a565b612b96565b613e41613e318b60046162a5565b613e3c8c601d6162a5565b612b5a565b612b96565b613e64613e548a60056162a5565b613e5f8b601e6162a5565b612b5a565b612b96565b613e748860016162a5565b612b96565b9050613ea281613e9d613e8d866001612bd2565b613e988a60266162a5565b612b5a565b612b96565b9050613eae8184612b5a565b9050613eba8185612b5a565b905080856000601a8110613ed157613ed0616cc0565b5b60200201818152505050506000613f22613f12613f02613ef288601b6162a5565b613efd89601e6162a5565b612b96565b613f0d8860236162a5565b612bd2565b613f1d8760006162a5565b612b96565b9050613f3881613f33846002612bd2565b612b5a565b9050613f4e81613f49846001612bd2565b612b5a565b9050613f5a8183612b5a565b9050613f668184612b5a565b905080846001601a8110613f7d57613f7c616cc0565b5b6020020181815250505050505050565b6000806000613fca613fc0613fa389601b6162a5565b613fbb613fb18b60116162a5565b8a60600151612b5a565b612b96565b8760800151612b96565b905061400d81614008613ffe613fe18b601c6162a5565b613ff9613fef8d60126162a5565b8c60600151612b5a565b612b96565b8960800151612b96565b612b5a565b90506140508161404b6140416140248b601d6162a5565b61403c6140328d60136162a5565b8c60600151612b5a565b612b96565b8960800151612b96565b612b5a565b90506140938161408e6140846140678b601e6162a5565b61407f6140758d60146162a5565b8c60600151612b5a565b612b96565b8960800151612b96565b612b5a565b90508092505060006140d36140c96140ac89601b6162a5565b6140c46140ba8b600d6162a5565b8a60600151612b5a565b612b96565b8760800151612b96565b9050614116816141116141076140ea8b601c6162a5565b6141026140f88d600e6162a5565b8c60600151612b5a565b612b96565b8960800151612b96565b612b5a565b90506141598161415461414a61412d8b601d6162a5565b61414561413b8d600f6162a5565b8c60600151612b5a565b612b96565b8960800151612b96565b612b5a565b905061419c8161419761418d6141708b601e6162a5565b61418861417e8d60106162a5565b8c60600151612b5a565b612b96565b8960800151612b96565b612b5a565b90508091505060006141cb6141c56141b589601f6162a5565b6141c08a60196162a5565b612b96565b84612b5a565b905061420a816142056141ff6141e28b60276162a5565b6141fa6141f08d601a6162a5565b8c60a00151612b5a565b612b96565b85612b5a565b612bd2565b90506142168185612b5a565b905080856002601a811061422d5761422c616cc0565b5b60200201818152505050600061426061425a61424a89601a6162a5565b6142558a60276162a5565b612b5a565b85612b5a565b905080856003601a811061427757614276616cc0565b5b60200201818152505050505050505050565b6000806143046142e76142ca6142ad6142a38a60156162a5565b8960800151612b96565b6142c56142bb8b60166162a5565b8a60000151612b5a565b612b96565b6142e26142d88a60176162a5565b8960200151612b5a565b612b96565b6142ff6142f58960186162a5565b8860400151612b5a565b612b96565b9150600061434661432361431989601b6162a5565b8860800151612b96565b6143416143318a60036162a5565b61433c8b60236162a5565b612b5a565b612b96565b9050600061437b61435889601c6162a5565b6143766143668b60006162a5565b6143718c60246162a5565b612b5a565b612b96565b905060006143b061438d8a601d6162a5565b6143ab61439b8c60016162a5565b6143a68d60256162a5565b612b5a565b612b96565b90506143ff6143e26143cf856143ca868d60000151612b5a565b612b96565b6143dd848c60200151612b5a565b612b96565b6143fa6143f08c60046162a5565b8b60400151612b5a565b612b96565b9350505050600061441a6144148860206162a5565b84612b5a565b9050600061443261442c8960206162a5565b84612b5a565b9050600061447a6144576144478b60226162a5565b6144528c60066162a5565b612b96565b6144756144658c60226162a5565b6144708d60066162a5565b612b5a565b612bd2565b905060006144a461449e61448e8789612b5a565b6144998d60206162a5565b612b5a565b83612bd2565b90506144b08188612b5a565b905060006144e46144cb6144c58d60066162a5565b87612b5a565b6144df6144d98e60216162a5565b87612b5a565b612bd2565b905081896004601a81106144fb576144fa616cc0565b5b60200201818152505080896005601a811061451957614518616cc0565b5b6020020181815250505050505050505050505050565b600061453d60006001612bd2565b9050600061454d60006002612bd2565b9050600061455d60006003612bd2565b9050600061457f61456f88601c6162a5565b61457a89601b6162a5565b612bd2565b905060006145a161459189601d6162a5565b61459c8a601c6162a5565b612bd2565b905060006145c36145b38a601e6162a5565b6145be8b601d6162a5565b612bd2565b905060006145e56145d58b60236162a5565b6145e08c601e6162a5565b612bd2565b905060008490506145ff816145fa878b612b96565b612b5a565b90506146148161460f878a612b96565b612b5a565b9050614629816146248789612b96565b612b5a565b905061463f8161463a8d60086162a5565b612b5a565b905061464b818a612b5a565b9050808a6006601a811061466257614661616cc0565b5b6020020181815250505060008390506146848161467f868b612b96565b612b5a565b905061469981614694868a612b96565b612b5a565b90506146ae816146a98689612b96565b612b5a565b90506146c4816146bf8d60086162a5565b612b5a565b90506146d0818a612b5a565b9050808a6007601a81106146e7576146e6616cc0565b5b60200201818152505050600082905061470981614704858b612b96565b612b5a565b905061471e81614719858a612b96565b612b5a565b90506147338161472e8589612b96565b612b5a565b9050614749816147448d60086162a5565b612b5a565b9050614755818a612b5a565b9050808a6008601a811061476c5761476b616cc0565b5b60200201818152505050600081905061478e81614789848b612b96565b612b5a565b90506147a38161479e848a612b96565b612b5a565b90506147b8816147b38489612b96565b612b5a565b90506147ce816147c98d60086162a5565b612b5a565b90506147da818a612b5a565b9050808a6009601a81106147f1576147f0616cc0565b5b6020020181815250505050505050505050505050565b61480f61680f565b61481a84601c6162a5565b81600001818152505061482e84601d6162a5565b8160200181815250506148428460236162a5565b8160400181815250506148568460266162a5565b81606001818152505061486a8460256162a5565b81608001818152505061487e8460246162a5565b8160a001818152505060006148948560026162a5565b905060006148a38660006162a5565b905060006148b984604001518560000151612bd2565b905060006148cf85602001518660200151612b5a565b9050600086905060006148ea87606001518860600151612b5a565b9050600061490961490389602001518a60600151612b5a565b88612b5a565b9050600061492c6149228a60a001518b60400151612b96565b8a60000151612b96565b905061494161493b8288612b5a565b87612b5a565b905061496861496261495c6149568487612bd2565b88612bd2565b84612b96565b83612b96565b905061499a61498a61497a8387612b5a565b6149858f60096162a5565b612b5a565b61499560018a612bd2565b612b5a565b8b600a601a81106149ae576149ad616cc0565b5b6020020181815250505050505060006149cf86602001518760800151612b96565b905060006149ee6149e4886060015188612b5a565b8860200151612bd2565b90506000614a1f6149ff8487612b5a565b614a1a614a148b60a001518c60000151612bd2565b85612b5a565b612b96565b9050614a51614a41614a31838c612b5a565b614a3c8e60096162a5565b612b5a565b614a4c600189612bd2565b612b5a565b8a600b601a8110614a6557614a64616cc0565b5b6020020181815250505050506000614a8b614a81836011612b96565b8760000151612b5a565b90506000614a998384612b96565b9050614aa58182612b96565b90506000614ab4836009612b5a565b9050614ae7614ae1614adb614ad18b60a001518c60000151612b96565b8b60000151612b96565b84612b5a565b82612bd2565b8860c00181815250506000614b1c614b16614b068b60c001518d612b5a565b614b118f60096162a5565b612b5a565b88612b5a565b9050614b408b600a601a8110614b3557614b34616cc0565b5b602002015182612b96565b8b600a601a8110614b5457614b53616cc0565b5b602002018181525050505050506000614b8f614b85614b7b88600001518960000151612b96565b8860000151612b96565b8760000151612b5a565b90506000614be2614bb183614bac8a600001518b60a00151612bd2565b612b5a565b614bdd614bc68a602001518b60200151612b96565b614bd88b602001518c60800151612b96565b612b5a565b612bd2565b9050614c2b89600b601a8110614bfb57614bfa616cc0565b5b6020020151614c26614c20614c10858d612b5a565b614c1b8f60096162a5565b612b5a565b88612b5a565b612b96565b89600b601a8110614c3f57614c3e616cc0565b5b60200201818152505050505050505050505050565b614c5c61684c565b614ca0614c7d614c6d87601b6162a5565b614c788860246162a5565b612b5a565b614c9b614c8b8860236162a5565b614c9689601c6162a5565b612b5a565b612b96565b816000018181525050614d00614cf0614ccd614cbd88601b6162a5565b614cc889601e6162a5565b612b5a565b614ceb614cdb89601c6162a5565b614ce68a601d6162a5565b612b5a565b612b96565b614cfb8760256162a5565b612bd2565b816040018181525050614d1c816040015160446001901b612b5a565b816040018181525050614d3d8160400151614d388760266162a5565b612bd2565b816040018181525050614d5881604001518260000151612b96565b816040018181525050614d798160400151614d748760056162a5565b612b5a565b816040018181525050614d95816000015160446001901b612b5a565b816000018181525050614dc98160000151614dc4614db48860236162a5565b614dbf8960246162a5565b612b5a565b612b96565b8160000181815250508060000151816020018181525050614e0b8160200151614e06614df688601d6162a5565b614e0189601e6162a5565b612b96565b612bd2565b816020018181525050614e2c8160200151614e278760046162a5565b612b5a565b8160200181815250508060000151816060018181525050614e5b8160600151614e5687601e6162a5565b612b96565b816060018181525050614e8f8160600151614e8a614e7a8860256162a5565b614e858960266162a5565b612b96565b612bd2565b816060018181525050614eb08160600151614eab8760006162a5565b612b5a565b8160600181815250506000614eda614ed083602001518460400151612b96565b8360600151612b96565b9050614ef081614eeb8860036162a5565b612b5a565b9050614f0b614f008760246162a5565b600e6001901b612b5a565b826080018181525050614f2c8260800151614f278860236162a5565b612b96565b826080018181525050614f488260800151600e6001901b612b5a565b826080018181525050614f698260800151614f6488601d6162a5565b612b96565b826080018181525050614f858260800151600e6001901b612b5a565b826080018181525050614fa68260800151614fa188601c6162a5565b612b96565b826080018181525050614fc28260800151600e6001901b612b5a565b826080018181525050614fe38260800151614fde88601b6162a5565b612b96565b8260800181815250506150048260800151614fff88601e6162a5565b612bd2565b82608001818152505061502582608001516150208860056162a5565b612b5a565b82608001818152505061504761503c8760256162a5565b600e6001901b612b5a565b8260a00181815250506150688260a001516150638860246162a5565b612b96565b8260a00181815250506150848260a00151600e6001901b612b5a565b8260a00181815250506150a58260a001516150a08860236162a5565b612b96565b8260a00181815250506150c18260a00151600e6001901b612b5a565b8260a00181815250506150e28260a001516150dd88601e6162a5565b612b96565b8260a00181815250506150fe8260a00151600e6001901b612b5a565b8260a001818152505061511f8260a0015161511a88601d6162a5565b612b96565b8260a00181815250506151408260a0015161513b8860266162a5565b612bd2565b8260a00181815250506151618260a0015161515c8860006162a5565b612b5a565b8260a0018181525050600061517e83608001518460a00151612b96565b90506151948161518f8960046162a5565b612b5a565b90506151ae6151a488601d6162a5565b8760400151612b5a565b8360c00181815250506151dc8360c001516151d76151cd8a601c6162a5565b8960200151612b5a565b612b96565b8360c001818152505061520a8360c001516152056151fb8a601b6162a5565b8960000151612b5a565b612b96565b8360c001818152505061522b8360c001516152268960016162a5565b612b96565b8360c00181815250508260c001518360e001818152505061525a8360c0015161525589601e6162a5565b612bd2565b8360c00181815250506152816152718860236162a5565b61527c89601b6162a5565b612bd2565b836101400181815250506152a96152998860266162a5565b6152a489601e6162a5565b612bd2565b836101200181815250506152d56152ca846101400151856101400151612b5a565b846101400151612bd2565b8361028001818152505061533261532761532085610140015160017f30644e72e131a029b85045b68181585d2833e84879b9709143e1f593f000000161531b9190616cef565b612b5a565b6001612b96565b846101200151612b5a565b8361016001818152505061538461536b8461016001516153666153568b60026162a5565b6153618c60036162a5565b612b5a565b612b5a565b61537f6153798a600a6162a5565b87612b5a565b612b5a565b85600d601a811061539857615397616cc0565b5b6020020181815250506153e96153d08461028001516153cb6153bb8b60026162a5565b6153c68c60036162a5565b612b5a565b612b5a565b6153e46153de8a600a6162a5565b87612b5a565b612b5a565b85600e601a81106153fd576153fc616cc0565b5b6020020181815250506154318360c0015161542c61541c8a60026162a5565b6154278b60036162a5565b612b5a565b612b5a565b836101e0018181525050600061545561544b89601e6162a5565b8560e00151612bd2565b905061546a6154648283612b5a565b82612bd2565b846101a001818152505061548c6154828960256162a5565b8860400151612b5a565b846101000181815250506154bc8461010001516154b76154ad8b60246162a5565b8a60200151612b5a565b612b96565b846101000181815250506154ec8461010001516154e76154dd8b60236162a5565b8a60000151612b5a565b612b96565b8461010001818152505061550f6155048960266162a5565b856101000151612bd2565b8461010001818152505060006155396155298a60256162a5565b6155348b601d6162a5565b612bd2565b90506155d661558c61558661557f88610140015160017f30644e72e131a029b85045b68181585d2833e84879b9709143e1f593f000000161557a9190616cef565b612b5a565b6001612b96565b83612b5a565b6155d16155ca88610100015160017f30644e72e131a029b85045b68181585d2833e84879b9709143e1f593f00000016155c59190616cef565b612b5a565b6001612b96565b612b5a565b856101800181815250506156026155f7866101000151876101000151612b5a565b866101000151612bd2565b856101c00181815250506156416156288661018001516156238c60076162a5565b612b5a565b61563c6156368c600a6162a5565b89612b5a565b612b5a565b87600f601a811061565557615654616cc0565b5b60200201818152505061569361567a8661028001516156758c60076162a5565b612b5a565b61568e6156888c600a6162a5565b89612b5a565b612b5a565b876010601a81106156a7576156a6616cc0565b5b6020020181815250506156e56156cc866101c001516156c78c60076162a5565b612b5a565b6156e06156da8c600a6162a5565b89612b5a565b612b5a565b876011601a81106156f9576156f8616cc0565b5b60200201818152505061571b856101a001516157168b60076162a5565b612b5a565b856102000181815250506157436157338a60246162a5565b61573e8b601c6162a5565b612bd2565b856102200181815250506157b36157a361579861579188610140015160017f30644e72e131a029b85045b68181585d2833e84879b9709143e1f593f000000161578c9190616cef565b612b5a565b6001612b96565b876102200151612b5a565b6157ae8b601d6162a5565b612bd2565b85610240018181525050846101e00151856102600181815250506158078561026001516158028761024001516157fd6157ed8e60056162a5565b6157f88f60026162a5565b612b5a565b612b5a565b612b96565b8561026001818152505061584a8561026001516158458760c001516158406158308e60006162a5565b61583b8f60026162a5565b612b5a565b612b5a565b612b96565b85610260018181525050615868856102600151866102000151612b96565b8561026001818152505061588a61588486610260015186612b96565b84612b96565b856102a00181815250506158b6856102a001516158b16158ab8c600a6162a5565b89612b5a565b612b5a565b856102a0018181525050846102a0015187600c601a81106158da576158d9616cc0565b5b602002018181525050505050505050505050565b6158f66168f3565b61591461590485601b6162a5565b61590f8660026162a5565b612b96565b81600001818152505061593b61592b85601c6162a5565b6159368660036162a5565b612b96565b81602001818152505061596261595285601d6162a5565b61595d8660046162a5565b612b96565b81604001818152505061598961597985601e6162a5565b6159848660056162a5565b612b96565b8160600181815250506159cb6159c16159b76159ad84600001518560000151612b5a565b8460000151612b5a565b8360000151612b5a565b8260000151612b5a565b816080018181525050615a0d615a036159f96159ef84602001518560200151612b5a565b8460200151612b5a565b8360200151612b5a565b8260200151612b5a565b8160a0018181525050615a4f615a45615a3b615a3184604001518560400151612b5a565b8460400151612b5a565b8360400151612b5a565b8260400151612b5a565b8160c0018181525050615a91615a87615a7d615a7384606001518560600151612b5a565b8460600151612b5a565b8360600151612b5a565b8260600151612b5a565b8160e0018181525050615aac81608001518260a00151612b96565b81610100018181525050615ac88160c001518260e00151612b96565b81610120018181525050615af2615ae78260a001518360a00151612b96565b826101200151612b96565b81610140018181525050615b1c615b118260e001518360e00151612b96565b826101000151612b96565b81610160018181525050615b3a816101200151826101200151612b96565b816101e0018181525050615b66615b5b826101e00151836101e00151612b96565b826101600151612b96565b816101e0018181525050615b84816101000151826101000151612b96565b816101a0018181525050615bb0615ba5826101a00151836101a00151612b96565b826101400151612b96565b816101a0018181525050615bce816101600151826101a00151612b96565b81610180018181525050615bec816101400151826101e00151612b96565b816101c0018181525050615c0a615c0485600b6162a5565b83612b5a565b81610200018181525050615c5c836012601a8110615c2b57615c2a616cc0565b5b6020020151615c57836102000151615c52856101800151615c4d8a60236162a5565b612bd2565b612b5a565b612b96565b836012601a8110615c7057615c6f616cc0565b5b602002018181525050615cc1836013601a8110615c9057615c8f616cc0565b5b6020020151615cbc836102000151615cb7856101a00151615cb28a60246162a5565b612bd2565b612b5a565b612b96565b836013601a8110615cd557615cd4616cc0565b5b602002018181525050615d26836014601a8110615cf557615cf4616cc0565b5b6020020151615d21836102000151615d1c856101c00151615d178a60256162a5565b612bd2565b612b5a565b612b96565b836014601a8110615d3a57615d39616cc0565b5b602002018181525050615d8b836015601a8110615d5a57615d59616cc0565b5b6020020151615d86836102000151615d81856101e00151615d7c8a60266162a5565b612bd2565b612b5a565b612b96565b836015601a8110615d9f57615d9e616cc0565b5b60200201818152505050505050565b615db6616977565b60006040518060800160405280615dec7f10dc6e9c006ea38b04b1e03b4bd9490c0d03f98929ca1d7fb56821fd19d3b6e7612b25565b8152602001615e1a7f0c28145b6a44df3e0149b3d0a30b3bb599df9756d4dd9b84a86b38cfb45a740b612b25565b8152602001615e477e544b8338791518b2c7645a50392798b21f75bb60e3596170067d00141cac15612b25565b8152602001615e757f222c01175718386f2e2e82eb122789e352e105a3b8fa852613bc534433ee428b612b25565b8152509050615e98615e8886601b6162a5565b615e938760026162a5565b612b96565b82610120018181525050615ee0615ed5615eca615ebf856101200151866101200151612b5a565b856101200151612b5a565b846101200151612b5a565b836101200151612b5a565b826000018181525050615ef485601c6162a5565b826020018181525050615f0885601d6162a5565b826040018181525050615f1c85601e6162a5565b826060018181525050615f51615f47615f3d84600001518560200151612b96565b8460400151612b96565b8360600151612b96565b826080018181525050615f6e615f6886600c6162a5565b84612b5a565b82610140018181525050615fab615fa1836000015183600060048110615f9757615f96616cc0565b5b6020020151612b5a565b8360800151612b96565b8260a0018181525050615ffb846016601a8110615fcb57615fca616cc0565b5b6020020151615ff6846101400151615ff18660a00151615fec8b60236162a5565b612bd2565b612b5a565b612b96565b846016601a811061600f5761600e616cc0565b5b60200201818152505061604b61604183602001518360016004811061603757616036616cc0565b5b6020020151612b5a565b8360800151612b96565b8260c001818152505061609b846017601a811061606b5761606a616cc0565b5b60200201516160968461014001516160918660c0015161608c8b60246162a5565b612bd2565b612b5a565b612b96565b846017601a81106160af576160ae616cc0565b5b6020020181815250506160eb6160e18360400151836002600481106160d7576160d6616cc0565b5b6020020151612b5a565b8360800151612b96565b8260e001818152505061613b846018601a811061610b5761610a616cc0565b5b60200201516161368461014001516161318660e0015161612c8b60256162a5565b612bd2565b612b5a565b612b96565b846018601a811061614f5761614e616cc0565b5b60200201818152505061618b61618183606001518360036004811061617757616176616cc0565b5b6020020151612b5a565b8360800151612b96565b826101000181815250506161dd846019601a81106161ac576161ab616cc0565b5b60200201516161d88461014001516161d38661010001516161ce8b60266162a5565b612bd2565b612b5a565b612b96565b846019601a81106161f1576161f0616cc0565b5b6020020181815250505050505050565b600061622581846000601a811061621b5761621a616cc0565b5b6020020151612b96565b90506000600190505b601a811015616291576162848261627f8684601a811061625157616250616cc0565b5b6020020151866001866162649190616cef565b6019811061627557616274616cc0565b5b6020020151612b5a565b612b96565b915080600101905061622e565b5092915050565b60008160001b9050919050565b6000828260278111156162bb576162ba61774e565b5b602881106162cc576162cb616cc0565b5b6020020151905092915050565b604051806103c001604052806000815260200160008152602001600081526020016163026167d2565b815260200161630f6167d2565b815260200161631c6167d2565b81526020016163296167d2565b81526020016163366167d2565b81526020016163436167d2565b81526020016163506167d2565b815260200161635d6167d2565b815260200161636a6167d2565b81526020016163776167d2565b81526020016163846167d2565b81526020016163916167d2565b815260200161639e6167d2565b81526020016163ab6167d2565b81526020016163b86167d2565b81526020016163c56167d2565b81526020016163d26167d2565b81526020016163df6167d2565b81526020016163ec6167d2565b81526020016163f96167d2565b81526020016164066167d2565b81526020016164136167d2565b81526020016164206167d2565b815260200161642d6167d2565b815260200161643a6167d2565b81526020016164476167d2565b81526020016164546167d2565b81525090565b604051806101c0016040528061646e616617565b815260200161647b616617565b8152602001616488616617565b8152602001616495616617565b81526020016164a2616617565b81526020016164af616617565b81526020016164bc616617565b81526020016164c9616617565b81526020016164d66169d1565b81526020016164e36169ff565b81526020016164f0616a22565b81526020016164fd6166bb565b815260200161650a616617565b8152602001616517616617565b81525090565b60405180610100016040528061653161663f565b815260200161653e616675565b815260200161654b6166bb565b81526020016165586166bb565b8152602001600081526020016000815260200160008152602001600081525090565b6040518061012001604052806000815260200160008152602001600081526020016000815260200160008152602001600081526020016000815260200160008152602001600081525090565b604051806108c00160405280604690602082028036833780820191505090505090565b604051806108c001604052806046905b6166016167d2565b8152602001906001900390816165f95790505090565b6040518060800160405280600081526020016000815260200160008152602001600081525090565b6040518060c001604052806000815260200160008152602001600081526020016000815260200160008152602001600081525090565b604051806103200160405280601990602082028036833780820191505090505090565b604051806101200160405280600990602082028036833780820191505090505090565b604051806103800160405280601c90602082028036833780820191505090505090565b604051806101200160405280600990602082028036833780820191505090505090565b604051806105200160405280602990602082028036833780820191505090505090565b60405180610da00160405280606d90602082028036833780820191505090505090565b604051806103a00160405280601d90602082028036833780820191505090505090565b6040518060a00160405280600590602082028036833780820191505090505090565b604051806101000160405280600890602082028036833780820191505090505090565b604051806103400160405280601a90602082028036833780820191505090505090565b604051806040016040528060008152602001600081525090565b604051806101a00160405280600d90602082028036833780820191505090505090565b6040518060e00160405280600081526020016000815260200160008152602001600081526020016000815260200160008152602001600081525090565b604051806102c00160405280600081526020016000815260200160008152602001600081526020016000815260200160008152602001600081526020016000815260200160008152602001600081526020016000815260200160008152602001600081526020016000815260200160008152602001600081526020016000815260200160008152602001600081526020016000815260200160008152602001600081525090565b60405180610220016040528060008152602001600081526020016000815260200160008152602001600081526020016000815260200160008152602001600081526020016000815260200160008152602001600081526020016000815260200160008152602001600081526020016000815260200160008152602001600081525090565b60405180610160016040528060008152602001600081526020016000815260200160008152602001600081526020016000815260200160008152602001600081526020016000815260200160008152602001600081525090565b604051806103800160405280601c905b6169e961678c565b8152602001906001900390816169e15790505090565b604051806105000160405280602890602082028036833780820191505090505090565b604051806103600160405280601b905b616a3a616617565b815260200190600190039081616a325790505090565b600080fd5b600080fd5b600080fd5b600080fd5b600080fd5b60008083601f840112616a7f57616a7e616a5a565b5b8235905067ffffffffffffffff811115616a9c57616a9b616a5f565b5b602083019150836001820283011115616ab857616ab7616a64565b5b9250929050565b60008083601f840112616ad557616ad4616a5a565b5b8235905067ffffffffffffffff811115616af257616af1616a5f565b5b602083019150836020820283011115616b0e57616b0d616a64565b5b9250929050565b60008060008060408587031215616b2f57616b2e616a50565b5b600085013567ffffffffffffffff811115616b4d57616b4c616a55565b5b616b5987828801616a69565b9450945050602085013567ffffffffffffffff811115616b7c57616b7b616a55565b5b616b8887828801616abf565b925092505092959194509250565b60008115159050919050565b616bab81616b96565b82525050565b6000602082019050616bc66000830184616ba2565b92915050565b6000819050919050565b7f4e487b7100000000000000000000000000000000000000000000000000000000600052601160045260246000fd5b6000616c1082616bcc565b9150616c1b83616bcc565b9250828202616c2981616bcc565b91508282048414831517616c4057616c3f616bd6565b5b5092915050565b600080fd5b600080fd5b60008085851115616c6557616c64616c47565b5b83861115616c7657616c75616c4c565b5b6001850283019150848603905094509492505050565b6000616c9782616bcc565b9150616ca283616bcc565b9250828201905080821115616cba57616cb9616bd6565b5b92915050565b7f4e487b7100000000000000000000000000000000000000000000000000000000600052603260045260246000fd5b6000616cfa82616bcc565b9150616d0583616bcc565b9250828203905081811115616d1d57616d1c616bd6565b5b92915050565b6000616d2e82616bcc565b91507fffffffffffffffffffffffffffffffffffffffffffffffffffffffffffffffff8203616d6057616d5f616bd6565b5b600182019050919050565b600082825260208201905092915050565b7f696e76616c696420627974657320706f696e7400000000000000000000000000600082015250565b6000616db2601383616d6b565b9150616dbd82616d7c565b602082019050919050565b60006020820190508181036000830152616de181616da5565b9050919050565b600082905092915050565b6000819050919050565b600082821b905092915050565b6000616e168383616de8565b82616e218135616df3565b92506020821015616e6157616e5c7fffffffffffffffffffffffffffffffffffffffffffffffffffffffffffffffff83602003600802616dfd565b831692505b505092915050565b7f696e76616c6964206279746573207363616c6172000000000000000000000000600082015250565b6000616e9f601483616d6b565b9150616eaa82616e69565b602082019050919050565b60006020820190508181036000830152616ece81616e92565b9050919050565b600060099050919050565b600081905092915050565b6000819050919050565b616efe81616bcc565b82525050565b6000616f108383616ef5565b60208301905092915050565b6000602082019050919050565b616f3281616ed5565b616f3c8184616ee0565b9250616f4782616eeb565b8060005b83811015616f78578151616f5f8782616f04565b9650616f6a83616f1c565b925050600181019050616f4b565b505050505050565b6000616f8c8284616f29565b6101208201915081905092915050565b7f4e487b7100000000000000000000000000000000000000000000000000000000600052601260045260246000fd5b6000616fd682616bcc565b9150616fe183616bcc565b925082616ff157616ff0616f9c565b5b828204905092915050565b6000819050919050565b61701761701282616bcc565b616ffc565b82525050565b60006170298284617006565b60208201915081905092915050565b600060099050919050565b6000819050919050565b6000819050919050565b600061707261706d61706884616bcc565b61704d565b616bcc565b9050919050565b61708281617057565b82525050565b60006170948383617079565b60208301905092915050565b6000602082019050919050565b6170b681617038565b6170c08184616ee0565b92506170cb82617043565b8060005b838110156170fc5781516170e38782617088565b96506170ee836170a0565b9250506001810190506170cf565b505050505050565b600061711082846170ad565b6101208201915081905092915050565b600060299050919050565b600081905092915050565b6000819050919050565b6000602082019050919050565b61715681617120565b617160818461712b565b925061716b82617136565b8060005b8381101561719c5781516171838782617088565b965061718e83617140565b92505060018101905061716f565b505050505050565b60006171b0828461714d565b6105208201915081905092915050565b6000606d9050919050565b600081905092915050565b6000819050919050565b6000602082019050919050565b6171f6816171c0565b61720081846171cb565b925061720b826171d6565b8060005b8381101561723c5781516172238782616f04565b965061722e836171e0565b92505060018101905061720f565b505050505050565b600061725082846171ed565b610da08201915081905092915050565b6000601d9050919050565b600081905092915050565b6000819050919050565b6000602082019050919050565b61729681617260565b6172a0818461726b565b92506172ab82617276565b8060005b838110156172dc5781516172c38782616f04565b96506172ce83617280565b9250506001810190506172af565b505050505050565b60006172f0828461728d565b6103a08201915081905092915050565b600060059050919050565b600081905092915050565b6000819050919050565b6000602082019050919050565b61733681617300565b617340818461730b565b925061734b82617316565b8060005b8381101561737c5781516173638782616f04565b965061736e83617320565b92505060018101905061734f565b505050505050565b6000617390828461732d565b60a08201915081905092915050565b60006173aa82616bcc565b91506173b583616bcc565b9250826173c5576173c4616f9c565b5b828206905092915050565b60006173db82616bcc565b9150600082036173ee576173ed616bd6565b5b600182039050919050565b6000617405828f617006565b602082019150617415828e617006565b602082019150617425828d617006565b602082019150617435828c617006565b602082019150617445828b617006565b602082019150617455828a617006565b6020820191506174658289617006565b6020820191506174758288617006565b6020820191506174858287617006565b6020820191506174958286617006565b6020820191506174a58285617006565b6020820191506174b58284617006565b6020820191508190509d9c50505050505050505050505050565b600081519050919050565b600081905092915050565b60005b838110156175035780820151818401526020810190506174e8565b60008484015250505050565b600061751a826174cf565b61752481856174da565b93506175348185602086016174e5565b80840191505092915050565b600061754c828461750f565b915081905092915050565b61756081616b96565b811461756b57600080fd5b50565b60008151905061757d81617557565b92915050565b60006020828403121561759957617598616a50565b5b60006175a78482850161756e565b91505092915050565b7f4e487b7100000000000000000000000000000000000000000000000000000000600052604160045260246000fd5b600081519050919050565b600081905092915050565b6000819050602082019050919050565b61760e81616df3565b82525050565b60006176208383617605565b60208301905092915050565b6000602082019050919050565b6000617644826175df565b61764e81856175ea565b9350617659836175f5565b8060005b8381101561768a5781516176718882617614565b975061767c8361762c565b92505060018101905061765d565b5085935050505092915050565b60006176a38284617639565b915081905092915050565b6000600d9050919050565b600081905092915050565b6000819050919050565b6000602082019050919050565b6176e4816176ae565b6176ee81846176b9565b92506176f9826176c4565b8060005b8381101561772a5781516177118782617614565b965061771c836176ce565b9250506001810190506176fd565b505050505050565b600061773e82846176db565b6101a08201915081905092915050565b7f4e487b7100000000000000000000000000000000000000000000000000000000600052602160045260246000fdfea2646970667358221220430a486cf32c28d8b001c73948ecd4bf6decded457ea468d30853d0aa23e208b64736f6c634300081c0033","opcodes":"PUSH1 0x80 PUSH1 0x40 MSTORE PUSH1 0x40 MLOAD PUSH2 0x10 SWAP1 PUSH2 0xE1 JUMP JUMPDEST PUSH1 0x40 MLOAD DUP1 SWAP2 SUB SWAP1 PUSH1 0x0 CREATE DUP1 ISZERO DUP1 ISZERO PUSH2 0x2C JUMPI RETURNDATASIZE PUSH1 0x0 DUP1 RETURNDATACOPY RETURNDATASIZE PUSH1 0x0 REVERT JUMPDEST POP PUSH1 0x0 DUP1 PUSH2 0x100 EXP DUP2 SLOAD DUP2 PUSH20 0xFFFFFFFFFFFFFFFFFFFFFFFFFFFFFFFFFFFFFFFF MUL NOT AND SWAP1 DUP4 PUSH20 0xFFFFFFFFFFFFFFFFFFFFFFFFFFFFFFFFFFFFFFFF AND MUL OR SWAP1 SSTORE POP CALLVALUE DUP1 ISZERO PUSH2 0x78 JUMPI PUSH1 0x0 DUP1 REVERT JUMPDEST POP PUSH1 0x40 MLOAD PUSH2 0x8853 CODESIZE SUB DUP1 PUSH2 0x8853 DUP4 CODECOPY DUP2 DUP2 ADD PUSH1 0x40 MSTORE DUP2 ADD SWAP1 PUSH2 0x9A SWAP2 SWAP1 PUSH2 0x151 JUMP JUMPDEST DUP1 PUSH1 0x1 PUSH1 0x0 PUSH2 0x100 EXP DUP2 SLOAD DUP2 PUSH20 0xFFFFFFFFFFFFFFFFFFFFFFFFFFFFFFFFFFFFFFFF MUL NOT AND SWAP1 DUP4 PUSH20 0xFFFFFFFFFFFFFFFFFFFFFFFFFFFFFFFFFFFFFFFF AND MUL OR SWAP1 SSTORE POP POP PUSH2 0x17E JUMP JUMPDEST PUSH2 0x7824 DUP1 PUSH2 0x102F DUP4 CODECOPY ADD SWAP1 JUMP JUMPDEST PUSH1 0x0 DUP1 REVERT JUMPDEST PUSH1 0x0 PUSH20 0xFFFFFFFFFFFFFFFFFFFFFFFFFFFFFFFFFFFFFFFF DUP3 AND SWAP1 POP SWAP2 SWAP1 POP JUMP JUMPDEST PUSH1 0x0 PUSH2 0x11E DUP3 PUSH2 0xF3 JUMP JUMPDEST SWAP1 POP SWAP2 SWAP1 POP JUMP JUMPDEST PUSH2 0x12E DUP2 PUSH2 0x113 JUMP JUMPDEST DUP2 EQ PUSH2 0x139 JUMPI PUSH1 0x0 DUP1 REVERT JUMPDEST POP JUMP JUMPDEST PUSH1 0x0 DUP2 MLOAD SWAP1 POP PUSH2 0x14B DUP2 PUSH2 0x125 JUMP JUMPDEST SWAP3 SWAP2 POP POP JUMP JUMPDEST PUSH1 0x0 PUSH1 0x20 DUP3 DUP5 SUB SLT ISZERO PUSH2 0x167 JUMPI PUSH2 0x166 PUSH2 0xEE JUMP JUMPDEST JUMPDEST PUSH1 0x0 PUSH2 0x175 DUP5 DUP3 DUP6 ADD PUSH2 0x13C JUMP JUMPDEST SWAP2 POP POP SWAP3 SWAP2 POP POP JUMP JUMPDEST PUSH2 0xEA2 DUP1 PUSH2 0x18D PUSH1 0x0 CODECOPY PUSH1 0x0 RETURN INVALID PUSH1 0x80 PUSH1 0x40 MSTORE CALLVALUE DUP1 ISZERO PUSH2 0x10 JUMPI PUSH1 0x0 DUP1 REVERT JUMPDEST POP PUSH1 0x4 CALLDATASIZE LT PUSH2 0x57 JUMPI PUSH1 0x0 CALLDATALOAD PUSH1 0xE0 SHR DUP1 PUSH4 0x2B7AC3F3 EQ PUSH2 0x5C JUMPI DUP1 PUSH4 0x3013CE29 EQ PUSH2 0x7A JUMPI DUP1 PUSH4 0x4C674934 EQ PUSH2 0x98 JUMPI DUP1 PUSH4 0x72236B82 EQ PUSH2 0xB4 JUMPI DUP1 PUSH4 0xE2BBB158 EQ PUSH2 0xE5 JUMPI JUMPDEST PUSH1 0x0 DUP1 REVERT JUMPDEST PUSH2 0x64 PUSH2 0x101 JUMP JUMPDEST PUSH1 0x40 MLOAD PUSH2 0x71 SWAP2 SWAP1 PUSH2 0x6D1 JUMP JUMPDEST PUSH1 0x40 MLOAD DUP1 SWAP2 SUB SWAP1 RETURN JUMPDEST PUSH2 0x82 PUSH2 0x125 JUMP JUMPDEST PUSH1 0x40 MLOAD PUSH2 0x8F SWAP2 SWAP1 PUSH2 0x70D JUMP JUMPDEST PUSH1 0x40 MLOAD DUP1 SWAP2 SUB SWAP1 RETURN JUMPDEST PUSH2 0xB2 PUSH1 0x4 DUP1 CALLDATASIZE SUB DUP2 ADD SWAP1 PUSH2 0xAD SWAP2 SWAP1 PUSH2 0x7F9 JUMP JUMPDEST PUSH2 0x14B JUMP JUMPDEST STOP JUMPDEST PUSH2 0xCE PUSH1 0x4 DUP1 CALLDATASIZE SUB DUP2 ADD SWAP1 PUSH2 0xC9 SWAP2 SWAP1 PUSH2 0x881 JUMP JUMPDEST PUSH2 0x491 JUMP JUMPDEST PUSH1 0x40 MLOAD PUSH2 0xDC SWAP3 SWAP2 SWAP1 PUSH2 0x8BD JUMP JUMPDEST PUSH1 0x40 MLOAD DUP1 SWAP2 SUB SWAP1 RETURN JUMPDEST PUSH2 0xFF PUSH1 0x4 DUP1 CALLDATASIZE SUB DUP2 ADD SWAP1 PUSH2 0xFA SWAP2 SWAP1 PUSH2 0x8E6 JUMP JUMPDEST PUSH2 0x4B5 JUMP JUMPDEST STOP JUMPDEST PUSH1 0x0 DUP1 SLOAD SWAP1 PUSH2 0x100 EXP SWAP1 DIV PUSH20 0xFFFFFFFFFFFFFFFFFFFFFFFFFFFFFFFFFFFFFFFF AND DUP2 JUMP JUMPDEST PUSH1 0x1 PUSH1 0x0 SWAP1 SLOAD SWAP1 PUSH2 0x100 EXP SWAP1 DIV PUSH20 0xFFFFFFFFFFFFFFFFFFFFFFFFFFFFFFFFFFFFFFFF AND DUP2 JUMP JUMPDEST PUSH1 0x0 PUSH1 0x2 PUSH8 0xFFFFFFFFFFFFFFFF DUP2 GT ISZERO PUSH2 0x168 JUMPI PUSH2 0x167 PUSH2 0x926 JUMP JUMPDEST JUMPDEST PUSH1 0x40 MLOAD SWAP1 DUP1 DUP3 MSTORE DUP1 PUSH1 0x20 MUL PUSH1 0x20 ADD DUP3 ADD PUSH1 0x40 MSTORE DUP1 ISZERO PUSH2 0x196 JUMPI DUP2 PUSH1 0x20 ADD PUSH1 0x20 DUP3 MUL DUP1 CALLDATASIZE DUP4 CALLDATACOPY DUP1 DUP3 ADD SWAP2 POP POP SWAP1 POP JUMPDEST POP SWAP1 POP DUP3 PUSH1 0x0 SHL DUP2 PUSH1 0x0 DUP2 MLOAD DUP2 LT PUSH2 0x1B1 JUMPI PUSH2 0x1B0 PUSH2 0x955 JUMP JUMPDEST JUMPDEST PUSH1 0x20 MUL PUSH1 0x20 ADD ADD DUP2 DUP2 MSTORE POP POP DUP4 PUSH1 0x0 SHL DUP2 PUSH1 0x1 DUP2 MLOAD DUP2 LT PUSH2 0x1D5 JUMPI PUSH2 0x1D4 PUSH2 0x955 JUMP JUMPDEST JUMPDEST PUSH1 0x20 MUL PUSH1 0x20 ADD ADD DUP2 DUP2 MSTORE POP POP PUSH1 0x0 DUP1 SLOAD SWAP1 PUSH2 0x100 EXP SWAP1 DIV PUSH20 0xFFFFFFFFFFFFFFFFFFFFFFFFFFFFFFFFFFFFFFFF AND PUSH20 0xFFFFFFFFFFFFFFFFFFFFFFFFFFFFFFFFFFFFFFFF AND PUSH4 0xEA50D0E4 DUP8 DUP8 DUP5 PUSH1 0x40 MLOAD DUP5 PUSH4 0xFFFFFFFF AND PUSH1 0xE0 SHL DUP2 MSTORE PUSH1 0x4 ADD PUSH2 0x23E SWAP4 SWAP3 SWAP2 SWAP1 PUSH2 0xAAA JUMP JUMPDEST PUSH1 0x20 PUSH1 0x40 MLOAD DUP1 DUP4 SUB DUP2 DUP7 GAS STATICCALL ISZERO DUP1 ISZERO PUSH2 0x25B JUMPI RETURNDATASIZE PUSH1 0x0 DUP1 RETURNDATACOPY RETURNDATASIZE PUSH1 0x0 REVERT JUMPDEST POP POP POP POP PUSH1 0x40 MLOAD RETURNDATASIZE PUSH1 0x1F NOT PUSH1 0x1F DUP3 ADD AND DUP3 ADD DUP1 PUSH1 0x40 MSTORE POP DUP2 ADD SWAP1 PUSH2 0x27F SWAP2 SWAP1 PUSH2 0xB1B JUMP JUMPDEST PUSH2 0x2BE JUMPI PUSH1 0x40 MLOAD PUSH32 0x8C379A000000000000000000000000000000000000000000000000000000000 DUP2 MSTORE PUSH1 0x4 ADD PUSH2 0x2B5 SWAP1 PUSH2 0xBA5 JUMP JUMPDEST PUSH1 0x40 MLOAD DUP1 SWAP2 SUB SWAP1 REVERT JUMPDEST PUSH1 0x0 PUSH1 0x2 PUSH1 0x0 DUP5 PUSH20 0xFFFFFFFFFFFFFFFFFFFFFFFFFFFFFFFFFFFFFFFF AND PUSH20 0xFFFFFFFFFFFFFFFFFFFFFFFFFFFFFFFFFFFFFFFF AND DUP2 MSTORE PUSH1 0x20 ADD SWAP1 DUP2 MSTORE PUSH1 0x20 ADD PUSH1 0x0 KECCAK256 SWAP1 POP DUP5 DUP2 PUSH1 0x0 ADD SLOAD LT ISZERO PUSH2 0x348 JUMPI PUSH1 0x40 MLOAD PUSH32 0x8C379A000000000000000000000000000000000000000000000000000000000 DUP2 MSTORE PUSH1 0x4 ADD PUSH2 0x33F SWAP1 PUSH2 0xC11 JUMP JUMPDEST PUSH1 0x40 MLOAD DUP1 SWAP2 SUB SWAP1 REVERT JUMPDEST DUP4 DUP2 PUSH1 0x1 ADD SLOAD EQ PUSH2 0x38E JUMPI PUSH1 0x40 MLOAD PUSH32 0x8C379A000000000000000000000000000000000000000000000000000000000 DUP2 MSTORE PUSH1 0x4 ADD PUSH2 0x385 SWAP1 PUSH2 0xC7D JUMP JUMPDEST PUSH1 0x40 MLOAD DUP1 SWAP2 SUB SWAP1 REVERT JUMPDEST DUP5 DUP2 PUSH1 0x0 ADD PUSH1 0x0 DUP3 DUP3 SLOAD PUSH2 0x3A2 SWAP2 SWAP1 PUSH2 0xCCC JUMP JUMPDEST SWAP3 POP POP DUP2 SWAP1 SSTORE POP PUSH1 0x1 PUSH1 0x0 SWAP1 SLOAD SWAP1 PUSH2 0x100 EXP SWAP1 DIV PUSH20 0xFFFFFFFFFFFFFFFFFFFFFFFFFFFFFFFFFFFFFFFF AND PUSH20 0xFFFFFFFFFFFFFFFFFFFFFFFFFFFFFFFFFFFFFFFF AND PUSH4 0xA9059CBB CALLER DUP8 PUSH1 0x40 MLOAD DUP4 PUSH4 0xFFFFFFFF AND PUSH1 0xE0 SHL DUP2 MSTORE PUSH1 0x4 ADD PUSH2 0x406 SWAP3 SWAP2 SWAP1 PUSH2 0xD00 JUMP JUMPDEST PUSH1 0x20 PUSH1 0x40 MLOAD DUP1 DUP4 SUB DUP2 PUSH1 0x0 DUP8 GAS CALL ISZERO DUP1 ISZERO PUSH2 0x425 JUMPI RETURNDATASIZE PUSH1 0x0 DUP1 RETURNDATACOPY RETURNDATASIZE PUSH1 0x0 REVERT JUMPDEST POP POP POP POP PUSH1 0x40 MLOAD RETURNDATASIZE PUSH1 0x1F NOT PUSH1 0x1F DUP3 ADD AND DUP3 ADD DUP1 PUSH1 0x40 MSTORE POP DUP2 ADD SWAP1 PUSH2 0x449 SWAP2 SWAP1 PUSH2 0xB1B JUMP JUMPDEST PUSH2 0x488 JUMPI PUSH1 0x40 MLOAD PUSH32 0x8C379A000000000000000000000000000000000000000000000000000000000 DUP2 MSTORE PUSH1 0x4 ADD PUSH2 0x47F SWAP1 PUSH2 0xD75 JUMP JUMPDEST PUSH1 0x40 MLOAD DUP1 SWAP2 SUB SWAP1 REVERT JUMPDEST POP POP POP POP POP POP POP JUMP JUMPDEST PUSH1 0x2 PUSH1 0x20 MSTORE DUP1 PUSH1 0x0 MSTORE PUSH1 0x40 PUSH1 0x0 KECCAK256 PUSH1 0x0 SWAP2 POP SWAP1 POP DUP1 PUSH1 0x0 ADD SLOAD SWAP1 DUP1 PUSH1 0x1 ADD SLOAD SWAP1 POP DUP3 JUMP JUMPDEST PUSH1 0x0 DUP3 GT PUSH2 0x4F8 JUMPI PUSH1 0x40 MLOAD PUSH32 0x8C379A000000000000000000000000000000000000000000000000000000000 DUP2 MSTORE PUSH1 0x4 ADD PUSH2 0x4EF SWAP1 PUSH2 0xDE1 JUMP JUMPDEST PUSH1 0x40 MLOAD DUP1 SWAP2 SUB SWAP1 REVERT JUMPDEST PUSH1 0x1 PUSH1 0x0 SWAP1 SLOAD SWAP1 PUSH2 0x100 EXP SWAP1 DIV PUSH20 0xFFFFFFFFFFFFFFFFFFFFFFFFFFFFFFFFFFFFFFFF AND PUSH20 0xFFFFFFFFFFFFFFFFFFFFFFFFFFFFFFFFFFFFFFFF AND PUSH4 0x23B872DD CALLER ADDRESS DUP6 PUSH1 0x40 MLOAD DUP5 PUSH4 0xFFFFFFFF AND PUSH1 0xE0 SHL DUP2 MSTORE PUSH1 0x4 ADD PUSH2 0x557 SWAP4 SWAP3 SWAP2 SWAP1 PUSH2 0xE01 JUMP JUMPDEST PUSH1 0x20 PUSH1 0x40 MLOAD DUP1 DUP4 SUB DUP2 PUSH1 0x0 DUP8 GAS CALL ISZERO DUP1 ISZERO PUSH2 0x576 JUMPI RETURNDATASIZE PUSH1 0x0 DUP1 RETURNDATACOPY RETURNDATASIZE PUSH1 0x0 REVERT JUMPDEST POP POP POP POP PUSH1 0x40 MLOAD RETURNDATASIZE PUSH1 0x1F NOT PUSH1 0x1F DUP3 ADD AND DUP3 ADD DUP1 PUSH1 0x40 MSTORE POP DUP2 ADD SWAP1 PUSH2 0x59A SWAP2 SWAP1 PUSH2 0xB1B JUMP JUMPDEST PUSH2 0x5D9 JUMPI PUSH1 0x40 MLOAD PUSH32 0x8C379A000000000000000000000000000000000000000000000000000000000 DUP2 MSTORE PUSH1 0x4 ADD PUSH2 0x5D0 SWAP1 PUSH2 0xD75 JUMP JUMPDEST PUSH1 0x40 MLOAD DUP1 SWAP2 SUB SWAP1 REVERT JUMPDEST PUSH1 0x0 PUSH1 0x2 PUSH1 0x0 CALLER PUSH20 0xFFFFFFFFFFFFFFFFFFFFFFFFFFFFFFFFFFFFFFFF AND PUSH20 0xFFFFFFFFFFFFFFFFFFFFFFFFFFFFFFFFFFFFFFFF AND DUP2 MSTORE PUSH1 0x20 ADD SWAP1 DUP2 MSTORE PUSH1 0x20 ADD PUSH1 0x0 KECCAK256 SWAP1 POP PUSH1 0x0 DUP2 PUSH1 0x1 ADD SLOAD SUB PUSH2 0x632 JUMPI DUP2 DUP2 PUSH1 0x1 ADD DUP2 SWAP1 SSTORE POP JUMPDEST DUP3 DUP2 PUSH1 0x0 ADD PUSH1 0x0 DUP3 DUP3 SLOAD PUSH2 0x646 SWAP2 SWAP1 PUSH2 0xE38 JUMP JUMPDEST SWAP3 POP POP DUP2 SWAP1 SSTORE POP POP POP POP JUMP JUMPDEST PUSH1 0x0 PUSH20 0xFFFFFFFFFFFFFFFFFFFFFFFFFFFFFFFFFFFFFFFF DUP3 AND SWAP1 POP SWAP2 SWAP1 POP JUMP JUMPDEST PUSH1 0x0 DUP2 SWAP1 POP SWAP2 SWAP1 POP JUMP JUMPDEST PUSH1 0x0 PUSH2 0x697 PUSH2 0x692 PUSH2 0x68D DUP5 PUSH2 0x652 JUMP JUMPDEST PUSH2 0x672 JUMP JUMPDEST PUSH2 0x652 JUMP JUMPDEST SWAP1 POP SWAP2 SWAP1 POP JUMP JUMPDEST PUSH1 0x0 PUSH2 0x6A9 DUP3 PUSH2 0x67C JUMP JUMPDEST SWAP1 POP SWAP2 SWAP1 POP JUMP JUMPDEST PUSH1 0x0 PUSH2 0x6BB DUP3 PUSH2 0x69E JUMP JUMPDEST SWAP1 POP SWAP2 SWAP1 POP JUMP JUMPDEST PUSH2 0x6CB DUP2 PUSH2 0x6B0 JUMP JUMPDEST DUP3 MSTORE POP POP JUMP JUMPDEST PUSH1 0x0 PUSH1 0x20 DUP3 ADD SWAP1 POP PUSH2 0x6E6 PUSH1 0x0 DUP4 ADD DUP5 PUSH2 0x6C2 JUMP JUMPDEST SWAP3 SWAP2 POP POP JUMP JUMPDEST PUSH1 0x0 PUSH2 0x6F7 DUP3 PUSH2 0x652 JUMP JUMPDEST SWAP1 POP SWAP2 SWAP1 POP JUMP JUMPDEST PUSH2 0x707 DUP2 PUSH2 0x6EC JUMP JUMPDEST DUP3 MSTORE POP POP JUMP JUMPDEST PUSH1 0x0 PUSH1 0x20 DUP3 ADD SWAP1 POP PUSH2 0x722 PUSH1 0x0 DUP4 ADD DUP5 PUSH2 0x6FE JUMP JUMPDEST SWAP3 SWAP2 POP POP JUMP JUMPDEST PUSH1 0x0 DUP1 REVERT JUMPDEST PUSH1 0x0 DUP1 REVERT JUMPDEST PUSH1 0x0 DUP1 REVERT JUMPDEST PUSH1 0x0 DUP1 REVERT JUMPDEST PUSH1 0x0 DUP1 REVERT JUMPDEST PUSH1 0x0 DUP1 DUP4 PUSH1 0x1F DUP5 ADD SLT PUSH2 0x757 JUMPI PUSH2 0x756 PUSH2 0x732 JUMP JUMPDEST JUMPDEST DUP3 CALLDATALOAD SWAP1 POP PUSH8 0xFFFFFFFFFFFFFFFF DUP2 GT ISZERO PUSH2 0x774 JUMPI PUSH2 0x773 PUSH2 0x737 JUMP JUMPDEST JUMPDEST PUSH1 0x20 DUP4 ADD SWAP2 POP DUP4 PUSH1 0x1 DUP3 MUL DUP4 ADD GT ISZERO PUSH2 0x790 JUMPI PUSH2 0x78F PUSH2 0x73C JUMP JUMPDEST JUMPDEST SWAP3 POP SWAP3 SWAP1 POP JUMP JUMPDEST PUSH1 0x0 DUP2 SWAP1 POP SWAP2 SWAP1 POP JUMP JUMPDEST PUSH2 0x7AA DUP2 PUSH2 0x797 JUMP JUMPDEST DUP2 EQ PUSH2 0x7B5 JUMPI PUSH1 0x0 DUP1 REVERT JUMPDEST POP JUMP JUMPDEST PUSH1 0x0 DUP2 CALLDATALOAD SWAP1 POP PUSH2 0x7C7 DUP2 PUSH2 0x7A1 JUMP JUMPDEST SWAP3 SWAP2 POP POP JUMP JUMPDEST PUSH2 0x7D6 DUP2 PUSH2 0x6EC JUMP JUMPDEST DUP2 EQ PUSH2 0x7E1 JUMPI PUSH1 0x0 DUP1 REVERT JUMPDEST POP JUMP JUMPDEST PUSH1 0x0 DUP2 CALLDATALOAD SWAP1 POP PUSH2 0x7F3 DUP2 PUSH2 0x7CD JUMP JUMPDEST SWAP3 SWAP2 POP POP JUMP JUMPDEST PUSH1 0x0 DUP1 PUSH1 0x0 DUP1 PUSH1 0x0 PUSH1 0x80 DUP7 DUP9 SUB SLT ISZERO PUSH2 0x815 JUMPI PUSH2 0x814 PUSH2 0x728 JUMP JUMPDEST JUMPDEST PUSH1 0x0 DUP7 ADD CALLDATALOAD PUSH8 0xFFFFFFFFFFFFFFFF DUP2 GT ISZERO PUSH2 0x833 JUMPI PUSH2 0x832 PUSH2 0x72D JUMP JUMPDEST JUMPDEST PUSH2 0x83F DUP9 DUP3 DUP10 ADD PUSH2 0x741 JUMP JUMPDEST SWAP6 POP SWAP6 POP POP PUSH1 0x20 PUSH2 0x852 DUP9 DUP3 DUP10 ADD PUSH2 0x7B8 JUMP JUMPDEST SWAP4 POP POP PUSH1 0x40 PUSH2 0x863 DUP9 DUP3 DUP10 ADD PUSH2 0x7B8 JUMP JUMPDEST SWAP3 POP POP PUSH1 0x60 PUSH2 0x874 DUP9 DUP3 DUP10 ADD PUSH2 0x7E4 JUMP JUMPDEST SWAP2 POP POP SWAP3 SWAP6 POP SWAP3 SWAP6 SWAP1 SWAP4 POP JUMP JUMPDEST PUSH1 0x0 PUSH1 0x20 DUP3 DUP5 SUB SLT ISZERO PUSH2 0x897 JUMPI PUSH2 0x896 PUSH2 0x728 JUMP JUMPDEST JUMPDEST PUSH1 0x0 PUSH2 0x8A5 DUP5 DUP3 DUP6 ADD PUSH2 0x7E4 JUMP JUMPDEST SWAP2 POP POP SWAP3 SWAP2 POP POP JUMP JUMPDEST PUSH2 0x8B7 DUP2 PUSH2 0x797 JUMP JUMPDEST DUP3 MSTORE POP POP JUMP JUMPDEST PUSH1 0x0 PUSH1 0x40 DUP3 ADD SWAP1 POP PUSH2 0x8D2 PUSH1 0x0 DUP4 ADD DUP6 PUSH2 0x8AE JUMP JUMPDEST PUSH2 0x8DF PUSH1 0x20 DUP4 ADD DUP5 PUSH2 0x8AE JUMP JUMPDEST SWAP4 SWAP3 POP POP POP JUMP JUMPDEST PUSH1 0x0 DUP1 PUSH1 0x40 DUP4 DUP6 SUB SLT ISZERO PUSH2 0x8FD JUMPI PUSH2 0x8FC PUSH2 0x728 JUMP JUMPDEST JUMPDEST PUSH1 0x0 PUSH2 0x90B DUP6 DUP3 DUP7 ADD PUSH2 0x7B8 JUMP JUMPDEST SWAP3 POP POP PUSH1 0x20 PUSH2 0x91C DUP6 DUP3 DUP7 ADD PUSH2 0x7B8 JUMP JUMPDEST SWAP2 POP POP SWAP3 POP SWAP3 SWAP1 POP JUMP JUMPDEST PUSH32 0x4E487B7100000000000000000000000000000000000000000000000000000000 PUSH1 0x0 MSTORE PUSH1 0x41 PUSH1 0x4 MSTORE PUSH1 0x24 PUSH1 0x0 REVERT JUMPDEST PUSH32 0x4E487B7100000000000000000000000000000000000000000000000000000000 PUSH1 0x0 MSTORE PUSH1 0x32 PUSH1 0x4 MSTORE PUSH1 0x24 PUSH1 0x0 REVERT JUMPDEST PUSH1 0x0 DUP3 DUP3 MSTORE PUSH1 0x20 DUP3 ADD SWAP1 POP SWAP3 SWAP2 POP POP JUMP JUMPDEST DUP3 DUP2 DUP4 CALLDATACOPY PUSH1 0x0 DUP4 DUP4 ADD MSTORE POP POP POP JUMP JUMPDEST PUSH1 0x0 PUSH1 0x1F NOT PUSH1 0x1F DUP4 ADD AND SWAP1 POP SWAP2 SWAP1 POP JUMP JUMPDEST PUSH1 0x0 PUSH2 0x9C1 DUP4 DUP6 PUSH2 0x984 JUMP JUMPDEST SWAP4 POP PUSH2 0x9CE DUP4 DUP6 DUP5 PUSH2 0x995 JUMP JUMPDEST PUSH2 0x9D7 DUP4 PUSH2 0x9A4 JUMP JUMPDEST DUP5 ADD SWAP1 POP SWAP4 SWAP3 POP POP POP JUMP JUMPDEST PUSH1 0x0 DUP2 MLOAD SWAP1 POP SWAP2 SWAP1 POP JUMP JUMPDEST PUSH1 0x0 DUP3 DUP3 MSTORE PUSH1 0x20 DUP3 ADD SWAP1 POP SWAP3 SWAP2 POP POP JUMP JUMPDEST PUSH1 0x0 DUP2 SWAP1 POP PUSH1 0x20 DUP3 ADD SWAP1 POP SWAP2 SWAP1 POP JUMP JUMPDEST PUSH1 0x0 DUP2 SWAP1 POP SWAP2 SWAP1 POP JUMP JUMPDEST PUSH2 0xA21 DUP2 PUSH2 0xA0E JUMP JUMPDEST DUP3 MSTORE POP POP JUMP JUMPDEST PUSH1 0x0 PUSH2 0xA33 DUP4 DUP4 PUSH2 0xA18 JUMP JUMPDEST PUSH1 0x20 DUP4 ADD SWAP1 POP SWAP3 SWAP2 POP POP JUMP JUMPDEST PUSH1 0x0 PUSH1 0x20 DUP3 ADD SWAP1 POP SWAP2 SWAP1 POP JUMP JUMPDEST PUSH1 0x0 PUSH2 0xA57 DUP3 PUSH2 0x9E2 JUMP JUMPDEST PUSH2 0xA61 DUP2 DUP6 PUSH2 0x9ED JUMP JUMPDEST SWAP4 POP PUSH2 0xA6C DUP4 PUSH2 0x9FE JUMP JUMPDEST DUP1 PUSH1 0x0 JUMPDEST DUP4 DUP2 LT ISZERO PUSH2 0xA9D JUMPI DUP2 MLOAD PUSH2 0xA84 DUP9 DUP3 PUSH2 0xA27 JUMP JUMPDEST SWAP8 POP PUSH2 0xA8F DUP4 PUSH2 0xA3F JUMP JUMPDEST SWAP3 POP POP PUSH1 0x1 DUP2 ADD SWAP1 POP PUSH2 0xA70 JUMP JUMPDEST POP DUP6 SWAP4 POP POP POP POP SWAP3 SWAP2 POP POP JUMP JUMPDEST PUSH1 0x0 PUSH1 0x40 DUP3 ADD SWAP1 POP DUP2 DUP2 SUB PUSH1 0x0 DUP4 ADD MSTORE PUSH2 0xAC5 DUP2 DUP6 DUP8 PUSH2 0x9B5 JUMP JUMPDEST SWAP1 POP DUP2 DUP2 SUB PUSH1 0x20 DUP4 ADD MSTORE PUSH2 0xAD9 DUP2 DUP5 PUSH2 0xA4C JUMP JUMPDEST SWAP1 POP SWAP5 SWAP4 POP POP POP POP JUMP JUMPDEST PUSH1 0x0 DUP2 ISZERO ISZERO SWAP1 POP SWAP2 SWAP1 POP JUMP JUMPDEST PUSH2 0xAF8 DUP2 PUSH2 0xAE3 JUMP JUMPDEST DUP2 EQ PUSH2 0xB03 JUMPI PUSH1 0x0 DUP1 REVERT JUMPDEST POP JUMP JUMPDEST PUSH1 0x0 DUP2 MLOAD SWAP1 POP PUSH2 0xB15 DUP2 PUSH2 0xAEF JUMP JUMPDEST SWAP3 SWAP2 POP POP JUMP JUMPDEST PUSH1 0x0 PUSH1 0x20 DUP3 DUP5 SUB SLT ISZERO PUSH2 0xB31 JUMPI PUSH2 0xB30 PUSH2 0x728 JUMP JUMPDEST JUMPDEST PUSH1 0x0 PUSH2 0xB3F DUP5 DUP3 DUP6 ADD PUSH2 0xB06 JUMP JUMPDEST SWAP2 POP POP SWAP3 SWAP2 POP POP JUMP JUMPDEST PUSH1 0x0 DUP3 DUP3 MSTORE PUSH1 0x20 DUP3 ADD SWAP1 POP SWAP3 SWAP2 POP POP JUMP JUMPDEST PUSH32 0x496E76616C69642070726F6F6600000000000000000000000000000000000000 PUSH1 0x0 DUP3 ADD MSTORE POP JUMP JUMPDEST PUSH1 0x0 PUSH2 0xB8F PUSH1 0xD DUP4 PUSH2 0xB48 JUMP JUMPDEST SWAP2 POP PUSH2 0xB9A DUP3 PUSH2 0xB59 JUMP JUMPDEST PUSH1 0x20 DUP3 ADD SWAP1 POP SWAP2 SWAP1 POP JUMP JUMPDEST PUSH1 0x0 PUSH1 0x20 DUP3 ADD SWAP1 POP DUP2 DUP2 SUB PUSH1 0x0 DUP4 ADD MSTORE PUSH2 0xBBE DUP2 PUSH2 0xB82 JUMP JUMPDEST SWAP1 POP SWAP2 SWAP1 POP JUMP JUMPDEST PUSH32 0x496E73756666696369656E742062616C616E6365000000000000000000000000 PUSH1 0x0 DUP3 ADD MSTORE POP JUMP JUMPDEST PUSH1 0x0 PUSH2 0xBFB PUSH1 0x14 DUP4 PUSH2 0xB48 JUMP JUMPDEST SWAP2 POP PUSH2 0xC06 DUP3 PUSH2 0xBC5 JUMP JUMPDEST PUSH1 0x20 DUP3 ADD SWAP1 POP SWAP2 SWAP1 POP JUMP JUMPDEST PUSH1 0x0 PUSH1 0x20 DUP3 ADD SWAP1 POP DUP2 DUP2 SUB PUSH1 0x0 DUP4 ADD MSTORE PUSH2 0xC2A DUP2 PUSH2 0xBEE JUMP JUMPDEST SWAP1 POP SWAP2 SWAP1 POP JUMP JUMPDEST PUSH32 0x496E76616C696420726563697069656E7420636F6D6D69746D656E7400000000 PUSH1 0x0 DUP3 ADD MSTORE POP JUMP JUMPDEST PUSH1 0x0 PUSH2 0xC67 PUSH1 0x1C DUP4 PUSH2 0xB48 JUMP JUMPDEST SWAP2 POP PUSH2 0xC72 DUP3 PUSH2 0xC31 JUMP JUMPDEST PUSH1 0x20 DUP3 ADD SWAP1 POP SWAP2 SWAP1 POP JUMP JUMPDEST PUSH1 0x0 PUSH1 0x20 DUP3 ADD SWAP1 POP DUP2 DUP2 SUB PUSH1 0x0 DUP4 ADD MSTORE PUSH2 0xC96 DUP2 PUSH2 0xC5A JUMP JUMPDEST SWAP1 POP SWAP2 SWAP1 POP JUMP JUMPDEST PUSH32 0x4E487B7100000000000000000000000000000000000000000000000000000000 PUSH1 0x0 MSTORE PUSH1 0x11 PUSH1 0x4 MSTORE PUSH1 0x24 PUSH1 0x0 REVERT JUMPDEST PUSH1 0x0 PUSH2 0xCD7 DUP3 PUSH2 0x797 JUMP JUMPDEST SWAP2 POP PUSH2 0xCE2 DUP4 PUSH2 0x797 JUMP JUMPDEST SWAP3 POP DUP3 DUP3 SUB SWAP1 POP DUP2 DUP2 GT ISZERO PUSH2 0xCFA JUMPI PUSH2 0xCF9 PUSH2 0xC9D JUMP JUMPDEST JUMPDEST SWAP3 SWAP2 POP POP JUMP JUMPDEST PUSH1 0x0 PUSH1 0x40 DUP3 ADD SWAP1 POP PUSH2 0xD15 PUSH1 0x0 DUP4 ADD DUP6 PUSH2 0x6FE JUMP JUMPDEST PUSH2 0xD22 PUSH1 0x20 DUP4 ADD DUP5 PUSH2 0x8AE JUMP JUMPDEST SWAP4 SWAP3 POP POP POP JUMP JUMPDEST PUSH32 0x546F6B656E207472616E73666572206661696C65640000000000000000000000 PUSH1 0x0 DUP3 ADD MSTORE POP JUMP JUMPDEST PUSH1 0x0 PUSH2 0xD5F PUSH1 0x15 DUP4 PUSH2 0xB48 JUMP JUMPDEST SWAP2 POP PUSH2 0xD6A DUP3 PUSH2 0xD29 JUMP JUMPDEST PUSH1 0x20 DUP3 ADD SWAP1 POP SWAP2 SWAP1 POP JUMP JUMPDEST PUSH1 0x0 PUSH1 0x20 DUP3 ADD SWAP1 POP DUP2 DUP2 SUB PUSH1 0x0 DUP4 ADD MSTORE PUSH2 0xD8E DUP2 PUSH2 0xD52 JUMP JUMPDEST SWAP1 POP SWAP2 SWAP1 POP JUMP JUMPDEST PUSH32 0x416D6F756E74206D7573742062652067726561746572207468616E207A65726F PUSH1 0x0 DUP3 ADD MSTORE POP JUMP JUMPDEST PUSH1 0x0 PUSH2 0xDCB PUSH1 0x20 DUP4 PUSH2 0xB48 JUMP JUMPDEST SWAP2 POP PUSH2 0xDD6 DUP3 PUSH2 0xD95 JUMP JUMPDEST PUSH1 0x20 DUP3 ADD SWAP1 POP SWAP2 SWAP1 POP JUMP JUMPDEST PUSH1 0x0 PUSH1 0x20 DUP3 ADD SWAP1 POP DUP2 DUP2 SUB PUSH1 0x0 DUP4 ADD MSTORE PUSH2 0xDFA DUP2 PUSH2 0xDBE JUMP JUMPDEST SWAP1 POP SWAP2 SWAP1 POP JUMP JUMPDEST PUSH1 0x0 PUSH1 0x60 DUP3 ADD SWAP1 POP PUSH2 0xE16 PUSH1 0x0 DUP4 ADD DUP7 PUSH2 0x6FE JUMP JUMPDEST PUSH2 0xE23 PUSH1 0x20 DUP4 ADD DUP6 PUSH2 0x6FE JUMP JUMPDEST PUSH2 0xE30 PUSH1 0x40 DUP4 ADD DUP5 PUSH2 0x8AE JUMP JUMPDEST SWAP5 SWAP4 POP POP POP POP JUMP JUMPDEST PUSH1 0x0 PUSH2 0xE43 DUP3 PUSH2 0x797 JUMP JUMPDEST SWAP2 POP PUSH2 0xE4E DUP4 PUSH2 0x797 JUMP JUMPDEST SWAP3 POP DUP3 DUP3 ADD SWAP1 POP DUP1 DUP3 GT ISZERO PUSH2 0xE66 JUMPI PUSH2 0xE65 PUSH2 0xC9D JUMP JUMPDEST JUMPDEST SWAP3 SWAP2 POP POP JUMP INVALID LOG2 PUSH5 0x6970667358 0x22 SLT KECCAK256 0xB3 RETURNDATACOPY MCOPY 0xDC 0xDC 0xA5 EQ CREATE DUP1 SWAP16 SWAP7 SWAP5 CALLDATASIZE 0xBE 0xC8 0xB6 SWAP4 0xB9 SELFBALANCE 0xDF PUSH9 0xC3ED21EA26089A84CC 0xDE 0xC0 PUSH5 0x736F6C6343 STOP ADDMOD SHR STOP CALLER PUSH1 0xE0 PUSH1 0x40 MSTORE CALLVALUE DUP1 ISZERO PUSH2 0x10 JUMPI PUSH1 0x0 DUP1 REVERT JUMPDEST POP PUSH3 0x40000 PUSH1 0x12 PUSH1 0x2 DUP3 PUSH1 0x80 DUP2 DUP2 MSTORE POP POP DUP2 PUSH1 0xA0 DUP2 DUP2 MSTORE POP POP DUP1 PUSH1 0xC0 DUP2 DUP2 MSTORE POP POP POP POP POP PUSH1 0x80 MLOAD PUSH1 0xA0 MLOAD PUSH1 0xC0 MLOAD PUSH2 0x77B3 PUSH2 0x71 PUSH1 0x0 CODECOPY PUSH1 0x0 PUSH2 0x745 ADD MSTORE PUSH1 0x0 DUP2 DUP2 PUSH2 0x809 ADD MSTORE DUP2 DUP2 PUSH2 0x11CD ADD MSTORE PUSH2 0x12A4 ADD MSTORE PUSH1 0x0 PUSH2 0x6DB ADD MSTORE PUSH2 0x77B3 PUSH1 0x0 RETURN INVALID PUSH1 0x80 PUSH1 0x40 MSTORE CALLVALUE DUP1 ISZERO PUSH2 0x10 JUMPI PUSH1 0x0 DUP1 REVERT JUMPDEST POP PUSH1 0x4 CALLDATASIZE LT PUSH2 0x2B JUMPI PUSH1 0x0 CALLDATALOAD PUSH1 0xE0 SHR DUP1 PUSH4 0xEA50D0E4 EQ PUSH2 0x30 JUMPI JUMPDEST PUSH1 0x0 DUP1 REVERT JUMPDEST PUSH2 0x4A PUSH1 0x4 DUP1 CALLDATASIZE SUB DUP2 ADD SWAP1 PUSH2 0x45 SWAP2 SWAP1 PUSH2 0x6B15 JUMP JUMPDEST PUSH2 0x60 JUMP JUMPDEST PUSH1 0x40 MLOAD PUSH2 0x57 SWAP2 SWAP1 PUSH2 0x6BB1 JUMP JUMPDEST PUSH1 0x40 MLOAD DUP1 SWAP2 SUB SWAP1 RETURN JUMPDEST PUSH1 0x0 PUSH1 0x20 PUSH2 0x1B8 PUSH2 0x71 SWAP2 SWAP1 PUSH2 0x6C05 JUMP JUMPDEST DUP6 DUP6 SWAP1 POP EQ PUSH2 0xAC JUMPI PUSH1 0x40 MLOAD PUSH32 0xED74AC0A00000000000000000000000000000000000000000000000000000000 DUP2 MSTORE PUSH1 0x4 ADD PUSH1 0x40 MLOAD DUP1 SWAP2 SUB SWAP1 REVERT JUMPDEST PUSH1 0x0 PUSH2 0xB6 PUSH2 0x230 JUMP JUMPDEST SWAP1 POP PUSH1 0x0 PUSH2 0xC4 DUP8 DUP8 PUSH2 0x245 JUMP JUMPDEST SWAP1 POP DUP2 PUSH1 0x40 ADD MLOAD DUP6 DUP6 SWAP1 POP EQ PUSH2 0x106 JUMPI PUSH1 0x40 MLOAD PUSH32 0xFA06659300000000000000000000000000000000000000000000000000000000 DUP2 MSTORE PUSH1 0x4 ADD PUSH1 0x40 MLOAD DUP1 SWAP2 SUB SWAP1 REVERT JUMPDEST PUSH1 0x0 PUSH2 0x11F DUP3 DUP8 DUP8 DUP7 PUSH1 0x0 ADD MLOAD DUP8 PUSH1 0x40 ADD MLOAD PUSH1 0x1 PUSH2 0x5F1 JUMP JUMPDEST SWAP1 POP PUSH2 0x17F DUP7 DUP7 DUP1 DUP1 PUSH1 0x20 MUL PUSH1 0x20 ADD PUSH1 0x40 MLOAD SWAP1 DUP2 ADD PUSH1 0x40 MSTORE DUP1 SWAP4 SWAP3 SWAP2 SWAP1 DUP2 DUP2 MSTORE PUSH1 0x20 ADD DUP4 DUP4 PUSH1 0x20 MUL DUP1 DUP3 DUP5 CALLDATACOPY PUSH1 0x0 DUP2 DUP5 ADD MSTORE PUSH1 0x1F NOT PUSH1 0x1F DUP3 ADD AND SWAP1 POP DUP1 DUP4 ADD SWAP3 POP POP POP POP POP POP POP DUP3 PUSH1 0x0 ADD MLOAD PUSH1 0x60 ADD MLOAD DUP4 PUSH1 0x0 ADD MLOAD PUSH1 0x80 ADD MLOAD PUSH1 0x1 PUSH2 0x6BE JUMP JUMPDEST DUP2 PUSH1 0x0 ADD MLOAD PUSH1 0xA0 ADD DUP2 DUP2 MSTORE POP POP PUSH1 0x0 PUSH2 0x198 DUP4 DUP4 PUSH2 0x7FB JUMP JUMPDEST SWAP1 POP DUP1 PUSH2 0x1D1 JUMPI PUSH1 0x40 MLOAD PUSH32 0x9FC3A21800000000000000000000000000000000000000000000000000000000 DUP2 MSTORE PUSH1 0x4 ADD PUSH1 0x40 MLOAD DUP1 SWAP2 SUB SWAP1 REVERT JUMPDEST PUSH1 0x0 PUSH2 0x1DE DUP5 DUP7 DUP6 PUSH2 0x92A JUMP JUMPDEST SWAP1 POP DUP1 PUSH2 0x217 JUMPI PUSH1 0x40 MLOAD PUSH32 0xA5D82E8A00000000000000000000000000000000000000000000000000000000 DUP2 MSTORE PUSH1 0x4 ADD PUSH1 0x40 MLOAD DUP1 SWAP2 SUB SWAP1 REVERT JUMPDEST DUP2 DUP1 ISZERO PUSH2 0x221 JUMPI POP DUP1 JUMPDEST SWAP6 POP POP POP POP POP POP SWAP5 SWAP4 POP POP POP POP JUMP JUMPDEST PUSH2 0x238 PUSH2 0x62D9 JUMP JUMPDEST PUSH2 0x240 PUSH2 0x1637 JUMP JUMPDEST SWAP1 POP SWAP1 JUMP JUMPDEST PUSH2 0x24D PUSH2 0x645A JUMP JUMPDEST PUSH2 0x269 DUP4 DUP4 PUSH1 0x0 SWAP1 PUSH1 0x80 SWAP3 PUSH2 0x264 SWAP4 SWAP3 SWAP2 SWAP1 PUSH2 0x6C51 JUMP JUMPDEST PUSH2 0x1FDF JUMP JUMPDEST DUP2 PUSH1 0x0 ADD DUP2 SWAP1 MSTORE POP PUSH2 0x28E DUP4 DUP4 PUSH1 0x80 SWAP1 PUSH2 0x100 SWAP3 PUSH2 0x289 SWAP4 SWAP3 SWAP2 SWAP1 PUSH2 0x6C51 JUMP JUMPDEST PUSH2 0x1FDF JUMP JUMPDEST DUP2 PUSH1 0x20 ADD DUP2 SWAP1 MSTORE POP PUSH2 0x2B4 DUP4 DUP4 PUSH2 0x100 SWAP1 PUSH2 0x180 SWAP3 PUSH2 0x2AF SWAP4 SWAP3 SWAP2 SWAP1 PUSH2 0x6C51 JUMP JUMPDEST PUSH2 0x1FDF JUMP JUMPDEST DUP2 PUSH1 0x40 ADD DUP2 SWAP1 MSTORE POP PUSH2 0x2DA DUP4 DUP4 PUSH2 0x180 SWAP1 PUSH2 0x200 SWAP3 PUSH2 0x2D5 SWAP4 SWAP3 SWAP2 SWAP1 PUSH2 0x6C51 JUMP JUMPDEST PUSH2 0x1FDF JUMP JUMPDEST DUP2 PUSH1 0xA0 ADD DUP2 SWAP1 MSTORE POP PUSH2 0x300 DUP4 DUP4 PUSH2 0x200 SWAP1 PUSH2 0x280 SWAP3 PUSH2 0x2FB SWAP4 SWAP3 SWAP2 SWAP1 PUSH2 0x6C51 JUMP JUMPDEST PUSH2 0x1FDF JUMP JUMPDEST DUP2 PUSH1 0xC0 ADD DUP2 SWAP1 MSTORE POP PUSH2 0x326 DUP4 DUP4 PUSH2 0x280 SWAP1 PUSH2 0x300 SWAP3 PUSH2 0x321 SWAP4 SWAP3 SWAP2 SWAP1 PUSH2 0x6C51 JUMP JUMPDEST PUSH2 0x1FDF JUMP JUMPDEST DUP2 PUSH1 0x60 ADD DUP2 SWAP1 MSTORE POP PUSH2 0x34C DUP4 DUP4 PUSH2 0x300 SWAP1 PUSH2 0x380 SWAP3 PUSH2 0x347 SWAP4 SWAP3 SWAP2 SWAP1 PUSH2 0x6C51 JUMP JUMPDEST PUSH2 0x1FDF JUMP JUMPDEST DUP2 PUSH1 0xE0 ADD DUP2 SWAP1 MSTORE POP PUSH2 0x372 DUP4 DUP4 PUSH2 0x380 SWAP1 PUSH2 0x400 SWAP3 PUSH2 0x36D SWAP4 SWAP3 SWAP2 SWAP1 PUSH2 0x6C51 JUMP JUMPDEST PUSH2 0x1FDF JUMP JUMPDEST DUP2 PUSH1 0x80 ADD DUP2 SWAP1 MSTORE POP PUSH1 0x0 PUSH2 0x400 SWAP1 POP PUSH1 0x0 JUMPDEST PUSH1 0x1C DUP2 LT ISZERO PUSH2 0x421 JUMPI PUSH1 0x0 JUMPDEST PUSH1 0x8 DUP2 LT ISZERO PUSH2 0x413 JUMPI PUSH2 0x3BF DUP7 DUP7 DUP6 SWAP1 PUSH1 0x20 DUP8 PUSH2 0x3AD SWAP2 SWAP1 PUSH2 0x6C8C JUMP JUMPDEST SWAP3 PUSH2 0x3BA SWAP4 SWAP3 SWAP2 SWAP1 PUSH2 0x6C51 JUMP JUMPDEST PUSH2 0x20DA JUMP JUMPDEST DUP5 PUSH2 0x100 ADD MLOAD DUP4 PUSH1 0x1C DUP2 LT PUSH2 0x3D7 JUMPI PUSH2 0x3D6 PUSH2 0x6CC0 JUMP JUMPDEST JUMPDEST PUSH1 0x20 MUL ADD MLOAD DUP3 PUSH1 0x8 DUP2 LT PUSH2 0x3EE JUMPI PUSH2 0x3ED PUSH2 0x6CC0 JUMP JUMPDEST JUMPDEST PUSH1 0x20 MUL ADD DUP2 DUP2 MSTORE POP POP PUSH1 0x20 DUP4 PUSH2 0x404 SWAP2 SWAP1 PUSH2 0x6C8C JUMP JUMPDEST SWAP3 POP DUP1 DUP1 PUSH1 0x1 ADD SWAP2 POP POP PUSH2 0x390 JUMP JUMPDEST POP DUP1 DUP1 PUSH1 0x1 ADD SWAP2 POP POP PUSH2 0x384 JUMP JUMPDEST POP PUSH1 0x0 JUMPDEST PUSH1 0x28 DUP2 LT ISZERO PUSH2 0x491 JUMPI PUSH2 0x454 DUP6 DUP6 DUP5 SWAP1 PUSH1 0x20 DUP7 PUSH2 0x442 SWAP2 SWAP1 PUSH2 0x6C8C JUMP JUMPDEST SWAP3 PUSH2 0x44F SWAP4 SWAP3 SWAP2 SWAP1 PUSH2 0x6C51 JUMP JUMPDEST PUSH2 0x20DA JUMP JUMPDEST DUP4 PUSH2 0x120 ADD MLOAD DUP3 PUSH1 0x28 DUP2 LT PUSH2 0x46C JUMPI PUSH2 0x46B PUSH2 0x6CC0 JUMP JUMPDEST JUMPDEST PUSH1 0x20 MUL ADD DUP2 DUP2 MSTORE POP POP PUSH1 0x20 DUP3 PUSH2 0x482 SWAP2 SWAP1 PUSH2 0x6C8C JUMP JUMPDEST SWAP2 POP DUP1 DUP1 PUSH1 0x1 ADD SWAP2 POP POP PUSH2 0x425 JUMP JUMPDEST POP PUSH1 0x0 JUMPDEST PUSH1 0x1 PUSH1 0x1C PUSH2 0x4A3 SWAP2 SWAP1 PUSH2 0x6CEF JUMP JUMPDEST DUP2 LT ISZERO PUSH2 0x50C JUMPI PUSH2 0x4D0 DUP6 DUP6 DUP5 SWAP1 PUSH1 0x80 DUP7 PUSH2 0x4BE SWAP2 SWAP1 PUSH2 0x6C8C JUMP JUMPDEST SWAP3 PUSH2 0x4CB SWAP4 SWAP3 SWAP2 SWAP1 PUSH2 0x6C51 JUMP JUMPDEST PUSH2 0x1FDF JUMP JUMPDEST DUP4 PUSH2 0x140 ADD MLOAD DUP3 PUSH1 0x1B DUP2 LT PUSH2 0x4E8 JUMPI PUSH2 0x4E7 PUSH2 0x6CC0 JUMP JUMPDEST JUMPDEST PUSH1 0x20 MUL ADD DUP2 SWAP1 MSTORE POP PUSH1 0x80 DUP3 PUSH2 0x4FD SWAP2 SWAP1 PUSH2 0x6C8C JUMP JUMPDEST SWAP2 POP DUP1 DUP1 PUSH1 0x1 ADD SWAP2 POP POP PUSH2 0x495 JUMP JUMPDEST POP PUSH1 0x0 JUMPDEST PUSH1 0x1C DUP2 LT ISZERO PUSH2 0x57C JUMPI PUSH2 0x53F DUP6 DUP6 DUP5 SWAP1 PUSH1 0x20 DUP7 PUSH2 0x52D SWAP2 SWAP1 PUSH2 0x6C8C JUMP JUMPDEST SWAP3 PUSH2 0x53A SWAP4 SWAP3 SWAP2 SWAP1 PUSH2 0x6C51 JUMP JUMPDEST PUSH2 0x20DA JUMP JUMPDEST DUP4 PUSH2 0x160 ADD MLOAD DUP3 PUSH1 0x1C DUP2 LT PUSH2 0x557 JUMPI PUSH2 0x556 PUSH2 0x6CC0 JUMP JUMPDEST JUMPDEST PUSH1 0x20 MUL ADD DUP2 DUP2 MSTORE POP POP PUSH1 0x20 DUP3 PUSH2 0x56D SWAP2 SWAP1 PUSH2 0x6C8C JUMP JUMPDEST SWAP2 POP DUP1 DUP1 PUSH1 0x1 ADD SWAP2 POP POP PUSH2 0x510 JUMP JUMPDEST POP PUSH2 0x5A3 DUP5 DUP5 DUP4 SWAP1 PUSH1 0x80 DUP6 PUSH2 0x591 SWAP2 SWAP1 PUSH2 0x6C8C JUMP JUMPDEST SWAP3 PUSH2 0x59E SWAP4 SWAP3 SWAP2 SWAP1 PUSH2 0x6C51 JUMP JUMPDEST PUSH2 0x1FDF JUMP JUMPDEST DUP3 PUSH2 0x180 ADD DUP2 SWAP1 MSTORE POP PUSH1 0x80 DUP2 PUSH2 0x5B9 SWAP2 SWAP1 PUSH2 0x6C8C JUMP JUMPDEST SWAP1 POP PUSH2 0x5E1 DUP5 DUP5 DUP4 SWAP1 PUSH1 0x80 DUP6 PUSH2 0x5CF SWAP2 SWAP1 PUSH2 0x6C8C JUMP JUMPDEST SWAP3 PUSH2 0x5DC SWAP4 SWAP3 SWAP2 SWAP1 PUSH2 0x6C51 JUMP JUMPDEST PUSH2 0x1FDF JUMP JUMPDEST DUP3 PUSH2 0x1A0 ADD DUP2 SWAP1 MSTORE POP POP SWAP3 SWAP2 POP POP JUMP JUMPDEST PUSH2 0x5F9 PUSH2 0x651D JUMP JUMPDEST PUSH1 0x0 PUSH2 0x60A DUP9 DUP9 DUP9 DUP9 DUP9 DUP9 DUP8 PUSH2 0x213F JUMP JUMPDEST DUP4 PUSH1 0x0 ADD DUP2 SWAP4 POP DUP3 SWAP1 MSTORE POP POP PUSH2 0x620 DUP2 DUP10 PUSH2 0x21A2 JUMP JUMPDEST DUP4 PUSH1 0x20 ADD DUP2 SWAP4 POP DUP3 SWAP1 MSTORE POP POP PUSH2 0x635 DUP2 PUSH2 0x24C2 JUMP JUMPDEST DUP4 PUSH1 0x40 ADD DUP2 SWAP4 POP DUP3 SWAP1 MSTORE POP POP PUSH2 0x64B DUP9 DUP3 PUSH2 0x254E JUMP JUMPDEST DUP4 PUSH1 0x60 ADD DUP2 SWAP4 POP DUP3 SWAP1 MSTORE POP POP PUSH2 0x661 DUP9 DUP3 PUSH2 0x2679 JUMP JUMPDEST DUP4 PUSH1 0x80 ADD DUP2 SWAP4 POP DUP3 DUP2 MSTORE POP POP POP PUSH2 0x678 DUP9 DUP3 PUSH2 0x274E JUMP JUMPDEST DUP4 PUSH1 0xA0 ADD DUP2 SWAP4 POP DUP3 DUP2 MSTORE POP POP POP PUSH2 0x68F DUP9 DUP3 PUSH2 0x293E JUMP JUMPDEST DUP4 PUSH1 0xC0 ADD DUP2 SWAP4 POP DUP3 DUP2 MSTORE POP POP POP PUSH2 0x6A6 DUP9 DUP3 PUSH2 0x2A13 JUMP JUMPDEST DUP4 PUSH1 0xE0 ADD DUP2 SWAP4 POP DUP3 DUP2 MSTORE POP POP POP POP SWAP7 SWAP6 POP POP POP POP POP POP JUMP JUMPDEST PUSH1 0x0 DUP1 PUSH1 0x1 SWAP1 POP PUSH1 0x0 PUSH1 0x1 SWAP1 POP PUSH1 0x0 PUSH2 0x713 DUP7 PUSH2 0x70E DUP10 PUSH2 0x709 DUP10 PUSH32 0x0 PUSH2 0x704 SWAP2 SWAP1 PUSH2 0x6C8C JUMP JUMPDEST PUSH2 0x2B25 JUMP JUMPDEST PUSH2 0x2B5A JUMP JUMPDEST PUSH2 0x2B96 JUMP JUMPDEST SWAP1 POP PUSH1 0x0 PUSH2 0x73E DUP8 PUSH2 0x739 DUP11 PUSH2 0x734 PUSH1 0x1 DUP12 PUSH2 0x72F SWAP2 SWAP1 PUSH2 0x6C8C JUMP JUMPDEST PUSH2 0x2B25 JUMP JUMPDEST PUSH2 0x2B5A JUMP JUMPDEST PUSH2 0x2BD2 JUMP JUMPDEST SWAP1 POP PUSH1 0x0 JUMPDEST PUSH32 0x0 DUP2 LT ISZERO PUSH2 0x7E2 JUMPI PUSH1 0x0 PUSH2 0x790 DUP12 DUP4 DUP2 MLOAD DUP2 LT PUSH2 0x783 JUMPI PUSH2 0x782 PUSH2 0x6CC0 JUMP JUMPDEST JUMPDEST PUSH1 0x20 MUL PUSH1 0x20 ADD ADD MLOAD PUSH2 0x2C39 JUMP JUMPDEST SWAP1 POP PUSH2 0x7A5 DUP7 PUSH2 0x7A0 DUP7 DUP5 PUSH2 0x2B96 JUMP JUMPDEST PUSH2 0x2B5A JUMP JUMPDEST SWAP6 POP PUSH2 0x7BA DUP6 PUSH2 0x7B5 DUP6 DUP5 PUSH2 0x2B96 JUMP JUMPDEST PUSH2 0x2B5A JUMP JUMPDEST SWAP5 POP PUSH2 0x7C6 DUP5 DUP12 PUSH2 0x2B96 JUMP JUMPDEST SWAP4 POP PUSH2 0x7D2 DUP4 DUP12 PUSH2 0x2BD2 JUMP JUMPDEST SWAP3 POP POP DUP1 DUP1 PUSH1 0x1 ADD SWAP2 POP POP PUSH2 0x743 JUMP JUMPDEST POP PUSH2 0x7ED DUP5 DUP5 PUSH2 0x2C71 JUMP JUMPDEST SWAP5 POP POP POP POP POP SWAP5 SWAP4 POP POP POP POP JUMP JUMPDEST PUSH1 0x0 DUP1 PUSH1 0x0 PUSH1 0x1 SWAP1 POP PUSH1 0x0 JUMPDEST PUSH32 0x0 DUP2 LT ISZERO PUSH2 0x8F7 JUMPI PUSH1 0x0 DUP7 PUSH2 0x100 ADD MLOAD DUP3 PUSH1 0x1C DUP2 LT PUSH2 0x849 JUMPI PUSH2 0x848 PUSH2 0x6CC0 JUMP JUMPDEST JUMPDEST PUSH1 0x20 MUL ADD MLOAD SWAP1 POP PUSH1 0x0 PUSH2 0x85C DUP3 DUP7 PUSH2 0x2C8D JUMP JUMPDEST SWAP1 POP DUP1 PUSH2 0x895 JUMPI PUSH1 0x40 MLOAD PUSH32 0x9FC3A21800000000000000000000000000000000000000000000000000000000 DUP2 MSTORE PUSH1 0x4 ADD PUSH1 0x40 MLOAD DUP1 SWAP2 SUB SWAP1 REVERT JUMPDEST PUSH1 0x0 DUP8 PUSH1 0x60 ADD MLOAD DUP5 PUSH1 0x1C DUP2 LT PUSH2 0x8AE JUMPI PUSH2 0x8AD PUSH2 0x6CC0 JUMP JUMPDEST JUMPDEST PUSH1 0x20 MUL ADD MLOAD SWAP1 POP PUSH2 0x8BF DUP4 DUP3 PUSH2 0x2CDF JUMP JUMPDEST SWAP6 POP PUSH2 0x8E7 DUP9 PUSH1 0x40 ADD MLOAD DUP6 PUSH1 0x1C DUP2 LT PUSH2 0x8DB JUMPI PUSH2 0x8DA PUSH2 0x6CC0 JUMP JUMPDEST JUMPDEST PUSH1 0x20 MUL ADD MLOAD DUP7 DUP4 PUSH2 0x2ECA JUMP JUMPDEST SWAP5 POP POP POP POP DUP1 PUSH1 0x1 ADD SWAP1 POP PUSH2 0x807 JUMP JUMPDEST POP PUSH1 0x0 PUSH2 0x913 DUP7 PUSH2 0x120 ADD MLOAD DUP7 PUSH1 0x0 ADD MLOAD DUP8 PUSH1 0x20 ADD MLOAD DUP6 PUSH2 0x2F01 JUMP JUMPDEST SWAP1 POP PUSH2 0x91F DUP2 DUP5 PUSH2 0x2F7B JUMP JUMPDEST SWAP4 POP POP POP POP SWAP3 SWAP2 POP POP JUMP JUMPDEST PUSH1 0x0 PUSH2 0x934 PUSH2 0x657A JUMP JUMPDEST PUSH1 0x0 PUSH2 0x943 DUP5 PUSH1 0xA0 ADD MLOAD PUSH2 0x2F88 JUMP JUMPDEST SWAP1 POP PUSH2 0x94D PUSH2 0x65C6 JUMP JUMPDEST PUSH2 0x955 PUSH2 0x65E9 JUMP JUMPDEST PUSH2 0x983 PUSH2 0x97E DUP8 PUSH1 0xE0 ADD MLOAD DUP6 PUSH1 0x0 PUSH1 0x1C DUP2 LT PUSH2 0x974 JUMPI PUSH2 0x973 PUSH2 0x6CC0 JUMP JUMPDEST JUMPDEST PUSH1 0x20 MUL ADD MLOAD PUSH2 0x2BD2 JUMP JUMPDEST PUSH2 0x3017 JUMP JUMPDEST DUP5 PUSH1 0xA0 ADD DUP2 DUP2 MSTORE POP POP PUSH2 0x9BA PUSH2 0x9B5 DUP8 PUSH1 0xE0 ADD MLOAD DUP6 PUSH1 0x0 PUSH1 0x1C DUP2 LT PUSH2 0x9AB JUMPI PUSH2 0x9AA PUSH2 0x6CC0 JUMP JUMPDEST JUMPDEST PUSH1 0x20 MUL ADD MLOAD PUSH2 0x2B96 JUMP JUMPDEST PUSH2 0x3017 JUMP JUMPDEST DUP5 PUSH1 0xC0 ADD DUP2 DUP2 MSTORE POP POP PUSH2 0x9E2 DUP5 PUSH1 0xA0 ADD MLOAD PUSH2 0x9DD DUP9 PUSH1 0xC0 ADD MLOAD DUP8 PUSH1 0xC0 ADD MLOAD PUSH2 0x2B5A JUMP JUMPDEST PUSH2 0x2B96 JUMP JUMPDEST DUP5 PUSH1 0x0 ADD DUP2 DUP2 MSTORE POP POP PUSH2 0xA1F PUSH2 0x9FB DUP8 PUSH1 0xA0 ADD MLOAD PUSH2 0x3017 JUMP JUMPDEST PUSH2 0xA1A DUP7 PUSH1 0xA0 ADD MLOAD PUSH2 0xA15 DUP11 PUSH1 0xC0 ADD MLOAD DUP10 PUSH1 0xC0 ADD MLOAD PUSH2 0x2B5A JUMP JUMPDEST PUSH2 0x2BD2 JUMP JUMPDEST PUSH2 0x2B5A JUMP JUMPDEST DUP5 PUSH1 0x20 ADD DUP2 DUP2 MSTORE POP POP PUSH1 0x1 DUP3 PUSH1 0x0 PUSH1 0x46 DUP2 LT PUSH2 0xA3E JUMPI PUSH2 0xA3D PUSH2 0x6CC0 JUMP JUMPDEST JUMPDEST PUSH1 0x20 MUL ADD DUP2 DUP2 MSTORE POP POP PUSH2 0xA55 DUP9 PUSH2 0x180 ADD MLOAD PUSH2 0x30AE JUMP JUMPDEST DUP2 PUSH1 0x0 PUSH1 0x46 DUP2 LT PUSH2 0xA69 JUMPI PUSH2 0xA68 PUSH2 0x6CC0 JUMP JUMPDEST JUMPDEST PUSH1 0x20 MUL ADD DUP2 SWAP1 MSTORE POP PUSH1 0x1 DUP5 PUSH1 0x60 ADD DUP2 DUP2 MSTORE POP POP PUSH1 0x0 DUP5 PUSH1 0x80 ADD DUP2 DUP2 MSTORE POP POP PUSH1 0x0 PUSH1 0x1 SWAP1 POP JUMPDEST PUSH1 0x23 DUP2 GT PUSH2 0xB44 JUMPI PUSH2 0xAB0 PUSH2 0xAA6 DUP7 PUSH1 0x0 ADD MLOAD PUSH2 0x30EE JUMP JUMPDEST DUP7 PUSH1 0x60 ADD MLOAD PUSH2 0x2B5A JUMP JUMPDEST DUP4 DUP3 PUSH1 0x46 DUP2 LT PUSH2 0xAC3 JUMPI PUSH2 0xAC2 PUSH2 0x6CC0 JUMP JUMPDEST JUMPDEST PUSH1 0x20 MUL ADD DUP2 DUP2 MSTORE POP POP PUSH2 0xB0F DUP6 PUSH1 0x80 ADD MLOAD PUSH2 0xB0A DUP12 PUSH2 0x120 ADD MLOAD PUSH1 0x1 DUP6 PUSH2 0xAEA SWAP2 SWAP1 PUSH2 0x6CEF JUMP JUMPDEST PUSH1 0x28 DUP2 LT PUSH2 0xAFB JUMPI PUSH2 0xAFA PUSH2 0x6CC0 JUMP JUMPDEST JUMPDEST PUSH1 0x20 MUL ADD MLOAD DUP9 PUSH1 0x60 ADD MLOAD PUSH2 0x2B5A JUMP JUMPDEST PUSH2 0x2B96 JUMP JUMPDEST DUP6 PUSH1 0x80 ADD DUP2 DUP2 MSTORE POP POP PUSH2 0xB2A DUP6 PUSH1 0x60 ADD MLOAD DUP9 PUSH1 0x80 ADD MLOAD PUSH2 0x2B5A JUMP JUMPDEST DUP6 PUSH1 0x60 ADD DUP2 DUP2 MSTORE POP POP DUP1 PUSH2 0xB3D SWAP1 PUSH2 0x6D23 JUMP JUMPDEST SWAP1 POP PUSH2 0xA8E JUMP JUMPDEST POP PUSH1 0x0 PUSH1 0x1 PUSH1 0x23 PUSH2 0xB55 SWAP2 SWAP1 PUSH2 0x6C8C JUMP JUMPDEST SWAP1 POP JUMPDEST PUSH1 0x28 DUP2 GT PUSH2 0xC0E JUMPI PUSH2 0xB7A PUSH2 0xB70 DUP7 PUSH1 0x20 ADD MLOAD PUSH2 0x30EE JUMP JUMPDEST DUP7 PUSH1 0x60 ADD MLOAD PUSH2 0x2B5A JUMP JUMPDEST DUP4 DUP3 PUSH1 0x46 DUP2 LT PUSH2 0xB8D JUMPI PUSH2 0xB8C PUSH2 0x6CC0 JUMP JUMPDEST JUMPDEST PUSH1 0x20 MUL ADD DUP2 DUP2 MSTORE POP POP PUSH2 0xBD9 DUP6 PUSH1 0x80 ADD MLOAD PUSH2 0xBD4 DUP12 PUSH2 0x120 ADD MLOAD PUSH1 0x1 DUP6 PUSH2 0xBB4 SWAP2 SWAP1 PUSH2 0x6CEF JUMP JUMPDEST PUSH1 0x28 DUP2 LT PUSH2 0xBC5 JUMPI PUSH2 0xBC4 PUSH2 0x6CC0 JUMP JUMPDEST JUMPDEST PUSH1 0x20 MUL ADD MLOAD DUP9 PUSH1 0x60 ADD MLOAD PUSH2 0x2B5A JUMP JUMPDEST PUSH2 0x2B96 JUMP JUMPDEST DUP6 PUSH1 0x80 ADD DUP2 DUP2 MSTORE POP POP PUSH2 0xBF4 DUP6 PUSH1 0x60 ADD MLOAD DUP9 PUSH1 0x80 ADD MLOAD PUSH2 0x2B5A JUMP JUMPDEST DUP6 PUSH1 0x60 ADD DUP2 DUP2 MSTORE POP POP DUP1 PUSH2 0xC07 SWAP1 PUSH2 0x6D23 JUMP JUMPDEST SWAP1 POP PUSH2 0xB58 JUMP JUMPDEST POP DUP7 PUSH1 0x60 ADD MLOAD DUP2 PUSH1 0x1 PUSH1 0x46 DUP2 LT PUSH2 0xC28 JUMPI PUSH2 0xC27 PUSH2 0x6CC0 JUMP JUMPDEST JUMPDEST PUSH1 0x20 MUL ADD DUP2 SWAP1 MSTORE POP DUP7 PUSH1 0x80 ADD MLOAD DUP2 PUSH1 0x2 PUSH1 0x46 DUP2 LT PUSH2 0xC49 JUMPI PUSH2 0xC48 PUSH2 0x6CC0 JUMP JUMPDEST JUMPDEST PUSH1 0x20 MUL ADD DUP2 SWAP1 MSTORE POP DUP7 PUSH1 0xA0 ADD MLOAD DUP2 PUSH1 0x3 PUSH1 0x46 DUP2 LT PUSH2 0xC6A JUMPI PUSH2 0xC69 PUSH2 0x6CC0 JUMP JUMPDEST JUMPDEST PUSH1 0x20 MUL ADD DUP2 SWAP1 MSTORE POP DUP7 PUSH1 0xC0 ADD MLOAD DUP2 PUSH1 0x4 PUSH1 0x46 DUP2 LT PUSH2 0xC8B JUMPI PUSH2 0xC8A PUSH2 0x6CC0 JUMP JUMPDEST JUMPDEST PUSH1 0x20 MUL ADD DUP2 SWAP1 MSTORE POP DUP7 PUSH1 0xE0 ADD MLOAD DUP2 PUSH1 0x5 PUSH1 0x46 DUP2 LT PUSH2 0xCAC JUMPI PUSH2 0xCAB PUSH2 0x6CC0 JUMP JUMPDEST JUMPDEST PUSH1 0x20 MUL ADD DUP2 SWAP1 MSTORE POP DUP7 PUSH2 0x100 ADD MLOAD DUP2 PUSH1 0x6 PUSH1 0x46 DUP2 LT PUSH2 0xCCE JUMPI PUSH2 0xCCD PUSH2 0x6CC0 JUMP JUMPDEST JUMPDEST PUSH1 0x20 MUL ADD DUP2 SWAP1 MSTORE POP DUP7 PUSH2 0x120 ADD MLOAD DUP2 PUSH1 0x7 PUSH1 0x46 DUP2 LT PUSH2 0xCF0 JUMPI PUSH2 0xCEF PUSH2 0x6CC0 JUMP JUMPDEST JUMPDEST PUSH1 0x20 MUL ADD DUP2 SWAP1 MSTORE POP DUP7 PUSH2 0x140 ADD MLOAD DUP2 PUSH1 0x8 PUSH1 0x46 DUP2 LT PUSH2 0xD12 JUMPI PUSH2 0xD11 PUSH2 0x6CC0 JUMP JUMPDEST JUMPDEST PUSH1 0x20 MUL ADD DUP2 SWAP1 MSTORE POP DUP7 PUSH2 0x160 ADD MLOAD DUP2 PUSH1 0x9 PUSH1 0x46 DUP2 LT PUSH2 0xD34 JUMPI PUSH2 0xD33 PUSH2 0x6CC0 JUMP JUMPDEST JUMPDEST PUSH1 0x20 MUL ADD DUP2 SWAP1 MSTORE POP DUP7 PUSH2 0x1A0 ADD MLOAD DUP2 PUSH1 0xA PUSH1 0x46 DUP2 LT PUSH2 0xD56 JUMPI PUSH2 0xD55 PUSH2 0x6CC0 JUMP JUMPDEST JUMPDEST PUSH1 0x20 MUL ADD DUP2 SWAP1 MSTORE POP DUP7 PUSH2 0x180 ADD MLOAD DUP2 PUSH1 0xB PUSH1 0x46 DUP2 LT PUSH2 0xD78 JUMPI PUSH2 0xD77 PUSH2 0x6CC0 JUMP JUMPDEST JUMPDEST PUSH1 0x20 MUL ADD DUP2 SWAP1 MSTORE POP DUP7 PUSH2 0x1C0 ADD MLOAD DUP2 PUSH1 0xC PUSH1 0x46 DUP2 LT PUSH2 0xD9A JUMPI PUSH2 0xD99 PUSH2 0x6CC0 JUMP JUMPDEST JUMPDEST PUSH1 0x20 MUL ADD DUP2 SWAP1 MSTORE POP DUP7 PUSH2 0x1E0 ADD MLOAD DUP2 PUSH1 0xD PUSH1 0x46 DUP2 LT PUSH2 0xDBC JUMPI PUSH2 0xDBB PUSH2 0x6CC0 JUMP JUMPDEST JUMPDEST PUSH1 0x20 MUL ADD DUP2 SWAP1 MSTORE POP DUP7 PUSH2 0x200 ADD MLOAD DUP2 PUSH1 0xE PUSH1 0x46 DUP2 LT PUSH2 0xDDE JUMPI PUSH2 0xDDD PUSH2 0x6CC0 JUMP JUMPDEST JUMPDEST PUSH1 0x20 MUL ADD DUP2 SWAP1 MSTORE POP DUP7 PUSH2 0x220 ADD MLOAD DUP2 PUSH1 0xF PUSH1 0x46 DUP2 LT PUSH2 0xE00 JUMPI PUSH2 0xDFF PUSH2 0x6CC0 JUMP JUMPDEST JUMPDEST PUSH1 0x20 MUL ADD DUP2 SWAP1 MSTORE POP DUP7 PUSH2 0x240 ADD MLOAD DUP2 PUSH1 0x10 PUSH1 0x46 DUP2 LT PUSH2 0xE22 JUMPI PUSH2 0xE21 PUSH2 0x6CC0 JUMP JUMPDEST JUMPDEST PUSH1 0x20 MUL ADD DUP2 SWAP1 MSTORE POP DUP7 PUSH2 0x260 ADD MLOAD DUP2 PUSH1 0x11 PUSH1 0x46 DUP2 LT PUSH2 0xE44 JUMPI PUSH2 0xE43 PUSH2 0x6CC0 JUMP JUMPDEST JUMPDEST PUSH1 0x20 MUL ADD DUP2 SWAP1 MSTORE POP DUP7 PUSH2 0x280 ADD MLOAD DUP2 PUSH1 0x12 PUSH1 0x46 DUP2 LT PUSH2 0xE66 JUMPI PUSH2 0xE65 PUSH2 0x6CC0 JUMP JUMPDEST JUMPDEST PUSH1 0x20 MUL ADD DUP2 SWAP1 MSTORE POP DUP7 PUSH2 0x2A0 ADD MLOAD DUP2 PUSH1 0x13 PUSH1 0x46 DUP2 LT PUSH2 0xE88 JUMPI PUSH2 0xE87 PUSH2 0x6CC0 JUMP JUMPDEST JUMPDEST PUSH1 0x20 MUL ADD DUP2 SWAP1 MSTORE POP DUP7 PUSH2 0x2C0 ADD MLOAD DUP2 PUSH1 0x14 PUSH1 0x46 DUP2 LT PUSH2 0xEAA JUMPI PUSH2 0xEA9 PUSH2 0x6CC0 JUMP JUMPDEST JUMPDEST PUSH1 0x20 MUL ADD DUP2 SWAP1 MSTORE POP DUP7 PUSH2 0x2E0 ADD MLOAD DUP2 PUSH1 0x15 PUSH1 0x46 DUP2 LT PUSH2 0xECC JUMPI PUSH2 0xECB PUSH2 0x6CC0 JUMP JUMPDEST JUMPDEST PUSH1 0x20 MUL ADD DUP2 SWAP1 MSTORE POP DUP7 PUSH2 0x300 ADD MLOAD DUP2 PUSH1 0x16 PUSH1 0x46 DUP2 LT PUSH2 0xEEE JUMPI PUSH2 0xEED PUSH2 0x6CC0 JUMP JUMPDEST JUMPDEST PUSH1 0x20 MUL ADD DUP2 SWAP1 MSTORE POP DUP7 PUSH2 0x320 ADD MLOAD DUP2 PUSH1 0x17 PUSH1 0x46 DUP2 LT PUSH2 0xF10 JUMPI PUSH2 0xF0F PUSH2 0x6CC0 JUMP JUMPDEST JUMPDEST PUSH1 0x20 MUL ADD DUP2 SWAP1 MSTORE POP DUP7 PUSH2 0x340 ADD MLOAD DUP2 PUSH1 0x18 PUSH1 0x46 DUP2 LT PUSH2 0xF32 JUMPI PUSH2 0xF31 PUSH2 0x6CC0 JUMP JUMPDEST JUMPDEST PUSH1 0x20 MUL ADD DUP2 SWAP1 MSTORE POP DUP7 PUSH2 0x360 ADD MLOAD DUP2 PUSH1 0x19 PUSH1 0x46 DUP2 LT PUSH2 0xF54 JUMPI PUSH2 0xF53 PUSH2 0x6CC0 JUMP JUMPDEST JUMPDEST PUSH1 0x20 MUL ADD DUP2 SWAP1 MSTORE POP DUP7 PUSH2 0x380 ADD MLOAD DUP2 PUSH1 0x1A PUSH1 0x46 DUP2 LT PUSH2 0xF76 JUMPI PUSH2 0xF75 PUSH2 0x6CC0 JUMP JUMPDEST JUMPDEST PUSH1 0x20 MUL ADD DUP2 SWAP1 MSTORE POP DUP7 PUSH2 0x3A0 ADD MLOAD DUP2 PUSH1 0x1B PUSH1 0x46 DUP2 LT PUSH2 0xF98 JUMPI PUSH2 0xF97 PUSH2 0x6CC0 JUMP JUMPDEST JUMPDEST PUSH1 0x20 MUL ADD DUP2 SWAP1 MSTORE POP PUSH2 0xFAD DUP9 PUSH1 0x0 ADD MLOAD PUSH2 0x30AE JUMP JUMPDEST DUP2 PUSH1 0x1C PUSH1 0x46 DUP2 LT PUSH2 0xFC1 JUMPI PUSH2 0xFC0 PUSH2 0x6CC0 JUMP JUMPDEST JUMPDEST PUSH1 0x20 MUL ADD DUP2 SWAP1 MSTORE POP PUSH2 0xFD6 DUP9 PUSH1 0x20 ADD MLOAD PUSH2 0x30AE JUMP JUMPDEST DUP2 PUSH1 0x1D PUSH1 0x46 DUP2 LT PUSH2 0xFEA JUMPI PUSH2 0xFE9 PUSH2 0x6CC0 JUMP JUMPDEST JUMPDEST PUSH1 0x20 MUL ADD DUP2 SWAP1 MSTORE POP PUSH2 0xFFF DUP9 PUSH1 0x40 ADD MLOAD PUSH2 0x30AE JUMP JUMPDEST DUP2 PUSH1 0x1E PUSH1 0x46 DUP2 LT PUSH2 0x1013 JUMPI PUSH2 0x1012 PUSH2 0x6CC0 JUMP JUMPDEST JUMPDEST PUSH1 0x20 MUL ADD DUP2 SWAP1 MSTORE POP PUSH2 0x1028 DUP9 PUSH1 0x60 ADD MLOAD PUSH2 0x30AE JUMP JUMPDEST DUP2 PUSH1 0x1F PUSH1 0x46 DUP2 LT PUSH2 0x103C JUMPI PUSH2 0x103B PUSH2 0x6CC0 JUMP JUMPDEST JUMPDEST PUSH1 0x20 MUL ADD DUP2 SWAP1 MSTORE POP PUSH2 0x1051 DUP9 PUSH1 0x80 ADD MLOAD PUSH2 0x30AE JUMP JUMPDEST DUP2 PUSH1 0x20 PUSH1 0x46 DUP2 LT PUSH2 0x1065 JUMPI PUSH2 0x1064 PUSH2 0x6CC0 JUMP JUMPDEST JUMPDEST PUSH1 0x20 MUL ADD DUP2 SWAP1 MSTORE POP PUSH2 0x107A DUP9 PUSH1 0xE0 ADD MLOAD PUSH2 0x30AE JUMP JUMPDEST DUP2 PUSH1 0x21 PUSH1 0x46 DUP2 LT PUSH2 0x108E JUMPI PUSH2 0x108D PUSH2 0x6CC0 JUMP JUMPDEST JUMPDEST PUSH1 0x20 MUL ADD DUP2 SWAP1 MSTORE POP PUSH2 0x10A3 DUP9 PUSH1 0xA0 ADD MLOAD PUSH2 0x30AE JUMP JUMPDEST DUP2 PUSH1 0x22 PUSH1 0x46 DUP2 LT PUSH2 0x10B7 JUMPI PUSH2 0x10B6 PUSH2 0x6CC0 JUMP JUMPDEST JUMPDEST PUSH1 0x20 MUL ADD DUP2 SWAP1 MSTORE POP PUSH2 0x10CC DUP9 PUSH1 0xC0 ADD MLOAD PUSH2 0x30AE JUMP JUMPDEST DUP2 PUSH1 0x23 PUSH1 0x46 DUP2 LT PUSH2 0x10E0 JUMPI PUSH2 0x10DF PUSH2 0x6CC0 JUMP JUMPDEST JUMPDEST PUSH1 0x20 MUL ADD DUP2 SWAP1 MSTORE POP PUSH2 0x10F5 DUP9 PUSH1 0x0 ADD MLOAD PUSH2 0x30AE JUMP JUMPDEST DUP2 PUSH1 0x24 PUSH1 0x46 DUP2 LT PUSH2 0x1109 JUMPI PUSH2 0x1108 PUSH2 0x6CC0 JUMP JUMPDEST JUMPDEST PUSH1 0x20 MUL ADD DUP2 SWAP1 MSTORE POP PUSH2 0x111E DUP9 PUSH1 0x20 ADD MLOAD PUSH2 0x30AE JUMP JUMPDEST DUP2 PUSH1 0x25 PUSH1 0x46 DUP2 LT PUSH2 0x1132 JUMPI PUSH2 0x1131 PUSH2 0x6CC0 JUMP JUMPDEST JUMPDEST PUSH1 0x20 MUL ADD DUP2 SWAP1 MSTORE POP PUSH2 0x1147 DUP9 PUSH1 0x40 ADD MLOAD PUSH2 0x30AE JUMP JUMPDEST DUP2 PUSH1 0x26 PUSH1 0x46 DUP2 LT PUSH2 0x115B JUMPI PUSH2 0x115A PUSH2 0x6CC0 JUMP JUMPDEST JUMPDEST PUSH1 0x20 MUL ADD DUP2 SWAP1 MSTORE POP PUSH2 0x1170 DUP9 PUSH1 0x60 ADD MLOAD PUSH2 0x30AE JUMP JUMPDEST DUP2 PUSH1 0x27 PUSH1 0x46 DUP2 LT PUSH2 0x1184 JUMPI PUSH2 0x1183 PUSH2 0x6CC0 JUMP JUMPDEST JUMPDEST PUSH1 0x20 MUL ADD DUP2 SWAP1 MSTORE POP PUSH2 0x1199 DUP9 PUSH1 0x80 ADD MLOAD PUSH2 0x30AE JUMP JUMPDEST DUP2 PUSH1 0x28 PUSH1 0x46 DUP2 LT PUSH2 0x11AD JUMPI PUSH2 0x11AC PUSH2 0x6CC0 JUMP JUMPDEST JUMPDEST PUSH1 0x20 MUL ADD DUP2 SWAP1 MSTORE POP PUSH1 0x0 PUSH2 0x11F1 DUP8 PUSH1 0x60 ADD MLOAD DUP7 PUSH1 0x80 ADD MLOAD DUP12 PUSH2 0x160 ADD MLOAD DUP8 PUSH32 0x0 PUSH2 0x3123 JUMP JUMPDEST SWAP1 POP PUSH2 0x1219 DUP2 PUSH1 0x0 PUSH1 0x1C DUP2 LT PUSH2 0x120A JUMPI PUSH2 0x1209 PUSH2 0x6CC0 JUMP JUMPDEST JUMPDEST PUSH1 0x20 MUL ADD MLOAD DUP7 PUSH1 0xA0 ADD MLOAD PUSH2 0x2B5A JUMP JUMPDEST DUP6 PUSH1 0x40 ADD DUP2 DUP2 MSTORE POP POP PUSH2 0x1267 DUP6 PUSH1 0x40 ADD MLOAD PUSH2 0x1262 PUSH2 0x1258 DUP13 PUSH2 0x160 ADD MLOAD PUSH1 0x0 PUSH1 0x1C DUP2 LT PUSH2 0x1249 JUMPI PUSH2 0x1248 PUSH2 0x6CC0 JUMP JUMPDEST JUMPDEST PUSH1 0x20 MUL ADD MLOAD DUP12 PUSH1 0xC0 ADD MLOAD PUSH2 0x2B5A JUMP JUMPDEST DUP9 PUSH1 0xC0 ADD MLOAD PUSH2 0x2B5A JUMP JUMPDEST PUSH2 0x2B96 JUMP JUMPDEST DUP6 PUSH1 0x40 ADD DUP2 DUP2 MSTORE POP POP PUSH2 0x127D DUP8 PUSH1 0xC0 ADD MLOAD PUSH2 0x3276 JUMP JUMPDEST DUP6 PUSH1 0x60 ADD DUP2 DUP2 MSTORE POP POP PUSH1 0x0 JUMPDEST PUSH1 0x1 PUSH1 0x1C PUSH2 0x1297 SWAP2 SWAP1 PUSH2 0x6CEF JUMP JUMPDEST DUP2 LT ISZERO PUSH2 0x1512 JUMPI PUSH1 0x0 PUSH1 0x1 PUSH32 0x0 PUSH2 0x12CD SWAP2 SWAP1 PUSH2 0x6CEF JUMP JUMPDEST DUP3 LT ISZERO SWAP1 POP DUP1 PUSH2 0x14AE JUMPI PUSH2 0x1310 PUSH2 0x130B DUP11 PUSH1 0xE0 ADD MLOAD DUP9 PUSH1 0x1 DUP7 PUSH2 0x12F0 SWAP2 SWAP1 PUSH2 0x6C8C JUMP JUMPDEST PUSH1 0x1C DUP2 LT PUSH2 0x1301 JUMPI PUSH2 0x1300 PUSH2 0x6CC0 JUMP JUMPDEST JUMPDEST PUSH1 0x20 MUL ADD MLOAD PUSH2 0x2BD2 JUMP JUMPDEST PUSH2 0x3017 JUMP JUMPDEST DUP8 PUSH1 0xA0 ADD DUP2 DUP2 MSTORE POP POP PUSH2 0x1352 PUSH2 0x134D DUP11 PUSH1 0xE0 ADD MLOAD DUP9 PUSH1 0x1 DUP7 PUSH2 0x1332 SWAP2 SWAP1 PUSH2 0x6C8C JUMP JUMPDEST PUSH1 0x1C DUP2 LT PUSH2 0x1343 JUMPI PUSH2 0x1342 PUSH2 0x6CC0 JUMP JUMPDEST JUMPDEST PUSH1 0x20 MUL ADD MLOAD PUSH2 0x2B96 JUMP JUMPDEST PUSH2 0x3017 JUMP JUMPDEST DUP8 PUSH1 0xC0 ADD DUP2 DUP2 MSTORE POP POP PUSH2 0x136D DUP8 PUSH1 0x60 ADD MLOAD DUP9 PUSH1 0xA0 ADD MLOAD PUSH2 0x2B5A JUMP JUMPDEST DUP8 PUSH1 0xE0 ADD DUP2 DUP2 MSTORE POP POP PUSH2 0x1395 PUSH2 0x138B DUP9 PUSH1 0x60 ADD MLOAD DUP12 PUSH1 0xC0 ADD MLOAD PUSH2 0x2B5A JUMP JUMPDEST DUP9 PUSH1 0xC0 ADD MLOAD PUSH2 0x2B5A JUMP JUMPDEST DUP8 PUSH2 0x100 ADD DUP2 DUP2 MSTORE POP POP PUSH2 0x13C2 PUSH2 0x13B0 DUP9 PUSH2 0x100 ADD MLOAD PUSH2 0x30EE JUMP JUMPDEST PUSH2 0x13BD DUP10 PUSH1 0xE0 ADD MLOAD PUSH2 0x30EE JUMP JUMPDEST PUSH2 0x2B96 JUMP JUMPDEST DUP6 DUP4 PUSH1 0x1 PUSH1 0x28 PUSH2 0x13D2 SWAP2 SWAP1 PUSH2 0x6C8C JUMP JUMPDEST PUSH2 0x13DC SWAP2 SWAP1 PUSH2 0x6C8C JUMP JUMPDEST PUSH1 0x46 DUP2 LT PUSH2 0x13ED JUMPI PUSH2 0x13EC PUSH2 0x6CC0 JUMP JUMPDEST JUMPDEST PUSH1 0x20 MUL ADD DUP2 DUP2 MSTORE POP POP PUSH1 0x0 PUSH2 0x142F DUP9 PUSH2 0x100 ADD MLOAD DUP14 PUSH2 0x160 ADD MLOAD PUSH1 0x1 DUP7 PUSH2 0x1414 SWAP2 SWAP1 PUSH2 0x6C8C JUMP JUMPDEST PUSH1 0x1C DUP2 LT PUSH2 0x1425 JUMPI PUSH2 0x1424 PUSH2 0x6CC0 JUMP JUMPDEST JUMPDEST PUSH1 0x20 MUL ADD MLOAD PUSH2 0x2B5A JUMP JUMPDEST SWAP1 POP PUSH2 0x146B DUP2 PUSH2 0x1466 DUP11 PUSH1 0xE0 ADD MLOAD DUP8 PUSH1 0x1 DUP9 PUSH2 0x144B SWAP2 SWAP1 PUSH2 0x6C8C JUMP JUMPDEST PUSH1 0x1C DUP2 LT PUSH2 0x145C JUMPI PUSH2 0x145B PUSH2 0x6CC0 JUMP JUMPDEST JUMPDEST PUSH1 0x20 MUL ADD MLOAD PUSH2 0x2B5A JUMP JUMPDEST PUSH2 0x2B96 JUMP JUMPDEST SWAP1 POP PUSH2 0x147B DUP9 PUSH1 0x40 ADD MLOAD DUP3 PUSH2 0x2B96 JUMP JUMPDEST DUP9 PUSH1 0x40 ADD DUP2 DUP2 MSTORE POP POP PUSH2 0x14A3 PUSH2 0x1499 DUP10 PUSH1 0x60 ADD MLOAD DUP13 PUSH1 0xC0 ADD MLOAD PUSH2 0x2B5A JUMP JUMPDEST DUP12 PUSH1 0xC0 ADD MLOAD PUSH2 0x2B5A JUMP JUMPDEST DUP9 PUSH1 0x60 ADD DUP2 DUP2 MSTORE POP POP POP JUMPDEST PUSH2 0x14D3 DUP12 PUSH2 0x140 ADD MLOAD DUP4 PUSH1 0x1B DUP2 LT PUSH2 0x14C9 JUMPI PUSH2 0x14C8 PUSH2 0x6CC0 JUMP JUMPDEST JUMPDEST PUSH1 0x20 MUL ADD MLOAD PUSH2 0x30AE JUMP JUMPDEST DUP5 DUP4 PUSH1 0x1 PUSH1 0x28 PUSH2 0x14E3 SWAP2 SWAP1 PUSH2 0x6C8C JUMP JUMPDEST PUSH2 0x14ED SWAP2 SWAP1 PUSH2 0x6C8C JUMP JUMPDEST PUSH1 0x46 DUP2 LT PUSH2 0x14FE JUMPI PUSH2 0x14FD PUSH2 0x6CC0 JUMP JUMPDEST JUMPDEST PUSH1 0x20 MUL ADD DUP2 SWAP1 MSTORE POP POP DUP1 PUSH1 0x1 ADD SWAP1 POP PUSH2 0x1289 JUMP JUMPDEST POP PUSH1 0x40 MLOAD DUP1 PUSH1 0x40 ADD PUSH1 0x40 MSTORE DUP1 PUSH1 0x1 DUP2 MSTORE PUSH1 0x20 ADD PUSH1 0x2 DUP2 MSTORE POP DUP3 PUSH1 0x1C PUSH1 0x28 PUSH2 0x1539 SWAP2 SWAP1 PUSH2 0x6C8C JUMP JUMPDEST PUSH1 0x46 DUP2 LT PUSH2 0x154A JUMPI PUSH2 0x1549 PUSH2 0x6CC0 JUMP JUMPDEST JUMPDEST PUSH1 0x20 MUL ADD DUP2 SWAP1 MSTORE POP DUP5 PUSH1 0x40 ADD MLOAD DUP4 PUSH1 0x1C PUSH1 0x28 PUSH2 0x1566 SWAP2 SWAP1 PUSH2 0x6C8C JUMP JUMPDEST PUSH1 0x46 DUP2 LT PUSH2 0x1577 JUMPI PUSH2 0x1576 PUSH2 0x6CC0 JUMP JUMPDEST JUMPDEST PUSH1 0x20 MUL ADD DUP2 DUP2 MSTORE POP POP PUSH1 0x0 PUSH2 0x1590 DUP11 PUSH2 0x1A0 ADD MLOAD PUSH2 0x30AE JUMP JUMPDEST SWAP1 POP DUP1 DUP4 PUSH1 0x1 PUSH1 0x1C PUSH1 0x28 PUSH2 0x15A4 SWAP2 SWAP1 PUSH2 0x6C8C JUMP JUMPDEST PUSH2 0x15AE SWAP2 SWAP1 PUSH2 0x6C8C JUMP JUMPDEST PUSH1 0x46 DUP2 LT PUSH2 0x15BF JUMPI PUSH2 0x15BE PUSH2 0x6CC0 JUMP JUMPDEST JUMPDEST PUSH1 0x20 MUL ADD DUP2 SWAP1 MSTORE POP DUP8 PUSH1 0xE0 ADD MLOAD DUP5 PUSH1 0x1 PUSH1 0x1C PUSH1 0x28 PUSH2 0x15DD SWAP2 SWAP1 PUSH2 0x6C8C JUMP JUMPDEST PUSH2 0x15E7 SWAP2 SWAP1 PUSH2 0x6C8C JUMP JUMPDEST PUSH1 0x46 DUP2 LT PUSH2 0x15F8 JUMPI PUSH2 0x15F7 PUSH2 0x6CC0 JUMP JUMPDEST JUMPDEST PUSH1 0x20 MUL ADD DUP2 DUP2 MSTORE POP POP PUSH1 0x0 PUSH2 0x160D DUP5 DUP7 PUSH2 0x3289 JUMP JUMPDEST SWAP1 POP PUSH1 0x0 PUSH2 0x161A DUP4 PUSH2 0x3356 JUMP JUMPDEST SWAP1 POP PUSH2 0x1626 DUP3 DUP3 PUSH2 0x33CA JUMP JUMPDEST SWAP9 POP POP POP POP POP POP POP POP POP SWAP4 SWAP3 POP POP POP JUMP JUMPDEST PUSH2 0x163F PUSH2 0x62D9 JUMP JUMPDEST PUSH1 0x0 PUSH1 0x40 MLOAD DUP1 PUSH2 0x3C0 ADD PUSH1 0x40 MSTORE DUP1 PUSH3 0x40000 DUP2 MSTORE PUSH1 0x20 ADD PUSH1 0x12 DUP2 MSTORE PUSH1 0x20 ADD PUSH1 0x2 DUP2 MSTORE PUSH1 0x20 ADD PUSH1 0x40 MLOAD DUP1 PUSH1 0x40 ADD PUSH1 0x40 MSTORE DUP1 PUSH31 0xE3E17C7000007FCD3846E16E00000000E3E6172400007FCDE3E04D3C000000 DUP2 MSTORE PUSH1 0x20 ADD PUSH23 0x4BF9A5000007FFEE40B722800007FCDE41ED5A000007F DUP2 MSTORE POP DUP2 MSTORE PUSH1 0x20 ADD PUSH1 0x40 MLOAD DUP1 PUSH1 0x40 ADD PUSH1 0x40 MSTORE DUP1 PUSH32 0xB84FCBBD1FF6BCAD9880BB39DC7E804217BC750682994E68D3369896C65F5F4 DUP2 MSTORE PUSH1 0x20 ADD PUSH32 0x2E0DE120112AC2336CF5FD7E67B34B5AA0733BF11914C634F385CBA580BB025 DUP2 MSTORE POP DUP2 MSTORE PUSH1 0x20 ADD PUSH1 0x40 MLOAD DUP1 PUSH1 0x40 ADD PUSH1 0x40 MSTORE DUP1 PUSH32 0x2C076F3FC0973F46712A08502424F2ACF58CA1837D7C4D22531A7D37B6960A29 DUP2 MSTORE PUSH1 0x20 ADD PUSH32 0x23E1628F732C99C12445AB4A004259E73F3CA9BB37705FB551BE3A83BE795706 DUP2 MSTORE POP DUP2 MSTORE PUSH1 0x20 ADD PUSH1 0x40 MLOAD DUP1 PUSH1 0x40 ADD PUSH1 0x40 MSTORE DUP1 PUSH32 0x2AE160C39D2AC738C03C0E2568AE914DDBA2A65347CCB36EE8452A90E7A3003 DUP2 MSTORE PUSH1 0x20 ADD PUSH32 0xE7B0132C9C67E70075FC108F229EB00984FC79BC39E70255DDB77F7F45E80C5 DUP2 MSTORE POP DUP2 MSTORE PUSH1 0x20 ADD PUSH1 0x40 MLOAD DUP1 PUSH1 0x40 ADD PUSH1 0x40 MSTORE DUP1 PUSH32 0x4C86B5D44FB8B09BA8CA9794CA1C57755E80BFC28AF23DAACCBBC0D9F27BF04 DUP2 MSTORE PUSH1 0x20 ADD PUSH32 0x7E3FB28F8C4A3C4DDF5D339B7F9BABD161B20ED836DCB82351F9937FC6F3A9E DUP2 MSTORE POP DUP2 MSTORE PUSH1 0x20 ADD PUSH1 0x40 MLOAD DUP1 PUSH1 0x40 ADD PUSH1 0x40 MSTORE DUP1 PUSH32 0x2A1EC8F1EC3C797DB654DE7F49E2D50A0EC3DB32CC6C7151DD525E219577A1CD DUP2 MSTORE PUSH1 0x20 ADD PUSH32 0xB130591D3EB963157025F812ADD1D054AFC9ABA7A6CAC2C3749E14EAF71C4F1 DUP2 MSTORE POP DUP2 MSTORE PUSH1 0x20 ADD PUSH1 0x40 MLOAD DUP1 PUSH1 0x40 ADD PUSH1 0x40 MSTORE DUP1 PUSH32 0x21DC62F1D89EECC2389B3D7688EE423E1461B86E1313B685580E973500A1A65D DUP2 MSTORE PUSH1 0x20 ADD PUSH32 0xA9F8725055384AFD52DBC4F942F12F03E6B01999B5257E19092BEB6CE861C75 DUP2 MSTORE POP DUP2 MSTORE PUSH1 0x20 ADD PUSH1 0x40 MLOAD DUP1 PUSH1 0x40 ADD PUSH1 0x40 MSTORE DUP1 PUSH32 0x28ED32739A371FF86E76B50B12BB11F475507E332D40A46B643A46B34D9BC41F DUP2 MSTORE PUSH1 0x20 ADD PUSH32 0xBDEE86AF78912D2C95ECD8A5D35F953A4E93A4857297163E4A18597E1F0220C DUP2 MSTORE POP DUP2 MSTORE PUSH1 0x20 ADD PUSH1 0x40 MLOAD DUP1 PUSH1 0x40 ADD PUSH1 0x40 MSTORE DUP1 PUSH32 0x2D946D03D2628B5CBD916A6F0A16D3CA741E2238AADD9E67FD597718968D6488 DUP2 MSTORE PUSH1 0x20 ADD PUSH32 0x1B56523AEAA9FC75B6BC16DCA4D798740AFDACA8D0BFD81F27E2458834D23B0D DUP2 MSTORE POP DUP2 MSTORE PUSH1 0x20 ADD PUSH1 0x40 MLOAD DUP1 PUSH1 0x40 ADD PUSH1 0x40 MSTORE DUP1 PUSH32 0x26F7114B3A1CADB14F2A9591F79A59871D0DE5402F5D4CCA616186D6C36BACF8 DUP2 MSTORE PUSH1 0x20 ADD PUSH32 0x114AC03EE0F9DC60117581E6F4B9371AB2E01D3AAE36B125AB172E167A7AFD17 DUP2 MSTORE POP DUP2 MSTORE PUSH1 0x20 ADD PUSH1 0x40 MLOAD DUP1 PUSH1 0x40 ADD PUSH1 0x40 MSTORE DUP1 PUSH32 0x144E5937E0EA0599EF00BD4B16A09DB19CAF74ACE8A114AE27E241B012B65C5 DUP2 MSTORE PUSH1 0x20 ADD PUSH32 0x2AAD0E4F0C9F7B36D2C1328510C8D1DE10078AD62640328F8F8BE1A44C1A3990 DUP2 MSTORE POP DUP2 MSTORE PUSH1 0x20 ADD PUSH1 0x40 MLOAD DUP1 PUSH1 0x40 ADD PUSH1 0x40 MSTORE DUP1 PUSH32 0x292D36A280E0AFE139947A72E33540FA7683AF7D3C01839F873B190E13386943 DUP2 MSTORE PUSH1 0x20 ADD PUSH32 0x139E96EF979A9D683B2103E7B8B644C98D59CD7119E3296AF2F650438C1819AA DUP2 MSTORE POP DUP2 MSTORE PUSH1 0x20 ADD PUSH1 0x40 MLOAD DUP1 PUSH1 0x40 ADD PUSH1 0x40 MSTORE DUP1 PUSH32 0x2EC128185BE779C06CFC1F7D385B6618F46B11FA41BC01AFE737D422CAF7499F DUP2 MSTORE PUSH1 0x20 ADD PUSH32 0x18E47F4031EB5422C4E440E2FE3C1A5FB8EFF193A7D2F2E704AE92B765439795 DUP2 MSTORE POP DUP2 MSTORE PUSH1 0x20 ADD PUSH1 0x40 MLOAD DUP1 PUSH1 0x40 ADD PUSH1 0x40 MSTORE DUP1 PUSH32 0xB02C661A1E22CA234B4E5501B7D51B252B856A7B53F0D2F27CAEEB097F651E1 DUP2 MSTORE PUSH1 0x20 ADD PUSH32 0xB46F3757E831F1EA2674A561432305AA938CE4F8878D06B55B7560D314B7324 DUP2 MSTORE POP DUP2 MSTORE PUSH1 0x20 ADD PUSH1 0x40 MLOAD DUP1 PUSH1 0x40 ADD PUSH1 0x40 MSTORE DUP1 PUSH32 0x72AD35C4F142A41045CA6393183B05CCE13CFCF6FBAEF8A42DDC341CBA7809C DUP2 MSTORE PUSH1 0x20 ADD PUSH32 0x29B77A067F3D9DCC3ACB5F6A7F3C6BA2A93E1D4354202EAEA9162609A1F1E74B DUP2 MSTORE POP DUP2 MSTORE PUSH1 0x20 ADD PUSH1 0x40 MLOAD DUP1 PUSH1 0x40 ADD PUSH1 0x40 MSTORE DUP1 PUSH32 0x271FA99A8B0A2A5792FF70A0482B7C0A122C9E75E65ECB7423D68FD2DFDE4E5B DUP2 MSTORE PUSH1 0x20 ADD PUSH32 0x263E4096C34386BD7379E766A37D811E44D2C055FAB98678C3F7CF31F10E2146 DUP2 MSTORE POP DUP2 MSTORE PUSH1 0x20 ADD PUSH1 0x40 MLOAD DUP1 PUSH1 0x40 ADD PUSH1 0x40 MSTORE DUP1 PUSH32 0x9992819934204932CC49E67CFF10F90AC320FDC88BE691EA008921E60D58120 DUP2 MSTORE PUSH1 0x20 ADD PUSH32 0x6C64281B9B231CBD813857A15C801FA02F85E5AEF171CBD5941F4FCFC4923F0 DUP2 MSTORE POP DUP2 MSTORE PUSH1 0x20 ADD PUSH1 0x40 MLOAD DUP1 PUSH1 0x40 ADD PUSH1 0x40 MSTORE DUP1 PUSH32 0x71396B02813C8319631EECD9798D6D974D5C2E9F54E405FE1EB4D2BE21E3494 DUP2 MSTORE PUSH1 0x20 ADD PUSH32 0xB01B3FCFA64394B3F9F516DC7348F3DBF5E4BBF2B94ABBB5BF8E1E7DC53B32F DUP2 MSTORE POP DUP2 MSTORE PUSH1 0x20 ADD PUSH1 0x40 MLOAD DUP1 PUSH1 0x40 ADD PUSH1 0x40 MSTORE DUP1 PUSH32 0x239981731452DE519D49338D61841CAF16C8F180A4B61027F1C17863717B7087 DUP2 MSTORE PUSH1 0x20 ADD PUSH32 0x270D770549EB8B5425FCCC8FE306191B45550E90723EE98311BD6C6A1AE793D9 DUP2 MSTORE POP DUP2 MSTORE PUSH1 0x20 ADD PUSH1 0x40 MLOAD DUP1 PUSH1 0x40 ADD PUSH1 0x40 MSTORE DUP1 PUSH32 0x749626812FD75117335746A2D8A0AEEAB686C26E0FD137F85FF8FF48EBE1FDF DUP2 MSTORE PUSH1 0x20 ADD PUSH32 0x405D496B14AA96146CB4CF73BC39371B553CD7B6C785FD0A73DBB5B7A5BE4E4 DUP2 MSTORE POP DUP2 MSTORE PUSH1 0x20 ADD PUSH1 0x40 MLOAD DUP1 PUSH1 0x40 ADD PUSH1 0x40 MSTORE DUP1 PUSH32 0xC7B84AEA3F412324064723BF4C9C03D965F6D9BF17A399962D40A009D5E4BE6 DUP2 MSTORE PUSH1 0x20 ADD PUSH32 0xA243C95D3DF3B02C445D9A504F0BFF0CE811E6B7CFE6DCB6695396618A4C352 DUP2 MSTORE POP DUP2 MSTORE PUSH1 0x20 ADD PUSH1 0x40 MLOAD DUP1 PUSH1 0x40 ADD PUSH1 0x40 MSTORE DUP1 PUSH32 0x2A45764D9F06457964E4C6711369289C89A43C11683F81B148E8B328E4C22C7D DUP2 MSTORE PUSH1 0x20 ADD PUSH32 0x22F581C3C68B3C206143E97690FB5AC27C46F0EE46A17AB731F27700702B281C DUP2 MSTORE POP DUP2 MSTORE PUSH1 0x20 ADD PUSH1 0x40 MLOAD DUP1 PUSH1 0x40 ADD PUSH1 0x40 MSTORE DUP1 PUSH32 0x2C8CD3D61F5A6C13997098C83919F769EF00A728B7462DADF61E3B0B84D546F2 DUP2 MSTORE PUSH1 0x20 ADD PUSH32 0xC0B38E698724FC90935B8A9F4064A1D38BCF5F21A8D31407CC0C8F10591D637 DUP2 MSTORE POP DUP2 MSTORE PUSH1 0x20 ADD PUSH1 0x40 MLOAD DUP1 PUSH1 0x40 ADD PUSH1 0x40 MSTORE DUP1 PUSH32 0x22BCC14FC05A041DB1F726228C25A10B0106FEC796BDD388A844061C49B5B779 DUP2 MSTORE PUSH1 0x20 ADD PUSH32 0x1FFBDE35E089F0CA23DAF9AFB0EF1B06F5D23A9301609AB2ACEB3C313EBB0BA DUP2 MSTORE POP DUP2 MSTORE PUSH1 0x20 ADD PUSH1 0x40 MLOAD DUP1 PUSH1 0x40 ADD PUSH1 0x40 MSTORE DUP1 PUSH32 0xFB1DF728484DC24BFBDF422E7C56DCFE3045E87347BE1E6A4CB045B2B91B909 DUP2 MSTORE PUSH1 0x20 ADD PUSH32 0x1EFC1252647C0B54202356DF5CE8AC3913893C63C275B66A0E8FD91F30879406 DUP2 MSTORE POP DUP2 MSTORE PUSH1 0x20 ADD PUSH1 0x40 MLOAD DUP1 PUSH1 0x40 ADD PUSH1 0x40 MSTORE DUP1 PUSH32 0x2EBAF079711E4CB519DE30A21C58B8C97C4D6E3394E173DC511BEDD586AC1940 DUP2 MSTORE PUSH1 0x20 ADD PUSH32 0x18804EFA23A06D9217D2ED683D343CED6BEFFE071ED2812604112CEDA07A1078 DUP2 MSTORE POP DUP2 MSTORE PUSH1 0x20 ADD PUSH1 0x40 MLOAD DUP1 PUSH1 0x40 ADD PUSH1 0x40 MSTORE DUP1 PUSH32 0x2B37631A3D9CBFAC8F5F7492FCFD4F44D0FD2ADD2F1C6AE587BEE7D24F060572 DUP2 MSTORE PUSH1 0x20 ADD PUSH32 0x100000000000000000000000000000000000000000000000000000000000000 DUP2 MSTORE POP DUP2 MSTORE POP SWAP1 POP DUP1 SWAP2 POP POP SWAP1 JUMP JUMPDEST PUSH2 0x1FE7 PUSH2 0x6617 JUMP JUMPDEST PUSH1 0x80 DUP4 DUP4 SWAP1 POP EQ PUSH2 0x202D JUMPI PUSH1 0x40 MLOAD PUSH32 0x8C379A000000000000000000000000000000000000000000000000000000000 DUP2 MSTORE PUSH1 0x4 ADD PUSH2 0x2024 SWAP1 PUSH2 0x6DC8 JUMP JUMPDEST PUSH1 0x40 MLOAD DUP1 SWAP2 SUB SWAP1 REVERT JUMPDEST PUSH1 0x40 MLOAD DUP1 PUSH1 0x80 ADD PUSH1 0x40 MSTORE DUP1 DUP5 DUP5 PUSH1 0x0 SWAP1 PUSH1 0x20 SWAP3 PUSH2 0x204C SWAP4 SWAP3 SWAP2 SWAP1 PUSH2 0x6C51 JUMP JUMPDEST SWAP1 PUSH2 0x2057 SWAP2 SWAP1 PUSH2 0x6E0A JUMP JUMPDEST PUSH1 0x0 SHR DUP2 MSTORE PUSH1 0x20 ADD DUP5 DUP5 PUSH1 0x20 SWAP1 PUSH1 0x40 SWAP3 PUSH2 0x2073 SWAP4 SWAP3 SWAP2 SWAP1 PUSH2 0x6C51 JUMP JUMPDEST SWAP1 PUSH2 0x207E SWAP2 SWAP1 PUSH2 0x6E0A JUMP JUMPDEST PUSH1 0x0 SHR DUP2 MSTORE PUSH1 0x20 ADD DUP5 DUP5 PUSH1 0x40 SWAP1 PUSH1 0x60 SWAP3 PUSH2 0x209A SWAP4 SWAP3 SWAP2 SWAP1 PUSH2 0x6C51 JUMP JUMPDEST SWAP1 PUSH2 0x20A5 SWAP2 SWAP1 PUSH2 0x6E0A JUMP JUMPDEST PUSH1 0x0 SHR DUP2 MSTORE PUSH1 0x20 ADD DUP5 DUP5 PUSH1 0x60 SWAP1 PUSH1 0x80 SWAP3 PUSH2 0x20C1 SWAP4 SWAP3 SWAP2 SWAP1 PUSH2 0x6C51 JUMP JUMPDEST SWAP1 PUSH2 0x20CC SWAP2 SWAP1 PUSH2 0x6E0A JUMP JUMPDEST PUSH1 0x0 SHR DUP2 MSTORE POP SWAP1 POP SWAP3 SWAP2 POP POP JUMP JUMPDEST PUSH1 0x0 PUSH1 0x20 DUP4 DUP4 SWAP1 POP EQ PUSH2 0x2122 JUMPI PUSH1 0x40 MLOAD PUSH32 0x8C379A000000000000000000000000000000000000000000000000000000000 DUP2 MSTORE PUSH1 0x4 ADD PUSH2 0x2119 SWAP1 PUSH2 0x6EB5 JUMP JUMPDEST PUSH1 0x40 MLOAD DUP1 SWAP2 SUB SWAP1 REVERT JUMPDEST PUSH2 0x2137 DUP4 DUP4 SWAP1 PUSH2 0x2132 SWAP2 SWAP1 PUSH2 0x6E0A JUMP JUMPDEST PUSH2 0x2C39 JUMP JUMPDEST SWAP1 POP SWAP3 SWAP2 POP POP JUMP JUMPDEST PUSH2 0x2147 PUSH2 0x663F JUMP JUMPDEST PUSH1 0x0 PUSH2 0x2157 DUP10 DUP10 DUP10 DUP10 DUP10 DUP10 PUSH2 0x35B1 JUMP JUMPDEST DUP6 PUSH1 0x0 ADD DUP7 PUSH1 0x20 ADD DUP8 PUSH1 0x40 ADD DUP4 SWAP10 POP DUP5 DUP2 MSTORE POP DUP5 DUP2 MSTORE POP DUP5 DUP2 MSTORE POP POP POP POP POP PUSH2 0x2180 DUP4 DUP11 PUSH2 0x3A93 JUMP JUMPDEST DUP5 PUSH1 0x60 ADD DUP6 PUSH1 0x80 ADD DUP3 SWAP6 POP DUP4 DUP2 MSTORE POP DUP4 DUP2 MSTORE POP POP POP POP SWAP8 POP SWAP8 SWAP6 POP POP POP POP POP POP JUMP JUMPDEST PUSH2 0x21AA PUSH2 0x6675 JUMP JUMPDEST PUSH1 0x0 PUSH2 0x21B4 PUSH2 0x6698 JUMP JUMPDEST DUP5 DUP2 PUSH1 0x0 PUSH1 0x9 DUP2 LT PUSH2 0x21C9 JUMPI PUSH2 0x21C8 PUSH2 0x6CC0 JUMP JUMPDEST JUMPDEST PUSH1 0x20 MUL ADD DUP2 DUP2 MSTORE POP POP DUP4 PUSH1 0xE0 ADD MLOAD PUSH1 0x0 ADD MLOAD DUP2 PUSH1 0x1 PUSH1 0x9 DUP2 LT PUSH2 0x21EF JUMPI PUSH2 0x21EE PUSH2 0x6CC0 JUMP JUMPDEST JUMPDEST PUSH1 0x20 MUL ADD DUP2 DUP2 MSTORE POP POP DUP4 PUSH1 0xE0 ADD MLOAD PUSH1 0x20 ADD MLOAD DUP2 PUSH1 0x2 PUSH1 0x9 DUP2 LT PUSH2 0x2215 JUMPI PUSH2 0x2214 PUSH2 0x6CC0 JUMP JUMPDEST JUMPDEST PUSH1 0x20 MUL ADD DUP2 DUP2 MSTORE POP POP DUP4 PUSH1 0xE0 ADD MLOAD PUSH1 0x40 ADD MLOAD DUP2 PUSH1 0x3 PUSH1 0x9 DUP2 LT PUSH2 0x223B JUMPI PUSH2 0x223A PUSH2 0x6CC0 JUMP JUMPDEST JUMPDEST PUSH1 0x20 MUL ADD DUP2 DUP2 MSTORE POP POP DUP4 PUSH1 0xE0 ADD MLOAD PUSH1 0x60 ADD MLOAD DUP2 PUSH1 0x4 PUSH1 0x9 DUP2 LT PUSH2 0x2261 JUMPI PUSH2 0x2260 PUSH2 0x6CC0 JUMP JUMPDEST JUMPDEST PUSH1 0x20 MUL ADD DUP2 DUP2 MSTORE POP POP DUP4 PUSH1 0x80 ADD MLOAD PUSH1 0x0 ADD MLOAD DUP2 PUSH1 0x5 PUSH1 0x9 DUP2 LT PUSH2 0x2287 JUMPI PUSH2 0x2286 PUSH2 0x6CC0 JUMP JUMPDEST JUMPDEST PUSH1 0x20 MUL ADD DUP2 DUP2 MSTORE POP POP DUP4 PUSH1 0x80 ADD MLOAD PUSH1 0x20 ADD MLOAD DUP2 PUSH1 0x6 PUSH1 0x9 DUP2 LT PUSH2 0x22AD JUMPI PUSH2 0x22AC PUSH2 0x6CC0 JUMP JUMPDEST JUMPDEST PUSH1 0x20 MUL ADD DUP2 DUP2 MSTORE POP POP DUP4 PUSH1 0x80 ADD MLOAD PUSH1 0x40 ADD MLOAD DUP2 PUSH1 0x7 PUSH1 0x9 DUP2 LT PUSH2 0x22D3 JUMPI PUSH2 0x22D2 PUSH2 0x6CC0 JUMP JUMPDEST JUMPDEST PUSH1 0x20 MUL ADD DUP2 DUP2 MSTORE POP POP DUP4 PUSH1 0x80 ADD MLOAD PUSH1 0x60 ADD MLOAD DUP2 PUSH1 0x8 PUSH1 0x9 DUP2 LT PUSH2 0x22F9 JUMPI PUSH2 0x22F8 PUSH2 0x6CC0 JUMP JUMPDEST JUMPDEST PUSH1 0x20 MUL ADD DUP2 DUP2 MSTORE POP POP PUSH2 0x2331 DUP2 PUSH1 0x40 MLOAD PUSH1 0x20 ADD PUSH2 0x2316 SWAP2 SWAP1 PUSH2 0x6F80 JUMP JUMPDEST PUSH1 0x40 MLOAD PUSH1 0x20 DUP2 DUP4 SUB SUB DUP2 MSTORE SWAP1 PUSH1 0x40 MSTORE DUP1 MLOAD SWAP1 PUSH1 0x20 ADD KECCAK256 PUSH2 0x2C39 JUMP JUMPDEST SWAP2 POP PUSH2 0x233C DUP3 PUSH2 0x3CFC JUMP JUMPDEST DUP5 PUSH1 0x0 PUSH1 0x19 DUP2 LT PUSH2 0x2350 JUMPI PUSH2 0x234F PUSH2 0x6CC0 JUMP JUMPDEST JUMPDEST PUSH1 0x20 MUL ADD DUP6 PUSH1 0x1 PUSH1 0x19 DUP2 LT PUSH2 0x2368 JUMPI PUSH2 0x2367 PUSH2 0x6CC0 JUMP JUMPDEST JUMPDEST PUSH1 0x20 MUL ADD DUP3 DUP2 MSTORE POP DUP3 DUP2 MSTORE POP POP POP PUSH1 0x0 PUSH1 0x1 SWAP1 POP JUMPDEST PUSH1 0x2 PUSH1 0x19 PUSH2 0x238B SWAP2 SWAP1 PUSH2 0x6FCB JUMP JUMPDEST DUP2 LT ISZERO PUSH2 0x2435 JUMPI PUSH2 0x23C1 DUP4 PUSH1 0x40 MLOAD PUSH1 0x20 ADD PUSH2 0x23A6 SWAP2 SWAP1 PUSH2 0x701D JUMP JUMPDEST PUSH1 0x40 MLOAD PUSH1 0x20 DUP2 DUP4 SUB SUB DUP2 MSTORE SWAP1 PUSH1 0x40 MSTORE DUP1 MLOAD SWAP1 PUSH1 0x20 ADD KECCAK256 PUSH2 0x2C39 JUMP JUMPDEST SWAP3 POP PUSH2 0x23CC DUP4 PUSH2 0x3CFC JUMP JUMPDEST DUP6 DUP4 PUSH1 0x2 PUSH2 0x23DA SWAP2 SWAP1 PUSH2 0x6C05 JUMP JUMPDEST PUSH1 0x19 DUP2 LT PUSH2 0x23EB JUMPI PUSH2 0x23EA PUSH2 0x6CC0 JUMP JUMPDEST JUMPDEST PUSH1 0x20 MUL ADD DUP7 PUSH1 0x1 DUP6 PUSH1 0x2 PUSH2 0x23FF SWAP2 SWAP1 PUSH2 0x6C05 JUMP JUMPDEST PUSH2 0x2409 SWAP2 SWAP1 PUSH2 0x6C8C JUMP JUMPDEST PUSH1 0x19 DUP2 LT PUSH2 0x241A JUMPI PUSH2 0x2419 PUSH2 0x6CC0 JUMP JUMPDEST JUMPDEST PUSH1 0x20 MUL ADD DUP3 DUP2 MSTORE POP DUP3 DUP2 MSTORE POP POP POP DUP1 DUP1 PUSH1 0x1 ADD SWAP2 POP POP PUSH2 0x237D JUMP JUMPDEST POP PUSH1 0x1 DUP1 PUSH1 0x19 AND EQ DUP1 ISZERO PUSH2 0x244A JUMPI POP PUSH1 0x2 PUSH1 0x19 GT JUMPDEST ISZERO PUSH2 0x24BA JUMPI PUSH2 0x247E DUP3 PUSH1 0x40 MLOAD PUSH1 0x20 ADD PUSH2 0x2463 SWAP2 SWAP1 PUSH2 0x701D JUMP JUMPDEST PUSH1 0x40 MLOAD PUSH1 0x20 DUP2 DUP4 SUB SUB DUP2 MSTORE SWAP1 PUSH1 0x40 MSTORE DUP1 MLOAD SWAP1 PUSH1 0x20 ADD KECCAK256 PUSH2 0x2C39 JUMP JUMPDEST SWAP2 POP PUSH1 0x0 PUSH2 0x248B DUP4 PUSH2 0x3CFC JUMP JUMPDEST DUP6 PUSH1 0x1 PUSH1 0x19 PUSH2 0x249A SWAP2 SWAP1 PUSH2 0x6CEF JUMP JUMPDEST PUSH1 0x19 DUP2 LT PUSH2 0x24AB JUMPI PUSH2 0x24AA PUSH2 0x6CC0 JUMP JUMPDEST JUMPDEST PUSH1 0x20 MUL ADD DUP2 SWAP4 POP DUP3 DUP2 MSTORE POP POP POP POP JUMPDEST POP SWAP3 POP SWAP3 SWAP1 POP JUMP JUMPDEST PUSH2 0x24CA PUSH2 0x66BB JUMP JUMPDEST PUSH1 0x0 DUP1 PUSH1 0x0 SWAP1 POP JUMPDEST PUSH1 0x1C DUP2 LT ISZERO PUSH2 0x2545 JUMPI PUSH2 0x250A DUP5 PUSH1 0x40 MLOAD PUSH1 0x20 ADD PUSH2 0x24EF SWAP2 SWAP1 PUSH2 0x701D JUMP JUMPDEST PUSH1 0x40 MLOAD PUSH1 0x20 DUP2 DUP4 SUB SUB DUP2 MSTORE SWAP1 PUSH1 0x40 MSTORE DUP1 MLOAD SWAP1 PUSH1 0x20 ADD KECCAK256 PUSH2 0x2C39 JUMP JUMPDEST SWAP4 POP PUSH1 0x0 PUSH2 0x2517 DUP6 PUSH2 0x3CFC JUMP JUMPDEST DUP6 DUP5 PUSH1 0x1C DUP2 LT PUSH2 0x252A JUMPI PUSH2 0x2529 PUSH2 0x6CC0 JUMP JUMPDEST JUMPDEST PUSH1 0x20 MUL ADD DUP2 SWAP4 POP DUP3 DUP2 MSTORE POP POP POP POP DUP1 DUP1 PUSH1 0x1 ADD SWAP2 POP POP PUSH2 0x24D2 JUMP JUMPDEST POP DUP3 SWAP1 POP SWAP2 POP SWAP2 JUMP JUMPDEST PUSH2 0x2556 PUSH2 0x66BB JUMP JUMPDEST PUSH1 0x0 DUP1 PUSH1 0x0 SWAP1 POP JUMPDEST PUSH1 0x1C DUP2 LT ISZERO PUSH2 0x266E JUMPI PUSH2 0x256F PUSH2 0x66DE JUMP JUMPDEST DUP5 DUP2 PUSH1 0x0 PUSH1 0x9 DUP2 LT PUSH2 0x2584 JUMPI PUSH2 0x2583 PUSH2 0x6CC0 JUMP JUMPDEST JUMPDEST PUSH1 0x20 MUL ADD DUP2 DUP2 MSTORE POP POP PUSH1 0x0 JUMPDEST PUSH1 0x8 DUP2 LT ISZERO PUSH2 0x2602 JUMPI DUP7 PUSH2 0x100 ADD MLOAD DUP4 PUSH1 0x1C DUP2 LT PUSH2 0x25B1 JUMPI PUSH2 0x25B0 PUSH2 0x6CC0 JUMP JUMPDEST JUMPDEST PUSH1 0x20 MUL ADD MLOAD DUP2 PUSH1 0x8 DUP2 LT PUSH2 0x25C8 JUMPI PUSH2 0x25C7 PUSH2 0x6CC0 JUMP JUMPDEST JUMPDEST PUSH1 0x20 MUL ADD MLOAD DUP3 PUSH1 0x1 DUP4 PUSH2 0x25DB SWAP2 SWAP1 PUSH2 0x6C8C JUMP JUMPDEST PUSH1 0x9 DUP2 LT PUSH2 0x25EC JUMPI PUSH2 0x25EB PUSH2 0x6CC0 JUMP JUMPDEST JUMPDEST PUSH1 0x20 MUL ADD DUP2 DUP2 MSTORE POP POP DUP1 DUP1 PUSH1 0x1 ADD SWAP2 POP POP PUSH2 0x2590 JUMP JUMPDEST POP PUSH2 0x2632 DUP2 PUSH1 0x40 MLOAD PUSH1 0x20 ADD PUSH2 0x2617 SWAP2 SWAP1 PUSH2 0x7104 JUMP JUMPDEST PUSH1 0x40 MLOAD PUSH1 0x20 DUP2 DUP4 SUB SUB DUP2 MSTORE SWAP1 PUSH1 0x40 MSTORE DUP1 MLOAD SWAP1 PUSH1 0x20 ADD KECCAK256 PUSH2 0x2C39 JUMP JUMPDEST SWAP5 POP PUSH1 0x0 PUSH2 0x263F DUP7 PUSH2 0x3CFC JUMP JUMPDEST DUP7 DUP6 PUSH1 0x1C DUP2 LT PUSH2 0x2652 JUMPI PUSH2 0x2651 PUSH2 0x6CC0 JUMP JUMPDEST JUMPDEST PUSH1 0x20 MUL ADD DUP2 SWAP4 POP DUP3 DUP2 MSTORE POP POP POP POP POP DUP1 DUP1 PUSH1 0x1 ADD SWAP2 POP POP PUSH2 0x255E JUMP JUMPDEST POP DUP3 SWAP1 POP SWAP3 POP SWAP3 SWAP1 POP JUMP JUMPDEST PUSH1 0x0 DUP1 PUSH2 0x2684 PUSH2 0x6701 JUMP JUMPDEST DUP4 DUP2 PUSH1 0x0 PUSH1 0x29 DUP2 LT PUSH2 0x2699 JUMPI PUSH2 0x2698 PUSH2 0x6CC0 JUMP JUMPDEST JUMPDEST PUSH1 0x20 MUL ADD DUP2 DUP2 MSTORE POP POP PUSH1 0x0 JUMPDEST PUSH1 0x28 DUP2 LT ISZERO PUSH2 0x2700 JUMPI DUP6 PUSH2 0x120 ADD MLOAD DUP2 PUSH1 0x28 DUP2 LT PUSH2 0x26C6 JUMPI PUSH2 0x26C5 PUSH2 0x6CC0 JUMP JUMPDEST JUMPDEST PUSH1 0x20 MUL ADD MLOAD DUP3 PUSH1 0x1 DUP4 PUSH2 0x26D9 SWAP2 SWAP1 PUSH2 0x6C8C JUMP JUMPDEST PUSH1 0x29 DUP2 LT PUSH2 0x26EA JUMPI PUSH2 0x26E9 PUSH2 0x6CC0 JUMP JUMPDEST JUMPDEST PUSH1 0x20 MUL ADD DUP2 DUP2 MSTORE POP POP DUP1 DUP1 PUSH1 0x1 ADD SWAP2 POP POP PUSH2 0x26A5 JUMP JUMPDEST POP PUSH2 0x2730 DUP2 PUSH1 0x40 MLOAD PUSH1 0x20 ADD PUSH2 0x2715 SWAP2 SWAP1 PUSH2 0x71A4 JUMP JUMPDEST PUSH1 0x40 MLOAD PUSH1 0x20 DUP2 DUP4 SUB SUB DUP2 MSTORE SWAP1 PUSH1 0x40 MSTORE DUP1 MLOAD SWAP1 PUSH1 0x20 ADD KECCAK256 PUSH2 0x2C39 JUMP JUMPDEST SWAP2 POP PUSH1 0x0 PUSH2 0x273D DUP4 PUSH2 0x3CFC JUMP JUMPDEST DUP1 SWAP3 POP DUP2 SWAP6 POP POP POP POP POP SWAP3 POP SWAP3 SWAP1 POP JUMP JUMPDEST PUSH1 0x0 DUP1 PUSH2 0x2759 PUSH2 0x6724 JUMP JUMPDEST DUP4 DUP2 PUSH1 0x0 PUSH1 0x6D DUP2 LT PUSH2 0x276E JUMPI PUSH2 0x276D PUSH2 0x6CC0 JUMP JUMPDEST JUMPDEST PUSH1 0x20 MUL ADD DUP2 DUP2 MSTORE POP POP PUSH1 0x0 JUMPDEST PUSH1 0x1 PUSH1 0x1C PUSH2 0x2788 SWAP2 SWAP1 PUSH2 0x6CEF JUMP JUMPDEST DUP2 LT ISZERO PUSH2 0x28F0 JUMPI DUP6 PUSH2 0x140 ADD MLOAD DUP2 PUSH1 0x1B DUP2 LT PUSH2 0x27A7 JUMPI PUSH2 0x27A6 PUSH2 0x6CC0 JUMP JUMPDEST JUMPDEST PUSH1 0x20 MUL ADD MLOAD PUSH1 0x0 ADD MLOAD DUP3 PUSH1 0x4 DUP4 PUSH2 0x27BE SWAP2 SWAP1 PUSH2 0x6C05 JUMP JUMPDEST PUSH1 0x1 PUSH2 0x27CA SWAP2 SWAP1 PUSH2 0x6C8C JUMP JUMPDEST PUSH1 0x6D DUP2 LT PUSH2 0x27DB JUMPI PUSH2 0x27DA PUSH2 0x6CC0 JUMP JUMPDEST JUMPDEST PUSH1 0x20 MUL ADD DUP2 DUP2 MSTORE POP POP DUP6 PUSH2 0x140 ADD MLOAD DUP2 PUSH1 0x1B DUP2 LT PUSH2 0x27FC JUMPI PUSH2 0x27FB PUSH2 0x6CC0 JUMP JUMPDEST JUMPDEST PUSH1 0x20 MUL ADD MLOAD PUSH1 0x20 ADD MLOAD DUP3 PUSH1 0x4 DUP4 PUSH2 0x2813 SWAP2 SWAP1 PUSH2 0x6C05 JUMP JUMPDEST PUSH1 0x2 PUSH2 0x281F SWAP2 SWAP1 PUSH2 0x6C8C JUMP JUMPDEST PUSH1 0x6D DUP2 LT PUSH2 0x2830 JUMPI PUSH2 0x282F PUSH2 0x6CC0 JUMP JUMPDEST JUMPDEST PUSH1 0x20 MUL ADD DUP2 DUP2 MSTORE POP POP DUP6 PUSH2 0x140 ADD MLOAD DUP2 PUSH1 0x1B DUP2 LT PUSH2 0x2851 JUMPI PUSH2 0x2850 PUSH2 0x6CC0 JUMP JUMPDEST JUMPDEST PUSH1 0x20 MUL ADD MLOAD PUSH1 0x40 ADD MLOAD DUP3 PUSH1 0x4 DUP4 PUSH2 0x2868 SWAP2 SWAP1 PUSH2 0x6C05 JUMP JUMPDEST PUSH1 0x3 PUSH2 0x2874 SWAP2 SWAP1 PUSH2 0x6C8C JUMP JUMPDEST PUSH1 0x6D DUP2 LT PUSH2 0x2885 JUMPI PUSH2 0x2884 PUSH2 0x6CC0 JUMP JUMPDEST JUMPDEST PUSH1 0x20 MUL ADD DUP2 DUP2 MSTORE POP POP DUP6 PUSH2 0x140 ADD MLOAD DUP2 PUSH1 0x1B DUP2 LT PUSH2 0x28A6 JUMPI PUSH2 0x28A5 PUSH2 0x6CC0 JUMP JUMPDEST JUMPDEST PUSH1 0x20 MUL ADD MLOAD PUSH1 0x60 ADD MLOAD DUP3 PUSH1 0x4 DUP4 PUSH2 0x28BD SWAP2 SWAP1 PUSH2 0x6C05 JUMP JUMPDEST PUSH1 0x4 PUSH2 0x28C9 SWAP2 SWAP1 PUSH2 0x6C8C JUMP JUMPDEST PUSH1 0x6D DUP2 LT PUSH2 0x28DA JUMPI PUSH2 0x28D9 PUSH2 0x6CC0 JUMP JUMPDEST JUMPDEST PUSH1 0x20 MUL ADD DUP2 DUP2 MSTORE POP POP DUP1 DUP1 PUSH1 0x1 ADD SWAP2 POP POP PUSH2 0x277A JUMP JUMPDEST POP PUSH2 0x2920 DUP2 PUSH1 0x40 MLOAD PUSH1 0x20 ADD PUSH2 0x2905 SWAP2 SWAP1 PUSH2 0x7244 JUMP JUMPDEST PUSH1 0x40 MLOAD PUSH1 0x20 DUP2 DUP4 SUB SUB DUP2 MSTORE SWAP1 PUSH1 0x40 MSTORE DUP1 MLOAD SWAP1 PUSH1 0x20 ADD KECCAK256 PUSH2 0x2C39 JUMP JUMPDEST SWAP2 POP PUSH1 0x0 PUSH2 0x292D DUP4 PUSH2 0x3CFC JUMP JUMPDEST DUP1 SWAP3 POP DUP2 SWAP6 POP POP POP POP POP SWAP3 POP SWAP3 SWAP1 POP JUMP JUMPDEST PUSH1 0x0 DUP1 PUSH2 0x2949 PUSH2 0x6747 JUMP JUMPDEST DUP4 DUP2 PUSH1 0x0 PUSH1 0x1D DUP2 LT PUSH2 0x295E JUMPI PUSH2 0x295D PUSH2 0x6CC0 JUMP JUMPDEST JUMPDEST PUSH1 0x20 MUL ADD DUP2 DUP2 MSTORE POP POP PUSH1 0x0 JUMPDEST PUSH1 0x1C DUP2 LT ISZERO PUSH2 0x29C5 JUMPI DUP6 PUSH2 0x160 ADD MLOAD DUP2 PUSH1 0x1C DUP2 LT PUSH2 0x298B JUMPI PUSH2 0x298A PUSH2 0x6CC0 JUMP JUMPDEST JUMPDEST PUSH1 0x20 MUL ADD MLOAD DUP3 PUSH1 0x1 DUP4 PUSH2 0x299E SWAP2 SWAP1 PUSH2 0x6C8C JUMP JUMPDEST PUSH1 0x1D DUP2 LT PUSH2 0x29AF JUMPI PUSH2 0x29AE PUSH2 0x6CC0 JUMP JUMPDEST JUMPDEST PUSH1 0x20 MUL ADD DUP2 DUP2 MSTORE POP POP DUP1 DUP1 PUSH1 0x1 ADD SWAP2 POP POP PUSH2 0x296A JUMP JUMPDEST POP PUSH2 0x29F5 DUP2 PUSH1 0x40 MLOAD PUSH1 0x20 ADD PUSH2 0x29DA SWAP2 SWAP1 PUSH2 0x72E4 JUMP JUMPDEST PUSH1 0x40 MLOAD PUSH1 0x20 DUP2 DUP4 SUB SUB DUP2 MSTORE SWAP1 PUSH1 0x40 MSTORE DUP1 MLOAD SWAP1 PUSH1 0x20 ADD KECCAK256 PUSH2 0x2C39 JUMP JUMPDEST SWAP2 POP PUSH1 0x0 PUSH2 0x2A02 DUP4 PUSH2 0x3CFC JUMP JUMPDEST DUP1 SWAP3 POP DUP2 SWAP6 POP POP POP POP POP SWAP3 POP SWAP3 SWAP1 POP JUMP JUMPDEST PUSH1 0x0 DUP1 PUSH2 0x2A1E PUSH2 0x676A JUMP JUMPDEST DUP4 DUP2 PUSH1 0x0 PUSH1 0x5 DUP2 LT PUSH2 0x2A33 JUMPI PUSH2 0x2A32 PUSH2 0x6CC0 JUMP JUMPDEST JUMPDEST PUSH1 0x20 MUL ADD DUP2 DUP2 MSTORE POP POP DUP5 PUSH2 0x180 ADD MLOAD PUSH1 0x0 ADD MLOAD DUP2 PUSH1 0x1 PUSH1 0x5 DUP2 LT PUSH2 0x2A5A JUMPI PUSH2 0x2A59 PUSH2 0x6CC0 JUMP JUMPDEST JUMPDEST PUSH1 0x20 MUL ADD DUP2 DUP2 MSTORE POP POP DUP5 PUSH2 0x180 ADD MLOAD PUSH1 0x20 ADD MLOAD DUP2 PUSH1 0x2 PUSH1 0x5 DUP2 LT PUSH2 0x2A81 JUMPI PUSH2 0x2A80 PUSH2 0x6CC0 JUMP JUMPDEST JUMPDEST PUSH1 0x20 MUL ADD DUP2 DUP2 MSTORE POP POP DUP5 PUSH2 0x180 ADD MLOAD PUSH1 0x40 ADD MLOAD DUP2 PUSH1 0x3 PUSH1 0x5 DUP2 LT PUSH2 0x2AA8 JUMPI PUSH2 0x2AA7 PUSH2 0x6CC0 JUMP JUMPDEST JUMPDEST PUSH1 0x20 MUL ADD DUP2 DUP2 MSTORE POP POP DUP5 PUSH2 0x180 ADD MLOAD PUSH1 0x60 ADD MLOAD DUP2 PUSH1 0x4 PUSH1 0x5 DUP2 LT PUSH2 0x2ACF JUMPI PUSH2 0x2ACE PUSH2 0x6CC0 JUMP JUMPDEST JUMPDEST PUSH1 0x20 MUL ADD DUP2 DUP2 MSTORE POP POP PUSH2 0x2B07 DUP2 PUSH1 0x40 MLOAD PUSH1 0x20 ADD PUSH2 0x2AEC SWAP2 SWAP1 PUSH2 0x7384 JUMP JUMPDEST PUSH1 0x40 MLOAD PUSH1 0x20 DUP2 DUP4 SUB SUB DUP2 MSTORE SWAP1 PUSH1 0x40 MSTORE DUP1 MLOAD SWAP1 PUSH1 0x20 ADD KECCAK256 PUSH2 0x2C39 JUMP JUMPDEST SWAP2 POP PUSH1 0x0 PUSH2 0x2B14 DUP4 PUSH2 0x3CFC JUMP JUMPDEST DUP1 SWAP3 POP DUP2 SWAP6 POP POP POP POP POP SWAP3 POP SWAP3 SWAP1 POP JUMP JUMPDEST PUSH1 0x0 PUSH32 0x30644E72E131A029B85045B68181585D2833E84879B9709143E1F593F0000001 DUP3 PUSH2 0x2B53 SWAP2 SWAP1 PUSH2 0x739F JUMP JUMPDEST SWAP1 POP SWAP2 SWAP1 POP JUMP JUMPDEST PUSH1 0x0 PUSH32 0x30644E72E131A029B85045B68181585D2833E84879B9709143E1F593F0000001 DUP1 PUSH2 0x2B8B JUMPI PUSH2 0x2B8A PUSH2 0x6F9C JUMP JUMPDEST JUMPDEST DUP3 DUP5 MULMOD SWAP1 POP SWAP3 SWAP2 POP POP JUMP JUMPDEST PUSH1 0x0 PUSH32 0x30644E72E131A029B85045B68181585D2833E84879B9709143E1F593F0000001 DUP1 PUSH2 0x2BC7 JUMPI PUSH2 0x2BC6 PUSH2 0x6F9C JUMP JUMPDEST JUMPDEST DUP3 DUP5 ADDMOD SWAP1 POP SWAP3 SWAP2 POP POP JUMP JUMPDEST PUSH1 0x0 PUSH32 0x30644E72E131A029B85045B68181585D2833E84879B9709143E1F593F0000001 DUP1 PUSH2 0x2C03 JUMPI PUSH2 0x2C02 PUSH2 0x6F9C JUMP JUMPDEST JUMPDEST DUP3 PUSH32 0x30644E72E131A029B85045B68181585D2833E84879B9709143E1F593F0000001 PUSH2 0x2C2F SWAP2 SWAP1 PUSH2 0x6CEF JUMP JUMPDEST DUP5 ADDMOD SWAP1 POP SWAP3 SWAP2 POP POP JUMP JUMPDEST PUSH1 0x0 PUSH32 0x30644E72E131A029B85045B68181585D2833E84879B9709143E1F593F0000001 DUP3 PUSH1 0x0 SHR PUSH2 0x2C6A SWAP2 SWAP1 PUSH2 0x739F JUMP JUMPDEST SWAP1 POP SWAP2 SWAP1 POP JUMP JUMPDEST PUSH1 0x0 PUSH2 0x2C85 DUP4 PUSH2 0x2C80 DUP5 PUSH2 0x3017 JUMP JUMPDEST PUSH2 0x2B5A JUMP JUMPDEST SWAP1 POP SWAP3 SWAP2 POP POP JUMP JUMPDEST PUSH1 0x0 DUP1 PUSH2 0x2CCA DUP5 PUSH1 0x0 PUSH1 0x8 DUP2 LT PUSH2 0x2CA7 JUMPI PUSH2 0x2CA6 PUSH2 0x6CC0 JUMP JUMPDEST JUMPDEST PUSH1 0x20 MUL ADD MLOAD DUP6 PUSH1 0x1 PUSH1 0x8 DUP2 LT PUSH2 0x2CC0 JUMPI PUSH2 0x2CBF PUSH2 0x6CC0 JUMP JUMPDEST JUMPDEST PUSH1 0x20 MUL ADD MLOAD PUSH2 0x2B96 JUMP JUMPDEST SWAP1 POP PUSH2 0x2CD6 DUP2 DUP5 PUSH2 0x2F7B JUMP JUMPDEST SWAP2 POP POP SWAP3 SWAP2 POP POP JUMP JUMPDEST PUSH1 0x0 DUP1 PUSH1 0x40 MLOAD DUP1 PUSH2 0x100 ADD PUSH1 0x40 MSTORE DUP1 PUSH32 0x30644E72E131A029B85045B68181585D2833E84879B9709143E1F593EFFFEC51 DUP2 MSTORE PUSH1 0x20 ADD PUSH2 0x2D0 DUP2 MSTORE PUSH1 0x20 ADD PUSH32 0x30644E72E131A029B85045B68181585D2833E84879B9709143E1F593EFFFFF11 DUP2 MSTORE PUSH1 0x20 ADD PUSH1 0x90 DUP2 MSTORE PUSH1 0x20 ADD PUSH32 0x30644E72E131A029B85045B68181585D2833E84879B9709143E1F593EFFFFF71 DUP2 MSTORE PUSH1 0x20 ADD PUSH1 0xF0 DUP2 MSTORE PUSH1 0x20 ADD PUSH32 0x30644E72E131A029B85045B68181585D2833E84879B9709143E1F593EFFFFD31 DUP2 MSTORE PUSH1 0x20 ADD PUSH2 0x13B0 DUP2 MSTORE POP SWAP1 POP PUSH1 0x0 PUSH1 0x1 SWAP1 POP PUSH1 0x0 JUMPDEST PUSH1 0x8 DUP2 LT ISZERO PUSH2 0x2DD6 JUMPI PUSH2 0x2DC9 DUP3 PUSH2 0x2DC4 DUP8 DUP5 PUSH2 0x2BD2 JUMP JUMPDEST PUSH2 0x2B5A JUMP JUMPDEST SWAP2 POP DUP1 PUSH1 0x1 ADD SWAP1 POP PUSH2 0x2DAD JUMP JUMPDEST POP PUSH2 0x2DDF PUSH2 0x678C JUMP JUMPDEST PUSH1 0x0 JUMPDEST PUSH1 0x8 DUP2 LT ISZERO PUSH2 0x2E50 JUMPI PUSH1 0x0 DUP5 DUP3 PUSH1 0x8 DUP2 LT PUSH2 0x2E00 JUMPI PUSH2 0x2DFF PUSH2 0x6CC0 JUMP JUMPDEST JUMPDEST PUSH1 0x20 MUL ADD MLOAD SWAP1 POP PUSH2 0x2E1A DUP2 PUSH2 0x2E15 DUP10 DUP6 PUSH2 0x2BD2 JUMP JUMPDEST PUSH2 0x2B5A JUMP JUMPDEST SWAP1 POP PUSH2 0x2E25 DUP2 PUSH2 0x3017 JUMP JUMPDEST SWAP1 POP DUP1 DUP4 DUP4 PUSH1 0x8 DUP2 LT PUSH2 0x2E3B JUMPI PUSH2 0x2E3A PUSH2 0x6CC0 JUMP JUMPDEST JUMPDEST PUSH1 0x20 MUL ADD DUP2 DUP2 MSTORE POP POP POP DUP1 PUSH1 0x1 ADD SWAP1 POP PUSH2 0x2DE2 JUMP JUMPDEST POP PUSH1 0x0 JUMPDEST PUSH1 0x8 DUP2 LT ISZERO PUSH2 0x2EB4 JUMPI PUSH1 0x0 DUP8 DUP3 PUSH1 0x8 DUP2 LT PUSH2 0x2E72 JUMPI PUSH2 0x2E71 PUSH2 0x6CC0 JUMP JUMPDEST JUMPDEST PUSH1 0x20 MUL ADD MLOAD SWAP1 POP PUSH2 0x2E9A DUP2 DUP5 DUP5 PUSH1 0x8 DUP2 LT PUSH2 0x2E90 JUMPI PUSH2 0x2E8F PUSH2 0x6CC0 JUMP JUMPDEST JUMPDEST PUSH1 0x20 MUL ADD MLOAD PUSH2 0x2B5A JUMP JUMPDEST SWAP1 POP PUSH2 0x2EA6 DUP7 DUP3 PUSH2 0x2B96 JUMP JUMPDEST SWAP6 POP POP DUP1 PUSH1 0x1 ADD SWAP1 POP PUSH2 0x2E54 JUMP JUMPDEST POP PUSH2 0x2EBF DUP5 DUP4 PUSH2 0x2B5A JUMP JUMPDEST SWAP4 POP POP POP POP SWAP3 SWAP2 POP POP JUMP JUMPDEST PUSH1 0x0 DUP1 PUSH2 0x2EEB PUSH1 0x1 PUSH2 0x2EE6 DUP6 PUSH2 0x2EE1 DUP10 PUSH1 0x1 PUSH2 0x2BD2 JUMP JUMPDEST PUSH2 0x2B5A JUMP JUMPDEST PUSH2 0x2B96 JUMP JUMPDEST SWAP1 POP PUSH2 0x2EF7 DUP5 DUP3 PUSH2 0x2B5A JUMP JUMPDEST SWAP2 POP POP SWAP4 SWAP3 POP POP POP JUMP JUMPDEST PUSH1 0x0 PUSH2 0x2F0B PUSH2 0x67AF JUMP JUMPDEST PUSH2 0x2F16 DUP7 DUP3 DUP6 PUSH2 0x3D48 JUMP JUMPDEST PUSH2 0x2F22 DUP7 DUP7 DUP4 DUP7 PUSH2 0x3F8D JUMP JUMPDEST PUSH2 0x2F2E DUP7 DUP7 DUP4 DUP7 PUSH2 0x4289 JUMP JUMPDEST PUSH2 0x2F39 DUP7 DUP3 DUP6 PUSH2 0x452F JUMP JUMPDEST PUSH2 0x2F44 DUP7 DUP3 DUP6 PUSH2 0x4807 JUMP JUMPDEST PUSH2 0x2F50 DUP7 DUP7 DUP4 DUP7 PUSH2 0x4C54 JUMP JUMPDEST PUSH2 0x2F5B DUP7 DUP3 DUP6 PUSH2 0x58EE JUMP JUMPDEST PUSH2 0x2F66 DUP7 DUP3 DUP6 PUSH2 0x5DAE JUMP JUMPDEST PUSH2 0x2F70 DUP2 DUP6 PUSH2 0x6201 JUMP JUMPDEST SWAP2 POP POP SWAP5 SWAP4 POP POP POP POP JUMP JUMPDEST PUSH1 0x0 DUP2 DUP4 EQ SWAP1 POP SWAP3 SWAP2 POP POP JUMP JUMPDEST PUSH2 0x2F90 PUSH2 0x66BB JUMP JUMPDEST DUP2 DUP2 PUSH1 0x0 PUSH1 0x1C DUP2 LT PUSH2 0x2FA5 JUMPI PUSH2 0x2FA4 PUSH2 0x6CC0 JUMP JUMPDEST JUMPDEST PUSH1 0x20 MUL ADD DUP2 DUP2 MSTORE POP POP PUSH1 0x0 PUSH1 0x1 SWAP1 POP JUMPDEST PUSH1 0x1C DUP2 LT ISZERO PUSH2 0x3011 JUMPI PUSH2 0x2FEA DUP3 PUSH1 0x1 DUP4 PUSH2 0x2FCF SWAP2 SWAP1 PUSH2 0x6CEF JUMP JUMPDEST PUSH1 0x1C DUP2 LT PUSH2 0x2FE0 JUMPI PUSH2 0x2FDF PUSH2 0x6CC0 JUMP JUMPDEST JUMPDEST PUSH1 0x20 MUL ADD MLOAD PUSH2 0x3276 JUMP JUMPDEST DUP3 DUP3 PUSH1 0x1C DUP2 LT PUSH2 0x2FFD JUMPI PUSH2 0x2FFC PUSH2 0x6CC0 JUMP JUMPDEST JUMPDEST PUSH1 0x20 MUL ADD DUP2 DUP2 MSTORE POP POP DUP1 PUSH1 0x1 ADD SWAP1 POP PUSH2 0x2FB5 JUMP JUMPDEST POP SWAP2 SWAP1 POP JUMP JUMPDEST PUSH1 0x0 DUP1 DUP3 SWAP1 POP PUSH1 0x0 PUSH1 0x40 MLOAD PUSH1 0x20 DUP2 MSTORE PUSH1 0x20 DUP1 DUP3 ADD MSTORE PUSH1 0x20 PUSH1 0x40 DUP3 ADD MSTORE DUP3 PUSH1 0x60 DUP3 ADD MSTORE PUSH1 0x2 PUSH32 0x30644E72E131A029B85045B68181585D2833E84879B9709143E1F593F0000001 SUB PUSH1 0x80 DUP3 ADD MSTORE PUSH32 0x30644E72E131A029B85045B68181585D2833E84879B9709143E1F593F0000001 PUSH1 0xA0 DUP3 ADD MSTORE PUSH1 0x20 PUSH1 0x0 PUSH1 0xC0 DUP4 PUSH1 0x5 GAS STATICCALL DUP1 PUSH2 0x309D JUMPI PUSH1 0x0 DUP1 REVERT JUMPDEST PUSH1 0x0 MLOAD SWAP3 POP POP POP DUP1 SWAP3 POP POP POP SWAP2 SWAP1 POP JUMP JUMPDEST PUSH2 0x30B6 PUSH2 0x67D2 JUMP JUMPDEST PUSH1 0x40 MLOAD DUP1 PUSH1 0x40 ADD PUSH1 0x40 MSTORE DUP1 PUSH1 0x88 DUP5 PUSH1 0x20 ADD MLOAD SWAP1 SHL DUP5 PUSH1 0x0 ADD MLOAD OR DUP2 MSTORE PUSH1 0x20 ADD PUSH1 0x88 DUP5 PUSH1 0x60 ADD MLOAD SWAP1 SHL DUP5 PUSH1 0x40 ADD MLOAD OR DUP2 MSTORE POP SWAP1 POP SWAP2 SWAP1 POP JUMP JUMPDEST PUSH1 0x0 DUP2 PUSH32 0x30644E72E131A029B85045B68181585D2833E84879B9709143E1F593F0000001 PUSH2 0x311C SWAP2 SWAP1 PUSH2 0x6CEF JUMP JUMPDEST SWAP1 POP SWAP2 SWAP1 POP JUMP JUMPDEST PUSH2 0x312B PUSH2 0x66BB JUMP JUMPDEST PUSH1 0x0 PUSH1 0x1C SWAP1 POP JUMPDEST PUSH1 0x0 DUP2 GT ISZERO PUSH2 0x326C JUMPI PUSH1 0x0 DUP5 PUSH1 0x1 DUP4 PUSH2 0x314B SWAP2 SWAP1 PUSH2 0x6CEF JUMP JUMPDEST PUSH1 0x1C DUP2 LT PUSH2 0x315C JUMPI PUSH2 0x315B PUSH2 0x6CC0 JUMP JUMPDEST JUMPDEST PUSH1 0x20 MUL ADD MLOAD SWAP1 POP PUSH1 0x0 DUP9 PUSH1 0x1 DUP5 PUSH2 0x3173 SWAP2 SWAP1 PUSH2 0x6CEF JUMP JUMPDEST PUSH1 0x1C DUP2 LT PUSH2 0x3184 JUMPI PUSH2 0x3183 PUSH2 0x6CC0 JUMP JUMPDEST JUMPDEST PUSH1 0x20 MUL ADD MLOAD SWAP1 POP PUSH1 0x0 PUSH2 0x31F2 PUSH2 0x31A4 PUSH2 0x319D DUP6 DUP13 PUSH2 0x2B5A JUMP JUMPDEST PUSH1 0x2 PUSH2 0x2B5A JUMP JUMPDEST PUSH2 0x31ED DUP11 PUSH1 0x1 DUP9 PUSH2 0x31B5 SWAP2 SWAP1 PUSH2 0x6CEF JUMP JUMPDEST PUSH1 0x1C DUP2 LT PUSH2 0x31C6 JUMPI PUSH2 0x31C5 PUSH2 0x6CC0 JUMP JUMPDEST JUMPDEST PUSH1 0x20 MUL ADD MLOAD PUSH2 0x31E8 PUSH2 0x31E2 DUP9 PUSH2 0x31DD PUSH1 0x1 DUP11 PUSH2 0x2BD2 JUMP JUMPDEST PUSH2 0x2B5A JUMP JUMPDEST DUP8 PUSH2 0x2BD2 JUMP JUMPDEST PUSH2 0x2B5A JUMP JUMPDEST PUSH2 0x2BD2 JUMP JUMPDEST SWAP1 POP PUSH2 0x3222 DUP2 PUSH2 0x321D PUSH2 0x3218 PUSH2 0x3212 DUP8 PUSH2 0x320D PUSH1 0x1 DUP10 PUSH2 0x2BD2 JUMP JUMPDEST PUSH2 0x2B5A JUMP JUMPDEST DUP7 PUSH2 0x2B96 JUMP JUMPDEST PUSH2 0x3017 JUMP JUMPDEST PUSH2 0x2B5A JUMP JUMPDEST SWAP1 POP DUP6 DUP5 GT PUSH2 0x3258 JUMPI DUP1 SWAP9 POP DUP1 DUP6 PUSH1 0x1 DUP7 PUSH2 0x323D SWAP2 SWAP1 PUSH2 0x6CEF JUMP JUMPDEST PUSH1 0x1C DUP2 LT PUSH2 0x324E JUMPI PUSH2 0x324D PUSH2 0x6CC0 JUMP JUMPDEST JUMPDEST PUSH1 0x20 MUL ADD DUP2 DUP2 MSTORE POP POP JUMPDEST POP POP POP DUP1 PUSH2 0x3265 SWAP1 PUSH2 0x73D0 JUMP JUMPDEST SWAP1 POP PUSH2 0x3132 JUMP JUMPDEST POP SWAP6 SWAP5 POP POP POP POP POP JUMP JUMPDEST PUSH1 0x0 PUSH2 0x3282 DUP3 DUP4 PUSH2 0x2B5A JUMP JUMPDEST SWAP1 POP SWAP2 SWAP1 POP JUMP JUMPDEST PUSH2 0x3291 PUSH2 0x67D2 JUMP JUMPDEST PUSH1 0x0 PUSH1 0x2 PUSH1 0x1C PUSH1 0x28 PUSH2 0x32A3 SWAP2 SWAP1 PUSH2 0x6C8C JUMP JUMPDEST PUSH2 0x32AD SWAP2 SWAP1 PUSH2 0x6C8C JUMP JUMPDEST SWAP1 POP PUSH1 0x1 PUSH1 0x40 MLOAD DUP6 MLOAD MLOAD PUSH1 0x40 DUP3 ADD MSTORE DUP6 MLOAD PUSH1 0x20 ADD MLOAD PUSH1 0x60 DUP3 ADD MSTORE DUP5 MLOAD PUSH1 0x80 DUP3 ADD MSTORE PUSH1 0x40 DUP2 PUSH1 0x60 PUSH1 0x40 DUP5 ADD PUSH1 0x7 GAS STATICCALL DUP3 AND SWAP2 POP PUSH1 0x1 JUMPDEST DUP4 DUP2 LT ISZERO PUSH2 0x333E JUMPI PUSH1 0x20 DUP2 MUL DUP8 ADD PUSH1 0x20 DUP3 MUL DUP8 ADD DUP2 MLOAD MLOAD PUSH1 0x40 DUP6 ADD MSTORE DUP2 MLOAD PUSH1 0x20 ADD MLOAD PUSH1 0x60 DUP6 ADD MSTORE DUP1 MLOAD PUSH1 0x80 DUP6 ADD MSTORE PUSH1 0x40 DUP1 DUP6 ADD PUSH1 0x60 PUSH1 0x40 DUP8 ADD PUSH1 0x7 GAS STATICCALL DUP6 AND SWAP5 POP PUSH1 0x40 DUP5 PUSH1 0x80 DUP7 PUSH1 0x6 GAS STATICCALL DUP6 AND SWAP5 POP POP POP PUSH1 0x1 DUP2 ADD SWAP1 POP PUSH2 0x32E2 JUMP JUMPDEST DUP2 MLOAD DUP6 MSTORE PUSH1 0x20 DUP3 ADD MLOAD PUSH1 0x20 DUP7 ADD MSTORE POP POP POP POP SWAP3 SWAP2 POP POP JUMP JUMPDEST PUSH2 0x335E PUSH2 0x67D2 JUMP JUMPDEST PUSH32 0x30644E72E131A029B85045B68181585D97816A916871CA8D3C208C16D87CFD47 DUP3 PUSH1 0x20 ADD MLOAD PUSH32 0x30644E72E131A029B85045B68181585D97816A916871CA8D3C208C16D87CFD47 PUSH2 0x33AF SWAP2 SWAP1 PUSH2 0x6CEF JUMP JUMPDEST PUSH2 0x33B9 SWAP2 SWAP1 PUSH2 0x739F JUMP JUMPDEST DUP3 PUSH1 0x20 ADD DUP2 DUP2 MSTORE POP POP DUP2 SWAP1 POP SWAP2 SWAP1 POP JUMP JUMPDEST PUSH1 0x0 DUP1 DUP4 PUSH1 0x0 ADD MLOAD DUP5 PUSH1 0x20 ADD MLOAD PUSH32 0x198E9393920D483A7260BFB731FB5D25F1AA493335A9E71297E485B7AEF312C2 PUSH32 0x1800DEEF121F1E76426A00665E5C4479674322D4F75EDADD46DEBD5CD992F6ED PUSH32 0x90689D0585FF075EC9E99AD690C3395BC4B313370B38EF355ACDADCD122975B PUSH32 0x12C85EA5DB8C6DEB4AAB71808DCB408FE3D1E7690C43D37B4CE6CC0166FA7DAA DUP9 PUSH1 0x0 ADD MLOAD DUP10 PUSH1 0x20 ADD MLOAD PUSH32 0x260E01B251F6F1C7E7FF4E580791DEE8EA51D87A358E038B4EFE30FAC09383C1 PUSH32 0x118C4D5B837BCC2BC89B5B398B5974E9F5944073B32078B7E231FEC938883B0 PUSH32 0x4FC6369F7110FE3D25156C1BB9A72859CF2A04641F99BA4EE413C80DA6A5FE4 PUSH32 0x22FEBDA3C0C0632A56475B4214E5615E11E6DD3F96E6CEA2854A87D4DACC5E55 PUSH1 0x40 MLOAD PUSH1 0x20 ADD PUSH2 0x3504 SWAP13 SWAP12 SWAP11 SWAP10 SWAP9 SWAP8 SWAP7 SWAP6 SWAP5 SWAP4 SWAP3 SWAP2 SWAP1 PUSH2 0x73F9 JUMP JUMPDEST PUSH1 0x40 MLOAD PUSH1 0x20 DUP2 DUP4 SUB SUB DUP2 MSTORE SWAP1 PUSH1 0x40 MSTORE SWAP1 POP PUSH1 0x0 DUP1 PUSH1 0x8 PUSH20 0xFFFFFFFFFFFFFFFFFFFFFFFFFFFFFFFFFFFFFFFF AND DUP4 PUSH1 0x40 MLOAD PUSH2 0x353E SWAP2 SWAP1 PUSH2 0x7540 JUMP JUMPDEST PUSH1 0x0 PUSH1 0x40 MLOAD DUP1 DUP4 SUB DUP2 DUP6 GAS STATICCALL SWAP2 POP POP RETURNDATASIZE DUP1 PUSH1 0x0 DUP2 EQ PUSH2 0x3579 JUMPI PUSH1 0x40 MLOAD SWAP2 POP PUSH1 0x1F NOT PUSH1 0x3F RETURNDATASIZE ADD AND DUP3 ADD PUSH1 0x40 MSTORE RETURNDATASIZE DUP3 MSTORE RETURNDATASIZE PUSH1 0x0 PUSH1 0x20 DUP5 ADD RETURNDATACOPY PUSH2 0x357E JUMP JUMPDEST PUSH1 0x60 SWAP2 POP JUMPDEST POP SWAP2 POP SWAP2 POP PUSH1 0x0 DUP2 DUP1 PUSH1 0x20 ADD SWAP1 MLOAD DUP2 ADD SWAP1 PUSH2 0x3599 SWAP2 SWAP1 PUSH2 0x7583 JUMP JUMPDEST SWAP1 POP DUP3 DUP1 ISZERO PUSH2 0x35A5 JUMPI POP DUP1 JUMPDEST SWAP5 POP POP POP POP POP SWAP3 SWAP2 POP POP JUMP JUMPDEST PUSH1 0x0 DUP1 PUSH1 0x0 DUP1 PUSH1 0x0 PUSH1 0xC DUP8 PUSH1 0x3 PUSH2 0x35C8 SWAP2 SWAP1 PUSH2 0x6C8C JUMP JUMPDEST PUSH2 0x35D2 SWAP2 SWAP1 PUSH2 0x6C8C JUMP JUMPDEST PUSH8 0xFFFFFFFFFFFFFFFF DUP2 GT ISZERO PUSH2 0x35EB JUMPI PUSH2 0x35EA PUSH2 0x75B0 JUMP JUMPDEST JUMPDEST PUSH1 0x40 MLOAD SWAP1 DUP1 DUP3 MSTORE DUP1 PUSH1 0x20 MUL PUSH1 0x20 ADD DUP3 ADD PUSH1 0x40 MSTORE DUP1 ISZERO PUSH2 0x3619 JUMPI DUP2 PUSH1 0x20 ADD PUSH1 0x20 DUP3 MUL DUP1 CALLDATASIZE DUP4 CALLDATACOPY DUP1 DUP3 ADD SWAP2 POP POP SWAP1 POP JUMPDEST POP SWAP1 POP DUP8 PUSH1 0x0 SHL DUP2 PUSH1 0x0 DUP2 MLOAD DUP2 LT PUSH2 0x3634 JUMPI PUSH2 0x3633 PUSH2 0x6CC0 JUMP JUMPDEST JUMPDEST PUSH1 0x20 MUL PUSH1 0x20 ADD ADD DUP2 DUP2 MSTORE POP POP DUP7 PUSH1 0x0 SHL DUP2 PUSH1 0x1 DUP2 MLOAD DUP2 LT PUSH2 0x3658 JUMPI PUSH2 0x3657 PUSH2 0x6CC0 JUMP JUMPDEST JUMPDEST PUSH1 0x20 MUL PUSH1 0x20 ADD ADD DUP2 DUP2 MSTORE POP POP DUP6 PUSH1 0x0 SHL DUP2 PUSH1 0x2 DUP2 MLOAD DUP2 LT PUSH2 0x367C JUMPI PUSH2 0x367B PUSH2 0x6CC0 JUMP JUMPDEST JUMPDEST PUSH1 0x20 MUL PUSH1 0x20 ADD ADD DUP2 DUP2 MSTORE POP POP PUSH1 0x0 JUMPDEST DUP8 DUP2 LT ISZERO PUSH2 0x36E5 JUMPI DUP11 DUP11 DUP3 DUP2 DUP2 LT PUSH2 0x36A6 JUMPI PUSH2 0x36A5 PUSH2 0x6CC0 JUMP JUMPDEST JUMPDEST SWAP1 POP PUSH1 0x20 MUL ADD CALLDATALOAD DUP3 DUP3 PUSH1 0x3 PUSH2 0x36BB SWAP2 SWAP1 PUSH2 0x6C8C JUMP JUMPDEST DUP2 MLOAD DUP2 LT PUSH2 0x36CC JUMPI PUSH2 0x36CB PUSH2 0x6CC0 JUMP JUMPDEST JUMPDEST PUSH1 0x20 MUL PUSH1 0x20 ADD ADD DUP2 DUP2 MSTORE POP POP DUP1 DUP1 PUSH1 0x1 ADD SWAP2 POP POP PUSH2 0x368B JUMP JUMPDEST POP DUP11 PUSH1 0x0 ADD MLOAD PUSH1 0x0 ADD MLOAD PUSH1 0x0 SHL DUP2 DUP9 PUSH1 0x3 PUSH2 0x3700 SWAP2 SWAP1 PUSH2 0x6C8C JUMP JUMPDEST DUP2 MLOAD DUP2 LT PUSH2 0x3711 JUMPI PUSH2 0x3710 PUSH2 0x6CC0 JUMP JUMPDEST JUMPDEST PUSH1 0x20 MUL PUSH1 0x20 ADD ADD DUP2 DUP2 MSTORE POP POP DUP11 PUSH1 0x0 ADD MLOAD PUSH1 0x20 ADD MLOAD PUSH1 0x0 SHL DUP2 PUSH1 0x1 DUP10 PUSH1 0x3 PUSH2 0x3739 SWAP2 SWAP1 PUSH2 0x6C8C JUMP JUMPDEST PUSH2 0x3743 SWAP2 SWAP1 PUSH2 0x6C8C JUMP JUMPDEST DUP2 MLOAD DUP2 LT PUSH2 0x3754 JUMPI PUSH2 0x3753 PUSH2 0x6CC0 JUMP JUMPDEST JUMPDEST PUSH1 0x20 MUL PUSH1 0x20 ADD ADD DUP2 DUP2 MSTORE POP POP DUP11 PUSH1 0x0 ADD MLOAD PUSH1 0x40 ADD MLOAD PUSH1 0x0 SHL DUP2 PUSH1 0x2 DUP10 PUSH1 0x3 PUSH2 0x377C SWAP2 SWAP1 PUSH2 0x6C8C JUMP JUMPDEST PUSH2 0x3786 SWAP2 SWAP1 PUSH2 0x6C8C JUMP JUMPDEST DUP2 MLOAD DUP2 LT PUSH2 0x3797 JUMPI PUSH2 0x3796 PUSH2 0x6CC0 JUMP JUMPDEST JUMPDEST PUSH1 0x20 MUL PUSH1 0x20 ADD ADD DUP2 DUP2 MSTORE POP POP DUP11 PUSH1 0x0 ADD MLOAD PUSH1 0x60 ADD MLOAD PUSH1 0x0 SHL DUP2 PUSH1 0x3 DUP10 PUSH1 0x3 PUSH2 0x37BF SWAP2 SWAP1 PUSH2 0x6C8C JUMP JUMPDEST PUSH2 0x37C9 SWAP2 SWAP1 PUSH2 0x6C8C JUMP JUMPDEST DUP2 MLOAD DUP2 LT PUSH2 0x37DA JUMPI PUSH2 0x37D9 PUSH2 0x6CC0 JUMP JUMPDEST JUMPDEST PUSH1 0x20 MUL PUSH1 0x20 ADD ADD DUP2 DUP2 MSTORE POP POP DUP11 PUSH1 0x20 ADD MLOAD PUSH1 0x0 ADD MLOAD PUSH1 0x0 SHL DUP2 PUSH1 0x4 DUP10 PUSH1 0x3 PUSH2 0x3802 SWAP2 SWAP1 PUSH2 0x6C8C JUMP JUMPDEST PUSH2 0x380C SWAP2 SWAP1 PUSH2 0x6C8C JUMP JUMPDEST DUP2 MLOAD DUP2 LT PUSH2 0x381D JUMPI PUSH2 0x381C PUSH2 0x6CC0 JUMP JUMPDEST JUMPDEST PUSH1 0x20 MUL PUSH1 0x20 ADD ADD DUP2 DUP2 MSTORE POP POP DUP11 PUSH1 0x20 ADD MLOAD PUSH1 0x20 ADD MLOAD PUSH1 0x0 SHL DUP2 PUSH1 0x5 DUP10 PUSH1 0x3 PUSH2 0x3845 SWAP2 SWAP1 PUSH2 0x6C8C JUMP JUMPDEST PUSH2 0x384F SWAP2 SWAP1 PUSH2 0x6C8C JUMP JUMPDEST DUP2 MLOAD DUP2 LT PUSH2 0x3860 JUMPI PUSH2 0x385F PUSH2 0x6CC0 JUMP JUMPDEST JUMPDEST PUSH1 0x20 MUL PUSH1 0x20 ADD ADD DUP2 DUP2 MSTORE POP POP DUP11 PUSH1 0x20 ADD MLOAD PUSH1 0x40 ADD MLOAD PUSH1 0x0 SHL DUP2 PUSH1 0x6 DUP10 PUSH1 0x3 PUSH2 0x3888 SWAP2 SWAP1 PUSH2 0x6C8C JUMP JUMPDEST PUSH2 0x3892 SWAP2 SWAP1 PUSH2 0x6C8C JUMP JUMPDEST DUP2 MLOAD DUP2 LT PUSH2 0x38A3 JUMPI PUSH2 0x38A2 PUSH2 0x6CC0 JUMP JUMPDEST JUMPDEST PUSH1 0x20 MUL PUSH1 0x20 ADD ADD DUP2 DUP2 MSTORE POP POP DUP11 PUSH1 0x20 ADD MLOAD PUSH1 0x60 ADD MLOAD PUSH1 0x0 SHL DUP2 PUSH1 0x7 DUP10 PUSH1 0x3 PUSH2 0x38CB SWAP2 SWAP1 PUSH2 0x6C8C JUMP JUMPDEST PUSH2 0x38D5 SWAP2 SWAP1 PUSH2 0x6C8C JUMP JUMPDEST DUP2 MLOAD DUP2 LT PUSH2 0x38E6 JUMPI PUSH2 0x38E5 PUSH2 0x6CC0 JUMP JUMPDEST JUMPDEST PUSH1 0x20 MUL PUSH1 0x20 ADD ADD DUP2 DUP2 MSTORE POP POP DUP11 PUSH1 0x40 ADD MLOAD PUSH1 0x0 ADD MLOAD PUSH1 0x0 SHL DUP2 PUSH1 0x8 DUP10 PUSH1 0x3 PUSH2 0x390E SWAP2 SWAP1 PUSH2 0x6C8C JUMP JUMPDEST PUSH2 0x3918 SWAP2 SWAP1 PUSH2 0x6C8C JUMP JUMPDEST DUP2 MLOAD DUP2 LT PUSH2 0x3929 JUMPI PUSH2 0x3928 PUSH2 0x6CC0 JUMP JUMPDEST JUMPDEST PUSH1 0x20 MUL PUSH1 0x20 ADD ADD DUP2 DUP2 MSTORE POP POP DUP11 PUSH1 0x40 ADD MLOAD PUSH1 0x20 ADD MLOAD PUSH1 0x0 SHL DUP2 PUSH1 0x9 DUP10 PUSH1 0x3 PUSH2 0x3951 SWAP2 SWAP1 PUSH2 0x6C8C JUMP JUMPDEST PUSH2 0x395B SWAP2 SWAP1 PUSH2 0x6C8C JUMP JUMPDEST DUP2 MLOAD DUP2 LT PUSH2 0x396C JUMPI PUSH2 0x396B PUSH2 0x6CC0 JUMP JUMPDEST JUMPDEST PUSH1 0x20 MUL PUSH1 0x20 ADD ADD DUP2 DUP2 MSTORE POP POP DUP11 PUSH1 0x40 ADD MLOAD PUSH1 0x40 ADD MLOAD PUSH1 0x0 SHL DUP2 PUSH1 0xA DUP10 PUSH1 0x3 PUSH2 0x3994 SWAP2 SWAP1 PUSH2 0x6C8C JUMP JUMPDEST PUSH2 0x399E SWAP2 SWAP1 PUSH2 0x6C8C JUMP JUMPDEST DUP2 MLOAD DUP2 LT PUSH2 0x39AF JUMPI PUSH2 0x39AE PUSH2 0x6CC0 JUMP JUMPDEST JUMPDEST PUSH1 0x20 MUL PUSH1 0x20 ADD ADD DUP2 DUP2 MSTORE POP POP DUP11 PUSH1 0x40 ADD MLOAD PUSH1 0x60 ADD MLOAD PUSH1 0x0 SHL DUP2 PUSH1 0xB DUP10 PUSH1 0x3 PUSH2 0x39D7 SWAP2 SWAP1 PUSH2 0x6C8C JUMP JUMPDEST PUSH2 0x39E1 SWAP2 SWAP1 PUSH2 0x6C8C JUMP JUMPDEST DUP2 MLOAD DUP2 LT PUSH2 0x39F2 JUMPI PUSH2 0x39F1 PUSH2 0x6CC0 JUMP JUMPDEST JUMPDEST PUSH1 0x20 MUL PUSH1 0x20 ADD ADD DUP2 DUP2 MSTORE POP POP PUSH2 0x3A2D DUP2 PUSH1 0x40 MLOAD PUSH1 0x20 ADD PUSH2 0x3A12 SWAP2 SWAP1 PUSH2 0x7697 JUMP JUMPDEST PUSH1 0x40 MLOAD PUSH1 0x20 DUP2 DUP4 SUB SUB DUP2 MSTORE SWAP1 PUSH1 0x40 MSTORE DUP1 MLOAD SWAP1 PUSH1 0x20 ADD KECCAK256 PUSH2 0x2C39 JUMP JUMPDEST SWAP2 POP PUSH2 0x3A38 DUP3 PUSH2 0x3CFC JUMP JUMPDEST DUP1 SWAP6 POP DUP2 SWAP7 POP POP POP PUSH2 0x3A6F DUP3 PUSH1 0x40 MLOAD PUSH1 0x20 ADD PUSH2 0x3A54 SWAP2 SWAP1 PUSH2 0x701D JUMP JUMPDEST PUSH1 0x40 MLOAD PUSH1 0x20 DUP2 DUP4 SUB SUB DUP2 MSTORE SWAP1 PUSH1 0x40 MSTORE DUP1 MLOAD SWAP1 PUSH1 0x20 ADD KECCAK256 PUSH2 0x2C39 JUMP JUMPDEST SWAP2 POP PUSH1 0x0 PUSH2 0x3A7C DUP4 PUSH2 0x3CFC JUMP JUMPDEST DUP1 SWAP3 POP DUP2 SWAP6 POP POP POP POP POP SWAP7 POP SWAP7 POP SWAP7 POP SWAP7 SWAP3 POP POP POP JUMP JUMPDEST PUSH1 0x0 DUP1 PUSH1 0x0 PUSH2 0x3AA0 PUSH2 0x67EC JUMP JUMPDEST PUSH2 0x3AA9 DUP7 PUSH2 0x6298 JUMP JUMPDEST DUP2 PUSH1 0x0 PUSH1 0xD DUP2 LT PUSH2 0x3ABD JUMPI PUSH2 0x3ABC PUSH2 0x6CC0 JUMP JUMPDEST JUMPDEST PUSH1 0x20 MUL ADD DUP2 DUP2 MSTORE POP POP DUP5 PUSH1 0xA0 ADD MLOAD PUSH1 0x0 ADD MLOAD PUSH1 0x0 SHL DUP2 PUSH1 0x1 PUSH1 0xD DUP2 LT PUSH2 0x3AE6 JUMPI PUSH2 0x3AE5 PUSH2 0x6CC0 JUMP JUMPDEST JUMPDEST PUSH1 0x20 MUL ADD DUP2 DUP2 MSTORE POP POP DUP5 PUSH1 0xA0 ADD MLOAD PUSH1 0x20 ADD MLOAD PUSH1 0x0 SHL DUP2 PUSH1 0x2 PUSH1 0xD DUP2 LT PUSH2 0x3B0F JUMPI PUSH2 0x3B0E PUSH2 0x6CC0 JUMP JUMPDEST JUMPDEST PUSH1 0x20 MUL ADD DUP2 DUP2 MSTORE POP POP DUP5 PUSH1 0xA0 ADD MLOAD PUSH1 0x40 ADD MLOAD PUSH1 0x0 SHL DUP2 PUSH1 0x3 PUSH1 0xD DUP2 LT PUSH2 0x3B38 JUMPI PUSH2 0x3B37 PUSH2 0x6CC0 JUMP JUMPDEST JUMPDEST PUSH1 0x20 MUL ADD DUP2 DUP2 MSTORE POP POP DUP5 PUSH1 0xA0 ADD MLOAD PUSH1 0x60 ADD MLOAD PUSH1 0x0 SHL DUP2 PUSH1 0x4 PUSH1 0xD DUP2 LT PUSH2 0x3B61 JUMPI PUSH2 0x3B60 PUSH2 0x6CC0 JUMP JUMPDEST JUMPDEST PUSH1 0x20 MUL ADD DUP2 DUP2 MSTORE POP POP DUP5 PUSH1 0xC0 ADD MLOAD PUSH1 0x0 ADD MLOAD PUSH1 0x0 SHL DUP2 PUSH1 0x5 PUSH1 0xD DUP2 LT PUSH2 0x3B8A JUMPI PUSH2 0x3B89 PUSH2 0x6CC0 JUMP JUMPDEST JUMPDEST PUSH1 0x20 MUL ADD DUP2 DUP2 MSTORE POP POP DUP5 PUSH1 0xC0 ADD MLOAD PUSH1 0x20 ADD MLOAD PUSH1 0x0 SHL DUP2 PUSH1 0x6 PUSH1 0xD DUP2 LT PUSH2 0x3BB3 JUMPI PUSH2 0x3BB2 PUSH2 0x6CC0 JUMP JUMPDEST JUMPDEST PUSH1 0x20 MUL ADD DUP2 DUP2 MSTORE POP POP DUP5 PUSH1 0xC0 ADD MLOAD PUSH1 0x40 ADD MLOAD PUSH1 0x0 SHL DUP2 PUSH1 0x7 PUSH1 0xD DUP2 LT PUSH2 0x3BDC JUMPI PUSH2 0x3BDB PUSH2 0x6CC0 JUMP JUMPDEST JUMPDEST PUSH1 0x20 MUL ADD DUP2 DUP2 MSTORE POP POP DUP5 PUSH1 0xC0 ADD MLOAD PUSH1 0x60 ADD MLOAD PUSH1 0x0 SHL DUP2 PUSH1 0x8 PUSH1 0xD DUP2 LT PUSH2 0x3C05 JUMPI PUSH2 0x3C04 PUSH2 0x6CC0 JUMP JUMPDEST JUMPDEST PUSH1 0x20 MUL ADD DUP2 DUP2 MSTORE POP POP DUP5 PUSH1 0x60 ADD MLOAD PUSH1 0x0 ADD MLOAD PUSH1 0x0 SHL DUP2 PUSH1 0x9 PUSH1 0xD DUP2 LT PUSH2 0x3C2E JUMPI PUSH2 0x3C2D PUSH2 0x6CC0 JUMP JUMPDEST JUMPDEST PUSH1 0x20 MUL ADD DUP2 DUP2 MSTORE POP POP DUP5 PUSH1 0x60 ADD MLOAD PUSH1 0x20 ADD MLOAD PUSH1 0x0 SHL DUP2 PUSH1 0xA PUSH1 0xD DUP2 LT PUSH2 0x3C57 JUMPI PUSH2 0x3C56 PUSH2 0x6CC0 JUMP JUMPDEST JUMPDEST PUSH1 0x20 MUL ADD DUP2 DUP2 MSTORE POP POP DUP5 PUSH1 0x60 ADD MLOAD PUSH1 0x40 ADD MLOAD PUSH1 0x0 SHL DUP2 PUSH1 0xB PUSH1 0xD DUP2 LT PUSH2 0x3C80 JUMPI PUSH2 0x3C7F PUSH2 0x6CC0 JUMP JUMPDEST JUMPDEST PUSH1 0x20 MUL ADD DUP2 DUP2 MSTORE POP POP DUP5 PUSH1 0x60 ADD MLOAD PUSH1 0x60 ADD MLOAD PUSH1 0x0 SHL DUP2 PUSH1 0xC PUSH1 0xD DUP2 LT PUSH2 0x3CA9 JUMPI PUSH2 0x3CA8 PUSH2 0x6CC0 JUMP JUMPDEST JUMPDEST PUSH1 0x20 MUL ADD DUP2 DUP2 MSTORE POP POP PUSH2 0x3CE1 DUP2 PUSH1 0x40 MLOAD PUSH1 0x20 ADD PUSH2 0x3CC6 SWAP2 SWAP1 PUSH2 0x7732 JUMP JUMPDEST PUSH1 0x40 MLOAD PUSH1 0x20 DUP2 DUP4 SUB SUB DUP2 MSTORE SWAP1 PUSH1 0x40 MSTORE DUP1 MLOAD SWAP1 PUSH1 0x20 ADD KECCAK256 PUSH2 0x2C39 JUMP JUMPDEST SWAP2 POP PUSH2 0x3CEC DUP3 PUSH2 0x3CFC JUMP JUMPDEST DUP1 SWAP5 POP DUP2 SWAP6 POP POP POP POP SWAP3 POP SWAP3 POP SWAP3 JUMP JUMPDEST PUSH1 0x0 DUP1 PUSH1 0x0 DUP4 SWAP1 POP PUSH1 0x0 PUSH16 0xFFFFFFFFFFFFFFFFFFFFFFFFFFFFFFFF DUP3 AND SWAP1 POP PUSH1 0x0 PUSH1 0x80 DUP4 SWAP1 SHR SWAP1 POP PUSH2 0x3D30 DUP3 PUSH1 0x0 SHL PUSH2 0x2C39 JUMP JUMPDEST SWAP5 POP PUSH2 0x3D3E DUP2 PUSH1 0x0 SHL PUSH2 0x2C39 JUMP JUMPDEST SWAP4 POP POP POP POP SWAP2 POP SWAP2 JUMP JUMPDEST PUSH1 0x0 PUSH2 0x3D55 DUP5 PUSH1 0x7 PUSH2 0x62A5 JUMP JUMPDEST SWAP1 POP PUSH1 0x0 PUSH32 0x183227397098D014DC2822DB40C0AC2E9419F4243CDCB848A1F0FAC9F8000000 SWAP1 POP PUSH1 0x0 PUSH2 0x3DCB PUSH2 0x3DC5 PUSH2 0x3D8F DUP6 PUSH1 0x3 PUSH2 0x2BD2 JUMP JUMPDEST PUSH2 0x3DC0 PUSH2 0x3DB0 PUSH2 0x3DA0 DUP12 PUSH1 0x0 PUSH2 0x62A5 JUMP JUMPDEST PUSH2 0x3DAB DUP13 PUSH1 0x1C PUSH2 0x62A5 JUMP JUMPDEST PUSH2 0x2B5A JUMP JUMPDEST PUSH2 0x3DBB DUP12 PUSH1 0x1B PUSH2 0x62A5 JUMP JUMPDEST PUSH2 0x2B5A JUMP JUMPDEST PUSH2 0x2B5A JUMP JUMPDEST DUP4 PUSH2 0x2B5A JUMP JUMPDEST SWAP1 POP PUSH2 0x3E79 PUSH2 0x3E69 PUSH2 0x3E46 PUSH2 0x3E23 PUSH2 0x3E00 DUP6 PUSH2 0x3DFB PUSH2 0x3DEB DUP14 PUSH1 0x2 PUSH2 0x62A5 JUMP JUMPDEST PUSH2 0x3DF6 DUP15 PUSH1 0x1B PUSH2 0x62A5 JUMP JUMPDEST PUSH2 0x2B5A JUMP JUMPDEST PUSH2 0x2B96 JUMP JUMPDEST PUSH2 0x3E1E PUSH2 0x3E0E DUP13 PUSH1 0x3 PUSH2 0x62A5 JUMP JUMPDEST PUSH2 0x3E19 DUP14 PUSH1 0x1C PUSH2 0x62A5 JUMP JUMPDEST PUSH2 0x2B5A JUMP JUMPDEST PUSH2 0x2B96 JUMP JUMPDEST PUSH2 0x3E41 PUSH2 0x3E31 DUP12 PUSH1 0x4 PUSH2 0x62A5 JUMP JUMPDEST PUSH2 0x3E3C DUP13 PUSH1 0x1D PUSH2 0x62A5 JUMP JUMPDEST PUSH2 0x2B5A JUMP JUMPDEST PUSH2 0x2B96 JUMP JUMPDEST PUSH2 0x3E64 PUSH2 0x3E54 DUP11 PUSH1 0x5 PUSH2 0x62A5 JUMP JUMPDEST PUSH2 0x3E5F DUP12 PUSH1 0x1E PUSH2 0x62A5 JUMP JUMPDEST PUSH2 0x2B5A JUMP JUMPDEST PUSH2 0x2B96 JUMP JUMPDEST PUSH2 0x3E74 DUP9 PUSH1 0x1 PUSH2 0x62A5 JUMP JUMPDEST PUSH2 0x2B96 JUMP JUMPDEST SWAP1 POP PUSH2 0x3EA2 DUP2 PUSH2 0x3E9D PUSH2 0x3E8D DUP7 PUSH1 0x1 PUSH2 0x2BD2 JUMP JUMPDEST PUSH2 0x3E98 DUP11 PUSH1 0x26 PUSH2 0x62A5 JUMP JUMPDEST PUSH2 0x2B5A JUMP JUMPDEST PUSH2 0x2B96 JUMP JUMPDEST SWAP1 POP PUSH2 0x3EAE DUP2 DUP5 PUSH2 0x2B5A JUMP JUMPDEST SWAP1 POP PUSH2 0x3EBA DUP2 DUP6 PUSH2 0x2B5A JUMP JUMPDEST SWAP1 POP DUP1 DUP6 PUSH1 0x0 PUSH1 0x1A DUP2 LT PUSH2 0x3ED1 JUMPI PUSH2 0x3ED0 PUSH2 0x6CC0 JUMP JUMPDEST JUMPDEST PUSH1 0x20 MUL ADD DUP2 DUP2 MSTORE POP POP POP POP PUSH1 0x0 PUSH2 0x3F22 PUSH2 0x3F12 PUSH2 0x3F02 PUSH2 0x3EF2 DUP9 PUSH1 0x1B PUSH2 0x62A5 JUMP JUMPDEST PUSH2 0x3EFD DUP10 PUSH1 0x1E PUSH2 0x62A5 JUMP JUMPDEST PUSH2 0x2B96 JUMP JUMPDEST PUSH2 0x3F0D DUP9 PUSH1 0x23 PUSH2 0x62A5 JUMP JUMPDEST PUSH2 0x2BD2 JUMP JUMPDEST PUSH2 0x3F1D DUP8 PUSH1 0x0 PUSH2 0x62A5 JUMP JUMPDEST PUSH2 0x2B96 JUMP JUMPDEST SWAP1 POP PUSH2 0x3F38 DUP2 PUSH2 0x3F33 DUP5 PUSH1 0x2 PUSH2 0x2BD2 JUMP JUMPDEST PUSH2 0x2B5A JUMP JUMPDEST SWAP1 POP PUSH2 0x3F4E DUP2 PUSH2 0x3F49 DUP5 PUSH1 0x1 PUSH2 0x2BD2 JUMP JUMPDEST PUSH2 0x2B5A JUMP JUMPDEST SWAP1 POP PUSH2 0x3F5A DUP2 DUP4 PUSH2 0x2B5A JUMP JUMPDEST SWAP1 POP PUSH2 0x3F66 DUP2 DUP5 PUSH2 0x2B5A JUMP JUMPDEST SWAP1 POP DUP1 DUP5 PUSH1 0x1 PUSH1 0x1A DUP2 LT PUSH2 0x3F7D JUMPI PUSH2 0x3F7C PUSH2 0x6CC0 JUMP JUMPDEST JUMPDEST PUSH1 0x20 MUL ADD DUP2 DUP2 MSTORE POP POP POP POP POP POP POP JUMP JUMPDEST PUSH1 0x0 DUP1 PUSH1 0x0 PUSH2 0x3FCA PUSH2 0x3FC0 PUSH2 0x3FA3 DUP10 PUSH1 0x1B PUSH2 0x62A5 JUMP JUMPDEST PUSH2 0x3FBB PUSH2 0x3FB1 DUP12 PUSH1 0x11 PUSH2 0x62A5 JUMP JUMPDEST DUP11 PUSH1 0x60 ADD MLOAD PUSH2 0x2B5A JUMP JUMPDEST PUSH2 0x2B96 JUMP JUMPDEST DUP8 PUSH1 0x80 ADD MLOAD PUSH2 0x2B96 JUMP JUMPDEST SWAP1 POP PUSH2 0x400D DUP2 PUSH2 0x4008 PUSH2 0x3FFE PUSH2 0x3FE1 DUP12 PUSH1 0x1C PUSH2 0x62A5 JUMP JUMPDEST PUSH2 0x3FF9 PUSH2 0x3FEF DUP14 PUSH1 0x12 PUSH2 0x62A5 JUMP JUMPDEST DUP13 PUSH1 0x60 ADD MLOAD PUSH2 0x2B5A JUMP JUMPDEST PUSH2 0x2B96 JUMP JUMPDEST DUP10 PUSH1 0x80 ADD MLOAD PUSH2 0x2B96 JUMP JUMPDEST PUSH2 0x2B5A JUMP JUMPDEST SWAP1 POP PUSH2 0x4050 DUP2 PUSH2 0x404B PUSH2 0x4041 PUSH2 0x4024 DUP12 PUSH1 0x1D PUSH2 0x62A5 JUMP JUMPDEST PUSH2 0x403C PUSH2 0x4032 DUP14 PUSH1 0x13 PUSH2 0x62A5 JUMP JUMPDEST DUP13 PUSH1 0x60 ADD MLOAD PUSH2 0x2B5A JUMP JUMPDEST PUSH2 0x2B96 JUMP JUMPDEST DUP10 PUSH1 0x80 ADD MLOAD PUSH2 0x2B96 JUMP JUMPDEST PUSH2 0x2B5A JUMP JUMPDEST SWAP1 POP PUSH2 0x4093 DUP2 PUSH2 0x408E PUSH2 0x4084 PUSH2 0x4067 DUP12 PUSH1 0x1E PUSH2 0x62A5 JUMP JUMPDEST PUSH2 0x407F PUSH2 0x4075 DUP14 PUSH1 0x14 PUSH2 0x62A5 JUMP JUMPDEST DUP13 PUSH1 0x60 ADD MLOAD PUSH2 0x2B5A JUMP JUMPDEST PUSH2 0x2B96 JUMP JUMPDEST DUP10 PUSH1 0x80 ADD MLOAD PUSH2 0x2B96 JUMP JUMPDEST PUSH2 0x2B5A JUMP JUMPDEST SWAP1 POP DUP1 SWAP3 POP POP PUSH1 0x0 PUSH2 0x40D3 PUSH2 0x40C9 PUSH2 0x40AC DUP10 PUSH1 0x1B PUSH2 0x62A5 JUMP JUMPDEST PUSH2 0x40C4 PUSH2 0x40BA DUP12 PUSH1 0xD PUSH2 0x62A5 JUMP JUMPDEST DUP11 PUSH1 0x60 ADD MLOAD PUSH2 0x2B5A JUMP JUMPDEST PUSH2 0x2B96 JUMP JUMPDEST DUP8 PUSH1 0x80 ADD MLOAD PUSH2 0x2B96 JUMP JUMPDEST SWAP1 POP PUSH2 0x4116 DUP2 PUSH2 0x4111 PUSH2 0x4107 PUSH2 0x40EA DUP12 PUSH1 0x1C PUSH2 0x62A5 JUMP JUMPDEST PUSH2 0x4102 PUSH2 0x40F8 DUP14 PUSH1 0xE PUSH2 0x62A5 JUMP JUMPDEST DUP13 PUSH1 0x60 ADD MLOAD PUSH2 0x2B5A JUMP JUMPDEST PUSH2 0x2B96 JUMP JUMPDEST DUP10 PUSH1 0x80 ADD MLOAD PUSH2 0x2B96 JUMP JUMPDEST PUSH2 0x2B5A JUMP JUMPDEST SWAP1 POP PUSH2 0x4159 DUP2 PUSH2 0x4154 PUSH2 0x414A PUSH2 0x412D DUP12 PUSH1 0x1D PUSH2 0x62A5 JUMP JUMPDEST PUSH2 0x4145 PUSH2 0x413B DUP14 PUSH1 0xF PUSH2 0x62A5 JUMP JUMPDEST DUP13 PUSH1 0x60 ADD MLOAD PUSH2 0x2B5A JUMP JUMPDEST PUSH2 0x2B96 JUMP JUMPDEST DUP10 PUSH1 0x80 ADD MLOAD PUSH2 0x2B96 JUMP JUMPDEST PUSH2 0x2B5A JUMP JUMPDEST SWAP1 POP PUSH2 0x419C DUP2 PUSH2 0x4197 PUSH2 0x418D PUSH2 0x4170 DUP12 PUSH1 0x1E PUSH2 0x62A5 JUMP JUMPDEST PUSH2 0x4188 PUSH2 0x417E DUP14 PUSH1 0x10 PUSH2 0x62A5 JUMP JUMPDEST DUP13 PUSH1 0x60 ADD MLOAD PUSH2 0x2B5A JUMP JUMPDEST PUSH2 0x2B96 JUMP JUMPDEST DUP10 PUSH1 0x80 ADD MLOAD PUSH2 0x2B96 JUMP JUMPDEST PUSH2 0x2B5A JUMP JUMPDEST SWAP1 POP DUP1 SWAP2 POP POP PUSH1 0x0 PUSH2 0x41CB PUSH2 0x41C5 PUSH2 0x41B5 DUP10 PUSH1 0x1F PUSH2 0x62A5 JUMP JUMPDEST PUSH2 0x41C0 DUP11 PUSH1 0x19 PUSH2 0x62A5 JUMP JUMPDEST PUSH2 0x2B96 JUMP JUMPDEST DUP5 PUSH2 0x2B5A JUMP JUMPDEST SWAP1 POP PUSH2 0x420A DUP2 PUSH2 0x4205 PUSH2 0x41FF PUSH2 0x41E2 DUP12 PUSH1 0x27 PUSH2 0x62A5 JUMP JUMPDEST PUSH2 0x41FA PUSH2 0x41F0 DUP14 PUSH1 0x1A PUSH2 0x62A5 JUMP JUMPDEST DUP13 PUSH1 0xA0 ADD MLOAD PUSH2 0x2B5A JUMP JUMPDEST PUSH2 0x2B96 JUMP JUMPDEST DUP6 PUSH2 0x2B5A JUMP JUMPDEST PUSH2 0x2BD2 JUMP JUMPDEST SWAP1 POP PUSH2 0x4216 DUP2 DUP6 PUSH2 0x2B5A JUMP JUMPDEST SWAP1 POP DUP1 DUP6 PUSH1 0x2 PUSH1 0x1A DUP2 LT PUSH2 0x422D JUMPI PUSH2 0x422C PUSH2 0x6CC0 JUMP JUMPDEST JUMPDEST PUSH1 0x20 MUL ADD DUP2 DUP2 MSTORE POP POP POP PUSH1 0x0 PUSH2 0x4260 PUSH2 0x425A PUSH2 0x424A DUP10 PUSH1 0x1A PUSH2 0x62A5 JUMP JUMPDEST PUSH2 0x4255 DUP11 PUSH1 0x27 PUSH2 0x62A5 JUMP JUMPDEST PUSH2 0x2B5A JUMP JUMPDEST DUP6 PUSH2 0x2B5A JUMP JUMPDEST SWAP1 POP DUP1 DUP6 PUSH1 0x3 PUSH1 0x1A DUP2 LT PUSH2 0x4277 JUMPI PUSH2 0x4276 PUSH2 0x6CC0 JUMP JUMPDEST JUMPDEST PUSH1 0x20 MUL ADD DUP2 DUP2 MSTORE POP POP POP POP POP POP POP POP POP JUMP JUMPDEST PUSH1 0x0 DUP1 PUSH2 0x4304 PUSH2 0x42E7 PUSH2 0x42CA PUSH2 0x42AD PUSH2 0x42A3 DUP11 PUSH1 0x15 PUSH2 0x62A5 JUMP JUMPDEST DUP10 PUSH1 0x80 ADD MLOAD PUSH2 0x2B96 JUMP JUMPDEST PUSH2 0x42C5 PUSH2 0x42BB DUP12 PUSH1 0x16 PUSH2 0x62A5 JUMP JUMPDEST DUP11 PUSH1 0x0 ADD MLOAD PUSH2 0x2B5A JUMP JUMPDEST PUSH2 0x2B96 JUMP JUMPDEST PUSH2 0x42E2 PUSH2 0x42D8 DUP11 PUSH1 0x17 PUSH2 0x62A5 JUMP JUMPDEST DUP10 PUSH1 0x20 ADD MLOAD PUSH2 0x2B5A JUMP JUMPDEST PUSH2 0x2B96 JUMP JUMPDEST PUSH2 0x42FF PUSH2 0x42F5 DUP10 PUSH1 0x18 PUSH2 0x62A5 JUMP JUMPDEST DUP9 PUSH1 0x40 ADD MLOAD PUSH2 0x2B5A JUMP JUMPDEST PUSH2 0x2B96 JUMP JUMPDEST SWAP2 POP PUSH1 0x0 PUSH2 0x4346 PUSH2 0x4323 PUSH2 0x4319 DUP10 PUSH1 0x1B PUSH2 0x62A5 JUMP JUMPDEST DUP9 PUSH1 0x80 ADD MLOAD PUSH2 0x2B96 JUMP JUMPDEST PUSH2 0x4341 PUSH2 0x4331 DUP11 PUSH1 0x3 PUSH2 0x62A5 JUMP JUMPDEST PUSH2 0x433C DUP12 PUSH1 0x23 PUSH2 0x62A5 JUMP JUMPDEST PUSH2 0x2B5A JUMP JUMPDEST PUSH2 0x2B96 JUMP JUMPDEST SWAP1 POP PUSH1 0x0 PUSH2 0x437B PUSH2 0x4358 DUP10 PUSH1 0x1C PUSH2 0x62A5 JUMP JUMPDEST PUSH2 0x4376 PUSH2 0x4366 DUP12 PUSH1 0x0 PUSH2 0x62A5 JUMP JUMPDEST PUSH2 0x4371 DUP13 PUSH1 0x24 PUSH2 0x62A5 JUMP JUMPDEST PUSH2 0x2B5A JUMP JUMPDEST PUSH2 0x2B96 JUMP JUMPDEST SWAP1 POP PUSH1 0x0 PUSH2 0x43B0 PUSH2 0x438D DUP11 PUSH1 0x1D PUSH2 0x62A5 JUMP JUMPDEST PUSH2 0x43AB PUSH2 0x439B DUP13 PUSH1 0x1 PUSH2 0x62A5 JUMP JUMPDEST PUSH2 0x43A6 DUP14 PUSH1 0x25 PUSH2 0x62A5 JUMP JUMPDEST PUSH2 0x2B5A JUMP JUMPDEST PUSH2 0x2B96 JUMP JUMPDEST SWAP1 POP PUSH2 0x43FF PUSH2 0x43E2 PUSH2 0x43CF DUP6 PUSH2 0x43CA DUP7 DUP14 PUSH1 0x0 ADD MLOAD PUSH2 0x2B5A JUMP JUMPDEST PUSH2 0x2B96 JUMP JUMPDEST PUSH2 0x43DD DUP5 DUP13 PUSH1 0x20 ADD MLOAD PUSH2 0x2B5A JUMP JUMPDEST PUSH2 0x2B96 JUMP JUMPDEST PUSH2 0x43FA PUSH2 0x43F0 DUP13 PUSH1 0x4 PUSH2 0x62A5 JUMP JUMPDEST DUP12 PUSH1 0x40 ADD MLOAD PUSH2 0x2B5A JUMP JUMPDEST PUSH2 0x2B96 JUMP JUMPDEST SWAP4 POP POP POP POP PUSH1 0x0 PUSH2 0x441A PUSH2 0x4414 DUP9 PUSH1 0x20 PUSH2 0x62A5 JUMP JUMPDEST DUP5 PUSH2 0x2B5A JUMP JUMPDEST SWAP1 POP PUSH1 0x0 PUSH2 0x4432 PUSH2 0x442C DUP10 PUSH1 0x20 PUSH2 0x62A5 JUMP JUMPDEST DUP5 PUSH2 0x2B5A JUMP JUMPDEST SWAP1 POP PUSH1 0x0 PUSH2 0x447A PUSH2 0x4457 PUSH2 0x4447 DUP12 PUSH1 0x22 PUSH2 0x62A5 JUMP JUMPDEST PUSH2 0x4452 DUP13 PUSH1 0x6 PUSH2 0x62A5 JUMP JUMPDEST PUSH2 0x2B96 JUMP JUMPDEST PUSH2 0x4475 PUSH2 0x4465 DUP13 PUSH1 0x22 PUSH2 0x62A5 JUMP JUMPDEST PUSH2 0x4470 DUP14 PUSH1 0x6 PUSH2 0x62A5 JUMP JUMPDEST PUSH2 0x2B5A JUMP JUMPDEST PUSH2 0x2BD2 JUMP JUMPDEST SWAP1 POP PUSH1 0x0 PUSH2 0x44A4 PUSH2 0x449E PUSH2 0x448E DUP8 DUP10 PUSH2 0x2B5A JUMP JUMPDEST PUSH2 0x4499 DUP14 PUSH1 0x20 PUSH2 0x62A5 JUMP JUMPDEST PUSH2 0x2B5A JUMP JUMPDEST DUP4 PUSH2 0x2BD2 JUMP JUMPDEST SWAP1 POP PUSH2 0x44B0 DUP2 DUP9 PUSH2 0x2B5A JUMP JUMPDEST SWAP1 POP PUSH1 0x0 PUSH2 0x44E4 PUSH2 0x44CB PUSH2 0x44C5 DUP14 PUSH1 0x6 PUSH2 0x62A5 JUMP JUMPDEST DUP8 PUSH2 0x2B5A JUMP JUMPDEST PUSH2 0x44DF PUSH2 0x44D9 DUP15 PUSH1 0x21 PUSH2 0x62A5 JUMP JUMPDEST DUP8 PUSH2 0x2B5A JUMP JUMPDEST PUSH2 0x2BD2 JUMP JUMPDEST SWAP1 POP DUP2 DUP10 PUSH1 0x4 PUSH1 0x1A DUP2 LT PUSH2 0x44FB JUMPI PUSH2 0x44FA PUSH2 0x6CC0 JUMP JUMPDEST JUMPDEST PUSH1 0x20 MUL ADD DUP2 DUP2 MSTORE POP POP DUP1 DUP10 PUSH1 0x5 PUSH1 0x1A DUP2 LT PUSH2 0x4519 JUMPI PUSH2 0x4518 PUSH2 0x6CC0 JUMP JUMPDEST JUMPDEST PUSH1 0x20 MUL ADD DUP2 DUP2 MSTORE POP POP POP POP POP POP POP POP POP POP POP POP POP JUMP JUMPDEST PUSH1 0x0 PUSH2 0x453D PUSH1 0x0 PUSH1 0x1 PUSH2 0x2BD2 JUMP JUMPDEST SWAP1 POP PUSH1 0x0 PUSH2 0x454D PUSH1 0x0 PUSH1 0x2 PUSH2 0x2BD2 JUMP JUMPDEST SWAP1 POP PUSH1 0x0 PUSH2 0x455D PUSH1 0x0 PUSH1 0x3 PUSH2 0x2BD2 JUMP JUMPDEST SWAP1 POP PUSH1 0x0 PUSH2 0x457F PUSH2 0x456F DUP9 PUSH1 0x1C PUSH2 0x62A5 JUMP JUMPDEST PUSH2 0x457A DUP10 PUSH1 0x1B PUSH2 0x62A5 JUMP JUMPDEST PUSH2 0x2BD2 JUMP JUMPDEST SWAP1 POP PUSH1 0x0 PUSH2 0x45A1 PUSH2 0x4591 DUP10 PUSH1 0x1D PUSH2 0x62A5 JUMP JUMPDEST PUSH2 0x459C DUP11 PUSH1 0x1C PUSH2 0x62A5 JUMP JUMPDEST PUSH2 0x2BD2 JUMP JUMPDEST SWAP1 POP PUSH1 0x0 PUSH2 0x45C3 PUSH2 0x45B3 DUP11 PUSH1 0x1E PUSH2 0x62A5 JUMP JUMPDEST PUSH2 0x45BE DUP12 PUSH1 0x1D PUSH2 0x62A5 JUMP JUMPDEST PUSH2 0x2BD2 JUMP JUMPDEST SWAP1 POP PUSH1 0x0 PUSH2 0x45E5 PUSH2 0x45D5 DUP12 PUSH1 0x23 PUSH2 0x62A5 JUMP JUMPDEST PUSH2 0x45E0 DUP13 PUSH1 0x1E PUSH2 0x62A5 JUMP JUMPDEST PUSH2 0x2BD2 JUMP JUMPDEST SWAP1 POP PUSH1 0x0 DUP5 SWAP1 POP PUSH2 0x45FF DUP2 PUSH2 0x45FA DUP8 DUP12 PUSH2 0x2B96 JUMP JUMPDEST PUSH2 0x2B5A JUMP JUMPDEST SWAP1 POP PUSH2 0x4614 DUP2 PUSH2 0x460F DUP8 DUP11 PUSH2 0x2B96 JUMP JUMPDEST PUSH2 0x2B5A JUMP JUMPDEST SWAP1 POP PUSH2 0x4629 DUP2 PUSH2 0x4624 DUP8 DUP10 PUSH2 0x2B96 JUMP JUMPDEST PUSH2 0x2B5A JUMP JUMPDEST SWAP1 POP PUSH2 0x463F DUP2 PUSH2 0x463A DUP14 PUSH1 0x8 PUSH2 0x62A5 JUMP JUMPDEST PUSH2 0x2B5A JUMP JUMPDEST SWAP1 POP PUSH2 0x464B DUP2 DUP11 PUSH2 0x2B5A JUMP JUMPDEST SWAP1 POP DUP1 DUP11 PUSH1 0x6 PUSH1 0x1A DUP2 LT PUSH2 0x4662 JUMPI PUSH2 0x4661 PUSH2 0x6CC0 JUMP JUMPDEST JUMPDEST PUSH1 0x20 MUL ADD DUP2 DUP2 MSTORE POP POP POP PUSH1 0x0 DUP4 SWAP1 POP PUSH2 0x4684 DUP2 PUSH2 0x467F DUP7 DUP12 PUSH2 0x2B96 JUMP JUMPDEST PUSH2 0x2B5A JUMP JUMPDEST SWAP1 POP PUSH2 0x4699 DUP2 PUSH2 0x4694 DUP7 DUP11 PUSH2 0x2B96 JUMP JUMPDEST PUSH2 0x2B5A JUMP JUMPDEST SWAP1 POP PUSH2 0x46AE DUP2 PUSH2 0x46A9 DUP7 DUP10 PUSH2 0x2B96 JUMP JUMPDEST PUSH2 0x2B5A JUMP JUMPDEST SWAP1 POP PUSH2 0x46C4 DUP2 PUSH2 0x46BF DUP14 PUSH1 0x8 PUSH2 0x62A5 JUMP JUMPDEST PUSH2 0x2B5A JUMP JUMPDEST SWAP1 POP PUSH2 0x46D0 DUP2 DUP11 PUSH2 0x2B5A JUMP JUMPDEST SWAP1 POP DUP1 DUP11 PUSH1 0x7 PUSH1 0x1A DUP2 LT PUSH2 0x46E7 JUMPI PUSH2 0x46E6 PUSH2 0x6CC0 JUMP JUMPDEST JUMPDEST PUSH1 0x20 MUL ADD DUP2 DUP2 MSTORE POP POP POP PUSH1 0x0 DUP3 SWAP1 POP PUSH2 0x4709 DUP2 PUSH2 0x4704 DUP6 DUP12 PUSH2 0x2B96 JUMP JUMPDEST PUSH2 0x2B5A JUMP JUMPDEST SWAP1 POP PUSH2 0x471E DUP2 PUSH2 0x4719 DUP6 DUP11 PUSH2 0x2B96 JUMP JUMPDEST PUSH2 0x2B5A JUMP JUMPDEST SWAP1 POP PUSH2 0x4733 DUP2 PUSH2 0x472E DUP6 DUP10 PUSH2 0x2B96 JUMP JUMPDEST PUSH2 0x2B5A JUMP JUMPDEST SWAP1 POP PUSH2 0x4749 DUP2 PUSH2 0x4744 DUP14 PUSH1 0x8 PUSH2 0x62A5 JUMP JUMPDEST PUSH2 0x2B5A JUMP JUMPDEST SWAP1 POP PUSH2 0x4755 DUP2 DUP11 PUSH2 0x2B5A JUMP JUMPDEST SWAP1 POP DUP1 DUP11 PUSH1 0x8 PUSH1 0x1A DUP2 LT PUSH2 0x476C JUMPI PUSH2 0x476B PUSH2 0x6CC0 JUMP JUMPDEST JUMPDEST PUSH1 0x20 MUL ADD DUP2 DUP2 MSTORE POP POP POP PUSH1 0x0 DUP2 SWAP1 POP PUSH2 0x478E DUP2 PUSH2 0x4789 DUP5 DUP12 PUSH2 0x2B96 JUMP JUMPDEST PUSH2 0x2B5A JUMP JUMPDEST SWAP1 POP PUSH2 0x47A3 DUP2 PUSH2 0x479E DUP5 DUP11 PUSH2 0x2B96 JUMP JUMPDEST PUSH2 0x2B5A JUMP JUMPDEST SWAP1 POP PUSH2 0x47B8 DUP2 PUSH2 0x47B3 DUP5 DUP10 PUSH2 0x2B96 JUMP JUMPDEST PUSH2 0x2B5A JUMP JUMPDEST SWAP1 POP PUSH2 0x47CE DUP2 PUSH2 0x47C9 DUP14 PUSH1 0x8 PUSH2 0x62A5 JUMP JUMPDEST PUSH2 0x2B5A JUMP JUMPDEST SWAP1 POP PUSH2 0x47DA DUP2 DUP11 PUSH2 0x2B5A JUMP JUMPDEST SWAP1 POP DUP1 DUP11 PUSH1 0x9 PUSH1 0x1A DUP2 LT PUSH2 0x47F1 JUMPI PUSH2 0x47F0 PUSH2 0x6CC0 JUMP JUMPDEST JUMPDEST PUSH1 0x20 MUL ADD DUP2 DUP2 MSTORE POP POP POP POP POP POP POP POP POP POP POP POP POP JUMP JUMPDEST PUSH2 0x480F PUSH2 0x680F JUMP JUMPDEST PUSH2 0x481A DUP5 PUSH1 0x1C PUSH2 0x62A5 JUMP JUMPDEST DUP2 PUSH1 0x0 ADD DUP2 DUP2 MSTORE POP POP PUSH2 0x482E DUP5 PUSH1 0x1D PUSH2 0x62A5 JUMP JUMPDEST DUP2 PUSH1 0x20 ADD DUP2 DUP2 MSTORE POP POP PUSH2 0x4842 DUP5 PUSH1 0x23 PUSH2 0x62A5 JUMP JUMPDEST DUP2 PUSH1 0x40 ADD DUP2 DUP2 MSTORE POP POP PUSH2 0x4856 DUP5 PUSH1 0x26 PUSH2 0x62A5 JUMP JUMPDEST DUP2 PUSH1 0x60 ADD DUP2 DUP2 MSTORE POP POP PUSH2 0x486A DUP5 PUSH1 0x25 PUSH2 0x62A5 JUMP JUMPDEST DUP2 PUSH1 0x80 ADD DUP2 DUP2 MSTORE POP POP PUSH2 0x487E DUP5 PUSH1 0x24 PUSH2 0x62A5 JUMP JUMPDEST DUP2 PUSH1 0xA0 ADD DUP2 DUP2 MSTORE POP POP PUSH1 0x0 PUSH2 0x4894 DUP6 PUSH1 0x2 PUSH2 0x62A5 JUMP JUMPDEST SWAP1 POP PUSH1 0x0 PUSH2 0x48A3 DUP7 PUSH1 0x0 PUSH2 0x62A5 JUMP JUMPDEST SWAP1 POP PUSH1 0x0 PUSH2 0x48B9 DUP5 PUSH1 0x40 ADD MLOAD DUP6 PUSH1 0x0 ADD MLOAD PUSH2 0x2BD2 JUMP JUMPDEST SWAP1 POP PUSH1 0x0 PUSH2 0x48CF DUP6 PUSH1 0x20 ADD MLOAD DUP7 PUSH1 0x20 ADD MLOAD PUSH2 0x2B5A JUMP JUMPDEST SWAP1 POP PUSH1 0x0 DUP7 SWAP1 POP PUSH1 0x0 PUSH2 0x48EA DUP8 PUSH1 0x60 ADD MLOAD DUP9 PUSH1 0x60 ADD MLOAD PUSH2 0x2B5A JUMP JUMPDEST SWAP1 POP PUSH1 0x0 PUSH2 0x4909 PUSH2 0x4903 DUP10 PUSH1 0x20 ADD MLOAD DUP11 PUSH1 0x60 ADD MLOAD PUSH2 0x2B5A JUMP JUMPDEST DUP9 PUSH2 0x2B5A JUMP JUMPDEST SWAP1 POP PUSH1 0x0 PUSH2 0x492C PUSH2 0x4922 DUP11 PUSH1 0xA0 ADD MLOAD DUP12 PUSH1 0x40 ADD MLOAD PUSH2 0x2B96 JUMP JUMPDEST DUP11 PUSH1 0x0 ADD MLOAD PUSH2 0x2B96 JUMP JUMPDEST SWAP1 POP PUSH2 0x4941 PUSH2 0x493B DUP3 DUP9 PUSH2 0x2B5A JUMP JUMPDEST DUP8 PUSH2 0x2B5A JUMP JUMPDEST SWAP1 POP PUSH2 0x4968 PUSH2 0x4962 PUSH2 0x495C PUSH2 0x4956 DUP5 DUP8 PUSH2 0x2BD2 JUMP JUMPDEST DUP9 PUSH2 0x2BD2 JUMP JUMPDEST DUP5 PUSH2 0x2B96 JUMP JUMPDEST DUP4 PUSH2 0x2B96 JUMP JUMPDEST SWAP1 POP PUSH2 0x499A PUSH2 0x498A PUSH2 0x497A DUP4 DUP8 PUSH2 0x2B5A JUMP JUMPDEST PUSH2 0x4985 DUP16 PUSH1 0x9 PUSH2 0x62A5 JUMP JUMPDEST PUSH2 0x2B5A JUMP JUMPDEST PUSH2 0x4995 PUSH1 0x1 DUP11 PUSH2 0x2BD2 JUMP JUMPDEST PUSH2 0x2B5A JUMP JUMPDEST DUP12 PUSH1 0xA PUSH1 0x1A DUP2 LT PUSH2 0x49AE JUMPI PUSH2 0x49AD PUSH2 0x6CC0 JUMP JUMPDEST JUMPDEST PUSH1 0x20 MUL ADD DUP2 DUP2 MSTORE POP POP POP POP POP POP PUSH1 0x0 PUSH2 0x49CF DUP7 PUSH1 0x20 ADD MLOAD DUP8 PUSH1 0x80 ADD MLOAD PUSH2 0x2B96 JUMP JUMPDEST SWAP1 POP PUSH1 0x0 PUSH2 0x49EE PUSH2 0x49E4 DUP9 PUSH1 0x60 ADD MLOAD DUP9 PUSH2 0x2B5A JUMP JUMPDEST DUP9 PUSH1 0x20 ADD MLOAD PUSH2 0x2BD2 JUMP JUMPDEST SWAP1 POP PUSH1 0x0 PUSH2 0x4A1F PUSH2 0x49FF DUP5 DUP8 PUSH2 0x2B5A JUMP JUMPDEST PUSH2 0x4A1A PUSH2 0x4A14 DUP12 PUSH1 0xA0 ADD MLOAD DUP13 PUSH1 0x0 ADD MLOAD PUSH2 0x2BD2 JUMP JUMPDEST DUP6 PUSH2 0x2B5A JUMP JUMPDEST PUSH2 0x2B96 JUMP JUMPDEST SWAP1 POP PUSH2 0x4A51 PUSH2 0x4A41 PUSH2 0x4A31 DUP4 DUP13 PUSH2 0x2B5A JUMP JUMPDEST PUSH2 0x4A3C DUP15 PUSH1 0x9 PUSH2 0x62A5 JUMP JUMPDEST PUSH2 0x2B5A JUMP JUMPDEST PUSH2 0x4A4C PUSH1 0x1 DUP10 PUSH2 0x2BD2 JUMP JUMPDEST PUSH2 0x2B5A JUMP JUMPDEST DUP11 PUSH1 0xB PUSH1 0x1A DUP2 LT PUSH2 0x4A65 JUMPI PUSH2 0x4A64 PUSH2 0x6CC0 JUMP JUMPDEST JUMPDEST PUSH1 0x20 MUL ADD DUP2 DUP2 MSTORE POP POP POP POP POP PUSH1 0x0 PUSH2 0x4A8B PUSH2 0x4A81 DUP4 PUSH1 0x11 PUSH2 0x2B96 JUMP JUMPDEST DUP8 PUSH1 0x0 ADD MLOAD PUSH2 0x2B5A JUMP JUMPDEST SWAP1 POP PUSH1 0x0 PUSH2 0x4A99 DUP4 DUP5 PUSH2 0x2B96 JUMP JUMPDEST SWAP1 POP PUSH2 0x4AA5 DUP2 DUP3 PUSH2 0x2B96 JUMP JUMPDEST SWAP1 POP PUSH1 0x0 PUSH2 0x4AB4 DUP4 PUSH1 0x9 PUSH2 0x2B5A JUMP JUMPDEST SWAP1 POP PUSH2 0x4AE7 PUSH2 0x4AE1 PUSH2 0x4ADB PUSH2 0x4AD1 DUP12 PUSH1 0xA0 ADD MLOAD DUP13 PUSH1 0x0 ADD MLOAD PUSH2 0x2B96 JUMP JUMPDEST DUP12 PUSH1 0x0 ADD MLOAD PUSH2 0x2B96 JUMP JUMPDEST DUP5 PUSH2 0x2B5A JUMP JUMPDEST DUP3 PUSH2 0x2BD2 JUMP JUMPDEST DUP9 PUSH1 0xC0 ADD DUP2 DUP2 MSTORE POP POP PUSH1 0x0 PUSH2 0x4B1C PUSH2 0x4B16 PUSH2 0x4B06 DUP12 PUSH1 0xC0 ADD MLOAD DUP14 PUSH2 0x2B5A JUMP JUMPDEST PUSH2 0x4B11 DUP16 PUSH1 0x9 PUSH2 0x62A5 JUMP JUMPDEST PUSH2 0x2B5A JUMP JUMPDEST DUP9 PUSH2 0x2B5A JUMP JUMPDEST SWAP1 POP PUSH2 0x4B40 DUP12 PUSH1 0xA PUSH1 0x1A DUP2 LT PUSH2 0x4B35 JUMPI PUSH2 0x4B34 PUSH2 0x6CC0 JUMP JUMPDEST JUMPDEST PUSH1 0x20 MUL ADD MLOAD DUP3 PUSH2 0x2B96 JUMP JUMPDEST DUP12 PUSH1 0xA PUSH1 0x1A DUP2 LT PUSH2 0x4B54 JUMPI PUSH2 0x4B53 PUSH2 0x6CC0 JUMP JUMPDEST JUMPDEST PUSH1 0x20 MUL ADD DUP2 DUP2 MSTORE POP POP POP POP POP POP PUSH1 0x0 PUSH2 0x4B8F PUSH2 0x4B85 PUSH2 0x4B7B DUP9 PUSH1 0x0 ADD MLOAD DUP10 PUSH1 0x0 ADD MLOAD PUSH2 0x2B96 JUMP JUMPDEST DUP9 PUSH1 0x0 ADD MLOAD PUSH2 0x2B96 JUMP JUMPDEST DUP8 PUSH1 0x0 ADD MLOAD PUSH2 0x2B5A JUMP JUMPDEST SWAP1 POP PUSH1 0x0 PUSH2 0x4BE2 PUSH2 0x4BB1 DUP4 PUSH2 0x4BAC DUP11 PUSH1 0x0 ADD MLOAD DUP12 PUSH1 0xA0 ADD MLOAD PUSH2 0x2BD2 JUMP JUMPDEST PUSH2 0x2B5A JUMP JUMPDEST PUSH2 0x4BDD PUSH2 0x4BC6 DUP11 PUSH1 0x20 ADD MLOAD DUP12 PUSH1 0x20 ADD MLOAD PUSH2 0x2B96 JUMP JUMPDEST PUSH2 0x4BD8 DUP12 PUSH1 0x20 ADD MLOAD DUP13 PUSH1 0x80 ADD MLOAD PUSH2 0x2B96 JUMP JUMPDEST PUSH2 0x2B5A JUMP JUMPDEST PUSH2 0x2BD2 JUMP JUMPDEST SWAP1 POP PUSH2 0x4C2B DUP10 PUSH1 0xB PUSH1 0x1A DUP2 LT PUSH2 0x4BFB JUMPI PUSH2 0x4BFA PUSH2 0x6CC0 JUMP JUMPDEST JUMPDEST PUSH1 0x20 MUL ADD MLOAD PUSH2 0x4C26 PUSH2 0x4C20 PUSH2 0x4C10 DUP6 DUP14 PUSH2 0x2B5A JUMP JUMPDEST PUSH2 0x4C1B DUP16 PUSH1 0x9 PUSH2 0x62A5 JUMP JUMPDEST PUSH2 0x2B5A JUMP JUMPDEST DUP9 PUSH2 0x2B5A JUMP JUMPDEST PUSH2 0x2B96 JUMP JUMPDEST DUP10 PUSH1 0xB PUSH1 0x1A DUP2 LT PUSH2 0x4C3F JUMPI PUSH2 0x4C3E PUSH2 0x6CC0 JUMP JUMPDEST JUMPDEST PUSH1 0x20 MUL ADD DUP2 DUP2 MSTORE POP POP POP POP POP POP POP POP POP POP POP POP JUMP JUMPDEST PUSH2 0x4C5C PUSH2 0x684C JUMP JUMPDEST PUSH2 0x4CA0 PUSH2 0x4C7D PUSH2 0x4C6D DUP8 PUSH1 0x1B PUSH2 0x62A5 JUMP JUMPDEST PUSH2 0x4C78 DUP9 PUSH1 0x24 PUSH2 0x62A5 JUMP JUMPDEST PUSH2 0x2B5A JUMP JUMPDEST PUSH2 0x4C9B PUSH2 0x4C8B DUP9 PUSH1 0x23 PUSH2 0x62A5 JUMP JUMPDEST PUSH2 0x4C96 DUP10 PUSH1 0x1C PUSH2 0x62A5 JUMP JUMPDEST PUSH2 0x2B5A JUMP JUMPDEST PUSH2 0x2B96 JUMP JUMPDEST DUP2 PUSH1 0x0 ADD DUP2 DUP2 MSTORE POP POP PUSH2 0x4D00 PUSH2 0x4CF0 PUSH2 0x4CCD PUSH2 0x4CBD DUP9 PUSH1 0x1B PUSH2 0x62A5 JUMP JUMPDEST PUSH2 0x4CC8 DUP10 PUSH1 0x1E PUSH2 0x62A5 JUMP JUMPDEST PUSH2 0x2B5A JUMP JUMPDEST PUSH2 0x4CEB PUSH2 0x4CDB DUP10 PUSH1 0x1C PUSH2 0x62A5 JUMP JUMPDEST PUSH2 0x4CE6 DUP11 PUSH1 0x1D PUSH2 0x62A5 JUMP JUMPDEST PUSH2 0x2B5A JUMP JUMPDEST PUSH2 0x2B96 JUMP JUMPDEST PUSH2 0x4CFB DUP8 PUSH1 0x25 PUSH2 0x62A5 JUMP JUMPDEST PUSH2 0x2BD2 JUMP JUMPDEST DUP2 PUSH1 0x40 ADD DUP2 DUP2 MSTORE POP POP PUSH2 0x4D1C DUP2 PUSH1 0x40 ADD MLOAD PUSH1 0x44 PUSH1 0x1 SWAP1 SHL PUSH2 0x2B5A JUMP JUMPDEST DUP2 PUSH1 0x40 ADD DUP2 DUP2 MSTORE POP POP PUSH2 0x4D3D DUP2 PUSH1 0x40 ADD MLOAD PUSH2 0x4D38 DUP8 PUSH1 0x26 PUSH2 0x62A5 JUMP JUMPDEST PUSH2 0x2BD2 JUMP JUMPDEST DUP2 PUSH1 0x40 ADD DUP2 DUP2 MSTORE POP POP PUSH2 0x4D58 DUP2 PUSH1 0x40 ADD MLOAD DUP3 PUSH1 0x0 ADD MLOAD PUSH2 0x2B96 JUMP JUMPDEST DUP2 PUSH1 0x40 ADD DUP2 DUP2 MSTORE POP POP PUSH2 0x4D79 DUP2 PUSH1 0x40 ADD MLOAD PUSH2 0x4D74 DUP8 PUSH1 0x5 PUSH2 0x62A5 JUMP JUMPDEST PUSH2 0x2B5A JUMP JUMPDEST DUP2 PUSH1 0x40 ADD DUP2 DUP2 MSTORE POP POP PUSH2 0x4D95 DUP2 PUSH1 0x0 ADD MLOAD PUSH1 0x44 PUSH1 0x1 SWAP1 SHL PUSH2 0x2B5A JUMP JUMPDEST DUP2 PUSH1 0x0 ADD DUP2 DUP2 MSTORE POP POP PUSH2 0x4DC9 DUP2 PUSH1 0x0 ADD MLOAD PUSH2 0x4DC4 PUSH2 0x4DB4 DUP9 PUSH1 0x23 PUSH2 0x62A5 JUMP JUMPDEST PUSH2 0x4DBF DUP10 PUSH1 0x24 PUSH2 0x62A5 JUMP JUMPDEST PUSH2 0x2B5A JUMP JUMPDEST PUSH2 0x2B96 JUMP JUMPDEST DUP2 PUSH1 0x0 ADD DUP2 DUP2 MSTORE POP POP DUP1 PUSH1 0x0 ADD MLOAD DUP2 PUSH1 0x20 ADD DUP2 DUP2 MSTORE POP POP PUSH2 0x4E0B DUP2 PUSH1 0x20 ADD MLOAD PUSH2 0x4E06 PUSH2 0x4DF6 DUP9 PUSH1 0x1D PUSH2 0x62A5 JUMP JUMPDEST PUSH2 0x4E01 DUP10 PUSH1 0x1E PUSH2 0x62A5 JUMP JUMPDEST PUSH2 0x2B96 JUMP JUMPDEST PUSH2 0x2BD2 JUMP JUMPDEST DUP2 PUSH1 0x20 ADD DUP2 DUP2 MSTORE POP POP PUSH2 0x4E2C DUP2 PUSH1 0x20 ADD MLOAD PUSH2 0x4E27 DUP8 PUSH1 0x4 PUSH2 0x62A5 JUMP JUMPDEST PUSH2 0x2B5A JUMP JUMPDEST DUP2 PUSH1 0x20 ADD DUP2 DUP2 MSTORE POP POP DUP1 PUSH1 0x0 ADD MLOAD DUP2 PUSH1 0x60 ADD DUP2 DUP2 MSTORE POP POP PUSH2 0x4E5B DUP2 PUSH1 0x60 ADD MLOAD PUSH2 0x4E56 DUP8 PUSH1 0x1E PUSH2 0x62A5 JUMP JUMPDEST PUSH2 0x2B96 JUMP JUMPDEST DUP2 PUSH1 0x60 ADD DUP2 DUP2 MSTORE POP POP PUSH2 0x4E8F DUP2 PUSH1 0x60 ADD MLOAD PUSH2 0x4E8A PUSH2 0x4E7A DUP9 PUSH1 0x25 PUSH2 0x62A5 JUMP JUMPDEST PUSH2 0x4E85 DUP10 PUSH1 0x26 PUSH2 0x62A5 JUMP JUMPDEST PUSH2 0x2B96 JUMP JUMPDEST PUSH2 0x2BD2 JUMP JUMPDEST DUP2 PUSH1 0x60 ADD DUP2 DUP2 MSTORE POP POP PUSH2 0x4EB0 DUP2 PUSH1 0x60 ADD MLOAD PUSH2 0x4EAB DUP8 PUSH1 0x0 PUSH2 0x62A5 JUMP JUMPDEST PUSH2 0x2B5A JUMP JUMPDEST DUP2 PUSH1 0x60 ADD DUP2 DUP2 MSTORE POP POP PUSH1 0x0 PUSH2 0x4EDA PUSH2 0x4ED0 DUP4 PUSH1 0x20 ADD MLOAD DUP5 PUSH1 0x40 ADD MLOAD PUSH2 0x2B96 JUMP JUMPDEST DUP4 PUSH1 0x60 ADD MLOAD PUSH2 0x2B96 JUMP JUMPDEST SWAP1 POP PUSH2 0x4EF0 DUP2 PUSH2 0x4EEB DUP9 PUSH1 0x3 PUSH2 0x62A5 JUMP JUMPDEST PUSH2 0x2B5A JUMP JUMPDEST SWAP1 POP PUSH2 0x4F0B PUSH2 0x4F00 DUP8 PUSH1 0x24 PUSH2 0x62A5 JUMP JUMPDEST PUSH1 0xE PUSH1 0x1 SWAP1 SHL PUSH2 0x2B5A JUMP JUMPDEST DUP3 PUSH1 0x80 ADD DUP2 DUP2 MSTORE POP POP PUSH2 0x4F2C DUP3 PUSH1 0x80 ADD MLOAD PUSH2 0x4F27 DUP9 PUSH1 0x23 PUSH2 0x62A5 JUMP JUMPDEST PUSH2 0x2B96 JUMP JUMPDEST DUP3 PUSH1 0x80 ADD DUP2 DUP2 MSTORE POP POP PUSH2 0x4F48 DUP3 PUSH1 0x80 ADD MLOAD PUSH1 0xE PUSH1 0x1 SWAP1 SHL PUSH2 0x2B5A JUMP JUMPDEST DUP3 PUSH1 0x80 ADD DUP2 DUP2 MSTORE POP POP PUSH2 0x4F69 DUP3 PUSH1 0x80 ADD MLOAD PUSH2 0x4F64 DUP9 PUSH1 0x1D PUSH2 0x62A5 JUMP JUMPDEST PUSH2 0x2B96 JUMP JUMPDEST DUP3 PUSH1 0x80 ADD DUP2 DUP2 MSTORE POP POP PUSH2 0x4F85 DUP3 PUSH1 0x80 ADD MLOAD PUSH1 0xE PUSH1 0x1 SWAP1 SHL PUSH2 0x2B5A JUMP JUMPDEST DUP3 PUSH1 0x80 ADD DUP2 DUP2 MSTORE POP POP PUSH2 0x4FA6 DUP3 PUSH1 0x80 ADD MLOAD PUSH2 0x4FA1 DUP9 PUSH1 0x1C PUSH2 0x62A5 JUMP JUMPDEST PUSH2 0x2B96 JUMP JUMPDEST DUP3 PUSH1 0x80 ADD DUP2 DUP2 MSTORE POP POP PUSH2 0x4FC2 DUP3 PUSH1 0x80 ADD MLOAD PUSH1 0xE PUSH1 0x1 SWAP1 SHL PUSH2 0x2B5A JUMP JUMPDEST DUP3 PUSH1 0x80 ADD DUP2 DUP2 MSTORE POP POP PUSH2 0x4FE3 DUP3 PUSH1 0x80 ADD MLOAD PUSH2 0x4FDE DUP9 PUSH1 0x1B PUSH2 0x62A5 JUMP JUMPDEST PUSH2 0x2B96 JUMP JUMPDEST DUP3 PUSH1 0x80 ADD DUP2 DUP2 MSTORE POP POP PUSH2 0x5004 DUP3 PUSH1 0x80 ADD MLOAD PUSH2 0x4FFF DUP9 PUSH1 0x1E PUSH2 0x62A5 JUMP JUMPDEST PUSH2 0x2BD2 JUMP JUMPDEST DUP3 PUSH1 0x80 ADD DUP2 DUP2 MSTORE POP POP PUSH2 0x5025 DUP3 PUSH1 0x80 ADD MLOAD PUSH2 0x5020 DUP9 PUSH1 0x5 PUSH2 0x62A5 JUMP JUMPDEST PUSH2 0x2B5A JUMP JUMPDEST DUP3 PUSH1 0x80 ADD DUP2 DUP2 MSTORE POP POP PUSH2 0x5047 PUSH2 0x503C DUP8 PUSH1 0x25 PUSH2 0x62A5 JUMP JUMPDEST PUSH1 0xE PUSH1 0x1 SWAP1 SHL PUSH2 0x2B5A JUMP JUMPDEST DUP3 PUSH1 0xA0 ADD DUP2 DUP2 MSTORE POP POP PUSH2 0x5068 DUP3 PUSH1 0xA0 ADD MLOAD PUSH2 0x5063 DUP9 PUSH1 0x24 PUSH2 0x62A5 JUMP JUMPDEST PUSH2 0x2B96 JUMP JUMPDEST DUP3 PUSH1 0xA0 ADD DUP2 DUP2 MSTORE POP POP PUSH2 0x5084 DUP3 PUSH1 0xA0 ADD MLOAD PUSH1 0xE PUSH1 0x1 SWAP1 SHL PUSH2 0x2B5A JUMP JUMPDEST DUP3 PUSH1 0xA0 ADD DUP2 DUP2 MSTORE POP POP PUSH2 0x50A5 DUP3 PUSH1 0xA0 ADD MLOAD PUSH2 0x50A0 DUP9 PUSH1 0x23 PUSH2 0x62A5 JUMP JUMPDEST PUSH2 0x2B96 JUMP JUMPDEST DUP3 PUSH1 0xA0 ADD DUP2 DUP2 MSTORE POP POP PUSH2 0x50C1 DUP3 PUSH1 0xA0 ADD MLOAD PUSH1 0xE PUSH1 0x1 SWAP1 SHL PUSH2 0x2B5A JUMP JUMPDEST DUP3 PUSH1 0xA0 ADD DUP2 DUP2 MSTORE POP POP PUSH2 0x50E2 DUP3 PUSH1 0xA0 ADD MLOAD PUSH2 0x50DD DUP9 PUSH1 0x1E PUSH2 0x62A5 JUMP JUMPDEST PUSH2 0x2B96 JUMP JUMPDEST DUP3 PUSH1 0xA0 ADD DUP2 DUP2 MSTORE POP POP PUSH2 0x50FE DUP3 PUSH1 0xA0 ADD MLOAD PUSH1 0xE PUSH1 0x1 SWAP1 SHL PUSH2 0x2B5A JUMP JUMPDEST DUP3 PUSH1 0xA0 ADD DUP2 DUP2 MSTORE POP POP PUSH2 0x511F DUP3 PUSH1 0xA0 ADD MLOAD PUSH2 0x511A DUP9 PUSH1 0x1D PUSH2 0x62A5 JUMP JUMPDEST PUSH2 0x2B96 JUMP JUMPDEST DUP3 PUSH1 0xA0 ADD DUP2 DUP2 MSTORE POP POP PUSH2 0x5140 DUP3 PUSH1 0xA0 ADD MLOAD PUSH2 0x513B DUP9 PUSH1 0x26 PUSH2 0x62A5 JUMP JUMPDEST PUSH2 0x2BD2 JUMP JUMPDEST DUP3 PUSH1 0xA0 ADD DUP2 DUP2 MSTORE POP POP PUSH2 0x5161 DUP3 PUSH1 0xA0 ADD MLOAD PUSH2 0x515C DUP9 PUSH1 0x0 PUSH2 0x62A5 JUMP JUMPDEST PUSH2 0x2B5A JUMP JUMPDEST DUP3 PUSH1 0xA0 ADD DUP2 DUP2 MSTORE POP POP PUSH1 0x0 PUSH2 0x517E DUP4 PUSH1 0x80 ADD MLOAD DUP5 PUSH1 0xA0 ADD MLOAD PUSH2 0x2B96 JUMP JUMPDEST SWAP1 POP PUSH2 0x5194 DUP2 PUSH2 0x518F DUP10 PUSH1 0x4 PUSH2 0x62A5 JUMP JUMPDEST PUSH2 0x2B5A JUMP JUMPDEST SWAP1 POP PUSH2 0x51AE PUSH2 0x51A4 DUP9 PUSH1 0x1D PUSH2 0x62A5 JUMP JUMPDEST DUP8 PUSH1 0x40 ADD MLOAD PUSH2 0x2B5A JUMP JUMPDEST DUP4 PUSH1 0xC0 ADD DUP2 DUP2 MSTORE POP POP PUSH2 0x51DC DUP4 PUSH1 0xC0 ADD MLOAD PUSH2 0x51D7 PUSH2 0x51CD DUP11 PUSH1 0x1C PUSH2 0x62A5 JUMP JUMPDEST DUP10 PUSH1 0x20 ADD MLOAD PUSH2 0x2B5A JUMP JUMPDEST PUSH2 0x2B96 JUMP JUMPDEST DUP4 PUSH1 0xC0 ADD DUP2 DUP2 MSTORE POP POP PUSH2 0x520A DUP4 PUSH1 0xC0 ADD MLOAD PUSH2 0x5205 PUSH2 0x51FB DUP11 PUSH1 0x1B PUSH2 0x62A5 JUMP JUMPDEST DUP10 PUSH1 0x0 ADD MLOAD PUSH2 0x2B5A JUMP JUMPDEST PUSH2 0x2B96 JUMP JUMPDEST DUP4 PUSH1 0xC0 ADD DUP2 DUP2 MSTORE POP POP PUSH2 0x522B DUP4 PUSH1 0xC0 ADD MLOAD PUSH2 0x5226 DUP10 PUSH1 0x1 PUSH2 0x62A5 JUMP JUMPDEST PUSH2 0x2B96 JUMP JUMPDEST DUP4 PUSH1 0xC0 ADD DUP2 DUP2 MSTORE POP POP DUP3 PUSH1 0xC0 ADD MLOAD DUP4 PUSH1 0xE0 ADD DUP2 DUP2 MSTORE POP POP PUSH2 0x525A DUP4 PUSH1 0xC0 ADD MLOAD PUSH2 0x5255 DUP10 PUSH1 0x1E PUSH2 0x62A5 JUMP JUMPDEST PUSH2 0x2BD2 JUMP JUMPDEST DUP4 PUSH1 0xC0 ADD DUP2 DUP2 MSTORE POP POP PUSH2 0x5281 PUSH2 0x5271 DUP9 PUSH1 0x23 PUSH2 0x62A5 JUMP JUMPDEST PUSH2 0x527C DUP10 PUSH1 0x1B PUSH2 0x62A5 JUMP JUMPDEST PUSH2 0x2BD2 JUMP JUMPDEST DUP4 PUSH2 0x140 ADD DUP2 DUP2 MSTORE POP POP PUSH2 0x52A9 PUSH2 0x5299 DUP9 PUSH1 0x26 PUSH2 0x62A5 JUMP JUMPDEST PUSH2 0x52A4 DUP10 PUSH1 0x1E PUSH2 0x62A5 JUMP JUMPDEST PUSH2 0x2BD2 JUMP JUMPDEST DUP4 PUSH2 0x120 ADD DUP2 DUP2 MSTORE POP POP PUSH2 0x52D5 PUSH2 0x52CA DUP5 PUSH2 0x140 ADD MLOAD DUP6 PUSH2 0x140 ADD MLOAD PUSH2 0x2B5A JUMP JUMPDEST DUP5 PUSH2 0x140 ADD MLOAD PUSH2 0x2BD2 JUMP JUMPDEST DUP4 PUSH2 0x280 ADD DUP2 DUP2 MSTORE POP POP PUSH2 0x5332 PUSH2 0x5327 PUSH2 0x5320 DUP6 PUSH2 0x140 ADD MLOAD PUSH1 0x1 PUSH32 0x30644E72E131A029B85045B68181585D2833E84879B9709143E1F593F0000001 PUSH2 0x531B SWAP2 SWAP1 PUSH2 0x6CEF JUMP JUMPDEST PUSH2 0x2B5A JUMP JUMPDEST PUSH1 0x1 PUSH2 0x2B96 JUMP JUMPDEST DUP5 PUSH2 0x120 ADD MLOAD PUSH2 0x2B5A JUMP JUMPDEST DUP4 PUSH2 0x160 ADD DUP2 DUP2 MSTORE POP POP PUSH2 0x5384 PUSH2 0x536B DUP5 PUSH2 0x160 ADD MLOAD PUSH2 0x5366 PUSH2 0x5356 DUP12 PUSH1 0x2 PUSH2 0x62A5 JUMP JUMPDEST PUSH2 0x5361 DUP13 PUSH1 0x3 PUSH2 0x62A5 JUMP JUMPDEST PUSH2 0x2B5A JUMP JUMPDEST PUSH2 0x2B5A JUMP JUMPDEST PUSH2 0x537F PUSH2 0x5379 DUP11 PUSH1 0xA PUSH2 0x62A5 JUMP JUMPDEST DUP8 PUSH2 0x2B5A JUMP JUMPDEST PUSH2 0x2B5A JUMP JUMPDEST DUP6 PUSH1 0xD PUSH1 0x1A DUP2 LT PUSH2 0x5398 JUMPI PUSH2 0x5397 PUSH2 0x6CC0 JUMP JUMPDEST JUMPDEST PUSH1 0x20 MUL ADD DUP2 DUP2 MSTORE POP POP PUSH2 0x53E9 PUSH2 0x53D0 DUP5 PUSH2 0x280 ADD MLOAD PUSH2 0x53CB PUSH2 0x53BB DUP12 PUSH1 0x2 PUSH2 0x62A5 JUMP JUMPDEST PUSH2 0x53C6 DUP13 PUSH1 0x3 PUSH2 0x62A5 JUMP JUMPDEST PUSH2 0x2B5A JUMP JUMPDEST PUSH2 0x2B5A JUMP JUMPDEST PUSH2 0x53E4 PUSH2 0x53DE DUP11 PUSH1 0xA PUSH2 0x62A5 JUMP JUMPDEST DUP8 PUSH2 0x2B5A JUMP JUMPDEST PUSH2 0x2B5A JUMP JUMPDEST DUP6 PUSH1 0xE PUSH1 0x1A DUP2 LT PUSH2 0x53FD JUMPI PUSH2 0x53FC PUSH2 0x6CC0 JUMP JUMPDEST JUMPDEST PUSH1 0x20 MUL ADD DUP2 DUP2 MSTORE POP POP PUSH2 0x5431 DUP4 PUSH1 0xC0 ADD MLOAD PUSH2 0x542C PUSH2 0x541C DUP11 PUSH1 0x2 PUSH2 0x62A5 JUMP JUMPDEST PUSH2 0x5427 DUP12 PUSH1 0x3 PUSH2 0x62A5 JUMP JUMPDEST PUSH2 0x2B5A JUMP JUMPDEST PUSH2 0x2B5A JUMP JUMPDEST DUP4 PUSH2 0x1E0 ADD DUP2 DUP2 MSTORE POP POP PUSH1 0x0 PUSH2 0x5455 PUSH2 0x544B DUP10 PUSH1 0x1E PUSH2 0x62A5 JUMP JUMPDEST DUP6 PUSH1 0xE0 ADD MLOAD PUSH2 0x2BD2 JUMP JUMPDEST SWAP1 POP PUSH2 0x546A PUSH2 0x5464 DUP3 DUP4 PUSH2 0x2B5A JUMP JUMPDEST DUP3 PUSH2 0x2BD2 JUMP JUMPDEST DUP5 PUSH2 0x1A0 ADD DUP2 DUP2 MSTORE POP POP PUSH2 0x548C PUSH2 0x5482 DUP10 PUSH1 0x25 PUSH2 0x62A5 JUMP JUMPDEST DUP9 PUSH1 0x40 ADD MLOAD PUSH2 0x2B5A JUMP JUMPDEST DUP5 PUSH2 0x100 ADD DUP2 DUP2 MSTORE POP POP PUSH2 0x54BC DUP5 PUSH2 0x100 ADD MLOAD PUSH2 0x54B7 PUSH2 0x54AD DUP12 PUSH1 0x24 PUSH2 0x62A5 JUMP JUMPDEST DUP11 PUSH1 0x20 ADD MLOAD PUSH2 0x2B5A JUMP JUMPDEST PUSH2 0x2B96 JUMP JUMPDEST DUP5 PUSH2 0x100 ADD DUP2 DUP2 MSTORE POP POP PUSH2 0x54EC DUP5 PUSH2 0x100 ADD MLOAD PUSH2 0x54E7 PUSH2 0x54DD DUP12 PUSH1 0x23 PUSH2 0x62A5 JUMP JUMPDEST DUP11 PUSH1 0x0 ADD MLOAD PUSH2 0x2B5A JUMP JUMPDEST PUSH2 0x2B96 JUMP JUMPDEST DUP5 PUSH2 0x100 ADD DUP2 DUP2 MSTORE POP POP PUSH2 0x550F PUSH2 0x5504 DUP10 PUSH1 0x26 PUSH2 0x62A5 JUMP JUMPDEST DUP6 PUSH2 0x100 ADD MLOAD PUSH2 0x2BD2 JUMP JUMPDEST DUP5 PUSH2 0x100 ADD DUP2 DUP2 MSTORE POP POP PUSH1 0x0 PUSH2 0x5539 PUSH2 0x5529 DUP11 PUSH1 0x25 PUSH2 0x62A5 JUMP JUMPDEST PUSH2 0x5534 DUP12 PUSH1 0x1D PUSH2 0x62A5 JUMP JUMPDEST PUSH2 0x2BD2 JUMP JUMPDEST SWAP1 POP PUSH2 0x55D6 PUSH2 0x558C PUSH2 0x5586 PUSH2 0x557F DUP9 PUSH2 0x140 ADD MLOAD PUSH1 0x1 PUSH32 0x30644E72E131A029B85045B68181585D2833E84879B9709143E1F593F0000001 PUSH2 0x557A SWAP2 SWAP1 PUSH2 0x6CEF JUMP JUMPDEST PUSH2 0x2B5A JUMP JUMPDEST PUSH1 0x1 PUSH2 0x2B96 JUMP JUMPDEST DUP4 PUSH2 0x2B5A JUMP JUMPDEST PUSH2 0x55D1 PUSH2 0x55CA DUP9 PUSH2 0x100 ADD MLOAD PUSH1 0x1 PUSH32 0x30644E72E131A029B85045B68181585D2833E84879B9709143E1F593F0000001 PUSH2 0x55C5 SWAP2 SWAP1 PUSH2 0x6CEF JUMP JUMPDEST PUSH2 0x2B5A JUMP JUMPDEST PUSH1 0x1 PUSH2 0x2B96 JUMP JUMPDEST PUSH2 0x2B5A JUMP JUMPDEST DUP6 PUSH2 0x180 ADD DUP2 DUP2 MSTORE POP POP PUSH2 0x5602 PUSH2 0x55F7 DUP7 PUSH2 0x100 ADD MLOAD DUP8 PUSH2 0x100 ADD MLOAD PUSH2 0x2B5A JUMP JUMPDEST DUP7 PUSH2 0x100 ADD MLOAD PUSH2 0x2BD2 JUMP JUMPDEST DUP6 PUSH2 0x1C0 ADD DUP2 DUP2 MSTORE POP POP PUSH2 0x5641 PUSH2 0x5628 DUP7 PUSH2 0x180 ADD MLOAD PUSH2 0x5623 DUP13 PUSH1 0x7 PUSH2 0x62A5 JUMP JUMPDEST PUSH2 0x2B5A JUMP JUMPDEST PUSH2 0x563C PUSH2 0x5636 DUP13 PUSH1 0xA PUSH2 0x62A5 JUMP JUMPDEST DUP10 PUSH2 0x2B5A JUMP JUMPDEST PUSH2 0x2B5A JUMP JUMPDEST DUP8 PUSH1 0xF PUSH1 0x1A DUP2 LT PUSH2 0x5655 JUMPI PUSH2 0x5654 PUSH2 0x6CC0 JUMP JUMPDEST JUMPDEST PUSH1 0x20 MUL ADD DUP2 DUP2 MSTORE POP POP PUSH2 0x5693 PUSH2 0x567A DUP7 PUSH2 0x280 ADD MLOAD PUSH2 0x5675 DUP13 PUSH1 0x7 PUSH2 0x62A5 JUMP JUMPDEST PUSH2 0x2B5A JUMP JUMPDEST PUSH2 0x568E PUSH2 0x5688 DUP13 PUSH1 0xA PUSH2 0x62A5 JUMP JUMPDEST DUP10 PUSH2 0x2B5A JUMP JUMPDEST PUSH2 0x2B5A JUMP JUMPDEST DUP8 PUSH1 0x10 PUSH1 0x1A DUP2 LT PUSH2 0x56A7 JUMPI PUSH2 0x56A6 PUSH2 0x6CC0 JUMP JUMPDEST JUMPDEST PUSH1 0x20 MUL ADD DUP2 DUP2 MSTORE POP POP PUSH2 0x56E5 PUSH2 0x56CC DUP7 PUSH2 0x1C0 ADD MLOAD PUSH2 0x56C7 DUP13 PUSH1 0x7 PUSH2 0x62A5 JUMP JUMPDEST PUSH2 0x2B5A JUMP JUMPDEST PUSH2 0x56E0 PUSH2 0x56DA DUP13 PUSH1 0xA PUSH2 0x62A5 JUMP JUMPDEST DUP10 PUSH2 0x2B5A JUMP JUMPDEST PUSH2 0x2B5A JUMP JUMPDEST DUP8 PUSH1 0x11 PUSH1 0x1A DUP2 LT PUSH2 0x56F9 JUMPI PUSH2 0x56F8 PUSH2 0x6CC0 JUMP JUMPDEST JUMPDEST PUSH1 0x20 MUL ADD DUP2 DUP2 MSTORE POP POP PUSH2 0x571B DUP6 PUSH2 0x1A0 ADD MLOAD PUSH2 0x5716 DUP12 PUSH1 0x7 PUSH2 0x62A5 JUMP JUMPDEST PUSH2 0x2B5A JUMP JUMPDEST DUP6 PUSH2 0x200 ADD DUP2 DUP2 MSTORE POP POP PUSH2 0x5743 PUSH2 0x5733 DUP11 PUSH1 0x24 PUSH2 0x62A5 JUMP JUMPDEST PUSH2 0x573E DUP12 PUSH1 0x1C PUSH2 0x62A5 JUMP JUMPDEST PUSH2 0x2BD2 JUMP JUMPDEST DUP6 PUSH2 0x220 ADD DUP2 DUP2 MSTORE POP POP PUSH2 0x57B3 PUSH2 0x57A3 PUSH2 0x5798 PUSH2 0x5791 DUP9 PUSH2 0x140 ADD MLOAD PUSH1 0x1 PUSH32 0x30644E72E131A029B85045B68181585D2833E84879B9709143E1F593F0000001 PUSH2 0x578C SWAP2 SWAP1 PUSH2 0x6CEF JUMP JUMPDEST PUSH2 0x2B5A JUMP JUMPDEST PUSH1 0x1 PUSH2 0x2B96 JUMP JUMPDEST DUP8 PUSH2 0x220 ADD MLOAD PUSH2 0x2B5A JUMP JUMPDEST PUSH2 0x57AE DUP12 PUSH1 0x1D PUSH2 0x62A5 JUMP JUMPDEST PUSH2 0x2BD2 JUMP JUMPDEST DUP6 PUSH2 0x240 ADD DUP2 DUP2 MSTORE POP POP DUP5 PUSH2 0x1E0 ADD MLOAD DUP6 PUSH2 0x260 ADD DUP2 DUP2 MSTORE POP POP PUSH2 0x5807 DUP6 PUSH2 0x260 ADD MLOAD PUSH2 0x5802 DUP8 PUSH2 0x240 ADD MLOAD PUSH2 0x57FD PUSH2 0x57ED DUP15 PUSH1 0x5 PUSH2 0x62A5 JUMP JUMPDEST PUSH2 0x57F8 DUP16 PUSH1 0x2 PUSH2 0x62A5 JUMP JUMPDEST PUSH2 0x2B5A JUMP JUMPDEST PUSH2 0x2B5A JUMP JUMPDEST PUSH2 0x2B96 JUMP JUMPDEST DUP6 PUSH2 0x260 ADD DUP2 DUP2 MSTORE POP POP PUSH2 0x584A DUP6 PUSH2 0x260 ADD MLOAD PUSH2 0x5845 DUP8 PUSH1 0xC0 ADD MLOAD PUSH2 0x5840 PUSH2 0x5830 DUP15 PUSH1 0x0 PUSH2 0x62A5 JUMP JUMPDEST PUSH2 0x583B DUP16 PUSH1 0x2 PUSH2 0x62A5 JUMP JUMPDEST PUSH2 0x2B5A JUMP JUMPDEST PUSH2 0x2B5A JUMP JUMPDEST PUSH2 0x2B96 JUMP JUMPDEST DUP6 PUSH2 0x260 ADD DUP2 DUP2 MSTORE POP POP PUSH2 0x5868 DUP6 PUSH2 0x260 ADD MLOAD DUP7 PUSH2 0x200 ADD MLOAD PUSH2 0x2B96 JUMP JUMPDEST DUP6 PUSH2 0x260 ADD DUP2 DUP2 MSTORE POP POP PUSH2 0x588A PUSH2 0x5884 DUP7 PUSH2 0x260 ADD MLOAD DUP7 PUSH2 0x2B96 JUMP JUMPDEST DUP5 PUSH2 0x2B96 JUMP JUMPDEST DUP6 PUSH2 0x2A0 ADD DUP2 DUP2 MSTORE POP POP PUSH2 0x58B6 DUP6 PUSH2 0x2A0 ADD MLOAD PUSH2 0x58B1 PUSH2 0x58AB DUP13 PUSH1 0xA PUSH2 0x62A5 JUMP JUMPDEST DUP10 PUSH2 0x2B5A JUMP JUMPDEST PUSH2 0x2B5A JUMP JUMPDEST DUP6 PUSH2 0x2A0 ADD DUP2 DUP2 MSTORE POP POP DUP5 PUSH2 0x2A0 ADD MLOAD DUP8 PUSH1 0xC PUSH1 0x1A DUP2 LT PUSH2 0x58DA JUMPI PUSH2 0x58D9 PUSH2 0x6CC0 JUMP JUMPDEST JUMPDEST PUSH1 0x20 MUL ADD DUP2 DUP2 MSTORE POP POP POP POP POP POP POP POP POP POP POP JUMP JUMPDEST PUSH2 0x58F6 PUSH2 0x68F3 JUMP JUMPDEST PUSH2 0x5914 PUSH2 0x5904 DUP6 PUSH1 0x1B PUSH2 0x62A5 JUMP JUMPDEST PUSH2 0x590F DUP7 PUSH1 0x2 PUSH2 0x62A5 JUMP JUMPDEST PUSH2 0x2B96 JUMP JUMPDEST DUP2 PUSH1 0x0 ADD DUP2 DUP2 MSTORE POP POP PUSH2 0x593B PUSH2 0x592B DUP6 PUSH1 0x1C PUSH2 0x62A5 JUMP JUMPDEST PUSH2 0x5936 DUP7 PUSH1 0x3 PUSH2 0x62A5 JUMP JUMPDEST PUSH2 0x2B96 JUMP JUMPDEST DUP2 PUSH1 0x20 ADD DUP2 DUP2 MSTORE POP POP PUSH2 0x5962 PUSH2 0x5952 DUP6 PUSH1 0x1D PUSH2 0x62A5 JUMP JUMPDEST PUSH2 0x595D DUP7 PUSH1 0x4 PUSH2 0x62A5 JUMP JUMPDEST PUSH2 0x2B96 JUMP JUMPDEST DUP2 PUSH1 0x40 ADD DUP2 DUP2 MSTORE POP POP PUSH2 0x5989 PUSH2 0x5979 DUP6 PUSH1 0x1E PUSH2 0x62A5 JUMP JUMPDEST PUSH2 0x5984 DUP7 PUSH1 0x5 PUSH2 0x62A5 JUMP JUMPDEST PUSH2 0x2B96 JUMP JUMPDEST DUP2 PUSH1 0x60 ADD DUP2 DUP2 MSTORE POP POP PUSH2 0x59CB PUSH2 0x59C1 PUSH2 0x59B7 PUSH2 0x59AD DUP5 PUSH1 0x0 ADD MLOAD DUP6 PUSH1 0x0 ADD MLOAD PUSH2 0x2B5A JUMP JUMPDEST DUP5 PUSH1 0x0 ADD MLOAD PUSH2 0x2B5A JUMP JUMPDEST DUP4 PUSH1 0x0 ADD MLOAD PUSH2 0x2B5A JUMP JUMPDEST DUP3 PUSH1 0x0 ADD MLOAD PUSH2 0x2B5A JUMP JUMPDEST DUP2 PUSH1 0x80 ADD DUP2 DUP2 MSTORE POP POP PUSH2 0x5A0D PUSH2 0x5A03 PUSH2 0x59F9 PUSH2 0x59EF DUP5 PUSH1 0x20 ADD MLOAD DUP6 PUSH1 0x20 ADD MLOAD PUSH2 0x2B5A JUMP JUMPDEST DUP5 PUSH1 0x20 ADD MLOAD PUSH2 0x2B5A JUMP JUMPDEST DUP4 PUSH1 0x20 ADD MLOAD PUSH2 0x2B5A JUMP JUMPDEST DUP3 PUSH1 0x20 ADD MLOAD PUSH2 0x2B5A JUMP JUMPDEST DUP2 PUSH1 0xA0 ADD DUP2 DUP2 MSTORE POP POP PUSH2 0x5A4F PUSH2 0x5A45 PUSH2 0x5A3B PUSH2 0x5A31 DUP5 PUSH1 0x40 ADD MLOAD DUP6 PUSH1 0x40 ADD MLOAD PUSH2 0x2B5A JUMP JUMPDEST DUP5 PUSH1 0x40 ADD MLOAD PUSH2 0x2B5A JUMP JUMPDEST DUP4 PUSH1 0x40 ADD MLOAD PUSH2 0x2B5A JUMP JUMPDEST DUP3 PUSH1 0x40 ADD MLOAD PUSH2 0x2B5A JUMP JUMPDEST DUP2 PUSH1 0xC0 ADD DUP2 DUP2 MSTORE POP POP PUSH2 0x5A91 PUSH2 0x5A87 PUSH2 0x5A7D PUSH2 0x5A73 DUP5 PUSH1 0x60 ADD MLOAD DUP6 PUSH1 0x60 ADD MLOAD PUSH2 0x2B5A JUMP JUMPDEST DUP5 PUSH1 0x60 ADD MLOAD PUSH2 0x2B5A JUMP JUMPDEST DUP4 PUSH1 0x60 ADD MLOAD PUSH2 0x2B5A JUMP JUMPDEST DUP3 PUSH1 0x60 ADD MLOAD PUSH2 0x2B5A JUMP JUMPDEST DUP2 PUSH1 0xE0 ADD DUP2 DUP2 MSTORE POP POP PUSH2 0x5AAC DUP2 PUSH1 0x80 ADD MLOAD DUP3 PUSH1 0xA0 ADD MLOAD PUSH2 0x2B96 JUMP JUMPDEST DUP2 PUSH2 0x100 ADD DUP2 DUP2 MSTORE POP POP PUSH2 0x5AC8 DUP2 PUSH1 0xC0 ADD MLOAD DUP3 PUSH1 0xE0 ADD MLOAD PUSH2 0x2B96 JUMP JUMPDEST DUP2 PUSH2 0x120 ADD DUP2 DUP2 MSTORE POP POP PUSH2 0x5AF2 PUSH2 0x5AE7 DUP3 PUSH1 0xA0 ADD MLOAD DUP4 PUSH1 0xA0 ADD MLOAD PUSH2 0x2B96 JUMP JUMPDEST DUP3 PUSH2 0x120 ADD MLOAD PUSH2 0x2B96 JUMP JUMPDEST DUP2 PUSH2 0x140 ADD DUP2 DUP2 MSTORE POP POP PUSH2 0x5B1C PUSH2 0x5B11 DUP3 PUSH1 0xE0 ADD MLOAD DUP4 PUSH1 0xE0 ADD MLOAD PUSH2 0x2B96 JUMP JUMPDEST DUP3 PUSH2 0x100 ADD MLOAD PUSH2 0x2B96 JUMP JUMPDEST DUP2 PUSH2 0x160 ADD DUP2 DUP2 MSTORE POP POP PUSH2 0x5B3A DUP2 PUSH2 0x120 ADD MLOAD DUP3 PUSH2 0x120 ADD MLOAD PUSH2 0x2B96 JUMP JUMPDEST DUP2 PUSH2 0x1E0 ADD DUP2 DUP2 MSTORE POP POP PUSH2 0x5B66 PUSH2 0x5B5B DUP3 PUSH2 0x1E0 ADD MLOAD DUP4 PUSH2 0x1E0 ADD MLOAD PUSH2 0x2B96 JUMP JUMPDEST DUP3 PUSH2 0x160 ADD MLOAD PUSH2 0x2B96 JUMP JUMPDEST DUP2 PUSH2 0x1E0 ADD DUP2 DUP2 MSTORE POP POP PUSH2 0x5B84 DUP2 PUSH2 0x100 ADD MLOAD DUP3 PUSH2 0x100 ADD MLOAD PUSH2 0x2B96 JUMP JUMPDEST DUP2 PUSH2 0x1A0 ADD DUP2 DUP2 MSTORE POP POP PUSH2 0x5BB0 PUSH2 0x5BA5 DUP3 PUSH2 0x1A0 ADD MLOAD DUP4 PUSH2 0x1A0 ADD MLOAD PUSH2 0x2B96 JUMP JUMPDEST DUP3 PUSH2 0x140 ADD MLOAD PUSH2 0x2B96 JUMP JUMPDEST DUP2 PUSH2 0x1A0 ADD DUP2 DUP2 MSTORE POP POP PUSH2 0x5BCE DUP2 PUSH2 0x160 ADD MLOAD DUP3 PUSH2 0x1A0 ADD MLOAD PUSH2 0x2B96 JUMP JUMPDEST DUP2 PUSH2 0x180 ADD DUP2 DUP2 MSTORE POP POP PUSH2 0x5BEC DUP2 PUSH2 0x140 ADD MLOAD DUP3 PUSH2 0x1E0 ADD MLOAD PUSH2 0x2B96 JUMP JUMPDEST DUP2 PUSH2 0x1C0 ADD DUP2 DUP2 MSTORE POP POP PUSH2 0x5C0A PUSH2 0x5C04 DUP6 PUSH1 0xB PUSH2 0x62A5 JUMP JUMPDEST DUP4 PUSH2 0x2B5A JUMP JUMPDEST DUP2 PUSH2 0x200 ADD DUP2 DUP2 MSTORE POP POP PUSH2 0x5C5C DUP4 PUSH1 0x12 PUSH1 0x1A DUP2 LT PUSH2 0x5C2B JUMPI PUSH2 0x5C2A PUSH2 0x6CC0 JUMP JUMPDEST JUMPDEST PUSH1 0x20 MUL ADD MLOAD PUSH2 0x5C57 DUP4 PUSH2 0x200 ADD MLOAD PUSH2 0x5C52 DUP6 PUSH2 0x180 ADD MLOAD PUSH2 0x5C4D DUP11 PUSH1 0x23 PUSH2 0x62A5 JUMP JUMPDEST PUSH2 0x2BD2 JUMP JUMPDEST PUSH2 0x2B5A JUMP JUMPDEST PUSH2 0x2B96 JUMP JUMPDEST DUP4 PUSH1 0x12 PUSH1 0x1A DUP2 LT PUSH2 0x5C70 JUMPI PUSH2 0x5C6F PUSH2 0x6CC0 JUMP JUMPDEST JUMPDEST PUSH1 0x20 MUL ADD DUP2 DUP2 MSTORE POP POP PUSH2 0x5CC1 DUP4 PUSH1 0x13 PUSH1 0x1A DUP2 LT PUSH2 0x5C90 JUMPI PUSH2 0x5C8F PUSH2 0x6CC0 JUMP JUMPDEST JUMPDEST PUSH1 0x20 MUL ADD MLOAD PUSH2 0x5CBC DUP4 PUSH2 0x200 ADD MLOAD PUSH2 0x5CB7 DUP6 PUSH2 0x1A0 ADD MLOAD PUSH2 0x5CB2 DUP11 PUSH1 0x24 PUSH2 0x62A5 JUMP JUMPDEST PUSH2 0x2BD2 JUMP JUMPDEST PUSH2 0x2B5A JUMP JUMPDEST PUSH2 0x2B96 JUMP JUMPDEST DUP4 PUSH1 0x13 PUSH1 0x1A DUP2 LT PUSH2 0x5CD5 JUMPI PUSH2 0x5CD4 PUSH2 0x6CC0 JUMP JUMPDEST JUMPDEST PUSH1 0x20 MUL ADD DUP2 DUP2 MSTORE POP POP PUSH2 0x5D26 DUP4 PUSH1 0x14 PUSH1 0x1A DUP2 LT PUSH2 0x5CF5 JUMPI PUSH2 0x5CF4 PUSH2 0x6CC0 JUMP JUMPDEST JUMPDEST PUSH1 0x20 MUL ADD MLOAD PUSH2 0x5D21 DUP4 PUSH2 0x200 ADD MLOAD PUSH2 0x5D1C DUP6 PUSH2 0x1C0 ADD MLOAD PUSH2 0x5D17 DUP11 PUSH1 0x25 PUSH2 0x62A5 JUMP JUMPDEST PUSH2 0x2BD2 JUMP JUMPDEST PUSH2 0x2B5A JUMP JUMPDEST PUSH2 0x2B96 JUMP JUMPDEST DUP4 PUSH1 0x14 PUSH1 0x1A DUP2 LT PUSH2 0x5D3A JUMPI PUSH2 0x5D39 PUSH2 0x6CC0 JUMP JUMPDEST JUMPDEST PUSH1 0x20 MUL ADD DUP2 DUP2 MSTORE POP POP PUSH2 0x5D8B DUP4 PUSH1 0x15 PUSH1 0x1A DUP2 LT PUSH2 0x5D5A JUMPI PUSH2 0x5D59 PUSH2 0x6CC0 JUMP JUMPDEST JUMPDEST PUSH1 0x20 MUL ADD MLOAD PUSH2 0x5D86 DUP4 PUSH2 0x200 ADD MLOAD PUSH2 0x5D81 DUP6 PUSH2 0x1E0 ADD MLOAD PUSH2 0x5D7C DUP11 PUSH1 0x26 PUSH2 0x62A5 JUMP JUMPDEST PUSH2 0x2BD2 JUMP JUMPDEST PUSH2 0x2B5A JUMP JUMPDEST PUSH2 0x2B96 JUMP JUMPDEST DUP4 PUSH1 0x15 PUSH1 0x1A DUP2 LT PUSH2 0x5D9F JUMPI PUSH2 0x5D9E PUSH2 0x6CC0 JUMP JUMPDEST JUMPDEST PUSH1 0x20 MUL ADD DUP2 DUP2 MSTORE POP POP POP POP POP POP JUMP JUMPDEST PUSH2 0x5DB6 PUSH2 0x6977 JUMP JUMPDEST PUSH1 0x0 PUSH1 0x40 MLOAD DUP1 PUSH1 0x80 ADD PUSH1 0x40 MSTORE DUP1 PUSH2 0x5DEC PUSH32 0x10DC6E9C006EA38B04B1E03B4BD9490C0D03F98929CA1D7FB56821FD19D3B6E7 PUSH2 0x2B25 JUMP JUMPDEST DUP2 MSTORE PUSH1 0x20 ADD PUSH2 0x5E1A PUSH32 0xC28145B6A44DF3E0149B3D0A30B3BB599DF9756D4DD9B84A86B38CFB45A740B PUSH2 0x2B25 JUMP JUMPDEST DUP2 MSTORE PUSH1 0x20 ADD PUSH2 0x5E47 PUSH31 0x544B8338791518B2C7645A50392798B21F75BB60E3596170067D00141CAC15 PUSH2 0x2B25 JUMP JUMPDEST DUP2 MSTORE PUSH1 0x20 ADD PUSH2 0x5E75 PUSH32 0x222C01175718386F2E2E82EB122789E352E105A3B8FA852613BC534433EE428B PUSH2 0x2B25 JUMP JUMPDEST DUP2 MSTORE POP SWAP1 POP PUSH2 0x5E98 PUSH2 0x5E88 DUP7 PUSH1 0x1B PUSH2 0x62A5 JUMP JUMPDEST PUSH2 0x5E93 DUP8 PUSH1 0x2 PUSH2 0x62A5 JUMP JUMPDEST PUSH2 0x2B96 JUMP JUMPDEST DUP3 PUSH2 0x120 ADD DUP2 DUP2 MSTORE POP POP PUSH2 0x5EE0 PUSH2 0x5ED5 PUSH2 0x5ECA PUSH2 0x5EBF DUP6 PUSH2 0x120 ADD MLOAD DUP7 PUSH2 0x120 ADD MLOAD PUSH2 0x2B5A JUMP JUMPDEST DUP6 PUSH2 0x120 ADD MLOAD PUSH2 0x2B5A JUMP JUMPDEST DUP5 PUSH2 0x120 ADD MLOAD PUSH2 0x2B5A JUMP JUMPDEST DUP4 PUSH2 0x120 ADD MLOAD PUSH2 0x2B5A JUMP JUMPDEST DUP3 PUSH1 0x0 ADD DUP2 DUP2 MSTORE POP POP PUSH2 0x5EF4 DUP6 PUSH1 0x1C PUSH2 0x62A5 JUMP JUMPDEST DUP3 PUSH1 0x20 ADD DUP2 DUP2 MSTORE POP POP PUSH2 0x5F08 DUP6 PUSH1 0x1D PUSH2 0x62A5 JUMP JUMPDEST DUP3 PUSH1 0x40 ADD DUP2 DUP2 MSTORE POP POP PUSH2 0x5F1C DUP6 PUSH1 0x1E PUSH2 0x62A5 JUMP JUMPDEST DUP3 PUSH1 0x60 ADD DUP2 DUP2 MSTORE POP POP PUSH2 0x5F51 PUSH2 0x5F47 PUSH2 0x5F3D DUP5 PUSH1 0x0 ADD MLOAD DUP6 PUSH1 0x20 ADD MLOAD PUSH2 0x2B96 JUMP JUMPDEST DUP5 PUSH1 0x40 ADD MLOAD PUSH2 0x2B96 JUMP JUMPDEST DUP4 PUSH1 0x60 ADD MLOAD PUSH2 0x2B96 JUMP JUMPDEST DUP3 PUSH1 0x80 ADD DUP2 DUP2 MSTORE POP POP PUSH2 0x5F6E PUSH2 0x5F68 DUP7 PUSH1 0xC PUSH2 0x62A5 JUMP JUMPDEST DUP5 PUSH2 0x2B5A JUMP JUMPDEST DUP3 PUSH2 0x140 ADD DUP2 DUP2 MSTORE POP POP PUSH2 0x5FAB PUSH2 0x5FA1 DUP4 PUSH1 0x0 ADD MLOAD DUP4 PUSH1 0x0 PUSH1 0x4 DUP2 LT PUSH2 0x5F97 JUMPI PUSH2 0x5F96 PUSH2 0x6CC0 JUMP JUMPDEST JUMPDEST PUSH1 0x20 MUL ADD MLOAD PUSH2 0x2B5A JUMP JUMPDEST DUP4 PUSH1 0x80 ADD MLOAD PUSH2 0x2B96 JUMP JUMPDEST DUP3 PUSH1 0xA0 ADD DUP2 DUP2 MSTORE POP POP PUSH2 0x5FFB DUP5 PUSH1 0x16 PUSH1 0x1A DUP2 LT PUSH2 0x5FCB JUMPI PUSH2 0x5FCA PUSH2 0x6CC0 JUMP JUMPDEST JUMPDEST PUSH1 0x20 MUL ADD MLOAD PUSH2 0x5FF6 DUP5 PUSH2 0x140 ADD MLOAD PUSH2 0x5FF1 DUP7 PUSH1 0xA0 ADD MLOAD PUSH2 0x5FEC DUP12 PUSH1 0x23 PUSH2 0x62A5 JUMP JUMPDEST PUSH2 0x2BD2 JUMP JUMPDEST PUSH2 0x2B5A JUMP JUMPDEST PUSH2 0x2B96 JUMP JUMPDEST DUP5 PUSH1 0x16 PUSH1 0x1A DUP2 LT PUSH2 0x600F JUMPI PUSH2 0x600E PUSH2 0x6CC0 JUMP JUMPDEST JUMPDEST PUSH1 0x20 MUL ADD DUP2 DUP2 MSTORE POP POP PUSH2 0x604B PUSH2 0x6041 DUP4 PUSH1 0x20 ADD MLOAD DUP4 PUSH1 0x1 PUSH1 0x4 DUP2 LT PUSH2 0x6037 JUMPI PUSH2 0x6036 PUSH2 0x6CC0 JUMP JUMPDEST JUMPDEST PUSH1 0x20 MUL ADD MLOAD PUSH2 0x2B5A JUMP JUMPDEST DUP4 PUSH1 0x80 ADD MLOAD PUSH2 0x2B96 JUMP JUMPDEST DUP3 PUSH1 0xC0 ADD DUP2 DUP2 MSTORE POP POP PUSH2 0x609B DUP5 PUSH1 0x17 PUSH1 0x1A DUP2 LT PUSH2 0x606B JUMPI PUSH2 0x606A PUSH2 0x6CC0 JUMP JUMPDEST JUMPDEST PUSH1 0x20 MUL ADD MLOAD PUSH2 0x6096 DUP5 PUSH2 0x140 ADD MLOAD PUSH2 0x6091 DUP7 PUSH1 0xC0 ADD MLOAD PUSH2 0x608C DUP12 PUSH1 0x24 PUSH2 0x62A5 JUMP JUMPDEST PUSH2 0x2BD2 JUMP JUMPDEST PUSH2 0x2B5A JUMP JUMPDEST PUSH2 0x2B96 JUMP JUMPDEST DUP5 PUSH1 0x17 PUSH1 0x1A DUP2 LT PUSH2 0x60AF JUMPI PUSH2 0x60AE PUSH2 0x6CC0 JUMP JUMPDEST JUMPDEST PUSH1 0x20 MUL ADD DUP2 DUP2 MSTORE POP POP PUSH2 0x60EB PUSH2 0x60E1 DUP4 PUSH1 0x40 ADD MLOAD DUP4 PUSH1 0x2 PUSH1 0x4 DUP2 LT PUSH2 0x60D7 JUMPI PUSH2 0x60D6 PUSH2 0x6CC0 JUMP JUMPDEST JUMPDEST PUSH1 0x20 MUL ADD MLOAD PUSH2 0x2B5A JUMP JUMPDEST DUP4 PUSH1 0x80 ADD MLOAD PUSH2 0x2B96 JUMP JUMPDEST DUP3 PUSH1 0xE0 ADD DUP2 DUP2 MSTORE POP POP PUSH2 0x613B DUP5 PUSH1 0x18 PUSH1 0x1A DUP2 LT PUSH2 0x610B JUMPI PUSH2 0x610A PUSH2 0x6CC0 JUMP JUMPDEST JUMPDEST PUSH1 0x20 MUL ADD MLOAD PUSH2 0x6136 DUP5 PUSH2 0x140 ADD MLOAD PUSH2 0x6131 DUP7 PUSH1 0xE0 ADD MLOAD PUSH2 0x612C DUP12 PUSH1 0x25 PUSH2 0x62A5 JUMP JUMPDEST PUSH2 0x2BD2 JUMP JUMPDEST PUSH2 0x2B5A JUMP JUMPDEST PUSH2 0x2B96 JUMP JUMPDEST DUP5 PUSH1 0x18 PUSH1 0x1A DUP2 LT PUSH2 0x614F JUMPI PUSH2 0x614E PUSH2 0x6CC0 JUMP JUMPDEST JUMPDEST PUSH1 0x20 MUL ADD DUP2 DUP2 MSTORE POP POP PUSH2 0x618B PUSH2 0x6181 DUP4 PUSH1 0x60 ADD MLOAD DUP4 PUSH1 0x3 PUSH1 0x4 DUP2 LT PUSH2 0x6177 JUMPI PUSH2 0x6176 PUSH2 0x6CC0 JUMP JUMPDEST JUMPDEST PUSH1 0x20 MUL ADD MLOAD PUSH2 0x2B5A JUMP JUMPDEST DUP4 PUSH1 0x80 ADD MLOAD PUSH2 0x2B96 JUMP JUMPDEST DUP3 PUSH2 0x100 ADD DUP2 DUP2 MSTORE POP POP PUSH2 0x61DD DUP5 PUSH1 0x19 PUSH1 0x1A DUP2 LT PUSH2 0x61AC JUMPI PUSH2 0x61AB PUSH2 0x6CC0 JUMP JUMPDEST JUMPDEST PUSH1 0x20 MUL ADD MLOAD PUSH2 0x61D8 DUP5 PUSH2 0x140 ADD MLOAD PUSH2 0x61D3 DUP7 PUSH2 0x100 ADD MLOAD PUSH2 0x61CE DUP12 PUSH1 0x26 PUSH2 0x62A5 JUMP JUMPDEST PUSH2 0x2BD2 JUMP JUMPDEST PUSH2 0x2B5A JUMP JUMPDEST PUSH2 0x2B96 JUMP JUMPDEST DUP5 PUSH1 0x19 PUSH1 0x1A DUP2 LT PUSH2 0x61F1 JUMPI PUSH2 0x61F0 PUSH2 0x6CC0 JUMP JUMPDEST JUMPDEST PUSH1 0x20 MUL ADD DUP2 DUP2 MSTORE POP POP POP POP POP POP POP JUMP JUMPDEST PUSH1 0x0 PUSH2 0x6225 DUP2 DUP5 PUSH1 0x0 PUSH1 0x1A DUP2 LT PUSH2 0x621B JUMPI PUSH2 0x621A PUSH2 0x6CC0 JUMP JUMPDEST JUMPDEST PUSH1 0x20 MUL ADD MLOAD PUSH2 0x2B96 JUMP JUMPDEST SWAP1 POP PUSH1 0x0 PUSH1 0x1 SWAP1 POP JUMPDEST PUSH1 0x1A DUP2 LT ISZERO PUSH2 0x6291 JUMPI PUSH2 0x6284 DUP3 PUSH2 0x627F DUP7 DUP5 PUSH1 0x1A DUP2 LT PUSH2 0x6251 JUMPI PUSH2 0x6250 PUSH2 0x6CC0 JUMP JUMPDEST JUMPDEST PUSH1 0x20 MUL ADD MLOAD DUP7 PUSH1 0x1 DUP7 PUSH2 0x6264 SWAP2 SWAP1 PUSH2 0x6CEF JUMP JUMPDEST PUSH1 0x19 DUP2 LT PUSH2 0x6275 JUMPI PUSH2 0x6274 PUSH2 0x6CC0 JUMP JUMPDEST JUMPDEST PUSH1 0x20 MUL ADD MLOAD PUSH2 0x2B5A JUMP JUMPDEST PUSH2 0x2B96 JUMP JUMPDEST SWAP2 POP DUP1 PUSH1 0x1 ADD SWAP1 POP PUSH2 0x622E JUMP JUMPDEST POP SWAP3 SWAP2 POP POP JUMP JUMPDEST PUSH1 0x0 DUP2 PUSH1 0x0 SHL SWAP1 POP SWAP2 SWAP1 POP JUMP JUMPDEST PUSH1 0x0 DUP3 DUP3 PUSH1 0x27 DUP2 GT ISZERO PUSH2 0x62BB JUMPI PUSH2 0x62BA PUSH2 0x774E JUMP JUMPDEST JUMPDEST PUSH1 0x28 DUP2 LT PUSH2 0x62CC JUMPI PUSH2 0x62CB PUSH2 0x6CC0 JUMP JUMPDEST JUMPDEST PUSH1 0x20 MUL ADD MLOAD SWAP1 POP SWAP3 SWAP2 POP POP JUMP JUMPDEST PUSH1 0x40 MLOAD DUP1 PUSH2 0x3C0 ADD PUSH1 0x40 MSTORE DUP1 PUSH1 0x0 DUP2 MSTORE PUSH1 0x20 ADD PUSH1 0x0 DUP2 MSTORE PUSH1 0x20 ADD PUSH1 0x0 DUP2 MSTORE PUSH1 0x20 ADD PUSH2 0x6302 PUSH2 0x67D2 JUMP JUMPDEST DUP2 MSTORE PUSH1 0x20 ADD PUSH2 0x630F PUSH2 0x67D2 JUMP JUMPDEST DUP2 MSTORE PUSH1 0x20 ADD PUSH2 0x631C PUSH2 0x67D2 JUMP JUMPDEST DUP2 MSTORE PUSH1 0x20 ADD PUSH2 0x6329 PUSH2 0x67D2 JUMP JUMPDEST DUP2 MSTORE PUSH1 0x20 ADD PUSH2 0x6336 PUSH2 0x67D2 JUMP JUMPDEST DUP2 MSTORE PUSH1 0x20 ADD PUSH2 0x6343 PUSH2 0x67D2 JUMP JUMPDEST DUP2 MSTORE PUSH1 0x20 ADD PUSH2 0x6350 PUSH2 0x67D2 JUMP JUMPDEST DUP2 MSTORE PUSH1 0x20 ADD PUSH2 0x635D PUSH2 0x67D2 JUMP JUMPDEST DUP2 MSTORE PUSH1 0x20 ADD PUSH2 0x636A PUSH2 0x67D2 JUMP JUMPDEST DUP2 MSTORE PUSH1 0x20 ADD PUSH2 0x6377 PUSH2 0x67D2 JUMP JUMPDEST DUP2 MSTORE PUSH1 0x20 ADD PUSH2 0x6384 PUSH2 0x67D2 JUMP JUMPDEST DUP2 MSTORE PUSH1 0x20 ADD PUSH2 0x6391 PUSH2 0x67D2 JUMP JUMPDEST DUP2 MSTORE PUSH1 0x20 ADD PUSH2 0x639E PUSH2 0x67D2 JUMP JUMPDEST DUP2 MSTORE PUSH1 0x20 ADD PUSH2 0x63AB PUSH2 0x67D2 JUMP JUMPDEST DUP2 MSTORE PUSH1 0x20 ADD PUSH2 0x63B8 PUSH2 0x67D2 JUMP JUMPDEST DUP2 MSTORE PUSH1 0x20 ADD PUSH2 0x63C5 PUSH2 0x67D2 JUMP JUMPDEST DUP2 MSTORE PUSH1 0x20 ADD PUSH2 0x63D2 PUSH2 0x67D2 JUMP JUMPDEST DUP2 MSTORE PUSH1 0x20 ADD PUSH2 0x63DF PUSH2 0x67D2 JUMP JUMPDEST DUP2 MSTORE PUSH1 0x20 ADD PUSH2 0x63EC PUSH2 0x67D2 JUMP JUMPDEST DUP2 MSTORE PUSH1 0x20 ADD PUSH2 0x63F9 PUSH2 0x67D2 JUMP JUMPDEST DUP2 MSTORE PUSH1 0x20 ADD PUSH2 0x6406 PUSH2 0x67D2 JUMP JUMPDEST DUP2 MSTORE PUSH1 0x20 ADD PUSH2 0x6413 PUSH2 0x67D2 JUMP JUMPDEST DUP2 MSTORE PUSH1 0x20 ADD PUSH2 0x6420 PUSH2 0x67D2 JUMP JUMPDEST DUP2 MSTORE PUSH1 0x20 ADD PUSH2 0x642D PUSH2 0x67D2 JUMP JUMPDEST DUP2 MSTORE PUSH1 0x20 ADD PUSH2 0x643A PUSH2 0x67D2 JUMP JUMPDEST DUP2 MSTORE PUSH1 0x20 ADD PUSH2 0x6447 PUSH2 0x67D2 JUMP JUMPDEST DUP2 MSTORE PUSH1 0x20 ADD PUSH2 0x6454 PUSH2 0x67D2 JUMP JUMPDEST DUP2 MSTORE POP SWAP1 JUMP JUMPDEST PUSH1 0x40 MLOAD DUP1 PUSH2 0x1C0 ADD PUSH1 0x40 MSTORE DUP1 PUSH2 0x646E PUSH2 0x6617 JUMP JUMPDEST DUP2 MSTORE PUSH1 0x20 ADD PUSH2 0x647B PUSH2 0x6617 JUMP JUMPDEST DUP2 MSTORE PUSH1 0x20 ADD PUSH2 0x6488 PUSH2 0x6617 JUMP JUMPDEST DUP2 MSTORE PUSH1 0x20 ADD PUSH2 0x6495 PUSH2 0x6617 JUMP JUMPDEST DUP2 MSTORE PUSH1 0x20 ADD PUSH2 0x64A2 PUSH2 0x6617 JUMP JUMPDEST DUP2 MSTORE PUSH1 0x20 ADD PUSH2 0x64AF PUSH2 0x6617 JUMP JUMPDEST DUP2 MSTORE PUSH1 0x20 ADD PUSH2 0x64BC PUSH2 0x6617 JUMP JUMPDEST DUP2 MSTORE PUSH1 0x20 ADD PUSH2 0x64C9 PUSH2 0x6617 JUMP JUMPDEST DUP2 MSTORE PUSH1 0x20 ADD PUSH2 0x64D6 PUSH2 0x69D1 JUMP JUMPDEST DUP2 MSTORE PUSH1 0x20 ADD PUSH2 0x64E3 PUSH2 0x69FF JUMP JUMPDEST DUP2 MSTORE PUSH1 0x20 ADD PUSH2 0x64F0 PUSH2 0x6A22 JUMP JUMPDEST DUP2 MSTORE PUSH1 0x20 ADD PUSH2 0x64FD PUSH2 0x66BB JUMP JUMPDEST DUP2 MSTORE PUSH1 0x20 ADD PUSH2 0x650A PUSH2 0x6617 JUMP JUMPDEST DUP2 MSTORE PUSH1 0x20 ADD PUSH2 0x6517 PUSH2 0x6617 JUMP JUMPDEST DUP2 MSTORE POP SWAP1 JUMP JUMPDEST PUSH1 0x40 MLOAD DUP1 PUSH2 0x100 ADD PUSH1 0x40 MSTORE DUP1 PUSH2 0x6531 PUSH2 0x663F JUMP JUMPDEST DUP2 MSTORE PUSH1 0x20 ADD PUSH2 0x653E PUSH2 0x6675 JUMP JUMPDEST DUP2 MSTORE PUSH1 0x20 ADD PUSH2 0x654B PUSH2 0x66BB JUMP JUMPDEST DUP2 MSTORE PUSH1 0x20 ADD PUSH2 0x6558 PUSH2 0x66BB JUMP JUMPDEST DUP2 MSTORE PUSH1 0x20 ADD PUSH1 0x0 DUP2 MSTORE PUSH1 0x20 ADD PUSH1 0x0 DUP2 MSTORE PUSH1 0x20 ADD PUSH1 0x0 DUP2 MSTORE PUSH1 0x20 ADD PUSH1 0x0 DUP2 MSTORE POP SWAP1 JUMP JUMPDEST PUSH1 0x40 MLOAD DUP1 PUSH2 0x120 ADD PUSH1 0x40 MSTORE DUP1 PUSH1 0x0 DUP2 MSTORE PUSH1 0x20 ADD PUSH1 0x0 DUP2 MSTORE PUSH1 0x20 ADD PUSH1 0x0 DUP2 MSTORE PUSH1 0x20 ADD PUSH1 0x0 DUP2 MSTORE PUSH1 0x20 ADD PUSH1 0x0 DUP2 MSTORE PUSH1 0x20 ADD PUSH1 0x0 DUP2 MSTORE PUSH1 0x20 ADD PUSH1 0x0 DUP2 MSTORE PUSH1 0x20 ADD PUSH1 0x0 DUP2 MSTORE PUSH1 0x20 ADD PUSH1 0x0 DUP2 MSTORE POP SWAP1 JUMP JUMPDEST PUSH1 0x40 MLOAD DUP1 PUSH2 0x8C0 ADD PUSH1 0x40 MSTORE DUP1 PUSH1 0x46 SWAP1 PUSH1 0x20 DUP3 MUL DUP1 CALLDATASIZE DUP4 CALLDATACOPY DUP1 DUP3 ADD SWAP2 POP POP SWAP1 POP POP SWAP1 JUMP JUMPDEST PUSH1 0x40 MLOAD DUP1 PUSH2 0x8C0 ADD PUSH1 0x40 MSTORE DUP1 PUSH1 0x46 SWAP1 JUMPDEST PUSH2 0x6601 PUSH2 0x67D2 JUMP JUMPDEST DUP2 MSTORE PUSH1 0x20 ADD SWAP1 PUSH1 0x1 SWAP1 SUB SWAP1 DUP2 PUSH2 0x65F9 JUMPI SWAP1 POP POP SWAP1 JUMP JUMPDEST PUSH1 0x40 MLOAD DUP1 PUSH1 0x80 ADD PUSH1 0x40 MSTORE DUP1 PUSH1 0x0 DUP2 MSTORE PUSH1 0x20 ADD PUSH1 0x0 DUP2 MSTORE PUSH1 0x20 ADD PUSH1 0x0 DUP2 MSTORE PUSH1 0x20 ADD PUSH1 0x0 DUP2 MSTORE POP SWAP1 JUMP JUMPDEST PUSH1 0x40 MLOAD DUP1 PUSH1 0xC0 ADD PUSH1 0x40 MSTORE DUP1 PUSH1 0x0 DUP2 MSTORE PUSH1 0x20 ADD PUSH1 0x0 DUP2 MSTORE PUSH1 0x20 ADD PUSH1 0x0 DUP2 MSTORE PUSH1 0x20 ADD PUSH1 0x0 DUP2 MSTORE PUSH1 0x20 ADD PUSH1 0x0 DUP2 MSTORE PUSH1 0x20 ADD PUSH1 0x0 DUP2 MSTORE POP SWAP1 JUMP JUMPDEST PUSH1 0x40 MLOAD DUP1 PUSH2 0x320 ADD PUSH1 0x40 MSTORE DUP1 PUSH1 0x19 SWAP1 PUSH1 0x20 DUP3 MUL DUP1 CALLDATASIZE DUP4 CALLDATACOPY DUP1 DUP3 ADD SWAP2 POP POP SWAP1 POP POP SWAP1 JUMP JUMPDEST PUSH1 0x40 MLOAD DUP1 PUSH2 0x120 ADD PUSH1 0x40 MSTORE DUP1 PUSH1 0x9 SWAP1 PUSH1 0x20 DUP3 MUL DUP1 CALLDATASIZE DUP4 CALLDATACOPY DUP1 DUP3 ADD SWAP2 POP POP SWAP1 POP POP SWAP1 JUMP JUMPDEST PUSH1 0x40 MLOAD DUP1 PUSH2 0x380 ADD PUSH1 0x40 MSTORE DUP1 PUSH1 0x1C SWAP1 PUSH1 0x20 DUP3 MUL DUP1 CALLDATASIZE DUP4 CALLDATACOPY DUP1 DUP3 ADD SWAP2 POP POP SWAP1 POP POP SWAP1 JUMP JUMPDEST PUSH1 0x40 MLOAD DUP1 PUSH2 0x120 ADD PUSH1 0x40 MSTORE DUP1 PUSH1 0x9 SWAP1 PUSH1 0x20 DUP3 MUL DUP1 CALLDATASIZE DUP4 CALLDATACOPY DUP1 DUP3 ADD SWAP2 POP POP SWAP1 POP POP SWAP1 JUMP JUMPDEST PUSH1 0x40 MLOAD DUP1 PUSH2 0x520 ADD PUSH1 0x40 MSTORE DUP1 PUSH1 0x29 SWAP1 PUSH1 0x20 DUP3 MUL DUP1 CALLDATASIZE DUP4 CALLDATACOPY DUP1 DUP3 ADD SWAP2 POP POP SWAP1 POP POP SWAP1 JUMP JUMPDEST PUSH1 0x40 MLOAD DUP1 PUSH2 0xDA0 ADD PUSH1 0x40 MSTORE DUP1 PUSH1 0x6D SWAP1 PUSH1 0x20 DUP3 MUL DUP1 CALLDATASIZE DUP4 CALLDATACOPY DUP1 DUP3 ADD SWAP2 POP POP SWAP1 POP POP SWAP1 JUMP JUMPDEST PUSH1 0x40 MLOAD DUP1 PUSH2 0x3A0 ADD PUSH1 0x40 MSTORE DUP1 PUSH1 0x1D SWAP1 PUSH1 0x20 DUP3 MUL DUP1 CALLDATASIZE DUP4 CALLDATACOPY DUP1 DUP3 ADD SWAP2 POP POP SWAP1 POP POP SWAP1 JUMP JUMPDEST PUSH1 0x40 MLOAD DUP1 PUSH1 0xA0 ADD PUSH1 0x40 MSTORE DUP1 PUSH1 0x5 SWAP1 PUSH1 0x20 DUP3 MUL DUP1 CALLDATASIZE DUP4 CALLDATACOPY DUP1 DUP3 ADD SWAP2 POP POP SWAP1 POP POP SWAP1 JUMP JUMPDEST PUSH1 0x40 MLOAD DUP1 PUSH2 0x100 ADD PUSH1 0x40 MSTORE DUP1 PUSH1 0x8 SWAP1 PUSH1 0x20 DUP3 MUL DUP1 CALLDATASIZE DUP4 CALLDATACOPY DUP1 DUP3 ADD SWAP2 POP POP SWAP1 POP POP SWAP1 JUMP JUMPDEST PUSH1 0x40 MLOAD DUP1 PUSH2 0x340 ADD PUSH1 0x40 MSTORE DUP1 PUSH1 0x1A SWAP1 PUSH1 0x20 DUP3 MUL DUP1 CALLDATASIZE DUP4 CALLDATACOPY DUP1 DUP3 ADD SWAP2 POP POP SWAP1 POP POP SWAP1 JUMP JUMPDEST PUSH1 0x40 MLOAD DUP1 PUSH1 0x40 ADD PUSH1 0x40 MSTORE DUP1 PUSH1 0x0 DUP2 MSTORE PUSH1 0x20 ADD PUSH1 0x0 DUP2 MSTORE POP SWAP1 JUMP JUMPDEST PUSH1 0x40 MLOAD DUP1 PUSH2 0x1A0 ADD PUSH1 0x40 MSTORE DUP1 PUSH1 0xD SWAP1 PUSH1 0x20 DUP3 MUL DUP1 CALLDATASIZE DUP4 CALLDATACOPY DUP1 DUP3 ADD SWAP2 POP POP SWAP1 POP POP SWAP1 JUMP JUMPDEST PUSH1 0x40 MLOAD DUP1 PUSH1 0xE0 ADD PUSH1 0x40 MSTORE DUP1 PUSH1 0x0 DUP2 MSTORE PUSH1 0x20 ADD PUSH1 0x0 DUP2 MSTORE PUSH1 0x20 ADD PUSH1 0x0 DUP2 MSTORE PUSH1 0x20 ADD PUSH1 0x0 DUP2 MSTORE PUSH1 0x20 ADD PUSH1 0x0 DUP2 MSTORE PUSH1 0x20 ADD PUSH1 0x0 DUP2 MSTORE PUSH1 0x20 ADD PUSH1 0x0 DUP2 MSTORE POP SWAP1 JUMP JUMPDEST PUSH1 0x40 MLOAD DUP1 PUSH2 0x2C0 ADD PUSH1 0x40 MSTORE DUP1 PUSH1 0x0 DUP2 MSTORE PUSH1 0x20 ADD PUSH1 0x0 DUP2 MSTORE PUSH1 0x20 ADD PUSH1 0x0 DUP2 MSTORE PUSH1 0x20 ADD PUSH1 0x0 DUP2 MSTORE PUSH1 0x20 ADD PUSH1 0x0 DUP2 MSTORE PUSH1 0x20 ADD PUSH1 0x0 DUP2 MSTORE PUSH1 0x20 ADD PUSH1 0x0 DUP2 MSTORE PUSH1 0x20 ADD PUSH1 0x0 DUP2 MSTORE PUSH1 0x20 ADD PUSH1 0x0 DUP2 MSTORE PUSH1 0x20 ADD PUSH1 0x0 DUP2 MSTORE PUSH1 0x20 ADD PUSH1 0x0 DUP2 MSTORE PUSH1 0x20 ADD PUSH1 0x0 DUP2 MSTORE PUSH1 0x20 ADD PUSH1 0x0 DUP2 MSTORE PUSH1 0x20 ADD PUSH1 0x0 DUP2 MSTORE PUSH1 0x20 ADD PUSH1 0x0 DUP2 MSTORE PUSH1 0x20 ADD PUSH1 0x0 DUP2 MSTORE PUSH1 0x20 ADD PUSH1 0x0 DUP2 MSTORE PUSH1 0x20 ADD PUSH1 0x0 DUP2 MSTORE PUSH1 0x20 ADD PUSH1 0x0 DUP2 MSTORE PUSH1 0x20 ADD PUSH1 0x0 DUP2 MSTORE PUSH1 0x20 ADD PUSH1 0x0 DUP2 MSTORE PUSH1 0x20 ADD PUSH1 0x0 DUP2 MSTORE POP SWAP1 JUMP JUMPDEST PUSH1 0x40 MLOAD DUP1 PUSH2 0x220 ADD PUSH1 0x40 MSTORE DUP1 PUSH1 0x0 DUP2 MSTORE PUSH1 0x20 ADD PUSH1 0x0 DUP2 MSTORE PUSH1 0x20 ADD PUSH1 0x0 DUP2 MSTORE PUSH1 0x20 ADD PUSH1 0x0 DUP2 MSTORE PUSH1 0x20 ADD PUSH1 0x0 DUP2 MSTORE PUSH1 0x20 ADD PUSH1 0x0 DUP2 MSTORE PUSH1 0x20 ADD PUSH1 0x0 DUP2 MSTORE PUSH1 0x20 ADD PUSH1 0x0 DUP2 MSTORE PUSH1 0x20 ADD PUSH1 0x0 DUP2 MSTORE PUSH1 0x20 ADD PUSH1 0x0 DUP2 MSTORE PUSH1 0x20 ADD PUSH1 0x0 DUP2 MSTORE PUSH1 0x20 ADD PUSH1 0x0 DUP2 MSTORE PUSH1 0x20 ADD PUSH1 0x0 DUP2 MSTORE PUSH1 0x20 ADD PUSH1 0x0 DUP2 MSTORE PUSH1 0x20 ADD PUSH1 0x0 DUP2 MSTORE PUSH1 0x20 ADD PUSH1 0x0 DUP2 MSTORE PUSH1 0x20 ADD PUSH1 0x0 DUP2 MSTORE POP SWAP1 JUMP JUMPDEST PUSH1 0x40 MLOAD DUP1 PUSH2 0x160 ADD PUSH1 0x40 MSTORE DUP1 PUSH1 0x0 DUP2 MSTORE PUSH1 0x20 ADD PUSH1 0x0 DUP2 MSTORE PUSH1 0x20 ADD PUSH1 0x0 DUP2 MSTORE PUSH1 0x20 ADD PUSH1 0x0 DUP2 MSTORE PUSH1 0x20 ADD PUSH1 0x0 DUP2 MSTORE PUSH1 0x20 ADD PUSH1 0x0 DUP2 MSTORE PUSH1 0x20 ADD PUSH1 0x0 DUP2 MSTORE PUSH1 0x20 ADD PUSH1 0x0 DUP2 MSTORE PUSH1 0x20 ADD PUSH1 0x0 DUP2 MSTORE PUSH1 0x20 ADD PUSH1 0x0 DUP2 MSTORE PUSH1 0x20 ADD PUSH1 0x0 DUP2 MSTORE POP SWAP1 JUMP JUMPDEST PUSH1 0x40 MLOAD DUP1 PUSH2 0x380 ADD PUSH1 0x40 MSTORE DUP1 PUSH1 0x1C SWAP1 JUMPDEST PUSH2 0x69E9 PUSH2 0x678C JUMP JUMPDEST DUP2 MSTORE PUSH1 0x20 ADD SWAP1 PUSH1 0x1 SWAP1 SUB SWAP1 DUP2 PUSH2 0x69E1 JUMPI SWAP1 POP POP SWAP1 JUMP JUMPDEST PUSH1 0x40 MLOAD DUP1 PUSH2 0x500 ADD PUSH1 0x40 MSTORE DUP1 PUSH1 0x28 SWAP1 PUSH1 0x20 DUP3 MUL DUP1 CALLDATASIZE DUP4 CALLDATACOPY DUP1 DUP3 ADD SWAP2 POP POP SWAP1 POP POP SWAP1 JUMP JUMPDEST PUSH1 0x40 MLOAD DUP1 PUSH2 0x360 ADD PUSH1 0x40 MSTORE DUP1 PUSH1 0x1B SWAP1 JUMPDEST PUSH2 0x6A3A PUSH2 0x6617 JUMP JUMPDEST DUP2 MSTORE PUSH1 0x20 ADD SWAP1 PUSH1 0x1 SWAP1 SUB SWAP1 DUP2 PUSH2 0x6A32 JUMPI SWAP1 POP POP SWAP1 JUMP JUMPDEST PUSH1 0x0 DUP1 REVERT JUMPDEST PUSH1 0x0 DUP1 REVERT JUMPDEST PUSH1 0x0 DUP1 REVERT JUMPDEST PUSH1 0x0 DUP1 REVERT JUMPDEST PUSH1 0x0 DUP1 REVERT JUMPDEST PUSH1 0x0 DUP1 DUP4 PUSH1 0x1F DUP5 ADD SLT PUSH2 0x6A7F JUMPI PUSH2 0x6A7E PUSH2 0x6A5A JUMP JUMPDEST JUMPDEST DUP3 CALLDATALOAD SWAP1 POP PUSH8 0xFFFFFFFFFFFFFFFF DUP2 GT ISZERO PUSH2 0x6A9C JUMPI PUSH2 0x6A9B PUSH2 0x6A5F JUMP JUMPDEST JUMPDEST PUSH1 0x20 DUP4 ADD SWAP2 POP DUP4 PUSH1 0x1 DUP3 MUL DUP4 ADD GT ISZERO PUSH2 0x6AB8 JUMPI PUSH2 0x6AB7 PUSH2 0x6A64 JUMP JUMPDEST JUMPDEST SWAP3 POP SWAP3 SWAP1 POP JUMP JUMPDEST PUSH1 0x0 DUP1 DUP4 PUSH1 0x1F DUP5 ADD SLT PUSH2 0x6AD5 JUMPI PUSH2 0x6AD4 PUSH2 0x6A5A JUMP JUMPDEST JUMPDEST DUP3 CALLDATALOAD SWAP1 POP PUSH8 0xFFFFFFFFFFFFFFFF DUP2 GT ISZERO PUSH2 0x6AF2 JUMPI PUSH2 0x6AF1 PUSH2 0x6A5F JUMP JUMPDEST JUMPDEST PUSH1 0x20 DUP4 ADD SWAP2 POP DUP4 PUSH1 0x20 DUP3 MUL DUP4 ADD GT ISZERO PUSH2 0x6B0E JUMPI PUSH2 0x6B0D PUSH2 0x6A64 JUMP JUMPDEST JUMPDEST SWAP3 POP SWAP3 SWAP1 POP JUMP JUMPDEST PUSH1 0x0 DUP1 PUSH1 0x0 DUP1 PUSH1 0x40 DUP6 DUP8 SUB SLT ISZERO PUSH2 0x6B2F JUMPI PUSH2 0x6B2E PUSH2 0x6A50 JUMP JUMPDEST JUMPDEST PUSH1 0x0 DUP6 ADD CALLDATALOAD PUSH8 0xFFFFFFFFFFFFFFFF DUP2 GT ISZERO PUSH2 0x6B4D JUMPI PUSH2 0x6B4C PUSH2 0x6A55 JUMP JUMPDEST JUMPDEST PUSH2 0x6B59 DUP8 DUP3 DUP9 ADD PUSH2 0x6A69 JUMP JUMPDEST SWAP5 POP SWAP5 POP POP PUSH1 0x20 DUP6 ADD CALLDATALOAD PUSH8 0xFFFFFFFFFFFFFFFF DUP2 GT ISZERO PUSH2 0x6B7C JUMPI PUSH2 0x6B7B PUSH2 0x6A55 JUMP JUMPDEST JUMPDEST PUSH2 0x6B88 DUP8 DUP3 DUP9 ADD PUSH2 0x6ABF JUMP JUMPDEST SWAP3 POP SWAP3 POP POP SWAP3 SWAP6 SWAP2 SWAP5 POP SWAP3 POP JUMP JUMPDEST PUSH1 0x0 DUP2 ISZERO ISZERO SWAP1 POP SWAP2 SWAP1 POP JUMP JUMPDEST PUSH2 0x6BAB DUP2 PUSH2 0x6B96 JUMP JUMPDEST DUP3 MSTORE POP POP JUMP JUMPDEST PUSH1 0x0 PUSH1 0x20 DUP3 ADD SWAP1 POP PUSH2 0x6BC6 PUSH1 0x0 DUP4 ADD DUP5 PUSH2 0x6BA2 JUMP JUMPDEST SWAP3 SWAP2 POP POP JUMP JUMPDEST PUSH1 0x0 DUP2 SWAP1 POP SWAP2 SWAP1 POP JUMP JUMPDEST PUSH32 0x4E487B7100000000000000000000000000000000000000000000000000000000 PUSH1 0x0 MSTORE PUSH1 0x11 PUSH1 0x4 MSTORE PUSH1 0x24 PUSH1 0x0 REVERT JUMPDEST PUSH1 0x0 PUSH2 0x6C10 DUP3 PUSH2 0x6BCC JUMP JUMPDEST SWAP2 POP PUSH2 0x6C1B DUP4 PUSH2 0x6BCC JUMP JUMPDEST SWAP3 POP DUP3 DUP3 MUL PUSH2 0x6C29 DUP2 PUSH2 0x6BCC JUMP JUMPDEST SWAP2 POP DUP3 DUP3 DIV DUP5 EQ DUP4 ISZERO OR PUSH2 0x6C40 JUMPI PUSH2 0x6C3F PUSH2 0x6BD6 JUMP JUMPDEST JUMPDEST POP SWAP3 SWAP2 POP POP JUMP JUMPDEST PUSH1 0x0 DUP1 REVERT JUMPDEST PUSH1 0x0 DUP1 REVERT JUMPDEST PUSH1 0x0 DUP1 DUP6 DUP6 GT ISZERO PUSH2 0x6C65 JUMPI PUSH2 0x6C64 PUSH2 0x6C47 JUMP JUMPDEST JUMPDEST DUP4 DUP7 GT ISZERO PUSH2 0x6C76 JUMPI PUSH2 0x6C75 PUSH2 0x6C4C JUMP JUMPDEST JUMPDEST PUSH1 0x1 DUP6 MUL DUP4 ADD SWAP2 POP DUP5 DUP7 SUB SWAP1 POP SWAP5 POP SWAP5 SWAP3 POP POP POP JUMP JUMPDEST PUSH1 0x0 PUSH2 0x6C97 DUP3 PUSH2 0x6BCC JUMP JUMPDEST SWAP2 POP PUSH2 0x6CA2 DUP4 PUSH2 0x6BCC JUMP JUMPDEST SWAP3 POP DUP3 DUP3 ADD SWAP1 POP DUP1 DUP3 GT ISZERO PUSH2 0x6CBA JUMPI PUSH2 0x6CB9 PUSH2 0x6BD6 JUMP JUMPDEST JUMPDEST SWAP3 SWAP2 POP POP JUMP JUMPDEST PUSH32 0x4E487B7100000000000000000000000000000000000000000000000000000000 PUSH1 0x0 MSTORE PUSH1 0x32 PUSH1 0x4 MSTORE PUSH1 0x24 PUSH1 0x0 REVERT JUMPDEST PUSH1 0x0 PUSH2 0x6CFA DUP3 PUSH2 0x6BCC JUMP JUMPDEST SWAP2 POP PUSH2 0x6D05 DUP4 PUSH2 0x6BCC JUMP JUMPDEST SWAP3 POP DUP3 DUP3 SUB SWAP1 POP DUP2 DUP2 GT ISZERO PUSH2 0x6D1D JUMPI PUSH2 0x6D1C PUSH2 0x6BD6 JUMP JUMPDEST JUMPDEST SWAP3 SWAP2 POP POP JUMP JUMPDEST PUSH1 0x0 PUSH2 0x6D2E DUP3 PUSH2 0x6BCC JUMP JUMPDEST SWAP2 POP PUSH32 0xFFFFFFFFFFFFFFFFFFFFFFFFFFFFFFFFFFFFFFFFFFFFFFFFFFFFFFFFFFFFFFFF DUP3 SUB PUSH2 0x6D60 JUMPI PUSH2 0x6D5F PUSH2 0x6BD6 JUMP JUMPDEST JUMPDEST PUSH1 0x1 DUP3 ADD SWAP1 POP SWAP2 SWAP1 POP JUMP JUMPDEST PUSH1 0x0 DUP3 DUP3 MSTORE PUSH1 0x20 DUP3 ADD SWAP1 POP SWAP3 SWAP2 POP POP JUMP JUMPDEST PUSH32 0x696E76616C696420627974657320706F696E7400000000000000000000000000 PUSH1 0x0 DUP3 ADD MSTORE POP JUMP JUMPDEST PUSH1 0x0 PUSH2 0x6DB2 PUSH1 0x13 DUP4 PUSH2 0x6D6B JUMP JUMPDEST SWAP2 POP PUSH2 0x6DBD DUP3 PUSH2 0x6D7C JUMP JUMPDEST PUSH1 0x20 DUP3 ADD SWAP1 POP SWAP2 SWAP1 POP JUMP JUMPDEST PUSH1 0x0 PUSH1 0x20 DUP3 ADD SWAP1 POP DUP2 DUP2 SUB PUSH1 0x0 DUP4 ADD MSTORE PUSH2 0x6DE1 DUP2 PUSH2 0x6DA5 JUMP JUMPDEST SWAP1 POP SWAP2 SWAP1 POP JUMP JUMPDEST PUSH1 0x0 DUP3 SWAP1 POP SWAP3 SWAP2 POP POP JUMP JUMPDEST PUSH1 0x0 DUP2 SWAP1 POP SWAP2 SWAP1 POP JUMP JUMPDEST PUSH1 0x0 DUP3 DUP3 SHL SWAP1 POP SWAP3 SWAP2 POP POP JUMP JUMPDEST PUSH1 0x0 PUSH2 0x6E16 DUP4 DUP4 PUSH2 0x6DE8 JUMP JUMPDEST DUP3 PUSH2 0x6E21 DUP2 CALLDATALOAD PUSH2 0x6DF3 JUMP JUMPDEST SWAP3 POP PUSH1 0x20 DUP3 LT ISZERO PUSH2 0x6E61 JUMPI PUSH2 0x6E5C PUSH32 0xFFFFFFFFFFFFFFFFFFFFFFFFFFFFFFFFFFFFFFFFFFFFFFFFFFFFFFFFFFFFFFFF DUP4 PUSH1 0x20 SUB PUSH1 0x8 MUL PUSH2 0x6DFD JUMP JUMPDEST DUP4 AND SWAP3 POP JUMPDEST POP POP SWAP3 SWAP2 POP POP JUMP JUMPDEST PUSH32 0x696E76616C6964206279746573207363616C6172000000000000000000000000 PUSH1 0x0 DUP3 ADD MSTORE POP JUMP JUMPDEST PUSH1 0x0 PUSH2 0x6E9F PUSH1 0x14 DUP4 PUSH2 0x6D6B JUMP JUMPDEST SWAP2 POP PUSH2 0x6EAA DUP3 PUSH2 0x6E69 JUMP JUMPDEST PUSH1 0x20 DUP3 ADD SWAP1 POP SWAP2 SWAP1 POP JUMP JUMPDEST PUSH1 0x0 PUSH1 0x20 DUP3 ADD SWAP1 POP DUP2 DUP2 SUB PUSH1 0x0 DUP4 ADD MSTORE PUSH2 0x6ECE DUP2 PUSH2 0x6E92 JUMP JUMPDEST SWAP1 POP SWAP2 SWAP1 POP JUMP JUMPDEST PUSH1 0x0 PUSH1 0x9 SWAP1 POP SWAP2 SWAP1 POP JUMP JUMPDEST PUSH1 0x0 DUP2 SWAP1 POP SWAP3 SWAP2 POP POP JUMP JUMPDEST PUSH1 0x0 DUP2 SWAP1 POP SWAP2 SWAP1 POP JUMP JUMPDEST PUSH2 0x6EFE DUP2 PUSH2 0x6BCC JUMP JUMPDEST DUP3 MSTORE POP POP JUMP JUMPDEST PUSH1 0x0 PUSH2 0x6F10 DUP4 DUP4 PUSH2 0x6EF5 JUMP JUMPDEST PUSH1 0x20 DUP4 ADD SWAP1 POP SWAP3 SWAP2 POP POP JUMP JUMPDEST PUSH1 0x0 PUSH1 0x20 DUP3 ADD SWAP1 POP SWAP2 SWAP1 POP JUMP JUMPDEST PUSH2 0x6F32 DUP2 PUSH2 0x6ED5 JUMP JUMPDEST PUSH2 0x6F3C DUP2 DUP5 PUSH2 0x6EE0 JUMP JUMPDEST SWAP3 POP PUSH2 0x6F47 DUP3 PUSH2 0x6EEB JUMP JUMPDEST DUP1 PUSH1 0x0 JUMPDEST DUP4 DUP2 LT ISZERO PUSH2 0x6F78 JUMPI DUP2 MLOAD PUSH2 0x6F5F DUP8 DUP3 PUSH2 0x6F04 JUMP JUMPDEST SWAP7 POP PUSH2 0x6F6A DUP4 PUSH2 0x6F1C JUMP JUMPDEST SWAP3 POP POP PUSH1 0x1 DUP2 ADD SWAP1 POP PUSH2 0x6F4B JUMP JUMPDEST POP POP POP POP POP POP JUMP JUMPDEST PUSH1 0x0 PUSH2 0x6F8C DUP3 DUP5 PUSH2 0x6F29 JUMP JUMPDEST PUSH2 0x120 DUP3 ADD SWAP2 POP DUP2 SWAP1 POP SWAP3 SWAP2 POP POP JUMP JUMPDEST PUSH32 0x4E487B7100000000000000000000000000000000000000000000000000000000 PUSH1 0x0 MSTORE PUSH1 0x12 PUSH1 0x4 MSTORE PUSH1 0x24 PUSH1 0x0 REVERT JUMPDEST PUSH1 0x0 PUSH2 0x6FD6 DUP3 PUSH2 0x6BCC JUMP JUMPDEST SWAP2 POP PUSH2 0x6FE1 DUP4 PUSH2 0x6BCC JUMP JUMPDEST SWAP3 POP DUP3 PUSH2 0x6FF1 JUMPI PUSH2 0x6FF0 PUSH2 0x6F9C JUMP JUMPDEST JUMPDEST DUP3 DUP3 DIV SWAP1 POP SWAP3 SWAP2 POP POP JUMP JUMPDEST PUSH1 0x0 DUP2 SWAP1 POP SWAP2 SWAP1 POP JUMP JUMPDEST PUSH2 0x7017 PUSH2 0x7012 DUP3 PUSH2 0x6BCC JUMP JUMPDEST PUSH2 0x6FFC JUMP JUMPDEST DUP3 MSTORE POP POP JUMP JUMPDEST PUSH1 0x0 PUSH2 0x7029 DUP3 DUP5 PUSH2 0x7006 JUMP JUMPDEST PUSH1 0x20 DUP3 ADD SWAP2 POP DUP2 SWAP1 POP SWAP3 SWAP2 POP POP JUMP JUMPDEST PUSH1 0x0 PUSH1 0x9 SWAP1 POP SWAP2 SWAP1 POP JUMP JUMPDEST PUSH1 0x0 DUP2 SWAP1 POP SWAP2 SWAP1 POP JUMP JUMPDEST PUSH1 0x0 DUP2 SWAP1 POP SWAP2 SWAP1 POP JUMP JUMPDEST PUSH1 0x0 PUSH2 0x7072 PUSH2 0x706D PUSH2 0x7068 DUP5 PUSH2 0x6BCC JUMP JUMPDEST PUSH2 0x704D JUMP JUMPDEST PUSH2 0x6BCC JUMP JUMPDEST SWAP1 POP SWAP2 SWAP1 POP JUMP JUMPDEST PUSH2 0x7082 DUP2 PUSH2 0x7057 JUMP JUMPDEST DUP3 MSTORE POP POP JUMP JUMPDEST PUSH1 0x0 PUSH2 0x7094 DUP4 DUP4 PUSH2 0x7079 JUMP JUMPDEST PUSH1 0x20 DUP4 ADD SWAP1 POP SWAP3 SWAP2 POP POP JUMP JUMPDEST PUSH1 0x0 PUSH1 0x20 DUP3 ADD SWAP1 POP SWAP2 SWAP1 POP JUMP JUMPDEST PUSH2 0x70B6 DUP2 PUSH2 0x7038 JUMP JUMPDEST PUSH2 0x70C0 DUP2 DUP5 PUSH2 0x6EE0 JUMP JUMPDEST SWAP3 POP PUSH2 0x70CB DUP3 PUSH2 0x7043 JUMP JUMPDEST DUP1 PUSH1 0x0 JUMPDEST DUP4 DUP2 LT ISZERO PUSH2 0x70FC JUMPI DUP2 MLOAD PUSH2 0x70E3 DUP8 DUP3 PUSH2 0x7088 JUMP JUMPDEST SWAP7 POP PUSH2 0x70EE DUP4 PUSH2 0x70A0 JUMP JUMPDEST SWAP3 POP POP PUSH1 0x1 DUP2 ADD SWAP1 POP PUSH2 0x70CF JUMP JUMPDEST POP POP POP POP POP POP JUMP JUMPDEST PUSH1 0x0 PUSH2 0x7110 DUP3 DUP5 PUSH2 0x70AD JUMP JUMPDEST PUSH2 0x120 DUP3 ADD SWAP2 POP DUP2 SWAP1 POP SWAP3 SWAP2 POP POP JUMP JUMPDEST PUSH1 0x0 PUSH1 0x29 SWAP1 POP SWAP2 SWAP1 POP JUMP JUMPDEST PUSH1 0x0 DUP2 SWAP1 POP SWAP3 SWAP2 POP POP JUMP JUMPDEST PUSH1 0x0 DUP2 SWAP1 POP SWAP2 SWAP1 POP JUMP JUMPDEST PUSH1 0x0 PUSH1 0x20 DUP3 ADD SWAP1 POP SWAP2 SWAP1 POP JUMP JUMPDEST PUSH2 0x7156 DUP2 PUSH2 0x7120 JUMP JUMPDEST PUSH2 0x7160 DUP2 DUP5 PUSH2 0x712B JUMP JUMPDEST SWAP3 POP PUSH2 0x716B DUP3 PUSH2 0x7136 JUMP JUMPDEST DUP1 PUSH1 0x0 JUMPDEST DUP4 DUP2 LT ISZERO PUSH2 0x719C JUMPI DUP2 MLOAD PUSH2 0x7183 DUP8 DUP3 PUSH2 0x7088 JUMP JUMPDEST SWAP7 POP PUSH2 0x718E DUP4 PUSH2 0x7140 JUMP JUMPDEST SWAP3 POP POP PUSH1 0x1 DUP2 ADD SWAP1 POP PUSH2 0x716F JUMP JUMPDEST POP POP POP POP POP POP JUMP JUMPDEST PUSH1 0x0 PUSH2 0x71B0 DUP3 DUP5 PUSH2 0x714D JUMP JUMPDEST PUSH2 0x520 DUP3 ADD SWAP2 POP DUP2 SWAP1 POP SWAP3 SWAP2 POP POP JUMP JUMPDEST PUSH1 0x0 PUSH1 0x6D SWAP1 POP SWAP2 SWAP1 POP JUMP JUMPDEST PUSH1 0x0 DUP2 SWAP1 POP SWAP3 SWAP2 POP POP JUMP JUMPDEST PUSH1 0x0 DUP2 SWAP1 POP SWAP2 SWAP1 POP JUMP JUMPDEST PUSH1 0x0 PUSH1 0x20 DUP3 ADD SWAP1 POP SWAP2 SWAP1 POP JUMP JUMPDEST PUSH2 0x71F6 DUP2 PUSH2 0x71C0 JUMP JUMPDEST PUSH2 0x7200 DUP2 DUP5 PUSH2 0x71CB JUMP JUMPDEST SWAP3 POP PUSH2 0x720B DUP3 PUSH2 0x71D6 JUMP JUMPDEST DUP1 PUSH1 0x0 JUMPDEST DUP4 DUP2 LT ISZERO PUSH2 0x723C JUMPI DUP2 MLOAD PUSH2 0x7223 DUP8 DUP3 PUSH2 0x6F04 JUMP JUMPDEST SWAP7 POP PUSH2 0x722E DUP4 PUSH2 0x71E0 JUMP JUMPDEST SWAP3 POP POP PUSH1 0x1 DUP2 ADD SWAP1 POP PUSH2 0x720F JUMP JUMPDEST POP POP POP POP POP POP JUMP JUMPDEST PUSH1 0x0 PUSH2 0x7250 DUP3 DUP5 PUSH2 0x71ED JUMP JUMPDEST PUSH2 0xDA0 DUP3 ADD SWAP2 POP DUP2 SWAP1 POP SWAP3 SWAP2 POP POP JUMP JUMPDEST PUSH1 0x0 PUSH1 0x1D SWAP1 POP SWAP2 SWAP1 POP JUMP JUMPDEST PUSH1 0x0 DUP2 SWAP1 POP SWAP3 SWAP2 POP POP JUMP JUMPDEST PUSH1 0x0 DUP2 SWAP1 POP SWAP2 SWAP1 POP JUMP JUMPDEST PUSH1 0x0 PUSH1 0x20 DUP3 ADD SWAP1 POP SWAP2 SWAP1 POP JUMP JUMPDEST PUSH2 0x7296 DUP2 PUSH2 0x7260 JUMP JUMPDEST PUSH2 0x72A0 DUP2 DUP5 PUSH2 0x726B JUMP JUMPDEST SWAP3 POP PUSH2 0x72AB DUP3 PUSH2 0x7276 JUMP JUMPDEST DUP1 PUSH1 0x0 JUMPDEST DUP4 DUP2 LT ISZERO PUSH2 0x72DC JUMPI DUP2 MLOAD PUSH2 0x72C3 DUP8 DUP3 PUSH2 0x6F04 JUMP JUMPDEST SWAP7 POP PUSH2 0x72CE DUP4 PUSH2 0x7280 JUMP JUMPDEST SWAP3 POP POP PUSH1 0x1 DUP2 ADD SWAP1 POP PUSH2 0x72AF JUMP JUMPDEST POP POP POP POP POP POP JUMP JUMPDEST PUSH1 0x0 PUSH2 0x72F0 DUP3 DUP5 PUSH2 0x728D JUMP JUMPDEST PUSH2 0x3A0 DUP3 ADD SWAP2 POP DUP2 SWAP1 POP SWAP3 SWAP2 POP POP JUMP JUMPDEST PUSH1 0x0 PUSH1 0x5 SWAP1 POP SWAP2 SWAP1 POP JUMP JUMPDEST PUSH1 0x0 DUP2 SWAP1 POP SWAP3 SWAP2 POP POP JUMP JUMPDEST PUSH1 0x0 DUP2 SWAP1 POP SWAP2 SWAP1 POP JUMP JUMPDEST PUSH1 0x0 PUSH1 0x20 DUP3 ADD SWAP1 POP SWAP2 SWAP1 POP JUMP JUMPDEST PUSH2 0x7336 DUP2 PUSH2 0x7300 JUMP JUMPDEST PUSH2 0x7340 DUP2 DUP5 PUSH2 0x730B JUMP JUMPDEST SWAP3 POP PUSH2 0x734B DUP3 PUSH2 0x7316 JUMP JUMPDEST DUP1 PUSH1 0x0 JUMPDEST DUP4 DUP2 LT ISZERO PUSH2 0x737C JUMPI DUP2 MLOAD PUSH2 0x7363 DUP8 DUP3 PUSH2 0x6F04 JUMP JUMPDEST SWAP7 POP PUSH2 0x736E DUP4 PUSH2 0x7320 JUMP JUMPDEST SWAP3 POP POP PUSH1 0x1 DUP2 ADD SWAP1 POP PUSH2 0x734F JUMP JUMPDEST POP POP POP POP POP POP JUMP JUMPDEST PUSH1 0x0 PUSH2 0x7390 DUP3 DUP5 PUSH2 0x732D JUMP JUMPDEST PUSH1 0xA0 DUP3 ADD SWAP2 POP DUP2 SWAP1 POP SWAP3 SWAP2 POP POP JUMP JUMPDEST PUSH1 0x0 PUSH2 0x73AA DUP3 PUSH2 0x6BCC JUMP JUMPDEST SWAP2 POP PUSH2 0x73B5 DUP4 PUSH2 0x6BCC JUMP JUMPDEST SWAP3 POP DUP3 PUSH2 0x73C5 JUMPI PUSH2 0x73C4 PUSH2 0x6F9C JUMP JUMPDEST JUMPDEST DUP3 DUP3 MOD SWAP1 POP SWAP3 SWAP2 POP POP JUMP JUMPDEST PUSH1 0x0 PUSH2 0x73DB DUP3 PUSH2 0x6BCC JUMP JUMPDEST SWAP2 POP PUSH1 0x0 DUP3 SUB PUSH2 0x73EE JUMPI PUSH2 0x73ED PUSH2 0x6BD6 JUMP JUMPDEST JUMPDEST PUSH1 0x1 DUP3 SUB SWAP1 POP SWAP2 SWAP1 POP JUMP JUMPDEST PUSH1 0x0 PUSH2 0x7405 DUP3 DUP16 PUSH2 0x7006 JUMP JUMPDEST PUSH1 0x20 DUP3 ADD SWAP2 POP PUSH2 0x7415 DUP3 DUP15 PUSH2 0x7006 JUMP JUMPDEST PUSH1 0x20 DUP3 ADD SWAP2 POP PUSH2 0x7425 DUP3 DUP14 PUSH2 0x7006 JUMP JUMPDEST PUSH1 0x20 DUP3 ADD SWAP2 POP PUSH2 0x7435 DUP3 DUP13 PUSH2 0x7006 JUMP JUMPDEST PUSH1 0x20 DUP3 ADD SWAP2 POP PUSH2 0x7445 DUP3 DUP12 PUSH2 0x7006 JUMP JUMPDEST PUSH1 0x20 DUP3 ADD SWAP2 POP PUSH2 0x7455 DUP3 DUP11 PUSH2 0x7006 JUMP JUMPDEST PUSH1 0x20 DUP3 ADD SWAP2 POP PUSH2 0x7465 DUP3 DUP10 PUSH2 0x7006 JUMP JUMPDEST PUSH1 0x20 DUP3 ADD SWAP2 POP PUSH2 0x7475 DUP3 DUP9 PUSH2 0x7006 JUMP JUMPDEST PUSH1 0x20 DUP3 ADD SWAP2 POP PUSH2 0x7485 DUP3 DUP8 PUSH2 0x7006 JUMP JUMPDEST PUSH1 0x20 DUP3 ADD SWAP2 POP PUSH2 0x7495 DUP3 DUP7 PUSH2 0x7006 JUMP JUMPDEST PUSH1 0x20 DUP3 ADD SWAP2 POP PUSH2 0x74A5 DUP3 DUP6 PUSH2 0x7006 JUMP JUMPDEST PUSH1 0x20 DUP3 ADD SWAP2 POP PUSH2 0x74B5 DUP3 DUP5 PUSH2 0x7006 JUMP JUMPDEST PUSH1 0x20 DUP3 ADD SWAP2 POP DUP2 SWAP1 POP SWAP14 SWAP13 POP POP POP POP POP POP POP POP POP POP POP POP POP JUMP JUMPDEST PUSH1 0x0 DUP2 MLOAD SWAP1 POP SWAP2 SWAP1 POP JUMP JUMPDEST PUSH1 0x0 DUP2 SWAP1 POP SWAP3 SWAP2 POP POP JUMP JUMPDEST PUSH1 0x0 JUMPDEST DUP4 DUP2 LT ISZERO PUSH2 0x7503 JUMPI DUP1 DUP3 ADD MLOAD DUP2 DUP5 ADD MSTORE PUSH1 0x20 DUP2 ADD SWAP1 POP PUSH2 0x74E8 JUMP JUMPDEST PUSH1 0x0 DUP5 DUP5 ADD MSTORE POP POP POP POP JUMP JUMPDEST PUSH1 0x0 PUSH2 0x751A DUP3 PUSH2 0x74CF JUMP JUMPDEST PUSH2 0x7524 DUP2 DUP6 PUSH2 0x74DA JUMP JUMPDEST SWAP4 POP PUSH2 0x7534 DUP2 DUP6 PUSH1 0x20 DUP7 ADD PUSH2 0x74E5 JUMP JUMPDEST DUP1 DUP5 ADD SWAP2 POP POP SWAP3 SWAP2 POP POP JUMP JUMPDEST PUSH1 0x0 PUSH2 0x754C DUP3 DUP5 PUSH2 0x750F JUMP JUMPDEST SWAP2 POP DUP2 SWAP1 POP SWAP3 SWAP2 POP POP JUMP JUMPDEST PUSH2 0x7560 DUP2 PUSH2 0x6B96 JUMP JUMPDEST DUP2 EQ PUSH2 0x756B JUMPI PUSH1 0x0 DUP1 REVERT JUMPDEST POP JUMP JUMPDEST PUSH1 0x0 DUP2 MLOAD SWAP1 POP PUSH2 0x757D DUP2 PUSH2 0x7557 JUMP JUMPDEST SWAP3 SWAP2 POP POP JUMP JUMPDEST PUSH1 0x0 PUSH1 0x20 DUP3 DUP5 SUB SLT ISZERO PUSH2 0x7599 JUMPI PUSH2 0x7598 PUSH2 0x6A50 JUMP JUMPDEST JUMPDEST PUSH1 0x0 PUSH2 0x75A7 DUP5 DUP3 DUP6 ADD PUSH2 0x756E JUMP JUMPDEST SWAP2 POP POP SWAP3 SWAP2 POP POP JUMP JUMPDEST PUSH32 0x4E487B7100000000000000000000000000000000000000000000000000000000 PUSH1 0x0 MSTORE PUSH1 0x41 PUSH1 0x4 MSTORE PUSH1 0x24 PUSH1 0x0 REVERT JUMPDEST PUSH1 0x0 DUP2 MLOAD SWAP1 POP SWAP2 SWAP1 POP JUMP JUMPDEST PUSH1 0x0 DUP2 SWAP1 POP SWAP3 SWAP2 POP POP JUMP JUMPDEST PUSH1 0x0 DUP2 SWAP1 POP PUSH1 0x20 DUP3 ADD SWAP1 POP SWAP2 SWAP1 POP JUMP JUMPDEST PUSH2 0x760E DUP2 PUSH2 0x6DF3 JUMP JUMPDEST DUP3 MSTORE POP POP JUMP JUMPDEST PUSH1 0x0 PUSH2 0x7620 DUP4 DUP4 PUSH2 0x7605 JUMP JUMPDEST PUSH1 0x20 DUP4 ADD SWAP1 POP SWAP3 SWAP2 POP POP JUMP JUMPDEST PUSH1 0x0 PUSH1 0x20 DUP3 ADD SWAP1 POP SWAP2 SWAP1 POP JUMP JUMPDEST PUSH1 0x0 PUSH2 0x7644 DUP3 PUSH2 0x75DF JUMP JUMPDEST PUSH2 0x764E DUP2 DUP6 PUSH2 0x75EA JUMP JUMPDEST SWAP4 POP PUSH2 0x7659 DUP4 PUSH2 0x75F5 JUMP JUMPDEST DUP1 PUSH1 0x0 JUMPDEST DUP4 DUP2 LT ISZERO PUSH2 0x768A JUMPI DUP2 MLOAD PUSH2 0x7671 DUP9 DUP3 PUSH2 0x7614 JUMP JUMPDEST SWAP8 POP PUSH2 0x767C DUP4 PUSH2 0x762C JUMP JUMPDEST SWAP3 POP POP PUSH1 0x1 DUP2 ADD SWAP1 POP PUSH2 0x765D JUMP JUMPDEST POP DUP6 SWAP4 POP POP POP POP SWAP3 SWAP2 POP POP JUMP JUMPDEST PUSH1 0x0 PUSH2 0x76A3 DUP3 DUP5 PUSH2 0x7639 JUMP JUMPDEST SWAP2 POP DUP2 SWAP1 POP SWAP3 SWAP2 POP POP JUMP JUMPDEST PUSH1 0x0 PUSH1 0xD SWAP1 POP SWAP2 SWAP1 POP JUMP JUMPDEST PUSH1 0x0 DUP2 SWAP1 POP SWAP3 SWAP2 POP POP JUMP JUMPDEST PUSH1 0x0 DUP2 SWAP1 POP SWAP2 SWAP1 POP JUMP JUMPDEST PUSH1 0x0 PUSH1 0x20 DUP3 ADD SWAP1 POP SWAP2 SWAP1 POP JUMP JUMPDEST PUSH2 0x76E4 DUP2 PUSH2 0x76AE JUMP JUMPDEST PUSH2 0x76EE DUP2 DUP5 PUSH2 0x76B9 JUMP JUMPDEST SWAP3 POP PUSH2 0x76F9 DUP3 PUSH2 0x76C4 JUMP JUMPDEST DUP1 PUSH1 0x0 JUMPDEST DUP4 DUP2 LT ISZERO PUSH2 0x772A JUMPI DUP2 MLOAD PUSH2 0x7711 DUP8 DUP3 PUSH2 0x7614 JUMP JUMPDEST SWAP7 POP PUSH2 0x771C DUP4 PUSH2 0x76CE JUMP JUMPDEST SWAP3 POP POP PUSH1 0x1 DUP2 ADD SWAP1 POP PUSH2 0x76FD JUMP JUMPDEST POP POP POP POP POP POP JUMP JUMPDEST PUSH1 0x0 PUSH2 0x773E DUP3 DUP5 PUSH2 0x76DB JUMP JUMPDEST PUSH2 0x1A0 DUP3 ADD SWAP2 POP DUP2 SWAP1 POP SWAP3 SWAP2 POP POP JUMP JUMPDEST PUSH32 0x4E487B7100000000000000000000000000000000000000000000000000000000 PUSH1 0x0 MSTORE PUSH1 0x21 PUSH1 0x4 MSTORE PUSH1 0x24 PUSH1 0x0 REVERT INVALID LOG2 PUSH5 0x6970667358 0x22 SLT KECCAK256 NUMBER EXP BASEFEE PUSH13 0xF32C28D8B001C73948ECD4BF6D 0xEC 0xDE 0xD4 JUMPI 0xEA CHAINID DUP14 ADDRESS DUP6 RETURNDATASIZE EXP LOG2 RETURNDATACOPY KECCAK256 DUP12 PUSH5 0x736F6C6343 STOP ADDMOD SHR STOP CALLER "},"methodIdentifiers":{"deposit(uint256,uint256)":"e2bbb158","escrowData(address)":"72236b82","paymentToken()":"3013ce29","verifier()":"2b7ac3f3","withdraw(bytes,uint256,uint256,address)":"4c674934"}}}}}