{
  "_format": "hh-sol-artifact-1",
  "contractName": "MockAToken",
  "sourceName": "contracts/MockAave.sol",
  "abi": [
    {
      "inputs": [
        {
          "internalType": "address",
          "name": "_underlyingAsset",
          "type": "address"
        }
      ],
      "stateMutability": "nonpayable",
      "type": "constructor"
    },
    {
      "inputs": [
        {
          "internalType": "address",
          "name": "spender",
          "type": "address"
        },
        {
          "internalType": "uint256",
          "name": "allowance",
          "type": "uint256"
        },
        {
          "internalType": "uint256",
          "name": "needed",
          "type": "uint256"
        }
      ],
      "name": "ERC20InsufficientAllowance",
      "type": "error"
    },
    {
      "inputs": [
        {
          "internalType": "address",
          "name": "sender",
          "type": "address"
        },
        {
          "internalType": "uint256",
          "name": "balance",
          "type": "uint256"
        },
        {
          "internalType": "uint256",
          "name": "needed",
          "type": "uint256"
        }
      ],
      "name": "ERC20InsufficientBalance",
      "type": "error"
    },
    {
      "inputs": [
        {
          "internalType": "address",
          "name": "approver",
          "type": "address"
        }
      ],
      "name": "ERC20InvalidApprover",
      "type": "error"
    },
    {
      "inputs": [
        {
          "internalType": "address",
          "name": "receiver",
          "type": "address"
        }
      ],
      "name": "ERC20InvalidReceiver",
      "type": "error"
    },
    {
      "inputs": [
        {
          "internalType": "address",
          "name": "sender",
          "type": "address"
        }
      ],
      "name": "ERC20InvalidSender",
      "type": "error"
    },
    {
      "inputs": [
        {
          "internalType": "address",
          "name": "spender",
          "type": "address"
        }
      ],
      "name": "ERC20InvalidSpender",
      "type": "error"
    },
    {
      "anonymous": false,
      "inputs": [
        {
          "indexed": true,
          "internalType": "address",
          "name": "owner",
          "type": "address"
        },
        {
          "indexed": true,
          "internalType": "address",
          "name": "spender",
          "type": "address"
        },
        {
          "indexed": false,
          "internalType": "uint256",
          "name": "value",
          "type": "uint256"
        }
      ],
      "name": "Approval",
      "type": "event"
    },
    {
      "anonymous": false,
      "inputs": [
        {
          "indexed": true,
          "internalType": "address",
          "name": "from",
          "type": "address"
        },
        {
          "indexed": true,
          "internalType": "address",
          "name": "to",
          "type": "address"
        },
        {
          "indexed": false,
          "internalType": "uint256",
          "name": "value",
          "type": "uint256"
        }
      ],
      "name": "Transfer",
      "type": "event"
    },
    {
      "inputs": [
        {
          "internalType": "address",
          "name": "owner",
          "type": "address"
        },
        {
          "internalType": "address",
          "name": "spender",
          "type": "address"
        }
      ],
      "name": "allowance",
      "outputs": [
        {
          "internalType": "uint256",
          "name": "",
          "type": "uint256"
        }
      ],
      "stateMutability": "view",
      "type": "function"
    },
    {
      "inputs": [
        {
          "internalType": "address",
          "name": "spender",
          "type": "address"
        },
        {
          "internalType": "uint256",
          "name": "value",
          "type": "uint256"
        }
      ],
      "name": "approve",
      "outputs": [
        {
          "internalType": "bool",
          "name": "",
          "type": "bool"
        }
      ],
      "stateMutability": "nonpayable",
      "type": "function"
    },
    {
      "inputs": [
        {
          "internalType": "address",
          "name": "account",
          "type": "address"
        }
      ],
      "name": "balanceOf",
      "outputs": [
        {
          "internalType": "uint256",
          "name": "",
          "type": "uint256"
        }
      ],
      "stateMutability": "view",
      "type": "function"
    },
    {
      "inputs": [
        {
          "internalType": "address",
          "name": "account",
          "type": "address"
        },
        {
          "internalType": "uint256",
          "name": "amount",
          "type": "uint256"
        }
      ],
      "name": "burn",
      "outputs": [],
      "stateMutability": "nonpayable",
      "type": "function"
    },
    {
      "inputs": [],
      "name": "decimals",
      "outputs": [
        {
          "internalType": "uint8",
          "name": "",
          "type": "uint8"
        }
      ],
      "stateMutability": "view",
      "type": "function"
    },
    {
      "inputs": [
        {
          "internalType": "address",
          "name": "to",
          "type": "address"
        },
        {
          "internalType": "uint256",
          "name": "amount",
          "type": "uint256"
        }
      ],
      "name": "mint",
      "outputs": [],
      "stateMutability": "nonpayable",
      "type": "function"
    },
    {
      "inputs": [
        {
          "internalType": "address",
          "name": "to",
          "type": "address"
        },
        {
          "internalType": "uint256",
          "name": "amount",
          "type": "uint256"
        }
      ],
      "name": "mintInterest",
      "outputs": [],
      "stateMutability": "nonpayable",
      "type": "function"
    },
    {
      "inputs": [],
      "name": "name",
      "outputs": [
        {
          "internalType": "string",
          "name": "",
          "type": "string"
        }
      ],
      "stateMutability": "view",
      "type": "function"
    },
    {
      "inputs": [],
      "name": "symbol",
      "outputs": [
        {
          "internalType": "string",
          "name": "",
          "type": "string"
        }
      ],
      "stateMutability": "view",
      "type": "function"
    },
    {
      "inputs": [],
      "name": "totalSupply",
      "outputs": [
        {
          "internalType": "uint256",
          "name": "",
          "type": "uint256"
        }
      ],
      "stateMutability": "view",
      "type": "function"
    },
    {
      "inputs": [
        {
          "internalType": "address",
          "name": "to",
          "type": "address"
        },
        {
          "internalType": "uint256",
          "name": "value",
          "type": "uint256"
        }
      ],
      "name": "transfer",
      "outputs": [
        {
          "internalType": "bool",
          "name": "",
          "type": "bool"
        }
      ],
      "stateMutability": "nonpayable",
      "type": "function"
    },
    {
      "inputs": [
        {
          "internalType": "address",
          "name": "from",
          "type": "address"
        },
        {
          "internalType": "address",
          "name": "to",
          "type": "address"
        },
        {
          "internalType": "uint256",
          "name": "value",
          "type": "uint256"
        }
      ],
      "name": "transferFrom",
      "outputs": [
        {
          "internalType": "bool",
          "name": "",
          "type": "bool"
        }
      ],
      "stateMutability": "nonpayable",
      "type": "function"
    },
    {
      "inputs": [],
      "name": "underlyingAsset",
      "outputs": [
        {
          "internalType": "address",
          "name": "",
          "type": "address"
        }
      ],
      "stateMutability": "view",
      "type": "function"
    }
  ],
  "bytecode": "0x608060405234801561001057600080fd5b50604051610a85380380610a8583398101604081905261002f916100b4565b604051806040016040528060098152602001684d6f636b206144414960b81b81525060405180604001604052806005815260200164614d44414960d81b815250816003908161007e9190610183565b50600461008b8282610183565b5050600580546001600160a01b0319166001600160a01b03939093169290921790915550610241565b6000602082840312156100c657600080fd5b81516001600160a01b03811681146100dd57600080fd5b9392505050565b634e487b7160e01b600052604160045260246000fd5b600181811c9082168061010e57607f821691505b60208210810361012e57634e487b7160e01b600052602260045260246000fd5b50919050565b601f82111561017e57806000526020600020601f840160051c8101602085101561015b5750805b601f840160051c820191505b8181101561017b5760008155600101610167565b50505b505050565b81516001600160401b0381111561019c5761019c6100e4565b6101b0816101aa84546100fa565b84610134565b6020601f8211600181146101e457600083156101cc5750848201515b600019600385901b1c1916600184901b17845561017b565b600084815260208120601f198516915b8281101561021457878501518255602094850194600190920191016101f4565b50848210156102325786840151600019600387901b60f8161c191681555b50505050600190811b01905550565b610835806102506000396000f3fe608060405234801561001057600080fd5b50600436106100cf5760003560e01c806370a082311161008c57806395d89b411161006657806395d89b41146101b25780639dc29fac146101ba578063a9059cbb146101cd578063dd62ed3e146101e057600080fd5b806370a082311461015e5780637158da7c1461018757806374920d301461014957600080fd5b806306fdde03146100d4578063095ea7b3146100f257806318160ddd1461011557806323b872dd14610127578063313ce5671461013a57806340c10f1914610149575b600080fd5b6100dc610219565b6040516100e9919061067e565b60405180910390f35b6101056101003660046106e8565b6102ab565b60405190151581526020016100e9565b6002545b6040519081526020016100e9565b610105610135366004610712565b6102c5565b604051601281526020016100e9565b61015c6101573660046106e8565b6102e9565b005b61011961016c36600461074f565b6001600160a01b031660009081526020819052604090205490565b60055461019a906001600160a01b031681565b6040516001600160a01b0390911681526020016100e9565b6100dc6102f7565b61015c6101c83660046106e8565b610306565b6101056101db3660046106e8565b610310565b6101196101ee366004610771565b6001600160a01b03918216600090815260016020908152604080832093909416825291909152205490565b606060038054610228906107a4565b80601f0160208091040260200160405190810160405280929190818152602001828054610254906107a4565b80156102a15780601f10610276576101008083540402835291602001916102a1565b820191906000526020600020905b81548152906001019060200180831161028457829003601f168201915b5050505050905090565b6000336102b981858561031e565b60019150505b92915050565b6000336102d3858285610330565b6102de8585856103b4565b506001949350505050565b6102f38282610413565b5050565b606060048054610228906107a4565b6102f38282610449565b6000336102b98185856103b4565b61032b838383600161047f565b505050565b6001600160a01b038381166000908152600160209081526040808320938616835292905220546000198110156103ae578181101561039f57604051637dc7a0d960e11b81526001600160a01b038416600482015260248101829052604481018390526064015b60405180910390fd5b6103ae8484848403600061047f565b50505050565b6001600160a01b0383166103de57604051634b637e8f60e11b815260006004820152602401610396565b6001600160a01b0382166104085760405163ec442f0560e01b815260006004820152602401610396565b61032b838383610554565b6001600160a01b03821661043d5760405163ec442f0560e01b815260006004820152602401610396565b6102f360008383610554565b6001600160a01b03821661047357604051634b637e8f60e11b815260006004820152602401610396565b6102f382600083610554565b6001600160a01b0384166104a95760405163e602df0560e01b815260006004820152602401610396565b6001600160a01b0383166104d357604051634a1406b160e11b815260006004820152602401610396565b6001600160a01b03808516600090815260016020908152604080832093871683529290522082905580156103ae57826001600160a01b0316846001600160a01b03167f8c5be1e5ebec7d5bd14f71427d1e84f3dd0314c0f7b2291e5b200ac8c7c3b9258460405161054691815260200190565b60405180910390a350505050565b6001600160a01b03831661057f57806002600082825461057491906107de565b909155506105f19050565b6001600160a01b038316600090815260208190526040902054818110156105d25760405163391434e360e21b81526001600160a01b03851660048201526024810182905260448101839052606401610396565b6001600160a01b03841660009081526020819052604090209082900390555b6001600160a01b03821661060d5760028054829003905561062c565b6001600160a01b03821660009081526020819052604090208054820190555b816001600160a01b0316836001600160a01b03167fddf252ad1be2c89b69c2b068fc378daa952ba7f163c4a11628f55a4df523b3ef8360405161067191815260200190565b60405180910390a3505050565b602081526000825180602084015260005b818110156106ac576020818601810151604086840101520161068f565b506000604082850101526040601f19601f83011684010191505092915050565b80356001600160a01b03811681146106e357600080fd5b919050565b600080604083850312156106fb57600080fd5b610704836106cc565b946020939093013593505050565b60008060006060848603121561072757600080fd5b610730846106cc565b925061073e602085016106cc565b929592945050506040919091013590565b60006020828403121561076157600080fd5b61076a826106cc565b9392505050565b6000806040838503121561078457600080fd5b61078d836106cc565b915061079b602084016106cc565b90509250929050565b600181811c908216806107b857607f821691505b6020821081036107d857634e487b7160e01b600052602260045260246000fd5b50919050565b808201808211156102bf57634e487b7160e01b600052601160045260246000fdfea264697066735822122076005d2a053269700a191b18aebd475271f6f123c716cc803742951cee7ec6ad64736f6c634300081b0033",
  "linkReferences": {},
  "deployedLinkReferences": {}
}