{
  "_format": "hh-sol-artifact-1",
  "contractName": "OBEscrow",
  "sourceName": "contracts/Escrow.sol",
  "abi": [
    {
      "inputs": [
        {
          "internalType": "address",
          "name": "_paymentToken",
          "type": "address"
        }
      ],
      "stateMutability": "nonpayable",
      "type": "constructor"
    },
    {
      "inputs": [
        {
          "internalType": "uint256",
          "name": "_amount",
          "type": "uint256"
        },
        {
          "internalType": "uint256",
          "name": "_commitment",
          "type": "uint256"
        }
      ],
      "name": "deposit",
      "outputs": [],
      "stateMutability": "nonpayable",
      "type": "function"
    },
    {
      "inputs": [
        {
          "internalType": "address",
          "name": "",
          "type": "address"
        }
      ],
      "name": "escrowData",
      "outputs": [
        {
          "internalType": "uint256",
          "name": "amount",
          "type": "uint256"
        },
        {
          "internalType": "uint256",
          "name": "commitment",
          "type": "uint256"
        }
      ],
      "stateMutability": "view",
      "type": "function"
    },
    {
      "inputs": [],
      "name": "paymentToken",
      "outputs": [
        {
          "internalType": "address",
          "name": "",
          "type": "address"
        }
      ],
      "stateMutability": "view",
      "type": "function"
    },
    {
      "inputs": [],
      "name": "verifier",
      "outputs": [
        {
          "internalType": "contract HonkVerifier",
          "name": "",
          "type": "address"
        }
      ],
      "stateMutability": "view",
      "type": "function"
    },
    {
      "inputs": [
        {
          "internalType": "bytes",
          "name": "_proof",
          "type": "bytes"
        },
        {
          "internalType": "bytes32[]",
          "name": "_publicInputs",
          "type": "bytes32[]"
        }
      ],
      "name": "verifyTest",
      "outputs": [
        {
          "internalType": "bool",
          "name": "",
          "type": "bool"
        }
      ],
      "stateMutability": "view",
      "type": "function"
    },
    {
      "inputs": [
        {
          "internalType": "bytes",
          "name": "_proof",
          "type": "bytes"
        },
        {
          "internalType": "uint256",
          "name": "_amount",
          "type": "uint256"
        },
        {
          "internalType": "uint256",
          "name": "_commitment",
          "type": "uint256"
        },
        {
          "internalType": "address",
          "name": "_from",
          "type": "address"
        }
      ],
      "name": "withdraw",
      "outputs": [],
      "stateMutability": "nonpayable",
      "type": "function"
    }
  ],
  "bytecode": "0x6080604052604051610010906100e1565b604051809103906000f08015801561002c573d6000803e3d6000fd5b506000806101000a81548173ffffffffffffffffffffffffffffffffffffffff021916908373ffffffffffffffffffffffffffffffffffffffff16021790555034801561007857600080fd5b50604051619058380380619058833981810160405281019061009a9190610151565b80600160006101000a81548173ffffffffffffffffffffffffffffffffffffffff021916908373ffffffffffffffffffffffffffffffffffffffff1602179055505061017e565b617d9b806112bd83390190565b600080fd5b600073ffffffffffffffffffffffffffffffffffffffff82169050919050565b600061011e826100f3565b9050919050565b61012e81610113565b811461013957600080fd5b50565b60008151905061014b81610125565b92915050565b600060208284031215610167576101666100ee565b5b60006101758482850161013c565b91505092915050565b6111308061018d6000396000f3fe608060405234801561001057600080fd5b50600436106100625760003560e01c80632b7ac3f3146100675780633013ce29146100855780634c674934146100a357806372236b82146100bf578063b12a2c54146100f0578063e2bbb15814610120575b600080fd5b61006f61013c565b60405161007c91906107b9565b60405180910390f35b61008d610160565b60405161009a91906107f5565b60405180910390f35b6100bd60048036038101906100b891906108e1565b610186565b005b6100d960048036038101906100d49190610969565b6104cc565b6040516100e79291906109a5565b60405180910390f35b61010a60048036038101906101059190610a24565b6104f0565b6040516101179190610ac0565b60405180910390f35b61013a60048036038101906101359190610adb565b61059d565b005b60008054906101000a900473ffffffffffffffffffffffffffffffffffffffff1681565b600160009054906101000a900473ffffffffffffffffffffffffffffffffffffffff1681565b6000600267ffffffffffffffff8111156101a3576101a2610b1b565b5b6040519080825280602002602001820160405280156101d15781602001602082028036833780820191505090505b5090508260001b816000815181106101ec576101eb610b4a565b5b6020026020010181815250508360001b816001815181106102105761020f610b4a565b5b60200260200101818152505060008054906101000a900473ffffffffffffffffffffffffffffffffffffffff1673ffffffffffffffffffffffffffffffffffffffff1663ea50d0e48787846040518463ffffffff1660e01b815260040161027993929190610c9f565b602060405180830381865afa158015610296573d6000803e3d6000fd5b505050506040513d601f19601f820116820180604052508101906102ba9190610d04565b6102f9576040517f08c379a00000000000000000000000000000000000000000000000000000000081526004016102f090610d8e565b60405180910390fd5b6000600260008473ffffffffffffffffffffffffffffffffffffffff1673ffffffffffffffffffffffffffffffffffffffff16815260200190815260200160002090508481600001541015610383576040517f08c379a000000000000000000000000000000000000000000000000000000000815260040161037a90610dfa565b60405180910390fd5b838160010154146103c9576040517f08c379a00000000000000000000000000000000000000000000000000000000081526004016103c090610e66565b60405180910390fd5b848160000160008282546103dd9190610eb5565b92505081905550600160009054906101000a900473ffffffffffffffffffffffffffffffffffffffff1673ffffffffffffffffffffffffffffffffffffffff1663a9059cbb33876040518363ffffffff1660e01b8152600401610441929190610ee9565b6020604051808303816000875af1158015610460573d6000803e3d6000fd5b505050506040513d601f19601f820116820180604052508101906104849190610d04565b6104c3576040517f08c379a00000000000000000000000000000000000000000000000000000000081526004016104ba90610f5e565b60405180910390fd5b50505050505050565b60026020528060005260406000206000915090508060000154908060010154905082565b60008060009054906101000a900473ffffffffffffffffffffffffffffffffffffffff1673ffffffffffffffffffffffffffffffffffffffff1663ea50d0e4868686866040518563ffffffff1660e01b81526004016105529493929190610fe8565b602060405180830381865afa15801561056f573d6000803e3d6000fd5b505050506040513d601f19601f820116820180604052508101906105939190610d04565b9050949350505050565b600082116105e0576040517f08c379a00000000000000000000000000000000000000000000000000000000081526004016105d79061106f565b60405180910390fd5b600160009054906101000a900473ffffffffffffffffffffffffffffffffffffffff1673ffffffffffffffffffffffffffffffffffffffff166323b872dd3330856040518463ffffffff1660e01b815260040161063f9392919061108f565b6020604051808303816000875af115801561065e573d6000803e3d6000fd5b505050506040513d601f19601f820116820180604052508101906106829190610d04565b6106c1576040517f08c379a00000000000000000000000000000000000000000000000000000000081526004016106b890610f5e565b60405180910390fd5b6000600260003373ffffffffffffffffffffffffffffffffffffffff1673ffffffffffffffffffffffffffffffffffffffff1681526020019081526020016000209050600081600101540361071a578181600101819055505b8281600001600082825461072e91906110c6565b92505081905550505050565b600073ffffffffffffffffffffffffffffffffffffffff82169050919050565b6000819050919050565b600061077f61077a6107758461073a565b61075a565b61073a565b9050919050565b600061079182610764565b9050919050565b60006107a382610786565b9050919050565b6107b381610798565b82525050565b60006020820190506107ce60008301846107aa565b92915050565b60006107df8261073a565b9050919050565b6107ef816107d4565b82525050565b600060208201905061080a60008301846107e6565b92915050565b600080fd5b600080fd5b600080fd5b600080fd5b600080fd5b60008083601f84011261083f5761083e61081a565b5b8235905067ffffffffffffffff81111561085c5761085b61081f565b5b60208301915083600182028301111561087857610877610824565b5b9250929050565b6000819050919050565b6108928161087f565b811461089d57600080fd5b50565b6000813590506108af81610889565b92915050565b6108be816107d4565b81146108c957600080fd5b50565b6000813590506108db816108b5565b92915050565b6000806000806000608086880312156108fd576108fc610810565b5b600086013567ffffffffffffffff81111561091b5761091a610815565b5b61092788828901610829565b9550955050602061093a888289016108a0565b935050604061094b888289016108a0565b925050606061095c888289016108cc565b9150509295509295909350565b60006020828403121561097f5761097e610810565b5b600061098d848285016108cc565b91505092915050565b61099f8161087f565b82525050565b60006040820190506109ba6000830185610996565b6109c76020830184610996565b9392505050565b60008083601f8401126109e4576109e361081a565b5b8235905067ffffffffffffffff811115610a0157610a0061081f565b5b602083019150836020820283011115610a1d57610a1c610824565b5b9250929050565b60008060008060408587031215610a3e57610a3d610810565b5b600085013567ffffffffffffffff811115610a5c57610a5b610815565b5b610a6887828801610829565b9450945050602085013567ffffffffffffffff811115610a8b57610a8a610815565b5b610a97878288016109ce565b925092505092959194509250565b60008115159050919050565b610aba81610aa5565b82525050565b6000602082019050610ad56000830184610ab1565b92915050565b60008060408385031215610af257610af1610810565b5b6000610b00858286016108a0565b9250506020610b11858286016108a0565b9150509250929050565b7f4e487b7100000000000000000000000000000000000000000000000000000000600052604160045260246000fd5b7f4e487b7100000000000000000000000000000000000000000000000000000000600052603260045260246000fd5b600082825260208201905092915050565b82818337600083830152505050565b6000601f19601f8301169050919050565b6000610bb68385610b79565b9350610bc3838584610b8a565b610bcc83610b99565b840190509392505050565b600081519050919050565b600082825260208201905092915050565b6000819050602082019050919050565b6000819050919050565b610c1681610c03565b82525050565b6000610c288383610c0d565b60208301905092915050565b6000602082019050919050565b6000610c4c82610bd7565b610c568185610be2565b9350610c6183610bf3565b8060005b83811015610c92578151610c798882610c1c565b9750610c8483610c34565b925050600181019050610c65565b5085935050505092915050565b60006040820190508181036000830152610cba818587610baa565b90508181036020830152610cce8184610c41565b9050949350505050565b610ce181610aa5565b8114610cec57600080fd5b50565b600081519050610cfe81610cd8565b92915050565b600060208284031215610d1a57610d19610810565b5b6000610d2884828501610cef565b91505092915050565b600082825260208201905092915050565b7f496e76616c69642070726f6f6600000000000000000000000000000000000000600082015250565b6000610d78600d83610d31565b9150610d8382610d42565b602082019050919050565b60006020820190508181036000830152610da781610d6b565b9050919050565b7f496e73756666696369656e742062616c616e6365000000000000000000000000600082015250565b6000610de4601483610d31565b9150610def82610dae565b602082019050919050565b60006020820190508181036000830152610e1381610dd7565b9050919050565b7f496e76616c696420726563697069656e7420636f6d6d69746d656e7400000000600082015250565b6000610e50601c83610d31565b9150610e5b82610e1a565b602082019050919050565b60006020820190508181036000830152610e7f81610e43565b9050919050565b7f4e487b7100000000000000000000000000000000000000000000000000000000600052601160045260246000fd5b6000610ec08261087f565b9150610ecb8361087f565b9250828203905081811115610ee357610ee2610e86565b5b92915050565b6000604082019050610efe60008301856107e6565b610f0b6020830184610996565b9392505050565b7f546f6b656e207472616e73666572206661696c65640000000000000000000000600082015250565b6000610f48601583610d31565b9150610f5382610f12565b602082019050919050565b60006020820190508181036000830152610f7781610f3b565b9050919050565b600080fd5b82818337505050565b6000610f988385610be2565b93507f07ffffffffffffffffffffffffffffffffffffffffffffffffffffffffffffff831115610fcb57610fca610f7e565b5b602083029250610fdc838584610f83565b82840190509392505050565b60006040820190508181036000830152611003818688610baa565b90508181036020830152611018818486610f8c565b905095945050505050565b7f416d6f756e74206d7573742062652067726561746572207468616e207a65726f600082015250565b6000611059602083610d31565b915061106482611023565b602082019050919050565b600060208201905081810360008301526110888161104c565b9050919050565b60006060820190506110a460008301866107e6565b6110b160208301856107e6565b6110be6040830184610996565b949350505050565b60006110d18261087f565b91506110dc8361087f565b92508282019050808211156110f4576110f3610e86565b5b9291505056fea2646970667358221220b58c3eb2110d5a65c728f92ba5fae0b45377de275a0d5aedd814ef4a3487792664736f6c634300081c00336080604052348015600f57600080fd5b50617d7c8061001f6000396000f3fe608060405234801561001057600080fd5b506004361061002b5760003560e01c8063ea50d0e414610030575b600080fd5b61004a600480360381019061004591906171c7565b610060565b6040516100579190617263565b60405180910390f35b60008061006b6101db565b9050600061007987876101f0565b9050816040015185859050146100bb576040517ffa06659300000000000000000000000000000000000000000000000000000000815260040160405180910390fd5b60006100cd8287878660400151610e1d565b905061012d868680806020026020016040519081016040528093929190818152602001838360200280828437600081840152601f19601f820116905080830192505050505050508260600151836080015186600001518660400151610f1c565b816101800181815250506000610143838361101b565b90508061017c576040517f9fc3a21800000000000000000000000000000000000000000000000000000000815260040160405180910390fd5b6000610189848685611103565b9050806101c2576040517fa5d82e8a00000000000000000000000000000000000000000000000000000000815260040160405180910390fd5b8180156101cc5750805b95505050505050949350505050565b6101e3616989565b6101eb611d7a565b905090565b6101f8616b0a565b610200616b0a565b838360009060209261021493929190617288565b9061021f91906172e5565b60001c816000018181525050838360209060409261023f93929190617288565b9061024a91906172e5565b60001c816020018181525050838360409060609261026a93929190617288565b9061027591906172e5565b60001c816040018181525050604051806080016040528085856060906080926102a093929190617288565b906102ab91906172e5565b60001c8152602001858560809060a0926102c793929190617288565b906102d291906172e5565b60001c8152602001858560a09060c0926102ee93929190617288565b906102f991906172e5565b60001c8152602001858560c09060e09261031593929190617288565b9061032091906172e5565b60001c81525081606001819052506040518060800160405280858560e0906101009261034e93929190617288565b9061035991906172e5565b60001c81526020018585610100906101209261037793929190617288565b9061038291906172e5565b60001c8152602001858561012090610140926103a093929190617288565b906103ab91906172e5565b60001c8152602001858561014090610160926103c993929190617288565b906103d491906172e5565b60001c815250816080018190525060405180608001604052808585610160906101809261040393929190617288565b9061040e91906172e5565b60001c81526020018585610180906101a09261042c93929190617288565b9061043791906172e5565b60001c815260200185856101a0906101c09261045593929190617288565b9061046091906172e5565b60001c815260200185856101c0906101e09261047e93929190617288565b9061048991906172e5565b60001c8152508160a00181905250604051806080016040528085856101e090610200926104b893929190617288565b906104c391906172e5565b60001c8152602001858561020090610220926104e193929190617288565b906104ec91906172e5565b60001c81526020018585610220906102409261050a93929190617288565b9061051591906172e5565b60001c81526020018585610240906102609261053393929190617288565b9061053e91906172e5565b60001c81525081610100018190525060405180608001604052808585610260906102809261056e93929190617288565b9061057991906172e5565b60001c81526020018585610280906102a09261059793929190617288565b906105a291906172e5565b60001c815260200185856102a0906102c0926105c093929190617288565b906105cb91906172e5565b60001c815260200185856102c0906102e0926105e993929190617288565b906105f491906172e5565b60001c815250816101200181905250604051806080016040528085856102e0906103009261062493929190617288565b9061062f91906172e5565b60001c81526020018585610300906103209261064d93929190617288565b9061065891906172e5565b60001c81526020018585610320906103409261067693929190617288565b9061068191906172e5565b60001c81526020018585610340906103609261069f93929190617288565b906106aa91906172e5565b60001c8152508160c001819052506040518060800160405280858561036090610380926106d993929190617288565b906106e491906172e5565b60001c81526020018585610380906103a09261070293929190617288565b9061070d91906172e5565b60001c815260200185856103a0906103c09261072b93929190617288565b9061073691906172e5565b60001c815260200185856103c0906103e09261075493929190617288565b9061075f91906172e5565b60001c815250816101400181905250604051806080016040528085856103e0906104009261078f93929190617288565b9061079a91906172e5565b60001c8152602001858561040090610420926107b893929190617288565b906107c391906172e5565b60001c8152602001858561042090610440926107e193929190617288565b906107ec91906172e5565b60001c81526020018585610440906104609261080a93929190617288565b9061081591906172e5565b60001c8152508160e001819052506000610460905060005b601c8110156109125760006008602083610847919061737d565b610851919061737d565b8361085c91906173bf565b905060005b6008811015610903576000602082610879919061737d565b8361088491906173bf565b9050600060208261089591906173bf565b90506108bc8a8a849084926108ac93929190617288565b906108b791906172e5565b6126ed565b87610160015186601c81106108d4576108d36173f3565b5b602002015184600881106108eb576108ea6173f3565b5b60200201818152505050508080600101915050610861565b5050808060010191505061082d565b5060206008601c610923919061737d565b61092d919061737d565b8161093891906173bf565b905060005b602c8110156109c8576000602082610955919061737d565b8361096091906173bf565b9050600060208261097191906173bf565b905061099888888490849261098893929190617288565b9061099391906172e5565b6126ed565b85610180015184602c81106109b0576109af6173f3565b5b6020020181815250505050808060010191505061093d565b506020602c6109d7919061737d565b816109e291906173bf565b905060005b6001601c6109f59190617422565b811015610b3d576000608082610a0b919061737d565b83610a1691906173bf565b90506000602082610a2791906173bf565b905060008190506000602082610a3d91906173bf565b905060008190506000602082610a5391906173bf565b905060008190506000602082610a6991906173bf565b905060405180608001604052808f8f8b908b92610a8893929190617288565b90610a9391906172e5565b60001c81526020018f8f89908992610aad93929190617288565b90610ab891906172e5565b60001c81526020018f8f87908792610ad293929190617288565b90610add91906172e5565b60001c81526020018f8f85908592610af793929190617288565b90610b0291906172e5565b60001c8152508b6101a001518a601b8110610b2057610b1f6173f3565b5b6020020181905250505050505050505080806001019150506109e7565b5060806001601c610b4e9190617422565b610b58919061737d565b81610b6391906173bf565b905060005b601c811015610bf3576000602082610b80919061737d565b83610b8b91906173bf565b90506000602082610b9c91906173bf565b9050610bc3888884908492610bb393929190617288565b90610bbe91906172e5565b6126ed565b856101c0015184601c8110610bdb57610bda6173f3565b5b60200201818152505050508080600101915050610b68565b506020601c610c02919061737d565b81610c0d91906173bf565b9050604051806080016040528086868490602086610c2b91906173bf565b92610c3893929190617288565b90610c4391906172e5565b60001c81526020018686602085610c5a91906173bf565b90604086610c6891906173bf565b92610c7593929190617288565b90610c8091906172e5565b60001c81526020018686604085610c9791906173bf565b90606086610ca591906173bf565b92610cb293929190617288565b90610cbd91906172e5565b60001c81526020018686606085610cd491906173bf565b90608086610ce291906173bf565b92610cef93929190617288565b90610cfa91906172e5565b60001c815250826101e00181905250608081610d1691906173bf565b9050604051806080016040528086868490602086610d3491906173bf565b92610d4193929190617288565b90610d4c91906172e5565b60001c81526020018686602085610d6391906173bf565b90604086610d7191906173bf565b92610d7e93929190617288565b90610d8991906172e5565b60001c81526020018686604085610da091906173bf565b90606086610dae91906173bf565b92610dbb93929190617288565b90610dc691906172e5565b60001c81526020018686606085610ddd91906173bf565b90608086610deb91906173bf565b92610df893929190617288565b90610e0391906172e5565b60001c815250826102000181905250819250505092915050565b610e25616be2565b6000610e3386868686612725565b85600001866020018760400183975084815250848152508481525050505050610e5c8187612c11565b84606001856080018295508381525083815250505050610e7c8187612e82565b8360a0018193508290525050610e91816131a6565b8360c0018193508290525050610ea78682613232565b8360e0018193508290525050610ebd868261335d565b8361010001819350828152505050610ed58682613432565b8361012001819350828152505050610eed8682613622565b8361014001819350828152505050610f0586826136f7565b836101600181935082815250505050949350505050565b600080600190506000600190506000610f5187610f4c8a610f47898b610f4291906173bf565b613809565b61383e565b61387a565b90506000610f7c88610f778b610f7260018b610f6d91906173bf565b613809565b61383e565b6138b6565b905060005b6001811015611001576000610faf8c8381518110610fa257610fa16173f3565b5b60200260200101516126ed565b9050610fc486610fbf868461387a565b61383e565b9550610fd985610fd4858461387a565b61383e565b9450610fe5848c61387a565b9350610ff1838c6138b6565b9250508080600101915050610f81565b5061100c848461391d565b94505050505095945050505050565b60008060006001905060005b60128110156110de57600086610160015182601c811061104a576110496173f3565b5b60200201519050600061105d8286613939565b905080611096576040517f9fc3a21800000000000000000000000000000000000000000000000000000000815260040160405180910390fd5b60008760e0015184601c81106110af576110ae6173f3565b5b602002015190506110c0838261398b565b95506110ce88868387613bd4565b9450505050806001019050611027565b5060006110ec868684613c27565b90506110f88184613cae565b935050505092915050565b600061110d616c5c565b600061111d846101200151613cbb565b9050611127616c8b565b61112f616cae565b600061113b8785613d4a565b9050611185816000601d8110611154576111536173f3565b5b6020020151611180896101400151846001601d8110611176576111756173f3565b5b602002015161383e565b61387a565b8560000181815250506111ec61119f886101200151613e2e565b6111e7836000601d81106111b6576111b56173f3565b5b60200201516111e28b6101400151866001601d81106111d8576111d76173f3565b5b602002015161383e565b6138b6565b61383e565b8560200181815250506001836000604a811061120b5761120a6173f3565b5b602002018181525050611222896101e00151613ec5565b826000604a8110611236576112356173f3565b5b6020020181905250600185606001818152505060008560800181815250506000600190505b602381116113125761127d6112738760000151613f05565b876060015161383e565b8482604a81106112905761128f6173f3565b5b6020020181815250506112dc86608001516112d78c61018001516001856112b79190617422565b602c81106112c8576112c76173f3565b5b6020020151896060015161383e565b61387a565b8660800181815250506112f8866060015189610100015161383e565b8660600181815250508061130b90617456565b905061125b565b5060006001602361132391906173bf565b90505b602c81116113dd5761134861133e8760200151613f05565b876060015161383e565b8482604a811061135b5761135a6173f3565b5b6020020181815250506113a786608001516113a28c61018001516001856113829190617422565b602c8110611393576113926173f3565b5b6020020151896060015161383e565b61387a565b8660800181815250506113c3866060015189610100015161383e565b866060018181525050806113d690617456565b9050611326565b508760600151826001604a81106113f7576113f66173f3565b5b60200201819052508760800151826002604a8110611418576114176173f3565b5b60200201819052508760a00151826003604a8110611439576114386173f3565b5b60200201819052508760c00151826004604a811061145a576114596173f3565b5b60200201819052508760e00151826005604a811061147b5761147a6173f3565b5b6020020181905250876101000151826006604a811061149d5761149c6173f3565b5b6020020181905250876101200151826007604a81106114bf576114be6173f3565b5b6020020181905250876101400151826008604a81106114e1576114e06173f3565b5b6020020181905250876101800151826009604a8110611503576115026173f3565b5b602002018190525087610160015182600a604a8110611525576115246173f3565b5b6020020181905250876101a0015182600b604a8110611547576115466173f3565b5b6020020181905250876101c0015182600c604a8110611569576115686173f3565b5b6020020181905250876101e0015182600d604a811061158b5761158a6173f3565b5b602002018190525087610200015182600e604a81106115ad576115ac6173f3565b5b602002018190525087610220015182600f604a81106115cf576115ce6173f3565b5b6020020181905250876102400151826010604a81106115f1576115f06173f3565b5b6020020181905250876102600151826011604a8110611613576116126173f3565b5b6020020181905250876102800151826012604a8110611635576116346173f3565b5b6020020181905250876102a00151826013604a8110611657576116566173f3565b5b6020020181905250876102c00151826014604a8110611679576116786173f3565b5b6020020181905250876102e00151826015604a811061169b5761169a6173f3565b5b6020020181905250876103000151826016604a81106116bd576116bc6173f3565b5b6020020181905250876103200151826017604a81106116df576116de6173f3565b5b6020020181905250876103400151826018604a8110611701576117006173f3565b5b6020020181905250876103600151826019604a8110611723576117226173f3565b5b602002018190525087610380015182601a604a8110611745576117446173f3565b5b6020020181905250876103a0015182601b604a8110611767576117666173f3565b5b602002018190525061177c8960600151613ec5565b82601c604a81106117905761178f6173f3565b5b60200201819052506117a58960800151613ec5565b82601d604a81106117b9576117b86173f3565b5b60200201819052506117ce8960a00151613ec5565b82601e604a81106117e2576117e16173f3565b5b60200201819052506117f78960c00151613ec5565b82601f604a811061180b5761180a6173f3565b5b60200201819052506118208960e00151613ec5565b826020604a8110611834576118336173f3565b5b602002018190525061184a896101400151613ec5565b826021604a811061185e5761185d6173f3565b5b6020020181905250611874896101000151613ec5565b826022604a8110611888576118876173f3565b5b602002018190525061189e896101200151613ec5565b826023604a81106118b2576118b16173f3565b5b6020020181905250876103000151826024604a81106118d4576118d36173f3565b5b6020020181905250876103200151826025604a81106118f6576118f56173f3565b5b6020020181905250876103400151826026604a8110611918576119176173f3565b5b6020020181905250876103600151826027604a811061193a576119396173f3565b5b602002018190525061194f8960600151613ec5565b826028604a8110611963576119626173f3565b5b60200201819052506119788960800151613ec5565b826029604a811061198c5761198b6173f3565b5b60200201819052506119a18960a00151613ec5565b82602a604a81106119b5576119b46173f3565b5b60200201819052506119ca8960c00151613ec5565b82602b604a81106119de576119dd6173f3565b5b60200201819052506119f38960e00151613ec5565b82602c604a8110611a0757611a066173f3565b5b60200201819052506000856040018181525050611a28876101400151613f3a565b85606001818152505060005b6001601c611a429190617422565b811015611b9f57600060016012611a599190617422565b8210159050600081611ad657611a96886060015185600286611a7b91906173bf565b601d8110611a8c57611a8b6173f3565b5b602002015161383e565b9050611aa181613f05565b86846001602c611ab191906173bf565b611abb91906173bf565b604a8110611acc57611acb6173f3565b5b6020020181815250505b611b158860400151611b10838f6101c00151600188611af591906173bf565b601c8110611b0657611b056173f3565b5b602002015161383e565b61387a565b886040018181525050611b3188606001518b610140015161383e565b886060018181525050611b5f8c6101a0015184601b8110611b5557611b546173f3565b5b6020020151613ec5565b85846001602c611b6f91906173bf565b611b7991906173bf565b604a8110611b8a57611b896173f3565b5b60200201819052505050806001019050611a34565b506000611bb78887608001518c6101c0015188613f4d565b9050611be88660400151611be383856000601d8110611bd957611bd86173f3565b5b602002015161383e565b61387a565b866040018181525050611c4b8660400151611c46611c288d6101c001516000601c8110611c1857611c176173f3565b5b60200201518c610140015161383e565b856001601d8110611c3c57611c3b6173f3565b5b602002015161383e565b61387a565b866040018181525050604051806040016040528060018152602001600281525083601c602c611c7a91906173bf565b604a8110611c8b57611c8a6173f3565b5b6020020181905250856040015184601c602c611ca791906173bf565b604a8110611cb857611cb76173f3565b5b6020020181815250506000611cd18b6102000151613ec5565b905080846001601c602c611ce591906173bf565b611cef91906173bf565b604a8110611d0057611cff6173f3565b5b6020020181905250886101600151856001601c602c611d1f91906173bf565b611d2991906173bf565b604a8110611d3a57611d396173f3565b5b6020020181815250506000611d4f8587614083565b90506000611d5c83614150565b9050611d6882826141c4565b99505050505050505050509392505050565b611d82616989565b6000604051806103c00160405280620400008152602001601281526020016001815260200160405180604001604052807f2440abac72f98394c35664bea6047adf6a40735624c5958d550d857fc5a729dd81526020017f21279552df927ccd8198a544375c026a11b83fd878721fbfe3424d4065e1a0d6815250815260200160405180604001604052807f1936910be74825b9cda7c6cfc6ed13985edf7ce902efc5a5f1f02867abcb787c81526020017f08111d8c2bf4cd23d1b4ea067851c96ebc42026708372215902bccead697af75815250815260200160405180604001604052807f1372f33997f3c9868c8b1407d29181ab51a1c23550e77d14e2891352cd29feb581526020017f0bf35790f81533b5260ed60a0a2767d520c0f7e5bf24e94c025518b1ec832e9d815250815260200160405180604001604052807f18859e7abddc5963e090bcd411de1f311cbf23c3074a2b6f08dbb7d99484bedb81526020017f011a37f87b386a12a8baf952397cf5a73769ebee70dd46dd6b550ac9383f5ff3815250815260200160405180604001604052807f1d2c1bb1d6559b5293e8629bc427474efac42aea16a03c189ad76521ea4f228481526020017f1279b2ca670ea2de771eba3fd057d959446931616389345e3af53bdc3979dc9d815250815260200160405180604001604052807f014ef49b532b02a1924875cb34d2ae21e4b4f9c2bf67799f98d4ec28e8ee56b981526020017f169865b557618583457144735905f9bcc54c6e4f3f8732868c000aacea31586c815250815260200160405180604001604052807f2a06feea599bd4e5e74c5f28cc3400093ebcb579ea37ab677c691b4bbf89732381526020017e1167f3e1f222e6bac9710d40dd440f5d6111d24affc0591a9c5044e58a8bc6815250815260200160405180604001604052807f1d664c1a1071a2b99c50086d0b9abcea0735400afbdc246659e3117394a9ac3b81526020017f301d21aa2cab1eccadc97552a98795edb6c0a4f41acb396a7fa29bbf4c88ca55815250815260200160405180604001604052807f1b9e4ab7330f10aae4de806b1a16f618d1797369102286cc1d6f5312e204aab281526020017f0b3fefc5fa1420710d0fa96cf2c4cb5ff3070ab39937063e1037e32fa799d118815250815260200160405180604001604052807f2e7a2b60e4056e7e205817f3a6fc0e3b2da86e6820997074c90400f76598859c81526020017f08af47d2d72ea36780c352f219fa426353819250c6b96c1ced033649f87c393e815250815260200160405180604001604052807f043a7afe36334e6b70f93569c1a5fdd2411a0d81817b8e5676bd504f2b731a2d81526020017f2b2aa5736b59de44480b8e476b01d896b2c0b01c9ba682d6cf35497ade662840815250815260200160405180604001604052807f11a23114db5a2c93694759de70f0c15d038d91d483d733f7dfb996a6cae24edf81526020017f25d95ececc12ec37107ae134690d5b5edd0059f4cb70befe2bbba7cb9cc952fc815250815260200160405180604001604052807f199b66bcdbf44116a2657dd4b13f148a4c1f353e1a73005c5d1376a0847b503f81526020017f0dfcd53b8bffff4f4b5a743083fc77576c0890fc50cdf6cd1062edeeec0cb71a815250815260200160405180604001604052807f21cb8f08b23b4490f924b6a60706c0b3ff7727fc0052e9649aec2e5c0a5ada7381526020017f179c27198aae89092916517deee898108ce4637f2539ea2a409933cdd969634f815250815260200160405180604001604052807f130b82dd81eb3d7ed1dee71a2c3629dd2ac5129d3e87faeff026348f995ce2f381526020017f13e5885ab6314d43deb17738dda747ead8344706b24cc708a1571afb4b639c1d815250815260200160405180604001604052807f1aab4ed62aa275a5edb98240cd77e5b1b18ddb46f98082438e7604a80cf1462781526020017f13d4f041dedc94942529847a85253d7edf5d15acd19e23510e0bb44a93a49076815250815260200160405180604001604052807f255358708fd3d2237599ff4931d0345f64adf1921ec76e2e2ab9cbcb83d0aef581526020017f1e6609e9557b57407df8569ea6bbc93bf969ae35f432749398d2b21ef0e489d3815250815260200160405180604001604052807f2432edeee66b67f039a39d9246432543552e36cef5d10b974dd6ed19cf21ce5281526020017f04bde8c7777f42f1889eb647dd5c8acc1d69b76451367b1b72c2ba1f2b5c0e30815250815260200160405180604001604052807f2c147d501f73b3779f6751c8e330bb720919ad4d694f16d2348b4d092b07e78981526020017f0d2f25b54763ed3a681fcfad54cae1175cd6c3e625fc9152c5badd1f213b96db815250815260200160405180604001604052807f1992167d72cf4cde6d2cb046b78af684b898c697369034146a50b7451cc0bcd481526020017f2e31516e420550401ff16a061a720dab6fffb99c22ca2d504e4bc2c0aec6afe1815250815260200160405180604001604052807f2378566a867b2c4a9eb80669f6a2b8dbb0e4f71caea432ac1ede70e807ce52d681526020017f1b087938498411cda9425ac52ff3c407e9358be64c9cc09f7423748c55ebc422815250815260200160405180604001604052807f151ed523cfcec4952f91caf594be159dd1cd9f7a36129c6820e8cdada90808ed81526020017f2d50eec18dcc7819ab7dba531573c8fba9a5e21aaf06e6c6d637aaae72f02e3a815250815260200160405180604001604052807f2894e1eedd54e60f3981a1496e0b314b46071ba34a724776d6f71c6a19c2e65481526020017f172b9354d30fc85e03cc7c359fef280d5186b117182cbaca082ec8f5cca20ab9815250815260200160405180604001604052807f0ff23139f423bc5504d843f69fa7563935a81a0dbe3c08de6675a27c6df99a3881526020017f0a48dff44f8af0e150dce9731196a9b981fc2c81064109561567007200606e9d815250815260200160405180604001604052807f1ea2387f72e46131b26cddc9fb3f94da435bb9d49b91aa41f6ed398cd2f704a581526020017f067787a509a9d2fc45e9e30075da18e28f58079c5e35842a4207b434cb8bfb6881525081526020016040518060400160405280600181526020016002815250815260200160405180604001604052807f299e521aeaf9d912fdf26b9e82cd6b2afab83c04522736c587a08c290e3aff2481526020017f2c30e3714a22ab963eb1587b5266fd1f5cdc782491dd8985755c7b73bd222c4f81525081525090508091505090565b60007f30644e72e131a029b85045b68181585d2833e84879b9709143e1f593f00000018260001c61271e91906174cd565b9050919050565b6000806000806000600c86600361273c91906173bf565b61274691906173bf565b67ffffffffffffffff81111561275f5761275e6174fe565b5b60405190808252806020026020018201604052801561278d5781602001602082028036833780820191505090505b509050886000015160001b816000815181106127ac576127ab6173f3565b5b602002602001018181525050886020015160001b816001815181106127d4576127d36173f3565b5b602002602001018181525050886040015160001b816002815181106127fc576127fb6173f3565b5b60200260200101818152505060005b8681101561286557888882818110612826576128256173f3565b5b905060200201358282600361283b91906173bf565b8151811061284c5761284b6173f3565b5b602002602001018181525050808060010191505061280b565b5088606001516000015160001b8187600361288091906173bf565b81518110612891576128906173f3565b5b60200260200101818152505088606001516020015160001b8160018860036128b991906173bf565b6128c391906173bf565b815181106128d4576128d36173f3565b5b60200260200101818152505088606001516040015160001b8160028860036128fc91906173bf565b61290691906173bf565b81518110612917576129166173f3565b5b60200260200101818152505088606001516060015160001b81600388600361293f91906173bf565b61294991906173bf565b8151811061295a576129596173f3565b5b60200260200101818152505088608001516000015160001b81600488600361298291906173bf565b61298c91906173bf565b8151811061299d5761299c6173f3565b5b60200260200101818152505088608001516020015160001b8160058860036129c591906173bf565b6129cf91906173bf565b815181106129e0576129df6173f3565b5b60200260200101818152505088608001516040015160001b816006886003612a0891906173bf565b612a1291906173bf565b81518110612a2357612a226173f3565b5b60200260200101818152505088608001516060015160001b816007886003612a4b91906173bf565b612a5591906173bf565b81518110612a6657612a656173f3565b5b6020026020010181815250508860a001516000015160001b816008886003612a8e91906173bf565b612a9891906173bf565b81518110612aa957612aa86173f3565b5b6020026020010181815250508860a001516020015160001b816009886003612ad191906173bf565b612adb91906173bf565b81518110612aec57612aeb6173f3565b5b6020026020010181815250508860a001516040015160001b81600a886003612b1491906173bf565b612b1e91906173bf565b81518110612b2f57612b2e6173f3565b5b6020026020010181815250508860a001516060015160001b81600b886003612b5791906173bf565b612b6191906173bf565b81518110612b7257612b716173f3565b5b602002602001018181525050612bad81604051602001612b9291906175e5565b604051602081830303815290604052805190602001206126ed565b9150612bb8826143ab565b8095508196505050612bef82604051602001612bd4919061761d565b604051602081830303815290604052805190602001206126ed565b91506000612bfc836143ab565b80925081955050505050945094509450949050565b6000806000612c1e616cdc565b612c27866143f7565b816000600d8110612c3b57612c3a6173f3565b5b6020020181815250508461010001516000015160001b816001600d8110612c6557612c646173f3565b5b6020020181815250508461010001516020015160001b816002600d8110612c8f57612c8e6173f3565b5b6020020181815250508461010001516040015160001b816003600d8110612cb957612cb86173f3565b5b6020020181815250508461010001516060015160001b816004600d8110612ce357612ce26173f3565b5b6020020181815250508461012001516000015160001b816005600d8110612d0d57612d0c6173f3565b5b6020020181815250508461012001516020015160001b816006600d8110612d3757612d366173f3565b5b6020020181815250508461012001516040015160001b816007600d8110612d6157612d606173f3565b5b6020020181815250508461012001516060015160001b816008600d8110612d8b57612d8a6173f3565b5b6020020181815250508460c001516000015160001b816009600d8110612db457612db36173f3565b5b6020020181815250508460c001516020015160001b81600a600d8110612ddd57612ddc6173f3565b5b6020020181815250508460c001516040015160001b81600b600d8110612e0657612e056173f3565b5b6020020181815250508460c001516060015160001b81600c600d8110612e2f57612e2e6173f3565b5b602002018181525050612e6781604051602001612e4c91906176bc565b604051602081830303815290604052805190602001206126ed565b9150612e72826143ab565b8094508195505050509250925092565b612e8a616cff565b6000612e94616d22565b8481600060098110612ea957612ea86173f3565b5b6020020181815250508361014001516000015181600160098110612ed057612ecf6173f3565b5b6020020181815250508361014001516020015181600260098110612ef757612ef66173f3565b5b6020020181815250508361014001516040015181600360098110612f1e57612f1d6173f3565b5b6020020181815250508361014001516060015181600460098110612f4557612f446173f3565b5b6020020181815250508360e001516000015181600560098110612f6b57612f6a6173f3565b5b6020020181815250508360e001516020015181600660098110612f9157612f906173f3565b5b6020020181815250508360e001516040015181600760098110612fb757612fb66173f3565b5b6020020181815250508360e001516060015181600860098110612fdd57612fdc6173f3565b5b60200201818152505061301581604051602001612ffa9190617783565b604051602081830303815290604052805190602001206126ed565b9150613020826143ab565b84600060198110613034576130336173f3565b5b602002018560016019811061304c5761304b6173f3565b5b60200201828152508281525050506000600190505b6002601961306f919061779f565b811015613119576130a58360405160200161308a919061761d565b604051602081830303815290604052805190602001206126ed565b92506130b0836143ab565b858360026130be919061737d565b601981106130cf576130ce6173f3565b5b602002018660018560026130e3919061737d565b6130ed91906173bf565b601981106130fe576130fd6173f3565b5b60200201828152508281525050508080600101915050613061565b5060018060191614801561312e575060026019115b1561319e5761316282604051602001613147919061761d565b604051602081830303815290604052805190602001206126ed565b9150600061316f836143ab565b856001601961317e9190617422565b6019811061318f5761318e6173f3565b5b60200201819350828152505050505b509250929050565b6131ae616d45565b600080600090505b601c811015613229576131ee846040516020016131d3919061761d565b604051602081830303815290604052805190602001206126ed565b935060006131fb856143ab565b8584601c811061320e5761320d6173f3565b5b602002018193508281525050505080806001019150506131b6565b50829050915091565b61323a616d45565b600080600090505b601c81101561335257613253616d68565b8481600060098110613268576132676173f3565b5b60200201818152505060005b60088110156132e65786610160015183601c8110613295576132946173f3565b5b602002015181600881106132ac576132ab6173f3565b5b6020020151826001836132bf91906173bf565b600981106132d0576132cf6173f3565b5b6020020181815250508080600101915050613274565b50613316816040516020016132fb919061789c565b604051602081830303815290604052805190602001206126ed565b94506000613323866143ab565b8685601c8110613336576133356173f3565b5b6020020181935082815250505050508080600101915050613242565b508290509250929050565b600080613368616d8b565b83816000602d811061337d5761337c6173f3565b5b60200201818152505060005b602c8110156133e45785610180015181602c81106133aa576133a96173f3565b5b6020020151826001836133bd91906173bf565b602d81106133ce576133cd6173f3565b5b6020020181815250508080600101915050613389565b50613414816040516020016133f9919061793c565b604051602081830303815290604052805190602001206126ed565b91506000613421836143ab565b809250819550505050509250929050565b60008061343d616dae565b83816000606d8110613452576134516173f3565b5b60200201818152505060005b6001601c61346c9190617422565b8110156135d457856101a0015181601b811061348b5761348a6173f3565b5b602002015160000151826004836134a2919061737d565b60016134ae91906173bf565b606d81106134bf576134be6173f3565b5b602002018181525050856101a0015181601b81106134e0576134df6173f3565b5b602002015160200151826004836134f7919061737d565b600261350391906173bf565b606d8110613514576135136173f3565b5b602002018181525050856101a0015181601b8110613535576135346173f3565b5b6020020151604001518260048361354c919061737d565b600361355891906173bf565b606d8110613569576135686173f3565b5b602002018181525050856101a0015181601b811061358a576135896173f3565b5b602002015160600151826004836135a1919061737d565b60046135ad91906173bf565b606d81106135be576135bd6173f3565b5b602002018181525050808060010191505061345e565b50613604816040516020016135e991906179dc565b604051602081830303815290604052805190602001206126ed565b91506000613611836143ab565b809250819550505050509250929050565b60008061362d616dd1565b83816000601d8110613642576136416173f3565b5b60200201818152505060005b601c8110156136a957856101c0015181601c811061366f5761366e6173f3565b5b60200201518260018361368291906173bf565b601d8110613693576136926173f3565b5b602002018181525050808060010191505061364e565b506136d9816040516020016136be9190617a7c565b604051602081830303815290604052805190602001206126ed565b915060006136e6836143ab565b809250819550505050509250929050565b600080613702616df4565b8381600060058110613717576137166173f3565b5b602002018181525050846101e00151600001518160016005811061373e5761373d6173f3565b5b602002018181525050846101e001516020015181600260058110613765576137646173f3565b5b602002018181525050846101e00151604001518160036005811061378c5761378b6173f3565b5b602002018181525050846101e0015160600151816004600581106137b3576137b26173f3565b5b6020020181815250506137eb816040516020016137d09190617b1c565b604051602081830303815290604052805190602001206126ed565b915060006137f8836143ab565b809250819550505050509250929050565b60007f30644e72e131a029b85045b68181585d2833e84879b9709143e1f593f00000018261383791906174cd565b9050919050565b60007f30644e72e131a029b85045b68181585d2833e84879b9709143e1f593f00000018061386f5761386e61749e565b5b828409905092915050565b60007f30644e72e131a029b85045b68181585d2833e84879b9709143e1f593f0000001806138ab576138aa61749e565b5b828408905092915050565b60007f30644e72e131a029b85045b68181585d2833e84879b9709143e1f593f0000001806138e7576138e661749e565b5b827f30644e72e131a029b85045b68181585d2833e84879b9709143e1f593f00000016139139190617422565b8408905092915050565b60006139318361392c84613e2e565b61383e565b905092915050565b60008061397684600060088110613953576139526173f3565b5b60200201518560016008811061396c5761396b6173f3565b5b602002015161387a565b90506139828184613cae565b91505092915050565b6000806040518061010001604052807f30644e72e131a029b85045b68181585d2833e84879b9709143e1f593efffec5181526020016102d081526020017f30644e72e131a029b85045b68181585d2833e84879b9709143e1f593efffff118152602001609081526020017f30644e72e131a029b85045b68181585d2833e84879b9709143e1f593efffff71815260200160f081526020017f30644e72e131a029b85045b68181585d2833e84879b9709143e1f593effffd3181526020016113b081525090506000604051806101000160405280600081526020016001815260200160028152602001600381526020016004815260200160058152602001600681526020016007815250905060006001905060005b6008811015613ac857613abb82613ab688846138b6565b61383e565b9150806001019050613a9f565b50613ad1616e16565b60005b6008811015613b59576000858260088110613af257613af16173f3565b5b60200201519050613b2381613b1e8a888660088110613b1457613b136173f3565b5b60200201516138b6565b61383e565b9050613b2e81613e2e565b905080838360088110613b4457613b436173f3565b5b60200201818152505050806001019050613ad4565b5060005b6008811015613bbd576000888260088110613b7b57613b7a6173f3565b5b60200201519050613ba381848460088110613b9957613b986173f3565b5b602002015161383e565b9050613baf878261387a565b965050806001019050613b5d565b50613bc8858361383e565b94505050505092915050565b600080613c106001613c0b86613c068a60c0015188601c8110613bfa57613bf96173f3565b5b602002015160016138b6565b61383e565b61387a565b9050613c1c858261383e565b915050949350505050565b6000808461018001519050613c3a616e39565b613c45828286614404565b613c5182868387614649565b613c5d82868387614946565b613c68828286614bec565b613c73828286614ec4565b613c7f82868387615311565b613c8a828286615fab565b613c9582828661646b565b613ca3818660a001516168be565b925050509392505050565b6000818314905092915050565b613cc3616d45565b81816000601c8110613cd857613cd76173f3565b5b6020020181815250506000600190505b601c811015613d4457613d1d82600183613d029190617422565b601c8110613d1357613d126173f3565b5b6020020151613f3a565b8282601c8110613d3057613d2f6173f3565b5b602002018181525050806001019050613ce8565b50919050565b613d52616e5c565b60008361016001519050613d86613d8182856000601c8110613d7757613d766173f3565b5b60200201516138b6565b613e2e565b826000601d8110613d9a57613d996173f3565b5b60200201818152505060005b601c811015613e2657600060016012613dbf91906173bf565b8211613df157613dee613de9848785601c8110613ddf57613dde6173f3565b5b602002015161387a565b613e2e565b90505b8084600184613e0091906173bf565b601d8110613e1157613e106173f3565b5b60200201818152505050806001019050613da6565b505092915050565b6000808290506000604051602081526020808201526020604082015282606082015260027f30644e72e131a029b85045b68181585d2833e84879b9709143e1f593f00000010360808201527f30644e72e131a029b85045b68181585d2833e84879b9709143e1f593f000000160a08201526020600060c08360055afa80613eb457600080fd5b600051925050508092505050919050565b613ecd616e7f565b604051806040016040528060888460200151901b846000015117815260200160888460600151901b8460400151178152509050919050565b6000817f30644e72e131a029b85045b68181585d2833e84879b9709143e1f593f0000001613f339190617422565b9050919050565b6000613f46828361383e565b9050919050565b600080601c90505b600081111561407757600083600183613f6e9190617422565b601c8110613f7f57613f7e6173f3565b5b6020020151905060008760e00151600184613f9a9190617422565b601c8110613fab57613faa6173f3565b5b60200201519050600086600185613fc29190617422565b601c8110613fd357613fd26173f3565b5b60200201519050600061401e613ff3613fec868c61383e565b600261383e565b6140198461401461400e8961400960018b6138b6565b61383e565b886138b6565b61383e565b6138b6565b905061404e8161404961404461403e8861403960018a6138b6565b61383e565b8761387a565b613e2e565b61383e565b9050600060128611905080614061578199505b50505050508061407090617b37565b9050613f55565b50839050949350505050565b61408b616e7f565b60006002601c602c61409d91906173bf565b6140a791906173bf565b90506001604051855151604082015285516020015160608201528451608082015260408160606040840160075afa8216915060015b83811015614138576020810287016020820287018151516040850152815160200151606085015280516080850152604080850160606040870160075afa8516945060408460808660065afa8516945050506001810190506140dc565b81518552602082015160208601525050505092915050565b614158616e7f565b7f30644e72e131a029b85045b68181585d97816a916871ca8d3c208c16d87cfd4782602001517f30644e72e131a029b85045b68181585d97816a916871ca8d3c208c16d87cfd476141a99190617422565b6141b391906174cd565b826020018181525050819050919050565b600080836000015184602001517f198e9393920d483a7260bfb731fb5d25f1aa493335a9e71297e485b7aef312c27f1800deef121f1e76426a00665e5c4479674322d4f75edadd46debd5cd992f6ed7f090689d0585ff075ec9e99ad690c3395bc4b313370b38ef355acdadcd122975b7f12c85ea5db8c6deb4aab71808dcb408fe3d1e7690c43d37b4ce6cc0166fa7daa886000015189602001517f260e01b251f6f1c7e7ff4e580791dee8ea51d87a358e038b4efe30fac09383c17f0118c4d5b837bcc2bc89b5b398b5974e9f5944073b32078b7e231fec938883b07f04fc6369f7110fe3d25156c1bb9a72859cf2a04641f99ba4ee413c80da6a5fe47f22febda3c0c0632a56475b4214e5615e11e6dd3f96e6cea2854a87d4dacc5e556040516020016142fe9c9b9a99989796959493929190617b60565b6040516020818303038152906040529050600080600873ffffffffffffffffffffffffffffffffffffffff16836040516143389190617ca7565b600060405180830381855afa9150503d8060008114614373576040519150601f19603f3d011682016040523d82523d6000602084013e614378565b606091505b50915091506000818060200190518101906143939190617cea565b905082801561439f5750805b94505050505092915050565b600080600083905060006fffffffffffffffffffffffffffffffff821690506000608083901c90506143df8260001b6126ed565b94506143ed8160001b6126ed565b9350505050915091565b60008160001b9050919050565b6000614411846006616955565b905060007f183227397098d014dc2822db40c0ac2e9419f4243cdcb848a1f0fac9f80000009050600061448761448161444b8560036138b6565b61447c61446c61445c8b6000616955565b6144678c601c616955565b61383e565b6144778b601b616955565b61383e565b61383e565b8361383e565b90506145356145256145026144df6144bc856144b76144a78d6002616955565b6144b28e601b616955565b61383e565b61387a565b6144da6144ca8c6003616955565b6144d58d601c616955565b61383e565b61387a565b6144fd6144ed8b6004616955565b6144f88c601d616955565b61383e565b61387a565b6145206145108a6005616955565b61451b8b601e616955565b61383e565b61387a565b614530886001616955565b61387a565b905061455e816145596145498660016138b6565b6145548a602a616955565b61383e565b61387a565b905061456a818461383e565b9050614576818561383e565b905080856000601a811061458d5761458c6173f3565b5b602002018181525050505060006145de6145ce6145be6145ae88601b616955565b6145b989601e616955565b61387a565b6145c9886027616955565b6138b6565b6145d9876000616955565b61387a565b90506145f4816145ef8460026138b6565b61383e565b905061460a816146058460016138b6565b61383e565b9050614616818361383e565b9050614622818461383e565b905080846001601a8110614639576146386173f3565b5b6020020181815250505050505050565b600080600061468661467c61465f89601b616955565b61467761466d8b6011616955565b8a6060015161383e565b61387a565b876080015161387a565b90506146c9816146c46146ba61469d8b601c616955565b6146b56146ab8d6012616955565b8c6060015161383e565b61387a565b896080015161387a565b61383e565b905061470c816147076146fd6146e08b601d616955565b6146f86146ee8d6013616955565b8c6060015161383e565b61387a565b896080015161387a565b61383e565b905061474f8161474a6147406147238b601e616955565b61473b6147318d6014616955565b8c6060015161383e565b61387a565b896080015161387a565b61383e565b905080925050600061478f61478561476889601b616955565b6147806147768b600d616955565b8a6060015161383e565b61387a565b876080015161387a565b90506147d2816147cd6147c36147a68b601c616955565b6147be6147b48d600e616955565b8c6060015161383e565b61387a565b896080015161387a565b61383e565b9050614815816148106148066147e98b601d616955565b6148016147f78d600f616955565b8c6060015161383e565b61387a565b896080015161387a565b61383e565b90506148588161485361484961482c8b601e616955565b61484461483a8d6010616955565b8c6060015161383e565b61387a565b896080015161387a565b61383e565b905080915050600061488761488161487189601f616955565b61487c8a6019616955565b61387a565b8461383e565b90506148c7816148c26148bc61489e8b602b616955565b6148b76148ac8d601a616955565b8c610180015161383e565b61387a565b8561383e565b6138b6565b90506148d3818561383e565b905080856002601a81106148ea576148e96173f3565b5b60200201818152505050600061491d61491761490789601a616955565b6149128a602b616955565b61383e565b8561383e565b905080856003601a8110614934576149336173f3565b5b60200201818152505050505050505050565b6000806149c16149a461498761496a6149608a6015616955565b896080015161387a565b6149826149788b6016616955565b8a6000015161383e565b61387a565b61499f6149958a6017616955565b896020015161383e565b61387a565b6149bc6149b2896018616955565b886040015161383e565b61387a565b91506000614a036149e06149d689601b616955565b886080015161387a565b6149fe6149ee8a6003616955565b6149f98b6027616955565b61383e565b61387a565b90506000614a38614a1589601c616955565b614a33614a238b6000616955565b614a2e8c6028616955565b61383e565b61387a565b90506000614a6d614a4a8a601d616955565b614a68614a588c6001616955565b614a638d6029616955565b61383e565b61387a565b9050614abc614a9f614a8c85614a87868d6000015161383e565b61387a565b614a9a848c6020015161383e565b61387a565b614ab7614aad8c6004616955565b8b6040015161383e565b61387a565b93505050506000614ad7614ad1886020616955565b8461383e565b90506000614aef614ae9896020616955565b8461383e565b90506000614b37614b14614b048b6022616955565b614b0f8c600a616955565b61387a565b614b32614b228c6022616955565b614b2d8d600a616955565b61383e565b6138b6565b90506000614b61614b5b614b4b878961383e565b614b568d6020616955565b61383e565b836138b6565b9050614b6d818861383e565b90506000614ba1614b88614b828d600a616955565b8761383e565b614b9c614b968e6021616955565b8761383e565b6138b6565b905081896004601a8110614bb857614bb76173f3565b5b60200201818152505080896005601a8110614bd657614bd56173f3565b5b6020020181815250505050505050505050505050565b6000614bfa600060016138b6565b90506000614c0a600060026138b6565b90506000614c1a600060036138b6565b90506000614c3c614c2c88601c616955565b614c3789601b616955565b6138b6565b90506000614c5e614c4e89601d616955565b614c598a601c616955565b6138b6565b90506000614c80614c708a601e616955565b614c7b8b601d616955565b6138b6565b90506000614ca2614c928b6027616955565b614c9d8c601e616955565b6138b6565b90506000849050614cbc81614cb7878b61387a565b61383e565b9050614cd181614ccc878a61387a565b61383e565b9050614ce681614ce1878961387a565b61383e565b9050614cfc81614cf78d6007616955565b61383e565b9050614d08818a61383e565b9050808a6006601a8110614d1f57614d1e6173f3565b5b602002018181525050506000839050614d4181614d3c868b61387a565b61383e565b9050614d5681614d51868a61387a565b61383e565b9050614d6b81614d66868961387a565b61383e565b9050614d8181614d7c8d6007616955565b61383e565b9050614d8d818a61383e565b9050808a6007601a8110614da457614da36173f3565b5b602002018181525050506000829050614dc681614dc1858b61387a565b61383e565b9050614ddb81614dd6858a61387a565b61383e565b9050614df081614deb858961387a565b61383e565b9050614e0681614e018d6007616955565b61383e565b9050614e12818a61383e565b9050808a6008601a8110614e2957614e286173f3565b5b602002018181525050506000819050614e4b81614e46848b61387a565b61383e565b9050614e6081614e5b848a61387a565b61383e565b9050614e7581614e70848961387a565b61383e565b9050614e8b81614e868d6007616955565b61383e565b9050614e97818a61383e565b9050808a6009601a8110614eae57614ead6173f3565b5b6020020181815250505050505050505050505050565b614ecc616e99565b614ed784601c616955565b816000018181525050614eeb84601d616955565b816020018181525050614eff846027616955565b816040018181525050614f1384602a616955565b816060018181525050614f27846029616955565b816080018181525050614f3b846028616955565b8160a00181815250506000614f51856002616955565b90506000614f60866000616955565b90506000614f76846040015185600001516138b6565b90506000614f8c8560200151866020015161383e565b905060008690506000614fa78760600151886060015161383e565b90506000614fc6614fc089602001518a6060015161383e565b8861383e565b90506000614fe9614fdf8a60a001518b6040015161387a565b8a6000015161387a565b9050614ffe614ff8828861383e565b8761383e565b905061502561501f61501961501384876138b6565b886138b6565b8461387a565b8361387a565b9050615057615047615037838761383e565b6150428f6008616955565b61383e565b61505260018a6138b6565b61383e565b8b600a601a811061506b5761506a6173f3565b5b60200201818152505050505050600061508c8660200151876080015161387a565b905060006150ab6150a188606001518861383e565b88602001516138b6565b905060006150dc6150bc848761383e565b6150d76150d18b60a001518c600001516138b6565b8561383e565b61387a565b905061510e6150fe6150ee838c61383e565b6150f98e6008616955565b61383e565b6151096001896138b6565b61383e565b8a600b601a8110615122576151216173f3565b5b602002018181525050505050600061514861513e83601161387a565b876000015161383e565b90506000615156838461387a565b9050615162818261387a565b9050600061517183600961383e565b90506151a461519e61519861518e8b60a001518c6000015161387a565b8b6000015161387a565b8461383e565b826138b6565b8860c001818152505060006151d96151d36151c38b60c001518d61383e565b6151ce8f6008616955565b61383e565b8861383e565b90506151fd8b600a601a81106151f2576151f16173f3565b5b60200201518261387a565b8b600a601a8110615211576152106173f3565b5b60200201818152505050505050600061524c6152426152388860000151896000015161387a565b886000015161387a565b876000015161383e565b9050600061529f61526e836152698a600001518b60a001516138b6565b61383e565b61529a6152838a602001518b6020015161387a565b6152958b602001518c6080015161387a565b61383e565b6138b6565b90506152e889600b601a81106152b8576152b76173f3565b5b60200201516152e36152dd6152cd858d61383e565b6152d88f6008616955565b61383e565b8861383e565b61387a565b89600b601a81106152fc576152fb6173f3565b5b60200201818152505050505050505050505050565b615319616ed6565b61535d61533a61532a87601b616955565b615335886028616955565b61383e565b615358615348886027616955565b61535389601c616955565b61383e565b61387a565b8160000181815250506153bd6153ad61538a61537a88601b616955565b61538589601e616955565b61383e565b6153a861539889601c616955565b6153a38a601d616955565b61383e565b61387a565b6153b8876029616955565b6138b6565b8160400181815250506153d9816040015160446001901b61383e565b8160400181815250506153fa81604001516153f587602a616955565b6138b6565b8160400181815250506154158160400151826000015161387a565b8160400181815250506154368160400151615431876005616955565b61383e565b816040018181525050615452816000015160446001901b61383e565b8160000181815250506154868160000151615481615471886027616955565b61547c896028616955565b61383e565b61387a565b81600001818152505080600001518160200181815250506154c881602001516154c36154b388601d616955565b6154be89601e616955565b61387a565b6138b6565b8160200181815250506154e981602001516154e4876004616955565b61383e565b8160200181815250508060000151816060018181525050615518816060015161551387601e616955565b61387a565b81606001818152505061554c8160600151615547615537886029616955565b61554289602a616955565b61387a565b6138b6565b81606001818152505061556d8160600151615568876000616955565b61383e565b816060018181525050600061559761558d8360200151846040015161387a565b836060015161387a565b90506155ad816155a8886003616955565b61383e565b90506155c86155bd876028616955565b600e6001901b61383e565b8260800181815250506155e982608001516155e4886027616955565b61387a565b8260800181815250506156058260800151600e6001901b61383e565b826080018181525050615626826080015161562188601d616955565b61387a565b8260800181815250506156428260800151600e6001901b61383e565b826080018181525050615663826080015161565e88601c616955565b61387a565b82608001818152505061567f8260800151600e6001901b61383e565b8260800181815250506156a0826080015161569b88601b616955565b61387a565b8260800181815250506156c182608001516156bc88601e616955565b6138b6565b8260800181815250506156e282608001516156dd886005616955565b61383e565b8260800181815250506157046156f9876029616955565b600e6001901b61383e565b8260a00181815250506157258260a00151615720886028616955565b61387a565b8260a00181815250506157418260a00151600e6001901b61383e565b8260a00181815250506157628260a0015161575d886027616955565b61387a565b8260a001818152505061577e8260a00151600e6001901b61383e565b8260a001818152505061579f8260a0015161579a88601e616955565b61387a565b8260a00181815250506157bb8260a00151600e6001901b61383e565b8260a00181815250506157dc8260a001516157d788601d616955565b61387a565b8260a00181815250506157fd8260a001516157f888602a616955565b6138b6565b8260a001818152505061581e8260a00151615819886000616955565b61383e565b8260a0018181525050600061583b83608001518460a0015161387a565b90506158518161584c896004616955565b61383e565b905061586b61586188601d616955565b876040015161383e565b8360c00181815250506158998360c0015161589461588a8a601c616955565b896020015161383e565b61387a565b8360c00181815250506158c78360c001516158c26158b88a601b616955565b896000015161383e565b61387a565b8360c00181815250506158e88360c001516158e3896001616955565b61387a565b8360c00181815250508260c001518360e00181815250506159178360c0015161591289601e616955565b6138b6565b8360c001818152505061593e61592e886027616955565b61593989601b616955565b6138b6565b8361014001818152505061596661595688602a616955565b61596189601e616955565b6138b6565b8361012001818152505061599261598784610140015185610140015161383e565b8461014001516138b6565b836102800181815250506159ef6159e46159dd85610140015160017f30644e72e131a029b85045b68181585d2833e84879b9709143e1f593f00000016159d89190617422565b61383e565b600161387a565b84610120015161383e565b83610160018181525050615a41615a28846101600151615a23615a138b6002616955565b615a1e8c6003616955565b61383e565b61383e565b615a3c615a368a6009616955565b8761383e565b61383e565b85600d601a8110615a5557615a546173f3565b5b602002018181525050615aa6615a8d846102800151615a88615a788b6002616955565b615a838c6003616955565b61383e565b61383e565b615aa1615a9b8a6009616955565b8761383e565b61383e565b85600e601a8110615aba57615ab96173f3565b5b602002018181525050615aee8360c00151615ae9615ad98a6002616955565b615ae48b6003616955565b61383e565b61383e565b836101e00181815250506000615b12615b0889601e616955565b8560e001516138b6565b9050615b27615b21828361383e565b826138b6565b846101a0018181525050615b49615b3f896029616955565b886040015161383e565b84610100018181525050615b79846101000151615b74615b6a8b6028616955565b8a6020015161383e565b61387a565b84610100018181525050615ba9846101000151615ba4615b9a8b6027616955565b8a6000015161383e565b61387a565b84610100018181525050615bcc615bc189602a616955565b8561010001516138b6565b846101000181815250506000615bf6615be68a6029616955565b615bf18b601d616955565b6138b6565b9050615c93615c49615c43615c3c88610140015160017f30644e72e131a029b85045b68181585d2833e84879b9709143e1f593f0000001615c379190617422565b61383e565b600161387a565b8361383e565b615c8e615c8788610100015160017f30644e72e131a029b85045b68181585d2833e84879b9709143e1f593f0000001615c829190617422565b61383e565b600161387a565b61383e565b85610180018181525050615cbf615cb486610100015187610100015161383e565b8661010001516138b6565b856101c0018181525050615cfe615ce5866101800151615ce08c6006616955565b61383e565b615cf9615cf38c6009616955565b8961383e565b61383e565b87600f601a8110615d1257615d116173f3565b5b602002018181525050615d50615d37866102800151615d328c6006616955565b61383e565b615d4b615d458c6009616955565b8961383e565b61383e565b876010601a8110615d6457615d636173f3565b5b602002018181525050615da2615d89866101c00151615d848c6006616955565b61383e565b615d9d615d978c6009616955565b8961383e565b61383e565b876011601a8110615db657615db56173f3565b5b602002018181525050615dd8856101a00151615dd38b6006616955565b61383e565b85610200018181525050615e00615df08a6028616955565b615dfb8b601c616955565b6138b6565b85610220018181525050615e70615e60615e55615e4e88610140015160017f30644e72e131a029b85045b68181585d2833e84879b9709143e1f593f0000001615e499190617422565b61383e565b600161387a565b87610220015161383e565b615e6b8b601d616955565b6138b6565b85610240018181525050846101e0015185610260018181525050615ec4856102600151615ebf876102400151615eba615eaa8e6005616955565b615eb58f6002616955565b61383e565b61383e565b61387a565b85610260018181525050615f07856102600151615f028760c00151615efd615eed8e6000616955565b615ef88f6002616955565b61383e565b61383e565b61387a565b85610260018181525050615f2585610260015186610200015161387a565b85610260018181525050615f47615f418661026001518661387a565b8461387a565b856102a0018181525050615f73856102a00151615f6e615f688c6009616955565b8961383e565b61383e565b856102a0018181525050846102a0015187600c601a8110615f9757615f966173f3565b5b602002018181525050505050505050505050565b615fb3616f7d565b615fd1615fc185601b616955565b615fcc866002616955565b61387a565b816000018181525050615ff8615fe885601c616955565b615ff3866003616955565b61387a565b81602001818152505061601f61600f85601d616955565b61601a866004616955565b61387a565b81604001818152505061604661603685601e616955565b616041866005616955565b61387a565b81606001818152505061608861607e61607461606a8460000151856000015161383e565b846000015161383e565b836000015161383e565b826000015161383e565b8160800181815250506160ca6160c06160b66160ac8460200151856020015161383e565b846020015161383e565b836020015161383e565b826020015161383e565b8160a001818152505061610c6161026160f86160ee8460400151856040015161383e565b846040015161383e565b836040015161383e565b826040015161383e565b8160c001818152505061614e61614461613a6161308460600151856060015161383e565b846060015161383e565b836060015161383e565b826060015161383e565b8160e001818152505061616981608001518260a0015161387a565b816101000181815250506161858160c001518260e0015161387a565b816101200181815250506161af6161a48260a001518360a0015161387a565b82610120015161387a565b816101400181815250506161d96161ce8260e001518360e0015161387a565b82610100015161387a565b816101600181815250506161f781610120015182610120015161387a565b816101e0018181525050616223616218826101e00151836101e0015161387a565b82610160015161387a565b816101e001818152505061624181610100015182610100015161387a565b816101a001818152505061626d616262826101a00151836101a0015161387a565b82610140015161387a565b816101a001818152505061628b816101600151826101a0015161387a565b816101800181815250506162a9816101400151826101e0015161387a565b816101c00181815250506162c76162c185600b616955565b8361383e565b81610200018181525050616319836012601a81106162e8576162e76173f3565b5b602002015161631483610200015161630f85610180015161630a8a6027616955565b6138b6565b61383e565b61387a565b836012601a811061632d5761632c6173f3565b5b60200201818152505061637e836013601a811061634d5761634c6173f3565b5b6020020151616379836102000151616374856101a0015161636f8a6028616955565b6138b6565b61383e565b61387a565b836013601a8110616392576163916173f3565b5b6020020181815250506163e3836014601a81106163b2576163b16173f3565b5b60200201516163de8361020001516163d9856101c001516163d48a6029616955565b6138b6565b61383e565b61387a565b836014601a81106163f7576163f66173f3565b5b602002018181525050616448836015601a8110616417576164166173f3565b5b602002015161644383610200015161643e856101e001516164398a602a616955565b6138b6565b61383e565b61387a565b836015601a811061645c5761645b6173f3565b5b60200201818152505050505050565b616473617001565b600060405180608001604052806164a97f10dc6e9c006ea38b04b1e03b4bd9490c0d03f98929ca1d7fb56821fd19d3b6e7613809565b81526020016164d77f0c28145b6a44df3e0149b3d0a30b3bb599df9756d4dd9b84a86b38cfb45a740b613809565b81526020016165047e544b8338791518b2c7645a50392798b21f75bb60e3596170067d00141cac15613809565b81526020016165327f222c01175718386f2e2e82eb122789e352e105a3b8fa852613bc534433ee428b613809565b815250905061655561654586601b616955565b616550876002616955565b61387a565b8261012001818152505061659d61659261658761657c85610120015186610120015161383e565b85610120015161383e565b84610120015161383e565b83610120015161383e565b8260000181815250506165b185601c616955565b8260200181815250506165c585601d616955565b8260400181815250506165d985601e616955565b82606001818152505061660e6166046165fa8460000151856020015161387a565b846040015161387a565b836060015161387a565b82608001818152505061662b61662586600c616955565b8461383e565b8261014001818152505061666861665e836000015183600060048110616654576166536173f3565b5b602002015161383e565b836080015161387a565b8260a00181815250506166b8846016601a8110616688576166876173f3565b5b60200201516166b38461014001516166ae8660a001516166a98b6027616955565b6138b6565b61383e565b61387a565b846016601a81106166cc576166cb6173f3565b5b6020020181815250506167086166fe8360200151836001600481106166f4576166f36173f3565b5b602002015161383e565b836080015161387a565b8260c0018181525050616758846017601a8110616728576167276173f3565b5b602002015161675384610140015161674e8660c001516167498b6028616955565b6138b6565b61383e565b61387a565b846017601a811061676c5761676b6173f3565b5b6020020181815250506167a861679e836040015183600260048110616794576167936173f3565b5b602002015161383e565b836080015161387a565b8260e00181815250506167f8846018601a81106167c8576167c76173f3565b5b60200201516167f38461014001516167ee8660e001516167e98b6029616955565b6138b6565b61383e565b61387a565b846018601a811061680c5761680b6173f3565b5b60200201818152505061684861683e836060015183600360048110616834576168336173f3565b5b602002015161383e565b836080015161387a565b8261010001818152505061689a846019601a8110616869576168686173f3565b5b602002015161689584610140015161689086610100015161688b8b602a616955565b6138b6565b61383e565b61387a565b846019601a81106168ae576168ad6173f3565b5b6020020181815250505050505050565b60006168e281846000601a81106168d8576168d76173f3565b5b602002015161387a565b90506000600190505b601a81101561694e576169418261693c8684601a811061690e5761690d6173f3565b5b6020020151866001866169219190617422565b60198110616932576169316173f3565b5b602002015161383e565b61387a565b91508060010190506168eb565b5092915050565b60008282602b81111561696b5761696a617d17565b5b602c811061697c5761697b6173f3565b5b6020020151905092915050565b604051806103c001604052806000815260200160008152602001600081526020016169b2616e7f565b81526020016169bf616e7f565b81526020016169cc616e7f565b81526020016169d9616e7f565b81526020016169e6616e7f565b81526020016169f3616e7f565b8152602001616a00616e7f565b8152602001616a0d616e7f565b8152602001616a1a616e7f565b8152602001616a27616e7f565b8152602001616a34616e7f565b8152602001616a41616e7f565b8152602001616a4e616e7f565b8152602001616a5b616e7f565b8152602001616a68616e7f565b8152602001616a75616e7f565b8152602001616a82616e7f565b8152602001616a8f616e7f565b8152602001616a9c616e7f565b8152602001616aa9616e7f565b8152602001616ab6616e7f565b8152602001616ac3616e7f565b8152602001616ad0616e7f565b8152602001616add616e7f565b8152602001616aea616e7f565b8152602001616af7616e7f565b8152602001616b04616e7f565b81525090565b604051806102200160405280600081526020016000815260200160008152602001616b3361705b565b8152602001616b4061705b565b8152602001616b4d61705b565b8152602001616b5a61705b565b8152602001616b6761705b565b8152602001616b7461705b565b8152602001616b8161705b565b8152602001616b8e61705b565b8152602001616b9b617083565b8152602001616ba86170b1565b8152602001616bb56170d4565b8152602001616bc2616d45565b8152602001616bcf61705b565b8152602001616bdc61705b565b81525090565b604051806101a001604052806000815260200160008152602001600081526020016000815260200160008152602001616c19616cff565b8152602001616c26616d45565b8152602001616c33616d45565b815260200160008152602001600081526020016000815260200160008152602001600081525090565b6040518060a0016040528060008152602001600081526020016000815260200160008152602001600081525090565b604051806109400160405280604a90602082028036833780820191505090505090565b604051806109400160405280604a905b616cc6616e7f565b815260200190600190039081616cbe5790505090565b604051806101a00160405280600d90602082028036833780820191505090505090565b604051806103200160405280601990602082028036833780820191505090505090565b604051806101200160405280600990602082028036833780820191505090505090565b604051806103800160405280601c90602082028036833780820191505090505090565b604051806101200160405280600990602082028036833780820191505090505090565b604051806105a00160405280602d90602082028036833780820191505090505090565b60405180610da00160405280606d90602082028036833780820191505090505090565b604051806103a00160405280601d90602082028036833780820191505090505090565b6040518060a00160405280600590602082028036833780820191505090505090565b604051806101000160405280600890602082028036833780820191505090505090565b604051806103400160405280601a90602082028036833780820191505090505090565b604051806103a00160405280601d90602082028036833780820191505090505090565b604051806040016040528060008152602001600081525090565b6040518060e00160405280600081526020016000815260200160008152602001600081526020016000815260200160008152602001600081525090565b604051806102c00160405280600081526020016000815260200160008152602001600081526020016000815260200160008152602001600081526020016000815260200160008152602001600081526020016000815260200160008152602001600081526020016000815260200160008152602001600081526020016000815260200160008152602001600081526020016000815260200160008152602001600081525090565b60405180610220016040528060008152602001600081526020016000815260200160008152602001600081526020016000815260200160008152602001600081526020016000815260200160008152602001600081526020016000815260200160008152602001600081526020016000815260200160008152602001600081525090565b60405180610160016040528060008152602001600081526020016000815260200160008152602001600081526020016000815260200160008152602001600081526020016000815260200160008152602001600081525090565b6040518060800160405280600081526020016000815260200160008152602001600081525090565b604051806103800160405280601c905b61709b616e16565b8152602001906001900390816170935790505090565b604051806105800160405280602c90602082028036833780820191505090505090565b604051806103600160405280601b905b6170ec61705b565b8152602001906001900390816170e45790505090565b600080fd5b600080fd5b600080fd5b600080fd5b600080fd5b60008083601f8401126171315761713061710c565b5b8235905067ffffffffffffffff81111561714e5761714d617111565b5b60208301915083600182028301111561716a57617169617116565b5b9250929050565b60008083601f8401126171875761718661710c565b5b8235905067ffffffffffffffff8111156171a4576171a3617111565b5b6020830191508360208202830111156171c0576171bf617116565b5b9250929050565b600080600080604085870312156171e1576171e0617102565b5b600085013567ffffffffffffffff8111156171ff576171fe617107565b5b61720b8782880161711b565b9450945050602085013567ffffffffffffffff81111561722e5761722d617107565b5b61723a87828801617171565b925092505092959194509250565b60008115159050919050565b61725d81617248565b82525050565b60006020820190506172786000830184617254565b92915050565b600080fd5b600080fd5b6000808585111561729c5761729b61727e565b5b838611156172ad576172ac617283565b5b6001850283019150848603905094509492505050565b600082905092915050565b6000819050919050565b600082821b905092915050565b60006172f183836172c3565b826172fc81356172ce565b9250602082101561733c576173377fffffffffffffffffffffffffffffffffffffffffffffffffffffffffffffffff836020036008026172d8565b831692505b505092915050565b6000819050919050565b7f4e487b7100000000000000000000000000000000000000000000000000000000600052601160045260246000fd5b600061738882617344565b915061739383617344565b92508282026173a181617344565b915082820484148315176173b8576173b761734e565b5b5092915050565b60006173ca82617344565b91506173d583617344565b92508282019050808211156173ed576173ec61734e565b5b92915050565b7f4e487b7100000000000000000000000000000000000000000000000000000000600052603260045260246000fd5b600061742d82617344565b915061743883617344565b92508282039050818111156174505761744f61734e565b5b92915050565b600061746182617344565b91507fffffffffffffffffffffffffffffffffffffffffffffffffffffffffffffffff82036174935761749261734e565b5b600182019050919050565b7f4e487b7100000000000000000000000000000000000000000000000000000000600052601260045260246000fd5b60006174d882617344565b91506174e383617344565b9250826174f3576174f261749e565b5b828206905092915050565b7f4e487b7100000000000000000000000000000000000000000000000000000000600052604160045260246000fd5b600081519050919050565b600081905092915050565b6000819050602082019050919050565b61755c816172ce565b82525050565b600061756e8383617553565b60208301905092915050565b6000602082019050919050565b60006175928261752d565b61759c8185617538565b93506175a783617543565b8060005b838110156175d85781516175bf8882617562565b97506175ca8361757a565b9250506001810190506175ab565b5085935050505092915050565b60006175f18284617587565b915081905092915050565b6000819050919050565b61761761761282617344565b6175fc565b82525050565b60006176298284617606565b60208201915081905092915050565b6000600d9050919050565b600081905092915050565b6000819050919050565b6000602082019050919050565b61766e81617638565b6176788184617643565b92506176838261764e565b8060005b838110156176b457815161769b8782617562565b96506176a683617658565b925050600181019050617687565b505050505050565b60006176c88284617665565b6101a08201915081905092915050565b600060099050919050565b600081905092915050565b6000819050919050565b61770181617344565b82525050565b600061771383836176f8565b60208301905092915050565b6000602082019050919050565b617735816176d8565b61773f81846176e3565b925061774a826176ee565b8060005b8381101561777b5781516177628782617707565b965061776d8361771f565b92505060018101905061774e565b505050505050565b600061778f828461772c565b6101208201915081905092915050565b60006177aa82617344565b91506177b583617344565b9250826177c5576177c461749e565b5b828204905092915050565b600060099050919050565b6000819050919050565b6000819050919050565b600061780a61780561780084617344565b6177e5565b617344565b9050919050565b61781a816177ef565b82525050565b600061782c8383617811565b60208301905092915050565b6000602082019050919050565b61784e816177d0565b61785881846176e3565b9250617863826177db565b8060005b8381101561789457815161787b8782617820565b965061788683617838565b925050600181019050617867565b505050505050565b60006178a88284617845565b6101208201915081905092915050565b6000602d9050919050565b600081905092915050565b6000819050919050565b6000602082019050919050565b6178ee816178b8565b6178f881846178c3565b9250617903826178ce565b8060005b8381101561793457815161791b8782617820565b9650617926836178d8565b925050600181019050617907565b505050505050565b600061794882846178e5565b6105a08201915081905092915050565b6000606d9050919050565b600081905092915050565b6000819050919050565b6000602082019050919050565b61798e81617958565b6179988184617963565b92506179a38261796e565b8060005b838110156179d45781516179bb8782617707565b96506179c683617978565b9250506001810190506179a7565b505050505050565b60006179e88284617985565b610da08201915081905092915050565b6000601d9050919050565b600081905092915050565b6000819050919050565b6000602082019050919050565b617a2e816179f8565b617a388184617a03565b9250617a4382617a0e565b8060005b83811015617a74578151617a5b8782617707565b9650617a6683617a18565b925050600181019050617a47565b505050505050565b6000617a888284617a25565b6103a08201915081905092915050565b600060059050919050565b600081905092915050565b6000819050919050565b6000602082019050919050565b617ace81617a98565b617ad88184617aa3565b9250617ae382617aae565b8060005b83811015617b14578151617afb8782617707565b9650617b0683617ab8565b925050600181019050617ae7565b505050505050565b6000617b288284617ac5565b60a08201915081905092915050565b6000617b4282617344565b915060008203617b5557617b5461734e565b5b600182039050919050565b6000617b6c828f617606565b602082019150617b7c828e617606565b602082019150617b8c828d617606565b602082019150617b9c828c617606565b602082019150617bac828b617606565b602082019150617bbc828a617606565b602082019150617bcc8289617606565b602082019150617bdc8288617606565b602082019150617bec8287617606565b602082019150617bfc8286617606565b602082019150617c0c8285617606565b602082019150617c1c8284617606565b6020820191508190509d9c50505050505050505050505050565b600081519050919050565b600081905092915050565b60005b83811015617c6a578082015181840152602081019050617c4f565b60008484015250505050565b6000617c8182617c36565b617c8b8185617c41565b9350617c9b818560208601617c4c565b80840191505092915050565b6000617cb38284617c76565b915081905092915050565b617cc781617248565b8114617cd257600080fd5b50565b600081519050617ce481617cbe565b92915050565b600060208284031215617d0057617cff617102565b5b6000617d0e84828501617cd5565b91505092915050565b7f4e487b7100000000000000000000000000000000000000000000000000000000600052602160045260246000fdfea2646970667358221220c70005bbdc617e7019085dae369ebd3612af0d42f67d66adf372aaa7b34e3cf464736f6c634300081c0033",
  "linkReferences": {},
  "deployedLinkReferences": {}
}