{
  "_format": "hh-sol-artifact-1",
  "contractName": "OfacSanction",
  "sourceName": "contracts/MockOfacSanction.sol",
  "abi": [
    {
      "inputs": [
        {
          "internalType": "address",
          "name": "_user",
          "type": "address"
        }
      ],
      "name": "blacklist",
      "outputs": [],
      "stateMutability": "nonpayable",
      "type": "function"
    },
    {
      "inputs": [
        {
          "internalType": "address",
          "name": "",
          "type": "address"
        }
      ],
      "name": "isBlacklisted",
      "outputs": [
        {
          "internalType": "bool",
          "name": "",
          "type": "bool"
        }
      ],
      "stateMutability": "view",
      "type": "function"
    },
    {
      "inputs": [
        {
          "internalType": "address",
          "name": "",
          "type": "address"
        }
      ],
      "name": "isWhitelisted",
      "outputs": [
        {
          "internalType": "bool",
          "name": "",
          "type": "bool"
        }
      ],
      "stateMutability": "view",
      "type": "function"
    }
  ],
  "bytecode": "0x6080604052348015600f57600080fd5b5061014c8061001f6000396000f3fe608060405234801561001057600080fd5b50600436106100415760003560e01c80633af32abf14610046578063f9f92be41461007d578063fe575a87146100c3575b600080fd5b6100696100543660046100e6565b60016020526000908152604090205460ff1681565b604051901515815260200160405180910390f35b6100c161008b3660046100e6565b6001600160a01b03166000908152600160208181526040808420805460ff19908116909155918490529092208054909216179055565b005b6100696100d13660046100e6565b60006020819052908152604090205460ff1681565b6000602082840312156100f857600080fd5b81356001600160a01b038116811461010f57600080fd5b939250505056fea2646970667358221220d84b63f4f96ae7dc802efab93168cce63c76a07592957efa15362f4a21d7761264736f6c634300081b0033",
  "linkReferences": {},
  "deployedLinkReferences": {}
}