{
  "_format": "hh-sol-artifact-1",
  "contractName": "MockLendingPool",
  "sourceName": "contracts/MockAave.sol",
  "abi": [
    {
      "inputs": [
        {
          "internalType": "address",
          "name": "_asset",
          "type": "address"
        },
        {
          "internalType": "address",
          "name": "_aToken",
          "type": "address"
        }
      ],
      "stateMutability": "nonpayable",
      "type": "constructor"
    },
    {
      "inputs": [],
      "name": "aToken",
      "outputs": [
        {
          "internalType": "contract MockAToken",
          "name": "",
          "type": "address"
        }
      ],
      "stateMutability": "view",
      "type": "function"
    },
    {
      "inputs": [],
      "name": "asset",
      "outputs": [
        {
          "internalType": "contract MockAsset",
          "name": "",
          "type": "address"
        }
      ],
      "stateMutability": "view",
      "type": "function"
    },
    {
      "inputs": [
        {
          "internalType": "address",
          "name": "assetAddress",
          "type": "address"
        },
        {
          "internalType": "uint256",
          "name": "amount",
          "type": "uint256"
        },
        {
          "internalType": "address",
          "name": "onBehalfOf",
          "type": "address"
        },
        {
          "internalType": "uint16",
          "name": "referralCode",
          "type": "uint16"
        }
      ],
      "name": "supply",
      "outputs": [],
      "stateMutability": "nonpayable",
      "type": "function"
    },
    {
      "inputs": [
        {
          "internalType": "address",
          "name": "assetAddress",
          "type": "address"
        },
        {
          "internalType": "uint256",
          "name": "amount",
          "type": "uint256"
        },
        {
          "internalType": "address",
          "name": "to",
          "type": "address"
        }
      ],
      "name": "withdraw",
      "outputs": [
        {
          "internalType": "uint256",
          "name": "",
          "type": "uint256"
        }
      ],
      "stateMutability": "nonpayable",
      "type": "function"
    }
  ],
  "bytecode": "0x6080604052348015600f57600080fd5b506040516106a23803806106a2833981016040819052602c916077565b600080546001600160a01b039384166001600160a01b0319918216179091556001805492909316911617905560a5565b80516001600160a01b0381168114607257600080fd5b919050565b60008060408385031215608957600080fd5b609083605c565b9150609c60208401605c565b90509250929050565b6105ee806100b46000396000f3fe608060405234801561001057600080fd5b506004361061004c5760003560e01c806338d52e0f14610051578063617ba0371461008157806369328dec14610096578063a0c1f15e146100b7575b600080fd5b600054610064906001600160a01b031681565b6040516001600160a01b0390911681526020015b60405180910390f35b61009461008f3660046104b4565b6100ca565b005b6100a96100a436600461050a565b610309565b604051908152602001610078565b600154610064906001600160a01b031681565b6000546001600160a01b0385811691161461011c5760405162461bcd60e51b815260206004820152600d60248201526c125b9d985b1a5908185cdcd95d609a1b60448201526064015b60405180910390fd5b61ffff8116156101675760405162461bcd60e51b8152602060048201526016602482015275149959995c9c985b081b9bdd081cdd5c1c1bdc9d195960521b6044820152606401610113565b6000546040516323b872dd60e01b8152336004820152306024820152604481018590526001600160a01b03909116906323b872dd906064016020604051808303816000875af11580156101be573d6000803e3d6000fd5b505050506040513d601f19601f820116820180604052508101906101e29190610546565b6102205760405162461bcd60e51b815260206004820152600f60248201526e151c985b9cd9995c8819985a5b1959608a1b6044820152606401610113565b6001546040516340c10f1960e01b81526001600160a01b03848116600483015260248201869052909116906340c10f1990604401600060405180830381600087803b15801561026e57600080fd5b505af1158015610282573d6000803e3d6000fd5b50506000546001600160a01b031691506340c10f199050306102a5600a8761056f565b6040516001600160e01b031960e085901b1681526001600160a01b0390921660048301526024820152604401600060405180830381600087803b1580156102eb57600080fd5b505af11580156102ff573d6000803e3d6000fd5b5050505050505050565b600080546001600160a01b038581169116146103575760405162461bcd60e51b815260206004820152600d60248201526c125b9d985b1a5908185cdcd95d609a1b6044820152606401610113565b600154604051632770a7eb60e21b8152336004820152602481018590526001600160a01b0390911690639dc29fac90604401600060405180830381600087803b1580156103a357600080fd5b505af11580156103b7573d6000803e3d6000fd5b505050506000600a846103ca919061056f565b905060006103d88286610591565b60005460405163a9059cbb60e01b81526001600160a01b0387811660048301526024820184905292935091169063a9059cbb906044016020604051808303816000875af115801561042d573d6000803e3d6000fd5b505050506040513d601f19601f820116820180604052508101906104519190610546565b61048f5760405162461bcd60e51b815260206004820152600f60248201526e151c985b9cd9995c8819985a5b1959608a1b6044820152606401610113565b95945050505050565b80356001600160a01b03811681146104af57600080fd5b919050565b600080600080608085870312156104ca57600080fd5b6104d385610498565b9350602085013592506104e860408601610498565b9150606085013561ffff811681146104ff57600080fd5b939692955090935050565b60008060006060848603121561051f57600080fd5b61052884610498565b92506020840135915061053d60408501610498565b90509250925092565b60006020828403121561055857600080fd5b8151801515811461056857600080fd5b9392505050565b60008261058c57634e487b7160e01b600052601260045260246000fd5b500490565b808201808211156105b257634e487b7160e01b600052601160045260246000fd5b9291505056fea2646970667358221220009b45722d15e0067b7b95dd0df5d02ae9dcaf92cc29a6adb615edda4b7a922f64736f6c634300081b0033",
  "linkReferences": {},
  "deployedLinkReferences": {}
}